{
	"contracts/AMM.sol": {
		"DEX": {
			"abi": [
				{
					"inputs": [],
					"stateMutability": "nonpayable",
					"type": "constructor"
				},
				{
					"anonymous": false,
					"inputs": [
						{
							"indexed": false,
							"internalType": "uint256",
							"name": "_value",
							"type": "uint256"
						}
					],
					"name": "Deposit",
					"type": "event"
				},
				{
					"anonymous": false,
					"inputs": [
						{
							"indexed": false,
							"internalType": "uint256",
							"name": "_value",
							"type": "uint256"
						}
					],
					"name": "ETHSwapped",
					"type": "event"
				},
				{
					"anonymous": false,
					"inputs": [
						{
							"indexed": false,
							"internalType": "uint256",
							"name": "_value",
							"type": "uint256"
						}
					],
					"name": "Initialize",
					"type": "event"
				},
				{
					"anonymous": false,
					"inputs": [
						{
							"indexed": false,
							"internalType": "uint256",
							"name": "_value",
							"type": "uint256"
						}
					],
					"name": "TokensSwapped",
					"type": "event"
				},
				{
					"anonymous": false,
					"inputs": [
						{
							"indexed": false,
							"internalType": "uint256",
							"name": "_valueETH",
							"type": "uint256"
						},
						{
							"indexed": false,
							"internalType": "uint256",
							"name": "_valueToken",
							"type": "uint256"
						}
					],
					"name": "Withdraw",
					"type": "event"
				},
				{
					"inputs": [],
					"name": "deposit",
					"outputs": [],
					"stateMutability": "payable",
					"type": "function"
				},
				{
					"inputs": [],
					"name": "distributeFee",
					"outputs": [],
					"stateMutability": "nonpayable",
					"type": "function"
				},
				{
					"inputs": [
						{
							"internalType": "uint256",
							"name": "token_amount",
							"type": "uint256"
						}
					],
					"name": "ercToEth",
					"outputs": [],
					"stateMutability": "nonpayable",
					"type": "function"
				},
				{
					"inputs": [],
					"name": "ethToErc",
					"outputs": [],
					"stateMutability": "payable",
					"type": "function"
				},
				{
					"inputs": [],
					"name": "eth_received",
					"outputs": [
						{
							"internalType": "uint256",
							"name": "",
							"type": "uint256"
						}
					],
					"stateMutability": "view",
					"type": "function"
				},
				{
					"inputs": [],
					"name": "fee",
					"outputs": [
						{
							"internalType": "uint256",
							"name": "",
							"type": "uint256"
						}
					],
					"stateMutability": "view",
					"type": "function"
				},
				{
					"inputs": [],
					"name": "finish",
					"outputs": [],
					"stateMutability": "nonpayable",
					"type": "function"
				},
				{
					"inputs": [],
					"name": "getBalance",
					"outputs": [
						{
							"internalType": "uint256",
							"name": "",
							"type": "uint256"
						}
					],
					"stateMutability": "view",
					"type": "function"
				},
				{
					"inputs": [],
					"name": "getTokenBalance",
					"outputs": [
						{
							"internalType": "uint256",
							"name": "",
							"type": "uint256"
						}
					],
					"stateMutability": "view",
					"type": "function"
				},
				{
					"inputs": [
						{
							"internalType": "address",
							"name": "token_address",
							"type": "address"
						},
						{
							"internalType": "uint256",
							"name": "token_amount",
							"type": "uint256"
						}
					],
					"name": "initialize",
					"outputs": [],
					"stateMutability": "payable",
					"type": "function"
				},
				{
					"inputs": [
						{
							"internalType": "address",
							"name": "who",
							"type": "address"
						}
					],
					"name": "invested",
					"outputs": [
						{
							"internalType": "uint256",
							"name": "",
							"type": "uint256"
						}
					],
					"stateMutability": "view",
					"type": "function"
				},
				{
					"inputs": [
						{
							"internalType": "address",
							"name": "",
							"type": "address"
						}
					],
					"name": "investors",
					"outputs": [
						{
							"internalType": "uint256",
							"name": "",
							"type": "uint256"
						}
					],
					"stateMutability": "view",
					"type": "function"
				},
				{
					"inputs": [],
					"name": "liq_added",
					"outputs": [
						{
							"internalType": "uint256",
							"name": "",
							"type": "uint256"
						}
					],
					"stateMutability": "view",
					"type": "function"
				},
				{
					"inputs": [
						{
							"internalType": "address",
							"name": "",
							"type": "address"
						}
					],
					"name": "liquidity",
					"outputs": [
						{
							"internalType": "uint256",
							"name": "",
							"type": "uint256"
						}
					],
					"stateMutability": "view",
					"type": "function"
				},
				{
					"inputs": [
						{
							"internalType": "uint256",
							"name": "eth",
							"type": "uint256"
						}
					],
					"name": "liquidityAdded",
					"outputs": [
						{
							"internalType": "uint256",
							"name": "",
							"type": "uint256"
						},
						{
							"internalType": "uint256",
							"name": "",
							"type": "uint256"
						}
					],
					"stateMutability": "view",
					"type": "function"
				},
				{
					"inputs": [
						{
							"internalType": "uint256",
							"name": "value",
							"type": "uint256"
						}
					],
					"name": "liquiditySubstracted",
					"outputs": [
						{
							"internalType": "uint256",
							"name": "",
							"type": "uint256"
						},
						{
							"internalType": "uint256",
							"name": "",
							"type": "uint256"
						}
					],
					"stateMutability": "view",
					"type": "function"
				},
				{
					"inputs": [
						{
							"internalType": "uint256",
							"name": "eth",
							"type": "uint256"
						}
					],
					"name": "priceERC",
					"outputs": [
						{
							"internalType": "uint256",
							"name": "",
							"type": "uint256"
						}
					],
					"stateMutability": "view",
					"type": "function"
				},
				{
					"inputs": [
						{
							"internalType": "uint256",
							"name": "erc",
							"type": "uint256"
						}
					],
					"name": "priceETH",
					"outputs": [
						{
							"internalType": "uint256",
							"name": "",
							"type": "uint256"
						}
					],
					"stateMutability": "view",
					"type": "function"
				},
				{
					"inputs": [],
					"name": "tokens_received",
					"outputs": [
						{
							"internalType": "uint256",
							"name": "",
							"type": "uint256"
						}
					],
					"stateMutability": "view",
					"type": "function"
				},
				{
					"inputs": [],
					"name": "total_liquidity",
					"outputs": [
						{
							"internalType": "uint256",
							"name": "",
							"type": "uint256"
						}
					],
					"stateMutability": "view",
					"type": "function"
				},
				{
					"inputs": [
						{
							"internalType": "uint256",
							"name": "value",
							"type": "uint256"
						}
					],
					"name": "withdraw",
					"outputs": [],
					"stateMutability": "nonpayable",
					"type": "function"
				}
			],
			"devdoc": {
				"kind": "dev",
				"methods": {},
				"version": 1
			},
			"evm": {
				"assembly": "    /* \"contracts/AMM.sol\":133:6084  contract DEX {\r... */\n  mstore(0x40, 0x80)\n    /* \"contracts/AMM.sol\":891:955  constructor(){\r... */\n  callvalue\n  dup1\n  iszero\n  tag_1\n  jumpi\n  0x00\n  dup1\n  revert\ntag_1:\n  pop\n    /* \"contracts/AMM.sol\":923:931  deployer */\n  0x02\n    /* \"contracts/AMM.sol\":923:943  deployer = tx.origin */\n  dup1\n  sload\n  not(sub(shl(0xa0, 0x01), 0x01))\n  and\n    /* \"contracts/AMM.sol\":934:943  tx.origin */\n  origin\n    /* \"contracts/AMM.sol\":923:943  deployer = tx.origin */\n  or\n  swap1\n  sstore\n    /* \"contracts/AMM.sol\":133:6084  contract DEX {\r... */\n  dataSize(sub_0)\n  dup1\n  dataOffset(sub_0)\n  0x00\n  codecopy\n  0x00\n  return\nstop\n\nsub_0: assembly {\n        /* \"contracts/AMM.sol\":133:6084  contract DEX {\r... */\n      mstore(0x40, 0x80)\n      jumpi(tag_1, lt(calldatasize, 0x04))\n      shr(0xe0, calldataload(0x00))\n      dup1\n      0x72a9d124\n      gt\n      tag_23\n      jumpi\n      dup1\n      0xb8c876b1\n      gt\n      tag_24\n      jumpi\n      dup1\n      0xd56b2889\n      gt\n      tag_25\n      jumpi\n      dup1\n      0xd56b2889\n      eq\n      tag_20\n      jumpi\n      dup1\n      0xddca3f43\n      eq\n      tag_21\n      jumpi\n      dup1\n      0xdebc674c\n      eq\n      tag_22\n      jumpi\n      0x00\n      dup1\n      revert\n    tag_25:\n      dup1\n      0xb8c876b1\n      eq\n      tag_17\n      jumpi\n      dup1\n      0xcd6dc687\n      eq\n      tag_18\n      jumpi\n      dup1\n      0xd0e30db0\n      eq\n      tag_19\n      jumpi\n      0x00\n      dup1\n      revert\n    tag_24:\n      dup1\n      0x72a9d124\n      eq\n      tag_12\n      jumpi\n      dup1\n      0x74942c0f\n      eq\n      tag_13\n      jumpi\n      dup1\n      0x7937c03d\n      eq\n      tag_14\n      jumpi\n      dup1\n      0x82b2e257\n      eq\n      tag_15\n      jumpi\n      dup1\n      0x8666107c\n      eq\n      tag_16\n      jumpi\n      0x00\n      dup1\n      revert\n    tag_23:\n      dup1\n      0x5f244d4e\n      gt\n      tag_26\n      jumpi\n      dup1\n      0x5f244d4e\n      eq\n      tag_7\n      jumpi\n      dup1\n      0x66b3f6bf\n      eq\n      tag_8\n      jumpi\n      dup1\n      0x67da263d\n      eq\n      tag_9\n      jumpi\n      dup1\n      0x6f7bc9be\n      eq\n      tag_10\n      jumpi\n      dup1\n      0x707e7e87\n      eq\n      tag_11\n      jumpi\n      0x00\n      dup1\n      revert\n    tag_26:\n      dup1\n      0x12065fe0\n      eq\n      tag_2\n      jumpi\n      dup1\n      0x1eb928aa\n      eq\n      tag_3\n      jumpi\n      dup1\n      0x26c4e60d\n      eq\n      tag_4\n      jumpi\n      dup1\n      0x2e1a7d4d\n      eq\n      tag_5\n      jumpi\n      dup1\n      0x31f3bd28\n      eq\n      tag_6\n      jumpi\n    tag_1:\n      0x00\n      dup1\n      revert\n        /* \"contracts/AMM.sol\":5420:5533  function getBalance() external view returns (uint256) {\r... */\n    tag_2:\n      callvalue\n      dup1\n      iszero\n      tag_27\n      jumpi\n      0x00\n      dup1\n      revert\n    tag_27:\n      pop\n        /* \"contracts/AMM.sol\":5500:5521  address(this).balance */\n      selfbalance\n        /* \"contracts/AMM.sol\":5420:5533  function getBalance() external view returns (uint256) {\r... */\n    tag_28:\n      mload(0x40)\n        /* \"#utility.yul\":2958:2983   */\n      swap1\n      dup2\n      mstore\n        /* \"#utility.yul\":2946:2948   */\n      0x20\n        /* \"#utility.yul\":2931:2949   */\n      add\n        /* \"contracts/AMM.sol\":5420:5533  function getBalance() external view returns (uint256) {\r... */\n    tag_30:\n      mload(0x40)\n      dup1\n      swap2\n      sub\n      swap1\n      return\n        /* \"contracts/AMM.sol\":4909:5266  function liquiditySubstracted(uint256 value) external view returns (uint256, uint256){\r... */\n    tag_3:\n      callvalue\n      dup1\n      iszero\n      tag_32\n      jumpi\n      0x00\n      dup1\n      revert\n    tag_32:\n      pop\n      tag_33\n      tag_34\n      calldatasize\n      0x04\n      tag_35\n      jump\t// in\n    tag_34:\n      tag_36\n      jump\t// in\n    tag_33:\n      0x40\n      dup1\n      mload\n        /* \"#utility.yul\":3168:3193   */\n      swap3\n      dup4\n      mstore\n        /* \"#utility.yul\":3224:3226   */\n      0x20\n        /* \"#utility.yul\":3209:3227   */\n      dup4\n      add\n        /* \"#utility.yul\":3202:3236   */\n      swap2\n      swap1\n      swap2\n      mstore\n        /* \"#utility.yul\":3141:3159   */\n      add\n        /* \"contracts/AMM.sol\":4909:5266  function liquiditySubstracted(uint256 value) external view returns (uint256, uint256){\r... */\n      tag_30\n        /* \"#utility.yul\":2994:3242   */\n      jump\n        /* \"contracts/AMM.sol\":5545:5768  function distributeFee() external{\r... */\n    tag_4:\n      callvalue\n      dup1\n      iszero\n      tag_39\n      jumpi\n      0x00\n      dup1\n      revert\n    tag_39:\n      pop\n      tag_40\n      tag_41\n      jump\t// in\n    tag_40:\n      stop\n        /* \"contracts/AMM.sol\":4249:4897  function withdraw(uint256 value) external {\r... */\n    tag_5:\n      callvalue\n      dup1\n      iszero\n      tag_42\n      jumpi\n      0x00\n      dup1\n      revert\n    tag_42:\n      pop\n      tag_40\n      tag_44\n      calldatasize\n      0x04\n      tag_35\n      jump\t// in\n    tag_44:\n      tag_45\n      jump\t// in\n        /* \"contracts/AMM.sol\":187:217  uint256 public total_liquidity */\n    tag_6:\n      callvalue\n      dup1\n      iszero\n      tag_46\n      jumpi\n      0x00\n      dup1\n      revert\n    tag_46:\n      pop\n      tag_28\n      sload(0x01)\n      dup2\n      jump\n        /* \"contracts/AMM.sol\":3880:4235  function liquidityAdded(uint256 eth) external view returns (uint256, uint256){\r... */\n    tag_7:\n      callvalue\n      dup1\n      iszero\n      tag_50\n      jumpi\n      0x00\n      dup1\n      revert\n    tag_50:\n      pop\n      tag_33\n      tag_52\n      calldatasize\n      0x04\n      tag_35\n      jump\t// in\n    tag_52:\n      tag_53\n      jump\t// in\n        /* \"contracts/AMM.sol\":5780:5894  function invested(address who) external view returns (uint256){\r... */\n    tag_8:\n      callvalue\n      dup1\n      iszero\n      tag_55\n      jumpi\n      0x00\n      dup1\n      revert\n    tag_55:\n      pop\n      tag_28\n      tag_57\n      calldatasize\n      0x04\n      tag_58\n      jump\t// in\n    tag_57:\n      sub(shl(0xa0, 0x01), 0x01)\n        /* \"contracts/AMM.sol\":5868:5882  investors[who] */\n      and\n        /* \"contracts/AMM.sol\":5834:5841  uint256 */\n      0x00\n        /* \"contracts/AMM.sol\":5868:5882  investors[who] */\n      swap1\n      dup2\n      mstore\n        /* \"contracts/AMM.sol\":5868:5877  investors */\n      0x04\n        /* \"contracts/AMM.sol\":5868:5882  investors[who] */\n      0x20\n      mstore\n      0x40\n      swap1\n      keccak256\n      sload\n      swap1\n        /* \"contracts/AMM.sol\":5780:5894  function invested(address who) external view returns (uint256){\r... */\n      jump\n        /* \"contracts/AMM.sol\":2012:2188  function priceETH(uint256 erc) external view returns(uint256){\r... */\n    tag_9:\n      callvalue\n      dup1\n      iszero\n      tag_61\n      jumpi\n      0x00\n      dup1\n      revert\n    tag_61:\n      pop\n      tag_28\n      tag_63\n      calldatasize\n      0x04\n      tag_35\n      jump\t// in\n    tag_63:\n      tag_64\n      jump\t// in\n        /* \"contracts/AMM.sol\":363:407  mapping(address => uint256) public investors */\n    tag_10:\n      callvalue\n      dup1\n      iszero\n      tag_66\n      jumpi\n      0x00\n      dup1\n      revert\n    tag_66:\n      pop\n      tag_28\n      tag_68\n      calldatasize\n      0x04\n      tag_58\n      jump\t// in\n    tag_68:\n      mstore(0x20, 0x04)\n      0x00\n      swap1\n      dup2\n      mstore\n      0x40\n      swap1\n      keccak256\n      sload\n      dup2\n      jump\n        /* \"contracts/AMM.sol\":854:878  uint256 public liq_added */\n    tag_11:\n      callvalue\n      dup1\n      iszero\n      tag_71\n      jumpi\n      0x00\n      dup1\n      revert\n    tag_71:\n      pop\n      tag_28\n      sload(0x08)\n      dup2\n      jump\n        /* \"contracts/AMM.sol\":1816:2000  function priceERC(uint256 eth) external view returns(uint256){\r... */\n    tag_12:\n      callvalue\n      dup1\n      iszero\n      tag_75\n      jumpi\n      0x00\n      dup1\n      revert\n    tag_75:\n      pop\n      tag_28\n      tag_77\n      calldatasize\n      0x04\n      tag_35\n      jump\t// in\n    tag_77:\n      tag_78\n      jump\t// in\n        /* \"contracts/AMM.sol\":775:805  uint256 public tokens_received */\n    tag_13:\n      callvalue\n      dup1\n      iszero\n      tag_80\n      jumpi\n      0x00\n      dup1\n      revert\n    tag_80:\n      pop\n      tag_28\n      sload(0x06)\n      dup2\n      jump\n        /* \"contracts/AMM.sol\":2200:2663  function ethToErc() external payable {\r... */\n    tag_14:\n      tag_40\n      tag_85\n      jump\t// in\n        /* \"contracts/AMM.sol\":5278:5408  function getTokenBalance() external view returns (uint256) {\r... */\n    tag_15:\n      callvalue\n      dup1\n      iszero\n      tag_86\n      jumpi\n      0x00\n      dup1\n      revert\n    tag_86:\n      pop\n      tag_28\n      tag_88\n      jump\t// in\n        /* \"contracts/AMM.sol\":816:843  uint256 public eth_received */\n    tag_16:\n      callvalue\n      dup1\n      iszero\n      tag_90\n      jumpi\n      0x00\n      dup1\n      revert\n    tag_90:\n      pop\n      tag_28\n      sload(0x07)\n      dup2\n      jump\n        /* \"contracts/AMM.sol\":444:489  mapping (address => uint256) public liquidity */\n    tag_17:\n      callvalue\n      dup1\n      iszero\n      tag_94\n      jumpi\n      0x00\n      dup1\n      revert\n    tag_94:\n      pop\n      tag_28\n      tag_96\n      calldatasize\n      0x04\n      tag_58\n      jump\t// in\n    tag_96:\n      mstore(0x20, 0x05)\n      0x00\n      swap1\n      dup2\n      mstore\n      0x40\n      swap1\n      keccak256\n      sload\n      dup2\n      jump\n        /* \"contracts/AMM.sol\":967:1578  function initialize(address token_address, uint256 token_amount) external payable {\r... */\n    tag_18:\n      tag_40\n      tag_100\n      calldatasize\n      0x04\n      tag_101\n      jump\t// in\n    tag_100:\n      tag_102\n      jump\t// in\n        /* \"contracts/AMM.sol\":3238:3868  function deposit() external payable {\r... */\n    tag_19:\n      tag_40\n      tag_104\n      jump\t// in\n        /* \"contracts/AMM.sol\":5906:6079  function finish() external {\r... */\n    tag_20:\n      callvalue\n      dup1\n      iszero\n      tag_105\n      jumpi\n      0x00\n      dup1\n      revert\n    tag_105:\n      pop\n      tag_40\n      tag_107\n      jump\t// in\n        /* \"contracts/AMM.sol\":311:329  uint256 public fee */\n    tag_21:\n      callvalue\n      dup1\n      iszero\n      tag_108\n      jumpi\n      0x00\n      dup1\n      revert\n    tag_108:\n      pop\n      tag_28\n      sload(0x03)\n      dup2\n      jump\n        /* \"contracts/AMM.sol\":2677:3226  function ercToEth(uint256 token_amount) external {\r... */\n    tag_22:\n      callvalue\n      dup1\n      iszero\n      tag_112\n      jumpi\n      0x00\n      dup1\n      revert\n    tag_112:\n      pop\n      tag_40\n      tag_114\n      calldatasize\n      0x04\n      tag_35\n      jump\t// in\n    tag_114:\n      tag_115\n      jump\t// in\n        /* \"contracts/AMM.sol\":4909:5266  function liquiditySubstracted(uint256 value) external view returns (uint256, uint256){\r... */\n    tag_36:\n        /* \"contracts/AMM.sol\":4977:4984  uint256 */\n      0x00\n        /* \"contracts/AMM.sol\":4986:4993  uint256 */\n      dup1\n        /* \"contracts/AMM.sol\":5013:5030  uint256 eth_value */\n      0x00\n        /* \"contracts/AMM.sol\":5067:5082  total_liquidity */\n      sload(0x01)\n        /* \"contracts/AMM.sol\":5042:5063  address(this).balance */\n      selfbalance\n        /* \"contracts/AMM.sol\":5034:5039  value */\n      dup6\n        /* \"contracts/AMM.sol\":5034:5063  value * address(this).balance */\n      tag_118\n      swap2\n      swap1\n      tag_119\n      jump\t// in\n    tag_118:\n        /* \"contracts/AMM.sol\":5033:5082  (value * address(this).balance) / total_liquidity */\n      tag_120\n      swap2\n      swap1\n      tag_121\n      jump\t// in\n    tag_120:\n        /* \"contracts/AMM.sol\":5169:5184  total_liquidity */\n      sload(0x01)\n        /* \"contracts/AMM.sol\":5101:5120  uint256 token_value */\n      0x00\n        /* \"contracts/AMM.sol\":5132:5140  tokenERC */\n      dup1\n      sload\n        /* \"contracts/AMM.sol\":5132:5165  tokenERC.balanceOf(address(this)) */\n      mload(0x40)\n      shl(0xe0, 0x70a08231)\n      dup2\n      mstore\n        /* \"contracts/AMM.sol\":5159:5163  this */\n      address\n        /* \"contracts/AMM.sol\":5132:5165  tokenERC.balanceOf(address(this)) */\n      0x04\n      dup3\n      add\n        /* \"#utility.yul\":1677:1751   */\n      mstore\n        /* \"contracts/AMM.sol\":5013:5082  uint256 eth_value = (value * address(this).balance) / total_liquidity */\n      swap4\n      swap5\n      pop\n        /* \"contracts/AMM.sol\":5101:5120  uint256 token_value */\n      swap1\n      swap3\n      sub(shl(0xa0, 0x01), 0x01)\n        /* \"contracts/AMM.sol\":5132:5140  tokenERC */\n      swap1\n      swap2\n      and\n      swap1\n        /* \"contracts/AMM.sol\":5132:5150  tokenERC.balanceOf */\n      0x70a08231\n      swap1\n        /* \"#utility.yul\":1650:1668   */\n      0x24\n      add\n        /* \"contracts/AMM.sol\":5132:5165  tokenERC.balanceOf(address(this)) */\n      0x20\n      mload(0x40)\n      dup1\n      dup4\n      sub\n      dup2\n      dup7\n      dup1\n      extcodesize\n      iszero\n      dup1\n      iszero\n      tag_124\n      jumpi\n      0x00\n      dup1\n      revert\n    tag_124:\n      pop\n      gas\n      staticcall\n      iszero\n      dup1\n      iszero\n      tag_126\n      jumpi\n      returndatasize\n      0x00\n      dup1\n      returndatacopy\n      revert(0x00, returndatasize)\n    tag_126:\n      pop\n      pop\n      pop\n      pop\n      mload(0x40)\n      returndatasize\n      not(0x1f)\n      0x1f\n      dup3\n      add\n      and\n      dup3\n      add\n      dup1\n      0x40\n      mstore\n      pop\n      dup2\n      add\n      swap1\n      tag_127\n      swap2\n      swap1\n      tag_128\n      jump\t// in\n    tag_127:\n        /* \"contracts/AMM.sol\":5124:5165  value * tokenERC.balanceOf(address(this)) */\n      tag_129\n      swap1\n        /* \"contracts/AMM.sol\":5124:5129  value */\n      dup8\n        /* \"contracts/AMM.sol\":5124:5165  value * tokenERC.balanceOf(address(this)) */\n      tag_119\n      jump\t// in\n    tag_129:\n        /* \"contracts/AMM.sol\":5123:5184  (value * tokenERC.balanceOf(address(this))) / total_liquidity */\n      tag_130\n      swap2\n      swap1\n      tag_121\n      jump\t// in\n    tag_130:\n        /* \"contracts/AMM.sol\":5229:5238  eth_value */\n      swap2\n      swap6\n        /* \"contracts/AMM.sol\":5101:5184  uint256 token_value = (value * tokenERC.balanceOf(address(this))) / total_liquidity */\n      swap2\n      swap5\n      pop\n        /* \"contracts/AMM.sol\":4909:5266  function liquiditySubstracted(uint256 value) external view returns (uint256, uint256){\r... */\n      swap1\n      swap3\n      pop\n      pop\n      pop\n      jump\t// out\n        /* \"contracts/AMM.sol\":5545:5768  function distributeFee() external{\r... */\n    tag_41:\n        /* \"contracts/AMM.sol\":5597:5611  uint256 profit */\n      0x00\n        /* \"contracts/AMM.sol\":5626:5630  1000 */\n      0x03e8\n        /* \"contracts/AMM.sol\":5615:5618  fee */\n      sload(0x03)\n        /* \"contracts/AMM.sol\":5621:5622  3 */\n      0x03\n        /* \"contracts/AMM.sol\":5615:5622  fee * 3 */\n      tag_132\n      swap2\n      swap1\n      tag_119\n      jump\t// in\n    tag_132:\n        /* \"contracts/AMM.sol\":5614:5630  (fee * 3) / 1000 */\n      tag_133\n      swap2\n      swap1\n      tag_121\n      jump\t// in\n    tag_133:\n        /* \"contracts/AMM.sol\":5668:5701  tx.origin.call{value: profit}(\"\") */\n      mload(0x40)\n        /* \"contracts/AMM.sol\":5597:5630  uint256 profit = (fee * 3) / 1000 */\n      swap1\n      swap2\n      pop\n        /* \"contracts/AMM.sol\":5650:5662  bool success */\n      0x00\n      swap1\n        /* \"contracts/AMM.sol\":5668:5677  tx.origin */\n      origin\n      swap1\n        /* \"contracts/AMM.sol\":5597:5630  uint256 profit = (fee * 3) / 1000 */\n      dup4\n      swap1\n        /* \"contracts/AMM.sol\":5650:5662  bool success */\n      dup4\n        /* \"contracts/AMM.sol\":5668:5701  tx.origin.call{value: profit}(\"\") */\n      dup2\n        /* \"contracts/AMM.sol\":5650:5662  bool success */\n      dup2\n        /* \"contracts/AMM.sol\":5668:5701  tx.origin.call{value: profit}(\"\") */\n      dup2\n        /* \"contracts/AMM.sol\":5597:5630  uint256 profit = (fee * 3) / 1000 */\n      dup6\n        /* \"contracts/AMM.sol\":5668:5677  tx.origin */\n      dup8\n        /* \"contracts/AMM.sol\":5668:5701  tx.origin.call{value: profit}(\"\") */\n      gas\n      call\n      swap3\n      pop\n      pop\n      pop\n      returndatasize\n      dup1\n      0x00\n      dup2\n      eq\n      tag_138\n      jumpi\n      mload(0x40)\n      swap2\n      pop\n      and(add(returndatasize, 0x3f), not(0x1f))\n      dup3\n      add\n      0x40\n      mstore\n      returndatasize\n      dup3\n      mstore\n      returndatasize\n      0x00\n      0x20\n      dup5\n      add\n      returndatacopy\n      jump(tag_137)\n    tag_138:\n      0x60\n      swap2\n      pop\n    tag_137:\n      pop\n        /* \"contracts/AMM.sol\":5649:5701  (bool success, ) = tx.origin.call{value: profit}(\"\") */\n      pop\n      swap1\n      pop\n        /* \"contracts/AMM.sol\":5728:5735  success */\n      dup1\n        /* \"contracts/AMM.sol\":5720:5756  require(success, \"Transfer failed.\") */\n      tag_139\n      jumpi\n      mload(0x40)\n      shl(0xe5, 0x461bcd)\n      dup2\n      mstore\n        /* \"#utility.yul\":2669:2671   */\n      0x20\n        /* \"contracts/AMM.sol\":5720:5756  require(success, \"Transfer failed.\") */\n      0x04\n      dup3\n      add\n        /* \"#utility.yul\":2651:2672   */\n      mstore\n        /* \"#utility.yul\":2708:2710   */\n      0x10\n        /* \"#utility.yul\":2688:2706   */\n      0x24\n      dup3\n      add\n        /* \"#utility.yul\":2681:2711   */\n      mstore\n      shl(0x81, 0x2a3930b739b332b9103330b4b632b217)\n        /* \"#utility.yul\":2727:2745   */\n      0x44\n      dup3\n      add\n        /* \"#utility.yul\":2720:2766   */\n      mstore\n        /* \"#utility.yul\":2783:2801   */\n      0x64\n      add\n        /* \"contracts/AMM.sol\":5720:5756  require(success, \"Transfer failed.\") */\n    tag_140:\n      mload(0x40)\n      dup1\n      swap2\n      sub\n      swap1\n      revert\n    tag_139:\n        /* \"contracts/AMM.sol\":5578:5768  {\r... */\n      pop\n      pop\n        /* \"contracts/AMM.sol\":5545:5768  function distributeFee() external{\r... */\n      jump\t// out\n        /* \"contracts/AMM.sol\":4249:4897  function withdraw(uint256 value) external {\r... */\n    tag_45:\n        /* \"contracts/AMM.sol\":4364:4379  total_liquidity */\n      sload(0x01)\n        /* \"contracts/AMM.sol\":4310:4327  uint256 eth_value */\n      0x00\n      swap1\n        /* \"contracts/AMM.sol\":4331:4360  value * address(this).balance */\n      tag_143\n        /* \"contracts/AMM.sol\":4339:4360  address(this).balance */\n      selfbalance\n        /* \"contracts/AMM.sol\":4331:4336  value */\n      dup5\n        /* \"contracts/AMM.sol\":4331:4360  value * address(this).balance */\n      tag_119\n      jump\t// in\n    tag_143:\n        /* \"contracts/AMM.sol\":4330:4379  (value * address(this).balance) / total_liquidity */\n      tag_144\n      swap2\n      swap1\n      tag_121\n      jump\t// in\n    tag_144:\n        /* \"contracts/AMM.sol\":4466:4481  total_liquidity */\n      sload(0x01)\n        /* \"contracts/AMM.sol\":4398:4417  uint256 token_value */\n      0x00\n        /* \"contracts/AMM.sol\":4429:4437  tokenERC */\n      dup1\n      sload\n        /* \"contracts/AMM.sol\":4429:4462  tokenERC.balanceOf(address(this)) */\n      mload(0x40)\n      shl(0xe0, 0x70a08231)\n      dup2\n      mstore\n        /* \"contracts/AMM.sol\":4456:4460  this */\n      address\n        /* \"contracts/AMM.sol\":4429:4462  tokenERC.balanceOf(address(this)) */\n      0x04\n      dup3\n      add\n        /* \"#utility.yul\":1677:1751   */\n      mstore\n        /* \"contracts/AMM.sol\":4310:4379  uint256 eth_value = (value * address(this).balance) / total_liquidity */\n      swap4\n      swap5\n      pop\n        /* \"contracts/AMM.sol\":4398:4417  uint256 token_value */\n      swap1\n      swap3\n      sub(shl(0xa0, 0x01), 0x01)\n        /* \"contracts/AMM.sol\":4429:4437  tokenERC */\n      swap1\n      swap2\n      and\n      swap1\n        /* \"contracts/AMM.sol\":4429:4447  tokenERC.balanceOf */\n      0x70a08231\n      swap1\n        /* \"#utility.yul\":1650:1668   */\n      0x24\n      add\n        /* \"contracts/AMM.sol\":4429:4462  tokenERC.balanceOf(address(this)) */\n      0x20\n      mload(0x40)\n      dup1\n      dup4\n      sub\n      dup2\n      dup7\n      dup1\n      extcodesize\n      iszero\n      dup1\n      iszero\n      tag_146\n      jumpi\n      0x00\n      dup1\n      revert\n    tag_146:\n      pop\n      gas\n      staticcall\n      iszero\n      dup1\n      iszero\n      tag_148\n      jumpi\n      returndatasize\n      0x00\n      dup1\n      returndatacopy\n      revert(0x00, returndatasize)\n    tag_148:\n      pop\n      pop\n      pop\n      pop\n      mload(0x40)\n      returndatasize\n      not(0x1f)\n      0x1f\n      dup3\n      add\n      and\n      dup3\n      add\n      dup1\n      0x40\n      mstore\n      pop\n      dup2\n      add\n      swap1\n      tag_149\n      swap2\n      swap1\n      tag_128\n      jump\t// in\n    tag_149:\n        /* \"contracts/AMM.sol\":4421:4462  value * tokenERC.balanceOf(address(this)) */\n      tag_150\n      swap1\n        /* \"contracts/AMM.sol\":4421:4426  value */\n      dup6\n        /* \"contracts/AMM.sol\":4421:4462  value * tokenERC.balanceOf(address(this)) */\n      tag_119\n      jump\t// in\n    tag_150:\n        /* \"contracts/AMM.sol\":4420:4481  (value * tokenERC.balanceOf(address(this))) / total_liquidity */\n      tag_151\n      swap2\n      swap1\n      tag_121\n      jump\t// in\n    tag_151:\n        /* \"contracts/AMM.sol\":4398:4481  uint256 token_value = (value * tokenERC.balanceOf(address(this))) / total_liquidity */\n      swap1\n      pop\n        /* \"contracts/AMM.sol\":4521:4530  eth_value */\n      dup2\n        /* \"contracts/AMM.sol\":4502:4517  total_liquidity */\n      0x01\n      0x00\n        /* \"contracts/AMM.sol\":4502:4530  total_liquidity -= eth_value */\n      dup3\n      dup3\n      sload\n      tag_152\n      swap2\n      swap1\n      tag_153\n      jump\t// in\n    tag_152:\n      swap1\n      swap2\n      sstore\n      pop\n      pop\n        /* \"contracts/AMM.sol\":4570:4606  tx.origin.call{value: eth_value}(\"\") */\n      mload(0x40)\n        /* \"contracts/AMM.sol\":4552:4564  bool success */\n      0x00\n      swap1\n        /* \"contracts/AMM.sol\":4570:4579  tx.origin */\n      origin\n      swap1\n        /* \"contracts/AMM.sol\":4592:4601  eth_value */\n      dup5\n      swap1\n        /* \"contracts/AMM.sol\":4552:4564  bool success */\n      dup4\n        /* \"contracts/AMM.sol\":4570:4606  tx.origin.call{value: eth_value}(\"\") */\n      dup2\n        /* \"contracts/AMM.sol\":4552:4564  bool success */\n      dup2\n        /* \"contracts/AMM.sol\":4570:4606  tx.origin.call{value: eth_value}(\"\") */\n      dup2\n        /* \"contracts/AMM.sol\":4592:4601  eth_value */\n      dup6\n        /* \"contracts/AMM.sol\":4570:4579  tx.origin */\n      dup8\n        /* \"contracts/AMM.sol\":4570:4606  tx.origin.call{value: eth_value}(\"\") */\n      gas\n      call\n      swap3\n      pop\n      pop\n      pop\n      returndatasize\n      dup1\n      0x00\n      dup2\n      eq\n      tag_157\n      jumpi\n      mload(0x40)\n      swap2\n      pop\n      and(add(returndatasize, 0x3f), not(0x1f))\n      dup3\n      add\n      0x40\n      mstore\n      returndatasize\n      dup3\n      mstore\n      returndatasize\n      0x00\n      0x20\n      dup5\n      add\n      returndatacopy\n      jump(tag_156)\n    tag_157:\n      0x60\n      swap2\n      pop\n    tag_156:\n      pop\n        /* \"contracts/AMM.sol\":4551:4606  (bool success, ) = tx.origin.call{value: eth_value}(\"\") */\n      pop\n      swap1\n      pop\n        /* \"contracts/AMM.sol\":4633:4640  success */\n      dup1\n        /* \"contracts/AMM.sol\":4625:4661  require(success, \"Transfer failed.\") */\n      tag_158\n      jumpi\n      mload(0x40)\n      shl(0xe5, 0x461bcd)\n      dup2\n      mstore\n        /* \"#utility.yul\":2669:2671   */\n      0x20\n        /* \"contracts/AMM.sol\":4625:4661  require(success, \"Transfer failed.\") */\n      0x04\n      dup3\n      add\n        /* \"#utility.yul\":2651:2672   */\n      mstore\n        /* \"#utility.yul\":2708:2710   */\n      0x10\n        /* \"#utility.yul\":2688:2706   */\n      0x24\n      dup3\n      add\n        /* \"#utility.yul\":2681:2711   */\n      mstore\n      shl(0x81, 0x2a3930b739b332b9103330b4b632b217)\n        /* \"#utility.yul\":2727:2745   */\n      0x44\n      dup3\n      add\n        /* \"#utility.yul\":2720:2766   */\n      mstore\n        /* \"#utility.yul\":2783:2801   */\n      0x64\n      add\n        /* \"contracts/AMM.sol\":4625:4661  require(success, \"Transfer failed.\") */\n      tag_140\n        /* \"#utility.yul\":2467:2807   */\n      jump\n        /* \"contracts/AMM.sol\":4625:4661  require(success, \"Transfer failed.\") */\n    tag_158:\n        /* \"contracts/AMM.sol\":4694:4702  tokenERC */\n      sload(0x00)\n        /* \"contracts/AMM.sol\":4694:4735  tokenERC.transfer(tx.origin, token_value) */\n      mload(0x40)\n      shl(0xe0, 0xa9059cbb)\n      dup2\n      mstore\n        /* \"contracts/AMM.sol\":4712:4721  tx.origin */\n      origin\n        /* \"contracts/AMM.sol\":4694:4735  tokenERC.transfer(tx.origin, token_value) */\n      0x04\n      dup3\n      add\n        /* \"#utility.yul\":2339:2413   */\n      mstore\n        /* \"#utility.yul\":2429:2447   */\n      0x24\n      dup2\n      add\n        /* \"#utility.yul\":2422:2456   */\n      dup5\n      swap1\n      mstore\n      sub(shl(0xa0, 0x01), 0x01)\n        /* \"contracts/AMM.sol\":4694:4702  tokenERC */\n      swap1\n      swap2\n      and\n      swap1\n        /* \"contracts/AMM.sol\":4694:4711  tokenERC.transfer */\n      0xa9059cbb\n      swap1\n        /* \"#utility.yul\":2312:2330   */\n      0x44\n      add\n        /* \"contracts/AMM.sol\":4694:4735  tokenERC.transfer(tx.origin, token_value) */\n      0x20\n      mload(0x40)\n      dup1\n      dup4\n      sub\n      dup2\n      0x00\n      dup8\n      dup1\n      extcodesize\n      iszero\n      dup1\n      iszero\n      tag_162\n      jumpi\n      0x00\n      dup1\n      revert\n    tag_162:\n      pop\n      gas\n      call\n      iszero\n      dup1\n      iszero\n      tag_164\n      jumpi\n      returndatasize\n      0x00\n      dup1\n      returndatacopy\n      revert(0x00, returndatasize)\n    tag_164:\n      pop\n      pop\n      pop\n      pop\n      mload(0x40)\n      returndatasize\n      not(0x1f)\n      0x1f\n      dup3\n      add\n      and\n      dup3\n      add\n      dup1\n      0x40\n      mstore\n      pop\n      dup2\n      add\n      swap1\n      tag_165\n      swap2\n      swap1\n      tag_166\n      jump\t// in\n    tag_165:\n        /* \"contracts/AMM.sol\":4686:4736  require(tokenERC.transfer(tx.origin, token_value)) */\n      tag_167\n      jumpi\n      0x00\n      dup1\n      revert\n    tag_167:\n        /* \"contracts/AMM.sol\":4762:4794  Withdraw(eth_value, token_value) */\n      0x40\n      dup1\n      mload\n        /* \"#utility.yul\":3168:3193   */\n      dup5\n      dup2\n      mstore\n        /* \"#utility.yul\":3224:3226   */\n      0x20\n        /* \"#utility.yul\":3209:3227   */\n      dup2\n      add\n        /* \"#utility.yul\":3202:3236   */\n      dup5\n      swap1\n      mstore\n        /* \"contracts/AMM.sol\":4762:4794  Withdraw(eth_value, token_value) */\n      0x56ca301a9219608c91e7bcee90e083c19671d2cdcc96752c7af291cee5f9c8c8\n      swap2\n        /* \"#utility.yul\":3141:3159   */\n      add\n        /* \"contracts/AMM.sol\":4762:4794  Withdraw(eth_value, token_value) */\n      mload(0x40)\n      dup1\n      swap2\n      sub\n      swap1\n      log1\n      pop\n        /* \"contracts/AMM.sol\":4813:4825  eth_received */\n      0x07\n        /* \"contracts/AMM.sol\":4813:4837  eth_received = eth_value */\n      swap2\n      swap1\n      swap2\n      sstore\n        /* \"contracts/AMM.sol\":4856:4871  tokens_received */\n      0x06\n        /* \"contracts/AMM.sol\":4856:4885  tokens_received = token_value */\n      sstore\n      pop\n        /* \"contracts/AMM.sol\":4249:4897  function withdraw(uint256 value) external {\r... */\n      jump\t// out\n        /* \"contracts/AMM.sol\":3880:4235  function liquidityAdded(uint256 eth) external view returns (uint256, uint256){\r... */\n    tag_53:\n        /* \"contracts/AMM.sol\":3940:3947  uint256 */\n      0x00\n        /* \"contracts/AMM.sol\":4007:4015  tokenERC */\n      dup1\n      sload\n        /* \"contracts/AMM.sol\":4007:4040  tokenERC.balanceOf(address(this)) */\n      mload(0x40)\n      shl(0xe0, 0x70a08231)\n      dup2\n      mstore\n        /* \"contracts/AMM.sol\":4034:4038  this */\n      address\n        /* \"contracts/AMM.sol\":4007:4040  tokenERC.balanceOf(address(this)) */\n      0x04\n      dup3\n      add\n        /* \"#utility.yul\":1677:1751   */\n      mstore\n        /* \"contracts/AMM.sol\":3940:3947  uint256 */\n      dup3\n      swap2\n      dup3\n      swap2\n        /* \"contracts/AMM.sol\":4045:4066  address(this).balance */\n      selfbalance\n      swap2\n      sub(shl(0xa0, 0x01), 0x01)\n        /* \"contracts/AMM.sol\":4007:4015  tokenERC */\n      and\n      swap1\n        /* \"contracts/AMM.sol\":4007:4025  tokenERC.balanceOf */\n      0x70a08231\n      swap1\n        /* \"#utility.yul\":1650:1668   */\n      0x24\n      add\n        /* \"contracts/AMM.sol\":4007:4040  tokenERC.balanceOf(address(this)) */\n      0x20\n      mload(0x40)\n      dup1\n      dup4\n      sub\n      dup2\n      dup7\n      dup1\n      extcodesize\n      iszero\n      dup1\n      iszero\n      tag_171\n      jumpi\n      0x00\n      dup1\n      revert\n    tag_171:\n      pop\n      gas\n      staticcall\n      iszero\n      dup1\n      iszero\n      tag_173\n      jumpi\n      returndatasize\n      0x00\n      dup1\n      returndatacopy\n      revert(0x00, returndatasize)\n    tag_173:\n      pop\n      pop\n      pop\n      pop\n      mload(0x40)\n      returndatasize\n      not(0x1f)\n      0x1f\n      dup3\n      add\n      and\n      dup3\n      add\n      dup1\n      0x40\n      mstore\n      pop\n      dup2\n      add\n      swap1\n      tag_174\n      swap2\n      swap1\n      tag_128\n      jump\t// in\n    tag_174:\n        /* \"contracts/AMM.sol\":4001:4040  eth * tokenERC.balanceOf(address(this)) */\n      tag_175\n      swap1\n        /* \"contracts/AMM.sol\":4001:4004  eth */\n      dup7\n        /* \"contracts/AMM.sol\":4001:4040  eth * tokenERC.balanceOf(address(this)) */\n      tag_119\n      jump\t// in\n    tag_175:\n        /* \"contracts/AMM.sol\":4000:4067  (eth * tokenERC.balanceOf(address(this))) / (address(this).balance) */\n      tag_176\n      swap2\n      swap1\n      tag_121\n      jump\t// in\n    tag_176:\n        /* \"contracts/AMM.sol\":3976:4068  uint256 token_amount = ((eth * tokenERC.balanceOf(address(this))) / (address(this).balance)) */\n      swap1\n      pop\n        /* \"contracts/AMM.sol\":4087:4110  uint256 liquidity_added */\n      0x00\n        /* \"contracts/AMM.sol\":4140:4161  address(this).balance */\n      selfbalance\n        /* \"contracts/AMM.sol\":4120:4135  total_liquidity */\n      sload(0x01)\n        /* \"contracts/AMM.sol\":4114:4117  eth */\n      dup7\n        /* \"contracts/AMM.sol\":4114:4135  eth * total_liquidity */\n      tag_129\n      swap2\n      swap1\n      tag_119\n      jump\t// in\n        /* \"contracts/AMM.sol\":2012:2188  function priceETH(uint256 erc) external view returns(uint256){\r... */\n    tag_64:\n        /* \"contracts/AMM.sol\":2065:2072  uint256 */\n      0x00\n        /* \"contracts/AMM.sol\":2119:2127  tokenERC */\n      dup1\n      sload\n        /* \"contracts/AMM.sol\":2119:2152  tokenERC.balanceOf(address(this)) */\n      mload(0x40)\n      shl(0xe0, 0x70a08231)\n      dup2\n      mstore\n        /* \"contracts/AMM.sol\":2146:2150  this */\n      address\n        /* \"contracts/AMM.sol\":2119:2152  tokenERC.balanceOf(address(this)) */\n      0x04\n      dup3\n      add\n        /* \"#utility.yul\":1677:1751   */\n      mstore\n        /* \"contracts/AMM.sol\":2099:2176  calculatePrice(erc, tokenERC.balanceOf(address(this)), address(this).balance) */\n      tag_181\n      swap2\n        /* \"contracts/AMM.sol\":2114:2117  erc */\n      dup5\n      swap2\n      sub(shl(0xa0, 0x01), 0x01)\n        /* \"contracts/AMM.sol\":2119:2127  tokenERC */\n      swap1\n      swap2\n      and\n      swap1\n        /* \"contracts/AMM.sol\":2119:2137  tokenERC.balanceOf */\n      0x70a08231\n      swap1\n        /* \"#utility.yul\":1650:1668   */\n      0x24\n      add\n        /* \"contracts/AMM.sol\":2119:2152  tokenERC.balanceOf(address(this)) */\n    tag_182:\n      0x20\n      mload(0x40)\n      dup1\n      dup4\n      sub\n      dup2\n      dup7\n      dup1\n      extcodesize\n      iszero\n      dup1\n      iszero\n      tag_183\n      jumpi\n      0x00\n      dup1\n      revert\n    tag_183:\n      pop\n      gas\n      staticcall\n      iszero\n      dup1\n      iszero\n      tag_185\n      jumpi\n      returndatasize\n      0x00\n      dup1\n      returndatacopy\n      revert(0x00, returndatasize)\n    tag_185:\n      pop\n      pop\n      pop\n      pop\n      mload(0x40)\n      returndatasize\n      not(0x1f)\n      0x1f\n      dup3\n      add\n      and\n      dup3\n      add\n      dup1\n      0x40\n      mstore\n      pop\n      dup2\n      add\n      swap1\n      tag_186\n      swap2\n      swap1\n      tag_128\n      jump\t// in\n    tag_186:\n        /* \"contracts/AMM.sol\":2154:2175  address(this).balance */\n      selfbalance\n        /* \"contracts/AMM.sol\":2099:2113  calculatePrice */\n      tag_187\n        /* \"contracts/AMM.sol\":2099:2176  calculatePrice(erc, tokenERC.balanceOf(address(this)), address(this).balance) */\n      jump\t// in\n    tag_181:\n        /* \"contracts/AMM.sol\":2092:2176  return calculatePrice(erc, tokenERC.balanceOf(address(this)), address(this).balance) */\n      swap3\n        /* \"contracts/AMM.sol\":2012:2188  function priceETH(uint256 erc) external view returns(uint256){\r... */\n      swap2\n      pop\n      pop\n      jump\t// out\n        /* \"contracts/AMM.sol\":1816:2000  function priceERC(uint256 eth) external view returns(uint256){\r... */\n    tag_78:\n        /* \"contracts/AMM.sol\":1869:1876  uint256 */\n      0x00\n        /* \"contracts/AMM.sol\":1903:1988  calculatePrice(eth, (address(this).balance - eth), tokenERC.balanceOf(address(this))) */\n      tag_181\n        /* \"contracts/AMM.sol\":1918:1921  eth */\n      dup3\n        /* \"contracts/AMM.sol\":1924:1951  address(this).balance - eth */\n      tag_190\n        /* \"contracts/AMM.sol\":1918:1921  eth */\n      dup2\n        /* \"contracts/AMM.sol\":1924:1945  address(this).balance */\n      selfbalance\n        /* \"contracts/AMM.sol\":1924:1951  address(this).balance - eth */\n      tag_153\n      jump\t// in\n    tag_190:\n        /* \"contracts/AMM.sol\":1954:1962  tokenERC */\n      sload(0x00)\n        /* \"contracts/AMM.sol\":1954:1987  tokenERC.balanceOf(address(this)) */\n      mload(0x40)\n      shl(0xe0, 0x70a08231)\n      dup2\n      mstore\n        /* \"contracts/AMM.sol\":1981:1985  this */\n      address\n        /* \"contracts/AMM.sol\":1954:1987  tokenERC.balanceOf(address(this)) */\n      0x04\n      dup3\n      add\n        /* \"#utility.yul\":1677:1751   */\n      mstore\n      sub(shl(0xa0, 0x01), 0x01)\n        /* \"contracts/AMM.sol\":1954:1962  tokenERC */\n      swap1\n      swap2\n      and\n      swap1\n        /* \"contracts/AMM.sol\":1954:1972  tokenERC.balanceOf */\n      0x70a08231\n      swap1\n        /* \"#utility.yul\":1650:1668   */\n      0x24\n      add\n        /* \"contracts/AMM.sol\":1954:1987  tokenERC.balanceOf(address(this)) */\n      0x20\n      mload(0x40)\n      dup1\n      dup4\n      sub\n      dup2\n      dup7\n      dup1\n      extcodesize\n      iszero\n      dup1\n      iszero\n      tag_192\n      jumpi\n      0x00\n      dup1\n      revert\n    tag_192:\n      pop\n      gas\n      staticcall\n      iszero\n      dup1\n      iszero\n      tag_194\n      jumpi\n      returndatasize\n      0x00\n      dup1\n      returndatacopy\n      revert(0x00, returndatasize)\n    tag_194:\n      pop\n      pop\n      pop\n      pop\n      mload(0x40)\n      returndatasize\n      not(0x1f)\n      0x1f\n      dup3\n      add\n      and\n      dup3\n      add\n      dup1\n      0x40\n      mstore\n      pop\n      dup2\n      add\n      swap1\n      tag_195\n      swap2\n      swap1\n      tag_128\n      jump\t// in\n    tag_195:\n        /* \"contracts/AMM.sol\":1903:1917  calculatePrice */\n      tag_187\n        /* \"contracts/AMM.sol\":1903:1988  calculatePrice(eth, (address(this).balance - eth), tokenERC.balanceOf(address(this))) */\n      jump\t// in\n        /* \"contracts/AMM.sol\":2200:2663  function ethToErc() external payable {\r... */\n    tag_85:\n        /* \"contracts/AMM.sol\":2256:2278  uint256 tokens_swapped */\n      0x00\n        /* \"contracts/AMM.sol\":2281:2378  calculatePrice(msg.value, (address(this).balance - msg.value), tokenERC.balanceOf(address(this))) */\n      tag_197\n        /* \"contracts/AMM.sol\":2296:2305  msg.value */\n      callvalue\n        /* \"contracts/AMM.sol\":2308:2341  address(this).balance - msg.value */\n      tag_190\n        /* \"contracts/AMM.sol\":2296:2305  msg.value */\n      dup2\n        /* \"contracts/AMM.sol\":2308:2329  address(this).balance */\n      selfbalance\n        /* \"contracts/AMM.sol\":2308:2341  address(this).balance - msg.value */\n      tag_153\n      jump\t// in\n        /* \"contracts/AMM.sol\":2281:2378  calculatePrice(msg.value, (address(this).balance - msg.value), tokenERC.balanceOf(address(this))) */\n    tag_197:\n        /* \"contracts/AMM.sol\":2407:2415  tokenERC */\n      sload(0x00)\n        /* \"contracts/AMM.sol\":2407:2451  tokenERC.transfer(tx.origin, tokens_swapped) */\n      mload(0x40)\n      shl(0xe0, 0xa9059cbb)\n      dup2\n      mstore\n        /* \"contracts/AMM.sol\":2425:2434  tx.origin */\n      origin\n        /* \"contracts/AMM.sol\":2407:2451  tokenERC.transfer(tx.origin, tokens_swapped) */\n      0x04\n      dup3\n      add\n        /* \"#utility.yul\":2339:2413   */\n      mstore\n        /* \"#utility.yul\":2429:2447   */\n      0x24\n      dup2\n      add\n        /* \"#utility.yul\":2422:2456   */\n      dup4\n      swap1\n      mstore\n        /* \"contracts/AMM.sol\":2256:2378  uint256 tokens_swapped = calculatePrice(msg.value, (address(this).balance - msg.value), tokenERC.balanceOf(address(this))) */\n      swap2\n      swap3\n      pop\n      sub(shl(0xa0, 0x01), 0x01)\n        /* \"contracts/AMM.sol\":2407:2415  tokenERC */\n      and\n      swap1\n        /* \"contracts/AMM.sol\":2407:2424  tokenERC.transfer */\n      0xa9059cbb\n      swap1\n        /* \"#utility.yul\":2312:2330   */\n      0x44\n      add\n        /* \"contracts/AMM.sol\":2407:2451  tokenERC.transfer(tx.origin, tokens_swapped) */\n      0x20\n      mload(0x40)\n      dup1\n      dup4\n      sub\n      dup2\n      0x00\n      dup8\n      dup1\n      extcodesize\n      iszero\n      dup1\n      iszero\n      tag_205\n      jumpi\n      0x00\n      dup1\n      revert\n    tag_205:\n      pop\n      gas\n      call\n      iszero\n      dup1\n      iszero\n      tag_207\n      jumpi\n      returndatasize\n      0x00\n      dup1\n      returndatacopy\n      revert(0x00, returndatasize)\n    tag_207:\n      pop\n      pop\n      pop\n      pop\n      mload(0x40)\n      returndatasize\n      not(0x1f)\n      0x1f\n      dup3\n      add\n      and\n      dup3\n      add\n      dup1\n      0x40\n      mstore\n      pop\n      dup2\n      add\n      swap1\n      tag_208\n      swap2\n      swap1\n      tag_166\n      jump\t// in\n    tag_208:\n        /* \"contracts/AMM.sol\":2399:2452  require(tokenERC.transfer(tx.origin, tokens_swapped)) */\n      tag_209\n      jumpi\n      0x00\n      dup1\n      revert\n    tag_209:\n        /* \"contracts/AMM.sol\":2480:2489  msg.value */\n      callvalue\n        /* \"contracts/AMM.sol\":2473:2476  fee */\n      0x03\n      0x00\n        /* \"contracts/AMM.sol\":2473:2489  fee += msg.value */\n      dup3\n      dup3\n      sload\n      tag_210\n      swap2\n      swap1\n      tag_211\n      jump\t// in\n    tag_210:\n      swap1\n      swap2\n      sstore\n      pop\n      pop\n        /* \"contracts/AMM.sol\":2518:2527  tx.origin */\n      origin\n        /* \"contracts/AMM.sol\":2508:2528  investors[tx.origin] */\n      0x00\n      swap1\n      dup2\n      mstore\n        /* \"contracts/AMM.sol\":2508:2517  investors */\n      0x04\n        /* \"contracts/AMM.sol\":2508:2528  investors[tx.origin] */\n      0x20\n      mstore\n      0x40\n      dup2\n      keccak256\n        /* \"contracts/AMM.sol\":2508:2541  investors[tx.origin] += msg.value */\n      dup1\n      sload\n        /* \"contracts/AMM.sol\":2532:2541  msg.value */\n      callvalue\n      swap3\n        /* \"contracts/AMM.sol\":2508:2528  investors[tx.origin] */\n      swap1\n        /* \"contracts/AMM.sol\":2508:2541  investors[tx.origin] += msg.value */\n      tag_212\n      swap1\n        /* \"contracts/AMM.sol\":2532:2541  msg.value */\n      dup5\n      swap1\n        /* \"contracts/AMM.sol\":2508:2541  investors[tx.origin] += msg.value */\n      tag_211\n      jump\t// in\n    tag_212:\n      swap1\n      swap2\n      sstore\n      pop\n      pop\n        /* \"contracts/AMM.sol\":2562:2577  tokens_received */\n      0x06\n        /* \"contracts/AMM.sol\":2562:2594  tokens_received = tokens_swapped */\n      dup2\n      swap1\n      sstore\n        /* \"contracts/AMM.sol\":2620:2649  TokensSwapped(tokens_swapped) */\n      mload(0x40)\n        /* \"#utility.yul\":2958:2983   */\n      dup2\n      dup2\n      mstore\n        /* \"contracts/AMM.sol\":2620:2649  TokensSwapped(tokens_swapped) */\n      0xdb04c7a6d4758fd55d738ebc67e7f3010ac922be00771ef29521a4090d1eb13f\n      swap1\n        /* \"#utility.yul\":2946:2948   */\n      0x20\n        /* \"#utility.yul\":2931:2949   */\n      add\n        /* \"contracts/AMM.sol\":2620:2649  TokensSwapped(tokens_swapped) */\n      mload(0x40)\n      dup1\n      swap2\n      sub\n      swap1\n      log1\n        /* \"contracts/AMM.sol\":2237:2663  {\r... */\n      pop\n        /* \"contracts/AMM.sol\":2200:2663  function ethToErc() external payable {\r... */\n      jump\t// out\n        /* \"contracts/AMM.sol\":5278:5408  function getTokenBalance() external view returns (uint256) {\r... */\n    tag_88:\n        /* \"contracts/AMM.sol\":5328:5335  uint256 */\n      0x00\n        /* \"contracts/AMM.sol\":5363:5371  tokenERC */\n      dup1\n      sload\n        /* \"contracts/AMM.sol\":5363:5396  tokenERC.balanceOf(address(this)) */\n      mload(0x40)\n      shl(0xe0, 0x70a08231)\n      dup2\n      mstore\n        /* \"contracts/AMM.sol\":5390:5394  this */\n      address\n        /* \"contracts/AMM.sol\":5363:5396  tokenERC.balanceOf(address(this)) */\n      0x04\n      dup3\n      add\n        /* \"#utility.yul\":1677:1751   */\n      mstore\n      sub(shl(0xa0, 0x01), 0x01)\n        /* \"contracts/AMM.sol\":5363:5371  tokenERC */\n      swap1\n      swap2\n      and\n      swap1\n        /* \"contracts/AMM.sol\":5363:5381  tokenERC.balanceOf */\n      0x70a08231\n      swap1\n        /* \"#utility.yul\":1650:1668   */\n      0x24\n      add\n        /* \"contracts/AMM.sol\":5363:5396  tokenERC.balanceOf(address(this)) */\n      0x20\n      mload(0x40)\n      dup1\n      dup4\n      sub\n      dup2\n      dup7\n      dup1\n      extcodesize\n      iszero\n      dup1\n      iszero\n      tag_216\n      jumpi\n      0x00\n      dup1\n      revert\n    tag_216:\n      pop\n      gas\n      staticcall\n      iszero\n      dup1\n      iszero\n      tag_218\n      jumpi\n      returndatasize\n      0x00\n      dup1\n      returndatacopy\n      revert(0x00, returndatasize)\n    tag_218:\n      pop\n      pop\n      pop\n      pop\n      mload(0x40)\n      returndatasize\n      not(0x1f)\n      0x1f\n      dup3\n      add\n      and\n      dup3\n      add\n      dup1\n      0x40\n      mstore\n      pop\n      dup2\n      add\n      swap1\n      tag_219\n      swap2\n      swap1\n      tag_128\n      jump\t// in\n    tag_219:\n        /* \"contracts/AMM.sol\":5356:5396  return tokenERC.balanceOf(address(this)) */\n      swap1\n      pop\n        /* \"contracts/AMM.sol\":5278:5408  function getTokenBalance() external view returns (uint256) {\r... */\n      swap1\n      jump\t// out\n        /* \"contracts/AMM.sol\":967:1578  function initialize(address token_address, uint256 token_amount) external payable {\r... */\n    tag_102:\n        /* \"contracts/AMM.sol\":1076:1091  total_liquidity */\n      sload(0x01)\n        /* \"contracts/AMM.sol\":1076:1096  total_liquidity == 0 */\n      iszero\n        /* \"contracts/AMM.sol\":1068:1097  require(total_liquidity == 0) */\n      tag_221\n      jumpi\n      0x00\n      dup1\n      revert\n    tag_221:\n        /* \"contracts/AMM.sol\":1139:1140  0 */\n      0x00\n        /* \"contracts/AMM.sol\":1124:1136  token_amount */\n      dup2\n        /* \"contracts/AMM.sol\":1124:1140  token_amount > 0 */\n      gt\n        /* \"contracts/AMM.sol\":1116:1141  require(token_amount > 0) */\n      tag_222\n      jumpi\n      0x00\n      dup1\n      revert\n    tag_222:\n        /* \"contracts/AMM.sol\":1180:1181  0 */\n      0x00\n        /* \"contracts/AMM.sol\":1168:1177  msg.value */\n      callvalue\n        /* \"contracts/AMM.sol\":1168:1181  msg.value > 0 */\n      gt\n        /* \"contracts/AMM.sol\":1160:1182  require(msg.value > 0) */\n      tag_223\n      jumpi\n      0x00\n      dup1\n      revert\n    tag_223:\n        /* \"contracts/AMM.sol\":1209:1210  0 */\n      0x00\n        /* \"contracts/AMM.sol\":1203:1206  fee */\n      0x03\n        /* \"contracts/AMM.sol\":1203:1210  fee = 0 */\n      dup2\n      swap1\n      sstore\n        /* \"contracts/AMM.sol\":1229:1261  tokenERC = IERC20(token_address) */\n      dup1\n      sload\n      not(0xffffffffffffffffffffffffffffffffffffffff)\n      and\n      sub(shl(0xa0, 0x01), 0x01)\n      dup5\n      dup2\n      and\n      swap2\n      swap1\n      swap2\n      or\n      dup3\n      sstore\n        /* \"contracts/AMM.sol\":1316:1337  address(this).balance */\n      selfbalance\n      0x01\n        /* \"contracts/AMM.sol\":1298:1337  total_liquidity = address(this).balance */\n      dup2\n      swap1\n      sstore\n        /* \"contracts/AMM.sol\":1366:1375  tx.origin */\n      origin\n        /* \"contracts/AMM.sol\":1356:1376  liquidity[tx.origin] */\n      dup1\n      dup5\n      mstore\n        /* \"contracts/AMM.sol\":1356:1365  liquidity */\n      0x05\n        /* \"contracts/AMM.sol\":1356:1376  liquidity[tx.origin] */\n      0x20\n      mstore\n      0x40\n      dup1\n      dup6\n      keccak256\n        /* \"contracts/AMM.sol\":1356:1394  liquidity[tx.origin] = total_liquidity */\n      swap3\n      swap1\n      swap3\n      sstore\n        /* \"contracts/AMM.sol\":1451:1459  tokenERC */\n      swap3\n      sload\n        /* \"contracts/AMM.sol\":1451:1512  tokenERC.transferFrom(tx.origin, address(this), token_amount) */\n      swap1\n      mload\n      shl(0xe0, 0x23b872dd)\n      dup2\n      mstore\n      0x04\n      dup2\n      add\n        /* \"#utility.yul\":2025:2059   */\n      swap4\n      swap1\n      swap4\n      mstore\n        /* \"contracts/AMM.sol\":1492:1496  this */\n      address\n        /* \"#utility.yul\":2075:2093   */\n      0x24\n      dup5\n      add\n        /* \"#utility.yul\":2068:2111   */\n      mstore\n        /* \"#utility.yul\":2127:2145   */\n      0x44\n      dup4\n      add\n        /* \"#utility.yul\":2120:2154   */\n      dup5\n      swap1\n      mstore\n        /* \"contracts/AMM.sol\":1451:1459  tokenERC */\n      and\n      swap1\n        /* \"contracts/AMM.sol\":1451:1472  tokenERC.transferFrom */\n      0x23b872dd\n      swap1\n        /* \"#utility.yul\":1937:1955   */\n      0x64\n      add\n        /* \"contracts/AMM.sol\":1451:1512  tokenERC.transferFrom(tx.origin, address(this), token_amount) */\n      0x20\n      mload(0x40)\n      dup1\n      dup4\n      sub\n      dup2\n      0x00\n      dup8\n      dup1\n      extcodesize\n      iszero\n      dup1\n      iszero\n      tag_226\n      jumpi\n      0x00\n      dup1\n      revert\n    tag_226:\n      pop\n      gas\n      call\n      iszero\n      dup1\n      iszero\n      tag_228\n      jumpi\n      returndatasize\n      0x00\n      dup1\n      returndatacopy\n      revert(0x00, returndatasize)\n    tag_228:\n      pop\n      pop\n      pop\n      pop\n      mload(0x40)\n      returndatasize\n      not(0x1f)\n      0x1f\n      dup3\n      add\n      and\n      dup3\n      add\n      dup1\n      0x40\n      mstore\n      pop\n      dup2\n      add\n      swap1\n      tag_229\n      swap2\n      swap1\n      tag_166\n      jump\t// in\n    tag_229:\n        /* \"contracts/AMM.sol\":1443:1513  require(tokenERC.transferFrom(tx.origin, address(this), token_amount)) */\n      tag_230\n      jumpi\n      0x00\n      dup1\n      revert\n    tag_230:\n        /* \"contracts/AMM.sol\":1539:1566  Initialize(total_liquidity) */\n      0xc43e48cf47e9fa186d0f4096c61d1fcb54159799f935a2aa32e5589688ee36e1\n        /* \"contracts/AMM.sol\":1550:1565  total_liquidity */\n      sload(0x01)\n        /* \"contracts/AMM.sol\":1539:1566  Initialize(total_liquidity) */\n      mload(0x40)\n      tag_231\n      swap2\n        /* \"#utility.yul\":2958:2983   */\n      dup2\n      mstore\n        /* \"#utility.yul\":2946:2948   */\n      0x20\n        /* \"#utility.yul\":2931:2949   */\n      add\n      swap1\n        /* \"#utility.yul\":2812:2989   */\n      jump\n        /* \"contracts/AMM.sol\":1539:1566  Initialize(total_liquidity) */\n    tag_231:\n      mload(0x40)\n      dup1\n      swap2\n      sub\n      swap1\n      log1\n        /* \"contracts/AMM.sol\":967:1578  function initialize(address token_address, uint256 token_amount) external payable {\r... */\n      pop\n      pop\n      jump\t// out\n        /* \"contracts/AMM.sol\":3238:3868  function deposit() external payable {\r... */\n    tag_104:\n        /* \"contracts/AMM.sol\":3313:3314  0 */\n      0x00\n        /* \"contracts/AMM.sol\":3301:3310  msg.value */\n      callvalue\n        /* \"contracts/AMM.sol\":3301:3314  msg.value > 0 */\n      gt\n        /* \"contracts/AMM.sol\":3293:3315  require(msg.value > 0) */\n      tag_233\n      jumpi\n      0x00\n      dup1\n      revert\n    tag_233:\n        /* \"contracts/AMM.sol\":3334:3354  uint256 token_amount */\n      0x00\n        /* \"contracts/AMM.sol\":3409:3442  address(this).balance - msg.value */\n      tag_234\n        /* \"contracts/AMM.sol\":3433:3442  msg.value */\n      callvalue\n        /* \"contracts/AMM.sol\":3409:3430  address(this).balance */\n      selfbalance\n        /* \"contracts/AMM.sol\":3409:3442  address(this).balance - msg.value */\n      tag_153\n      jump\t// in\n    tag_234:\n        /* \"contracts/AMM.sol\":3371:3379  tokenERC */\n      sload(0x00)\n        /* \"contracts/AMM.sol\":3371:3404  tokenERC.balanceOf(address(this)) */\n      mload(0x40)\n      shl(0xe0, 0x70a08231)\n      dup2\n      mstore\n        /* \"contracts/AMM.sol\":3398:3402  this */\n      address\n        /* \"contracts/AMM.sol\":3371:3404  tokenERC.balanceOf(address(this)) */\n      0x04\n      dup3\n      add\n        /* \"#utility.yul\":1677:1751   */\n      mstore\n      sub(shl(0xa0, 0x01), 0x01)\n        /* \"contracts/AMM.sol\":3371:3379  tokenERC */\n      swap1\n      swap2\n      and\n      swap1\n        /* \"contracts/AMM.sol\":3371:3389  tokenERC.balanceOf */\n      0x70a08231\n      swap1\n        /* \"#utility.yul\":1650:1668   */\n      0x24\n      add\n        /* \"contracts/AMM.sol\":3371:3404  tokenERC.balanceOf(address(this)) */\n      0x20\n      mload(0x40)\n      dup1\n      dup4\n      sub\n      dup2\n      dup7\n      dup1\n      extcodesize\n      iszero\n      dup1\n      iszero\n      tag_236\n      jumpi\n      0x00\n      dup1\n      revert\n    tag_236:\n      pop\n      gas\n      staticcall\n      iszero\n      dup1\n      iszero\n      tag_238\n      jumpi\n      returndatasize\n      0x00\n      dup1\n      returndatacopy\n      revert(0x00, returndatasize)\n    tag_238:\n      pop\n      pop\n      pop\n      pop\n      mload(0x40)\n      returndatasize\n      not(0x1f)\n      0x1f\n      dup3\n      add\n      and\n      dup3\n      add\n      dup1\n      0x40\n      mstore\n      pop\n      dup2\n      add\n      swap1\n      tag_239\n      swap2\n      swap1\n      tag_128\n      jump\t// in\n    tag_239:\n        /* \"contracts/AMM.sol\":3359:3404  msg.value * tokenERC.balanceOf(address(this)) */\n      tag_240\n      swap1\n        /* \"contracts/AMM.sol\":3359:3368  msg.value */\n      callvalue\n        /* \"contracts/AMM.sol\":3359:3404  msg.value * tokenERC.balanceOf(address(this)) */\n      tag_119\n      jump\t// in\n    tag_240:\n        /* \"contracts/AMM.sol\":3358:3443  (msg.value * tokenERC.balanceOf(address(this))) / (address(this).balance - msg.value) */\n      tag_241\n      swap2\n      swap1\n      tag_121\n      jump\t// in\n    tag_241:\n        /* \"contracts/AMM.sol\":3334:3444  uint256 token_amount = ((msg.value * tokenERC.balanceOf(address(this))) / (address(this).balance - msg.value)) */\n      swap1\n      pop\n        /* \"contracts/AMM.sol\":3463:3486  uint256 liquidity_added */\n      0x00\n        /* \"contracts/AMM.sol\":3522:3555  address(this).balance - msg.value */\n      tag_242\n        /* \"contracts/AMM.sol\":3546:3555  msg.value */\n      callvalue\n        /* \"contracts/AMM.sol\":3522:3543  address(this).balance */\n      selfbalance\n        /* \"contracts/AMM.sol\":3522:3555  address(this).balance - msg.value */\n      tag_153\n      jump\t// in\n    tag_242:\n        /* \"contracts/AMM.sol\":3502:3517  total_liquidity */\n      sload(0x01)\n        /* \"contracts/AMM.sol\":3490:3517  msg.value * total_liquidity */\n      tag_243\n      swap1\n        /* \"contracts/AMM.sol\":3490:3499  msg.value */\n      callvalue\n        /* \"contracts/AMM.sol\":3490:3517  msg.value * total_liquidity */\n      tag_119\n      jump\t// in\n    tag_243:\n        /* \"contracts/AMM.sol\":3489:3556  (msg.value * total_liquidity) / (address(this).balance - msg.value) */\n      tag_244\n      swap2\n      swap1\n      tag_121\n      jump\t// in\n    tag_244:\n        /* \"contracts/AMM.sol\":3587:3596  tx.origin */\n      origin\n        /* \"contracts/AMM.sol\":3577:3597  liquidity[tx.origin] */\n      0x00\n      swap1\n      dup2\n      mstore\n        /* \"contracts/AMM.sol\":3577:3586  liquidity */\n      0x05\n        /* \"contracts/AMM.sol\":3577:3597  liquidity[tx.origin] */\n      0x20\n      mstore\n      0x40\n      dup2\n      keccak256\n        /* \"contracts/AMM.sol\":3577:3616  liquidity[tx.origin] += liquidity_added */\n      dup1\n      sload\n        /* \"contracts/AMM.sol\":3463:3556  uint256 liquidity_added = (msg.value * total_liquidity) / (address(this).balance - msg.value) */\n      swap3\n      swap4\n      pop\n      dup4\n      swap3\n        /* \"contracts/AMM.sol\":3577:3597  liquidity[tx.origin] */\n      swap1\n      swap2\n      swap1\n        /* \"contracts/AMM.sol\":3577:3616  liquidity[tx.origin] += liquidity_added */\n      tag_245\n      swap1\n        /* \"contracts/AMM.sol\":3463:3556  uint256 liquidity_added = (msg.value * total_liquidity) / (address(this).balance - msg.value) */\n      dup5\n      swap1\n        /* \"contracts/AMM.sol\":3577:3616  liquidity[tx.origin] += liquidity_added */\n      tag_211\n      jump\t// in\n    tag_245:\n      swap3\n      pop\n      pop\n      dup2\n      swap1\n      sstore\n      pop\n        /* \"contracts/AMM.sol\":3656:3671  liquidity_added */\n      dup1\n        /* \"contracts/AMM.sol\":3637:3652  total_liquidity */\n      0x01\n      0x00\n        /* \"contracts/AMM.sol\":3637:3671  total_liquidity += liquidity_added */\n      dup3\n      dup3\n      sload\n      tag_246\n      swap2\n      swap1\n      tag_211\n      jump\t// in\n    tag_246:\n      swap1\n      swap2\n      sstore\n      pop\n      pop\n        /* \"contracts/AMM.sol\":3698:3706  tokenERC */\n      sload(0x00)\n        /* \"contracts/AMM.sol\":3698:3759  tokenERC.transferFrom(tx.origin, address(this), token_amount) */\n      mload(0x40)\n      shl(0xe0, 0x23b872dd)\n      dup2\n      mstore\n        /* \"contracts/AMM.sol\":3720:3729  tx.origin */\n      origin\n        /* \"contracts/AMM.sol\":3698:3759  tokenERC.transferFrom(tx.origin, address(this), token_amount) */\n      0x04\n      dup3\n      add\n        /* \"#utility.yul\":2025:2059   */\n      mstore\n        /* \"contracts/AMM.sol\":3739:3743  this */\n      address\n        /* \"#utility.yul\":2075:2093   */\n      0x24\n      dup3\n      add\n        /* \"#utility.yul\":2068:2111   */\n      mstore\n        /* \"#utility.yul\":2127:2145   */\n      0x44\n      dup2\n      add\n        /* \"#utility.yul\":2120:2154   */\n      dup5\n      swap1\n      mstore\n      sub(shl(0xa0, 0x01), 0x01)\n        /* \"contracts/AMM.sol\":3698:3706  tokenERC */\n      swap1\n      swap2\n      and\n      swap1\n        /* \"contracts/AMM.sol\":3698:3719  tokenERC.transferFrom */\n      0x23b872dd\n      swap1\n        /* \"#utility.yul\":1937:1955   */\n      0x64\n      add\n        /* \"contracts/AMM.sol\":3698:3759  tokenERC.transferFrom(tx.origin, address(this), token_amount) */\n      0x20\n      mload(0x40)\n      dup1\n      dup4\n      sub\n      dup2\n      0x00\n      dup8\n      dup1\n      extcodesize\n      iszero\n      dup1\n      iszero\n      tag_248\n      jumpi\n      0x00\n      dup1\n      revert\n    tag_248:\n      pop\n      gas\n      call\n      iszero\n      dup1\n      iszero\n      tag_250\n      jumpi\n      returndatasize\n      0x00\n      dup1\n      returndatacopy\n      revert(0x00, returndatasize)\n    tag_250:\n      pop\n      pop\n      pop\n      pop\n      mload(0x40)\n      returndatasize\n      not(0x1f)\n      0x1f\n      dup3\n      add\n      and\n      dup3\n      add\n      dup1\n      0x40\n      mstore\n      pop\n      dup2\n      add\n      swap1\n      tag_251\n      swap2\n      swap1\n      tag_166\n      jump\t// in\n    tag_251:\n        /* \"contracts/AMM.sol\":3690:3760  require(tokenERC.transferFrom(tx.origin, address(this), token_amount)) */\n      tag_252\n      jumpi\n      0x00\n      dup1\n      revert\n    tag_252:\n        /* \"contracts/AMM.sol\":3786:3810  Deposit(liquidity_added) */\n      mload(0x40)\n        /* \"#utility.yul\":2958:2983   */\n      dup2\n      dup2\n      mstore\n        /* \"contracts/AMM.sol\":3786:3810  Deposit(liquidity_added) */\n      0x4d6ce1e535dbade1c23defba91e23b8f791ce5edc0cc320257a2b364e4e38426\n      swap1\n        /* \"#utility.yul\":2946:2948   */\n      0x20\n        /* \"#utility.yul\":2931:2949   */\n      add\n        /* \"contracts/AMM.sol\":3786:3810  Deposit(liquidity_added) */\n      mload(0x40)\n      dup1\n      swap2\n      sub\n      swap1\n      log1\n        /* \"contracts/AMM.sol\":3829:3838  liq_added */\n      0x08\n        /* \"contracts/AMM.sol\":3829:3856  liq_added = liquidity_added */\n      sstore\n      pop\n        /* \"contracts/AMM.sol\":3238:3868  function deposit() external payable {\r... */\n      jump\t// out\n        /* \"contracts/AMM.sol\":5906:6079  function finish() external {\r... */\n    tag_107:\n        /* \"contracts/AMM.sol\":5952:5960  tokenERC */\n      sload(0x00)\n        /* \"contracts/AMM.sol\":5981:6014  tokenERC.balanceOf(address(this)) */\n      mload(0x40)\n      shl(0xe0, 0x70a08231)\n      dup2\n      mstore\n        /* \"contracts/AMM.sol\":6008:6012  this */\n      address\n        /* \"contracts/AMM.sol\":5981:6014  tokenERC.balanceOf(address(this)) */\n      0x04\n      dup3\n      add\n        /* \"#utility.yul\":1677:1751   */\n      mstore\n      sub(shl(0xa0, 0x01), 0x01)\n        /* \"contracts/AMM.sol\":5952:5960  tokenERC */\n      swap1\n      swap2\n      and\n      swap1\n        /* \"contracts/AMM.sol\":5952:5969  tokenERC.transfer */\n      0xa9059cbb\n      swap1\n        /* \"contracts/AMM.sol\":5970:5979  tx.origin */\n      origin\n      swap1\n        /* \"contracts/AMM.sol\":5952:5960  tokenERC */\n      dup4\n      swap1\n        /* \"contracts/AMM.sol\":5981:5999  tokenERC.balanceOf */\n      0x70a08231\n      swap1\n        /* \"#utility.yul\":1650:1668   */\n      0x24\n      add\n        /* \"contracts/AMM.sol\":5981:6014  tokenERC.balanceOf(address(this)) */\n      0x20\n      mload(0x40)\n      dup1\n      dup4\n      sub\n      dup2\n      dup7\n      dup1\n      extcodesize\n      iszero\n      dup1\n      iszero\n      tag_256\n      jumpi\n      0x00\n      dup1\n      revert\n    tag_256:\n      pop\n      gas\n      staticcall\n      iszero\n      dup1\n      iszero\n      tag_258\n      jumpi\n      returndatasize\n      0x00\n      dup1\n      returndatacopy\n      revert(0x00, returndatasize)\n    tag_258:\n      pop\n      pop\n      pop\n      pop\n      mload(0x40)\n      returndatasize\n      not(0x1f)\n      0x1f\n      dup3\n      add\n      and\n      dup3\n      add\n      dup1\n      0x40\n      mstore\n      pop\n      dup2\n      add\n      swap1\n      tag_259\n      swap2\n      swap1\n      tag_128\n      jump\t// in\n    tag_259:\n        /* \"contracts/AMM.sol\":5952:6016  tokenERC.transfer(tx.origin, tokenERC.balanceOf(address(this)) ) */\n      mload(0x40)\n      not(sub(shl(0xe0, 0x01), 0x01))\n      0xe0\n      dup6\n      swap1\n      shl\n      and\n      dup2\n      mstore\n      sub(shl(0xa0, 0x01), 0x01)\n        /* \"#utility.yul\":2357:2412   */\n      swap1\n      swap3\n      and\n        /* \"contracts/AMM.sol\":5952:6016  tokenERC.transfer(tx.origin, tokenERC.balanceOf(address(this)) ) */\n      0x04\n      dup4\n      add\n        /* \"#utility.yul\":2339:2413   */\n      mstore\n        /* \"#utility.yul\":2429:2447   */\n      0x24\n      dup3\n      add\n        /* \"#utility.yul\":2422:2456   */\n      mstore\n        /* \"#utility.yul\":2312:2330   */\n      0x44\n      add\n        /* \"contracts/AMM.sol\":5952:6016  tokenERC.transfer(tx.origin, tokenERC.balanceOf(address(this)) ) */\n      0x20\n      mload(0x40)\n      dup1\n      dup4\n      sub\n      dup2\n      0x00\n      dup8\n      dup1\n      extcodesize\n      iszero\n      dup1\n      iszero\n      tag_261\n      jumpi\n      0x00\n      dup1\n      revert\n    tag_261:\n      pop\n      gas\n      call\n      iszero\n      dup1\n      iszero\n      tag_263\n      jumpi\n      returndatasize\n      0x00\n      dup1\n      returndatacopy\n      revert(0x00, returndatasize)\n    tag_263:\n      pop\n      pop\n      pop\n      pop\n      mload(0x40)\n      returndatasize\n      not(0x1f)\n      0x1f\n      dup3\n      add\n      and\n      dup3\n      add\n      dup1\n      0x40\n      mstore\n      pop\n      dup2\n      add\n      swap1\n      tag_264\n      swap2\n      swap1\n      tag_166\n      jump\t// in\n    tag_264:\n      pop\n        /* \"contracts/AMM.sol\":6056:6065  tx.origin */\n      origin\n        /* \"contracts/AMM.sol\":6035:6067  selfdestruct(payable(tx.origin)) */\n      selfdestruct\n        /* \"contracts/AMM.sol\":2677:3226  function ercToEth(uint256 token_amount) external {\r... */\n    tag_115:\n        /* \"contracts/AMM.sol\":2747:2766  uint256 eth_swapped */\n      0x00\n        /* \"contracts/AMM.sol\":2798:2806  tokenERC */\n      dup1\n      sload\n        /* \"contracts/AMM.sol\":2798:2831  tokenERC.balanceOf(address(this)) */\n      mload(0x40)\n      shl(0xe0, 0x70a08231)\n      dup2\n      mstore\n        /* \"contracts/AMM.sol\":2825:2829  this */\n      address\n        /* \"contracts/AMM.sol\":2798:2831  tokenERC.balanceOf(address(this)) */\n      0x04\n      dup3\n      add\n        /* \"#utility.yul\":1677:1751   */\n      mstore\n        /* \"contracts/AMM.sol\":2769:2855  calculatePrice(token_amount, tokenERC.balanceOf(address(this)), address(this).balance) */\n      tag_266\n      swap2\n        /* \"contracts/AMM.sol\":2784:2796  token_amount */\n      dup5\n      swap2\n      sub(shl(0xa0, 0x01), 0x01)\n        /* \"contracts/AMM.sol\":2798:2806  tokenERC */\n      swap1\n      swap2\n      and\n      swap1\n        /* \"contracts/AMM.sol\":2798:2816  tokenERC.balanceOf */\n      0x70a08231\n      swap1\n        /* \"#utility.yul\":1650:1668   */\n      0x24\n      add\n        /* \"contracts/AMM.sol\":2798:2831  tokenERC.balanceOf(address(this)) */\n      tag_182\n        /* \"#utility.yul\":1531:1757   */\n      jump\n        /* \"contracts/AMM.sol\":2769:2855  calculatePrice(token_amount, tokenERC.balanceOf(address(this)), address(this).balance) */\n    tag_266:\n        /* \"contracts/AMM.sol\":2895:2933  tx.origin.call{value: eth_swapped}(\"\") */\n      mload(0x40)\n        /* \"contracts/AMM.sol\":2747:2855  uint256 eth_swapped = calculatePrice(token_amount, tokenERC.balanceOf(address(this)), address(this).balance) */\n      swap1\n      swap2\n      pop\n        /* \"contracts/AMM.sol\":2877:2889  bool success */\n      0x00\n      swap1\n        /* \"contracts/AMM.sol\":2895:2904  tx.origin */\n      origin\n      swap1\n        /* \"contracts/AMM.sol\":2747:2855  uint256 eth_swapped = calculatePrice(token_amount, tokenERC.balanceOf(address(this)), address(this).balance) */\n      dup4\n      swap1\n        /* \"contracts/AMM.sol\":2877:2889  bool success */\n      dup4\n        /* \"contracts/AMM.sol\":2895:2933  tx.origin.call{value: eth_swapped}(\"\") */\n      dup2\n        /* \"contracts/AMM.sol\":2877:2889  bool success */\n      dup2\n        /* \"contracts/AMM.sol\":2895:2933  tx.origin.call{value: eth_swapped}(\"\") */\n      dup2\n        /* \"contracts/AMM.sol\":2747:2855  uint256 eth_swapped = calculatePrice(token_amount, tokenERC.balanceOf(address(this)), address(this).balance) */\n      dup6\n        /* \"contracts/AMM.sol\":2895:2904  tx.origin */\n      dup8\n        /* \"contracts/AMM.sol\":2895:2933  tx.origin.call{value: eth_swapped}(\"\") */\n      gas\n      call\n      swap3\n      pop\n      pop\n      pop\n      returndatasize\n      dup1\n      0x00\n      dup2\n      eq\n      tag_275\n      jumpi\n      mload(0x40)\n      swap2\n      pop\n      and(add(returndatasize, 0x3f), not(0x1f))\n      dup3\n      add\n      0x40\n      mstore\n      returndatasize\n      dup3\n      mstore\n      returndatasize\n      0x00\n      0x20\n      dup5\n      add\n      returndatacopy\n      jump(tag_274)\n    tag_275:\n      0x60\n      swap2\n      pop\n    tag_274:\n      pop\n        /* \"contracts/AMM.sol\":2876:2933  (bool success, ) = tx.origin.call{value: eth_swapped}(\"\") */\n      pop\n      swap1\n      pop\n        /* \"contracts/AMM.sol\":2960:2967  success */\n      dup1\n        /* \"contracts/AMM.sol\":2952:2988  require(success, \"Transfer failed.\") */\n      tag_276\n      jumpi\n      mload(0x40)\n      shl(0xe5, 0x461bcd)\n      dup2\n      mstore\n        /* \"#utility.yul\":2669:2671   */\n      0x20\n        /* \"contracts/AMM.sol\":2952:2988  require(success, \"Transfer failed.\") */\n      0x04\n      dup3\n      add\n        /* \"#utility.yul\":2651:2672   */\n      mstore\n        /* \"#utility.yul\":2708:2710   */\n      0x10\n        /* \"#utility.yul\":2688:2706   */\n      0x24\n      dup3\n      add\n        /* \"#utility.yul\":2681:2711   */\n      mstore\n      shl(0x81, 0x2a3930b739b332b9103330b4b632b217)\n        /* \"#utility.yul\":2727:2745   */\n      0x44\n      dup3\n      add\n        /* \"#utility.yul\":2720:2766   */\n      mstore\n        /* \"#utility.yul\":2783:2801   */\n      0x64\n      add\n        /* \"contracts/AMM.sol\":2952:2988  require(success, \"Transfer failed.\") */\n      tag_140\n        /* \"#utility.yul\":2467:2807   */\n      jump\n        /* \"contracts/AMM.sol\":2952:2988  require(success, \"Transfer failed.\") */\n    tag_276:\n        /* \"contracts/AMM.sol\":3021:3029  tokenERC */\n      sload(0x00)\n        /* \"contracts/AMM.sol\":3021:3082  tokenERC.transferFrom(tx.origin, address(this), token_amount) */\n      mload(0x40)\n      shl(0xe0, 0x23b872dd)\n      dup2\n      mstore\n        /* \"contracts/AMM.sol\":3043:3052  tx.origin */\n      origin\n        /* \"contracts/AMM.sol\":3021:3082  tokenERC.transferFrom(tx.origin, address(this), token_amount) */\n      0x04\n      dup3\n      add\n        /* \"#utility.yul\":2025:2059   */\n      mstore\n        /* \"contracts/AMM.sol\":3062:3066  this */\n      address\n        /* \"#utility.yul\":2075:2093   */\n      0x24\n      dup3\n      add\n        /* \"#utility.yul\":2068:2111   */\n      mstore\n        /* \"#utility.yul\":2127:2145   */\n      0x44\n      dup2\n      add\n        /* \"#utility.yul\":2120:2154   */\n      dup6\n      swap1\n      mstore\n      sub(shl(0xa0, 0x01), 0x01)\n        /* \"contracts/AMM.sol\":3021:3029  tokenERC */\n      swap1\n      swap2\n      and\n      swap1\n        /* \"contracts/AMM.sol\":3021:3042  tokenERC.transferFrom */\n      0x23b872dd\n      swap1\n        /* \"#utility.yul\":1937:1955   */\n      0x64\n      add\n        /* \"contracts/AMM.sol\":3021:3082  tokenERC.transferFrom(tx.origin, address(this), token_amount) */\n      0x20\n      mload(0x40)\n      dup1\n      dup4\n      sub\n      dup2\n      0x00\n      dup8\n      dup1\n      extcodesize\n      iszero\n      dup1\n      iszero\n      tag_279\n      jumpi\n      0x00\n      dup1\n      revert\n    tag_279:\n      pop\n      gas\n      call\n      iszero\n      dup1\n      iszero\n      tag_281\n      jumpi\n      returndatasize\n      0x00\n      dup1\n      returndatacopy\n      revert(0x00, returndatasize)\n    tag_281:\n      pop\n      pop\n      pop\n      pop\n      mload(0x40)\n      returndatasize\n      not(0x1f)\n      0x1f\n      dup3\n      add\n      and\n      dup3\n      add\n      dup1\n      0x40\n      mstore\n      pop\n      dup2\n      add\n      swap1\n      tag_282\n      swap2\n      swap1\n      tag_166\n      jump\t// in\n    tag_282:\n        /* \"contracts/AMM.sol\":3013:3083  require(tokenERC.transferFrom(tx.origin, address(this), token_amount)) */\n      tag_283\n      jumpi\n      0x00\n      dup1\n      revert\n    tag_283:\n        /* \"contracts/AMM.sol\":3111:3122  eth_swapped */\n      dup2\n        /* \"contracts/AMM.sol\":3104:3107  fee */\n      0x03\n      0x00\n        /* \"contracts/AMM.sol\":3104:3122  fee += eth_swapped */\n      dup3\n      dup3\n      sload\n      tag_284\n      swap2\n      swap1\n      tag_211\n      jump\t// in\n    tag_284:\n      swap1\n      swap2\n      sstore\n      pop\n      pop\n        /* \"contracts/AMM.sol\":3146:3169  ETHSwapped(eth_swapped) */\n      mload(0x40)\n        /* \"#utility.yul\":2958:2983   */\n      dup3\n      dup2\n      mstore\n        /* \"contracts/AMM.sol\":3146:3169  ETHSwapped(eth_swapped) */\n      0x4dbf3a71a7c7262f432c2cad7808225832255d07f7d8ab85117677c0b5c0a850\n      swap1\n        /* \"#utility.yul\":2946:2948   */\n      0x20\n        /* \"#utility.yul\":2931:2949   */\n      add\n        /* \"contracts/AMM.sol\":3146:3169  ETHSwapped(eth_swapped) */\n      mload(0x40)\n      dup1\n      swap2\n      sub\n      swap1\n      log1\n      pop\n        /* \"contracts/AMM.sol\":3188:3200  eth_received */\n      0x07\n        /* \"contracts/AMM.sol\":3188:3214  eth_received = eth_swapped */\n      sstore\n      pop\n        /* \"contracts/AMM.sol\":2677:3226  function ercToEth(uint256 token_amount) external {\r... */\n      jump\t// out\n        /* \"contracts/AMM.sol\":1590:1802  function calculatePrice(uint256 input_value, uint256 input_pool, uint256 output_pool) internal pure returns (uint256) {\r... */\n    tag_187:\n        /* \"contracts/AMM.sol\":1699:1706  uint256 */\n      0x00\n        /* \"contracts/AMM.sol\":1765:1789  input_pool + input_value */\n      tag_287\n        /* \"contracts/AMM.sol\":1778:1789  input_value */\n      dup5\n        /* \"contracts/AMM.sol\":1765:1775  input_pool */\n      dup5\n        /* \"contracts/AMM.sol\":1765:1789  input_pool + input_value */\n      tag_211\n      jump\t// in\n    tag_287:\n        /* \"contracts/AMM.sol\":1735:1760  input_value * output_pool */\n      tag_288\n        /* \"contracts/AMM.sol\":1749:1760  output_pool */\n      dup4\n        /* \"contracts/AMM.sol\":1735:1746  input_value */\n      dup7\n        /* \"contracts/AMM.sol\":1735:1760  input_value * output_pool */\n      tag_119\n      jump\t// in\n    tag_288:\n        /* \"contracts/AMM.sol\":1734:1790  (input_value * output_pool) / (input_pool + input_value) */\n      tag_289\n      swap2\n      swap1\n      tag_121\n      jump\t// in\n    tag_289:\n        /* \"contracts/AMM.sol\":1727:1790  return (input_value * output_pool) / (input_pool + input_value) */\n      swap5\n        /* \"contracts/AMM.sol\":1590:1802  function calculatePrice(uint256 input_value, uint256 input_pool, uint256 output_pool) internal pure returns (uint256) {\r... */\n      swap4\n      pop\n      pop\n      pop\n      pop\n      jump\t// out\n        /* \"#utility.yul\":14:210   */\n    tag_291:\n        /* \"#utility.yul\":82:102   */\n      dup1\n      calldataload\n      sub(shl(0xa0, 0x01), 0x01)\n        /* \"#utility.yul\":131:185   */\n      dup2\n      and\n        /* \"#utility.yul\":121:186   */\n      dup2\n      eq\n        /* \"#utility.yul\":111:204   */\n      tag_293\n      jumpi\n        /* \"#utility.yul\":200:201   */\n      0x00\n        /* \"#utility.yul\":197:198   */\n      dup1\n        /* \"#utility.yul\":190:202   */\n      revert\n        /* \"#utility.yul\":111:204   */\n    tag_293:\n        /* \"#utility.yul\":14:210   */\n      swap2\n      swap1\n      pop\n      jump\t// out\n        /* \"#utility.yul\":215:401   */\n    tag_58:\n        /* \"#utility.yul\":274:280   */\n      0x00\n        /* \"#utility.yul\":327:329   */\n      0x20\n        /* \"#utility.yul\":315:324   */\n      dup3\n        /* \"#utility.yul\":306:313   */\n      dup5\n        /* \"#utility.yul\":302:325   */\n      sub\n        /* \"#utility.yul\":298:330   */\n      slt\n        /* \"#utility.yul\":295:347   */\n      iszero\n      tag_295\n      jumpi\n        /* \"#utility.yul\":343:344   */\n      0x00\n        /* \"#utility.yul\":340:341   */\n      dup1\n        /* \"#utility.yul\":333:345   */\n      revert\n        /* \"#utility.yul\":295:347   */\n    tag_295:\n        /* \"#utility.yul\":366:395   */\n      tag_296\n        /* \"#utility.yul\":385:394   */\n      dup3\n        /* \"#utility.yul\":366:395   */\n      tag_291\n      jump\t// in\n    tag_296:\n        /* \"#utility.yul\":356:395   */\n      swap4\n        /* \"#utility.yul\":215:401   */\n      swap3\n      pop\n      pop\n      pop\n      jump\t// out\n        /* \"#utility.yul\":406:660   */\n    tag_101:\n        /* \"#utility.yul\":474:480   */\n      0x00\n        /* \"#utility.yul\":482:488   */\n      dup1\n        /* \"#utility.yul\":535:537   */\n      0x40\n        /* \"#utility.yul\":523:532   */\n      dup4\n        /* \"#utility.yul\":514:521   */\n      dup6\n        /* \"#utility.yul\":510:533   */\n      sub\n        /* \"#utility.yul\":506:538   */\n      slt\n        /* \"#utility.yul\":503:555   */\n      iszero\n      tag_298\n      jumpi\n        /* \"#utility.yul\":551:552   */\n      0x00\n        /* \"#utility.yul\":548:549   */\n      dup1\n        /* \"#utility.yul\":541:553   */\n      revert\n        /* \"#utility.yul\":503:555   */\n    tag_298:\n        /* \"#utility.yul\":574:603   */\n      tag_299\n        /* \"#utility.yul\":593:602   */\n      dup4\n        /* \"#utility.yul\":574:603   */\n      tag_291\n      jump\t// in\n    tag_299:\n        /* \"#utility.yul\":564:603   */\n      swap5\n        /* \"#utility.yul\":650:652   */\n      0x20\n        /* \"#utility.yul\":635:653   */\n      swap4\n      swap1\n      swap4\n      add\n        /* \"#utility.yul\":622:654   */\n      calldataload\n      swap4\n      pop\n      pop\n      pop\n        /* \"#utility.yul\":406:660   */\n      jump\t// out\n        /* \"#utility.yul\":665:942   */\n    tag_166:\n        /* \"#utility.yul\":732:738   */\n      0x00\n        /* \"#utility.yul\":785:787   */\n      0x20\n        /* \"#utility.yul\":773:782   */\n      dup3\n        /* \"#utility.yul\":764:771   */\n      dup5\n        /* \"#utility.yul\":760:783   */\n      sub\n        /* \"#utility.yul\":756:788   */\n      slt\n        /* \"#utility.yul\":753:805   */\n      iszero\n      tag_301\n      jumpi\n        /* \"#utility.yul\":801:802   */\n      0x00\n        /* \"#utility.yul\":798:799   */\n      dup1\n        /* \"#utility.yul\":791:803   */\n      revert\n        /* \"#utility.yul\":753:805   */\n    tag_301:\n        /* \"#utility.yul\":833:842   */\n      dup2\n        /* \"#utility.yul\":827:843   */\n      mload\n        /* \"#utility.yul\":886:891   */\n      dup1\n        /* \"#utility.yul\":879:892   */\n      iszero\n        /* \"#utility.yul\":872:893   */\n      iszero\n        /* \"#utility.yul\":865:870   */\n      dup2\n        /* \"#utility.yul\":862:894   */\n      eq\n        /* \"#utility.yul\":852:912   */\n      tag_296\n      jumpi\n        /* \"#utility.yul\":908:909   */\n      0x00\n        /* \"#utility.yul\":905:906   */\n      dup1\n        /* \"#utility.yul\":898:910   */\n      revert\n        /* \"#utility.yul\":947:1127   */\n    tag_35:\n        /* \"#utility.yul\":1006:1012   */\n      0x00\n        /* \"#utility.yul\":1059:1061   */\n      0x20\n        /* \"#utility.yul\":1047:1056   */\n      dup3\n        /* \"#utility.yul\":1038:1045   */\n      dup5\n        /* \"#utility.yul\":1034:1057   */\n      sub\n        /* \"#utility.yul\":1030:1062   */\n      slt\n        /* \"#utility.yul\":1027:1079   */\n      iszero\n      tag_304\n      jumpi\n        /* \"#utility.yul\":1075:1076   */\n      0x00\n        /* \"#utility.yul\":1072:1073   */\n      dup1\n        /* \"#utility.yul\":1065:1077   */\n      revert\n        /* \"#utility.yul\":1027:1079   */\n    tag_304:\n      pop\n        /* \"#utility.yul\":1098:1121   */\n      calldataload\n      swap2\n        /* \"#utility.yul\":947:1127   */\n      swap1\n      pop\n      jump\t// out\n        /* \"#utility.yul\":1132:1316   */\n    tag_128:\n        /* \"#utility.yul\":1202:1208   */\n      0x00\n        /* \"#utility.yul\":1255:1257   */\n      0x20\n        /* \"#utility.yul\":1243:1252   */\n      dup3\n        /* \"#utility.yul\":1234:1241   */\n      dup5\n        /* \"#utility.yul\":1230:1253   */\n      sub\n        /* \"#utility.yul\":1226:1258   */\n      slt\n        /* \"#utility.yul\":1223:1275   */\n      iszero\n      tag_306\n      jumpi\n        /* \"#utility.yul\":1271:1272   */\n      0x00\n        /* \"#utility.yul\":1268:1269   */\n      dup1\n        /* \"#utility.yul\":1261:1273   */\n      revert\n        /* \"#utility.yul\":1223:1275   */\n    tag_306:\n      pop\n        /* \"#utility.yul\":1294:1310   */\n      mload\n      swap2\n        /* \"#utility.yul\":1132:1316   */\n      swap1\n      pop\n      jump\t// out\n        /* \"#utility.yul\":3247:3375   */\n    tag_211:\n        /* \"#utility.yul\":3287:3290   */\n      0x00\n        /* \"#utility.yul\":3318:3319   */\n      dup3\n        /* \"#utility.yul\":3314:3320   */\n      not\n        /* \"#utility.yul\":3311:3312   */\n      dup3\n        /* \"#utility.yul\":3308:3321   */\n      gt\n        /* \"#utility.yul\":3305:3344   */\n      iszero\n      tag_316\n      jumpi\n        /* \"#utility.yul\":3324:3342   */\n      tag_316\n      tag_317\n      jump\t// in\n    tag_316:\n      pop\n        /* \"#utility.yul\":3360:3369   */\n      add\n      swap1\n        /* \"#utility.yul\":3247:3375   */\n      jump\t// out\n        /* \"#utility.yul\":3380:3597   */\n    tag_121:\n        /* \"#utility.yul\":3420:3421   */\n      0x00\n        /* \"#utility.yul\":3446:3447   */\n      dup3\n        /* \"#utility.yul\":3436:3568   */\n      tag_319\n      jumpi\n        /* \"#utility.yul\":3490:3500   */\n      0x4e487b71\n        /* \"#utility.yul\":3485:3488   */\n      0xe0\n        /* \"#utility.yul\":3481:3501   */\n      shl\n        /* \"#utility.yul\":3478:3479   */\n      0x00\n        /* \"#utility.yul\":3471:3502   */\n      mstore\n        /* \"#utility.yul\":3525:3529   */\n      0x12\n        /* \"#utility.yul\":3522:3523   */\n      0x04\n        /* \"#utility.yul\":3515:3530   */\n      mstore\n        /* \"#utility.yul\":3553:3557   */\n      0x24\n        /* \"#utility.yul\":3550:3551   */\n      0x00\n        /* \"#utility.yul\":3543:3558   */\n      revert\n        /* \"#utility.yul\":3436:3568   */\n    tag_319:\n      pop\n        /* \"#utility.yul\":3582:3591   */\n      div\n      swap1\n        /* \"#utility.yul\":3380:3597   */\n      jump\t// out\n        /* \"#utility.yul\":3602:3770   */\n    tag_119:\n        /* \"#utility.yul\":3642:3649   */\n      0x00\n        /* \"#utility.yul\":3708:3709   */\n      dup2\n        /* \"#utility.yul\":3704:3705   */\n      0x00\n        /* \"#utility.yul\":3700:3706   */\n      not\n        /* \"#utility.yul\":3696:3710   */\n      div\n        /* \"#utility.yul\":3693:3694   */\n      dup4\n        /* \"#utility.yul\":3690:3711   */\n      gt\n        /* \"#utility.yul\":3685:3686   */\n      dup3\n        /* \"#utility.yul\":3678:3687   */\n      iszero\n        /* \"#utility.yul\":3671:3688   */\n      iszero\n        /* \"#utility.yul\":3667:3712   */\n      and\n        /* \"#utility.yul\":3664:3735   */\n      iszero\n      tag_322\n      jumpi\n        /* \"#utility.yul\":3715:3733   */\n      tag_322\n      tag_317\n      jump\t// in\n    tag_322:\n      pop\n        /* \"#utility.yul\":3755:3764   */\n      mul\n      swap1\n        /* \"#utility.yul\":3602:3770   */\n      jump\t// out\n        /* \"#utility.yul\":3775:3900   */\n    tag_153:\n        /* \"#utility.yul\":3815:3819   */\n      0x00\n        /* \"#utility.yul\":3843:3844   */\n      dup3\n        /* \"#utility.yul\":3840:3841   */\n      dup3\n        /* \"#utility.yul\":3837:3845   */\n      lt\n        /* \"#utility.yul\":3834:3868   */\n      iszero\n      tag_325\n      jumpi\n        /* \"#utility.yul\":3848:3866   */\n      tag_325\n      tag_317\n      jump\t// in\n    tag_325:\n      pop\n        /* \"#utility.yul\":3885:3894   */\n      sub\n      swap1\n        /* \"#utility.yul\":3775:3900   */\n      jump\t// out\n        /* \"#utility.yul\":3905:4032   */\n    tag_317:\n        /* \"#utility.yul\":3966:3976   */\n      0x4e487b71\n        /* \"#utility.yul\":3961:3964   */\n      0xe0\n        /* \"#utility.yul\":3957:3977   */\n      shl\n        /* \"#utility.yul\":3954:3955   */\n      0x00\n        /* \"#utility.yul\":3947:3978   */\n      mstore\n        /* \"#utility.yul\":3997:4001   */\n      0x11\n        /* \"#utility.yul\":3994:3995   */\n      0x04\n        /* \"#utility.yul\":3987:4002   */\n      mstore\n        /* \"#utility.yul\":4021:4025   */\n      0x24\n        /* \"#utility.yul\":4018:4019   */\n      0x00\n        /* \"#utility.yul\":4011:4026   */\n      revert\n\n    auxdata: 0xa26469706673582212206920cee972a40f0cfc9fd66772e259832ceefccb083d8c7fdf59d929eb5c43c464736f6c63430008070033\n}\n",
				"bytecode": {
					"linkReferences": {},
					"object": "608060405234801561001057600080fd5b50600280546001600160a01b031916321790556111f6806100326000396000f3fe60806040526004361061013a5760003560e01c806372a9d124116100bb578063b8c876b11161007f578063d56b288911610059578063d56b28891461034d578063ddca3f4314610362578063debc674c1461037857600080fd5b8063b8c876b114610305578063cd6dc68714610332578063d0e30db01461034557600080fd5b806372a9d1241461029c57806374942c0f146102bc5780637937c03d146102d257806382b2e257146102da5780638666107c146102ef57600080fd5b80635f244d4e116101025780635f244d4e146101e357806366b3f6bf1461020357806367da263d146102395780636f7bc9be14610259578063707e7e871461028657600080fd5b806312065fe01461013f5780631eb928aa1461016157806326c4e60d146101965780632e1a7d4d146101ad57806331f3bd28146101cd575b600080fd5b34801561014b57600080fd5b50475b6040519081526020015b60405180910390f35b34801561016d57600080fd5b5061018161017c366004611108565b610398565b60408051928352602083019190915201610158565b3480156101a257600080fd5b506101ab61045a565b005b3480156101b957600080fd5b506101ab6101c8366004611108565b61050f565b3480156101d957600080fd5b5061014e60015481565b3480156101ef57600080fd5b506101816101fe366004611108565b610738565b34801561020f57600080fd5b5061014e61021e36600461109a565b6001600160a01b031660009081526004602052604090205490565b34801561024557600080fd5b5061014e610254366004611108565b6107df565b34801561026557600080fd5b5061014e61027436600461109a565b60046020526000908152604090205481565b34801561029257600080fd5b5061014e60085481565b3480156102a857600080fd5b5061014e6102b7366004611108565b61086e565b3480156102c857600080fd5b5061014e60065481565b6101ab6108fe565b3480156102e657600080fd5b5061014e610a12565b3480156102fb57600080fd5b5061014e60075481565b34801561031157600080fd5b5061014e61032036600461109a565b60056020526000908152604090205481565b6101ab6103403660046110bc565b610a93565b6101ab610bcb565b34801561035957600080fd5b506101ab610da6565b34801561036e57600080fd5b5061014e60035481565b34801561038457600080fd5b506101ab610393366004611108565b610ead565b600080600060015447856103ac9190611174565b6103b69190611152565b600154600080546040516370a0823160e01b815230600482015293945090926001600160a01b03909116906370a082319060240160206040518083038186803b15801561040257600080fd5b505afa158015610416573d6000803e3d6000fd5b505050506040513d601f19601f8201168201806040525081019061043a9190611121565b6104449087611174565b61044e9190611152565b91959194509092505050565b60006103e8600354600361046e9190611174565b6104789190611152565b604051909150600090329083908381818185875af1925050503d80600081146104bd576040519150601f19603f3d011682016040523d82523d6000602084013e6104c2565b606091505b505090508061050b5760405162461bcd60e51b815260206004820152601060248201526f2a3930b739b332b9103330b4b632b21760811b60448201526064015b60405180910390fd5b5050565b60015460009061051f4784611174565b6105299190611152565b600154600080546040516370a0823160e01b815230600482015293945090926001600160a01b03909116906370a082319060240160206040518083038186803b15801561057557600080fd5b505afa158015610589573d6000803e3d6000fd5b505050506040513d601f19601f820116820180604052508101906105ad9190611121565b6105b79085611174565b6105c19190611152565b905081600160008282546105d59190611193565b9091555050604051600090329084908381818185875af1925050503d806000811461061c576040519150601f19603f3d011682016040523d82523d6000602084013e610621565b606091505b50509050806106655760405162461bcd60e51b815260206004820152601060248201526f2a3930b739b332b9103330b4b632b21760811b6044820152606401610502565b60005460405163a9059cbb60e01b8152326004820152602481018490526001600160a01b039091169063a9059cbb90604401602060405180830381600087803b1580156106b157600080fd5b505af11580156106c5573d6000803e3d6000fd5b505050506040513d601f19601f820116820180604052508101906106e991906110e6565b6106f257600080fd5b60408051848152602081018490527f56ca301a9219608c91e7bcee90e083c19671d2cdcc96752c7af291cee5f9c8c8910160405180910390a15060079190915560065550565b600080546040516370a0823160e01b81523060048201528291829147916001600160a01b0316906370a082319060240160206040518083038186803b15801561078057600080fd5b505afa158015610794573d6000803e3d6000fd5b505050506040513d601f19601f820116820180604052508101906107b89190611121565b6107c29086611174565b6107cc9190611152565b9050600047600154866104449190611174565b600080546040516370a0823160e01b81523060048201526108689184916001600160a01b03909116906370a08231906024015b60206040518083038186803b15801561082a57600080fd5b505afa15801561083e573d6000803e3d6000fd5b505050506040513d601f19601f820116820180604052508101906108629190611121565b47611056565b92915050565b60006108688261087e8147611193565b6000546040516370a0823160e01b81523060048201526001600160a01b03909116906370a082319060240160206040518083038186803b1580156108c157600080fd5b505afa1580156108d5573d6000803e3d6000fd5b505050506040513d601f19601f820116820180604052508101906108f99190611121565b611056565b600061090e3461087e8147611193565b60005460405163a9059cbb60e01b8152326004820152602481018390529192506001600160a01b03169063a9059cbb90604401602060405180830381600087803b15801561095b57600080fd5b505af115801561096f573d6000803e3d6000fd5b505050506040513d601f19601f8201168201806040525081019061099391906110e6565b61099c57600080fd5b34600360008282546109ae919061113a565b909155505032600090815260046020526040812080543492906109d290849061113a565b909155505060068190556040518181527fdb04c7a6d4758fd55d738ebc67e7f3010ac922be00771ef29521a4090d1eb13f9060200160405180910390a150565b600080546040516370a0823160e01b81523060048201526001600160a01b03909116906370a082319060240160206040518083038186803b158015610a5657600080fd5b505afa158015610a6a573d6000803e3d6000fd5b505050506040513d601f19601f82011682018060405250810190610a8e9190611121565b905090565b60015415610aa057600080fd5b60008111610aad57600080fd5b60003411610aba57600080fd5b60006003819055805473ffffffffffffffffffffffffffffffffffffffff19166001600160a01b03848116919091178255476001819055328084526005602052604080852092909255925490516323b872dd60e01b815260048101939093523060248401526044830184905216906323b872dd90606401602060405180830381600087803b158015610b4b57600080fd5b505af1158015610b5f573d6000803e3d6000fd5b505050506040513d601f19601f82011682018060405250810190610b8391906110e6565b610b8c57600080fd5b7fc43e48cf47e9fa186d0f4096c61d1fcb54159799f935a2aa32e5589688ee36e1600154604051610bbf91815260200190565b60405180910390a15050565b60003411610bd857600080fd5b6000610be43447611193565b6000546040516370a0823160e01b81523060048201526001600160a01b03909116906370a082319060240160206040518083038186803b158015610c2757600080fd5b505afa158015610c3b573d6000803e3d6000fd5b505050506040513d601f19601f82011682018060405250810190610c5f9190611121565b610c699034611174565b610c739190611152565b90506000610c813447611193565b600154610c8e9034611174565b610c989190611152565b32600090815260056020526040812080549293508392909190610cbc90849061113a565b925050819055508060016000828254610cd5919061113a565b90915550506000546040516323b872dd60e01b8152326004820152306024820152604481018490526001600160a01b03909116906323b872dd90606401602060405180830381600087803b158015610d2c57600080fd5b505af1158015610d40573d6000803e3d6000fd5b505050506040513d601f19601f82011682018060405250810190610d6491906110e6565b610d6d57600080fd5b6040518181527f4d6ce1e535dbade1c23defba91e23b8f791ce5edc0cc320257a2b364e4e384269060200160405180910390a160085550565b6000546040516370a0823160e01b81523060048201526001600160a01b039091169063a9059cbb90329083906370a082319060240160206040518083038186803b158015610df357600080fd5b505afa158015610e07573d6000803e3d6000fd5b505050506040513d601f19601f82011682018060405250810190610e2b9190611121565b6040516001600160e01b031960e085901b1681526001600160a01b0390921660048301526024820152604401602060405180830381600087803b158015610e7157600080fd5b505af1158015610e85573d6000803e3d6000fd5b505050506040513d601f19601f82011682018060405250810190610ea991906110e6565b5032ff5b600080546040516370a0823160e01b8152306004820152610ee49184916001600160a01b03909116906370a0823190602401610812565b604051909150600090329083908381818185875af1925050503d8060008114610f29576040519150601f19603f3d011682016040523d82523d6000602084013e610f2e565b606091505b5050905080610f725760405162461bcd60e51b815260206004820152601060248201526f2a3930b739b332b9103330b4b632b21760811b6044820152606401610502565b6000546040516323b872dd60e01b8152326004820152306024820152604481018590526001600160a01b03909116906323b872dd90606401602060405180830381600087803b158015610fc457600080fd5b505af1158015610fd8573d6000803e3d6000fd5b505050506040513d601f19601f82011682018060405250810190610ffc91906110e6565b61100557600080fd5b8160036000828254611017919061113a565b90915550506040518281527f4dbf3a71a7c7262f432c2cad7808225832255d07f7d8ab85117677c0b5c0a8509060200160405180910390a15060075550565b6000611062848461113a565b61106c8386611174565b6110769190611152565b949350505050565b80356001600160a01b038116811461109557600080fd5b919050565b6000602082840312156110ac57600080fd5b6110b58261107e565b9392505050565b600080604083850312156110cf57600080fd5b6110d88361107e565b946020939093013593505050565b6000602082840312156110f857600080fd5b815180151581146110b557600080fd5b60006020828403121561111a57600080fd5b5035919050565b60006020828403121561113357600080fd5b5051919050565b6000821982111561114d5761114d6111aa565b500190565b60008261116f57634e487b7160e01b600052601260045260246000fd5b500490565b600081600019048311821515161561118e5761118e6111aa565b500290565b6000828210156111a5576111a56111aa565b500390565b634e487b7160e01b600052601160045260246000fdfea26469706673582212206920cee972a40f0cfc9fd66772e259832ceefccb083d8c7fdf59d929eb5c43c464736f6c63430008070033",
					"opcodes": "PUSH1 0x80 PUSH1 0x40 MSTORE CALLVALUE DUP1 ISZERO PUSH2 0x10 JUMPI PUSH1 0x0 DUP1 REVERT JUMPDEST POP PUSH1 0x2 DUP1 SLOAD PUSH1 0x1 PUSH1 0x1 PUSH1 0xA0 SHL SUB NOT AND ORIGIN OR SWAP1 SSTORE PUSH2 0x11F6 DUP1 PUSH2 0x32 PUSH1 0x0 CODECOPY PUSH1 0x0 RETURN INVALID PUSH1 0x80 PUSH1 0x40 MSTORE PUSH1 0x4 CALLDATASIZE LT PUSH2 0x13A JUMPI PUSH1 0x0 CALLDATALOAD PUSH1 0xE0 SHR DUP1 PUSH4 0x72A9D124 GT PUSH2 0xBB JUMPI DUP1 PUSH4 0xB8C876B1 GT PUSH2 0x7F JUMPI DUP1 PUSH4 0xD56B2889 GT PUSH2 0x59 JUMPI DUP1 PUSH4 0xD56B2889 EQ PUSH2 0x34D JUMPI DUP1 PUSH4 0xDDCA3F43 EQ PUSH2 0x362 JUMPI DUP1 PUSH4 0xDEBC674C EQ PUSH2 0x378 JUMPI PUSH1 0x0 DUP1 REVERT JUMPDEST DUP1 PUSH4 0xB8C876B1 EQ PUSH2 0x305 JUMPI DUP1 PUSH4 0xCD6DC687 EQ PUSH2 0x332 JUMPI DUP1 PUSH4 0xD0E30DB0 EQ PUSH2 0x345 JUMPI PUSH1 0x0 DUP1 REVERT JUMPDEST DUP1 PUSH4 0x72A9D124 EQ PUSH2 0x29C JUMPI DUP1 PUSH4 0x74942C0F EQ PUSH2 0x2BC JUMPI DUP1 PUSH4 0x7937C03D EQ PUSH2 0x2D2 JUMPI DUP1 PUSH4 0x82B2E257 EQ PUSH2 0x2DA JUMPI DUP1 PUSH4 0x8666107C EQ PUSH2 0x2EF JUMPI PUSH1 0x0 DUP1 REVERT JUMPDEST DUP1 PUSH4 0x5F244D4E GT PUSH2 0x102 JUMPI DUP1 PUSH4 0x5F244D4E EQ PUSH2 0x1E3 JUMPI DUP1 PUSH4 0x66B3F6BF EQ PUSH2 0x203 JUMPI DUP1 PUSH4 0x67DA263D EQ PUSH2 0x239 JUMPI DUP1 PUSH4 0x6F7BC9BE EQ PUSH2 0x259 JUMPI DUP1 PUSH4 0x707E7E87 EQ PUSH2 0x286 JUMPI PUSH1 0x0 DUP1 REVERT JUMPDEST DUP1 PUSH4 0x12065FE0 EQ PUSH2 0x13F JUMPI DUP1 PUSH4 0x1EB928AA EQ PUSH2 0x161 JUMPI DUP1 PUSH4 0x26C4E60D EQ PUSH2 0x196 JUMPI DUP1 PUSH4 0x2E1A7D4D EQ PUSH2 0x1AD JUMPI DUP1 PUSH4 0x31F3BD28 EQ PUSH2 0x1CD JUMPI JUMPDEST PUSH1 0x0 DUP1 REVERT JUMPDEST CALLVALUE DUP1 ISZERO PUSH2 0x14B JUMPI PUSH1 0x0 DUP1 REVERT JUMPDEST POP SELFBALANCE JUMPDEST PUSH1 0x40 MLOAD SWAP1 DUP2 MSTORE PUSH1 0x20 ADD JUMPDEST PUSH1 0x40 MLOAD DUP1 SWAP2 SUB SWAP1 RETURN JUMPDEST CALLVALUE DUP1 ISZERO PUSH2 0x16D JUMPI PUSH1 0x0 DUP1 REVERT JUMPDEST POP PUSH2 0x181 PUSH2 0x17C CALLDATASIZE PUSH1 0x4 PUSH2 0x1108 JUMP JUMPDEST PUSH2 0x398 JUMP JUMPDEST PUSH1 0x40 DUP1 MLOAD SWAP3 DUP4 MSTORE PUSH1 0x20 DUP4 ADD SWAP2 SWAP1 SWAP2 MSTORE ADD PUSH2 0x158 JUMP JUMPDEST CALLVALUE DUP1 ISZERO PUSH2 0x1A2 JUMPI PUSH1 0x0 DUP1 REVERT JUMPDEST POP PUSH2 0x1AB PUSH2 0x45A JUMP JUMPDEST STOP JUMPDEST CALLVALUE DUP1 ISZERO PUSH2 0x1B9 JUMPI PUSH1 0x0 DUP1 REVERT JUMPDEST POP PUSH2 0x1AB PUSH2 0x1C8 CALLDATASIZE PUSH1 0x4 PUSH2 0x1108 JUMP JUMPDEST PUSH2 0x50F JUMP JUMPDEST CALLVALUE DUP1 ISZERO PUSH2 0x1D9 JUMPI PUSH1 0x0 DUP1 REVERT JUMPDEST POP PUSH2 0x14E PUSH1 0x1 SLOAD DUP2 JUMP JUMPDEST CALLVALUE DUP1 ISZERO PUSH2 0x1EF JUMPI PUSH1 0x0 DUP1 REVERT JUMPDEST POP PUSH2 0x181 PUSH2 0x1FE CALLDATASIZE PUSH1 0x4 PUSH2 0x1108 JUMP JUMPDEST PUSH2 0x738 JUMP JUMPDEST CALLVALUE DUP1 ISZERO PUSH2 0x20F JUMPI PUSH1 0x0 DUP1 REVERT JUMPDEST POP PUSH2 0x14E PUSH2 0x21E CALLDATASIZE PUSH1 0x4 PUSH2 0x109A JUMP JUMPDEST PUSH1 0x1 PUSH1 0x1 PUSH1 0xA0 SHL SUB AND PUSH1 0x0 SWAP1 DUP2 MSTORE PUSH1 0x4 PUSH1 0x20 MSTORE PUSH1 0x40 SWAP1 KECCAK256 SLOAD SWAP1 JUMP JUMPDEST CALLVALUE DUP1 ISZERO PUSH2 0x245 JUMPI PUSH1 0x0 DUP1 REVERT JUMPDEST POP PUSH2 0x14E PUSH2 0x254 CALLDATASIZE PUSH1 0x4 PUSH2 0x1108 JUMP JUMPDEST PUSH2 0x7DF JUMP JUMPDEST CALLVALUE DUP1 ISZERO PUSH2 0x265 JUMPI PUSH1 0x0 DUP1 REVERT JUMPDEST POP PUSH2 0x14E PUSH2 0x274 CALLDATASIZE PUSH1 0x4 PUSH2 0x109A JUMP JUMPDEST PUSH1 0x4 PUSH1 0x20 MSTORE PUSH1 0x0 SWAP1 DUP2 MSTORE PUSH1 0x40 SWAP1 KECCAK256 SLOAD DUP2 JUMP JUMPDEST CALLVALUE DUP1 ISZERO PUSH2 0x292 JUMPI PUSH1 0x0 DUP1 REVERT JUMPDEST POP PUSH2 0x14E PUSH1 0x8 SLOAD DUP2 JUMP JUMPDEST CALLVALUE DUP1 ISZERO PUSH2 0x2A8 JUMPI PUSH1 0x0 DUP1 REVERT JUMPDEST POP PUSH2 0x14E PUSH2 0x2B7 CALLDATASIZE PUSH1 0x4 PUSH2 0x1108 JUMP JUMPDEST PUSH2 0x86E JUMP JUMPDEST CALLVALUE DUP1 ISZERO PUSH2 0x2C8 JUMPI PUSH1 0x0 DUP1 REVERT JUMPDEST POP PUSH2 0x14E PUSH1 0x6 SLOAD DUP2 JUMP JUMPDEST PUSH2 0x1AB PUSH2 0x8FE JUMP JUMPDEST CALLVALUE DUP1 ISZERO PUSH2 0x2E6 JUMPI PUSH1 0x0 DUP1 REVERT JUMPDEST POP PUSH2 0x14E PUSH2 0xA12 JUMP JUMPDEST CALLVALUE DUP1 ISZERO PUSH2 0x2FB JUMPI PUSH1 0x0 DUP1 REVERT JUMPDEST POP PUSH2 0x14E PUSH1 0x7 SLOAD DUP2 JUMP JUMPDEST CALLVALUE DUP1 ISZERO PUSH2 0x311 JUMPI PUSH1 0x0 DUP1 REVERT JUMPDEST POP PUSH2 0x14E PUSH2 0x320 CALLDATASIZE PUSH1 0x4 PUSH2 0x109A JUMP JUMPDEST PUSH1 0x5 PUSH1 0x20 MSTORE PUSH1 0x0 SWAP1 DUP2 MSTORE PUSH1 0x40 SWAP1 KECCAK256 SLOAD DUP2 JUMP JUMPDEST PUSH2 0x1AB PUSH2 0x340 CALLDATASIZE PUSH1 0x4 PUSH2 0x10BC JUMP JUMPDEST PUSH2 0xA93 JUMP JUMPDEST PUSH2 0x1AB PUSH2 0xBCB JUMP JUMPDEST CALLVALUE DUP1 ISZERO PUSH2 0x359 JUMPI PUSH1 0x0 DUP1 REVERT JUMPDEST POP PUSH2 0x1AB PUSH2 0xDA6 JUMP JUMPDEST CALLVALUE DUP1 ISZERO PUSH2 0x36E JUMPI PUSH1 0x0 DUP1 REVERT JUMPDEST POP PUSH2 0x14E PUSH1 0x3 SLOAD DUP2 JUMP JUMPDEST CALLVALUE DUP1 ISZERO PUSH2 0x384 JUMPI PUSH1 0x0 DUP1 REVERT JUMPDEST POP PUSH2 0x1AB PUSH2 0x393 CALLDATASIZE PUSH1 0x4 PUSH2 0x1108 JUMP JUMPDEST PUSH2 0xEAD JUMP JUMPDEST PUSH1 0x0 DUP1 PUSH1 0x0 PUSH1 0x1 SLOAD SELFBALANCE DUP6 PUSH2 0x3AC SWAP2 SWAP1 PUSH2 0x1174 JUMP JUMPDEST PUSH2 0x3B6 SWAP2 SWAP1 PUSH2 0x1152 JUMP JUMPDEST PUSH1 0x1 SLOAD PUSH1 0x0 DUP1 SLOAD PUSH1 0x40 MLOAD PUSH4 0x70A08231 PUSH1 0xE0 SHL DUP2 MSTORE ADDRESS PUSH1 0x4 DUP3 ADD MSTORE SWAP4 SWAP5 POP SWAP1 SWAP3 PUSH1 0x1 PUSH1 0x1 PUSH1 0xA0 SHL SUB SWAP1 SWAP2 AND SWAP1 PUSH4 0x70A08231 SWAP1 PUSH1 0x24 ADD PUSH1 0x20 PUSH1 0x40 MLOAD DUP1 DUP4 SUB DUP2 DUP7 DUP1 EXTCODESIZE ISZERO DUP1 ISZERO PUSH2 0x402 JUMPI PUSH1 0x0 DUP1 REVERT JUMPDEST POP GAS STATICCALL ISZERO DUP1 ISZERO PUSH2 0x416 JUMPI RETURNDATASIZE PUSH1 0x0 DUP1 RETURNDATACOPY RETURNDATASIZE PUSH1 0x0 REVERT JUMPDEST POP POP POP POP PUSH1 0x40 MLOAD RETURNDATASIZE PUSH1 0x1F NOT PUSH1 0x1F DUP3 ADD AND DUP3 ADD DUP1 PUSH1 0x40 MSTORE POP DUP2 ADD SWAP1 PUSH2 0x43A SWAP2 SWAP1 PUSH2 0x1121 JUMP JUMPDEST PUSH2 0x444 SWAP1 DUP8 PUSH2 0x1174 JUMP JUMPDEST PUSH2 0x44E SWAP2 SWAP1 PUSH2 0x1152 JUMP JUMPDEST SWAP2 SWAP6 SWAP2 SWAP5 POP SWAP1 SWAP3 POP POP POP JUMP JUMPDEST PUSH1 0x0 PUSH2 0x3E8 PUSH1 0x3 SLOAD PUSH1 0x3 PUSH2 0x46E SWAP2 SWAP1 PUSH2 0x1174 JUMP JUMPDEST PUSH2 0x478 SWAP2 SWAP1 PUSH2 0x1152 JUMP JUMPDEST PUSH1 0x40 MLOAD SWAP1 SWAP2 POP PUSH1 0x0 SWAP1 ORIGIN SWAP1 DUP4 SWAP1 DUP4 DUP2 DUP2 DUP2 DUP6 DUP8 GAS CALL SWAP3 POP POP POP RETURNDATASIZE DUP1 PUSH1 0x0 DUP2 EQ PUSH2 0x4BD JUMPI PUSH1 0x40 MLOAD SWAP2 POP PUSH1 0x1F NOT PUSH1 0x3F RETURNDATASIZE ADD AND DUP3 ADD PUSH1 0x40 MSTORE RETURNDATASIZE DUP3 MSTORE RETURNDATASIZE PUSH1 0x0 PUSH1 0x20 DUP5 ADD RETURNDATACOPY PUSH2 0x4C2 JUMP JUMPDEST PUSH1 0x60 SWAP2 POP JUMPDEST POP POP SWAP1 POP DUP1 PUSH2 0x50B JUMPI PUSH1 0x40 MLOAD PUSH3 0x461BCD PUSH1 0xE5 SHL DUP2 MSTORE PUSH1 0x20 PUSH1 0x4 DUP3 ADD MSTORE PUSH1 0x10 PUSH1 0x24 DUP3 ADD MSTORE PUSH16 0x2A3930B739B332B9103330B4B632B217 PUSH1 0x81 SHL PUSH1 0x44 DUP3 ADD MSTORE PUSH1 0x64 ADD JUMPDEST PUSH1 0x40 MLOAD DUP1 SWAP2 SUB SWAP1 REVERT JUMPDEST POP POP JUMP JUMPDEST PUSH1 0x1 SLOAD PUSH1 0x0 SWAP1 PUSH2 0x51F SELFBALANCE DUP5 PUSH2 0x1174 JUMP JUMPDEST PUSH2 0x529 SWAP2 SWAP1 PUSH2 0x1152 JUMP JUMPDEST PUSH1 0x1 SLOAD PUSH1 0x0 DUP1 SLOAD PUSH1 0x40 MLOAD PUSH4 0x70A08231 PUSH1 0xE0 SHL DUP2 MSTORE ADDRESS PUSH1 0x4 DUP3 ADD MSTORE SWAP4 SWAP5 POP SWAP1 SWAP3 PUSH1 0x1 PUSH1 0x1 PUSH1 0xA0 SHL SUB SWAP1 SWAP2 AND SWAP1 PUSH4 0x70A08231 SWAP1 PUSH1 0x24 ADD PUSH1 0x20 PUSH1 0x40 MLOAD DUP1 DUP4 SUB DUP2 DUP7 DUP1 EXTCODESIZE ISZERO DUP1 ISZERO PUSH2 0x575 JUMPI PUSH1 0x0 DUP1 REVERT JUMPDEST POP GAS STATICCALL ISZERO DUP1 ISZERO PUSH2 0x589 JUMPI RETURNDATASIZE PUSH1 0x0 DUP1 RETURNDATACOPY RETURNDATASIZE PUSH1 0x0 REVERT JUMPDEST POP POP POP POP PUSH1 0x40 MLOAD RETURNDATASIZE PUSH1 0x1F NOT PUSH1 0x1F DUP3 ADD AND DUP3 ADD DUP1 PUSH1 0x40 MSTORE POP DUP2 ADD SWAP1 PUSH2 0x5AD SWAP2 SWAP1 PUSH2 0x1121 JUMP JUMPDEST PUSH2 0x5B7 SWAP1 DUP6 PUSH2 0x1174 JUMP JUMPDEST PUSH2 0x5C1 SWAP2 SWAP1 PUSH2 0x1152 JUMP JUMPDEST SWAP1 POP DUP2 PUSH1 0x1 PUSH1 0x0 DUP3 DUP3 SLOAD PUSH2 0x5D5 SWAP2 SWAP1 PUSH2 0x1193 JUMP JUMPDEST SWAP1 SWAP2 SSTORE POP POP PUSH1 0x40 MLOAD PUSH1 0x0 SWAP1 ORIGIN SWAP1 DUP5 SWAP1 DUP4 DUP2 DUP2 DUP2 DUP6 DUP8 GAS CALL SWAP3 POP POP POP RETURNDATASIZE DUP1 PUSH1 0x0 DUP2 EQ PUSH2 0x61C JUMPI PUSH1 0x40 MLOAD SWAP2 POP PUSH1 0x1F NOT PUSH1 0x3F RETURNDATASIZE ADD AND DUP3 ADD PUSH1 0x40 MSTORE RETURNDATASIZE DUP3 MSTORE RETURNDATASIZE PUSH1 0x0 PUSH1 0x20 DUP5 ADD RETURNDATACOPY PUSH2 0x621 JUMP JUMPDEST PUSH1 0x60 SWAP2 POP JUMPDEST POP POP SWAP1 POP DUP1 PUSH2 0x665 JUMPI PUSH1 0x40 MLOAD PUSH3 0x461BCD PUSH1 0xE5 SHL DUP2 MSTORE PUSH1 0x20 PUSH1 0x4 DUP3 ADD MSTORE PUSH1 0x10 PUSH1 0x24 DUP3 ADD MSTORE PUSH16 0x2A3930B739B332B9103330B4B632B217 PUSH1 0x81 SHL PUSH1 0x44 DUP3 ADD MSTORE PUSH1 0x64 ADD PUSH2 0x502 JUMP JUMPDEST PUSH1 0x0 SLOAD PUSH1 0x40 MLOAD PUSH4 0xA9059CBB PUSH1 0xE0 SHL DUP2 MSTORE ORIGIN PUSH1 0x4 DUP3 ADD MSTORE PUSH1 0x24 DUP2 ADD DUP5 SWAP1 MSTORE PUSH1 0x1 PUSH1 0x1 PUSH1 0xA0 SHL SUB SWAP1 SWAP2 AND SWAP1 PUSH4 0xA9059CBB SWAP1 PUSH1 0x44 ADD PUSH1 0x20 PUSH1 0x40 MLOAD DUP1 DUP4 SUB DUP2 PUSH1 0x0 DUP8 DUP1 EXTCODESIZE ISZERO DUP1 ISZERO PUSH2 0x6B1 JUMPI PUSH1 0x0 DUP1 REVERT JUMPDEST POP GAS CALL ISZERO DUP1 ISZERO PUSH2 0x6C5 JUMPI RETURNDATASIZE PUSH1 0x0 DUP1 RETURNDATACOPY RETURNDATASIZE PUSH1 0x0 REVERT JUMPDEST POP POP POP POP PUSH1 0x40 MLOAD RETURNDATASIZE PUSH1 0x1F NOT PUSH1 0x1F DUP3 ADD AND DUP3 ADD DUP1 PUSH1 0x40 MSTORE POP DUP2 ADD SWAP1 PUSH2 0x6E9 SWAP2 SWAP1 PUSH2 0x10E6 JUMP JUMPDEST PUSH2 0x6F2 JUMPI PUSH1 0x0 DUP1 REVERT JUMPDEST PUSH1 0x40 DUP1 MLOAD DUP5 DUP2 MSTORE PUSH1 0x20 DUP2 ADD DUP5 SWAP1 MSTORE PUSH32 0x56CA301A9219608C91E7BCEE90E083C19671D2CDCC96752C7AF291CEE5F9C8C8 SWAP2 ADD PUSH1 0x40 MLOAD DUP1 SWAP2 SUB SWAP1 LOG1 POP PUSH1 0x7 SWAP2 SWAP1 SWAP2 SSTORE PUSH1 0x6 SSTORE POP JUMP JUMPDEST PUSH1 0x0 DUP1 SLOAD PUSH1 0x40 MLOAD PUSH4 0x70A08231 PUSH1 0xE0 SHL DUP2 MSTORE ADDRESS PUSH1 0x4 DUP3 ADD MSTORE DUP3 SWAP2 DUP3 SWAP2 SELFBALANCE SWAP2 PUSH1 0x1 PUSH1 0x1 PUSH1 0xA0 SHL SUB AND SWAP1 PUSH4 0x70A08231 SWAP1 PUSH1 0x24 ADD PUSH1 0x20 PUSH1 0x40 MLOAD DUP1 DUP4 SUB DUP2 DUP7 DUP1 EXTCODESIZE ISZERO DUP1 ISZERO PUSH2 0x780 JUMPI PUSH1 0x0 DUP1 REVERT JUMPDEST POP GAS STATICCALL ISZERO DUP1 ISZERO PUSH2 0x794 JUMPI RETURNDATASIZE PUSH1 0x0 DUP1 RETURNDATACOPY RETURNDATASIZE PUSH1 0x0 REVERT JUMPDEST POP POP POP POP PUSH1 0x40 MLOAD RETURNDATASIZE PUSH1 0x1F NOT PUSH1 0x1F DUP3 ADD AND DUP3 ADD DUP1 PUSH1 0x40 MSTORE POP DUP2 ADD SWAP1 PUSH2 0x7B8 SWAP2 SWAP1 PUSH2 0x1121 JUMP JUMPDEST PUSH2 0x7C2 SWAP1 DUP7 PUSH2 0x1174 JUMP JUMPDEST PUSH2 0x7CC SWAP2 SWAP1 PUSH2 0x1152 JUMP JUMPDEST SWAP1 POP PUSH1 0x0 SELFBALANCE PUSH1 0x1 SLOAD DUP7 PUSH2 0x444 SWAP2 SWAP1 PUSH2 0x1174 JUMP JUMPDEST PUSH1 0x0 DUP1 SLOAD PUSH1 0x40 MLOAD PUSH4 0x70A08231 PUSH1 0xE0 SHL DUP2 MSTORE ADDRESS PUSH1 0x4 DUP3 ADD MSTORE PUSH2 0x868 SWAP2 DUP5 SWAP2 PUSH1 0x1 PUSH1 0x1 PUSH1 0xA0 SHL SUB SWAP1 SWAP2 AND SWAP1 PUSH4 0x70A08231 SWAP1 PUSH1 0x24 ADD JUMPDEST PUSH1 0x20 PUSH1 0x40 MLOAD DUP1 DUP4 SUB DUP2 DUP7 DUP1 EXTCODESIZE ISZERO DUP1 ISZERO PUSH2 0x82A JUMPI PUSH1 0x0 DUP1 REVERT JUMPDEST POP GAS STATICCALL ISZERO DUP1 ISZERO PUSH2 0x83E JUMPI RETURNDATASIZE PUSH1 0x0 DUP1 RETURNDATACOPY RETURNDATASIZE PUSH1 0x0 REVERT JUMPDEST POP POP POP POP PUSH1 0x40 MLOAD RETURNDATASIZE PUSH1 0x1F NOT PUSH1 0x1F DUP3 ADD AND DUP3 ADD DUP1 PUSH1 0x40 MSTORE POP DUP2 ADD SWAP1 PUSH2 0x862 SWAP2 SWAP1 PUSH2 0x1121 JUMP JUMPDEST SELFBALANCE PUSH2 0x1056 JUMP JUMPDEST SWAP3 SWAP2 POP POP JUMP JUMPDEST PUSH1 0x0 PUSH2 0x868 DUP3 PUSH2 0x87E DUP2 SELFBALANCE PUSH2 0x1193 JUMP JUMPDEST PUSH1 0x0 SLOAD PUSH1 0x40 MLOAD PUSH4 0x70A08231 PUSH1 0xE0 SHL DUP2 MSTORE ADDRESS PUSH1 0x4 DUP3 ADD MSTORE PUSH1 0x1 PUSH1 0x1 PUSH1 0xA0 SHL SUB SWAP1 SWAP2 AND SWAP1 PUSH4 0x70A08231 SWAP1 PUSH1 0x24 ADD PUSH1 0x20 PUSH1 0x40 MLOAD DUP1 DUP4 SUB DUP2 DUP7 DUP1 EXTCODESIZE ISZERO DUP1 ISZERO PUSH2 0x8C1 JUMPI PUSH1 0x0 DUP1 REVERT JUMPDEST POP GAS STATICCALL ISZERO DUP1 ISZERO PUSH2 0x8D5 JUMPI RETURNDATASIZE PUSH1 0x0 DUP1 RETURNDATACOPY RETURNDATASIZE PUSH1 0x0 REVERT JUMPDEST POP POP POP POP PUSH1 0x40 MLOAD RETURNDATASIZE PUSH1 0x1F NOT PUSH1 0x1F DUP3 ADD AND DUP3 ADD DUP1 PUSH1 0x40 MSTORE POP DUP2 ADD SWAP1 PUSH2 0x8F9 SWAP2 SWAP1 PUSH2 0x1121 JUMP JUMPDEST PUSH2 0x1056 JUMP JUMPDEST PUSH1 0x0 PUSH2 0x90E CALLVALUE PUSH2 0x87E DUP2 SELFBALANCE PUSH2 0x1193 JUMP JUMPDEST PUSH1 0x0 SLOAD PUSH1 0x40 MLOAD PUSH4 0xA9059CBB PUSH1 0xE0 SHL DUP2 MSTORE ORIGIN PUSH1 0x4 DUP3 ADD MSTORE PUSH1 0x24 DUP2 ADD DUP4 SWAP1 MSTORE SWAP2 SWAP3 POP PUSH1 0x1 PUSH1 0x1 PUSH1 0xA0 SHL SUB AND SWAP1 PUSH4 0xA9059CBB SWAP1 PUSH1 0x44 ADD PUSH1 0x20 PUSH1 0x40 MLOAD DUP1 DUP4 SUB DUP2 PUSH1 0x0 DUP8 DUP1 EXTCODESIZE ISZERO DUP1 ISZERO PUSH2 0x95B JUMPI PUSH1 0x0 DUP1 REVERT JUMPDEST POP GAS CALL ISZERO DUP1 ISZERO PUSH2 0x96F JUMPI RETURNDATASIZE PUSH1 0x0 DUP1 RETURNDATACOPY RETURNDATASIZE PUSH1 0x0 REVERT JUMPDEST POP POP POP POP PUSH1 0x40 MLOAD RETURNDATASIZE PUSH1 0x1F NOT PUSH1 0x1F DUP3 ADD AND DUP3 ADD DUP1 PUSH1 0x40 MSTORE POP DUP2 ADD SWAP1 PUSH2 0x993 SWAP2 SWAP1 PUSH2 0x10E6 JUMP JUMPDEST PUSH2 0x99C JUMPI PUSH1 0x0 DUP1 REVERT JUMPDEST CALLVALUE PUSH1 0x3 PUSH1 0x0 DUP3 DUP3 SLOAD PUSH2 0x9AE SWAP2 SWAP1 PUSH2 0x113A JUMP JUMPDEST SWAP1 SWAP2 SSTORE POP POP ORIGIN PUSH1 0x0 SWAP1 DUP2 MSTORE PUSH1 0x4 PUSH1 0x20 MSTORE PUSH1 0x40 DUP2 KECCAK256 DUP1 SLOAD CALLVALUE SWAP3 SWAP1 PUSH2 0x9D2 SWAP1 DUP5 SWAP1 PUSH2 0x113A JUMP JUMPDEST SWAP1 SWAP2 SSTORE POP POP PUSH1 0x6 DUP2 SWAP1 SSTORE PUSH1 0x40 MLOAD DUP2 DUP2 MSTORE PUSH32 0xDB04C7A6D4758FD55D738EBC67E7F3010AC922BE00771EF29521A4090D1EB13F SWAP1 PUSH1 0x20 ADD PUSH1 0x40 MLOAD DUP1 SWAP2 SUB SWAP1 LOG1 POP JUMP JUMPDEST PUSH1 0x0 DUP1 SLOAD PUSH1 0x40 MLOAD PUSH4 0x70A08231 PUSH1 0xE0 SHL DUP2 MSTORE ADDRESS PUSH1 0x4 DUP3 ADD MSTORE PUSH1 0x1 PUSH1 0x1 PUSH1 0xA0 SHL SUB SWAP1 SWAP2 AND SWAP1 PUSH4 0x70A08231 SWAP1 PUSH1 0x24 ADD PUSH1 0x20 PUSH1 0x40 MLOAD DUP1 DUP4 SUB DUP2 DUP7 DUP1 EXTCODESIZE ISZERO DUP1 ISZERO PUSH2 0xA56 JUMPI PUSH1 0x0 DUP1 REVERT JUMPDEST POP GAS STATICCALL ISZERO DUP1 ISZERO PUSH2 0xA6A JUMPI RETURNDATASIZE PUSH1 0x0 DUP1 RETURNDATACOPY RETURNDATASIZE PUSH1 0x0 REVERT JUMPDEST POP POP POP POP PUSH1 0x40 MLOAD RETURNDATASIZE PUSH1 0x1F NOT PUSH1 0x1F DUP3 ADD AND DUP3 ADD DUP1 PUSH1 0x40 MSTORE POP DUP2 ADD SWAP1 PUSH2 0xA8E SWAP2 SWAP1 PUSH2 0x1121 JUMP JUMPDEST SWAP1 POP SWAP1 JUMP JUMPDEST PUSH1 0x1 SLOAD ISZERO PUSH2 0xAA0 JUMPI PUSH1 0x0 DUP1 REVERT JUMPDEST PUSH1 0x0 DUP2 GT PUSH2 0xAAD JUMPI PUSH1 0x0 DUP1 REVERT JUMPDEST PUSH1 0x0 CALLVALUE GT PUSH2 0xABA JUMPI PUSH1 0x0 DUP1 REVERT JUMPDEST PUSH1 0x0 PUSH1 0x3 DUP2 SWAP1 SSTORE DUP1 SLOAD PUSH20 0xFFFFFFFFFFFFFFFFFFFFFFFFFFFFFFFFFFFFFFFF NOT AND PUSH1 0x1 PUSH1 0x1 PUSH1 0xA0 SHL SUB DUP5 DUP2 AND SWAP2 SWAP1 SWAP2 OR DUP3 SSTORE SELFBALANCE PUSH1 0x1 DUP2 SWAP1 SSTORE ORIGIN DUP1 DUP5 MSTORE PUSH1 0x5 PUSH1 0x20 MSTORE PUSH1 0x40 DUP1 DUP6 KECCAK256 SWAP3 SWAP1 SWAP3 SSTORE SWAP3 SLOAD SWAP1 MLOAD PUSH4 0x23B872DD PUSH1 0xE0 SHL DUP2 MSTORE PUSH1 0x4 DUP2 ADD SWAP4 SWAP1 SWAP4 MSTORE ADDRESS PUSH1 0x24 DUP5 ADD MSTORE PUSH1 0x44 DUP4 ADD DUP5 SWAP1 MSTORE AND SWAP1 PUSH4 0x23B872DD SWAP1 PUSH1 0x64 ADD PUSH1 0x20 PUSH1 0x40 MLOAD DUP1 DUP4 SUB DUP2 PUSH1 0x0 DUP8 DUP1 EXTCODESIZE ISZERO DUP1 ISZERO PUSH2 0xB4B JUMPI PUSH1 0x0 DUP1 REVERT JUMPDEST POP GAS CALL ISZERO DUP1 ISZERO PUSH2 0xB5F JUMPI RETURNDATASIZE PUSH1 0x0 DUP1 RETURNDATACOPY RETURNDATASIZE PUSH1 0x0 REVERT JUMPDEST POP POP POP POP PUSH1 0x40 MLOAD RETURNDATASIZE PUSH1 0x1F NOT PUSH1 0x1F DUP3 ADD AND DUP3 ADD DUP1 PUSH1 0x40 MSTORE POP DUP2 ADD SWAP1 PUSH2 0xB83 SWAP2 SWAP1 PUSH2 0x10E6 JUMP JUMPDEST PUSH2 0xB8C JUMPI PUSH1 0x0 DUP1 REVERT JUMPDEST PUSH32 0xC43E48CF47E9FA186D0F4096C61D1FCB54159799F935A2AA32E5589688EE36E1 PUSH1 0x1 SLOAD PUSH1 0x40 MLOAD PUSH2 0xBBF SWAP2 DUP2 MSTORE PUSH1 0x20 ADD SWAP1 JUMP JUMPDEST PUSH1 0x40 MLOAD DUP1 SWAP2 SUB SWAP1 LOG1 POP POP JUMP JUMPDEST PUSH1 0x0 CALLVALUE GT PUSH2 0xBD8 JUMPI PUSH1 0x0 DUP1 REVERT JUMPDEST PUSH1 0x0 PUSH2 0xBE4 CALLVALUE SELFBALANCE PUSH2 0x1193 JUMP JUMPDEST PUSH1 0x0 SLOAD PUSH1 0x40 MLOAD PUSH4 0x70A08231 PUSH1 0xE0 SHL DUP2 MSTORE ADDRESS PUSH1 0x4 DUP3 ADD MSTORE PUSH1 0x1 PUSH1 0x1 PUSH1 0xA0 SHL SUB SWAP1 SWAP2 AND SWAP1 PUSH4 0x70A08231 SWAP1 PUSH1 0x24 ADD PUSH1 0x20 PUSH1 0x40 MLOAD DUP1 DUP4 SUB DUP2 DUP7 DUP1 EXTCODESIZE ISZERO DUP1 ISZERO PUSH2 0xC27 JUMPI PUSH1 0x0 DUP1 REVERT JUMPDEST POP GAS STATICCALL ISZERO DUP1 ISZERO PUSH2 0xC3B JUMPI RETURNDATASIZE PUSH1 0x0 DUP1 RETURNDATACOPY RETURNDATASIZE PUSH1 0x0 REVERT JUMPDEST POP POP POP POP PUSH1 0x40 MLOAD RETURNDATASIZE PUSH1 0x1F NOT PUSH1 0x1F DUP3 ADD AND DUP3 ADD DUP1 PUSH1 0x40 MSTORE POP DUP2 ADD SWAP1 PUSH2 0xC5F SWAP2 SWAP1 PUSH2 0x1121 JUMP JUMPDEST PUSH2 0xC69 SWAP1 CALLVALUE PUSH2 0x1174 JUMP JUMPDEST PUSH2 0xC73 SWAP2 SWAP1 PUSH2 0x1152 JUMP JUMPDEST SWAP1 POP PUSH1 0x0 PUSH2 0xC81 CALLVALUE SELFBALANCE PUSH2 0x1193 JUMP JUMPDEST PUSH1 0x1 SLOAD PUSH2 0xC8E SWAP1 CALLVALUE PUSH2 0x1174 JUMP JUMPDEST PUSH2 0xC98 SWAP2 SWAP1 PUSH2 0x1152 JUMP JUMPDEST ORIGIN PUSH1 0x0 SWAP1 DUP2 MSTORE PUSH1 0x5 PUSH1 0x20 MSTORE PUSH1 0x40 DUP2 KECCAK256 DUP1 SLOAD SWAP3 SWAP4 POP DUP4 SWAP3 SWAP1 SWAP2 SWAP1 PUSH2 0xCBC SWAP1 DUP5 SWAP1 PUSH2 0x113A JUMP JUMPDEST SWAP3 POP POP DUP2 SWAP1 SSTORE POP DUP1 PUSH1 0x1 PUSH1 0x0 DUP3 DUP3 SLOAD PUSH2 0xCD5 SWAP2 SWAP1 PUSH2 0x113A JUMP JUMPDEST SWAP1 SWAP2 SSTORE POP POP PUSH1 0x0 SLOAD PUSH1 0x40 MLOAD PUSH4 0x23B872DD PUSH1 0xE0 SHL DUP2 MSTORE ORIGIN PUSH1 0x4 DUP3 ADD MSTORE ADDRESS PUSH1 0x24 DUP3 ADD MSTORE PUSH1 0x44 DUP2 ADD DUP5 SWAP1 MSTORE PUSH1 0x1 PUSH1 0x1 PUSH1 0xA0 SHL SUB SWAP1 SWAP2 AND SWAP1 PUSH4 0x23B872DD SWAP1 PUSH1 0x64 ADD PUSH1 0x20 PUSH1 0x40 MLOAD DUP1 DUP4 SUB DUP2 PUSH1 0x0 DUP8 DUP1 EXTCODESIZE ISZERO DUP1 ISZERO PUSH2 0xD2C JUMPI PUSH1 0x0 DUP1 REVERT JUMPDEST POP GAS CALL ISZERO DUP1 ISZERO PUSH2 0xD40 JUMPI RETURNDATASIZE PUSH1 0x0 DUP1 RETURNDATACOPY RETURNDATASIZE PUSH1 0x0 REVERT JUMPDEST POP POP POP POP PUSH1 0x40 MLOAD RETURNDATASIZE PUSH1 0x1F NOT PUSH1 0x1F DUP3 ADD AND DUP3 ADD DUP1 PUSH1 0x40 MSTORE POP DUP2 ADD SWAP1 PUSH2 0xD64 SWAP2 SWAP1 PUSH2 0x10E6 JUMP JUMPDEST PUSH2 0xD6D JUMPI PUSH1 0x0 DUP1 REVERT JUMPDEST PUSH1 0x40 MLOAD DUP2 DUP2 MSTORE PUSH32 0x4D6CE1E535DBADE1C23DEFBA91E23B8F791CE5EDC0CC320257A2B364E4E38426 SWAP1 PUSH1 0x20 ADD PUSH1 0x40 MLOAD DUP1 SWAP2 SUB SWAP1 LOG1 PUSH1 0x8 SSTORE POP JUMP JUMPDEST PUSH1 0x0 SLOAD PUSH1 0x40 MLOAD PUSH4 0x70A08231 PUSH1 0xE0 SHL DUP2 MSTORE ADDRESS PUSH1 0x4 DUP3 ADD MSTORE PUSH1 0x1 PUSH1 0x1 PUSH1 0xA0 SHL SUB SWAP1 SWAP2 AND SWAP1 PUSH4 0xA9059CBB SWAP1 ORIGIN SWAP1 DUP4 SWAP1 PUSH4 0x70A08231 SWAP1 PUSH1 0x24 ADD PUSH1 0x20 PUSH1 0x40 MLOAD DUP1 DUP4 SUB DUP2 DUP7 DUP1 EXTCODESIZE ISZERO DUP1 ISZERO PUSH2 0xDF3 JUMPI PUSH1 0x0 DUP1 REVERT JUMPDEST POP GAS STATICCALL ISZERO DUP1 ISZERO PUSH2 0xE07 JUMPI RETURNDATASIZE PUSH1 0x0 DUP1 RETURNDATACOPY RETURNDATASIZE PUSH1 0x0 REVERT JUMPDEST POP POP POP POP PUSH1 0x40 MLOAD RETURNDATASIZE PUSH1 0x1F NOT PUSH1 0x1F DUP3 ADD AND DUP3 ADD DUP1 PUSH1 0x40 MSTORE POP DUP2 ADD SWAP1 PUSH2 0xE2B SWAP2 SWAP1 PUSH2 0x1121 JUMP JUMPDEST PUSH1 0x40 MLOAD PUSH1 0x1 PUSH1 0x1 PUSH1 0xE0 SHL SUB NOT PUSH1 0xE0 DUP6 SWAP1 SHL AND DUP2 MSTORE PUSH1 0x1 PUSH1 0x1 PUSH1 0xA0 SHL SUB SWAP1 SWAP3 AND PUSH1 0x4 DUP4 ADD MSTORE PUSH1 0x24 DUP3 ADD MSTORE PUSH1 0x44 ADD PUSH1 0x20 PUSH1 0x40 MLOAD DUP1 DUP4 SUB DUP2 PUSH1 0x0 DUP8 DUP1 EXTCODESIZE ISZERO DUP1 ISZERO PUSH2 0xE71 JUMPI PUSH1 0x0 DUP1 REVERT JUMPDEST POP GAS CALL ISZERO DUP1 ISZERO PUSH2 0xE85 JUMPI RETURNDATASIZE PUSH1 0x0 DUP1 RETURNDATACOPY RETURNDATASIZE PUSH1 0x0 REVERT JUMPDEST POP POP POP POP PUSH1 0x40 MLOAD RETURNDATASIZE PUSH1 0x1F NOT PUSH1 0x1F DUP3 ADD AND DUP3 ADD DUP1 PUSH1 0x40 MSTORE POP DUP2 ADD SWAP1 PUSH2 0xEA9 SWAP2 SWAP1 PUSH2 0x10E6 JUMP JUMPDEST POP ORIGIN SELFDESTRUCT JUMPDEST PUSH1 0x0 DUP1 SLOAD PUSH1 0x40 MLOAD PUSH4 0x70A08231 PUSH1 0xE0 SHL DUP2 MSTORE ADDRESS PUSH1 0x4 DUP3 ADD MSTORE PUSH2 0xEE4 SWAP2 DUP5 SWAP2 PUSH1 0x1 PUSH1 0x1 PUSH1 0xA0 SHL SUB SWAP1 SWAP2 AND SWAP1 PUSH4 0x70A08231 SWAP1 PUSH1 0x24 ADD PUSH2 0x812 JUMP JUMPDEST PUSH1 0x40 MLOAD SWAP1 SWAP2 POP PUSH1 0x0 SWAP1 ORIGIN SWAP1 DUP4 SWAP1 DUP4 DUP2 DUP2 DUP2 DUP6 DUP8 GAS CALL SWAP3 POP POP POP RETURNDATASIZE DUP1 PUSH1 0x0 DUP2 EQ PUSH2 0xF29 JUMPI PUSH1 0x40 MLOAD SWAP2 POP PUSH1 0x1F NOT PUSH1 0x3F RETURNDATASIZE ADD AND DUP3 ADD PUSH1 0x40 MSTORE RETURNDATASIZE DUP3 MSTORE RETURNDATASIZE PUSH1 0x0 PUSH1 0x20 DUP5 ADD RETURNDATACOPY PUSH2 0xF2E JUMP JUMPDEST PUSH1 0x60 SWAP2 POP JUMPDEST POP POP SWAP1 POP DUP1 PUSH2 0xF72 JUMPI PUSH1 0x40 MLOAD PUSH3 0x461BCD PUSH1 0xE5 SHL DUP2 MSTORE PUSH1 0x20 PUSH1 0x4 DUP3 ADD MSTORE PUSH1 0x10 PUSH1 0x24 DUP3 ADD MSTORE PUSH16 0x2A3930B739B332B9103330B4B632B217 PUSH1 0x81 SHL PUSH1 0x44 DUP3 ADD MSTORE PUSH1 0x64 ADD PUSH2 0x502 JUMP JUMPDEST PUSH1 0x0 SLOAD PUSH1 0x40 MLOAD PUSH4 0x23B872DD PUSH1 0xE0 SHL DUP2 MSTORE ORIGIN PUSH1 0x4 DUP3 ADD MSTORE ADDRESS PUSH1 0x24 DUP3 ADD MSTORE PUSH1 0x44 DUP2 ADD DUP6 SWAP1 MSTORE PUSH1 0x1 PUSH1 0x1 PUSH1 0xA0 SHL SUB SWAP1 SWAP2 AND SWAP1 PUSH4 0x23B872DD SWAP1 PUSH1 0x64 ADD PUSH1 0x20 PUSH1 0x40 MLOAD DUP1 DUP4 SUB DUP2 PUSH1 0x0 DUP8 DUP1 EXTCODESIZE ISZERO DUP1 ISZERO PUSH2 0xFC4 JUMPI PUSH1 0x0 DUP1 REVERT JUMPDEST POP GAS CALL ISZERO DUP1 ISZERO PUSH2 0xFD8 JUMPI RETURNDATASIZE PUSH1 0x0 DUP1 RETURNDATACOPY RETURNDATASIZE PUSH1 0x0 REVERT JUMPDEST POP POP POP POP PUSH1 0x40 MLOAD RETURNDATASIZE PUSH1 0x1F NOT PUSH1 0x1F DUP3 ADD AND DUP3 ADD DUP1 PUSH1 0x40 MSTORE POP DUP2 ADD SWAP1 PUSH2 0xFFC SWAP2 SWAP1 PUSH2 0x10E6 JUMP JUMPDEST PUSH2 0x1005 JUMPI PUSH1 0x0 DUP1 REVERT JUMPDEST DUP2 PUSH1 0x3 PUSH1 0x0 DUP3 DUP3 SLOAD PUSH2 0x1017 SWAP2 SWAP1 PUSH2 0x113A JUMP JUMPDEST SWAP1 SWAP2 SSTORE POP POP PUSH1 0x40 MLOAD DUP3 DUP2 MSTORE PUSH32 0x4DBF3A71A7C7262F432C2CAD7808225832255D07F7D8AB85117677C0B5C0A850 SWAP1 PUSH1 0x20 ADD PUSH1 0x40 MLOAD DUP1 SWAP2 SUB SWAP1 LOG1 POP PUSH1 0x7 SSTORE POP JUMP JUMPDEST PUSH1 0x0 PUSH2 0x1062 DUP5 DUP5 PUSH2 0x113A JUMP JUMPDEST PUSH2 0x106C DUP4 DUP7 PUSH2 0x1174 JUMP JUMPDEST PUSH2 0x1076 SWAP2 SWAP1 PUSH2 0x1152 JUMP JUMPDEST SWAP5 SWAP4 POP POP POP POP JUMP JUMPDEST DUP1 CALLDATALOAD PUSH1 0x1 PUSH1 0x1 PUSH1 0xA0 SHL SUB DUP2 AND DUP2 EQ PUSH2 0x1095 JUMPI PUSH1 0x0 DUP1 REVERT JUMPDEST SWAP2 SWAP1 POP JUMP JUMPDEST PUSH1 0x0 PUSH1 0x20 DUP3 DUP5 SUB SLT ISZERO PUSH2 0x10AC JUMPI PUSH1 0x0 DUP1 REVERT JUMPDEST PUSH2 0x10B5 DUP3 PUSH2 0x107E JUMP JUMPDEST SWAP4 SWAP3 POP POP POP JUMP JUMPDEST PUSH1 0x0 DUP1 PUSH1 0x40 DUP4 DUP6 SUB SLT ISZERO PUSH2 0x10CF JUMPI PUSH1 0x0 DUP1 REVERT JUMPDEST PUSH2 0x10D8 DUP4 PUSH2 0x107E JUMP JUMPDEST SWAP5 PUSH1 0x20 SWAP4 SWAP1 SWAP4 ADD CALLDATALOAD SWAP4 POP POP POP JUMP JUMPDEST PUSH1 0x0 PUSH1 0x20 DUP3 DUP5 SUB SLT ISZERO PUSH2 0x10F8 JUMPI PUSH1 0x0 DUP1 REVERT JUMPDEST DUP2 MLOAD DUP1 ISZERO ISZERO DUP2 EQ PUSH2 0x10B5 JUMPI PUSH1 0x0 DUP1 REVERT JUMPDEST PUSH1 0x0 PUSH1 0x20 DUP3 DUP5 SUB SLT ISZERO PUSH2 0x111A JUMPI PUSH1 0x0 DUP1 REVERT JUMPDEST POP CALLDATALOAD SWAP2 SWAP1 POP JUMP JUMPDEST PUSH1 0x0 PUSH1 0x20 DUP3 DUP5 SUB SLT ISZERO PUSH2 0x1133 JUMPI PUSH1 0x0 DUP1 REVERT JUMPDEST POP MLOAD SWAP2 SWAP1 POP JUMP JUMPDEST PUSH1 0x0 DUP3 NOT DUP3 GT ISZERO PUSH2 0x114D JUMPI PUSH2 0x114D PUSH2 0x11AA JUMP JUMPDEST POP ADD SWAP1 JUMP JUMPDEST PUSH1 0x0 DUP3 PUSH2 0x116F JUMPI PUSH4 0x4E487B71 PUSH1 0xE0 SHL PUSH1 0x0 MSTORE PUSH1 0x12 PUSH1 0x4 MSTORE PUSH1 0x24 PUSH1 0x0 REVERT JUMPDEST POP DIV SWAP1 JUMP JUMPDEST PUSH1 0x0 DUP2 PUSH1 0x0 NOT DIV DUP4 GT DUP3 ISZERO ISZERO AND ISZERO PUSH2 0x118E JUMPI PUSH2 0x118E PUSH2 0x11AA JUMP JUMPDEST POP MUL SWAP1 JUMP JUMPDEST PUSH1 0x0 DUP3 DUP3 LT ISZERO PUSH2 0x11A5 JUMPI PUSH2 0x11A5 PUSH2 0x11AA JUMP JUMPDEST POP SUB SWAP1 JUMP JUMPDEST PUSH4 0x4E487B71 PUSH1 0xE0 SHL PUSH1 0x0 MSTORE PUSH1 0x11 PUSH1 0x4 MSTORE PUSH1 0x24 PUSH1 0x0 REVERT INVALID LOG2 PUSH5 0x6970667358 0x22 SLT KECCAK256 PUSH10 0x20CEE972A40F0CFC9FD6 PUSH8 0x72E259832CEEFCCB ADDMOD RETURNDATASIZE DUP13 PUSH32 0xDF59D929EB5C43C464736F6C6343000807003300000000000000000000000000 "
				},
				"gasEstimates": {
					"creation": {
						"codeDepositCost": "919600",
						"executionCost": "25190",
						"totalCost": "944790"
					},
					"external": {
						"deposit()": "infinite",
						"distributeFee()": "infinite",
						"ercToEth(uint256)": "infinite",
						"ethToErc()": "infinite",
						"eth_received()": "2395",
						"fee()": "2350",
						"finish()": "infinite",
						"getBalance()": "196",
						"getTokenBalance()": "infinite",
						"initialize(address,uint256)": "infinite",
						"invested(address)": "2571",
						"investors(address)": "2597",
						"liq_added()": "2395",
						"liquidity(address)": "2553",
						"liquidityAdded(uint256)": "infinite",
						"liquiditySubstracted(uint256)": "infinite",
						"priceERC(uint256)": "infinite",
						"priceETH(uint256)": "infinite",
						"tokens_received()": "2329",
						"total_liquidity()": "2396",
						"withdraw(uint256)": "infinite"
					},
					"internal": {
						"calculatePrice(uint256,uint256,uint256)": "248"
					}
				},
				"methodIdentifiers": {
					"deposit()": "d0e30db0",
					"distributeFee()": "26c4e60d",
					"ercToEth(uint256)": "debc674c",
					"ethToErc()": "7937c03d",
					"eth_received()": "8666107c",
					"fee()": "ddca3f43",
					"finish()": "d56b2889",
					"getBalance()": "12065fe0",
					"getTokenBalance()": "82b2e257",
					"initialize(address,uint256)": "cd6dc687",
					"invested(address)": "66b3f6bf",
					"investors(address)": "6f7bc9be",
					"liq_added()": "707e7e87",
					"liquidity(address)": "b8c876b1",
					"liquidityAdded(uint256)": "5f244d4e",
					"liquiditySubstracted(uint256)": "1eb928aa",
					"priceERC(uint256)": "72a9d124",
					"priceETH(uint256)": "67da263d",
					"tokens_received()": "74942c0f",
					"total_liquidity()": "31f3bd28",
					"withdraw(uint256)": "2e1a7d4d"
				}
			},
			"storageLayout": {
				"storage": [
					{
						"astId": 716,
						"contract": "contracts/AMM.sol:DEX",
						"label": "tokenERC",
						"offset": 0,
						"slot": "0",
						"type": "t_contract(IERC20)663"
					},
					{
						"astId": 718,
						"contract": "contracts/AMM.sol:DEX",
						"label": "total_liquidity",
						"offset": 0,
						"slot": "1",
						"type": "t_uint256"
					},
					{
						"astId": 720,
						"contract": "contracts/AMM.sol:DEX",
						"label": "deployer",
						"offset": 0,
						"slot": "2",
						"type": "t_address"
					},
					{
						"astId": 722,
						"contract": "contracts/AMM.sol:DEX",
						"label": "fee",
						"offset": 0,
						"slot": "3",
						"type": "t_uint256"
					},
					{
						"astId": 726,
						"contract": "contracts/AMM.sol:DEX",
						"label": "investors",
						"offset": 0,
						"slot": "4",
						"type": "t_mapping(t_address,t_uint256)"
					},
					{
						"astId": 730,
						"contract": "contracts/AMM.sol:DEX",
						"label": "liquidity",
						"offset": 0,
						"slot": "5",
						"type": "t_mapping(t_address,t_uint256)"
					},
					{
						"astId": 754,
						"contract": "contracts/AMM.sol:DEX",
						"label": "tokens_received",
						"offset": 0,
						"slot": "6",
						"type": "t_uint256"
					},
					{
						"astId": 756,
						"contract": "contracts/AMM.sol:DEX",
						"label": "eth_received",
						"offset": 0,
						"slot": "7",
						"type": "t_uint256"
					},
					{
						"astId": 758,
						"contract": "contracts/AMM.sol:DEX",
						"label": "liq_added",
						"offset": 0,
						"slot": "8",
						"type": "t_uint256"
					}
				],
				"types": {
					"t_address": {
						"encoding": "inplace",
						"label": "address",
						"numberOfBytes": "20"
					},
					"t_contract(IERC20)663": {
						"encoding": "inplace",
						"label": "contract IERC20",
						"numberOfBytes": "20"
					},
					"t_mapping(t_address,t_uint256)": {
						"encoding": "mapping",
						"key": "t_address",
						"label": "mapping(address => uint256)",
						"numberOfBytes": "32",
						"value": "t_uint256"
					},
					"t_uint256": {
						"encoding": "inplace",
						"label": "uint256",
						"numberOfBytes": "32"
					}
				}
			},
			"userdoc": {
				"kind": "user",
				"methods": {},
				"version": 1
			}
		}
	}
}