{
	"data": {
		"bytecode": {
			"linkReferences": {},
			"object": "60806040523480156200001157600080fd5b50604051620000209062000105565b604051809103906000f0801580156200003d573d6000803e3d6000fd5b50600680546001600160a01b0319166001600160a01b03929092169190911790556040516200006c9062000113565b604051809103906000f08015801562000089573d6000803e3d6000fd5b50600080546001600160a01b0319166001600160a01b0392909216919091179055604051600f90620000bb9062000121565b908152602001604051809103906000f080158015620000de573d6000803e3d6000fd5b50600780546001600160a01b0319166001600160a01b03929092169190911790556200012f565b61111f806200569483390190565b610ba680620067b383390190565b610677806200735983390190565b615555806200013f6000396000f3fe6080604052600436106200020b5760003560e01c80637eebe5c21162000117578063d782d3c311620000a1578063e19752c8116200006c578063e19752c81462000561578063ec28d2d41462000579578063f600584a1462000591578063f61a224914620005a957600080fd5b8063d782d3c314620004f4578063d7a8f6aa1462000519578063d8dfeb451462000531578063de34a245146200054957600080fd5b8063b87265e711620000e2578063b87265e714620004a2578063bdbe0f6614620004ac578063bdffc3be14620004c4578063caf2cfab14620004dc57600080fd5b80637eebe5c2146200042f57806395805dad1462000451578063b41f73811462000468578063b6fccf8a146200048057600080fd5b80633fa4f245116200019957806359ccef72116200016457806359ccef7214620003b557806359ee2dfd14620003da5780635acb25dc14620003f25780635f646a83146200041757600080fd5b80633fa4f245146200033457806340c1b5dd146200034c578063417e4e6814620003645780634e504747146200038957600080fd5b80633239315311620001da5780633239315314620002b5578063324d9ebc14620002cd57806338109dcf14620002ed5780633f579431146200030f57600080fd5b806316c6a79214620002105780631ef3755d146200024f578063270d3bc0146200026957806331e788ff1462000290575b600080fd5b3480156200021d57600080fd5b5060075462000232906001600160a01b031681565b6040516001600160a01b0390911681526020015b60405180910390f35b3480156200025c57600080fd5b5062000267620005b3565b005b3480156200027657600080fd5b5062000281620007c3565b604051620002469190620020f8565b3480156200029d57600080fd5b5062000267620002af36600462001f39565b6200084b565b348015620002c257600080fd5b5062000267620009ec565b348015620002da57600080fd5b5032315b60405190815260200162000246565b348015620002fa57600080fd5b5060045462000232906001600160a01b031681565b3480156200031c57600080fd5b50620002676200032e36600462001ffa565b62000af1565b3480156200034157600080fd5b50620002de60015481565b3480156200035957600080fd5b506200028162000c16565b3480156200037157600080fd5b50620002de6200038336600462001ece565b62000c5b565b3480156200039657600080fd5b50620002de620003a836600462001ece565b6001600160a01b03163190565b348015620003c257600080fd5b5062000267620003d43660046200204c565b62000ce8565b348015620003e757600080fd5b506200026762000e99565b348015620003ff57600080fd5b5062000267620004113660046200204c565b620010a9565b3480156200042457600080fd5b50620002de620011ec565b3480156200043c57600080fd5b5060005462000232906001600160a01b031681565b62000267620004623660046200204c565b6200126d565b3480156200047557600080fd5b50620002de6200156c565b3480156200048d57600080fd5b5060065462000232906001600160a01b031681565b62000267620015b6565b348015620004b957600080fd5b50620002de620017ea565b348015620004d157600080fd5b506200026762001830565b348015620004e957600080fd5b50620002de60055481565b3480156200050157600080fd5b50620002676200051336600462001f39565b620018f0565b3480156200052657600080fd5b50620002de62001a76565b3480156200053e57600080fd5b50620002de60035481565b3480156200055657600080fd5b50620002de62001ac7565b3480156200056e57600080fd5b50620002de60025481565b3480156200058657600080fd5b50620002de62001b0d565b3480156200059e57600080fd5b506200026762001b52565b6200026762001c60565b60005460408051638da5cb5b60e01b8152905133926001600160a01b031691638da5cb5b916004808301926020929190829003018186803b158015620005f857600080fd5b505afa1580156200060d573d6000803e3d6000fd5b505050506040513d601f19601f8201168201806040525081019062000633919062001ef5565b6001600160a01b0316146200064757600080fd5b600660009054906101000a90046001600160a01b03166001600160a01b031663d56b28896040518163ffffffff1660e01b8152600401600060405180830381600087803b1580156200069857600080fd5b505af1158015620006ad573d6000803e3d6000fd5b50505050604051620006bf9062001e3a565b604051809103906000f080158015620006dc573d6000803e3d6000fd5b50600680546001600160a01b0319166001600160a01b03929092169190911790556040516200070b9062001e48565b604051809103906000f08015801562000728573d6000803e3d6000fd5b50600080546001600160a01b0319166001600160a01b0392909216919091179055604051600f906200075a9062001e56565b908152602001604051809103906000f0801580156200077d573d6000803e3d6000fd5b5060078054600060018190556002819055600381905560055575ffffffffffffffffffffffffffffffffffffffffffff19166001600160a01b0392909216919091179055565b6000805460408051624dead360e51b815290516060936001600160a01b03909316926309bd5a609260048082019391829003018186803b1580156200080757600080fd5b505afa1580156200081c573d6000803e3d6000fd5b505050506040513d6000823e601f3d908101601f1916820160405262000846919081019062001f7a565b905090565b60005460408051638da5cb5b60e01b8152905133926001600160a01b031691638da5cb5b916004808301926020929190829003018186803b1580156200089057600080fd5b505afa158015620008a5573d6000803e3d6000fd5b505050506040513d601f19601f82011682018060405250810190620008cb919062001ef5565b6001600160a01b031614620008df57600080fd5b60005460405163468aeb3b60e11b81526001600160a01b0390911690638d15d6769062000911908490600401620020f8565b600060405180830381600087803b1580156200092c57600080fd5b505af115801562000941573d6000803e3d6000fd5b50506007805460ff60a01b1916600160a01b90811791829055900460ff169150508015620009785750600754600160a81b900460ff165b15620009e957600760009054906101000a90046001600160a01b03166001600160a01b03166384c6e2c86040518163ffffffff1660e01b8152600401600060405180830381600087803b158015620009cf57600080fd5b505af1158015620009e4573d6000803e3d6000fd5b505050505b50565b6007546006546040516366b3f6bf60e01b815232600482015262000aef926001600160a01b039081169263131e2f18929116906366b3f6bf9060240160206040518083038186803b15801562000a4157600080fd5b505afa15801562000a56573d6000803e3d6000fd5b505050506040513d601f19601f8201168201806040525081019062000a7c919062002066565b6040518263ffffffff1660e01b815260040162000a9b91815260200190565b60206040518083038186803b15801562000ab457600080fd5b505afa15801562000ac9573d6000803e3d6000fd5b505050506040513d601f19601f82011682018060405250810190620003d4919062002066565b565b600182905562000b018162001d91565b6002556000546040516236b61160e41b81526001600160a01b039091169063036b61109062000b35908690600401620020f8565b600060405180830381600087803b15801562000b5057600080fd5b505af115801562000b65573d6000803e3d6000fd5b50506000546040516313af403560e01b81523360048201526001600160a01b0390911692506313af40359150602401600060405180830381600087803b15801562000baf57600080fd5b505af115801562000bc4573d6000803e3d6000fd5b50505050336001600160a01b03167f66c0e157fdff18242032cbe1aa0b731eb49ff6e593bccbf1fded370364610c19848460025460405162000c09939291906200210d565b60405180910390a2505050565b6000805460408051630711a57d60e21b815290516060936001600160a01b0390931692631c4695f49260048082019391829003018186803b1580156200080757600080fd5b600480546040516370a0823160e01b81526001600160a01b0384811693820193909352600092909116906370a082319060240160206040518083038186803b15801562000ca757600080fd5b505afa15801562000cbc573d6000803e3d6000fd5b505050506040513d601f19601f8201168201806040525081019062000ce2919062002066565b92915050565b600654604051632e1a7d4d60e01b8152600481018390526001600160a01b0390911690632e1a7d4d90602401600060405180830381600087803b15801562000d2f57600080fd5b505af115801562000d44573d6000803e3d6000fd5b505050507f6a12f6dac03652b58a50bbf88d534acc4fe08e3d534d2e08dde9e43c4adbcb3f600660009054906101000a90046001600160a01b03166001600160a01b0316638666107c6040518163ffffffff1660e01b815260040160206040518083038186803b15801562000db857600080fd5b505afa15801562000dcd573d6000803e3d6000fd5b505050506040513d601f19601f8201168201806040525081019062000df3919062002066565b600660009054906101000a90046001600160a01b03166001600160a01b03166374942c0f6040518163ffffffff1660e01b815260040160206040518083038186803b15801562000e4257600080fd5b505afa15801562000e57573d6000803e3d6000fd5b505050506040513d601f19601f8201168201806040525081019062000e7d919062002066565b604080519283526020830191909152015b60405180910390a150565b6000805460408051630d203ecd60e31b815290516001600160a01b0390921692636901f6689260048084019382900301818387803b15801562000edb57600080fd5b505af115801562000ef0573d6000803e3d6000fd5b5050505060008054906101000a90046001600160a01b03166001600160a01b031663ac7fdd396040518163ffffffff1660e01b815260040160206040518083038186803b15801562000f4157600080fd5b505afa15801562000f56573d6000803e3d6000fd5b505050506040513d601f19601f8201168201806040525081019062000f7c919062001f15565b1562000fed57600760009054906101000a90046001600160a01b03166001600160a01b031663effc1fe06040518163ffffffff1660e01b8152600401600060405180830381600087803b15801562000fd357600080fd5b505af115801562000fe8573d6000803e3d6000fd5b505050505b600080546040805163145264ab60e31b8152905133937fd745e77520d6aab6ac2e6c9e597b7a9d8f8bf270ffa7234028791f24c594cafc936001600160a01b03169263a29325589260048083019392829003018186803b1580156200105157600080fd5b505afa15801562001066573d6000803e3d6000fd5b505050506040513d6000823e601f3d908101601f1916820160405262001090919081019062001f7a565b6040516200109f9190620020f8565b60405180910390a2565b6004805460065460405163e1f21c6760e01b815232938101939093526001600160a01b03908116602484015260448301849052169063e1f21c6790606401600060405180830381600087803b1580156200110257600080fd5b505af115801562001117573d6000803e3d6000fd5b50506006546040516337af19d360e21b8152600481018590526001600160a01b03909116925063debc674c9150602401600060405180830381600087803b1580156200116257600080fd5b505af115801562001177573d6000803e3d6000fd5b505050507ff3da8edf69f7653a76e82879ae64fe7833d633c94e285ad53aa241a27e63b86781600660009054906101000a90046001600160a01b03166001600160a01b0316638666107c6040518163ffffffff1660e01b815260040160206040518083038186803b15801562000e4257600080fd5b600654604080516382b2e25760e01b815290516000926001600160a01b0316916382b2e257916004808301926020929190829003018186803b1580156200123257600080fd5b505afa15801562001247573d6000803e3d6000fd5b505050506040513d601f19601f8201168201806040525081019062000846919062002066565b346003556040518190620012819062001e64565b908152602001604051809103906000f080158015620012a4573d6000803e3d6000fd5b50600480546001600160a01b0319166001600160a01b039290921691821781556040805163313ce56760e01b815290516000939263313ce56792808201926020929091829003018186803b158015620012fc57600080fd5b505afa15801562001311573d6000803e3d6000fd5b505050506040513d601f19601f82011682018060405250810190620013379190620020a5565b620013479060ff16600a620021f7565b620013539083620022b3565b600581905560048054600654604080516318160ddd60e01b815290519495506001600160a01b039283169463e1f21c679432949093169286926318160ddd9281830192602092829003018186803b158015620013ae57600080fd5b505afa158015620013c3573d6000803e3d6000fd5b505050506040513d601f19601f82011682018060405250810190620013e9919062002066565b6040516001600160e01b031960e086901b1681526001600160a01b0393841660048201529290911660248301526044820152606401600060405180830381600087803b1580156200143957600080fd5b505af11580156200144e573d6000803e3d6000fd5b50506006546004805460405163cd6dc68760e01b81526001600160a01b039182169281019290925260248201869052909116925063cd6dc687915034906044016000604051808303818588803b158015620014a857600080fd5b505af1158015620014bd573d6000803e3d6000fd5b5050600754600154600354604051639f8af9dd60e01b8152600481019290925260248201526001600160a01b039091169350639f8af9dd92506044019050600060405180830381600087803b1580156200151657600080fd5b505af11580156200152b573d6000803e3d6000fd5b5050604080518481523460208201527ff0498cb22b56641ed33901df52ba1ca98815bf7428aaf69cb0a27c0f94cacc0d935001905060405180910390a15050565b600480546040516370a0823160e01b815232928101929092526000916001600160a01b03909116906370a082319060240160206040518083038186803b1580156200123257600080fd5b6000620015c33462001dae565b9050620015cf6200156c565b811115620016365760048054604051634a7dd52360e01b81529182018390526001600160a01b031690634a7dd52390602401600060405180830381600087803b1580156200161c57600080fd5b505af115801562001631573d6000803e3d6000fd5b505050505b6004546006546001600160a01b039182169163e1f21c67913291166200165c3462001dae565b6040516001600160e01b031960e086901b1681526001600160a01b0393841660048201529290911660248301526044820152606401600060405180830381600087803b158015620016ac57600080fd5b505af1158015620016c1573d6000803e3d6000fd5b50505050600660009054906101000a90046001600160a01b03166001600160a01b031663d0e30db0346040518263ffffffff1660e01b81526004016000604051808303818588803b1580156200171657600080fd5b505af11580156200172b573d6000803e3d6000fd5b50505050507f62b16c68815e64e71e004ad1900bfeefa3a6eb2fec66b573210155de12fd5e7b600660009054906101000a90046001600160a01b03166001600160a01b031663707e7e876040518163ffffffff1660e01b815260040160206040518083038186803b158015620017a057600080fd5b505afa158015620017b5573d6000803e3d6000fd5b505050506040513d601f19601f82011682018060405250810190620017db919062002066565b60405190815260200162000e8e565b60075460408051631627391760e11b815290516000926001600160a01b031691632c4e722e916004808301926020929190829003018186803b1580156200123257600080fd5b6000805460408051635836e0b560e01b815290516001600160a01b0390921692635836e0b59260048084019382900301818387803b1580156200187257600080fd5b505af115801562001887573d6000803e3d6000fd5b5050600080546040805163145264ab60e31b815290513395507f7832ed08fa8e9bf7d3ffa10fb5bcdb96f474be17f79b657bb7f23facb23a898b94506001600160a01b039092169263a293255892600480840193829003018186803b1580156200105157600080fd5b60005460408051638da5cb5b60e01b8152905133926001600160a01b031691638da5cb5b916004808301926020929190829003018186803b1580156200193557600080fd5b505afa1580156200194a573d6000803e3d6000fd5b505050506040513d601f19601f8201168201806040525081019062001970919062001ef5565b6001600160a01b0316146200198457600080fd5b600054604051631d846c6560e01b81526001600160a01b0390911690631d846c6590620019b6908490600401620020f8565b600060405180830381600087803b158015620019d157600080fd5b505af1158015620019e6573d6000803e3d6000fd5b50506007805460ff60a81b1916600160a81b1790819055600160a01b900460ff169150508015620009785750600754600160a81b900460ff1615620009e957600760009054906101000a90046001600160a01b03166001600160a01b03166384c6e2c86040518163ffffffff1660e01b8152600401600060405180830381600087803b158015620009cf57600080fd5b6000600460009054906101000a90046001600160a01b03166001600160a01b03166318160ddd6040518163ffffffff1660e01b815260040160206040518083038186803b1580156200123257600080fd5b6006546040805163063e77a560e31b815290516000926001600160a01b0316916331f3bd28916004808301926020929190829003018186803b1580156200123257600080fd5b60065460408051629032ff60e51b815290516000926001600160a01b0316916312065fe0916004808301926020929190829003018186803b1580156200123257600080fd5b600654604080516382b2e25760e01b815290516000926001600160a01b0316916382b2e257916004808301926020929190829003018186803b15801562001b9857600080fd5b505afa15801562001bad573d6000803e3d6000fd5b505050506040513d601f19601f8201168201806040525081019062001bd3919062002066565b60055462001be29190620022d5565b905062001bee6200156c565b81111562001c555760048054604051634a7dd52360e01b81529182018390526001600160a01b031690634a7dd52390602401600060405180830381600087803b15801562001c3b57600080fd5b505af115801562001c50573d6000803e3d6000fd5b505050505b620009e981620010a9565b600660009054906101000a90046001600160a01b03166001600160a01b0316637937c03d346040518263ffffffff1660e01b81526004016000604051808303818588803b15801562001cb157600080fd5b505af115801562001cc6573d6000803e3d6000fd5b50505050507f3647e5ca8fe544bafdf71b27b82e0206b70e6fda46bda02cbacd87b72363c82b34600660009054906101000a90046001600160a01b03166001600160a01b03166374942c0f6040518163ffffffff1660e01b815260040160206040518083038186803b15801562001d3c57600080fd5b505afa15801562001d51573d6000803e3d6000fd5b505050506040513d601f19601f8201168201806040525081019062001d77919062002066565b6040805192835260208301919091520160405180910390a1565b600062001da28262015180620022b3565b62000ce2904262002193565b600654604051632f9226a760e11b81526004810183905260009182916001600160a01b0390911690635f244d4e90602401604080518083038186803b15801562001df757600080fd5b505afa15801562001e0c573d6000803e3d6000fd5b505050506040513d601f19601f8201168201806040525081019062001e32919062002080565b509392505050565b61111f806200236583390190565b610ba6806200348483390190565b610677806200402a83390190565b610e7f80620046a183390190565b600082601f83011262001e8457600080fd5b813562001e9b62001e958262002168565b62002134565b81815284602083860101111562001eb157600080fd5b816020850160208301376000918101602001919091529392505050565b60006020828403121562001ee157600080fd5b813562001eee816200234e565b9392505050565b60006020828403121562001f0857600080fd5b815162001eee816200234e565b60006020828403121562001f2857600080fd5b8151801515811462001eee57600080fd5b60006020828403121562001f4c57600080fd5b813567ffffffffffffffff81111562001f6457600080fd5b62001f728482850162001e72565b949350505050565b60006020828403121562001f8d57600080fd5b815167ffffffffffffffff81111562001fa557600080fd5b8201601f8101841362001fb757600080fd5b805162001fc862001e958262002168565b81815285602083850101111562001fde57600080fd5b62001ff1826020830160208601620022ef565b95945050505050565b6000806000606084860312156200201057600080fd5b833567ffffffffffffffff8111156200202857600080fd5b620020368682870162001e72565b9660208601359650604090950135949350505050565b6000602082840312156200205f57600080fd5b5035919050565b6000602082840312156200207957600080fd5b5051919050565b600080604083850312156200209457600080fd5b505080516020909101519092909150565b600060208284031215620020b857600080fd5b815160ff8116811462001eee57600080fd5b60008151808452620020e4816020860160208601620022ef565b601f01601f19169290920160200192915050565b60208152600062001eee6020830184620020ca565b606081526000620021226060830186620020ca565b60208301949094525060400152919050565b604051601f8201601f1916810167ffffffffffffffff8111828210171562002160576200216062002338565b604052919050565b600067ffffffffffffffff82111562002185576200218562002338565b50601f01601f191660200190565b60008219821115620021a957620021a962002322565b500190565b600181815b80851115620021ef578160001904821115620021d357620021d362002322565b80851615620021e157918102915b93841c9390800290620021b3565b509250929050565b600062001eee8383600082620022105750600162000ce2565b816200221f5750600062000ce2565b8160018114620022385760028114620022435762002263565b600191505062000ce2565b60ff84111562002257576200225762002322565b50506001821b62000ce2565b5060208310610133831016604e8410600b841016171562002288575081810a62000ce2565b620022948383620021ae565b8060001904821115620022ab57620022ab62002322565b029392505050565b6000816000190483118215151615620022d057620022d062002322565b500290565b600082821015620022ea57620022ea62002322565b500390565b60005b838110156200230c578181015183820152602001620022f2565b838111156200231c576000848401525b50505050565b634e487b7160e01b600052601160045260246000fd5b634e487b7160e01b600052604160045260246000fd5b6001600160a01b0381168114620009e957600080fdfe608060405234801561001057600080fd5b50600280546001600160a01b031916321790556110ed806100326000396000f3fe60806040526004361061013a5760003560e01c806372a9d124116100bb578063b8c876b11161007f578063d56b288911610059578063d56b28891461034d578063ddca3f4314610360578063debc674c1461037657600080fd5b8063b8c876b114610305578063cd6dc68714610332578063d0e30db01461034557600080fd5b806372a9d1241461029c57806374942c0f146102bc5780637937c03d146102d257806382b2e257146102da5780638666107c146102ef57600080fd5b80635f244d4e116101025780635f244d4e146101e357806366b3f6bf1461020357806367da263d146102395780636f7bc9be14610259578063707e7e871461028657600080fd5b806312065fe01461013f5780631eb928aa1461016157806326c4e60d146101965780632e1a7d4d146101ad57806331f3bd28146101cd575b600080fd5b34801561014b57600080fd5b50475b6040519081526020015b60405180910390f35b34801561016d57600080fd5b5061018161017c366004610fff565b610396565b60408051928352602083019190915201610158565b3480156101a257600080fd5b506101ab610458565b005b3480156101b957600080fd5b506101ab6101c8366004610fff565b61050d565b3480156101d957600080fd5b5061014e60015481565b3480156101ef57600080fd5b506101816101fe366004610fff565b610736565b34801561020f57600080fd5b5061014e61021e366004610f91565b6001600160a01b031660009081526004602052604090205490565b34801561024557600080fd5b5061014e610254366004610fff565b6107dd565b34801561026557600080fd5b5061014e610274366004610f91565b60046020526000908152604090205481565b34801561029257600080fd5b5061014e60085481565b3480156102a857600080fd5b5061014e6102b7366004610fff565b61086c565b3480156102c857600080fd5b5061014e60065481565b6101ab6108fc565b3480156102e657600080fd5b5061014e610a10565b3480156102fb57600080fd5b5061014e60075481565b34801561031157600080fd5b5061014e610320366004610f91565b60056020526000908152604090205481565b6101ab610340366004610fb3565b610a91565b6101ab610bc9565b34801561035957600080fd5b506101ab32ff5b34801561036c57600080fd5b5061014e60035481565b34801561038257600080fd5b506101ab610391366004610fff565b610da4565b600080600060015447856103aa919061106b565b6103b49190611049565b600154600080546040516370a0823160e01b815230600482015293945090926001600160a01b03909116906370a082319060240160206040518083038186803b15801561040057600080fd5b505afa158015610414573d6000803e3d6000fd5b505050506040513d601f19601f820116820180604052508101906104389190611018565b610442908761106b565b61044c9190611049565b91959194509092505050565b60006103e8600354600361046c919061106b565b6104769190611049565b604051909150600090329083908381818185875af1925050503d80600081146104bb576040519150601f19603f3d011682016040523d82523d6000602084013e6104c0565b606091505b50509050806105095760405162461bcd60e51b815260206004820152601060248201526f2a3930b739b332b9103330b4b632b21760811b60448201526064015b60405180910390fd5b5050565b60015460009061051d478461106b565b6105279190611049565b600154600080546040516370a0823160e01b815230600482015293945090926001600160a01b03909116906370a082319060240160206040518083038186803b15801561057357600080fd5b505afa158015610587573d6000803e3d6000fd5b505050506040513d601f19601f820116820180604052508101906105ab9190611018565b6105b5908561106b565b6105bf9190611049565b905081600160008282546105d3919061108a565b9091555050604051600090329084908381818185875af1925050503d806000811461061a576040519150601f19603f3d011682016040523d82523d6000602084013e61061f565b606091505b50509050806106635760405162461bcd60e51b815260206004820152601060248201526f2a3930b739b332b9103330b4b632b21760811b6044820152606401610500565b60005460405163a9059cbb60e01b8152326004820152602481018490526001600160a01b039091169063a9059cbb90604401602060405180830381600087803b1580156106af57600080fd5b505af11580156106c3573d6000803e3d6000fd5b505050506040513d601f19601f820116820180604052508101906106e79190610fdd565b6106f057600080fd5b60408051848152602081018490527f56ca301a9219608c91e7bcee90e083c19671d2cdcc96752c7af291cee5f9c8c8910160405180910390a15060079190915560065550565b600080546040516370a0823160e01b81523060048201528291829147916001600160a01b0316906370a082319060240160206040518083038186803b15801561077e57600080fd5b505afa158015610792573d6000803e3d6000fd5b505050506040513d601f19601f820116820180604052508101906107b69190611018565b6107c0908661106b565b6107ca9190611049565b905060004760015486610442919061106b565b600080546040516370a0823160e01b81523060048201526108669184916001600160a01b03909116906370a08231906024015b60206040518083038186803b15801561082857600080fd5b505afa15801561083c573d6000803e3d6000fd5b505050506040513d601f19601f820116820180604052508101906108609190611018565b47610f4d565b92915050565b60006108668261087c814761108a565b6000546040516370a0823160e01b81523060048201526001600160a01b03909116906370a082319060240160206040518083038186803b1580156108bf57600080fd5b505afa1580156108d3573d6000803e3d6000fd5b505050506040513d601f19601f820116820180604052508101906108f79190611018565b610f4d565b600061090c3461087c814761108a565b60005460405163a9059cbb60e01b8152326004820152602481018390529192506001600160a01b03169063a9059cbb90604401602060405180830381600087803b15801561095957600080fd5b505af115801561096d573d6000803e3d6000fd5b505050506040513d601f19601f820116820180604052508101906109919190610fdd565b61099a57600080fd5b34600360008282546109ac9190611031565b909155505032600090815260046020526040812080543492906109d0908490611031565b909155505060068190556040518181527fdb04c7a6d4758fd55d738ebc67e7f3010ac922be00771ef29521a4090d1eb13f9060200160405180910390a150565b600080546040516370a0823160e01b81523060048201526001600160a01b03909116906370a082319060240160206040518083038186803b158015610a5457600080fd5b505afa158015610a68573d6000803e3d6000fd5b505050506040513d601f19601f82011682018060405250810190610a8c9190611018565b905090565b60015415610a9e57600080fd5b60008111610aab57600080fd5b60003411610ab857600080fd5b60006003819055805473ffffffffffffffffffffffffffffffffffffffff19166001600160a01b03848116919091178255476001819055328084526005602052604080852092909255925490516323b872dd60e01b815260048101939093523060248401526044830184905216906323b872dd90606401602060405180830381600087803b158015610b4957600080fd5b505af1158015610b5d573d6000803e3d6000fd5b505050506040513d601f19601f82011682018060405250810190610b819190610fdd565b610b8a57600080fd5b7fc43e48cf47e9fa186d0f4096c61d1fcb54159799f935a2aa32e5589688ee36e1600154604051610bbd91815260200190565b60405180910390a15050565b60003411610bd657600080fd5b6000610be2344761108a565b6000546040516370a0823160e01b81523060048201526001600160a01b03909116906370a082319060240160206040518083038186803b158015610c2557600080fd5b505afa158015610c39573d6000803e3d6000fd5b505050506040513d601f19601f82011682018060405250810190610c5d9190611018565b610c67903461106b565b610c719190611049565b90506000610c7f344761108a565b600154610c8c903461106b565b610c969190611049565b32600090815260056020526040812080549293508392909190610cba908490611031565b925050819055508060016000828254610cd39190611031565b90915550506000546040516323b872dd60e01b8152326004820152306024820152604481018490526001600160a01b03909116906323b872dd90606401602060405180830381600087803b158015610d2a57600080fd5b505af1158015610d3e573d6000803e3d6000fd5b505050506040513d601f19601f82011682018060405250810190610d629190610fdd565b610d6b57600080fd5b6040518181527f4d6ce1e535dbade1c23defba91e23b8f791ce5edc0cc320257a2b364e4e384269060200160405180910390a160085550565b600080546040516370a0823160e01b8152306004820152610ddb9184916001600160a01b03909116906370a0823190602401610810565b604051909150600090329083908381818185875af1925050503d8060008114610e20576040519150601f19603f3d011682016040523d82523d6000602084013e610e25565b606091505b5050905080610e695760405162461bcd60e51b815260206004820152601060248201526f2a3930b739b332b9103330b4b632b21760811b6044820152606401610500565b6000546040516323b872dd60e01b8152326004820152306024820152604481018590526001600160a01b03909116906323b872dd90606401602060405180830381600087803b158015610ebb57600080fd5b505af1158015610ecf573d6000803e3d6000fd5b505050506040513d601f19601f82011682018060405250810190610ef39190610fdd565b610efc57600080fd5b8160036000828254610f0e9190611031565b90915550506040518281527f4dbf3a71a7c7262f432c2cad7808225832255d07f7d8ab85117677c0b5c0a8509060200160405180910390a15060075550565b6000610f598484611031565b610f63838661106b565b610f6d9190611049565b949350505050565b80356001600160a01b0381168114610f8c57600080fd5b919050565b600060208284031215610fa357600080fd5b610fac82610f75565b9392505050565b60008060408385031215610fc657600080fd5b610fcf83610f75565b946020939093013593505050565b600060208284031215610fef57600080fd5b81518015158114610fac57600080fd5b60006020828403121561101157600080fd5b5035919050565b60006020828403121561102a57600080fd5b5051919050565b60008219821115611044576110446110a1565b500190565b60008261106657634e487b7160e01b600052601260045260246000fd5b500490565b6000816000190483118215151615611085576110856110a1565b500290565b60008282101561109c5761109c6110a1565b500390565b634e487b7160e01b600052601160045260246000fdfea264697066735822122064b535c959bb8023c571a7a3395e36d84d3a90bdb7a51a246e66d05b46727f4664736f6c63430008070033608060405234801561001057600080fd5b50610b86806100206000396000f3fe608060405234801561001057600080fd5b50600436106101475760003560e01c80635d8ab6e7116100c8578063a29325581161008c578063c437457511610066578063c4374575146102b6578063ea7a9b4e146102c9578063f7155345146102dc57600080fd5b8063a293255814610293578063ac7fdd391461029b578063b794cc2f146102a357600080fd5b80635d8ab6e71461024b5780636901f6681461025d5780638d15d676146102655780638da5cb5b14610278578063990ec12b1461028b57600080fd5b80631c4695f41161010f5780631c4695f4146101ea5780631d846c65146101f257806335aa2e44146102055780634e7f4d3c146102305780635836e0b51461024357600080fd5b8063036b61101461014c57806309bd5a6014610161578063123119cd1461017f57806313af4035146101875780631a2db8d2146101b7575b600080fd5b61015f61015a3660046108be565b6102ff565b005b610169610316565b6040516101769190610988565b60405180910390f35b6101696103a4565b61015f61019536600461088e565b600080546001600160a01b0319166001600160a01b0392909216919091179055565b6101da6101c536600461088e565b60086020526000908152604090205460ff1681565b6040519015158152602001610176565b6101696103b1565b61015f6102003660046108be565b6103be565b61021861021336600461096f565b6103d1565b6040516001600160a01b039091168152602001610176565b61015f61023e3660046108be565b6103fb565b61015f61040e565b6006545b604051908152602001610176565b61015f610595565b61015f6102733660046108be565b610711565b600054610218906001600160a01b031681565b60055461024f565b610169610724565b6101da610731565b6101da6102b136600461088e565b61076f565b6101da6102c436600461088e565b6107aa565b6102186102d736600461096f565b6107e5565b6101da6102ea36600461088e565b60076020526000908152604090205460ff1681565b80516103129060029060208401906107f5565b5050565b6003805461032390610aff565b80601f016020809104026020016040519081016040528092919081815260200182805461034f90610aff565b801561039c5780601f106103715761010080835404028352916020019161039c565b820191906000526020600020905b81548152906001019060200180831161037f57829003601f168201915b505050505081565b6001805461032390610aff565b6004805461032390610aff565b80516103129060039060208401906107f5565b600581815481106103e157600080fd5b6000918252602090912001546001600160a01b0316905081565b80516103129060019060208401906107f5565b6000546001600160a01b03163214156104795760405162461bcd60e51b815260206004820152602260248201527f4f776e65722063616e6e6f742064656e7920686973206f776e20646f63756d656044820152611b9d60f21b60648201526084015b60405180910390fd5b3260009081526008602052604090205460ff16156104ce5760405162461bcd60e51b81526020600482015260126024820152712932b832b0ba32b2103232b732b3b0ba37b960711b6044820152606401610470565b3260009081526007602052604090205460ff16156104fe5760405162461bcd60e51b815260040161047090610a85565b6006805460018181019092557ff652222313e28459528d920b65115c16c04f3efc82aaedc97be59f3f377c0d3f0180546001600160a01b0319163290811790915560008181526008602052604090819020805460ff191690931790925590517f9036bc06ad4a578f0132d89ba4adc07b9772275526730acc38d7e4b4c11872a39061058b906002906109dd565b60405180910390a2565b6000546001600160a01b03163214156105ff5760405162461bcd60e51b815260206004820152602660248201527f4f776e65722063616e6e6f742076616c696461746520686973206f776e20646f60448201526518dd5b595b9d60d21b6064820152608401610470565b3260009081526007602052604090205460ff16156106545760405162461bcd60e51b81526020600482015260126024820152712932b832b0ba32b2103b30b634b230ba37b960711b6044820152606401610470565b3260009081526008602052604090205460ff16156106845760405162461bcd60e51b815260040161047090610a85565b6005805460018181019092557f036b6384b5eca791c62761152d0c79bb0604c104a5fb6f4eb0703f3154bb3db00180546001600160a01b0319163290811790915560008181526007602052604090819020805460ff191690931790925590517f57d77eb32e87e8c65c7cec1df5b0e8a8d5c4eae1b40c7246e7668ed702dd247a9061058b906002906109dd565b80516103129060049060208401906107f5565b6002805461032390610aff565b600654600554600091908115801561074a575060058110155b80610768575081158015906107685750610765826005610ad2565b81115b9250505090565b600080546001600160a01b038381169116141561078b57600080fd5b506001600160a01b031660009081526008602052604090205460ff1690565b600080546001600160a01b03838116911614156107c657600080fd5b506001600160a01b031660009081526007602052604090205460ff1690565b600681815481106103e157600080fd5b82805461080190610aff565b90600052602060002090601f0160209004810192826108235760008555610869565b82601f1061083c57805160ff1916838001178555610869565b82800160010185558215610869579182015b8281111561086957825182559160200191906001019061084e565b50610875929150610879565b5090565b5b80821115610875576000815560010161087a565b6000602082840312156108a057600080fd5b81356001600160a01b03811681146108b757600080fd5b9392505050565b6000602082840312156108d057600080fd5b813567ffffffffffffffff808211156108e857600080fd5b818401915084601f8301126108fc57600080fd5b81358181111561090e5761090e610b3a565b604051601f8201601f19908116603f0116810190838211818310171561093657610936610b3a565b8160405282815287602084870101111561094f57600080fd5b826020860160208301376000928101602001929092525095945050505050565b60006020828403121561098157600080fd5b5035919050565b600060208083528351808285015260005b818110156109b557858101830151858201604001528201610999565b818111156109c7576000604083870101525b50601f01601f1916929092016040019392505050565b600060208083526000845481600182811c9150808316806109ff57607f831692505b858310811415610a1d57634e487b7160e01b85526022600452602485fd5b878601838152602001818015610a3a5760018114610a4b57610a76565b60ff19861682528782019650610a76565b60008b81526020902060005b86811015610a7057815484820152908501908901610a57565b83019750505b50949998505050505050505050565b6020808252602d908201527f596f752063616e6e6f742076616c696461746520616e642064656e792061742060408201526c7468652073616d652074696d6560981b606082015260800190565b6000816000190483118215151615610afa57634e487b7160e01b600052601160045260246000fd5b500290565b600181811c90821680610b1357607f821691505b60208210811415610b3457634e487b7160e01b600052602260045260246000fd5b50919050565b634e487b7160e01b600052604160045260246000fdfea26469706673582212204add26442037d3092df2ab78dfae865a61b4694ee08da4bc64f68ff29086de8f64736f6c634300080700336080604052671158e460913d000060035534801561001c57600080fd5b5060405161067738038061067783398101604081905261003b9161006b565b6012600181905561004d90600a6100c7565b610057908261017d565b600055506002805461ffff191690556101b2565b60006020828403121561007d57600080fd5b5051919050565b600181815b808511156100bf5781600019048211156100a5576100a561019c565b808516156100b257918102915b93841c9390800290610089565b509250929050565b60006100d383836100da565b9392505050565b6000826100e957506001610177565b816100f657506000610177565b816001811461010c576002811461011657610132565b6001915050610177565b60ff8411156101275761012761019c565b50506001821b610177565b5060208310610133831016604e8410600b8410161715610155575081810a610177565b61015f8383610084565b80600019048211156101735761017361019c565b0290505b92915050565b60008160001904831182151516156101975761019761019c565b500290565b634e487b7160e01b600052601160045260246000fd5b6104b6806101c16000396000f3fe608060405234801561001057600080fd5b50600436106100575760003560e01c8063131e2f181461005c5780632c4e722e1461008157806384c6e2c81461008a5780639f8af9dd14610094578063effc1fe0146100a7575b600080fd5b61006f61006a3660046102c8565b6100af565b60405190815260200160405180910390f35b61006f60005481565b6100926100f4565b005b6100926100a23660046102e1565b6100fe565b610092610280565b6000600154600a6100c09190610380565b6064600054846100d09190610434565b6100da919061031b565b6100e4919061031b565b6100ee9083610303565b92915050565b6100fc6102a8565b565b60025460ff16156101485760405162461bcd60e51b815260206004820152601060248201526f105b1c9958591e48195e1958dd5d195960821b604482015260640160405180910390fd5b6000600154600a6101599190610380565b6101639084610434565b90506000610171838361031b565b905080600354116101c4576003546101899082610453565b6000808282546101999190610303565b909155505060005468056bc75e2d6310000010156101bf5768056bc75e2d631000006000555b61026d565b6000600154600a6101d59190610380565b6101e0906002610434565b9050600085856003546101f39190610434565b6101fd919061031b565b905081811115610218576729a2241af62c000060005561024b565b60015461022690600a610380565b6102308284610453565b60005461023d9190610434565b610247919061031b565b6000555b6729a2241af62c0000600054101561026a576729a2241af62c00006000555b50505b50506002805460ff191660011790555050565b600254610100900460ff166100fc576102976102a8565b6002805461ff001916610100179055565b600860005460076102b99190610434565b6102c3919061031b565b600055565b6000602082840312156102da57600080fd5b5035919050565b600080604083850312156102f457600080fd5b50508035926020909101359150565b600082198211156103165761031661046a565b500190565b60008261033857634e487b7160e01b600052601260045260246000fd5b500490565b600181815b8085111561037857816000190482111561035e5761035e61046a565b8085161561036b57918102915b93841c9390800290610342565b509250929050565b600061038c8383610393565b9392505050565b6000826103a2575060016100ee565b816103af575060006100ee565b81600181146103c557600281146103cf576103eb565b60019150506100ee565b60ff8411156103e0576103e061046a565b50506001821b6100ee565b5060208310610133831016604e8410600b841016171561040e575081810a6100ee565b610418838361033d565b806000190482111561042c5761042c61046a565b029392505050565b600081600019048311821515161561044e5761044e61046a565b500290565b6000828210156104655761046561046a565b500390565b634e487b7160e01b600052601160045260246000fdfea26469706673582212204fb739b1b4e219e14236fffc3953160e53b2e310c5833fb2dbb87a2077c502bb64736f6c6343000807003360806040523480156200001157600080fd5b5060405162000e7f38038062000e7f833981016040819052620000349162000270565b60405180604001604052806005815260200164546f6b666160d81b8152506040518060400160405280600381526020016254464160e81b815250816003908051906020019062000086929190620001ca565b5080516200009c906004906020840190620001ca565b505050620000d632620000b4620000dd60201b60201c565b620000c49060ff16600a620002ee565b620000d09084620003b9565b620000e2565b506200042e565b601290565b6001600160a01b0382166200013d5760405162461bcd60e51b815260206004820152601f60248201527f45524332303a206d696e7420746f20746865207a65726f206164647265737300604482015260640160405180910390fd5b80600260008282546200015191906200028a565b90915550506001600160a01b03821660009081526020819052604081208054839290620001809084906200028a565b90915550506040518181526001600160a01b038316906000907fddf252ad1be2c89b69c2b068fc378daa952ba7f163c4a11628f55a4df523b3ef9060200160405180910390a35050565b828054620001d890620003db565b90600052602060002090601f016020900481019282620001fc576000855562000247565b82601f106200021757805160ff191683800117855562000247565b8280016001018555821562000247579182015b82811115620002475782518255916020019190600101906200022a565b506200025592915062000259565b5090565b5b808211156200025557600081556001016200025a565b6000602082840312156200028357600080fd5b5051919050565b60008219821115620002a057620002a062000418565b500190565b600181815b80851115620002e6578160001904821115620002ca57620002ca62000418565b80851615620002d857918102915b93841c9390800290620002aa565b509250929050565b6000620002fc838362000303565b9392505050565b6000826200031457506001620003b3565b816200032357506000620003b3565b81600181146200033c5760028114620003475762000367565b6001915050620003b3565b60ff8411156200035b576200035b62000418565b50506001821b620003b3565b5060208310610133831016604e8410600b84101617156200038c575081810a620003b3565b620003988383620002a5565b8060001904821115620003af57620003af62000418565b0290505b92915050565b6000816000190483118215151615620003d657620003d662000418565b500290565b600181811c90821680620003f057607f821691505b602082108114156200041257634e487b7160e01b600052602260045260246000fd5b50919050565b634e487b7160e01b600052601160045260246000fd5b610a41806200043e6000396000f3fe608060405234801561001057600080fd5b50600436106100df5760003560e01c80634a7dd5231161008c578063a457c2d711610066578063a457c2d7146101b2578063a9059cbb146101c5578063dd62ed3e146101d8578063e1f21c671461021157600080fd5b80634a7dd5231461016c57806370a082311461018157806395d89b41146101aa57600080fd5b806323b872dd116100bd57806323b872dd14610137578063313ce5671461014a578063395093511461015957600080fd5b806306fdde03146100e4578063095ea7b31461010257806318160ddd14610125575b600080fd5b6100ec610224565b6040516100f99190610955565b60405180910390f35b610115610110366004610912565b6102b6565b60405190151581526020016100f9565b6002545b6040519081526020016100f9565b6101156101453660046108d6565b6102ce565b604051601281526020016100f9565b610115610167366004610912565b6102f2565b61017f61017a36600461093c565b610331565b005b61012961018f366004610881565b6001600160a01b031660009081526020819052604090205490565b6100ec61033e565b6101156101c0366004610912565b61034d565b6101156101d3366004610912565b6103e4565b6101296101e63660046108a3565b6001600160a01b03918216600090815260016020908152604080832093909416825291909152205490565b61017f61021f3660046108d6565b6103f2565b606060038054610233906109d0565b80601f016020809104026020016040519081016040528092919081815260200182805461025f906109d0565b80156102ac5780601f10610281576101008083540402835291602001916102ac565b820191906000526020600020905b81548152906001019060200180831161028f57829003601f168201915b5050505050905090565b6000336102c4818585610402565b5060019392505050565b6000336102dc858285610526565b6102e78585856105b8565b506001949350505050565b3360008181526001602090815260408083206001600160a01b03871684529091528120549091906102c4908290869061032c9087906109aa565b610402565b61033b3282610786565b50565b606060048054610233906109d0565b3360008181526001602090815260408083206001600160a01b0387168452909152812054909190838110156103d75760405162461bcd60e51b815260206004820152602560248201527f45524332303a2064656372656173656420616c6c6f77616e63652062656c6f77604482015264207a65726f60d81b60648201526084015b60405180910390fd5b6102e78286868403610402565b6000336102c48185856105b8565b6103fd838383610402565b505050565b6001600160a01b0383166104645760405162461bcd60e51b8152602060048201526024808201527f45524332303a20617070726f76652066726f6d20746865207a65726f206164646044820152637265737360e01b60648201526084016103ce565b6001600160a01b0382166104c55760405162461bcd60e51b815260206004820152602260248201527f45524332303a20617070726f766520746f20746865207a65726f206164647265604482015261737360f01b60648201526084016103ce565b6001600160a01b0383811660008181526001602090815260408083209487168084529482529182902085905590518481527f8c5be1e5ebec7d5bd14f71427d1e84f3dd0314c0f7b2291e5b200ac8c7c3b925910160405180910390a3505050565b6001600160a01b0383811660009081526001602090815260408083209386168352929052205460001981146105b257818110156105a55760405162461bcd60e51b815260206004820152601d60248201527f45524332303a20696e73756666696369656e7420616c6c6f77616e636500000060448201526064016103ce565b6105b28484848403610402565b50505050565b6001600160a01b03831661061c5760405162461bcd60e51b815260206004820152602560248201527f45524332303a207472616e736665722066726f6d20746865207a65726f206164604482015264647265737360d81b60648201526084016103ce565b6001600160a01b03821661067e5760405162461bcd60e51b815260206004820152602360248201527f45524332303a207472616e7366657220746f20746865207a65726f206164647260448201526265737360e81b60648201526084016103ce565b6001600160a01b038316600090815260208190526040902054818110156106f65760405162461bcd60e51b815260206004820152602660248201527f45524332303a207472616e7366657220616d6f756e7420657863656564732062604482015265616c616e636560d01b60648201526084016103ce565b6001600160a01b0380851660009081526020819052604080822085850390559185168152908120805484929061072d9084906109aa565b92505081905550826001600160a01b0316846001600160a01b03167fddf252ad1be2c89b69c2b068fc378daa952ba7f163c4a11628f55a4df523b3ef8460405161077991815260200190565b60405180910390a36105b2565b6001600160a01b0382166107dc5760405162461bcd60e51b815260206004820152601f60248201527f45524332303a206d696e7420746f20746865207a65726f20616464726573730060448201526064016103ce565b80600260008282546107ee91906109aa565b90915550506001600160a01b0382166000908152602081905260408120805483929061081b9084906109aa565b90915550506040518181526001600160a01b038316906000907fddf252ad1be2c89b69c2b068fc378daa952ba7f163c4a11628f55a4df523b3ef9060200160405180910390a35050565b80356001600160a01b038116811461087c57600080fd5b919050565b60006020828403121561089357600080fd5b61089c82610865565b9392505050565b600080604083850312156108b657600080fd5b6108bf83610865565b91506108cd60208401610865565b90509250929050565b6000806000606084860312156108eb57600080fd5b6108f484610865565b925061090260208501610865565b9150604084013590509250925092565b6000806040838503121561092557600080fd5b61092e83610865565b946020939093013593505050565b60006020828403121561094e57600080fd5b5035919050565b600060208083528351808285015260005b8181101561098257858101830151858201604001528201610966565b81811115610994576000604083870101525b50601f01601f1916929092016040019392505050565b600082198211156109cb57634e487b7160e01b600052601160045260246000fd5b500190565b600181811c908216806109e457607f821691505b60208210811415610a0557634e487b7160e01b600052602260045260246000fd5b5091905056fea2646970667358221220c78066142ba3874fe77a011629d40ad5a8889918910904e6767cd071a1c10c1c64736f6c63430008070033a264697066735822122095c2602d0ab529be07c3a8596ccb278ebc8b5d8c89dc9e343d7665f603fc765164736f6c63430008070033608060405234801561001057600080fd5b50600280546001600160a01b031916321790556110ed806100326000396000f3fe60806040526004361061013a5760003560e01c806372a9d124116100bb578063b8c876b11161007f578063d56b288911610059578063d56b28891461034d578063ddca3f4314610360578063debc674c1461037657600080fd5b8063b8c876b114610305578063cd6dc68714610332578063d0e30db01461034557600080fd5b806372a9d1241461029c57806374942c0f146102bc5780637937c03d146102d257806382b2e257146102da5780638666107c146102ef57600080fd5b80635f244d4e116101025780635f244d4e146101e357806366b3f6bf1461020357806367da263d146102395780636f7bc9be14610259578063707e7e871461028657600080fd5b806312065fe01461013f5780631eb928aa1461016157806326c4e60d146101965780632e1a7d4d146101ad57806331f3bd28146101cd575b600080fd5b34801561014b57600080fd5b50475b6040519081526020015b60405180910390f35b34801561016d57600080fd5b5061018161017c366004610fff565b610396565b60408051928352602083019190915201610158565b3480156101a257600080fd5b506101ab610458565b005b3480156101b957600080fd5b506101ab6101c8366004610fff565b61050d565b3480156101d957600080fd5b5061014e60015481565b3480156101ef57600080fd5b506101816101fe366004610fff565b610736565b34801561020f57600080fd5b5061014e61021e366004610f91565b6001600160a01b031660009081526004602052604090205490565b34801561024557600080fd5b5061014e610254366004610fff565b6107dd565b34801561026557600080fd5b5061014e610274366004610f91565b60046020526000908152604090205481565b34801561029257600080fd5b5061014e60085481565b3480156102a857600080fd5b5061014e6102b7366004610fff565b61086c565b3480156102c857600080fd5b5061014e60065481565b6101ab6108fc565b3480156102e657600080fd5b5061014e610a10565b3480156102fb57600080fd5b5061014e60075481565b34801561031157600080fd5b5061014e610320366004610f91565b60056020526000908152604090205481565b6101ab610340366004610fb3565b610a91565b6101ab610bc9565b34801561035957600080fd5b506101ab32ff5b34801561036c57600080fd5b5061014e60035481565b34801561038257600080fd5b506101ab610391366004610fff565b610da4565b600080600060015447856103aa919061106b565b6103b49190611049565b600154600080546040516370a0823160e01b815230600482015293945090926001600160a01b03909116906370a082319060240160206040518083038186803b15801561040057600080fd5b505afa158015610414573d6000803e3d6000fd5b505050506040513d601f19601f820116820180604052508101906104389190611018565b610442908761106b565b61044c9190611049565b91959194509092505050565b60006103e8600354600361046c919061106b565b6104769190611049565b604051909150600090329083908381818185875af1925050503d80600081146104bb576040519150601f19603f3d011682016040523d82523d6000602084013e6104c0565b606091505b50509050806105095760405162461bcd60e51b815260206004820152601060248201526f2a3930b739b332b9103330b4b632b21760811b60448201526064015b60405180910390fd5b5050565b60015460009061051d478461106b565b6105279190611049565b600154600080546040516370a0823160e01b815230600482015293945090926001600160a01b03909116906370a082319060240160206040518083038186803b15801561057357600080fd5b505afa158015610587573d6000803e3d6000fd5b505050506040513d601f19601f820116820180604052508101906105ab9190611018565b6105b5908561106b565b6105bf9190611049565b905081600160008282546105d3919061108a565b9091555050604051600090329084908381818185875af1925050503d806000811461061a576040519150601f19603f3d011682016040523d82523d6000602084013e61061f565b606091505b50509050806106635760405162461bcd60e51b815260206004820152601060248201526f2a3930b739b332b9103330b4b632b21760811b6044820152606401610500565b60005460405163a9059cbb60e01b8152326004820152602481018490526001600160a01b039091169063a9059cbb90604401602060405180830381600087803b1580156106af57600080fd5b505af11580156106c3573d6000803e3d6000fd5b505050506040513d601f19601f820116820180604052508101906106e79190610fdd565b6106f057600080fd5b60408051848152602081018490527f56ca301a9219608c91e7bcee90e083c19671d2cdcc96752c7af291cee5f9c8c8910160405180910390a15060079190915560065550565b600080546040516370a0823160e01b81523060048201528291829147916001600160a01b0316906370a082319060240160206040518083038186803b15801561077e57600080fd5b505afa158015610792573d6000803e3d6000fd5b505050506040513d601f19601f820116820180604052508101906107b69190611018565b6107c0908661106b565b6107ca9190611049565b905060004760015486610442919061106b565b600080546040516370a0823160e01b81523060048201526108669184916001600160a01b03909116906370a08231906024015b60206040518083038186803b15801561082857600080fd5b505afa15801561083c573d6000803e3d6000fd5b505050506040513d601f19601f820116820180604052508101906108609190611018565b47610f4d565b92915050565b60006108668261087c814761108a565b6000546040516370a0823160e01b81523060048201526001600160a01b03909116906370a082319060240160206040518083038186803b1580156108bf57600080fd5b505afa1580156108d3573d6000803e3d6000fd5b505050506040513d601f19601f820116820180604052508101906108f79190611018565b610f4d565b600061090c3461087c814761108a565b60005460405163a9059cbb60e01b8152326004820152602481018390529192506001600160a01b03169063a9059cbb90604401602060405180830381600087803b15801561095957600080fd5b505af115801561096d573d6000803e3d6000fd5b505050506040513d601f19601f820116820180604052508101906109919190610fdd565b61099a57600080fd5b34600360008282546109ac9190611031565b909155505032600090815260046020526040812080543492906109d0908490611031565b909155505060068190556040518181527fdb04c7a6d4758fd55d738ebc67e7f3010ac922be00771ef29521a4090d1eb13f9060200160405180910390a150565b600080546040516370a0823160e01b81523060048201526001600160a01b03909116906370a082319060240160206040518083038186803b158015610a5457600080fd5b505afa158015610a68573d6000803e3d6000fd5b505050506040513d601f19601f82011682018060405250810190610a8c9190611018565b905090565b60015415610a9e57600080fd5b60008111610aab57600080fd5b60003411610ab857600080fd5b60006003819055805473ffffffffffffffffffffffffffffffffffffffff19166001600160a01b03848116919091178255476001819055328084526005602052604080852092909255925490516323b872dd60e01b815260048101939093523060248401526044830184905216906323b872dd90606401602060405180830381600087803b158015610b4957600080fd5b505af1158015610b5d573d6000803e3d6000fd5b505050506040513d601f19601f82011682018060405250810190610b819190610fdd565b610b8a57600080fd5b7fc43e48cf47e9fa186d0f4096c61d1fcb54159799f935a2aa32e5589688ee36e1600154604051610bbd91815260200190565b60405180910390a15050565b60003411610bd657600080fd5b6000610be2344761108a565b6000546040516370a0823160e01b81523060048201526001600160a01b03909116906370a082319060240160206040518083038186803b158015610c2557600080fd5b505afa158015610c39573d6000803e3d6000fd5b505050506040513d601f19601f82011682018060405250810190610c5d9190611018565b610c67903461106b565b610c719190611049565b90506000610c7f344761108a565b600154610c8c903461106b565b610c969190611049565b32600090815260056020526040812080549293508392909190610cba908490611031565b925050819055508060016000828254610cd39190611031565b90915550506000546040516323b872dd60e01b8152326004820152306024820152604481018490526001600160a01b03909116906323b872dd90606401602060405180830381600087803b158015610d2a57600080fd5b505af1158015610d3e573d6000803e3d6000fd5b505050506040513d601f19601f82011682018060405250810190610d629190610fdd565b610d6b57600080fd5b6040518181527f4d6ce1e535dbade1c23defba91e23b8f791ce5edc0cc320257a2b364e4e384269060200160405180910390a160085550565b600080546040516370a0823160e01b8152306004820152610ddb9184916001600160a01b03909116906370a0823190602401610810565b604051909150600090329083908381818185875af1925050503d8060008114610e20576040519150601f19603f3d011682016040523d82523d6000602084013e610e25565b606091505b5050905080610e695760405162461bcd60e51b815260206004820152601060248201526f2a3930b739b332b9103330b4b632b21760811b6044820152606401610500565b6000546040516323b872dd60e01b8152326004820152306024820152604481018590526001600160a01b03909116906323b872dd90606401602060405180830381600087803b158015610ebb57600080fd5b505af1158015610ecf573d6000803e3d6000fd5b505050506040513d601f19601f82011682018060405250810190610ef39190610fdd565b610efc57600080fd5b8160036000828254610f0e9190611031565b90915550506040518281527f4dbf3a71a7c7262f432c2cad7808225832255d07f7d8ab85117677c0b5c0a8509060200160405180910390a15060075550565b6000610f598484611031565b610f63838661106b565b610f6d9190611049565b949350505050565b80356001600160a01b0381168114610f8c57600080fd5b919050565b600060208284031215610fa357600080fd5b610fac82610f75565b9392505050565b60008060408385031215610fc657600080fd5b610fcf83610f75565b946020939093013593505050565b600060208284031215610fef57600080fd5b81518015158114610fac57600080fd5b60006020828403121561101157600080fd5b5035919050565b60006020828403121561102a57600080fd5b5051919050565b60008219821115611044576110446110a1565b500190565b60008261106657634e487b7160e01b600052601260045260246000fd5b500490565b6000816000190483118215151615611085576110856110a1565b500290565b60008282101561109c5761109c6110a1565b500390565b634e487b7160e01b600052601160045260246000fdfea264697066735822122064b535c959bb8023c571a7a3395e36d84d3a90bdb7a51a246e66d05b46727f4664736f6c63430008070033608060405234801561001057600080fd5b50610b86806100206000396000f3fe608060405234801561001057600080fd5b50600436106101475760003560e01c80635d8ab6e7116100c8578063a29325581161008c578063c437457511610066578063c4374575146102b6578063ea7a9b4e146102c9578063f7155345146102dc57600080fd5b8063a293255814610293578063ac7fdd391461029b578063b794cc2f146102a357600080fd5b80635d8ab6e71461024b5780636901f6681461025d5780638d15d676146102655780638da5cb5b14610278578063990ec12b1461028b57600080fd5b80631c4695f41161010f5780631c4695f4146101ea5780631d846c65146101f257806335aa2e44146102055780634e7f4d3c146102305780635836e0b51461024357600080fd5b8063036b61101461014c57806309bd5a6014610161578063123119cd1461017f57806313af4035146101875780631a2db8d2146101b7575b600080fd5b61015f61015a3660046108be565b6102ff565b005b610169610316565b6040516101769190610988565b60405180910390f35b6101696103a4565b61015f61019536600461088e565b600080546001600160a01b0319166001600160a01b0392909216919091179055565b6101da6101c536600461088e565b60086020526000908152604090205460ff1681565b6040519015158152602001610176565b6101696103b1565b61015f6102003660046108be565b6103be565b61021861021336600461096f565b6103d1565b6040516001600160a01b039091168152602001610176565b61015f61023e3660046108be565b6103fb565b61015f61040e565b6006545b604051908152602001610176565b61015f610595565b61015f6102733660046108be565b610711565b600054610218906001600160a01b031681565b60055461024f565b610169610724565b6101da610731565b6101da6102b136600461088e565b61076f565b6101da6102c436600461088e565b6107aa565b6102186102d736600461096f565b6107e5565b6101da6102ea36600461088e565b60076020526000908152604090205460ff1681565b80516103129060029060208401906107f5565b5050565b6003805461032390610aff565b80601f016020809104026020016040519081016040528092919081815260200182805461034f90610aff565b801561039c5780601f106103715761010080835404028352916020019161039c565b820191906000526020600020905b81548152906001019060200180831161037f57829003601f168201915b505050505081565b6001805461032390610aff565b6004805461032390610aff565b80516103129060039060208401906107f5565b600581815481106103e157600080fd5b6000918252602090912001546001600160a01b0316905081565b80516103129060019060208401906107f5565b6000546001600160a01b03163214156104795760405162461bcd60e51b815260206004820152602260248201527f4f776e65722063616e6e6f742064656e7920686973206f776e20646f63756d656044820152611b9d60f21b60648201526084015b60405180910390fd5b3260009081526008602052604090205460ff16156104ce5760405162461bcd60e51b81526020600482015260126024820152712932b832b0ba32b2103232b732b3b0ba37b960711b6044820152606401610470565b3260009081526007602052604090205460ff16156104fe5760405162461bcd60e51b815260040161047090610a85565b6006805460018181019092557ff652222313e28459528d920b65115c16c04f3efc82aaedc97be59f3f377c0d3f0180546001600160a01b0319163290811790915560008181526008602052604090819020805460ff191690931790925590517f9036bc06ad4a578f0132d89ba4adc07b9772275526730acc38d7e4b4c11872a39061058b906002906109dd565b60405180910390a2565b6000546001600160a01b03163214156105ff5760405162461bcd60e51b815260206004820152602660248201527f4f776e65722063616e6e6f742076616c696461746520686973206f776e20646f60448201526518dd5b595b9d60d21b6064820152608401610470565b3260009081526007602052604090205460ff16156106545760405162461bcd60e51b81526020600482015260126024820152712932b832b0ba32b2103b30b634b230ba37b960711b6044820152606401610470565b3260009081526008602052604090205460ff16156106845760405162461bcd60e51b815260040161047090610a85565b6005805460018181019092557f036b6384b5eca791c62761152d0c79bb0604c104a5fb6f4eb0703f3154bb3db00180546001600160a01b0319163290811790915560008181526007602052604090819020805460ff191690931790925590517f57d77eb32e87e8c65c7cec1df5b0e8a8d5c4eae1b40c7246e7668ed702dd247a9061058b906002906109dd565b80516103129060049060208401906107f5565b6002805461032390610aff565b600654600554600091908115801561074a575060058110155b80610768575081158015906107685750610765826005610ad2565b81115b9250505090565b600080546001600160a01b038381169116141561078b57600080fd5b506001600160a01b031660009081526008602052604090205460ff1690565b600080546001600160a01b03838116911614156107c657600080fd5b506001600160a01b031660009081526007602052604090205460ff1690565b600681815481106103e157600080fd5b82805461080190610aff565b90600052602060002090601f0160209004810192826108235760008555610869565b82601f1061083c57805160ff1916838001178555610869565b82800160010185558215610869579182015b8281111561086957825182559160200191906001019061084e565b50610875929150610879565b5090565b5b80821115610875576000815560010161087a565b6000602082840312156108a057600080fd5b81356001600160a01b03811681146108b757600080fd5b9392505050565b6000602082840312156108d057600080fd5b813567ffffffffffffffff808211156108e857600080fd5b818401915084601f8301126108fc57600080fd5b81358181111561090e5761090e610b3a565b604051601f8201601f19908116603f0116810190838211818310171561093657610936610b3a565b8160405282815287602084870101111561094f57600080fd5b826020860160208301376000928101602001929092525095945050505050565b60006020828403121561098157600080fd5b5035919050565b600060208083528351808285015260005b818110156109b557858101830151858201604001528201610999565b818111156109c7576000604083870101525b50601f01601f1916929092016040019392505050565b600060208083526000845481600182811c9150808316806109ff57607f831692505b858310811415610a1d57634e487b7160e01b85526022600452602485fd5b878601838152602001818015610a3a5760018114610a4b57610a76565b60ff19861682528782019650610a76565b60008b81526020902060005b86811015610a7057815484820152908501908901610a57565b83019750505b50949998505050505050505050565b6020808252602d908201527f596f752063616e6e6f742076616c696461746520616e642064656e792061742060408201526c7468652073616d652074696d6560981b606082015260800190565b6000816000190483118215151615610afa57634e487b7160e01b600052601160045260246000fd5b500290565b600181811c90821680610b1357607f821691505b60208210811415610b3457634e487b7160e01b600052602260045260246000fd5b50919050565b634e487b7160e01b600052604160045260246000fdfea26469706673582212204add26442037d3092df2ab78dfae865a61b4694ee08da4bc64f68ff29086de8f64736f6c634300080700336080604052671158e460913d000060035534801561001c57600080fd5b5060405161067738038061067783398101604081905261003b9161006b565b6012600181905561004d90600a6100c7565b610057908261017d565b600055506002805461ffff191690556101b2565b60006020828403121561007d57600080fd5b5051919050565b600181815b808511156100bf5781600019048211156100a5576100a561019c565b808516156100b257918102915b93841c9390800290610089565b509250929050565b60006100d383836100da565b9392505050565b6000826100e957506001610177565b816100f657506000610177565b816001811461010c576002811461011657610132565b6001915050610177565b60ff8411156101275761012761019c565b50506001821b610177565b5060208310610133831016604e8410600b8410161715610155575081810a610177565b61015f8383610084565b80600019048211156101735761017361019c565b0290505b92915050565b60008160001904831182151516156101975761019761019c565b500290565b634e487b7160e01b600052601160045260246000fd5b6104b6806101c16000396000f3fe608060405234801561001057600080fd5b50600436106100575760003560e01c8063131e2f181461005c5780632c4e722e1461008157806384c6e2c81461008a5780639f8af9dd14610094578063effc1fe0146100a7575b600080fd5b61006f61006a3660046102c8565b6100af565b60405190815260200160405180910390f35b61006f60005481565b6100926100f4565b005b6100926100a23660046102e1565b6100fe565b610092610280565b6000600154600a6100c09190610380565b6064600054846100d09190610434565b6100da919061031b565b6100e4919061031b565b6100ee9083610303565b92915050565b6100fc6102a8565b565b60025460ff16156101485760405162461bcd60e51b815260206004820152601060248201526f105b1c9958591e48195e1958dd5d195960821b604482015260640160405180910390fd5b6000600154600a6101599190610380565b6101639084610434565b90506000610171838361031b565b905080600354116101c4576003546101899082610453565b6000808282546101999190610303565b909155505060005468056bc75e2d6310000010156101bf5768056bc75e2d631000006000555b61026d565b6000600154600a6101d59190610380565b6101e0906002610434565b9050600085856003546101f39190610434565b6101fd919061031b565b905081811115610218576729a2241af62c000060005561024b565b60015461022690600a610380565b6102308284610453565b60005461023d9190610434565b610247919061031b565b6000555b6729a2241af62c0000600054101561026a576729a2241af62c00006000555b50505b50506002805460ff191660011790555050565b600254610100900460ff166100fc576102976102a8565b6002805461ff001916610100179055565b600860005460076102b99190610434565b6102c3919061031b565b600055565b6000602082840312156102da57600080fd5b5035919050565b600080604083850312156102f457600080fd5b50508035926020909101359150565b600082198211156103165761031661046a565b500190565b60008261033857634e487b7160e01b600052601260045260246000fd5b500490565b600181815b8085111561037857816000190482111561035e5761035e61046a565b8085161561036b57918102915b93841c9390800290610342565b509250929050565b600061038c8383610393565b9392505050565b6000826103a2575060016100ee565b816103af575060006100ee565b81600181146103c557600281146103cf576103eb565b60019150506100ee565b60ff8411156103e0576103e061046a565b50506001821b6100ee565b5060208310610133831016604e8410600b841016171561040e575081810a6100ee565b610418838361033d565b806000190482111561042c5761042c61046a565b029392505050565b600081600019048311821515161561044e5761044e61046a565b500290565b6000828210156104655761046561046a565b500390565b634e487b7160e01b600052601160045260246000fdfea26469706673582212204fb739b1b4e219e14236fffc3953160e53b2e310c5833fb2dbb87a2077c502bb64736f6c63430008070033",
			"opcodes": "PUSH1 0x80 PUSH1 0x40 MSTORE CALLVALUE DUP1 ISZERO PUSH3 0x11 JUMPI PUSH1 0x0 DUP1 REVERT JUMPDEST POP PUSH1 0x40 MLOAD PUSH3 0x20 SWAP1 PUSH3 0x105 JUMP JUMPDEST PUSH1 0x40 MLOAD DUP1 SWAP2 SUB SWAP1 PUSH1 0x0 CREATE DUP1 ISZERO DUP1 ISZERO PUSH3 0x3D JUMPI RETURNDATASIZE PUSH1 0x0 DUP1 RETURNDATACOPY RETURNDATASIZE PUSH1 0x0 REVERT JUMPDEST POP PUSH1 0x6 DUP1 SLOAD PUSH1 0x1 PUSH1 0x1 PUSH1 0xA0 SHL SUB NOT AND PUSH1 0x1 PUSH1 0x1 PUSH1 0xA0 SHL SUB SWAP3 SWAP1 SWAP3 AND SWAP2 SWAP1 SWAP2 OR SWAP1 SSTORE PUSH1 0x40 MLOAD PUSH3 0x6C SWAP1 PUSH3 0x113 JUMP JUMPDEST PUSH1 0x40 MLOAD DUP1 SWAP2 SUB SWAP1 PUSH1 0x0 CREATE DUP1 ISZERO DUP1 ISZERO PUSH3 0x89 JUMPI RETURNDATASIZE PUSH1 0x0 DUP1 RETURNDATACOPY RETURNDATASIZE PUSH1 0x0 REVERT JUMPDEST POP PUSH1 0x0 DUP1 SLOAD PUSH1 0x1 PUSH1 0x1 PUSH1 0xA0 SHL SUB NOT AND PUSH1 0x1 PUSH1 0x1 PUSH1 0xA0 SHL SUB SWAP3 SWAP1 SWAP3 AND SWAP2 SWAP1 SWAP2 OR SWAP1 SSTORE PUSH1 0x40 MLOAD PUSH1 0xF SWAP1 PUSH3 0xBB SWAP1 PUSH3 0x121 JUMP JUMPDEST SWAP1 DUP2 MSTORE PUSH1 0x20 ADD PUSH1 0x40 MLOAD DUP1 SWAP2 SUB SWAP1 PUSH1 0x0 CREATE DUP1 ISZERO DUP1 ISZERO PUSH3 0xDE JUMPI RETURNDATASIZE PUSH1 0x0 DUP1 RETURNDATACOPY RETURNDATASIZE PUSH1 0x0 REVERT JUMPDEST POP PUSH1 0x7 DUP1 SLOAD PUSH1 0x1 PUSH1 0x1 PUSH1 0xA0 SHL SUB NOT AND PUSH1 0x1 PUSH1 0x1 PUSH1 0xA0 SHL SUB SWAP3 SWAP1 SWAP3 AND SWAP2 SWAP1 SWAP2 OR SWAP1 SSTORE PUSH3 0x12F JUMP JUMPDEST PUSH2 0x111F DUP1 PUSH3 0x5694 DUP4 CODECOPY ADD SWAP1 JUMP JUMPDEST PUSH2 0xBA6 DUP1 PUSH3 0x67B3 DUP4 CODECOPY ADD SWAP1 JUMP JUMPDEST PUSH2 0x677 DUP1 PUSH3 0x7359 DUP4 CODECOPY ADD SWAP1 JUMP JUMPDEST PUSH2 0x5555 DUP1 PUSH3 0x13F PUSH1 0x0 CODECOPY PUSH1 0x0 RETURN INVALID PUSH1 0x80 PUSH1 0x40 MSTORE PUSH1 0x4 CALLDATASIZE LT PUSH3 0x20B JUMPI PUSH1 0x0 CALLDATALOAD PUSH1 0xE0 SHR DUP1 PUSH4 0x7EEBE5C2 GT PUSH3 0x117 JUMPI DUP1 PUSH4 0xD782D3C3 GT PUSH3 0xA1 JUMPI DUP1 PUSH4 0xE19752C8 GT PUSH3 0x6C JUMPI DUP1 PUSH4 0xE19752C8 EQ PUSH3 0x561 JUMPI DUP1 PUSH4 0xEC28D2D4 EQ PUSH3 0x579 JUMPI DUP1 PUSH4 0xF600584A EQ PUSH3 0x591 JUMPI DUP1 PUSH4 0xF61A2249 EQ PUSH3 0x5A9 JUMPI PUSH1 0x0 DUP1 REVERT JUMPDEST DUP1 PUSH4 0xD782D3C3 EQ PUSH3 0x4F4 JUMPI DUP1 PUSH4 0xD7A8F6AA EQ PUSH3 0x519 JUMPI DUP1 PUSH4 0xD8DFEB45 EQ PUSH3 0x531 JUMPI DUP1 PUSH4 0xDE34A245 EQ PUSH3 0x549 JUMPI PUSH1 0x0 DUP1 REVERT JUMPDEST DUP1 PUSH4 0xB87265E7 GT PUSH3 0xE2 JUMPI DUP1 PUSH4 0xB87265E7 EQ PUSH3 0x4A2 JUMPI DUP1 PUSH4 0xBDBE0F66 EQ PUSH3 0x4AC JUMPI DUP1 PUSH4 0xBDFFC3BE EQ PUSH3 0x4C4 JUMPI DUP1 PUSH4 0xCAF2CFAB EQ PUSH3 0x4DC JUMPI PUSH1 0x0 DUP1 REVERT JUMPDEST DUP1 PUSH4 0x7EEBE5C2 EQ PUSH3 0x42F JUMPI DUP1 PUSH4 0x95805DAD EQ PUSH3 0x451 JUMPI DUP1 PUSH4 0xB41F7381 EQ PUSH3 0x468 JUMPI DUP1 PUSH4 0xB6FCCF8A EQ PUSH3 0x480 JUMPI PUSH1 0x0 DUP1 REVERT JUMPDEST DUP1 PUSH4 0x3FA4F245 GT PUSH3 0x199 JUMPI DUP1 PUSH4 0x59CCEF72 GT PUSH3 0x164 JUMPI DUP1 PUSH4 0x59CCEF72 EQ PUSH3 0x3B5 JUMPI DUP1 PUSH4 0x59EE2DFD EQ PUSH3 0x3DA JUMPI DUP1 PUSH4 0x5ACB25DC EQ PUSH3 0x3F2 JUMPI DUP1 PUSH4 0x5F646A83 EQ PUSH3 0x417 JUMPI PUSH1 0x0 DUP1 REVERT JUMPDEST DUP1 PUSH4 0x3FA4F245 EQ PUSH3 0x334 JUMPI DUP1 PUSH4 0x40C1B5DD EQ PUSH3 0x34C JUMPI DUP1 PUSH4 0x417E4E68 EQ PUSH3 0x364 JUMPI DUP1 PUSH4 0x4E504747 EQ PUSH3 0x389 JUMPI PUSH1 0x0 DUP1 REVERT JUMPDEST DUP1 PUSH4 0x32393153 GT PUSH3 0x1DA JUMPI DUP1 PUSH4 0x32393153 EQ PUSH3 0x2B5 JUMPI DUP1 PUSH4 0x324D9EBC EQ PUSH3 0x2CD JUMPI DUP1 PUSH4 0x38109DCF EQ PUSH3 0x2ED JUMPI DUP1 PUSH4 0x3F579431 EQ PUSH3 0x30F JUMPI PUSH1 0x0 DUP1 REVERT JUMPDEST DUP1 PUSH4 0x16C6A792 EQ PUSH3 0x210 JUMPI DUP1 PUSH4 0x1EF3755D EQ PUSH3 0x24F JUMPI DUP1 PUSH4 0x270D3BC0 EQ PUSH3 0x269 JUMPI DUP1 PUSH4 0x31E788FF EQ PUSH3 0x290 JUMPI JUMPDEST PUSH1 0x0 DUP1 REVERT JUMPDEST CALLVALUE DUP1 ISZERO PUSH3 0x21D JUMPI PUSH1 0x0 DUP1 REVERT JUMPDEST POP PUSH1 0x7 SLOAD PUSH3 0x232 SWAP1 PUSH1 0x1 PUSH1 0x1 PUSH1 0xA0 SHL SUB AND DUP2 JUMP JUMPDEST PUSH1 0x40 MLOAD PUSH1 0x1 PUSH1 0x1 PUSH1 0xA0 SHL SUB SWAP1 SWAP2 AND DUP2 MSTORE PUSH1 0x20 ADD JUMPDEST PUSH1 0x40 MLOAD DUP1 SWAP2 SUB SWAP1 RETURN JUMPDEST CALLVALUE DUP1 ISZERO PUSH3 0x25C JUMPI PUSH1 0x0 DUP1 REVERT JUMPDEST POP PUSH3 0x267 PUSH3 0x5B3 JUMP JUMPDEST STOP JUMPDEST CALLVALUE DUP1 ISZERO PUSH3 0x276 JUMPI PUSH1 0x0 DUP1 REVERT JUMPDEST POP PUSH3 0x281 PUSH3 0x7C3 JUMP JUMPDEST PUSH1 0x40 MLOAD PUSH3 0x246 SWAP2 SWAP1 PUSH3 0x20F8 JUMP JUMPDEST CALLVALUE DUP1 ISZERO PUSH3 0x29D JUMPI PUSH1 0x0 DUP1 REVERT JUMPDEST POP PUSH3 0x267 PUSH3 0x2AF CALLDATASIZE PUSH1 0x4 PUSH3 0x1F39 JUMP JUMPDEST PUSH3 0x84B JUMP JUMPDEST CALLVALUE DUP1 ISZERO PUSH3 0x2C2 JUMPI PUSH1 0x0 DUP1 REVERT JUMPDEST POP PUSH3 0x267 PUSH3 0x9EC JUMP JUMPDEST CALLVALUE DUP1 ISZERO PUSH3 0x2DA JUMPI PUSH1 0x0 DUP1 REVERT JUMPDEST POP ORIGIN BALANCE JUMPDEST PUSH1 0x40 MLOAD SWAP1 DUP2 MSTORE PUSH1 0x20 ADD PUSH3 0x246 JUMP JUMPDEST CALLVALUE DUP1 ISZERO PUSH3 0x2FA JUMPI PUSH1 0x0 DUP1 REVERT JUMPDEST POP PUSH1 0x4 SLOAD PUSH3 0x232 SWAP1 PUSH1 0x1 PUSH1 0x1 PUSH1 0xA0 SHL SUB AND DUP2 JUMP JUMPDEST CALLVALUE DUP1 ISZERO PUSH3 0x31C JUMPI PUSH1 0x0 DUP1 REVERT JUMPDEST POP PUSH3 0x267 PUSH3 0x32E CALLDATASIZE PUSH1 0x4 PUSH3 0x1FFA JUMP JUMPDEST PUSH3 0xAF1 JUMP JUMPDEST CALLVALUE DUP1 ISZERO PUSH3 0x341 JUMPI PUSH1 0x0 DUP1 REVERT JUMPDEST POP PUSH3 0x2DE PUSH1 0x1 SLOAD DUP2 JUMP JUMPDEST CALLVALUE DUP1 ISZERO PUSH3 0x359 JUMPI PUSH1 0x0 DUP1 REVERT JUMPDEST POP PUSH3 0x281 PUSH3 0xC16 JUMP JUMPDEST CALLVALUE DUP1 ISZERO PUSH3 0x371 JUMPI PUSH1 0x0 DUP1 REVERT JUMPDEST POP PUSH3 0x2DE PUSH3 0x383 CALLDATASIZE PUSH1 0x4 PUSH3 0x1ECE JUMP JUMPDEST PUSH3 0xC5B JUMP JUMPDEST CALLVALUE DUP1 ISZERO PUSH3 0x396 JUMPI PUSH1 0x0 DUP1 REVERT JUMPDEST POP PUSH3 0x2DE PUSH3 0x3A8 CALLDATASIZE PUSH1 0x4 PUSH3 0x1ECE JUMP JUMPDEST PUSH1 0x1 PUSH1 0x1 PUSH1 0xA0 SHL SUB AND BALANCE SWAP1 JUMP JUMPDEST CALLVALUE DUP1 ISZERO PUSH3 0x3C2 JUMPI PUSH1 0x0 DUP1 REVERT JUMPDEST POP PUSH3 0x267 PUSH3 0x3D4 CALLDATASIZE PUSH1 0x4 PUSH3 0x204C JUMP JUMPDEST PUSH3 0xCE8 JUMP JUMPDEST CALLVALUE DUP1 ISZERO PUSH3 0x3E7 JUMPI PUSH1 0x0 DUP1 REVERT JUMPDEST POP PUSH3 0x267 PUSH3 0xE99 JUMP JUMPDEST CALLVALUE DUP1 ISZERO PUSH3 0x3FF JUMPI PUSH1 0x0 DUP1 REVERT JUMPDEST POP PUSH3 0x267 PUSH3 0x411 CALLDATASIZE PUSH1 0x4 PUSH3 0x204C JUMP JUMPDEST PUSH3 0x10A9 JUMP JUMPDEST CALLVALUE DUP1 ISZERO PUSH3 0x424 JUMPI PUSH1 0x0 DUP1 REVERT JUMPDEST POP PUSH3 0x2DE PUSH3 0x11EC JUMP JUMPDEST CALLVALUE DUP1 ISZERO PUSH3 0x43C JUMPI PUSH1 0x0 DUP1 REVERT JUMPDEST POP PUSH1 0x0 SLOAD PUSH3 0x232 SWAP1 PUSH1 0x1 PUSH1 0x1 PUSH1 0xA0 SHL SUB AND DUP2 JUMP JUMPDEST PUSH3 0x267 PUSH3 0x462 CALLDATASIZE PUSH1 0x4 PUSH3 0x204C JUMP JUMPDEST PUSH3 0x126D JUMP JUMPDEST CALLVALUE DUP1 ISZERO PUSH3 0x475 JUMPI PUSH1 0x0 DUP1 REVERT JUMPDEST POP PUSH3 0x2DE PUSH3 0x156C JUMP JUMPDEST CALLVALUE DUP1 ISZERO PUSH3 0x48D JUMPI PUSH1 0x0 DUP1 REVERT JUMPDEST POP PUSH1 0x6 SLOAD PUSH3 0x232 SWAP1 PUSH1 0x1 PUSH1 0x1 PUSH1 0xA0 SHL SUB AND DUP2 JUMP JUMPDEST PUSH3 0x267 PUSH3 0x15B6 JUMP JUMPDEST CALLVALUE DUP1 ISZERO PUSH3 0x4B9 JUMPI PUSH1 0x0 DUP1 REVERT JUMPDEST POP PUSH3 0x2DE PUSH3 0x17EA JUMP JUMPDEST CALLVALUE DUP1 ISZERO PUSH3 0x4D1 JUMPI PUSH1 0x0 DUP1 REVERT JUMPDEST POP PUSH3 0x267 PUSH3 0x1830 JUMP JUMPDEST CALLVALUE DUP1 ISZERO PUSH3 0x4E9 JUMPI PUSH1 0x0 DUP1 REVERT JUMPDEST POP PUSH3 0x2DE PUSH1 0x5 SLOAD DUP2 JUMP JUMPDEST CALLVALUE DUP1 ISZERO PUSH3 0x501 JUMPI PUSH1 0x0 DUP1 REVERT JUMPDEST POP PUSH3 0x267 PUSH3 0x513 CALLDATASIZE PUSH1 0x4 PUSH3 0x1F39 JUMP JUMPDEST PUSH3 0x18F0 JUMP JUMPDEST CALLVALUE DUP1 ISZERO PUSH3 0x526 JUMPI PUSH1 0x0 DUP1 REVERT JUMPDEST POP PUSH3 0x2DE PUSH3 0x1A76 JUMP JUMPDEST CALLVALUE DUP1 ISZERO PUSH3 0x53E JUMPI PUSH1 0x0 DUP1 REVERT JUMPDEST POP PUSH3 0x2DE PUSH1 0x3 SLOAD DUP2 JUMP JUMPDEST CALLVALUE DUP1 ISZERO PUSH3 0x556 JUMPI PUSH1 0x0 DUP1 REVERT JUMPDEST POP PUSH3 0x2DE PUSH3 0x1AC7 JUMP JUMPDEST CALLVALUE DUP1 ISZERO PUSH3 0x56E JUMPI PUSH1 0x0 DUP1 REVERT JUMPDEST POP PUSH3 0x2DE PUSH1 0x2 SLOAD DUP2 JUMP JUMPDEST CALLVALUE DUP1 ISZERO PUSH3 0x586 JUMPI PUSH1 0x0 DUP1 REVERT JUMPDEST POP PUSH3 0x2DE PUSH3 0x1B0D JUMP JUMPDEST CALLVALUE DUP1 ISZERO PUSH3 0x59E JUMPI PUSH1 0x0 DUP1 REVERT JUMPDEST POP PUSH3 0x267 PUSH3 0x1B52 JUMP JUMPDEST PUSH3 0x267 PUSH3 0x1C60 JUMP JUMPDEST PUSH1 0x0 SLOAD PUSH1 0x40 DUP1 MLOAD PUSH4 0x8DA5CB5B PUSH1 0xE0 SHL DUP2 MSTORE SWAP1 MLOAD CALLER SWAP3 PUSH1 0x1 PUSH1 0x1 PUSH1 0xA0 SHL SUB AND SWAP2 PUSH4 0x8DA5CB5B SWAP2 PUSH1 0x4 DUP1 DUP4 ADD SWAP3 PUSH1 0x20 SWAP3 SWAP2 SWAP1 DUP3 SWAP1 SUB ADD DUP2 DUP7 DUP1 EXTCODESIZE ISZERO DUP1 ISZERO PUSH3 0x5F8 JUMPI PUSH1 0x0 DUP1 REVERT JUMPDEST POP GAS STATICCALL ISZERO DUP1 ISZERO PUSH3 0x60D JUMPI RETURNDATASIZE PUSH1 0x0 DUP1 RETURNDATACOPY RETURNDATASIZE PUSH1 0x0 REVERT JUMPDEST POP POP POP POP PUSH1 0x40 MLOAD RETURNDATASIZE PUSH1 0x1F NOT PUSH1 0x1F DUP3 ADD AND DUP3 ADD DUP1 PUSH1 0x40 MSTORE POP DUP2 ADD SWAP1 PUSH3 0x633 SWAP2 SWAP1 PUSH3 0x1EF5 JUMP JUMPDEST PUSH1 0x1 PUSH1 0x1 PUSH1 0xA0 SHL SUB AND EQ PUSH3 0x647 JUMPI PUSH1 0x0 DUP1 REVERT JUMPDEST PUSH1 0x6 PUSH1 0x0 SWAP1 SLOAD SWAP1 PUSH2 0x100 EXP SWAP1 DIV PUSH1 0x1 PUSH1 0x1 PUSH1 0xA0 SHL SUB AND PUSH1 0x1 PUSH1 0x1 PUSH1 0xA0 SHL SUB AND PUSH4 0xD56B2889 PUSH1 0x40 MLOAD DUP2 PUSH4 0xFFFFFFFF AND PUSH1 0xE0 SHL DUP2 MSTORE PUSH1 0x4 ADD PUSH1 0x0 PUSH1 0x40 MLOAD DUP1 DUP4 SUB DUP2 PUSH1 0x0 DUP8 DUP1 EXTCODESIZE ISZERO DUP1 ISZERO PUSH3 0x698 JUMPI PUSH1 0x0 DUP1 REVERT JUMPDEST POP GAS CALL ISZERO DUP1 ISZERO PUSH3 0x6AD JUMPI RETURNDATASIZE PUSH1 0x0 DUP1 RETURNDATACOPY RETURNDATASIZE PUSH1 0x0 REVERT JUMPDEST POP POP POP POP PUSH1 0x40 MLOAD PUSH3 0x6BF SWAP1 PUSH3 0x1E3A JUMP JUMPDEST PUSH1 0x40 MLOAD DUP1 SWAP2 SUB SWAP1 PUSH1 0x0 CREATE DUP1 ISZERO DUP1 ISZERO PUSH3 0x6DC JUMPI RETURNDATASIZE PUSH1 0x0 DUP1 RETURNDATACOPY RETURNDATASIZE PUSH1 0x0 REVERT JUMPDEST POP PUSH1 0x6 DUP1 SLOAD PUSH1 0x1 PUSH1 0x1 PUSH1 0xA0 SHL SUB NOT AND PUSH1 0x1 PUSH1 0x1 PUSH1 0xA0 SHL SUB SWAP3 SWAP1 SWAP3 AND SWAP2 SWAP1 SWAP2 OR SWAP1 SSTORE PUSH1 0x40 MLOAD PUSH3 0x70B SWAP1 PUSH3 0x1E48 JUMP JUMPDEST PUSH1 0x40 MLOAD DUP1 SWAP2 SUB SWAP1 PUSH1 0x0 CREATE DUP1 ISZERO DUP1 ISZERO PUSH3 0x728 JUMPI RETURNDATASIZE PUSH1 0x0 DUP1 RETURNDATACOPY RETURNDATASIZE PUSH1 0x0 REVERT JUMPDEST POP PUSH1 0x0 DUP1 SLOAD PUSH1 0x1 PUSH1 0x1 PUSH1 0xA0 SHL SUB NOT AND PUSH1 0x1 PUSH1 0x1 PUSH1 0xA0 SHL SUB SWAP3 SWAP1 SWAP3 AND SWAP2 SWAP1 SWAP2 OR SWAP1 SSTORE PUSH1 0x40 MLOAD PUSH1 0xF SWAP1 PUSH3 0x75A SWAP1 PUSH3 0x1E56 JUMP JUMPDEST SWAP1 DUP2 MSTORE PUSH1 0x20 ADD PUSH1 0x40 MLOAD DUP1 SWAP2 SUB SWAP1 PUSH1 0x0 CREATE DUP1 ISZERO DUP1 ISZERO PUSH3 0x77D JUMPI RETURNDATASIZE PUSH1 0x0 DUP1 RETURNDATACOPY RETURNDATASIZE PUSH1 0x0 REVERT JUMPDEST POP PUSH1 0x7 DUP1 SLOAD PUSH1 0x0 PUSH1 0x1 DUP2 SWAP1 SSTORE PUSH1 0x2 DUP2 SWAP1 SSTORE PUSH1 0x3 DUP2 SWAP1 SSTORE PUSH1 0x5 SSTORE PUSH22 0xFFFFFFFFFFFFFFFFFFFFFFFFFFFFFFFFFFFFFFFFFFFF NOT AND PUSH1 0x1 PUSH1 0x1 PUSH1 0xA0 SHL SUB SWAP3 SWAP1 SWAP3 AND SWAP2 SWAP1 SWAP2 OR SWAP1 SSTORE JUMP JUMPDEST PUSH1 0x0 DUP1 SLOAD PUSH1 0x40 DUP1 MLOAD PUSH3 0x4DEAD3 PUSH1 0xE5 SHL DUP2 MSTORE SWAP1 MLOAD PUSH1 0x60 SWAP4 PUSH1 0x1 PUSH1 0x1 PUSH1 0xA0 SHL SUB SWAP1 SWAP4 AND SWAP3 PUSH4 0x9BD5A60 SWAP3 PUSH1 0x4 DUP1 DUP3 ADD SWAP4 SWAP2 DUP3 SWAP1 SUB ADD DUP2 DUP7 DUP1 EXTCODESIZE ISZERO DUP1 ISZERO PUSH3 0x807 JUMPI PUSH1 0x0 DUP1 REVERT JUMPDEST POP GAS STATICCALL ISZERO DUP1 ISZERO PUSH3 0x81C JUMPI RETURNDATASIZE PUSH1 0x0 DUP1 RETURNDATACOPY RETURNDATASIZE PUSH1 0x0 REVERT JUMPDEST POP POP POP POP PUSH1 0x40 MLOAD RETURNDATASIZE PUSH1 0x0 DUP3 RETURNDATACOPY PUSH1 0x1F RETURNDATASIZE SWAP1 DUP2 ADD PUSH1 0x1F NOT AND DUP3 ADD PUSH1 0x40 MSTORE PUSH3 0x846 SWAP2 SWAP1 DUP2 ADD SWAP1 PUSH3 0x1F7A JUMP JUMPDEST SWAP1 POP SWAP1 JUMP JUMPDEST PUSH1 0x0 SLOAD PUSH1 0x40 DUP1 MLOAD PUSH4 0x8DA5CB5B PUSH1 0xE0 SHL DUP2 MSTORE SWAP1 MLOAD CALLER SWAP3 PUSH1 0x1 PUSH1 0x1 PUSH1 0xA0 SHL SUB AND SWAP2 PUSH4 0x8DA5CB5B SWAP2 PUSH1 0x4 DUP1 DUP4 ADD SWAP3 PUSH1 0x20 SWAP3 SWAP2 SWAP1 DUP3 SWAP1 SUB ADD DUP2 DUP7 DUP1 EXTCODESIZE ISZERO DUP1 ISZERO PUSH3 0x890 JUMPI PUSH1 0x0 DUP1 REVERT JUMPDEST POP GAS STATICCALL ISZERO DUP1 ISZERO PUSH3 0x8A5 JUMPI RETURNDATASIZE PUSH1 0x0 DUP1 RETURNDATACOPY RETURNDATASIZE PUSH1 0x0 REVERT JUMPDEST POP POP POP POP PUSH1 0x40 MLOAD RETURNDATASIZE PUSH1 0x1F NOT PUSH1 0x1F DUP3 ADD AND DUP3 ADD DUP1 PUSH1 0x40 MSTORE POP DUP2 ADD SWAP1 PUSH3 0x8CB SWAP2 SWAP1 PUSH3 0x1EF5 JUMP JUMPDEST PUSH1 0x1 PUSH1 0x1 PUSH1 0xA0 SHL SUB AND EQ PUSH3 0x8DF JUMPI PUSH1 0x0 DUP1 REVERT JUMPDEST PUSH1 0x0 SLOAD PUSH1 0x40 MLOAD PUSH4 0x468AEB3B PUSH1 0xE1 SHL DUP2 MSTORE PUSH1 0x1 PUSH1 0x1 PUSH1 0xA0 SHL SUB SWAP1 SWAP2 AND SWAP1 PUSH4 0x8D15D676 SWAP1 PUSH3 0x911 SWAP1 DUP5 SWAP1 PUSH1 0x4 ADD PUSH3 0x20F8 JUMP JUMPDEST PUSH1 0x0 PUSH1 0x40 MLOAD DUP1 DUP4 SUB DUP2 PUSH1 0x0 DUP8 DUP1 EXTCODESIZE ISZERO DUP1 ISZERO PUSH3 0x92C JUMPI PUSH1 0x0 DUP1 REVERT JUMPDEST POP GAS CALL ISZERO DUP1 ISZERO PUSH3 0x941 JUMPI RETURNDATASIZE PUSH1 0x0 DUP1 RETURNDATACOPY RETURNDATASIZE PUSH1 0x0 REVERT JUMPDEST POP POP PUSH1 0x7 DUP1 SLOAD PUSH1 0xFF PUSH1 0xA0 SHL NOT AND PUSH1 0x1 PUSH1 0xA0 SHL SWAP1 DUP2 OR SWAP2 DUP3 SWAP1 SSTORE SWAP1 DIV PUSH1 0xFF AND SWAP2 POP POP DUP1 ISZERO PUSH3 0x978 JUMPI POP PUSH1 0x7 SLOAD PUSH1 0x1 PUSH1 0xA8 SHL SWAP1 DIV PUSH1 0xFF AND JUMPDEST ISZERO PUSH3 0x9E9 JUMPI PUSH1 0x7 PUSH1 0x0 SWAP1 SLOAD SWAP1 PUSH2 0x100 EXP SWAP1 DIV PUSH1 0x1 PUSH1 0x1 PUSH1 0xA0 SHL SUB AND PUSH1 0x1 PUSH1 0x1 PUSH1 0xA0 SHL SUB AND PUSH4 0x84C6E2C8 PUSH1 0x40 MLOAD DUP2 PUSH4 0xFFFFFFFF AND PUSH1 0xE0 SHL DUP2 MSTORE PUSH1 0x4 ADD PUSH1 0x0 PUSH1 0x40 MLOAD DUP1 DUP4 SUB DUP2 PUSH1 0x0 DUP8 DUP1 EXTCODESIZE ISZERO DUP1 ISZERO PUSH3 0x9CF JUMPI PUSH1 0x0 DUP1 REVERT JUMPDEST POP GAS CALL ISZERO DUP1 ISZERO PUSH3 0x9E4 JUMPI RETURNDATASIZE PUSH1 0x0 DUP1 RETURNDATACOPY RETURNDATASIZE PUSH1 0x0 REVERT JUMPDEST POP POP POP POP JUMPDEST POP JUMP JUMPDEST PUSH1 0x7 SLOAD PUSH1 0x6 SLOAD PUSH1 0x40 MLOAD PUSH4 0x66B3F6BF PUSH1 0xE0 SHL DUP2 MSTORE ORIGIN PUSH1 0x4 DUP3 ADD MSTORE PUSH3 0xAEF SWAP3 PUSH1 0x1 PUSH1 0x1 PUSH1 0xA0 SHL SUB SWAP1 DUP2 AND SWAP3 PUSH4 0x131E2F18 SWAP3 SWAP2 AND SWAP1 PUSH4 0x66B3F6BF SWAP1 PUSH1 0x24 ADD PUSH1 0x20 PUSH1 0x40 MLOAD DUP1 DUP4 SUB DUP2 DUP7 DUP1 EXTCODESIZE ISZERO DUP1 ISZERO PUSH3 0xA41 JUMPI PUSH1 0x0 DUP1 REVERT JUMPDEST POP GAS STATICCALL ISZERO DUP1 ISZERO PUSH3 0xA56 JUMPI RETURNDATASIZE PUSH1 0x0 DUP1 RETURNDATACOPY RETURNDATASIZE PUSH1 0x0 REVERT JUMPDEST POP POP POP POP PUSH1 0x40 MLOAD RETURNDATASIZE PUSH1 0x1F NOT PUSH1 0x1F DUP3 ADD AND DUP3 ADD DUP1 PUSH1 0x40 MSTORE POP DUP2 ADD SWAP1 PUSH3 0xA7C SWAP2 SWAP1 PUSH3 0x2066 JUMP JUMPDEST PUSH1 0x40 MLOAD DUP3 PUSH4 0xFFFFFFFF AND PUSH1 0xE0 SHL DUP2 MSTORE PUSH1 0x4 ADD PUSH3 0xA9B SWAP2 DUP2 MSTORE PUSH1 0x20 ADD SWAP1 JUMP JUMPDEST PUSH1 0x20 PUSH1 0x40 MLOAD DUP1 DUP4 SUB DUP2 DUP7 DUP1 EXTCODESIZE ISZERO DUP1 ISZERO PUSH3 0xAB4 JUMPI PUSH1 0x0 DUP1 REVERT JUMPDEST POP GAS STATICCALL ISZERO DUP1 ISZERO PUSH3 0xAC9 JUMPI RETURNDATASIZE PUSH1 0x0 DUP1 RETURNDATACOPY RETURNDATASIZE PUSH1 0x0 REVERT JUMPDEST POP POP POP POP PUSH1 0x40 MLOAD RETURNDATASIZE PUSH1 0x1F NOT PUSH1 0x1F DUP3 ADD AND DUP3 ADD DUP1 PUSH1 0x40 MSTORE POP DUP2 ADD SWAP1 PUSH3 0x3D4 SWAP2 SWAP1 PUSH3 0x2066 JUMP JUMPDEST JUMP JUMPDEST PUSH1 0x1 DUP3 SWAP1 SSTORE PUSH3 0xB01 DUP2 PUSH3 0x1D91 JUMP JUMPDEST PUSH1 0x2 SSTORE PUSH1 0x0 SLOAD PUSH1 0x40 MLOAD PUSH3 0x36B611 PUSH1 0xE4 SHL DUP2 MSTORE PUSH1 0x1 PUSH1 0x1 PUSH1 0xA0 SHL SUB SWAP1 SWAP2 AND SWAP1 PUSH4 0x36B6110 SWAP1 PUSH3 0xB35 SWAP1 DUP7 SWAP1 PUSH1 0x4 ADD PUSH3 0x20F8 JUMP JUMPDEST PUSH1 0x0 PUSH1 0x40 MLOAD DUP1 DUP4 SUB DUP2 PUSH1 0x0 DUP8 DUP1 EXTCODESIZE ISZERO DUP1 ISZERO PUSH3 0xB50 JUMPI PUSH1 0x0 DUP1 REVERT JUMPDEST POP GAS CALL ISZERO DUP1 ISZERO PUSH3 0xB65 JUMPI RETURNDATASIZE PUSH1 0x0 DUP1 RETURNDATACOPY RETURNDATASIZE PUSH1 0x0 REVERT JUMPDEST POP POP PUSH1 0x0 SLOAD PUSH1 0x40 MLOAD PUSH4 0x13AF4035 PUSH1 0xE0 SHL DUP2 MSTORE CALLER PUSH1 0x4 DUP3 ADD MSTORE PUSH1 0x1 PUSH1 0x1 PUSH1 0xA0 SHL SUB SWAP1 SWAP2 AND SWAP3 POP PUSH4 0x13AF4035 SWAP2 POP PUSH1 0x24 ADD PUSH1 0x0 PUSH1 0x40 MLOAD DUP1 DUP4 SUB DUP2 PUSH1 0x0 DUP8 DUP1 EXTCODESIZE ISZERO DUP1 ISZERO PUSH3 0xBAF JUMPI PUSH1 0x0 DUP1 REVERT JUMPDEST POP GAS CALL ISZERO DUP1 ISZERO PUSH3 0xBC4 JUMPI RETURNDATASIZE PUSH1 0x0 DUP1 RETURNDATACOPY RETURNDATASIZE PUSH1 0x0 REVERT JUMPDEST POP POP POP POP CALLER PUSH1 0x1 PUSH1 0x1 PUSH1 0xA0 SHL SUB AND PUSH32 0x66C0E157FDFF18242032CBE1AA0B731EB49FF6E593BCCBF1FDED370364610C19 DUP5 DUP5 PUSH1 0x2 SLOAD PUSH1 0x40 MLOAD PUSH3 0xC09 SWAP4 SWAP3 SWAP2 SWAP1 PUSH3 0x210D JUMP JUMPDEST PUSH1 0x40 MLOAD DUP1 SWAP2 SUB SWAP1 LOG2 POP POP POP JUMP JUMPDEST PUSH1 0x0 DUP1 SLOAD PUSH1 0x40 DUP1 MLOAD PUSH4 0x711A57D PUSH1 0xE2 SHL DUP2 MSTORE SWAP1 MLOAD PUSH1 0x60 SWAP4 PUSH1 0x1 PUSH1 0x1 PUSH1 0xA0 SHL SUB SWAP1 SWAP4 AND SWAP3 PUSH4 0x1C4695F4 SWAP3 PUSH1 0x4 DUP1 DUP3 ADD SWAP4 SWAP2 DUP3 SWAP1 SUB ADD DUP2 DUP7 DUP1 EXTCODESIZE ISZERO DUP1 ISZERO PUSH3 0x807 JUMPI PUSH1 0x0 DUP1 REVERT JUMPDEST PUSH1 0x4 DUP1 SLOAD PUSH1 0x40 MLOAD PUSH4 0x70A08231 PUSH1 0xE0 SHL DUP2 MSTORE PUSH1 0x1 PUSH1 0x1 PUSH1 0xA0 SHL SUB DUP5 DUP2 AND SWAP4 DUP3 ADD SWAP4 SWAP1 SWAP4 MSTORE PUSH1 0x0 SWAP3 SWAP1 SWAP2 AND SWAP1 PUSH4 0x70A08231 SWAP1 PUSH1 0x24 ADD PUSH1 0x20 PUSH1 0x40 MLOAD DUP1 DUP4 SUB DUP2 DUP7 DUP1 EXTCODESIZE ISZERO DUP1 ISZERO PUSH3 0xCA7 JUMPI PUSH1 0x0 DUP1 REVERT JUMPDEST POP GAS STATICCALL ISZERO DUP1 ISZERO PUSH3 0xCBC JUMPI RETURNDATASIZE PUSH1 0x0 DUP1 RETURNDATACOPY RETURNDATASIZE PUSH1 0x0 REVERT JUMPDEST POP POP POP POP PUSH1 0x40 MLOAD RETURNDATASIZE PUSH1 0x1F NOT PUSH1 0x1F DUP3 ADD AND DUP3 ADD DUP1 PUSH1 0x40 MSTORE POP DUP2 ADD SWAP1 PUSH3 0xCE2 SWAP2 SWAP1 PUSH3 0x2066 JUMP JUMPDEST SWAP3 SWAP2 POP POP JUMP JUMPDEST PUSH1 0x6 SLOAD PUSH1 0x40 MLOAD PUSH4 0x2E1A7D4D PUSH1 0xE0 SHL DUP2 MSTORE PUSH1 0x4 DUP2 ADD DUP4 SWAP1 MSTORE PUSH1 0x1 PUSH1 0x1 PUSH1 0xA0 SHL SUB SWAP1 SWAP2 AND SWAP1 PUSH4 0x2E1A7D4D SWAP1 PUSH1 0x24 ADD PUSH1 0x0 PUSH1 0x40 MLOAD DUP1 DUP4 SUB DUP2 PUSH1 0x0 DUP8 DUP1 EXTCODESIZE ISZERO DUP1 ISZERO PUSH3 0xD2F JUMPI PUSH1 0x0 DUP1 REVERT JUMPDEST POP GAS CALL ISZERO DUP1 ISZERO PUSH3 0xD44 JUMPI RETURNDATASIZE PUSH1 0x0 DUP1 RETURNDATACOPY RETURNDATASIZE PUSH1 0x0 REVERT JUMPDEST POP POP POP POP PUSH32 0x6A12F6DAC03652B58A50BBF88D534ACC4FE08E3D534D2E08DDE9E43C4ADBCB3F PUSH1 0x6 PUSH1 0x0 SWAP1 SLOAD SWAP1 PUSH2 0x100 EXP SWAP1 DIV PUSH1 0x1 PUSH1 0x1 PUSH1 0xA0 SHL SUB AND PUSH1 0x1 PUSH1 0x1 PUSH1 0xA0 SHL SUB AND PUSH4 0x8666107C PUSH1 0x40 MLOAD DUP2 PUSH4 0xFFFFFFFF AND PUSH1 0xE0 SHL DUP2 MSTORE PUSH1 0x4 ADD PUSH1 0x20 PUSH1 0x40 MLOAD DUP1 DUP4 SUB DUP2 DUP7 DUP1 EXTCODESIZE ISZERO DUP1 ISZERO PUSH3 0xDB8 JUMPI PUSH1 0x0 DUP1 REVERT JUMPDEST POP GAS STATICCALL ISZERO DUP1 ISZERO PUSH3 0xDCD JUMPI RETURNDATASIZE PUSH1 0x0 DUP1 RETURNDATACOPY RETURNDATASIZE PUSH1 0x0 REVERT JUMPDEST POP POP POP POP PUSH1 0x40 MLOAD RETURNDATASIZE PUSH1 0x1F NOT PUSH1 0x1F DUP3 ADD AND DUP3 ADD DUP1 PUSH1 0x40 MSTORE POP DUP2 ADD SWAP1 PUSH3 0xDF3 SWAP2 SWAP1 PUSH3 0x2066 JUMP JUMPDEST PUSH1 0x6 PUSH1 0x0 SWAP1 SLOAD SWAP1 PUSH2 0x100 EXP SWAP1 DIV PUSH1 0x1 PUSH1 0x1 PUSH1 0xA0 SHL SUB AND PUSH1 0x1 PUSH1 0x1 PUSH1 0xA0 SHL SUB AND PUSH4 0x74942C0F PUSH1 0x40 MLOAD DUP2 PUSH4 0xFFFFFFFF AND PUSH1 0xE0 SHL DUP2 MSTORE PUSH1 0x4 ADD PUSH1 0x20 PUSH1 0x40 MLOAD DUP1 DUP4 SUB DUP2 DUP7 DUP1 EXTCODESIZE ISZERO DUP1 ISZERO PUSH3 0xE42 JUMPI PUSH1 0x0 DUP1 REVERT JUMPDEST POP GAS STATICCALL ISZERO DUP1 ISZERO PUSH3 0xE57 JUMPI RETURNDATASIZE PUSH1 0x0 DUP1 RETURNDATACOPY RETURNDATASIZE PUSH1 0x0 REVERT JUMPDEST POP POP POP POP PUSH1 0x40 MLOAD RETURNDATASIZE PUSH1 0x1F NOT PUSH1 0x1F DUP3 ADD AND DUP3 ADD DUP1 PUSH1 0x40 MSTORE POP DUP2 ADD SWAP1 PUSH3 0xE7D SWAP2 SWAP1 PUSH3 0x2066 JUMP JUMPDEST PUSH1 0x40 DUP1 MLOAD SWAP3 DUP4 MSTORE PUSH1 0x20 DUP4 ADD SWAP2 SWAP1 SWAP2 MSTORE ADD JUMPDEST PUSH1 0x40 MLOAD DUP1 SWAP2 SUB SWAP1 LOG1 POP JUMP JUMPDEST PUSH1 0x0 DUP1 SLOAD PUSH1 0x40 DUP1 MLOAD PUSH4 0xD203ECD PUSH1 0xE3 SHL DUP2 MSTORE SWAP1 MLOAD PUSH1 0x1 PUSH1 0x1 PUSH1 0xA0 SHL SUB SWAP1 SWAP3 AND SWAP3 PUSH4 0x6901F668 SWAP3 PUSH1 0x4 DUP1 DUP5 ADD SWAP4 DUP3 SWAP1 SUB ADD DUP2 DUP4 DUP8 DUP1 EXTCODESIZE ISZERO DUP1 ISZERO PUSH3 0xEDB JUMPI PUSH1 0x0 DUP1 REVERT JUMPDEST POP GAS CALL ISZERO DUP1 ISZERO PUSH3 0xEF0 JUMPI RETURNDATASIZE PUSH1 0x0 DUP1 RETURNDATACOPY RETURNDATASIZE PUSH1 0x0 REVERT JUMPDEST POP POP POP POP PUSH1 0x0 DUP1 SLOAD SWAP1 PUSH2 0x100 EXP SWAP1 DIV PUSH1 0x1 PUSH1 0x1 PUSH1 0xA0 SHL SUB AND PUSH1 0x1 PUSH1 0x1 PUSH1 0xA0 SHL SUB AND PUSH4 0xAC7FDD39 PUSH1 0x40 MLOAD DUP2 PUSH4 0xFFFFFFFF AND PUSH1 0xE0 SHL DUP2 MSTORE PUSH1 0x4 ADD PUSH1 0x20 PUSH1 0x40 MLOAD DUP1 DUP4 SUB DUP2 DUP7 DUP1 EXTCODESIZE ISZERO DUP1 ISZERO PUSH3 0xF41 JUMPI PUSH1 0x0 DUP1 REVERT JUMPDEST POP GAS STATICCALL ISZERO DUP1 ISZERO PUSH3 0xF56 JUMPI RETURNDATASIZE PUSH1 0x0 DUP1 RETURNDATACOPY RETURNDATASIZE PUSH1 0x0 REVERT JUMPDEST POP POP POP POP PUSH1 0x40 MLOAD RETURNDATASIZE PUSH1 0x1F NOT PUSH1 0x1F DUP3 ADD AND DUP3 ADD DUP1 PUSH1 0x40 MSTORE POP DUP2 ADD SWAP1 PUSH3 0xF7C SWAP2 SWAP1 PUSH3 0x1F15 JUMP JUMPDEST ISZERO PUSH3 0xFED JUMPI PUSH1 0x7 PUSH1 0x0 SWAP1 SLOAD SWAP1 PUSH2 0x100 EXP SWAP1 DIV PUSH1 0x1 PUSH1 0x1 PUSH1 0xA0 SHL SUB AND PUSH1 0x1 PUSH1 0x1 PUSH1 0xA0 SHL SUB AND PUSH4 0xEFFC1FE0 PUSH1 0x40 MLOAD DUP2 PUSH4 0xFFFFFFFF AND PUSH1 0xE0 SHL DUP2 MSTORE PUSH1 0x4 ADD PUSH1 0x0 PUSH1 0x40 MLOAD DUP1 DUP4 SUB DUP2 PUSH1 0x0 DUP8 DUP1 EXTCODESIZE ISZERO DUP1 ISZERO PUSH3 0xFD3 JUMPI PUSH1 0x0 DUP1 REVERT JUMPDEST POP GAS CALL ISZERO DUP1 ISZERO PUSH3 0xFE8 JUMPI RETURNDATASIZE PUSH1 0x0 DUP1 RETURNDATACOPY RETURNDATASIZE PUSH1 0x0 REVERT JUMPDEST POP POP POP POP JUMPDEST PUSH1 0x0 DUP1 SLOAD PUSH1 0x40 DUP1 MLOAD PUSH4 0x145264AB PUSH1 0xE3 SHL DUP2 MSTORE SWAP1 MLOAD CALLER SWAP4 PUSH32 0xD745E77520D6AAB6AC2E6C9E597B7A9D8F8BF270FFA7234028791F24C594CAFC SWAP4 PUSH1 0x1 PUSH1 0x1 PUSH1 0xA0 SHL SUB AND SWAP3 PUSH4 0xA2932558 SWAP3 PUSH1 0x4 DUP1 DUP4 ADD SWAP4 SWAP3 DUP3 SWAP1 SUB ADD DUP2 DUP7 DUP1 EXTCODESIZE ISZERO DUP1 ISZERO PUSH3 0x1051 JUMPI PUSH1 0x0 DUP1 REVERT JUMPDEST POP GAS STATICCALL ISZERO DUP1 ISZERO PUSH3 0x1066 JUMPI RETURNDATASIZE PUSH1 0x0 DUP1 RETURNDATACOPY RETURNDATASIZE PUSH1 0x0 REVERT JUMPDEST POP POP POP POP PUSH1 0x40 MLOAD RETURNDATASIZE PUSH1 0x0 DUP3 RETURNDATACOPY PUSH1 0x1F RETURNDATASIZE SWAP1 DUP2 ADD PUSH1 0x1F NOT AND DUP3 ADD PUSH1 0x40 MSTORE PUSH3 0x1090 SWAP2 SWAP1 DUP2 ADD SWAP1 PUSH3 0x1F7A JUMP JUMPDEST PUSH1 0x40 MLOAD PUSH3 0x109F SWAP2 SWAP1 PUSH3 0x20F8 JUMP JUMPDEST PUSH1 0x40 MLOAD DUP1 SWAP2 SUB SWAP1 LOG2 JUMP JUMPDEST PUSH1 0x4 DUP1 SLOAD PUSH1 0x6 SLOAD PUSH1 0x40 MLOAD PUSH4 0xE1F21C67 PUSH1 0xE0 SHL DUP2 MSTORE ORIGIN SWAP4 DUP2 ADD SWAP4 SWAP1 SWAP4 MSTORE PUSH1 0x1 PUSH1 0x1 PUSH1 0xA0 SHL SUB SWAP1 DUP2 AND PUSH1 0x24 DUP5 ADD MSTORE PUSH1 0x44 DUP4 ADD DUP5 SWAP1 MSTORE AND SWAP1 PUSH4 0xE1F21C67 SWAP1 PUSH1 0x64 ADD PUSH1 0x0 PUSH1 0x40 MLOAD DUP1 DUP4 SUB DUP2 PUSH1 0x0 DUP8 DUP1 EXTCODESIZE ISZERO DUP1 ISZERO PUSH3 0x1102 JUMPI PUSH1 0x0 DUP1 REVERT JUMPDEST POP GAS CALL ISZERO DUP1 ISZERO PUSH3 0x1117 JUMPI RETURNDATASIZE PUSH1 0x0 DUP1 RETURNDATACOPY RETURNDATASIZE PUSH1 0x0 REVERT JUMPDEST POP POP PUSH1 0x6 SLOAD PUSH1 0x40 MLOAD PUSH4 0x37AF19D3 PUSH1 0xE2 SHL DUP2 MSTORE PUSH1 0x4 DUP2 ADD DUP6 SWAP1 MSTORE PUSH1 0x1 PUSH1 0x1 PUSH1 0xA0 SHL SUB SWAP1 SWAP2 AND SWAP3 POP PUSH4 0xDEBC674C SWAP2 POP PUSH1 0x24 ADD PUSH1 0x0 PUSH1 0x40 MLOAD DUP1 DUP4 SUB DUP2 PUSH1 0x0 DUP8 DUP1 EXTCODESIZE ISZERO DUP1 ISZERO PUSH3 0x1162 JUMPI PUSH1 0x0 DUP1 REVERT JUMPDEST POP GAS CALL ISZERO DUP1 ISZERO PUSH3 0x1177 JUMPI RETURNDATASIZE PUSH1 0x0 DUP1 RETURNDATACOPY RETURNDATASIZE PUSH1 0x0 REVERT JUMPDEST POP POP POP POP PUSH32 0xF3DA8EDF69F7653A76E82879AE64FE7833D633C94E285AD53AA241A27E63B867 DUP2 PUSH1 0x6 PUSH1 0x0 SWAP1 SLOAD SWAP1 PUSH2 0x100 EXP SWAP1 DIV PUSH1 0x1 PUSH1 0x1 PUSH1 0xA0 SHL SUB AND PUSH1 0x1 PUSH1 0x1 PUSH1 0xA0 SHL SUB AND PUSH4 0x8666107C PUSH1 0x40 MLOAD DUP2 PUSH4 0xFFFFFFFF AND PUSH1 0xE0 SHL DUP2 MSTORE PUSH1 0x4 ADD PUSH1 0x20 PUSH1 0x40 MLOAD DUP1 DUP4 SUB DUP2 DUP7 DUP1 EXTCODESIZE ISZERO DUP1 ISZERO PUSH3 0xE42 JUMPI PUSH1 0x0 DUP1 REVERT JUMPDEST PUSH1 0x6 SLOAD PUSH1 0x40 DUP1 MLOAD PUSH4 0x82B2E257 PUSH1 0xE0 SHL DUP2 MSTORE SWAP1 MLOAD PUSH1 0x0 SWAP3 PUSH1 0x1 PUSH1 0x1 PUSH1 0xA0 SHL SUB AND SWAP2 PUSH4 0x82B2E257 SWAP2 PUSH1 0x4 DUP1 DUP4 ADD SWAP3 PUSH1 0x20 SWAP3 SWAP2 SWAP1 DUP3 SWAP1 SUB ADD DUP2 DUP7 DUP1 EXTCODESIZE ISZERO DUP1 ISZERO PUSH3 0x1232 JUMPI PUSH1 0x0 DUP1 REVERT JUMPDEST POP GAS STATICCALL ISZERO DUP1 ISZERO PUSH3 0x1247 JUMPI RETURNDATASIZE PUSH1 0x0 DUP1 RETURNDATACOPY RETURNDATASIZE PUSH1 0x0 REVERT JUMPDEST POP POP POP POP PUSH1 0x40 MLOAD RETURNDATASIZE PUSH1 0x1F NOT PUSH1 0x1F DUP3 ADD AND DUP3 ADD DUP1 PUSH1 0x40 MSTORE POP DUP2 ADD SWAP1 PUSH3 0x846 SWAP2 SWAP1 PUSH3 0x2066 JUMP JUMPDEST CALLVALUE PUSH1 0x3 SSTORE PUSH1 0x40 MLOAD DUP2 SWAP1 PUSH3 0x1281 SWAP1 PUSH3 0x1E64 JUMP JUMPDEST SWAP1 DUP2 MSTORE PUSH1 0x20 ADD PUSH1 0x40 MLOAD DUP1 SWAP2 SUB SWAP1 PUSH1 0x0 CREATE DUP1 ISZERO DUP1 ISZERO PUSH3 0x12A4 JUMPI RETURNDATASIZE PUSH1 0x0 DUP1 RETURNDATACOPY RETURNDATASIZE PUSH1 0x0 REVERT JUMPDEST POP PUSH1 0x4 DUP1 SLOAD PUSH1 0x1 PUSH1 0x1 PUSH1 0xA0 SHL SUB NOT AND PUSH1 0x1 PUSH1 0x1 PUSH1 0xA0 SHL SUB SWAP3 SWAP1 SWAP3 AND SWAP2 DUP3 OR DUP2 SSTORE PUSH1 0x40 DUP1 MLOAD PUSH4 0x313CE567 PUSH1 0xE0 SHL DUP2 MSTORE SWAP1 MLOAD PUSH1 0x0 SWAP4 SWAP3 PUSH4 0x313CE567 SWAP3 DUP1 DUP3 ADD SWAP3 PUSH1 0x20 SWAP3 SWAP1 SWAP2 DUP3 SWAP1 SUB ADD DUP2 DUP7 DUP1 EXTCODESIZE ISZERO DUP1 ISZERO PUSH3 0x12FC JUMPI PUSH1 0x0 DUP1 REVERT JUMPDEST POP GAS STATICCALL ISZERO DUP1 ISZERO PUSH3 0x1311 JUMPI RETURNDATASIZE PUSH1 0x0 DUP1 RETURNDATACOPY RETURNDATASIZE PUSH1 0x0 REVERT JUMPDEST POP POP POP POP PUSH1 0x40 MLOAD RETURNDATASIZE PUSH1 0x1F NOT PUSH1 0x1F DUP3 ADD AND DUP3 ADD DUP1 PUSH1 0x40 MSTORE POP DUP2 ADD SWAP1 PUSH3 0x1337 SWAP2 SWAP1 PUSH3 0x20A5 JUMP JUMPDEST PUSH3 0x1347 SWAP1 PUSH1 0xFF AND PUSH1 0xA PUSH3 0x21F7 JUMP JUMPDEST PUSH3 0x1353 SWAP1 DUP4 PUSH3 0x22B3 JUMP JUMPDEST PUSH1 0x5 DUP2 SWAP1 SSTORE PUSH1 0x4 DUP1 SLOAD PUSH1 0x6 SLOAD PUSH1 0x40 DUP1 MLOAD PUSH4 0x18160DDD PUSH1 0xE0 SHL DUP2 MSTORE SWAP1 MLOAD SWAP5 SWAP6 POP PUSH1 0x1 PUSH1 0x1 PUSH1 0xA0 SHL SUB SWAP3 DUP4 AND SWAP5 PUSH4 0xE1F21C67 SWAP5 ORIGIN SWAP5 SWAP1 SWAP4 AND SWAP3 DUP7 SWAP3 PUSH4 0x18160DDD SWAP3 DUP2 DUP4 ADD SWAP3 PUSH1 0x20 SWAP3 DUP3 SWAP1 SUB ADD DUP2 DUP7 DUP1 EXTCODESIZE ISZERO DUP1 ISZERO PUSH3 0x13AE JUMPI PUSH1 0x0 DUP1 REVERT JUMPDEST POP GAS STATICCALL ISZERO DUP1 ISZERO PUSH3 0x13C3 JUMPI RETURNDATASIZE PUSH1 0x0 DUP1 RETURNDATACOPY RETURNDATASIZE PUSH1 0x0 REVERT JUMPDEST POP POP POP POP PUSH1 0x40 MLOAD RETURNDATASIZE PUSH1 0x1F NOT PUSH1 0x1F DUP3 ADD AND DUP3 ADD DUP1 PUSH1 0x40 MSTORE POP DUP2 ADD SWAP1 PUSH3 0x13E9 SWAP2 SWAP1 PUSH3 0x2066 JUMP JUMPDEST PUSH1 0x40 MLOAD PUSH1 0x1 PUSH1 0x1 PUSH1 0xE0 SHL SUB NOT PUSH1 0xE0 DUP7 SWAP1 SHL AND DUP2 MSTORE PUSH1 0x1 PUSH1 0x1 PUSH1 0xA0 SHL SUB SWAP4 DUP5 AND PUSH1 0x4 DUP3 ADD MSTORE SWAP3 SWAP1 SWAP2 AND PUSH1 0x24 DUP4 ADD MSTORE PUSH1 0x44 DUP3 ADD MSTORE PUSH1 0x64 ADD PUSH1 0x0 PUSH1 0x40 MLOAD DUP1 DUP4 SUB DUP2 PUSH1 0x0 DUP8 DUP1 EXTCODESIZE ISZERO DUP1 ISZERO PUSH3 0x1439 JUMPI PUSH1 0x0 DUP1 REVERT JUMPDEST POP GAS CALL ISZERO DUP1 ISZERO PUSH3 0x144E JUMPI RETURNDATASIZE PUSH1 0x0 DUP1 RETURNDATACOPY RETURNDATASIZE PUSH1 0x0 REVERT JUMPDEST POP POP PUSH1 0x6 SLOAD PUSH1 0x4 DUP1 SLOAD PUSH1 0x40 MLOAD PUSH4 0xCD6DC687 PUSH1 0xE0 SHL DUP2 MSTORE PUSH1 0x1 PUSH1 0x1 PUSH1 0xA0 SHL SUB SWAP2 DUP3 AND SWAP3 DUP2 ADD SWAP3 SWAP1 SWAP3 MSTORE PUSH1 0x24 DUP3 ADD DUP7 SWAP1 MSTORE SWAP1 SWAP2 AND SWAP3 POP PUSH4 0xCD6DC687 SWAP2 POP CALLVALUE SWAP1 PUSH1 0x44 ADD PUSH1 0x0 PUSH1 0x40 MLOAD DUP1 DUP4 SUB DUP2 DUP6 DUP9 DUP1 EXTCODESIZE ISZERO DUP1 ISZERO PUSH3 0x14A8 JUMPI PUSH1 0x0 DUP1 REVERT JUMPDEST POP GAS CALL ISZERO DUP1 ISZERO PUSH3 0x14BD JUMPI RETURNDATASIZE PUSH1 0x0 DUP1 RETURNDATACOPY RETURNDATASIZE PUSH1 0x0 REVERT JUMPDEST POP POP PUSH1 0x7 SLOAD PUSH1 0x1 SLOAD PUSH1 0x3 SLOAD PUSH1 0x40 MLOAD PUSH4 0x9F8AF9DD PUSH1 0xE0 SHL DUP2 MSTORE PUSH1 0x4 DUP2 ADD SWAP3 SWAP1 SWAP3 MSTORE PUSH1 0x24 DUP3 ADD MSTORE PUSH1 0x1 PUSH1 0x1 PUSH1 0xA0 SHL SUB SWAP1 SWAP2 AND SWAP4 POP PUSH4 0x9F8AF9DD SWAP3 POP PUSH1 0x44 ADD SWAP1 POP PUSH1 0x0 PUSH1 0x40 MLOAD DUP1 DUP4 SUB DUP2 PUSH1 0x0 DUP8 DUP1 EXTCODESIZE ISZERO DUP1 ISZERO PUSH3 0x1516 JUMPI PUSH1 0x0 DUP1 REVERT JUMPDEST POP GAS CALL ISZERO DUP1 ISZERO PUSH3 0x152B JUMPI RETURNDATASIZE PUSH1 0x0 DUP1 RETURNDATACOPY RETURNDATASIZE PUSH1 0x0 REVERT JUMPDEST POP POP PUSH1 0x40 DUP1 MLOAD DUP5 DUP2 MSTORE CALLVALUE PUSH1 0x20 DUP3 ADD MSTORE PUSH32 0xF0498CB22B56641ED33901DF52BA1CA98815BF7428AAF69CB0A27C0F94CACC0D SWAP4 POP ADD SWAP1 POP PUSH1 0x40 MLOAD DUP1 SWAP2 SUB SWAP1 LOG1 POP POP JUMP JUMPDEST PUSH1 0x4 DUP1 SLOAD PUSH1 0x40 MLOAD PUSH4 0x70A08231 PUSH1 0xE0 SHL DUP2 MSTORE ORIGIN SWAP3 DUP2 ADD SWAP3 SWAP1 SWAP3 MSTORE PUSH1 0x0 SWAP2 PUSH1 0x1 PUSH1 0x1 PUSH1 0xA0 SHL SUB SWAP1 SWAP2 AND SWAP1 PUSH4 0x70A08231 SWAP1 PUSH1 0x24 ADD PUSH1 0x20 PUSH1 0x40 MLOAD DUP1 DUP4 SUB DUP2 DUP7 DUP1 EXTCODESIZE ISZERO DUP1 ISZERO PUSH3 0x1232 JUMPI PUSH1 0x0 DUP1 REVERT JUMPDEST PUSH1 0x0 PUSH3 0x15C3 CALLVALUE PUSH3 0x1DAE JUMP JUMPDEST SWAP1 POP PUSH3 0x15CF PUSH3 0x156C JUMP JUMPDEST DUP2 GT ISZERO PUSH3 0x1636 JUMPI PUSH1 0x4 DUP1 SLOAD PUSH1 0x40 MLOAD PUSH4 0x4A7DD523 PUSH1 0xE0 SHL DUP2 MSTORE SWAP2 DUP3 ADD DUP4 SWAP1 MSTORE PUSH1 0x1 PUSH1 0x1 PUSH1 0xA0 SHL SUB AND SWAP1 PUSH4 0x4A7DD523 SWAP1 PUSH1 0x24 ADD PUSH1 0x0 PUSH1 0x40 MLOAD DUP1 DUP4 SUB DUP2 PUSH1 0x0 DUP8 DUP1 EXTCODESIZE ISZERO DUP1 ISZERO PUSH3 0x161C JUMPI PUSH1 0x0 DUP1 REVERT JUMPDEST POP GAS CALL ISZERO DUP1 ISZERO PUSH3 0x1631 JUMPI RETURNDATASIZE PUSH1 0x0 DUP1 RETURNDATACOPY RETURNDATASIZE PUSH1 0x0 REVERT JUMPDEST POP POP POP POP JUMPDEST PUSH1 0x4 SLOAD PUSH1 0x6 SLOAD PUSH1 0x1 PUSH1 0x1 PUSH1 0xA0 SHL SUB SWAP2 DUP3 AND SWAP2 PUSH4 0xE1F21C67 SWAP2 ORIGIN SWAP2 AND PUSH3 0x165C CALLVALUE PUSH3 0x1DAE JUMP JUMPDEST PUSH1 0x40 MLOAD PUSH1 0x1 PUSH1 0x1 PUSH1 0xE0 SHL SUB NOT PUSH1 0xE0 DUP7 SWAP1 SHL AND DUP2 MSTORE PUSH1 0x1 PUSH1 0x1 PUSH1 0xA0 SHL SUB SWAP4 DUP5 AND PUSH1 0x4 DUP3 ADD MSTORE SWAP3 SWAP1 SWAP2 AND PUSH1 0x24 DUP4 ADD MSTORE PUSH1 0x44 DUP3 ADD MSTORE PUSH1 0x64 ADD PUSH1 0x0 PUSH1 0x40 MLOAD DUP1 DUP4 SUB DUP2 PUSH1 0x0 DUP8 DUP1 EXTCODESIZE ISZERO DUP1 ISZERO PUSH3 0x16AC JUMPI PUSH1 0x0 DUP1 REVERT JUMPDEST POP GAS CALL ISZERO DUP1 ISZERO PUSH3 0x16C1 JUMPI RETURNDATASIZE PUSH1 0x0 DUP1 RETURNDATACOPY RETURNDATASIZE PUSH1 0x0 REVERT JUMPDEST POP POP POP POP PUSH1 0x6 PUSH1 0x0 SWAP1 SLOAD SWAP1 PUSH2 0x100 EXP SWAP1 DIV PUSH1 0x1 PUSH1 0x1 PUSH1 0xA0 SHL SUB AND PUSH1 0x1 PUSH1 0x1 PUSH1 0xA0 SHL SUB AND PUSH4 0xD0E30DB0 CALLVALUE PUSH1 0x40 MLOAD DUP3 PUSH4 0xFFFFFFFF AND PUSH1 0xE0 SHL DUP2 MSTORE PUSH1 0x4 ADD PUSH1 0x0 PUSH1 0x40 MLOAD DUP1 DUP4 SUB DUP2 DUP6 DUP9 DUP1 EXTCODESIZE ISZERO DUP1 ISZERO PUSH3 0x1716 JUMPI PUSH1 0x0 DUP1 REVERT JUMPDEST POP GAS CALL ISZERO DUP1 ISZERO PUSH3 0x172B JUMPI RETURNDATASIZE PUSH1 0x0 DUP1 RETURNDATACOPY RETURNDATASIZE PUSH1 0x0 REVERT JUMPDEST POP POP POP POP POP PUSH32 0x62B16C68815E64E71E004AD1900BFEEFA3A6EB2FEC66B573210155DE12FD5E7B PUSH1 0x6 PUSH1 0x0 SWAP1 SLOAD SWAP1 PUSH2 0x100 EXP SWAP1 DIV PUSH1 0x1 PUSH1 0x1 PUSH1 0xA0 SHL SUB AND PUSH1 0x1 PUSH1 0x1 PUSH1 0xA0 SHL SUB AND PUSH4 0x707E7E87 PUSH1 0x40 MLOAD DUP2 PUSH4 0xFFFFFFFF AND PUSH1 0xE0 SHL DUP2 MSTORE PUSH1 0x4 ADD PUSH1 0x20 PUSH1 0x40 MLOAD DUP1 DUP4 SUB DUP2 DUP7 DUP1 EXTCODESIZE ISZERO DUP1 ISZERO PUSH3 0x17A0 JUMPI PUSH1 0x0 DUP1 REVERT JUMPDEST POP GAS STATICCALL ISZERO DUP1 ISZERO PUSH3 0x17B5 JUMPI RETURNDATASIZE PUSH1 0x0 DUP1 RETURNDATACOPY RETURNDATASIZE PUSH1 0x0 REVERT JUMPDEST POP POP POP POP PUSH1 0x40 MLOAD RETURNDATASIZE PUSH1 0x1F NOT PUSH1 0x1F DUP3 ADD AND DUP3 ADD DUP1 PUSH1 0x40 MSTORE POP DUP2 ADD SWAP1 PUSH3 0x17DB SWAP2 SWAP1 PUSH3 0x2066 JUMP JUMPDEST PUSH1 0x40 MLOAD SWAP1 DUP2 MSTORE PUSH1 0x20 ADD PUSH3 0xE8E JUMP JUMPDEST PUSH1 0x7 SLOAD PUSH1 0x40 DUP1 MLOAD PUSH4 0x16273917 PUSH1 0xE1 SHL DUP2 MSTORE SWAP1 MLOAD PUSH1 0x0 SWAP3 PUSH1 0x1 PUSH1 0x1 PUSH1 0xA0 SHL SUB AND SWAP2 PUSH4 0x2C4E722E SWAP2 PUSH1 0x4 DUP1 DUP4 ADD SWAP3 PUSH1 0x20 SWAP3 SWAP2 SWAP1 DUP3 SWAP1 SUB ADD DUP2 DUP7 DUP1 EXTCODESIZE ISZERO DUP1 ISZERO PUSH3 0x1232 JUMPI PUSH1 0x0 DUP1 REVERT JUMPDEST PUSH1 0x0 DUP1 SLOAD PUSH1 0x40 DUP1 MLOAD PUSH4 0x5836E0B5 PUSH1 0xE0 SHL DUP2 MSTORE SWAP1 MLOAD PUSH1 0x1 PUSH1 0x1 PUSH1 0xA0 SHL SUB SWAP1 SWAP3 AND SWAP3 PUSH4 0x5836E0B5 SWAP3 PUSH1 0x4 DUP1 DUP5 ADD SWAP4 DUP3 SWAP1 SUB ADD DUP2 DUP4 DUP8 DUP1 EXTCODESIZE ISZERO DUP1 ISZERO PUSH3 0x1872 JUMPI PUSH1 0x0 DUP1 REVERT JUMPDEST POP GAS CALL ISZERO DUP1 ISZERO PUSH3 0x1887 JUMPI RETURNDATASIZE PUSH1 0x0 DUP1 RETURNDATACOPY RETURNDATASIZE PUSH1 0x0 REVERT JUMPDEST POP POP PUSH1 0x0 DUP1 SLOAD PUSH1 0x40 DUP1 MLOAD PUSH4 0x145264AB PUSH1 0xE3 SHL DUP2 MSTORE SWAP1 MLOAD CALLER SWAP6 POP PUSH32 0x7832ED08FA8E9BF7D3FFA10FB5BCDB96F474BE17F79B657BB7F23FACB23A898B SWAP5 POP PUSH1 0x1 PUSH1 0x1 PUSH1 0xA0 SHL SUB SWAP1 SWAP3 AND SWAP3 PUSH4 0xA2932558 SWAP3 PUSH1 0x4 DUP1 DUP5 ADD SWAP4 DUP3 SWAP1 SUB ADD DUP2 DUP7 DUP1 EXTCODESIZE ISZERO DUP1 ISZERO PUSH3 0x1051 JUMPI PUSH1 0x0 DUP1 REVERT JUMPDEST PUSH1 0x0 SLOAD PUSH1 0x40 DUP1 MLOAD PUSH4 0x8DA5CB5B PUSH1 0xE0 SHL DUP2 MSTORE SWAP1 MLOAD CALLER SWAP3 PUSH1 0x1 PUSH1 0x1 PUSH1 0xA0 SHL SUB AND SWAP2 PUSH4 0x8DA5CB5B SWAP2 PUSH1 0x4 DUP1 DUP4 ADD SWAP3 PUSH1 0x20 SWAP3 SWAP2 SWAP1 DUP3 SWAP1 SUB ADD DUP2 DUP7 DUP1 EXTCODESIZE ISZERO DUP1 ISZERO PUSH3 0x1935 JUMPI PUSH1 0x0 DUP1 REVERT JUMPDEST POP GAS STATICCALL ISZERO DUP1 ISZERO PUSH3 0x194A JUMPI RETURNDATASIZE PUSH1 0x0 DUP1 RETURNDATACOPY RETURNDATASIZE PUSH1 0x0 REVERT JUMPDEST POP POP POP POP PUSH1 0x40 MLOAD RETURNDATASIZE PUSH1 0x1F NOT PUSH1 0x1F DUP3 ADD AND DUP3 ADD DUP1 PUSH1 0x40 MSTORE POP DUP2 ADD SWAP1 PUSH3 0x1970 SWAP2 SWAP1 PUSH3 0x1EF5 JUMP JUMPDEST PUSH1 0x1 PUSH1 0x1 PUSH1 0xA0 SHL SUB AND EQ PUSH3 0x1984 JUMPI PUSH1 0x0 DUP1 REVERT JUMPDEST PUSH1 0x0 SLOAD PUSH1 0x40 MLOAD PUSH4 0x1D846C65 PUSH1 0xE0 SHL DUP2 MSTORE PUSH1 0x1 PUSH1 0x1 PUSH1 0xA0 SHL SUB SWAP1 SWAP2 AND SWAP1 PUSH4 0x1D846C65 SWAP1 PUSH3 0x19B6 SWAP1 DUP5 SWAP1 PUSH1 0x4 ADD PUSH3 0x20F8 JUMP JUMPDEST PUSH1 0x0 PUSH1 0x40 MLOAD DUP1 DUP4 SUB DUP2 PUSH1 0x0 DUP8 DUP1 EXTCODESIZE ISZERO DUP1 ISZERO PUSH3 0x19D1 JUMPI PUSH1 0x0 DUP1 REVERT JUMPDEST POP GAS CALL ISZERO DUP1 ISZERO PUSH3 0x19E6 JUMPI RETURNDATASIZE PUSH1 0x0 DUP1 RETURNDATACOPY RETURNDATASIZE PUSH1 0x0 REVERT JUMPDEST POP POP PUSH1 0x7 DUP1 SLOAD PUSH1 0xFF PUSH1 0xA8 SHL NOT AND PUSH1 0x1 PUSH1 0xA8 SHL OR SWAP1 DUP2 SWAP1 SSTORE PUSH1 0x1 PUSH1 0xA0 SHL SWAP1 DIV PUSH1 0xFF AND SWAP2 POP POP DUP1 ISZERO PUSH3 0x978 JUMPI POP PUSH1 0x7 SLOAD PUSH1 0x1 PUSH1 0xA8 SHL SWAP1 DIV PUSH1 0xFF AND ISZERO PUSH3 0x9E9 JUMPI PUSH1 0x7 PUSH1 0x0 SWAP1 SLOAD SWAP1 PUSH2 0x100 EXP SWAP1 DIV PUSH1 0x1 PUSH1 0x1 PUSH1 0xA0 SHL SUB AND PUSH1 0x1 PUSH1 0x1 PUSH1 0xA0 SHL SUB AND PUSH4 0x84C6E2C8 PUSH1 0x40 MLOAD DUP2 PUSH4 0xFFFFFFFF AND PUSH1 0xE0 SHL DUP2 MSTORE PUSH1 0x4 ADD PUSH1 0x0 PUSH1 0x40 MLOAD DUP1 DUP4 SUB DUP2 PUSH1 0x0 DUP8 DUP1 EXTCODESIZE ISZERO DUP1 ISZERO PUSH3 0x9CF JUMPI PUSH1 0x0 DUP1 REVERT JUMPDEST PUSH1 0x0 PUSH1 0x4 PUSH1 0x0 SWAP1 SLOAD SWAP1 PUSH2 0x100 EXP SWAP1 DIV PUSH1 0x1 PUSH1 0x1 PUSH1 0xA0 SHL SUB AND PUSH1 0x1 PUSH1 0x1 PUSH1 0xA0 SHL SUB AND PUSH4 0x18160DDD PUSH1 0x40 MLOAD DUP2 PUSH4 0xFFFFFFFF AND PUSH1 0xE0 SHL DUP2 MSTORE PUSH1 0x4 ADD PUSH1 0x20 PUSH1 0x40 MLOAD DUP1 DUP4 SUB DUP2 DUP7 DUP1 EXTCODESIZE ISZERO DUP1 ISZERO PUSH3 0x1232 JUMPI PUSH1 0x0 DUP1 REVERT JUMPDEST PUSH1 0x6 SLOAD PUSH1 0x40 DUP1 MLOAD PUSH4 0x63E77A5 PUSH1 0xE3 SHL DUP2 MSTORE SWAP1 MLOAD PUSH1 0x0 SWAP3 PUSH1 0x1 PUSH1 0x1 PUSH1 0xA0 SHL SUB AND SWAP2 PUSH4 0x31F3BD28 SWAP2 PUSH1 0x4 DUP1 DUP4 ADD SWAP3 PUSH1 0x20 SWAP3 SWAP2 SWAP1 DUP3 SWAP1 SUB ADD DUP2 DUP7 DUP1 EXTCODESIZE ISZERO DUP1 ISZERO PUSH3 0x1232 JUMPI PUSH1 0x0 DUP1 REVERT JUMPDEST PUSH1 0x6 SLOAD PUSH1 0x40 DUP1 MLOAD PUSH3 0x9032FF PUSH1 0xE5 SHL DUP2 MSTORE SWAP1 MLOAD PUSH1 0x0 SWAP3 PUSH1 0x1 PUSH1 0x1 PUSH1 0xA0 SHL SUB AND SWAP2 PUSH4 0x12065FE0 SWAP2 PUSH1 0x4 DUP1 DUP4 ADD SWAP3 PUSH1 0x20 SWAP3 SWAP2 SWAP1 DUP3 SWAP1 SUB ADD DUP2 DUP7 DUP1 EXTCODESIZE ISZERO DUP1 ISZERO PUSH3 0x1232 JUMPI PUSH1 0x0 DUP1 REVERT JUMPDEST PUSH1 0x6 SLOAD PUSH1 0x40 DUP1 MLOAD PUSH4 0x82B2E257 PUSH1 0xE0 SHL DUP2 MSTORE SWAP1 MLOAD PUSH1 0x0 SWAP3 PUSH1 0x1 PUSH1 0x1 PUSH1 0xA0 SHL SUB AND SWAP2 PUSH4 0x82B2E257 SWAP2 PUSH1 0x4 DUP1 DUP4 ADD SWAP3 PUSH1 0x20 SWAP3 SWAP2 SWAP1 DUP3 SWAP1 SUB ADD DUP2 DUP7 DUP1 EXTCODESIZE ISZERO DUP1 ISZERO PUSH3 0x1B98 JUMPI PUSH1 0x0 DUP1 REVERT JUMPDEST POP GAS STATICCALL ISZERO DUP1 ISZERO PUSH3 0x1BAD JUMPI RETURNDATASIZE PUSH1 0x0 DUP1 RETURNDATACOPY RETURNDATASIZE PUSH1 0x0 REVERT JUMPDEST POP POP POP POP PUSH1 0x40 MLOAD RETURNDATASIZE PUSH1 0x1F NOT PUSH1 0x1F DUP3 ADD AND DUP3 ADD DUP1 PUSH1 0x40 MSTORE POP DUP2 ADD SWAP1 PUSH3 0x1BD3 SWAP2 SWAP1 PUSH3 0x2066 JUMP JUMPDEST PUSH1 0x5 SLOAD PUSH3 0x1BE2 SWAP2 SWAP1 PUSH3 0x22D5 JUMP JUMPDEST SWAP1 POP PUSH3 0x1BEE PUSH3 0x156C JUMP JUMPDEST DUP2 GT ISZERO PUSH3 0x1C55 JUMPI PUSH1 0x4 DUP1 SLOAD PUSH1 0x40 MLOAD PUSH4 0x4A7DD523 PUSH1 0xE0 SHL DUP2 MSTORE SWAP2 DUP3 ADD DUP4 SWAP1 MSTORE PUSH1 0x1 PUSH1 0x1 PUSH1 0xA0 SHL SUB AND SWAP1 PUSH4 0x4A7DD523 SWAP1 PUSH1 0x24 ADD PUSH1 0x0 PUSH1 0x40 MLOAD DUP1 DUP4 SUB DUP2 PUSH1 0x0 DUP8 DUP1 EXTCODESIZE ISZERO DUP1 ISZERO PUSH3 0x1C3B JUMPI PUSH1 0x0 DUP1 REVERT JUMPDEST POP GAS CALL ISZERO DUP1 ISZERO PUSH3 0x1C50 JUMPI RETURNDATASIZE PUSH1 0x0 DUP1 RETURNDATACOPY RETURNDATASIZE PUSH1 0x0 REVERT JUMPDEST POP POP POP POP JUMPDEST PUSH3 0x9E9 DUP2 PUSH3 0x10A9 JUMP JUMPDEST PUSH1 0x6 PUSH1 0x0 SWAP1 SLOAD SWAP1 PUSH2 0x100 EXP SWAP1 DIV PUSH1 0x1 PUSH1 0x1 PUSH1 0xA0 SHL SUB AND PUSH1 0x1 PUSH1 0x1 PUSH1 0xA0 SHL SUB AND PUSH4 0x7937C03D CALLVALUE PUSH1 0x40 MLOAD DUP3 PUSH4 0xFFFFFFFF AND PUSH1 0xE0 SHL DUP2 MSTORE PUSH1 0x4 ADD PUSH1 0x0 PUSH1 0x40 MLOAD DUP1 DUP4 SUB DUP2 DUP6 DUP9 DUP1 EXTCODESIZE ISZERO DUP1 ISZERO PUSH3 0x1CB1 JUMPI PUSH1 0x0 DUP1 REVERT JUMPDEST POP GAS CALL ISZERO DUP1 ISZERO PUSH3 0x1CC6 JUMPI RETURNDATASIZE PUSH1 0x0 DUP1 RETURNDATACOPY RETURNDATASIZE PUSH1 0x0 REVERT JUMPDEST POP POP POP POP POP PUSH32 0x3647E5CA8FE544BAFDF71B27B82E0206B70E6FDA46BDA02CBACD87B72363C82B CALLVALUE PUSH1 0x6 PUSH1 0x0 SWAP1 SLOAD SWAP1 PUSH2 0x100 EXP SWAP1 DIV PUSH1 0x1 PUSH1 0x1 PUSH1 0xA0 SHL SUB AND PUSH1 0x1 PUSH1 0x1 PUSH1 0xA0 SHL SUB AND PUSH4 0x74942C0F PUSH1 0x40 MLOAD DUP2 PUSH4 0xFFFFFFFF AND PUSH1 0xE0 SHL DUP2 MSTORE PUSH1 0x4 ADD PUSH1 0x20 PUSH1 0x40 MLOAD DUP1 DUP4 SUB DUP2 DUP7 DUP1 EXTCODESIZE ISZERO DUP1 ISZERO PUSH3 0x1D3C JUMPI PUSH1 0x0 DUP1 REVERT JUMPDEST POP GAS STATICCALL ISZERO DUP1 ISZERO PUSH3 0x1D51 JUMPI RETURNDATASIZE PUSH1 0x0 DUP1 RETURNDATACOPY RETURNDATASIZE PUSH1 0x0 REVERT JUMPDEST POP POP POP POP PUSH1 0x40 MLOAD RETURNDATASIZE PUSH1 0x1F NOT PUSH1 0x1F DUP3 ADD AND DUP3 ADD DUP1 PUSH1 0x40 MSTORE POP DUP2 ADD SWAP1 PUSH3 0x1D77 SWAP2 SWAP1 PUSH3 0x2066 JUMP JUMPDEST PUSH1 0x40 DUP1 MLOAD SWAP3 DUP4 MSTORE PUSH1 0x20 DUP4 ADD SWAP2 SWAP1 SWAP2 MSTORE ADD PUSH1 0x40 MLOAD DUP1 SWAP2 SUB SWAP1 LOG1 JUMP JUMPDEST PUSH1 0x0 PUSH3 0x1DA2 DUP3 PUSH3 0x15180 PUSH3 0x22B3 JUMP JUMPDEST PUSH3 0xCE2 SWAP1 TIMESTAMP PUSH3 0x2193 JUMP JUMPDEST PUSH1 0x6 SLOAD PUSH1 0x40 MLOAD PUSH4 0x2F9226A7 PUSH1 0xE1 SHL DUP2 MSTORE PUSH1 0x4 DUP2 ADD DUP4 SWAP1 MSTORE PUSH1 0x0 SWAP2 DUP3 SWAP2 PUSH1 0x1 PUSH1 0x1 PUSH1 0xA0 SHL SUB SWAP1 SWAP2 AND SWAP1 PUSH4 0x5F244D4E SWAP1 PUSH1 0x24 ADD PUSH1 0x40 DUP1 MLOAD DUP1 DUP4 SUB DUP2 DUP7 DUP1 EXTCODESIZE ISZERO DUP1 ISZERO PUSH3 0x1DF7 JUMPI PUSH1 0x0 DUP1 REVERT JUMPDEST POP GAS STATICCALL ISZERO DUP1 ISZERO PUSH3 0x1E0C JUMPI RETURNDATASIZE PUSH1 0x0 DUP1 RETURNDATACOPY RETURNDATASIZE PUSH1 0x0 REVERT JUMPDEST POP POP POP POP PUSH1 0x40 MLOAD RETURNDATASIZE PUSH1 0x1F NOT PUSH1 0x1F DUP3 ADD AND DUP3 ADD DUP1 PUSH1 0x40 MSTORE POP DUP2 ADD SWAP1 PUSH3 0x1E32 SWAP2 SWAP1 PUSH3 0x2080 JUMP JUMPDEST POP SWAP4 SWAP3 POP POP POP JUMP JUMPDEST PUSH2 0x111F DUP1 PUSH3 0x2365 DUP4 CODECOPY ADD SWAP1 JUMP JUMPDEST PUSH2 0xBA6 DUP1 PUSH3 0x3484 DUP4 CODECOPY ADD SWAP1 JUMP JUMPDEST PUSH2 0x677 DUP1 PUSH3 0x402A DUP4 CODECOPY ADD SWAP1 JUMP JUMPDEST PUSH2 0xE7F DUP1 PUSH3 0x46A1 DUP4 CODECOPY ADD SWAP1 JUMP JUMPDEST PUSH1 0x0 DUP3 PUSH1 0x1F DUP4 ADD SLT PUSH3 0x1E84 JUMPI PUSH1 0x0 DUP1 REVERT JUMPDEST DUP2 CALLDATALOAD PUSH3 0x1E9B PUSH3 0x1E95 DUP3 PUSH3 0x2168 JUMP JUMPDEST PUSH3 0x2134 JUMP JUMPDEST DUP2 DUP2 MSTORE DUP5 PUSH1 0x20 DUP4 DUP7 ADD ADD GT ISZERO PUSH3 0x1EB1 JUMPI PUSH1 0x0 DUP1 REVERT JUMPDEST DUP2 PUSH1 0x20 DUP6 ADD PUSH1 0x20 DUP4 ADD CALLDATACOPY PUSH1 0x0 SWAP2 DUP2 ADD PUSH1 0x20 ADD SWAP2 SWAP1 SWAP2 MSTORE SWAP4 SWAP3 POP POP POP JUMP JUMPDEST PUSH1 0x0 PUSH1 0x20 DUP3 DUP5 SUB SLT ISZERO PUSH3 0x1EE1 JUMPI PUSH1 0x0 DUP1 REVERT JUMPDEST DUP2 CALLDATALOAD PUSH3 0x1EEE DUP2 PUSH3 0x234E JUMP JUMPDEST SWAP4 SWAP3 POP POP POP JUMP JUMPDEST PUSH1 0x0 PUSH1 0x20 DUP3 DUP5 SUB SLT ISZERO PUSH3 0x1F08 JUMPI PUSH1 0x0 DUP1 REVERT JUMPDEST DUP2 MLOAD PUSH3 0x1EEE DUP2 PUSH3 0x234E JUMP JUMPDEST PUSH1 0x0 PUSH1 0x20 DUP3 DUP5 SUB SLT ISZERO PUSH3 0x1F28 JUMPI PUSH1 0x0 DUP1 REVERT JUMPDEST DUP2 MLOAD DUP1 ISZERO ISZERO DUP2 EQ PUSH3 0x1EEE JUMPI PUSH1 0x0 DUP1 REVERT JUMPDEST PUSH1 0x0 PUSH1 0x20 DUP3 DUP5 SUB SLT ISZERO PUSH3 0x1F4C JUMPI PUSH1 0x0 DUP1 REVERT JUMPDEST DUP2 CALLDATALOAD PUSH8 0xFFFFFFFFFFFFFFFF DUP2 GT ISZERO PUSH3 0x1F64 JUMPI PUSH1 0x0 DUP1 REVERT JUMPDEST PUSH3 0x1F72 DUP5 DUP3 DUP6 ADD PUSH3 0x1E72 JUMP JUMPDEST SWAP5 SWAP4 POP POP POP POP JUMP JUMPDEST PUSH1 0x0 PUSH1 0x20 DUP3 DUP5 SUB SLT ISZERO PUSH3 0x1F8D JUMPI PUSH1 0x0 DUP1 REVERT JUMPDEST DUP2 MLOAD PUSH8 0xFFFFFFFFFFFFFFFF DUP2 GT ISZERO PUSH3 0x1FA5 JUMPI PUSH1 0x0 DUP1 REVERT JUMPDEST DUP3 ADD PUSH1 0x1F DUP2 ADD DUP5 SGT PUSH3 0x1FB7 JUMPI PUSH1 0x0 DUP1 REVERT JUMPDEST DUP1 MLOAD PUSH3 0x1FC8 PUSH3 0x1E95 DUP3 PUSH3 0x2168 JUMP JUMPDEST DUP2 DUP2 MSTORE DUP6 PUSH1 0x20 DUP4 DUP6 ADD ADD GT ISZERO PUSH3 0x1FDE JUMPI PUSH1 0x0 DUP1 REVERT JUMPDEST PUSH3 0x1FF1 DUP3 PUSH1 0x20 DUP4 ADD PUSH1 0x20 DUP7 ADD PUSH3 0x22EF JUMP JUMPDEST SWAP6 SWAP5 POP POP POP POP POP JUMP JUMPDEST PUSH1 0x0 DUP1 PUSH1 0x0 PUSH1 0x60 DUP5 DUP7 SUB SLT ISZERO PUSH3 0x2010 JUMPI PUSH1 0x0 DUP1 REVERT JUMPDEST DUP4 CALLDATALOAD PUSH8 0xFFFFFFFFFFFFFFFF DUP2 GT ISZERO PUSH3 0x2028 JUMPI PUSH1 0x0 DUP1 REVERT JUMPDEST PUSH3 0x2036 DUP7 DUP3 DUP8 ADD PUSH3 0x1E72 JUMP JUMPDEST SWAP7 PUSH1 0x20 DUP7 ADD CALLDATALOAD SWAP7 POP PUSH1 0x40 SWAP1 SWAP6 ADD CALLDATALOAD SWAP5 SWAP4 POP POP POP POP JUMP JUMPDEST PUSH1 0x0 PUSH1 0x20 DUP3 DUP5 SUB SLT ISZERO PUSH3 0x205F JUMPI PUSH1 0x0 DUP1 REVERT JUMPDEST POP CALLDATALOAD SWAP2 SWAP1 POP JUMP JUMPDEST PUSH1 0x0 PUSH1 0x20 DUP3 DUP5 SUB SLT ISZERO PUSH3 0x2079 JUMPI PUSH1 0x0 DUP1 REVERT JUMPDEST POP MLOAD SWAP2 SWAP1 POP JUMP JUMPDEST PUSH1 0x0 DUP1 PUSH1 0x40 DUP4 DUP6 SUB SLT ISZERO PUSH3 0x2094 JUMPI PUSH1 0x0 DUP1 REVERT JUMPDEST POP POP DUP1 MLOAD PUSH1 0x20 SWAP1 SWAP2 ADD MLOAD SWAP1 SWAP3 SWAP1 SWAP2 POP JUMP JUMPDEST PUSH1 0x0 PUSH1 0x20 DUP3 DUP5 SUB SLT ISZERO PUSH3 0x20B8 JUMPI PUSH1 0x0 DUP1 REVERT JUMPDEST DUP2 MLOAD PUSH1 0xFF DUP2 AND DUP2 EQ PUSH3 0x1EEE JUMPI PUSH1 0x0 DUP1 REVERT JUMPDEST PUSH1 0x0 DUP2 MLOAD DUP1 DUP5 MSTORE PUSH3 0x20E4 DUP2 PUSH1 0x20 DUP7 ADD PUSH1 0x20 DUP7 ADD PUSH3 0x22EF JUMP JUMPDEST PUSH1 0x1F ADD PUSH1 0x1F NOT AND SWAP3 SWAP1 SWAP3 ADD PUSH1 0x20 ADD SWAP3 SWAP2 POP POP JUMP JUMPDEST PUSH1 0x20 DUP2 MSTORE PUSH1 0x0 PUSH3 0x1EEE PUSH1 0x20 DUP4 ADD DUP5 PUSH3 0x20CA JUMP JUMPDEST PUSH1 0x60 DUP2 MSTORE PUSH1 0x0 PUSH3 0x2122 PUSH1 0x60 DUP4 ADD DUP7 PUSH3 0x20CA JUMP JUMPDEST PUSH1 0x20 DUP4 ADD SWAP5 SWAP1 SWAP5 MSTORE POP PUSH1 0x40 ADD MSTORE SWAP2 SWAP1 POP JUMP JUMPDEST PUSH1 0x40 MLOAD PUSH1 0x1F DUP3 ADD PUSH1 0x1F NOT AND DUP2 ADD PUSH8 0xFFFFFFFFFFFFFFFF DUP2 GT DUP3 DUP3 LT OR ISZERO PUSH3 0x2160 JUMPI PUSH3 0x2160 PUSH3 0x2338 JUMP JUMPDEST PUSH1 0x40 MSTORE SWAP2 SWAP1 POP JUMP JUMPDEST PUSH1 0x0 PUSH8 0xFFFFFFFFFFFFFFFF DUP3 GT ISZERO PUSH3 0x2185 JUMPI PUSH3 0x2185 PUSH3 0x2338 JUMP JUMPDEST POP PUSH1 0x1F ADD PUSH1 0x1F NOT AND PUSH1 0x20 ADD SWAP1 JUMP JUMPDEST PUSH1 0x0 DUP3 NOT DUP3 GT ISZERO PUSH3 0x21A9 JUMPI PUSH3 0x21A9 PUSH3 0x2322 JUMP JUMPDEST POP ADD SWAP1 JUMP JUMPDEST PUSH1 0x1 DUP2 DUP2 JUMPDEST DUP1 DUP6 GT ISZERO PUSH3 0x21EF JUMPI DUP2 PUSH1 0x0 NOT DIV DUP3 GT ISZERO PUSH3 0x21D3 JUMPI PUSH3 0x21D3 PUSH3 0x2322 JUMP JUMPDEST DUP1 DUP6 AND ISZERO PUSH3 0x21E1 JUMPI SWAP2 DUP2 MUL SWAP2 JUMPDEST SWAP4 DUP5 SHR SWAP4 SWAP1 DUP1 MUL SWAP1 PUSH3 0x21B3 JUMP JUMPDEST POP SWAP3 POP SWAP3 SWAP1 POP JUMP JUMPDEST PUSH1 0x0 PUSH3 0x1EEE DUP4 DUP4 PUSH1 0x0 DUP3 PUSH3 0x2210 JUMPI POP PUSH1 0x1 PUSH3 0xCE2 JUMP JUMPDEST DUP2 PUSH3 0x221F JUMPI POP PUSH1 0x0 PUSH3 0xCE2 JUMP JUMPDEST DUP2 PUSH1 0x1 DUP2 EQ PUSH3 0x2238 JUMPI PUSH1 0x2 DUP2 EQ PUSH3 0x2243 JUMPI PUSH3 0x2263 JUMP JUMPDEST PUSH1 0x1 SWAP2 POP POP PUSH3 0xCE2 JUMP JUMPDEST PUSH1 0xFF DUP5 GT ISZERO PUSH3 0x2257 JUMPI PUSH3 0x2257 PUSH3 0x2322 JUMP JUMPDEST POP POP PUSH1 0x1 DUP3 SHL PUSH3 0xCE2 JUMP JUMPDEST POP PUSH1 0x20 DUP4 LT PUSH2 0x133 DUP4 LT AND PUSH1 0x4E DUP5 LT PUSH1 0xB DUP5 LT AND OR ISZERO PUSH3 0x2288 JUMPI POP DUP2 DUP2 EXP PUSH3 0xCE2 JUMP JUMPDEST PUSH3 0x2294 DUP4 DUP4 PUSH3 0x21AE JUMP JUMPDEST DUP1 PUSH1 0x0 NOT DIV DUP3 GT ISZERO PUSH3 0x22AB JUMPI PUSH3 0x22AB PUSH3 0x2322 JUMP JUMPDEST MUL SWAP4 SWAP3 POP POP POP JUMP JUMPDEST PUSH1 0x0 DUP2 PUSH1 0x0 NOT DIV DUP4 GT DUP3 ISZERO ISZERO AND ISZERO PUSH3 0x22D0 JUMPI PUSH3 0x22D0 PUSH3 0x2322 JUMP JUMPDEST POP MUL SWAP1 JUMP JUMPDEST PUSH1 0x0 DUP3 DUP3 LT ISZERO PUSH3 0x22EA JUMPI PUSH3 0x22EA PUSH3 0x2322 JUMP JUMPDEST POP SUB SWAP1 JUMP JUMPDEST PUSH1 0x0 JUMPDEST DUP4 DUP2 LT ISZERO PUSH3 0x230C JUMPI DUP2 DUP2 ADD MLOAD DUP4 DUP3 ADD MSTORE PUSH1 0x20 ADD PUSH3 0x22F2 JUMP JUMPDEST DUP4 DUP2 GT ISZERO PUSH3 0x231C JUMPI PUSH1 0x0 DUP5 DUP5 ADD MSTORE JUMPDEST POP POP POP POP JUMP JUMPDEST PUSH4 0x4E487B71 PUSH1 0xE0 SHL PUSH1 0x0 MSTORE PUSH1 0x11 PUSH1 0x4 MSTORE PUSH1 0x24 PUSH1 0x0 REVERT JUMPDEST PUSH4 0x4E487B71 PUSH1 0xE0 SHL PUSH1 0x0 MSTORE PUSH1 0x41 PUSH1 0x4 MSTORE PUSH1 0x24 PUSH1 0x0 REVERT JUMPDEST PUSH1 0x1 PUSH1 0x1 PUSH1 0xA0 SHL SUB DUP2 AND DUP2 EQ PUSH3 0x9E9 JUMPI PUSH1 0x0 DUP1 REVERT INVALID PUSH1 0x80 PUSH1 0x40 MSTORE CALLVALUE DUP1 ISZERO PUSH2 0x10 JUMPI PUSH1 0x0 DUP1 REVERT JUMPDEST POP PUSH1 0x2 DUP1 SLOAD PUSH1 0x1 PUSH1 0x1 PUSH1 0xA0 SHL SUB NOT AND ORIGIN OR SWAP1 SSTORE PUSH2 0x10ED DUP1 PUSH2 0x32 PUSH1 0x0 CODECOPY PUSH1 0x0 RETURN INVALID PUSH1 0x80 PUSH1 0x40 MSTORE PUSH1 0x4 CALLDATASIZE LT PUSH2 0x13A JUMPI PUSH1 0x0 CALLDATALOAD PUSH1 0xE0 SHR DUP1 PUSH4 0x72A9D124 GT PUSH2 0xBB JUMPI DUP1 PUSH4 0xB8C876B1 GT PUSH2 0x7F JUMPI DUP1 PUSH4 0xD56B2889 GT PUSH2 0x59 JUMPI DUP1 PUSH4 0xD56B2889 EQ PUSH2 0x34D JUMPI DUP1 PUSH4 0xDDCA3F43 EQ PUSH2 0x360 JUMPI DUP1 PUSH4 0xDEBC674C EQ PUSH2 0x376 JUMPI PUSH1 0x0 DUP1 REVERT JUMPDEST DUP1 PUSH4 0xB8C876B1 EQ PUSH2 0x305 JUMPI DUP1 PUSH4 0xCD6DC687 EQ PUSH2 0x332 JUMPI DUP1 PUSH4 0xD0E30DB0 EQ PUSH2 0x345 JUMPI PUSH1 0x0 DUP1 REVERT JUMPDEST DUP1 PUSH4 0x72A9D124 EQ PUSH2 0x29C JUMPI DUP1 PUSH4 0x74942C0F EQ PUSH2 0x2BC JUMPI DUP1 PUSH4 0x7937C03D EQ PUSH2 0x2D2 JUMPI DUP1 PUSH4 0x82B2E257 EQ PUSH2 0x2DA JUMPI DUP1 PUSH4 0x8666107C EQ PUSH2 0x2EF JUMPI PUSH1 0x0 DUP1 REVERT JUMPDEST DUP1 PUSH4 0x5F244D4E GT PUSH2 0x102 JUMPI DUP1 PUSH4 0x5F244D4E EQ PUSH2 0x1E3 JUMPI DUP1 PUSH4 0x66B3F6BF EQ PUSH2 0x203 JUMPI DUP1 PUSH4 0x67DA263D EQ PUSH2 0x239 JUMPI DUP1 PUSH4 0x6F7BC9BE EQ PUSH2 0x259 JUMPI DUP1 PUSH4 0x707E7E87 EQ PUSH2 0x286 JUMPI PUSH1 0x0 DUP1 REVERT JUMPDEST DUP1 PUSH4 0x12065FE0 EQ PUSH2 0x13F JUMPI DUP1 PUSH4 0x1EB928AA EQ PUSH2 0x161 JUMPI DUP1 PUSH4 0x26C4E60D EQ PUSH2 0x196 JUMPI DUP1 PUSH4 0x2E1A7D4D EQ PUSH2 0x1AD JUMPI DUP1 PUSH4 0x31F3BD28 EQ PUSH2 0x1CD JUMPI JUMPDEST PUSH1 0x0 DUP1 REVERT JUMPDEST CALLVALUE DUP1 ISZERO PUSH2 0x14B JUMPI PUSH1 0x0 DUP1 REVERT JUMPDEST POP SELFBALANCE JUMPDEST PUSH1 0x40 MLOAD SWAP1 DUP2 MSTORE PUSH1 0x20 ADD JUMPDEST PUSH1 0x40 MLOAD DUP1 SWAP2 SUB SWAP1 RETURN JUMPDEST CALLVALUE DUP1 ISZERO PUSH2 0x16D JUMPI PUSH1 0x0 DUP1 REVERT JUMPDEST POP PUSH2 0x181 PUSH2 0x17C CALLDATASIZE PUSH1 0x4 PUSH2 0xFFF JUMP JUMPDEST PUSH2 0x396 JUMP JUMPDEST PUSH1 0x40 DUP1 MLOAD SWAP3 DUP4 MSTORE PUSH1 0x20 DUP4 ADD SWAP2 SWAP1 SWAP2 MSTORE ADD PUSH2 0x158 JUMP JUMPDEST CALLVALUE DUP1 ISZERO PUSH2 0x1A2 JUMPI PUSH1 0x0 DUP1 REVERT JUMPDEST POP PUSH2 0x1AB PUSH2 0x458 JUMP JUMPDEST STOP JUMPDEST CALLVALUE DUP1 ISZERO PUSH2 0x1B9 JUMPI PUSH1 0x0 DUP1 REVERT JUMPDEST POP PUSH2 0x1AB PUSH2 0x1C8 CALLDATASIZE PUSH1 0x4 PUSH2 0xFFF JUMP JUMPDEST PUSH2 0x50D JUMP JUMPDEST CALLVALUE DUP1 ISZERO PUSH2 0x1D9 JUMPI PUSH1 0x0 DUP1 REVERT JUMPDEST POP PUSH2 0x14E PUSH1 0x1 SLOAD DUP2 JUMP JUMPDEST CALLVALUE DUP1 ISZERO PUSH2 0x1EF JUMPI PUSH1 0x0 DUP1 REVERT JUMPDEST POP PUSH2 0x181 PUSH2 0x1FE CALLDATASIZE PUSH1 0x4 PUSH2 0xFFF JUMP JUMPDEST PUSH2 0x736 JUMP JUMPDEST CALLVALUE DUP1 ISZERO PUSH2 0x20F JUMPI PUSH1 0x0 DUP1 REVERT JUMPDEST POP PUSH2 0x14E PUSH2 0x21E CALLDATASIZE PUSH1 0x4 PUSH2 0xF91 JUMP JUMPDEST PUSH1 0x1 PUSH1 0x1 PUSH1 0xA0 SHL SUB AND PUSH1 0x0 SWAP1 DUP2 MSTORE PUSH1 0x4 PUSH1 0x20 MSTORE PUSH1 0x40 SWAP1 KECCAK256 SLOAD SWAP1 JUMP JUMPDEST CALLVALUE DUP1 ISZERO PUSH2 0x245 JUMPI PUSH1 0x0 DUP1 REVERT JUMPDEST POP PUSH2 0x14E PUSH2 0x254 CALLDATASIZE PUSH1 0x4 PUSH2 0xFFF JUMP JUMPDEST PUSH2 0x7DD JUMP JUMPDEST CALLVALUE DUP1 ISZERO PUSH2 0x265 JUMPI PUSH1 0x0 DUP1 REVERT JUMPDEST POP PUSH2 0x14E PUSH2 0x274 CALLDATASIZE PUSH1 0x4 PUSH2 0xF91 JUMP JUMPDEST PUSH1 0x4 PUSH1 0x20 MSTORE PUSH1 0x0 SWAP1 DUP2 MSTORE PUSH1 0x40 SWAP1 KECCAK256 SLOAD DUP2 JUMP JUMPDEST CALLVALUE DUP1 ISZERO PUSH2 0x292 JUMPI PUSH1 0x0 DUP1 REVERT JUMPDEST POP PUSH2 0x14E PUSH1 0x8 SLOAD DUP2 JUMP JUMPDEST CALLVALUE DUP1 ISZERO PUSH2 0x2A8 JUMPI PUSH1 0x0 DUP1 REVERT JUMPDEST POP PUSH2 0x14E PUSH2 0x2B7 CALLDATASIZE PUSH1 0x4 PUSH2 0xFFF JUMP JUMPDEST PUSH2 0x86C JUMP JUMPDEST CALLVALUE DUP1 ISZERO PUSH2 0x2C8 JUMPI PUSH1 0x0 DUP1 REVERT JUMPDEST POP PUSH2 0x14E PUSH1 0x6 SLOAD DUP2 JUMP JUMPDEST PUSH2 0x1AB PUSH2 0x8FC JUMP JUMPDEST CALLVALUE DUP1 ISZERO PUSH2 0x2E6 JUMPI PUSH1 0x0 DUP1 REVERT JUMPDEST POP PUSH2 0x14E PUSH2 0xA10 JUMP JUMPDEST CALLVALUE DUP1 ISZERO PUSH2 0x2FB JUMPI PUSH1 0x0 DUP1 REVERT JUMPDEST POP PUSH2 0x14E PUSH1 0x7 SLOAD DUP2 JUMP JUMPDEST CALLVALUE DUP1 ISZERO PUSH2 0x311 JUMPI PUSH1 0x0 DUP1 REVERT JUMPDEST POP PUSH2 0x14E PUSH2 0x320 CALLDATASIZE PUSH1 0x4 PUSH2 0xF91 JUMP JUMPDEST PUSH1 0x5 PUSH1 0x20 MSTORE PUSH1 0x0 SWAP1 DUP2 MSTORE PUSH1 0x40 SWAP1 KECCAK256 SLOAD DUP2 JUMP JUMPDEST PUSH2 0x1AB PUSH2 0x340 CALLDATASIZE PUSH1 0x4 PUSH2 0xFB3 JUMP JUMPDEST PUSH2 0xA91 JUMP JUMPDEST PUSH2 0x1AB PUSH2 0xBC9 JUMP JUMPDEST CALLVALUE DUP1 ISZERO PUSH2 0x359 JUMPI PUSH1 0x0 DUP1 REVERT JUMPDEST POP PUSH2 0x1AB ORIGIN SELFDESTRUCT JUMPDEST CALLVALUE DUP1 ISZERO PUSH2 0x36C JUMPI PUSH1 0x0 DUP1 REVERT JUMPDEST POP PUSH2 0x14E PUSH1 0x3 SLOAD DUP2 JUMP JUMPDEST CALLVALUE DUP1 ISZERO PUSH2 0x382 JUMPI PUSH1 0x0 DUP1 REVERT JUMPDEST POP PUSH2 0x1AB PUSH2 0x391 CALLDATASIZE PUSH1 0x4 PUSH2 0xFFF JUMP JUMPDEST PUSH2 0xDA4 JUMP JUMPDEST PUSH1 0x0 DUP1 PUSH1 0x0 PUSH1 0x1 SLOAD SELFBALANCE DUP6 PUSH2 0x3AA SWAP2 SWAP1 PUSH2 0x106B JUMP JUMPDEST PUSH2 0x3B4 SWAP2 SWAP1 PUSH2 0x1049 JUMP JUMPDEST PUSH1 0x1 SLOAD PUSH1 0x0 DUP1 SLOAD PUSH1 0x40 MLOAD PUSH4 0x70A08231 PUSH1 0xE0 SHL DUP2 MSTORE ADDRESS PUSH1 0x4 DUP3 ADD MSTORE SWAP4 SWAP5 POP SWAP1 SWAP3 PUSH1 0x1 PUSH1 0x1 PUSH1 0xA0 SHL SUB SWAP1 SWAP2 AND SWAP1 PUSH4 0x70A08231 SWAP1 PUSH1 0x24 ADD PUSH1 0x20 PUSH1 0x40 MLOAD DUP1 DUP4 SUB DUP2 DUP7 DUP1 EXTCODESIZE ISZERO DUP1 ISZERO PUSH2 0x400 JUMPI PUSH1 0x0 DUP1 REVERT JUMPDEST POP GAS STATICCALL ISZERO DUP1 ISZERO PUSH2 0x414 JUMPI RETURNDATASIZE PUSH1 0x0 DUP1 RETURNDATACOPY RETURNDATASIZE PUSH1 0x0 REVERT JUMPDEST POP POP POP POP PUSH1 0x40 MLOAD RETURNDATASIZE PUSH1 0x1F NOT PUSH1 0x1F DUP3 ADD AND DUP3 ADD DUP1 PUSH1 0x40 MSTORE POP DUP2 ADD SWAP1 PUSH2 0x438 SWAP2 SWAP1 PUSH2 0x1018 JUMP JUMPDEST PUSH2 0x442 SWAP1 DUP8 PUSH2 0x106B JUMP JUMPDEST PUSH2 0x44C SWAP2 SWAP1 PUSH2 0x1049 JUMP JUMPDEST SWAP2 SWAP6 SWAP2 SWAP5 POP SWAP1 SWAP3 POP POP POP JUMP JUMPDEST PUSH1 0x0 PUSH2 0x3E8 PUSH1 0x3 SLOAD PUSH1 0x3 PUSH2 0x46C SWAP2 SWAP1 PUSH2 0x106B JUMP JUMPDEST PUSH2 0x476 SWAP2 SWAP1 PUSH2 0x1049 JUMP JUMPDEST PUSH1 0x40 MLOAD SWAP1 SWAP2 POP PUSH1 0x0 SWAP1 ORIGIN SWAP1 DUP4 SWAP1 DUP4 DUP2 DUP2 DUP2 DUP6 DUP8 GAS CALL SWAP3 POP POP POP RETURNDATASIZE DUP1 PUSH1 0x0 DUP2 EQ PUSH2 0x4BB JUMPI PUSH1 0x40 MLOAD SWAP2 POP PUSH1 0x1F NOT PUSH1 0x3F RETURNDATASIZE ADD AND DUP3 ADD PUSH1 0x40 MSTORE RETURNDATASIZE DUP3 MSTORE RETURNDATASIZE PUSH1 0x0 PUSH1 0x20 DUP5 ADD RETURNDATACOPY PUSH2 0x4C0 JUMP JUMPDEST PUSH1 0x60 SWAP2 POP JUMPDEST POP POP SWAP1 POP DUP1 PUSH2 0x509 JUMPI PUSH1 0x40 MLOAD PUSH3 0x461BCD PUSH1 0xE5 SHL DUP2 MSTORE PUSH1 0x20 PUSH1 0x4 DUP3 ADD MSTORE PUSH1 0x10 PUSH1 0x24 DUP3 ADD MSTORE PUSH16 0x2A3930B739B332B9103330B4B632B217 PUSH1 0x81 SHL PUSH1 0x44 DUP3 ADD MSTORE PUSH1 0x64 ADD JUMPDEST PUSH1 0x40 MLOAD DUP1 SWAP2 SUB SWAP1 REVERT JUMPDEST POP POP JUMP JUMPDEST PUSH1 0x1 SLOAD PUSH1 0x0 SWAP1 PUSH2 0x51D SELFBALANCE DUP5 PUSH2 0x106B JUMP JUMPDEST PUSH2 0x527 SWAP2 SWAP1 PUSH2 0x1049 JUMP JUMPDEST PUSH1 0x1 SLOAD PUSH1 0x0 DUP1 SLOAD PUSH1 0x40 MLOAD PUSH4 0x70A08231 PUSH1 0xE0 SHL DUP2 MSTORE ADDRESS PUSH1 0x4 DUP3 ADD MSTORE SWAP4 SWAP5 POP SWAP1 SWAP3 PUSH1 0x1 PUSH1 0x1 PUSH1 0xA0 SHL SUB SWAP1 SWAP2 AND SWAP1 PUSH4 0x70A08231 SWAP1 PUSH1 0x24 ADD PUSH1 0x20 PUSH1 0x40 MLOAD DUP1 DUP4 SUB DUP2 DUP7 DUP1 EXTCODESIZE ISZERO DUP1 ISZERO PUSH2 0x573 JUMPI PUSH1 0x0 DUP1 REVERT JUMPDEST POP GAS STATICCALL ISZERO DUP1 ISZERO PUSH2 0x587 JUMPI RETURNDATASIZE PUSH1 0x0 DUP1 RETURNDATACOPY RETURNDATASIZE PUSH1 0x0 REVERT JUMPDEST POP POP POP POP PUSH1 0x40 MLOAD RETURNDATASIZE PUSH1 0x1F NOT PUSH1 0x1F DUP3 ADD AND DUP3 ADD DUP1 PUSH1 0x40 MSTORE POP DUP2 ADD SWAP1 PUSH2 0x5AB SWAP2 SWAP1 PUSH2 0x1018 JUMP JUMPDEST PUSH2 0x5B5 SWAP1 DUP6 PUSH2 0x106B JUMP JUMPDEST PUSH2 0x5BF SWAP2 SWAP1 PUSH2 0x1049 JUMP JUMPDEST SWAP1 POP DUP2 PUSH1 0x1 PUSH1 0x0 DUP3 DUP3 SLOAD PUSH2 0x5D3 SWAP2 SWAP1 PUSH2 0x108A JUMP JUMPDEST SWAP1 SWAP2 SSTORE POP POP PUSH1 0x40 MLOAD PUSH1 0x0 SWAP1 ORIGIN SWAP1 DUP5 SWAP1 DUP4 DUP2 DUP2 DUP2 DUP6 DUP8 GAS CALL SWAP3 POP POP POP RETURNDATASIZE DUP1 PUSH1 0x0 DUP2 EQ PUSH2 0x61A JUMPI PUSH1 0x40 MLOAD SWAP2 POP PUSH1 0x1F NOT PUSH1 0x3F RETURNDATASIZE ADD AND DUP3 ADD PUSH1 0x40 MSTORE RETURNDATASIZE DUP3 MSTORE RETURNDATASIZE PUSH1 0x0 PUSH1 0x20 DUP5 ADD RETURNDATACOPY PUSH2 0x61F JUMP JUMPDEST PUSH1 0x60 SWAP2 POP JUMPDEST POP POP SWAP1 POP DUP1 PUSH2 0x663 JUMPI PUSH1 0x40 MLOAD PUSH3 0x461BCD PUSH1 0xE5 SHL DUP2 MSTORE PUSH1 0x20 PUSH1 0x4 DUP3 ADD MSTORE PUSH1 0x10 PUSH1 0x24 DUP3 ADD MSTORE PUSH16 0x2A3930B739B332B9103330B4B632B217 PUSH1 0x81 SHL PUSH1 0x44 DUP3 ADD MSTORE PUSH1 0x64 ADD PUSH2 0x500 JUMP JUMPDEST PUSH1 0x0 SLOAD PUSH1 0x40 MLOAD PUSH4 0xA9059CBB PUSH1 0xE0 SHL DUP2 MSTORE ORIGIN PUSH1 0x4 DUP3 ADD MSTORE PUSH1 0x24 DUP2 ADD DUP5 SWAP1 MSTORE PUSH1 0x1 PUSH1 0x1 PUSH1 0xA0 SHL SUB SWAP1 SWAP2 AND SWAP1 PUSH4 0xA9059CBB SWAP1 PUSH1 0x44 ADD PUSH1 0x20 PUSH1 0x40 MLOAD DUP1 DUP4 SUB DUP2 PUSH1 0x0 DUP8 DUP1 EXTCODESIZE ISZERO DUP1 ISZERO PUSH2 0x6AF JUMPI PUSH1 0x0 DUP1 REVERT JUMPDEST POP GAS CALL ISZERO DUP1 ISZERO PUSH2 0x6C3 JUMPI RETURNDATASIZE PUSH1 0x0 DUP1 RETURNDATACOPY RETURNDATASIZE PUSH1 0x0 REVERT JUMPDEST POP POP POP POP PUSH1 0x40 MLOAD RETURNDATASIZE PUSH1 0x1F NOT PUSH1 0x1F DUP3 ADD AND DUP3 ADD DUP1 PUSH1 0x40 MSTORE POP DUP2 ADD SWAP1 PUSH2 0x6E7 SWAP2 SWAP1 PUSH2 0xFDD JUMP JUMPDEST PUSH2 0x6F0 JUMPI PUSH1 0x0 DUP1 REVERT JUMPDEST PUSH1 0x40 DUP1 MLOAD DUP5 DUP2 MSTORE PUSH1 0x20 DUP2 ADD DUP5 SWAP1 MSTORE PUSH32 0x56CA301A9219608C91E7BCEE90E083C19671D2CDCC96752C7AF291CEE5F9C8C8 SWAP2 ADD PUSH1 0x40 MLOAD DUP1 SWAP2 SUB SWAP1 LOG1 POP PUSH1 0x7 SWAP2 SWAP1 SWAP2 SSTORE PUSH1 0x6 SSTORE POP JUMP JUMPDEST PUSH1 0x0 DUP1 SLOAD PUSH1 0x40 MLOAD PUSH4 0x70A08231 PUSH1 0xE0 SHL DUP2 MSTORE ADDRESS PUSH1 0x4 DUP3 ADD MSTORE DUP3 SWAP2 DUP3 SWAP2 SELFBALANCE SWAP2 PUSH1 0x1 PUSH1 0x1 PUSH1 0xA0 SHL SUB AND SWAP1 PUSH4 0x70A08231 SWAP1 PUSH1 0x24 ADD PUSH1 0x20 PUSH1 0x40 MLOAD DUP1 DUP4 SUB DUP2 DUP7 DUP1 EXTCODESIZE ISZERO DUP1 ISZERO PUSH2 0x77E JUMPI PUSH1 0x0 DUP1 REVERT JUMPDEST POP GAS STATICCALL ISZERO DUP1 ISZERO PUSH2 0x792 JUMPI RETURNDATASIZE PUSH1 0x0 DUP1 RETURNDATACOPY RETURNDATASIZE PUSH1 0x0 REVERT JUMPDEST POP POP POP POP PUSH1 0x40 MLOAD RETURNDATASIZE PUSH1 0x1F NOT PUSH1 0x1F DUP3 ADD AND DUP3 ADD DUP1 PUSH1 0x40 MSTORE POP DUP2 ADD SWAP1 PUSH2 0x7B6 SWAP2 SWAP1 PUSH2 0x1018 JUMP JUMPDEST PUSH2 0x7C0 SWAP1 DUP7 PUSH2 0x106B JUMP JUMPDEST PUSH2 0x7CA SWAP2 SWAP1 PUSH2 0x1049 JUMP JUMPDEST SWAP1 POP PUSH1 0x0 SELFBALANCE PUSH1 0x1 SLOAD DUP7 PUSH2 0x442 SWAP2 SWAP1 PUSH2 0x106B JUMP JUMPDEST PUSH1 0x0 DUP1 SLOAD PUSH1 0x40 MLOAD PUSH4 0x70A08231 PUSH1 0xE0 SHL DUP2 MSTORE ADDRESS PUSH1 0x4 DUP3 ADD MSTORE PUSH2 0x866 SWAP2 DUP5 SWAP2 PUSH1 0x1 PUSH1 0x1 PUSH1 0xA0 SHL SUB SWAP1 SWAP2 AND SWAP1 PUSH4 0x70A08231 SWAP1 PUSH1 0x24 ADD JUMPDEST PUSH1 0x20 PUSH1 0x40 MLOAD DUP1 DUP4 SUB DUP2 DUP7 DUP1 EXTCODESIZE ISZERO DUP1 ISZERO PUSH2 0x828 JUMPI PUSH1 0x0 DUP1 REVERT JUMPDEST POP GAS STATICCALL ISZERO DUP1 ISZERO PUSH2 0x83C JUMPI RETURNDATASIZE PUSH1 0x0 DUP1 RETURNDATACOPY RETURNDATASIZE PUSH1 0x0 REVERT JUMPDEST POP POP POP POP PUSH1 0x40 MLOAD RETURNDATASIZE PUSH1 0x1F NOT PUSH1 0x1F DUP3 ADD AND DUP3 ADD DUP1 PUSH1 0x40 MSTORE POP DUP2 ADD SWAP1 PUSH2 0x860 SWAP2 SWAP1 PUSH2 0x1018 JUMP JUMPDEST SELFBALANCE PUSH2 0xF4D JUMP JUMPDEST SWAP3 SWAP2 POP POP JUMP JUMPDEST PUSH1 0x0 PUSH2 0x866 DUP3 PUSH2 0x87C DUP2 SELFBALANCE PUSH2 0x108A JUMP JUMPDEST PUSH1 0x0 SLOAD PUSH1 0x40 MLOAD PUSH4 0x70A08231 PUSH1 0xE0 SHL DUP2 MSTORE ADDRESS PUSH1 0x4 DUP3 ADD MSTORE PUSH1 0x1 PUSH1 0x1 PUSH1 0xA0 SHL SUB SWAP1 SWAP2 AND SWAP1 PUSH4 0x70A08231 SWAP1 PUSH1 0x24 ADD PUSH1 0x20 PUSH1 0x40 MLOAD DUP1 DUP4 SUB DUP2 DUP7 DUP1 EXTCODESIZE ISZERO DUP1 ISZERO PUSH2 0x8BF JUMPI PUSH1 0x0 DUP1 REVERT JUMPDEST POP GAS STATICCALL ISZERO DUP1 ISZERO PUSH2 0x8D3 JUMPI RETURNDATASIZE PUSH1 0x0 DUP1 RETURNDATACOPY RETURNDATASIZE PUSH1 0x0 REVERT JUMPDEST POP POP POP POP PUSH1 0x40 MLOAD RETURNDATASIZE PUSH1 0x1F NOT PUSH1 0x1F DUP3 ADD AND DUP3 ADD DUP1 PUSH1 0x40 MSTORE POP DUP2 ADD SWAP1 PUSH2 0x8F7 SWAP2 SWAP1 PUSH2 0x1018 JUMP JUMPDEST PUSH2 0xF4D JUMP JUMPDEST PUSH1 0x0 PUSH2 0x90C CALLVALUE PUSH2 0x87C DUP2 SELFBALANCE PUSH2 0x108A JUMP JUMPDEST PUSH1 0x0 SLOAD PUSH1 0x40 MLOAD PUSH4 0xA9059CBB PUSH1 0xE0 SHL DUP2 MSTORE ORIGIN PUSH1 0x4 DUP3 ADD MSTORE PUSH1 0x24 DUP2 ADD DUP4 SWAP1 MSTORE SWAP2 SWAP3 POP PUSH1 0x1 PUSH1 0x1 PUSH1 0xA0 SHL SUB AND SWAP1 PUSH4 0xA9059CBB SWAP1 PUSH1 0x44 ADD PUSH1 0x20 PUSH1 0x40 MLOAD DUP1 DUP4 SUB DUP2 PUSH1 0x0 DUP8 DUP1 EXTCODESIZE ISZERO DUP1 ISZERO PUSH2 0x959 JUMPI PUSH1 0x0 DUP1 REVERT JUMPDEST POP GAS CALL ISZERO DUP1 ISZERO PUSH2 0x96D JUMPI RETURNDATASIZE PUSH1 0x0 DUP1 RETURNDATACOPY RETURNDATASIZE PUSH1 0x0 REVERT JUMPDEST POP POP POP POP PUSH1 0x40 MLOAD RETURNDATASIZE PUSH1 0x1F NOT PUSH1 0x1F DUP3 ADD AND DUP3 ADD DUP1 PUSH1 0x40 MSTORE POP DUP2 ADD SWAP1 PUSH2 0x991 SWAP2 SWAP1 PUSH2 0xFDD JUMP JUMPDEST PUSH2 0x99A JUMPI PUSH1 0x0 DUP1 REVERT JUMPDEST CALLVALUE PUSH1 0x3 PUSH1 0x0 DUP3 DUP3 SLOAD PUSH2 0x9AC SWAP2 SWAP1 PUSH2 0x1031 JUMP JUMPDEST SWAP1 SWAP2 SSTORE POP POP ORIGIN PUSH1 0x0 SWAP1 DUP2 MSTORE PUSH1 0x4 PUSH1 0x20 MSTORE PUSH1 0x40 DUP2 KECCAK256 DUP1 SLOAD CALLVALUE SWAP3 SWAP1 PUSH2 0x9D0 SWAP1 DUP5 SWAP1 PUSH2 0x1031 JUMP JUMPDEST SWAP1 SWAP2 SSTORE POP POP PUSH1 0x6 DUP2 SWAP1 SSTORE PUSH1 0x40 MLOAD DUP2 DUP2 MSTORE PUSH32 0xDB04C7A6D4758FD55D738EBC67E7F3010AC922BE00771EF29521A4090D1EB13F SWAP1 PUSH1 0x20 ADD PUSH1 0x40 MLOAD DUP1 SWAP2 SUB SWAP1 LOG1 POP JUMP JUMPDEST PUSH1 0x0 DUP1 SLOAD PUSH1 0x40 MLOAD PUSH4 0x70A08231 PUSH1 0xE0 SHL DUP2 MSTORE ADDRESS PUSH1 0x4 DUP3 ADD MSTORE PUSH1 0x1 PUSH1 0x1 PUSH1 0xA0 SHL SUB SWAP1 SWAP2 AND SWAP1 PUSH4 0x70A08231 SWAP1 PUSH1 0x24 ADD PUSH1 0x20 PUSH1 0x40 MLOAD DUP1 DUP4 SUB DUP2 DUP7 DUP1 EXTCODESIZE ISZERO DUP1 ISZERO PUSH2 0xA54 JUMPI PUSH1 0x0 DUP1 REVERT JUMPDEST POP GAS STATICCALL ISZERO DUP1 ISZERO PUSH2 0xA68 JUMPI RETURNDATASIZE PUSH1 0x0 DUP1 RETURNDATACOPY RETURNDATASIZE PUSH1 0x0 REVERT JUMPDEST POP POP POP POP PUSH1 0x40 MLOAD RETURNDATASIZE PUSH1 0x1F NOT PUSH1 0x1F DUP3 ADD AND DUP3 ADD DUP1 PUSH1 0x40 MSTORE POP DUP2 ADD SWAP1 PUSH2 0xA8C SWAP2 SWAP1 PUSH2 0x1018 JUMP JUMPDEST SWAP1 POP SWAP1 JUMP JUMPDEST PUSH1 0x1 SLOAD ISZERO PUSH2 0xA9E JUMPI PUSH1 0x0 DUP1 REVERT JUMPDEST PUSH1 0x0 DUP2 GT PUSH2 0xAAB JUMPI PUSH1 0x0 DUP1 REVERT JUMPDEST PUSH1 0x0 CALLVALUE GT PUSH2 0xAB8 JUMPI PUSH1 0x0 DUP1 REVERT JUMPDEST PUSH1 0x0 PUSH1 0x3 DUP2 SWAP1 SSTORE DUP1 SLOAD PUSH20 0xFFFFFFFFFFFFFFFFFFFFFFFFFFFFFFFFFFFFFFFF NOT AND PUSH1 0x1 PUSH1 0x1 PUSH1 0xA0 SHL SUB DUP5 DUP2 AND SWAP2 SWAP1 SWAP2 OR DUP3 SSTORE SELFBALANCE PUSH1 0x1 DUP2 SWAP1 SSTORE ORIGIN DUP1 DUP5 MSTORE PUSH1 0x5 PUSH1 0x20 MSTORE PUSH1 0x40 DUP1 DUP6 KECCAK256 SWAP3 SWAP1 SWAP3 SSTORE SWAP3 SLOAD SWAP1 MLOAD PUSH4 0x23B872DD PUSH1 0xE0 SHL DUP2 MSTORE PUSH1 0x4 DUP2 ADD SWAP4 SWAP1 SWAP4 MSTORE ADDRESS PUSH1 0x24 DUP5 ADD MSTORE PUSH1 0x44 DUP4 ADD DUP5 SWAP1 MSTORE AND SWAP1 PUSH4 0x23B872DD SWAP1 PUSH1 0x64 ADD PUSH1 0x20 PUSH1 0x40 MLOAD DUP1 DUP4 SUB DUP2 PUSH1 0x0 DUP8 DUP1 EXTCODESIZE ISZERO DUP1 ISZERO PUSH2 0xB49 JUMPI PUSH1 0x0 DUP1 REVERT JUMPDEST POP GAS CALL ISZERO DUP1 ISZERO PUSH2 0xB5D JUMPI RETURNDATASIZE PUSH1 0x0 DUP1 RETURNDATACOPY RETURNDATASIZE PUSH1 0x0 REVERT JUMPDEST POP POP POP POP PUSH1 0x40 MLOAD RETURNDATASIZE PUSH1 0x1F NOT PUSH1 0x1F DUP3 ADD AND DUP3 ADD DUP1 PUSH1 0x40 MSTORE POP DUP2 ADD SWAP1 PUSH2 0xB81 SWAP2 SWAP1 PUSH2 0xFDD JUMP JUMPDEST PUSH2 0xB8A JUMPI PUSH1 0x0 DUP1 REVERT JUMPDEST PUSH32 0xC43E48CF47E9FA186D0F4096C61D1FCB54159799F935A2AA32E5589688EE36E1 PUSH1 0x1 SLOAD PUSH1 0x40 MLOAD PUSH2 0xBBD SWAP2 DUP2 MSTORE PUSH1 0x20 ADD SWAP1 JUMP JUMPDEST PUSH1 0x40 MLOAD DUP1 SWAP2 SUB SWAP1 LOG1 POP POP JUMP JUMPDEST PUSH1 0x0 CALLVALUE GT PUSH2 0xBD6 JUMPI PUSH1 0x0 DUP1 REVERT JUMPDEST PUSH1 0x0 PUSH2 0xBE2 CALLVALUE SELFBALANCE PUSH2 0x108A JUMP JUMPDEST PUSH1 0x0 SLOAD PUSH1 0x40 MLOAD PUSH4 0x70A08231 PUSH1 0xE0 SHL DUP2 MSTORE ADDRESS PUSH1 0x4 DUP3 ADD MSTORE PUSH1 0x1 PUSH1 0x1 PUSH1 0xA0 SHL SUB SWAP1 SWAP2 AND SWAP1 PUSH4 0x70A08231 SWAP1 PUSH1 0x24 ADD PUSH1 0x20 PUSH1 0x40 MLOAD DUP1 DUP4 SUB DUP2 DUP7 DUP1 EXTCODESIZE ISZERO DUP1 ISZERO PUSH2 0xC25 JUMPI PUSH1 0x0 DUP1 REVERT JUMPDEST POP GAS STATICCALL ISZERO DUP1 ISZERO PUSH2 0xC39 JUMPI RETURNDATASIZE PUSH1 0x0 DUP1 RETURNDATACOPY RETURNDATASIZE PUSH1 0x0 REVERT JUMPDEST POP POP POP POP PUSH1 0x40 MLOAD RETURNDATASIZE PUSH1 0x1F NOT PUSH1 0x1F DUP3 ADD AND DUP3 ADD DUP1 PUSH1 0x40 MSTORE POP DUP2 ADD SWAP1 PUSH2 0xC5D SWAP2 SWAP1 PUSH2 0x1018 JUMP JUMPDEST PUSH2 0xC67 SWAP1 CALLVALUE PUSH2 0x106B JUMP JUMPDEST PUSH2 0xC71 SWAP2 SWAP1 PUSH2 0x1049 JUMP JUMPDEST SWAP1 POP PUSH1 0x0 PUSH2 0xC7F CALLVALUE SELFBALANCE PUSH2 0x108A JUMP JUMPDEST PUSH1 0x1 SLOAD PUSH2 0xC8C SWAP1 CALLVALUE PUSH2 0x106B JUMP JUMPDEST PUSH2 0xC96 SWAP2 SWAP1 PUSH2 0x1049 JUMP JUMPDEST ORIGIN PUSH1 0x0 SWAP1 DUP2 MSTORE PUSH1 0x5 PUSH1 0x20 MSTORE PUSH1 0x40 DUP2 KECCAK256 DUP1 SLOAD SWAP3 SWAP4 POP DUP4 SWAP3 SWAP1 SWAP2 SWAP1 PUSH2 0xCBA SWAP1 DUP5 SWAP1 PUSH2 0x1031 JUMP JUMPDEST SWAP3 POP POP DUP2 SWAP1 SSTORE POP DUP1 PUSH1 0x1 PUSH1 0x0 DUP3 DUP3 SLOAD PUSH2 0xCD3 SWAP2 SWAP1 PUSH2 0x1031 JUMP JUMPDEST SWAP1 SWAP2 SSTORE POP POP PUSH1 0x0 SLOAD PUSH1 0x40 MLOAD PUSH4 0x23B872DD PUSH1 0xE0 SHL DUP2 MSTORE ORIGIN PUSH1 0x4 DUP3 ADD MSTORE ADDRESS PUSH1 0x24 DUP3 ADD MSTORE PUSH1 0x44 DUP2 ADD DUP5 SWAP1 MSTORE PUSH1 0x1 PUSH1 0x1 PUSH1 0xA0 SHL SUB SWAP1 SWAP2 AND SWAP1 PUSH4 0x23B872DD SWAP1 PUSH1 0x64 ADD PUSH1 0x20 PUSH1 0x40 MLOAD DUP1 DUP4 SUB DUP2 PUSH1 0x0 DUP8 DUP1 EXTCODESIZE ISZERO DUP1 ISZERO PUSH2 0xD2A JUMPI PUSH1 0x0 DUP1 REVERT JUMPDEST POP GAS CALL ISZERO DUP1 ISZERO PUSH2 0xD3E JUMPI RETURNDATASIZE PUSH1 0x0 DUP1 RETURNDATACOPY RETURNDATASIZE PUSH1 0x0 REVERT JUMPDEST POP POP POP POP PUSH1 0x40 MLOAD RETURNDATASIZE PUSH1 0x1F NOT PUSH1 0x1F DUP3 ADD AND DUP3 ADD DUP1 PUSH1 0x40 MSTORE POP DUP2 ADD SWAP1 PUSH2 0xD62 SWAP2 SWAP1 PUSH2 0xFDD JUMP JUMPDEST PUSH2 0xD6B JUMPI PUSH1 0x0 DUP1 REVERT JUMPDEST PUSH1 0x40 MLOAD DUP2 DUP2 MSTORE PUSH32 0x4D6CE1E535DBADE1C23DEFBA91E23B8F791CE5EDC0CC320257A2B364E4E38426 SWAP1 PUSH1 0x20 ADD PUSH1 0x40 MLOAD DUP1 SWAP2 SUB SWAP1 LOG1 PUSH1 0x8 SSTORE POP JUMP JUMPDEST PUSH1 0x0 DUP1 SLOAD PUSH1 0x40 MLOAD PUSH4 0x70A08231 PUSH1 0xE0 SHL DUP2 MSTORE ADDRESS PUSH1 0x4 DUP3 ADD MSTORE PUSH2 0xDDB SWAP2 DUP5 SWAP2 PUSH1 0x1 PUSH1 0x1 PUSH1 0xA0 SHL SUB SWAP1 SWAP2 AND SWAP1 PUSH4 0x70A08231 SWAP1 PUSH1 0x24 ADD PUSH2 0x810 JUMP JUMPDEST PUSH1 0x40 MLOAD SWAP1 SWAP2 POP PUSH1 0x0 SWAP1 ORIGIN SWAP1 DUP4 SWAP1 DUP4 DUP2 DUP2 DUP2 DUP6 DUP8 GAS CALL SWAP3 POP POP POP RETURNDATASIZE DUP1 PUSH1 0x0 DUP2 EQ PUSH2 0xE20 JUMPI PUSH1 0x40 MLOAD SWAP2 POP PUSH1 0x1F NOT PUSH1 0x3F RETURNDATASIZE ADD AND DUP3 ADD PUSH1 0x40 MSTORE RETURNDATASIZE DUP3 MSTORE RETURNDATASIZE PUSH1 0x0 PUSH1 0x20 DUP5 ADD RETURNDATACOPY PUSH2 0xE25 JUMP JUMPDEST PUSH1 0x60 SWAP2 POP JUMPDEST POP POP SWAP1 POP DUP1 PUSH2 0xE69 JUMPI PUSH1 0x40 MLOAD PUSH3 0x461BCD PUSH1 0xE5 SHL DUP2 MSTORE PUSH1 0x20 PUSH1 0x4 DUP3 ADD MSTORE PUSH1 0x10 PUSH1 0x24 DUP3 ADD MSTORE PUSH16 0x2A3930B739B332B9103330B4B632B217 PUSH1 0x81 SHL PUSH1 0x44 DUP3 ADD MSTORE PUSH1 0x64 ADD PUSH2 0x500 JUMP JUMPDEST PUSH1 0x0 SLOAD PUSH1 0x40 MLOAD PUSH4 0x23B872DD PUSH1 0xE0 SHL DUP2 MSTORE ORIGIN PUSH1 0x4 DUP3 ADD MSTORE ADDRESS PUSH1 0x24 DUP3 ADD MSTORE PUSH1 0x44 DUP2 ADD DUP6 SWAP1 MSTORE PUSH1 0x1 PUSH1 0x1 PUSH1 0xA0 SHL SUB SWAP1 SWAP2 AND SWAP1 PUSH4 0x23B872DD SWAP1 PUSH1 0x64 ADD PUSH1 0x20 PUSH1 0x40 MLOAD DUP1 DUP4 SUB DUP2 PUSH1 0x0 DUP8 DUP1 EXTCODESIZE ISZERO DUP1 ISZERO PUSH2 0xEBB JUMPI PUSH1 0x0 DUP1 REVERT JUMPDEST POP GAS CALL ISZERO DUP1 ISZERO PUSH2 0xECF JUMPI RETURNDATASIZE PUSH1 0x0 DUP1 RETURNDATACOPY RETURNDATASIZE PUSH1 0x0 REVERT JUMPDEST POP POP POP POP PUSH1 0x40 MLOAD RETURNDATASIZE PUSH1 0x1F NOT PUSH1 0x1F DUP3 ADD AND DUP3 ADD DUP1 PUSH1 0x40 MSTORE POP DUP2 ADD SWAP1 PUSH2 0xEF3 SWAP2 SWAP1 PUSH2 0xFDD JUMP JUMPDEST PUSH2 0xEFC JUMPI PUSH1 0x0 DUP1 REVERT JUMPDEST DUP2 PUSH1 0x3 PUSH1 0x0 DUP3 DUP3 SLOAD PUSH2 0xF0E SWAP2 SWAP1 PUSH2 0x1031 JUMP JUMPDEST SWAP1 SWAP2 SSTORE POP POP PUSH1 0x40 MLOAD DUP3 DUP2 MSTORE PUSH32 0x4DBF3A71A7C7262F432C2CAD7808225832255D07F7D8AB85117677C0B5C0A850 SWAP1 PUSH1 0x20 ADD PUSH1 0x40 MLOAD DUP1 SWAP2 SUB SWAP1 LOG1 POP PUSH1 0x7 SSTORE POP JUMP JUMPDEST PUSH1 0x0 PUSH2 0xF59 DUP5 DUP5 PUSH2 0x1031 JUMP JUMPDEST PUSH2 0xF63 DUP4 DUP7 PUSH2 0x106B JUMP JUMPDEST PUSH2 0xF6D SWAP2 SWAP1 PUSH2 0x1049 JUMP JUMPDEST SWAP5 SWAP4 POP POP POP POP JUMP JUMPDEST DUP1 CALLDATALOAD PUSH1 0x1 PUSH1 0x1 PUSH1 0xA0 SHL SUB DUP2 AND DUP2 EQ PUSH2 0xF8C JUMPI PUSH1 0x0 DUP1 REVERT JUMPDEST SWAP2 SWAP1 POP JUMP JUMPDEST PUSH1 0x0 PUSH1 0x20 DUP3 DUP5 SUB SLT ISZERO PUSH2 0xFA3 JUMPI PUSH1 0x0 DUP1 REVERT JUMPDEST PUSH2 0xFAC DUP3 PUSH2 0xF75 JUMP JUMPDEST SWAP4 SWAP3 POP POP POP JUMP JUMPDEST PUSH1 0x0 DUP1 PUSH1 0x40 DUP4 DUP6 SUB SLT ISZERO PUSH2 0xFC6 JUMPI PUSH1 0x0 DUP1 REVERT JUMPDEST PUSH2 0xFCF DUP4 PUSH2 0xF75 JUMP JUMPDEST SWAP5 PUSH1 0x20 SWAP4 SWAP1 SWAP4 ADD CALLDATALOAD SWAP4 POP POP POP JUMP JUMPDEST PUSH1 0x0 PUSH1 0x20 DUP3 DUP5 SUB SLT ISZERO PUSH2 0xFEF JUMPI PUSH1 0x0 DUP1 REVERT JUMPDEST DUP2 MLOAD DUP1 ISZERO ISZERO DUP2 EQ PUSH2 0xFAC JUMPI PUSH1 0x0 DUP1 REVERT JUMPDEST PUSH1 0x0 PUSH1 0x20 DUP3 DUP5 SUB SLT ISZERO PUSH2 0x1011 JUMPI PUSH1 0x0 DUP1 REVERT JUMPDEST POP CALLDATALOAD SWAP2 SWAP1 POP JUMP JUMPDEST PUSH1 0x0 PUSH1 0x20 DUP3 DUP5 SUB SLT ISZERO PUSH2 0x102A JUMPI PUSH1 0x0 DUP1 REVERT JUMPDEST POP MLOAD SWAP2 SWAP1 POP JUMP JUMPDEST PUSH1 0x0 DUP3 NOT DUP3 GT ISZERO PUSH2 0x1044 JUMPI PUSH2 0x1044 PUSH2 0x10A1 JUMP JUMPDEST POP ADD SWAP1 JUMP JUMPDEST PUSH1 0x0 DUP3 PUSH2 0x1066 JUMPI PUSH4 0x4E487B71 PUSH1 0xE0 SHL PUSH1 0x0 MSTORE PUSH1 0x12 PUSH1 0x4 MSTORE PUSH1 0x24 PUSH1 0x0 REVERT JUMPDEST POP DIV SWAP1 JUMP JUMPDEST PUSH1 0x0 DUP2 PUSH1 0x0 NOT DIV DUP4 GT DUP3 ISZERO ISZERO AND ISZERO PUSH2 0x1085 JUMPI PUSH2 0x1085 PUSH2 0x10A1 JUMP JUMPDEST POP MUL SWAP1 JUMP JUMPDEST PUSH1 0x0 DUP3 DUP3 LT ISZERO PUSH2 0x109C JUMPI PUSH2 0x109C PUSH2 0x10A1 JUMP JUMPDEST POP SUB SWAP1 JUMP JUMPDEST PUSH4 0x4E487B71 PUSH1 0xE0 SHL PUSH1 0x0 MSTORE PUSH1 0x11 PUSH1 0x4 MSTORE PUSH1 0x24 PUSH1 0x0 REVERT INVALID LOG2 PUSH5 0x6970667358 0x22 SLT KECCAK256 PUSH5 0xB535C959BB DUP1 0x23 0xC5 PUSH18 0xA7A3395E36D84D3A90BDB7A51A246E66D05B CHAINID PUSH19 0x7F4664736F6C63430008070033608060405234 DUP1 ISZERO PUSH2 0x10 JUMPI PUSH1 0x0 DUP1 REVERT JUMPDEST POP PUSH2 0xB86 DUP1 PUSH2 0x20 PUSH1 0x0 CODECOPY PUSH1 0x0 RETURN INVALID PUSH1 0x80 PUSH1 0x40 MSTORE CALLVALUE DUP1 ISZERO PUSH2 0x10 JUMPI PUSH1 0x0 DUP1 REVERT JUMPDEST POP PUSH1 0x4 CALLDATASIZE LT PUSH2 0x147 JUMPI PUSH1 0x0 CALLDATALOAD PUSH1 0xE0 SHR DUP1 PUSH4 0x5D8AB6E7 GT PUSH2 0xC8 JUMPI DUP1 PUSH4 0xA2932558 GT PUSH2 0x8C JUMPI DUP1 PUSH4 0xC4374575 GT PUSH2 0x66 JUMPI DUP1 PUSH4 0xC4374575 EQ PUSH2 0x2B6 JUMPI DUP1 PUSH4 0xEA7A9B4E EQ PUSH2 0x2C9 JUMPI DUP1 PUSH4 0xF7155345 EQ PUSH2 0x2DC JUMPI PUSH1 0x0 DUP1 REVERT JUMPDEST DUP1 PUSH4 0xA2932558 EQ PUSH2 0x293 JUMPI DUP1 PUSH4 0xAC7FDD39 EQ PUSH2 0x29B JUMPI DUP1 PUSH4 0xB794CC2F EQ PUSH2 0x2A3 JUMPI PUSH1 0x0 DUP1 REVERT JUMPDEST DUP1 PUSH4 0x5D8AB6E7 EQ PUSH2 0x24B JUMPI DUP1 PUSH4 0x6901F668 EQ PUSH2 0x25D JUMPI DUP1 PUSH4 0x8D15D676 EQ PUSH2 0x265 JUMPI DUP1 PUSH4 0x8DA5CB5B EQ PUSH2 0x278 JUMPI DUP1 PUSH4 0x990EC12B EQ PUSH2 0x28B JUMPI PUSH1 0x0 DUP1 REVERT JUMPDEST DUP1 PUSH4 0x1C4695F4 GT PUSH2 0x10F JUMPI DUP1 PUSH4 0x1C4695F4 EQ PUSH2 0x1EA JUMPI DUP1 PUSH4 0x1D846C65 EQ PUSH2 0x1F2 JUMPI DUP1 PUSH4 0x35AA2E44 EQ PUSH2 0x205 JUMPI DUP1 PUSH4 0x4E7F4D3C EQ PUSH2 0x230 JUMPI DUP1 PUSH4 0x5836E0B5 EQ PUSH2 0x243 JUMPI PUSH1 0x0 DUP1 REVERT JUMPDEST DUP1 PUSH4 0x36B6110 EQ PUSH2 0x14C JUMPI DUP1 PUSH4 0x9BD5A60 EQ PUSH2 0x161 JUMPI DUP1 PUSH4 0x123119CD EQ PUSH2 0x17F JUMPI DUP1 PUSH4 0x13AF4035 EQ PUSH2 0x187 JUMPI DUP1 PUSH4 0x1A2DB8D2 EQ PUSH2 0x1B7 JUMPI JUMPDEST PUSH1 0x0 DUP1 REVERT JUMPDEST PUSH2 0x15F PUSH2 0x15A CALLDATASIZE PUSH1 0x4 PUSH2 0x8BE JUMP JUMPDEST PUSH2 0x2FF JUMP JUMPDEST STOP JUMPDEST PUSH2 0x169 PUSH2 0x316 JUMP JUMPDEST PUSH1 0x40 MLOAD PUSH2 0x176 SWAP2 SWAP1 PUSH2 0x988 JUMP JUMPDEST PUSH1 0x40 MLOAD DUP1 SWAP2 SUB SWAP1 RETURN JUMPDEST PUSH2 0x169 PUSH2 0x3A4 JUMP JUMPDEST PUSH2 0x15F PUSH2 0x195 CALLDATASIZE PUSH1 0x4 PUSH2 0x88E JUMP JUMPDEST PUSH1 0x0 DUP1 SLOAD PUSH1 0x1 PUSH1 0x1 PUSH1 0xA0 SHL SUB NOT AND PUSH1 0x1 PUSH1 0x1 PUSH1 0xA0 SHL SUB SWAP3 SWAP1 SWAP3 AND SWAP2 SWAP1 SWAP2 OR SWAP1 SSTORE JUMP JUMPDEST PUSH2 0x1DA PUSH2 0x1C5 CALLDATASIZE PUSH1 0x4 PUSH2 0x88E JUMP JUMPDEST PUSH1 0x8 PUSH1 0x20 MSTORE PUSH1 0x0 SWAP1 DUP2 MSTORE PUSH1 0x40 SWAP1 KECCAK256 SLOAD PUSH1 0xFF AND DUP2 JUMP JUMPDEST PUSH1 0x40 MLOAD SWAP1 ISZERO ISZERO DUP2 MSTORE PUSH1 0x20 ADD PUSH2 0x176 JUMP JUMPDEST PUSH2 0x169 PUSH2 0x3B1 JUMP JUMPDEST PUSH2 0x15F PUSH2 0x200 CALLDATASIZE PUSH1 0x4 PUSH2 0x8BE JUMP JUMPDEST PUSH2 0x3BE JUMP JUMPDEST PUSH2 0x218 PUSH2 0x213 CALLDATASIZE PUSH1 0x4 PUSH2 0x96F JUMP JUMPDEST PUSH2 0x3D1 JUMP JUMPDEST PUSH1 0x40 MLOAD PUSH1 0x1 PUSH1 0x1 PUSH1 0xA0 SHL SUB SWAP1 SWAP2 AND DUP2 MSTORE PUSH1 0x20 ADD PUSH2 0x176 JUMP JUMPDEST PUSH2 0x15F PUSH2 0x23E CALLDATASIZE PUSH1 0x4 PUSH2 0x8BE JUMP JUMPDEST PUSH2 0x3FB JUMP JUMPDEST PUSH2 0x15F PUSH2 0x40E JUMP JUMPDEST PUSH1 0x6 SLOAD JUMPDEST PUSH1 0x40 MLOAD SWAP1 DUP2 MSTORE PUSH1 0x20 ADD PUSH2 0x176 JUMP JUMPDEST PUSH2 0x15F PUSH2 0x595 JUMP JUMPDEST PUSH2 0x15F PUSH2 0x273 CALLDATASIZE PUSH1 0x4 PUSH2 0x8BE JUMP JUMPDEST PUSH2 0x711 JUMP JUMPDEST PUSH1 0x0 SLOAD PUSH2 0x218 SWAP1 PUSH1 0x1 PUSH1 0x1 PUSH1 0xA0 SHL SUB AND DUP2 JUMP JUMPDEST PUSH1 0x5 SLOAD PUSH2 0x24F JUMP JUMPDEST PUSH2 0x169 PUSH2 0x724 JUMP JUMPDEST PUSH2 0x1DA PUSH2 0x731 JUMP JUMPDEST PUSH2 0x1DA PUSH2 0x2B1 CALLDATASIZE PUSH1 0x4 PUSH2 0x88E JUMP JUMPDEST PUSH2 0x76F JUMP JUMPDEST PUSH2 0x1DA PUSH2 0x2C4 CALLDATASIZE PUSH1 0x4 PUSH2 0x88E JUMP JUMPDEST PUSH2 0x7AA JUMP JUMPDEST PUSH2 0x218 PUSH2 0x2D7 CALLDATASIZE PUSH1 0x4 PUSH2 0x96F JUMP JUMPDEST PUSH2 0x7E5 JUMP JUMPDEST PUSH2 0x1DA PUSH2 0x2EA CALLDATASIZE PUSH1 0x4 PUSH2 0x88E JUMP JUMPDEST PUSH1 0x7 PUSH1 0x20 MSTORE PUSH1 0x0 SWAP1 DUP2 MSTORE PUSH1 0x40 SWAP1 KECCAK256 SLOAD PUSH1 0xFF AND DUP2 JUMP JUMPDEST DUP1 MLOAD PUSH2 0x312 SWAP1 PUSH1 0x2 SWAP1 PUSH1 0x20 DUP5 ADD SWAP1 PUSH2 0x7F5 JUMP JUMPDEST POP POP JUMP JUMPDEST PUSH1 0x3 DUP1 SLOAD PUSH2 0x323 SWAP1 PUSH2 0xAFF JUMP JUMPDEST DUP1 PUSH1 0x1F ADD PUSH1 0x20 DUP1 SWAP2 DIV MUL PUSH1 0x20 ADD PUSH1 0x40 MLOAD SWAP1 DUP2 ADD PUSH1 0x40 MSTORE DUP1 SWAP3 SWAP2 SWAP1 DUP2 DUP2 MSTORE PUSH1 0x20 ADD DUP3 DUP1 SLOAD PUSH2 0x34F SWAP1 PUSH2 0xAFF JUMP JUMPDEST DUP1 ISZERO PUSH2 0x39C JUMPI DUP1 PUSH1 0x1F LT PUSH2 0x371 JUMPI PUSH2 0x100 DUP1 DUP4 SLOAD DIV MUL DUP4 MSTORE SWAP2 PUSH1 0x20 ADD SWAP2 PUSH2 0x39C JUMP JUMPDEST DUP3 ADD SWAP2 SWAP1 PUSH1 0x0 MSTORE PUSH1 0x20 PUSH1 0x0 KECCAK256 SWAP1 JUMPDEST DUP2 SLOAD DUP2 MSTORE SWAP1 PUSH1 0x1 ADD SWAP1 PUSH1 0x20 ADD DUP1 DUP4 GT PUSH2 0x37F JUMPI DUP3 SWAP1 SUB PUSH1 0x1F AND DUP3 ADD SWAP2 JUMPDEST POP POP POP POP POP DUP2 JUMP JUMPDEST PUSH1 0x1 DUP1 SLOAD PUSH2 0x323 SWAP1 PUSH2 0xAFF JUMP JUMPDEST PUSH1 0x4 DUP1 SLOAD PUSH2 0x323 SWAP1 PUSH2 0xAFF JUMP JUMPDEST DUP1 MLOAD PUSH2 0x312 SWAP1 PUSH1 0x3 SWAP1 PUSH1 0x20 DUP5 ADD SWAP1 PUSH2 0x7F5 JUMP JUMPDEST PUSH1 0x5 DUP2 DUP2 SLOAD DUP2 LT PUSH2 0x3E1 JUMPI PUSH1 0x0 DUP1 REVERT JUMPDEST PUSH1 0x0 SWAP2 DUP3 MSTORE PUSH1 0x20 SWAP1 SWAP2 KECCAK256 ADD SLOAD PUSH1 0x1 PUSH1 0x1 PUSH1 0xA0 SHL SUB AND SWAP1 POP DUP2 JUMP JUMPDEST DUP1 MLOAD PUSH2 0x312 SWAP1 PUSH1 0x1 SWAP1 PUSH1 0x20 DUP5 ADD SWAP1 PUSH2 0x7F5 JUMP JUMPDEST PUSH1 0x0 SLOAD PUSH1 0x1 PUSH1 0x1 PUSH1 0xA0 SHL SUB AND ORIGIN EQ ISZERO PUSH2 0x479 JUMPI PUSH1 0x40 MLOAD PUSH3 0x461BCD PUSH1 0xE5 SHL DUP2 MSTORE PUSH1 0x20 PUSH1 0x4 DUP3 ADD MSTORE PUSH1 0x22 PUSH1 0x24 DUP3 ADD MSTORE PUSH32 0x4F776E65722063616E6E6F742064656E7920686973206F776E20646F63756D65 PUSH1 0x44 DUP3 ADD MSTORE PUSH2 0x1B9D PUSH1 0xF2 SHL PUSH1 0x64 DUP3 ADD MSTORE PUSH1 0x84 ADD JUMPDEST PUSH1 0x40 MLOAD DUP1 SWAP2 SUB SWAP1 REVERT JUMPDEST ORIGIN PUSH1 0x0 SWAP1 DUP2 MSTORE PUSH1 0x8 PUSH1 0x20 MSTORE PUSH1 0x40 SWAP1 KECCAK256 SLOAD PUSH1 0xFF AND ISZERO PUSH2 0x4CE JUMPI PUSH1 0x40 MLOAD PUSH3 0x461BCD PUSH1 0xE5 SHL DUP2 MSTORE PUSH1 0x20 PUSH1 0x4 DUP3 ADD MSTORE PUSH1 0x12 PUSH1 0x24 DUP3 ADD MSTORE PUSH18 0x2932B832B0BA32B2103232B732B3B0BA37B9 PUSH1 0x71 SHL PUSH1 0x44 DUP3 ADD MSTORE PUSH1 0x64 ADD PUSH2 0x470 JUMP JUMPDEST ORIGIN PUSH1 0x0 SWAP1 DUP2 MSTORE PUSH1 0x7 PUSH1 0x20 MSTORE PUSH1 0x40 SWAP1 KECCAK256 SLOAD PUSH1 0xFF AND ISZERO PUSH2 0x4FE JUMPI PUSH1 0x40 MLOAD PUSH3 0x461BCD PUSH1 0xE5 SHL DUP2 MSTORE PUSH1 0x4 ADD PUSH2 0x470 SWAP1 PUSH2 0xA85 JUMP JUMPDEST PUSH1 0x6 DUP1 SLOAD PUSH1 0x1 DUP2 DUP2 ADD SWAP1 SWAP3 SSTORE PUSH32 0xF652222313E28459528D920B65115C16C04F3EFC82AAEDC97BE59F3F377C0D3F ADD DUP1 SLOAD PUSH1 0x1 PUSH1 0x1 PUSH1 0xA0 SHL SUB NOT AND ORIGIN SWAP1 DUP2 OR SWAP1 SWAP2 SSTORE PUSH1 0x0 DUP2 DUP2 MSTORE PUSH1 0x8 PUSH1 0x20 MSTORE PUSH1 0x40 SWAP1 DUP2 SWAP1 KECCAK256 DUP1 SLOAD PUSH1 0xFF NOT AND SWAP1 SWAP4 OR SWAP1 SWAP3 SSTORE SWAP1 MLOAD PUSH32 0x9036BC06AD4A578F0132D89BA4ADC07B9772275526730ACC38D7E4B4C11872A3 SWAP1 PUSH2 0x58B SWAP1 PUSH1 0x2 SWAP1 PUSH2 0x9DD JUMP JUMPDEST PUSH1 0x40 MLOAD DUP1 SWAP2 SUB SWAP1 LOG2 JUMP JUMPDEST PUSH1 0x0 SLOAD PUSH1 0x1 PUSH1 0x1 PUSH1 0xA0 SHL SUB AND ORIGIN EQ ISZERO PUSH2 0x5FF JUMPI PUSH1 0x40 MLOAD PUSH3 0x461BCD PUSH1 0xE5 SHL DUP2 MSTORE PUSH1 0x20 PUSH1 0x4 DUP3 ADD MSTORE PUSH1 0x26 PUSH1 0x24 DUP3 ADD MSTORE PUSH32 0x4F776E65722063616E6E6F742076616C696461746520686973206F776E20646F PUSH1 0x44 DUP3 ADD MSTORE PUSH6 0x18DD5B595B9D PUSH1 0xD2 SHL PUSH1 0x64 DUP3 ADD MSTORE PUSH1 0x84 ADD PUSH2 0x470 JUMP JUMPDEST ORIGIN PUSH1 0x0 SWAP1 DUP2 MSTORE PUSH1 0x7 PUSH1 0x20 MSTORE PUSH1 0x40 SWAP1 KECCAK256 SLOAD PUSH1 0xFF AND ISZERO PUSH2 0x654 JUMPI PUSH1 0x40 MLOAD PUSH3 0x461BCD PUSH1 0xE5 SHL DUP2 MSTORE PUSH1 0x20 PUSH1 0x4 DUP3 ADD MSTORE PUSH1 0x12 PUSH1 0x24 DUP3 ADD MSTORE PUSH18 0x2932B832B0BA32B2103B30B634B230BA37B9 PUSH1 0x71 SHL PUSH1 0x44 DUP3 ADD MSTORE PUSH1 0x64 ADD PUSH2 0x470 JUMP JUMPDEST ORIGIN PUSH1 0x0 SWAP1 DUP2 MSTORE PUSH1 0x8 PUSH1 0x20 MSTORE PUSH1 0x40 SWAP1 KECCAK256 SLOAD PUSH1 0xFF AND ISZERO PUSH2 0x684 JUMPI PUSH1 0x40 MLOAD PUSH3 0x461BCD PUSH1 0xE5 SHL DUP2 MSTORE PUSH1 0x4 ADD PUSH2 0x470 SWAP1 PUSH2 0xA85 JUMP JUMPDEST PUSH1 0x5 DUP1 SLOAD PUSH1 0x1 DUP2 DUP2 ADD SWAP1 SWAP3 SSTORE PUSH32 0x36B6384B5ECA791C62761152D0C79BB0604C104A5FB6F4EB0703F3154BB3DB0 ADD DUP1 SLOAD PUSH1 0x1 PUSH1 0x1 PUSH1 0xA0 SHL SUB NOT AND ORIGIN SWAP1 DUP2 OR SWAP1 SWAP2 SSTORE PUSH1 0x0 DUP2 DUP2 MSTORE PUSH1 0x7 PUSH1 0x20 MSTORE PUSH1 0x40 SWAP1 DUP2 SWAP1 KECCAK256 DUP1 SLOAD PUSH1 0xFF NOT AND SWAP1 SWAP4 OR SWAP1 SWAP3 SSTORE SWAP1 MLOAD PUSH32 0x57D77EB32E87E8C65C7CEC1DF5B0E8A8D5C4EAE1B40C7246E7668ED702DD247A SWAP1 PUSH2 0x58B SWAP1 PUSH1 0x2 SWAP1 PUSH2 0x9DD JUMP JUMPDEST DUP1 MLOAD PUSH2 0x312 SWAP1 PUSH1 0x4 SWAP1 PUSH1 0x20 DUP5 ADD SWAP1 PUSH2 0x7F5 JUMP JUMPDEST PUSH1 0x2 DUP1 SLOAD PUSH2 0x323 SWAP1 PUSH2 0xAFF JUMP JUMPDEST PUSH1 0x6 SLOAD PUSH1 0x5 SLOAD PUSH1 0x0 SWAP2 SWAP1 DUP2 ISZERO DUP1 ISZERO PUSH2 0x74A JUMPI POP PUSH1 0x5 DUP2 LT ISZERO JUMPDEST DUP1 PUSH2 0x768 JUMPI POP DUP2 ISZERO DUP1 ISZERO SWAP1 PUSH2 0x768 JUMPI POP PUSH2 0x765 DUP3 PUSH1 0x5 PUSH2 0xAD2 JUMP JUMPDEST DUP2 GT JUMPDEST SWAP3 POP POP POP SWAP1 JUMP JUMPDEST PUSH1 0x0 DUP1 SLOAD PUSH1 0x1 PUSH1 0x1 PUSH1 0xA0 SHL SUB DUP4 DUP2 AND SWAP2 AND EQ ISZERO PUSH2 0x78B JUMPI PUSH1 0x0 DUP1 REVERT JUMPDEST POP PUSH1 0x1 PUSH1 0x1 PUSH1 0xA0 SHL SUB AND PUSH1 0x0 SWAP1 DUP2 MSTORE PUSH1 0x8 PUSH1 0x20 MSTORE PUSH1 0x40 SWAP1 KECCAK256 SLOAD PUSH1 0xFF AND SWAP1 JUMP JUMPDEST PUSH1 0x0 DUP1 SLOAD PUSH1 0x1 PUSH1 0x1 PUSH1 0xA0 SHL SUB DUP4 DUP2 AND SWAP2 AND EQ ISZERO PUSH2 0x7C6 JUMPI PUSH1 0x0 DUP1 REVERT JUMPDEST POP PUSH1 0x1 PUSH1 0x1 PUSH1 0xA0 SHL SUB AND PUSH1 0x0 SWAP1 DUP2 MSTORE PUSH1 0x7 PUSH1 0x20 MSTORE PUSH1 0x40 SWAP1 KECCAK256 SLOAD PUSH1 0xFF AND SWAP1 JUMP JUMPDEST PUSH1 0x6 DUP2 DUP2 SLOAD DUP2 LT PUSH2 0x3E1 JUMPI PUSH1 0x0 DUP1 REVERT JUMPDEST DUP3 DUP1 SLOAD PUSH2 0x801 SWAP1 PUSH2 0xAFF JUMP JUMPDEST SWAP1 PUSH1 0x0 MSTORE PUSH1 0x20 PUSH1 0x0 KECCAK256 SWAP1 PUSH1 0x1F ADD PUSH1 0x20 SWAP1 DIV DUP2 ADD SWAP3 DUP3 PUSH2 0x823 JUMPI PUSH1 0x0 DUP6 SSTORE PUSH2 0x869 JUMP JUMPDEST DUP3 PUSH1 0x1F LT PUSH2 0x83C JUMPI DUP1 MLOAD PUSH1 0xFF NOT AND DUP4 DUP1 ADD OR DUP6 SSTORE PUSH2 0x869 JUMP JUMPDEST DUP3 DUP1 ADD PUSH1 0x1 ADD DUP6 SSTORE DUP3 ISZERO PUSH2 0x869 JUMPI SWAP2 DUP3 ADD JUMPDEST DUP3 DUP2 GT ISZERO PUSH2 0x869 JUMPI DUP3 MLOAD DUP3 SSTORE SWAP2 PUSH1 0x20 ADD SWAP2 SWAP1 PUSH1 0x1 ADD SWAP1 PUSH2 0x84E JUMP JUMPDEST POP PUSH2 0x875 SWAP3 SWAP2 POP PUSH2 0x879 JUMP JUMPDEST POP SWAP1 JUMP JUMPDEST JUMPDEST DUP1 DUP3 GT ISZERO PUSH2 0x875 JUMPI PUSH1 0x0 DUP2 SSTORE PUSH1 0x1 ADD PUSH2 0x87A JUMP JUMPDEST PUSH1 0x0 PUSH1 0x20 DUP3 DUP5 SUB SLT ISZERO PUSH2 0x8A0 JUMPI PUSH1 0x0 DUP1 REVERT JUMPDEST DUP2 CALLDATALOAD PUSH1 0x1 PUSH1 0x1 PUSH1 0xA0 SHL SUB DUP2 AND DUP2 EQ PUSH2 0x8B7 JUMPI PUSH1 0x0 DUP1 REVERT JUMPDEST SWAP4 SWAP3 POP POP POP JUMP JUMPDEST PUSH1 0x0 PUSH1 0x20 DUP3 DUP5 SUB SLT ISZERO PUSH2 0x8D0 JUMPI PUSH1 0x0 DUP1 REVERT JUMPDEST DUP2 CALLDATALOAD PUSH8 0xFFFFFFFFFFFFFFFF DUP1 DUP3 GT ISZERO PUSH2 0x8E8 JUMPI PUSH1 0x0 DUP1 REVERT JUMPDEST DUP2 DUP5 ADD SWAP2 POP DUP5 PUSH1 0x1F DUP4 ADD SLT PUSH2 0x8FC JUMPI PUSH1 0x0 DUP1 REVERT JUMPDEST DUP2 CALLDATALOAD DUP2 DUP2 GT ISZERO PUSH2 0x90E JUMPI PUSH2 0x90E PUSH2 0xB3A JUMP JUMPDEST PUSH1 0x40 MLOAD PUSH1 0x1F DUP3 ADD PUSH1 0x1F NOT SWAP1 DUP2 AND PUSH1 0x3F ADD AND DUP2 ADD SWAP1 DUP4 DUP3 GT DUP2 DUP4 LT OR ISZERO PUSH2 0x936 JUMPI PUSH2 0x936 PUSH2 0xB3A JUMP JUMPDEST DUP2 PUSH1 0x40 MSTORE DUP3 DUP2 MSTORE DUP8 PUSH1 0x20 DUP5 DUP8 ADD ADD GT ISZERO PUSH2 0x94F JUMPI PUSH1 0x0 DUP1 REVERT JUMPDEST DUP3 PUSH1 0x20 DUP7 ADD PUSH1 0x20 DUP4 ADD CALLDATACOPY PUSH1 0x0 SWAP3 DUP2 ADD PUSH1 0x20 ADD SWAP3 SWAP1 SWAP3 MSTORE POP SWAP6 SWAP5 POP POP POP POP POP JUMP JUMPDEST PUSH1 0x0 PUSH1 0x20 DUP3 DUP5 SUB SLT ISZERO PUSH2 0x981 JUMPI PUSH1 0x0 DUP1 REVERT JUMPDEST POP CALLDATALOAD SWAP2 SWAP1 POP JUMP JUMPDEST PUSH1 0x0 PUSH1 0x20 DUP1 DUP4 MSTORE DUP4 MLOAD DUP1 DUP3 DUP6 ADD MSTORE PUSH1 0x0 JUMPDEST DUP2 DUP2 LT ISZERO PUSH2 0x9B5 JUMPI DUP6 DUP2 ADD DUP4 ADD MLOAD DUP6 DUP3 ADD PUSH1 0x40 ADD MSTORE DUP3 ADD PUSH2 0x999 JUMP JUMPDEST DUP2 DUP2 GT ISZERO PUSH2 0x9C7 JUMPI PUSH1 0x0 PUSH1 0x40 DUP4 DUP8 ADD ADD MSTORE JUMPDEST POP PUSH1 0x1F ADD PUSH1 0x1F NOT AND SWAP3 SWAP1 SWAP3 ADD PUSH1 0x40 ADD SWAP4 SWAP3 POP POP POP JUMP JUMPDEST PUSH1 0x0 PUSH1 0x20 DUP1 DUP4 MSTORE PUSH1 0x0 DUP5 SLOAD DUP2 PUSH1 0x1 DUP3 DUP2 SHR SWAP2 POP DUP1 DUP4 AND DUP1 PUSH2 0x9FF JUMPI PUSH1 0x7F DUP4 AND SWAP3 POP JUMPDEST DUP6 DUP4 LT DUP2 EQ ISZERO PUSH2 0xA1D JUMPI PUSH4 0x4E487B71 PUSH1 0xE0 SHL DUP6 MSTORE PUSH1 0x22 PUSH1 0x4 MSTORE PUSH1 0x24 DUP6 REVERT JUMPDEST DUP8 DUP7 ADD DUP4 DUP2 MSTORE PUSH1 0x20 ADD DUP2 DUP1 ISZERO PUSH2 0xA3A JUMPI PUSH1 0x1 DUP2 EQ PUSH2 0xA4B JUMPI PUSH2 0xA76 JUMP JUMPDEST PUSH1 0xFF NOT DUP7 AND DUP3 MSTORE DUP8 DUP3 ADD SWAP7 POP PUSH2 0xA76 JUMP JUMPDEST PUSH1 0x0 DUP12 DUP2 MSTORE PUSH1 0x20 SWAP1 KECCAK256 PUSH1 0x0 JUMPDEST DUP7 DUP2 LT ISZERO PUSH2 0xA70 JUMPI DUP2 SLOAD DUP5 DUP3 ADD MSTORE SWAP1 DUP6 ADD SWAP1 DUP10 ADD PUSH2 0xA57 JUMP JUMPDEST DUP4 ADD SWAP8 POP POP JUMPDEST POP SWAP5 SWAP10 SWAP9 POP POP POP POP POP POP POP POP POP JUMP JUMPDEST PUSH1 0x20 DUP1 DUP3 MSTORE PUSH1 0x2D SWAP1 DUP3 ADD MSTORE PUSH32 0x596F752063616E6E6F742076616C696461746520616E642064656E7920617420 PUSH1 0x40 DUP3 ADD MSTORE PUSH13 0x7468652073616D652074696D65 PUSH1 0x98 SHL PUSH1 0x60 DUP3 ADD MSTORE PUSH1 0x80 ADD SWAP1 JUMP JUMPDEST PUSH1 0x0 DUP2 PUSH1 0x0 NOT DIV DUP4 GT DUP3 ISZERO ISZERO AND ISZERO PUSH2 0xAFA JUMPI PUSH4 0x4E487B71 PUSH1 0xE0 SHL PUSH1 0x0 MSTORE PUSH1 0x11 PUSH1 0x4 MSTORE PUSH1 0x24 PUSH1 0x0 REVERT JUMPDEST POP MUL SWAP1 JUMP JUMPDEST PUSH1 0x1 DUP2 DUP2 SHR SWAP1 DUP3 AND DUP1 PUSH2 0xB13 JUMPI PUSH1 0x7F DUP3 AND SWAP2 POP JUMPDEST PUSH1 0x20 DUP3 LT DUP2 EQ ISZERO PUSH2 0xB34 JUMPI PUSH4 0x4E487B71 PUSH1 0xE0 SHL PUSH1 0x0 MSTORE PUSH1 0x22 PUSH1 0x4 MSTORE PUSH1 0x24 PUSH1 0x0 REVERT JUMPDEST POP SWAP2 SWAP1 POP JUMP JUMPDEST PUSH4 0x4E487B71 PUSH1 0xE0 SHL PUSH1 0x0 MSTORE PUSH1 0x41 PUSH1 0x4 MSTORE PUSH1 0x24 PUSH1 0x0 REVERT INVALID LOG2 PUSH5 0x6970667358 0x22 SLT KECCAK256 0x4A 0xDD 0x26 DIFFICULTY KECCAK256 CALLDATACOPY 0xD3 MULMOD 0x2D CALLCODE 0xAB PUSH25 0xDFAE865A61B4694EE08DA4BC64F68FF29086DE8F64736F6C63 NUMBER STOP ADDMOD SMOD STOP CALLER PUSH1 0x80 PUSH1 0x40 MSTORE PUSH8 0x1158E460913D0000 PUSH1 0x3 SSTORE CALLVALUE DUP1 ISZERO PUSH2 0x1C JUMPI PUSH1 0x0 DUP1 REVERT JUMPDEST POP PUSH1 0x40 MLOAD PUSH2 0x677 CODESIZE SUB DUP1 PUSH2 0x677 DUP4 CODECOPY DUP2 ADD PUSH1 0x40 DUP2 SWAP1 MSTORE PUSH2 0x3B SWAP2 PUSH2 0x6B JUMP JUMPDEST PUSH1 0x12 PUSH1 0x1 DUP2 SWAP1 SSTORE PUSH2 0x4D SWAP1 PUSH1 0xA PUSH2 0xC7 JUMP JUMPDEST PUSH2 0x57 SWAP1 DUP3 PUSH2 0x17D JUMP JUMPDEST PUSH1 0x0 SSTORE POP PUSH1 0x2 DUP1 SLOAD PUSH2 0xFFFF NOT AND SWAP1 SSTORE PUSH2 0x1B2 JUMP JUMPDEST PUSH1 0x0 PUSH1 0x20 DUP3 DUP5 SUB SLT ISZERO PUSH2 0x7D JUMPI PUSH1 0x0 DUP1 REVERT JUMPDEST POP MLOAD SWAP2 SWAP1 POP JUMP JUMPDEST PUSH1 0x1 DUP2 DUP2 JUMPDEST DUP1 DUP6 GT ISZERO PUSH2 0xBF JUMPI DUP2 PUSH1 0x0 NOT DIV DUP3 GT ISZERO PUSH2 0xA5 JUMPI PUSH2 0xA5 PUSH2 0x19C JUMP JUMPDEST DUP1 DUP6 AND ISZERO PUSH2 0xB2 JUMPI SWAP2 DUP2 MUL SWAP2 JUMPDEST SWAP4 DUP5 SHR SWAP4 SWAP1 DUP1 MUL SWAP1 PUSH2 0x89 JUMP JUMPDEST POP SWAP3 POP SWAP3 SWAP1 POP JUMP JUMPDEST PUSH1 0x0 PUSH2 0xD3 DUP4 DUP4 PUSH2 0xDA JUMP JUMPDEST SWAP4 SWAP3 POP POP POP JUMP JUMPDEST PUSH1 0x0 DUP3 PUSH2 0xE9 JUMPI POP PUSH1 0x1 PUSH2 0x177 JUMP JUMPDEST DUP2 PUSH2 0xF6 JUMPI POP PUSH1 0x0 PUSH2 0x177 JUMP JUMPDEST DUP2 PUSH1 0x1 DUP2 EQ PUSH2 0x10C JUMPI PUSH1 0x2 DUP2 EQ PUSH2 0x116 JUMPI PUSH2 0x132 JUMP JUMPDEST PUSH1 0x1 SWAP2 POP POP PUSH2 0x177 JUMP JUMPDEST PUSH1 0xFF DUP5 GT ISZERO PUSH2 0x127 JUMPI PUSH2 0x127 PUSH2 0x19C JUMP JUMPDEST POP POP PUSH1 0x1 DUP3 SHL PUSH2 0x177 JUMP JUMPDEST POP PUSH1 0x20 DUP4 LT PUSH2 0x133 DUP4 LT AND PUSH1 0x4E DUP5 LT PUSH1 0xB DUP5 LT AND OR ISZERO PUSH2 0x155 JUMPI POP DUP2 DUP2 EXP PUSH2 0x177 JUMP JUMPDEST PUSH2 0x15F DUP4 DUP4 PUSH2 0x84 JUMP JUMPDEST DUP1 PUSH1 0x0 NOT DIV DUP3 GT ISZERO PUSH2 0x173 JUMPI PUSH2 0x173 PUSH2 0x19C JUMP JUMPDEST MUL SWAP1 POP JUMPDEST SWAP3 SWAP2 POP POP JUMP JUMPDEST PUSH1 0x0 DUP2 PUSH1 0x0 NOT DIV DUP4 GT DUP3 ISZERO ISZERO AND ISZERO PUSH2 0x197 JUMPI PUSH2 0x197 PUSH2 0x19C JUMP JUMPDEST POP MUL SWAP1 JUMP JUMPDEST PUSH4 0x4E487B71 PUSH1 0xE0 SHL PUSH1 0x0 MSTORE PUSH1 0x11 PUSH1 0x4 MSTORE PUSH1 0x24 PUSH1 0x0 REVERT JUMPDEST PUSH2 0x4B6 DUP1 PUSH2 0x1C1 PUSH1 0x0 CODECOPY PUSH1 0x0 RETURN INVALID PUSH1 0x80 PUSH1 0x40 MSTORE CALLVALUE DUP1 ISZERO PUSH2 0x10 JUMPI PUSH1 0x0 DUP1 REVERT JUMPDEST POP PUSH1 0x4 CALLDATASIZE LT PUSH2 0x57 JUMPI PUSH1 0x0 CALLDATALOAD PUSH1 0xE0 SHR DUP1 PUSH4 0x131E2F18 EQ PUSH2 0x5C JUMPI DUP1 PUSH4 0x2C4E722E EQ PUSH2 0x81 JUMPI DUP1 PUSH4 0x84C6E2C8 EQ PUSH2 0x8A JUMPI DUP1 PUSH4 0x9F8AF9DD EQ PUSH2 0x94 JUMPI DUP1 PUSH4 0xEFFC1FE0 EQ PUSH2 0xA7 JUMPI JUMPDEST PUSH1 0x0 DUP1 REVERT JUMPDEST PUSH2 0x6F PUSH2 0x6A CALLDATASIZE PUSH1 0x4 PUSH2 0x2C8 JUMP JUMPDEST PUSH2 0xAF JUMP JUMPDEST PUSH1 0x40 MLOAD SWAP1 DUP2 MSTORE PUSH1 0x20 ADD PUSH1 0x40 MLOAD DUP1 SWAP2 SUB SWAP1 RETURN JUMPDEST PUSH2 0x6F PUSH1 0x0 SLOAD DUP2 JUMP JUMPDEST PUSH2 0x92 PUSH2 0xF4 JUMP JUMPDEST STOP JUMPDEST PUSH2 0x92 PUSH2 0xA2 CALLDATASIZE PUSH1 0x4 PUSH2 0x2E1 JUMP JUMPDEST PUSH2 0xFE JUMP JUMPDEST PUSH2 0x92 PUSH2 0x280 JUMP JUMPDEST PUSH1 0x0 PUSH1 0x1 SLOAD PUSH1 0xA PUSH2 0xC0 SWAP2 SWAP1 PUSH2 0x380 JUMP JUMPDEST PUSH1 0x64 PUSH1 0x0 SLOAD DUP5 PUSH2 0xD0 SWAP2 SWAP1 PUSH2 0x434 JUMP JUMPDEST PUSH2 0xDA SWAP2 SWAP1 PUSH2 0x31B JUMP JUMPDEST PUSH2 0xE4 SWAP2 SWAP1 PUSH2 0x31B JUMP JUMPDEST PUSH2 0xEE SWAP1 DUP4 PUSH2 0x303 JUMP JUMPDEST SWAP3 SWAP2 POP POP JUMP JUMPDEST PUSH2 0xFC PUSH2 0x2A8 JUMP JUMPDEST JUMP JUMPDEST PUSH1 0x2 SLOAD PUSH1 0xFF AND ISZERO PUSH2 0x148 JUMPI PUSH1 0x40 MLOAD PUSH3 0x461BCD PUSH1 0xE5 SHL DUP2 MSTORE PUSH1 0x20 PUSH1 0x4 DUP3 ADD MSTORE PUSH1 0x10 PUSH1 0x24 DUP3 ADD MSTORE PUSH16 0x105B1C9958591E48195E1958DD5D1959 PUSH1 0x82 SHL PUSH1 0x44 DUP3 ADD MSTORE PUSH1 0x64 ADD PUSH1 0x40 MLOAD DUP1 SWAP2 SUB SWAP1 REVERT JUMPDEST PUSH1 0x0 PUSH1 0x1 SLOAD PUSH1 0xA PUSH2 0x159 SWAP2 SWAP1 PUSH2 0x380 JUMP JUMPDEST PUSH2 0x163 SWAP1 DUP5 PUSH2 0x434 JUMP JUMPDEST SWAP1 POP PUSH1 0x0 PUSH2 0x171 DUP4 DUP4 PUSH2 0x31B JUMP JUMPDEST SWAP1 POP DUP1 PUSH1 0x3 SLOAD GT PUSH2 0x1C4 JUMPI PUSH1 0x3 SLOAD PUSH2 0x189 SWAP1 DUP3 PUSH2 0x453 JUMP JUMPDEST PUSH1 0x0 DUP1 DUP3 DUP3 SLOAD PUSH2 0x199 SWAP2 SWAP1 PUSH2 0x303 JUMP JUMPDEST SWAP1 SWAP2 SSTORE POP POP PUSH1 0x0 SLOAD PUSH9 0x56BC75E2D63100000 LT ISZERO PUSH2 0x1BF JUMPI PUSH9 0x56BC75E2D63100000 PUSH1 0x0 SSTORE JUMPDEST PUSH2 0x26D JUMP JUMPDEST PUSH1 0x0 PUSH1 0x1 SLOAD PUSH1 0xA PUSH2 0x1D5 SWAP2 SWAP1 PUSH2 0x380 JUMP JUMPDEST PUSH2 0x1E0 SWAP1 PUSH1 0x2 PUSH2 0x434 JUMP JUMPDEST SWAP1 POP PUSH1 0x0 DUP6 DUP6 PUSH1 0x3 SLOAD PUSH2 0x1F3 SWAP2 SWAP1 PUSH2 0x434 JUMP JUMPDEST PUSH2 0x1FD SWAP2 SWAP1 PUSH2 0x31B JUMP JUMPDEST SWAP1 POP DUP2 DUP2 GT ISZERO PUSH2 0x218 JUMPI PUSH8 0x29A2241AF62C0000 PUSH1 0x0 SSTORE PUSH2 0x24B JUMP JUMPDEST PUSH1 0x1 SLOAD PUSH2 0x226 SWAP1 PUSH1 0xA PUSH2 0x380 JUMP JUMPDEST PUSH2 0x230 DUP3 DUP5 PUSH2 0x453 JUMP JUMPDEST PUSH1 0x0 SLOAD PUSH2 0x23D SWAP2 SWAP1 PUSH2 0x434 JUMP JUMPDEST PUSH2 0x247 SWAP2 SWAP1 PUSH2 0x31B JUMP JUMPDEST PUSH1 0x0 SSTORE JUMPDEST PUSH8 0x29A2241AF62C0000 PUSH1 0x0 SLOAD LT ISZERO PUSH2 0x26A JUMPI PUSH8 0x29A2241AF62C0000 PUSH1 0x0 SSTORE JUMPDEST POP POP JUMPDEST POP POP PUSH1 0x2 DUP1 SLOAD PUSH1 0xFF NOT AND PUSH1 0x1 OR SWAP1 SSTORE POP POP JUMP JUMPDEST PUSH1 0x2 SLOAD PUSH2 0x100 SWAP1 DIV PUSH1 0xFF AND PUSH2 0xFC JUMPI PUSH2 0x297 PUSH2 0x2A8 JUMP JUMPDEST PUSH1 0x2 DUP1 SLOAD PUSH2 0xFF00 NOT AND PUSH2 0x100 OR SWAP1 SSTORE JUMP JUMPDEST PUSH1 0x8 PUSH1 0x0 SLOAD PUSH1 0x7 PUSH2 0x2B9 SWAP2 SWAP1 PUSH2 0x434 JUMP JUMPDEST PUSH2 0x2C3 SWAP2 SWAP1 PUSH2 0x31B JUMP JUMPDEST PUSH1 0x0 SSTORE JUMP JUMPDEST PUSH1 0x0 PUSH1 0x20 DUP3 DUP5 SUB SLT ISZERO PUSH2 0x2DA JUMPI PUSH1 0x0 DUP1 REVERT JUMPDEST POP CALLDATALOAD SWAP2 SWAP1 POP JUMP JUMPDEST PUSH1 0x0 DUP1 PUSH1 0x40 DUP4 DUP6 SUB SLT ISZERO PUSH2 0x2F4 JUMPI PUSH1 0x0 DUP1 REVERT JUMPDEST POP POP DUP1 CALLDATALOAD SWAP3 PUSH1 0x20 SWAP1 SWAP2 ADD CALLDATALOAD SWAP2 POP JUMP JUMPDEST PUSH1 0x0 DUP3 NOT DUP3 GT ISZERO PUSH2 0x316 JUMPI PUSH2 0x316 PUSH2 0x46A JUMP JUMPDEST POP ADD SWAP1 JUMP JUMPDEST PUSH1 0x0 DUP3 PUSH2 0x338 JUMPI PUSH4 0x4E487B71 PUSH1 0xE0 SHL PUSH1 0x0 MSTORE PUSH1 0x12 PUSH1 0x4 MSTORE PUSH1 0x24 PUSH1 0x0 REVERT JUMPDEST POP DIV SWAP1 JUMP JUMPDEST PUSH1 0x1 DUP2 DUP2 JUMPDEST DUP1 DUP6 GT ISZERO PUSH2 0x378 JUMPI DUP2 PUSH1 0x0 NOT DIV DUP3 GT ISZERO PUSH2 0x35E JUMPI PUSH2 0x35E PUSH2 0x46A JUMP JUMPDEST DUP1 DUP6 AND ISZERO PUSH2 0x36B JUMPI SWAP2 DUP2 MUL SWAP2 JUMPDEST SWAP4 DUP5 SHR SWAP4 SWAP1 DUP1 MUL SWAP1 PUSH2 0x342 JUMP JUMPDEST POP SWAP3 POP SWAP3 SWAP1 POP JUMP JUMPDEST PUSH1 0x0 PUSH2 0x38C DUP4 DUP4 PUSH2 0x393 JUMP JUMPDEST SWAP4 SWAP3 POP POP POP JUMP JUMPDEST PUSH1 0x0 DUP3 PUSH2 0x3A2 JUMPI POP PUSH1 0x1 PUSH2 0xEE JUMP JUMPDEST DUP2 PUSH2 0x3AF JUMPI POP PUSH1 0x0 PUSH2 0xEE JUMP JUMPDEST DUP2 PUSH1 0x1 DUP2 EQ PUSH2 0x3C5 JUMPI PUSH1 0x2 DUP2 EQ PUSH2 0x3CF JUMPI PUSH2 0x3EB JUMP JUMPDEST PUSH1 0x1 SWAP2 POP POP PUSH2 0xEE JUMP JUMPDEST PUSH1 0xFF DUP5 GT ISZERO PUSH2 0x3E0 JUMPI PUSH2 0x3E0 PUSH2 0x46A JUMP JUMPDEST POP POP PUSH1 0x1 DUP3 SHL PUSH2 0xEE JUMP JUMPDEST POP PUSH1 0x20 DUP4 LT PUSH2 0x133 DUP4 LT AND PUSH1 0x4E DUP5 LT PUSH1 0xB DUP5 LT AND OR ISZERO PUSH2 0x40E JUMPI POP DUP2 DUP2 EXP PUSH2 0xEE JUMP JUMPDEST PUSH2 0x418 DUP4 DUP4 PUSH2 0x33D JUMP JUMPDEST DUP1 PUSH1 0x0 NOT DIV DUP3 GT ISZERO PUSH2 0x42C JUMPI PUSH2 0x42C PUSH2 0x46A JUMP JUMPDEST MUL SWAP4 SWAP3 POP POP POP JUMP JUMPDEST PUSH1 0x0 DUP2 PUSH1 0x0 NOT DIV DUP4 GT DUP3 ISZERO ISZERO AND ISZERO PUSH2 0x44E JUMPI PUSH2 0x44E PUSH2 0x46A JUMP JUMPDEST POP MUL SWAP1 JUMP JUMPDEST PUSH1 0x0 DUP3 DUP3 LT ISZERO PUSH2 0x465 JUMPI PUSH2 0x465 PUSH2 0x46A JUMP JUMPDEST POP SUB SWAP1 JUMP JUMPDEST PUSH4 0x4E487B71 PUSH1 0xE0 SHL PUSH1 0x0 MSTORE PUSH1 0x11 PUSH1 0x4 MSTORE PUSH1 0x24 PUSH1 0x0 REVERT INVALID LOG2 PUSH5 0x6970667358 0x22 SLT KECCAK256 0x4F 0xB7 CODECOPY 0xB1 0xB4 0xE2 NOT 0xE1 TIMESTAMP CALLDATASIZE SELFDESTRUCT 0xFC CODECOPY MSTORE8 AND 0xE MSTORE8 0xB2 0xE3 LT 0xC5 DUP4 EXTCODEHASH 0xB2 0xDB 0xB8 PUSH27 0x2077C502BB64736F6C634300080700336080604052348015620000 GT JUMPI PUSH1 0x0 DUP1 REVERT JUMPDEST POP PUSH1 0x40 MLOAD PUSH3 0xE7F CODESIZE SUB DUP1 PUSH3 0xE7F DUP4 CODECOPY DUP2 ADD PUSH1 0x40 DUP2 SWAP1 MSTORE PUSH3 0x34 SWAP2 PUSH3 0x270 JUMP JUMPDEST PUSH1 0x40 MLOAD DUP1 PUSH1 0x40 ADD PUSH1 0x40 MSTORE DUP1 PUSH1 0x5 DUP2 MSTORE PUSH1 0x20 ADD PUSH5 0x546F6B6661 PUSH1 0xD8 SHL DUP2 MSTORE POP PUSH1 0x40 MLOAD DUP1 PUSH1 0x40 ADD PUSH1 0x40 MSTORE DUP1 PUSH1 0x3 DUP2 MSTORE PUSH1 0x20 ADD PUSH3 0x544641 PUSH1 0xE8 SHL DUP2 MSTORE POP DUP2 PUSH1 0x3 SWAP1 DUP1 MLOAD SWAP1 PUSH1 0x20 ADD SWAP1 PUSH3 0x86 SWAP3 SWAP2 SWAP1 PUSH3 0x1CA JUMP JUMPDEST POP DUP1 MLOAD PUSH3 0x9C SWAP1 PUSH1 0x4 SWAP1 PUSH1 0x20 DUP5 ADD SWAP1 PUSH3 0x1CA JUMP JUMPDEST POP POP POP PUSH3 0xD6 ORIGIN PUSH3 0xB4 PUSH3 0xDD PUSH1 0x20 SHL PUSH1 0x20 SHR JUMP JUMPDEST PUSH3 0xC4 SWAP1 PUSH1 0xFF AND PUSH1 0xA PUSH3 0x2EE JUMP JUMPDEST PUSH3 0xD0 SWAP1 DUP5 PUSH3 0x3B9 JUMP JUMPDEST PUSH3 0xE2 JUMP JUMPDEST POP PUSH3 0x42E JUMP JUMPDEST PUSH1 0x12 SWAP1 JUMP JUMPDEST PUSH1 0x1 PUSH1 0x1 PUSH1 0xA0 SHL SUB DUP3 AND PUSH3 0x13D JUMPI PUSH1 0x40 MLOAD PUSH3 0x461BCD PUSH1 0xE5 SHL DUP2 MSTORE PUSH1 0x20 PUSH1 0x4 DUP3 ADD MSTORE PUSH1 0x1F PUSH1 0x24 DUP3 ADD MSTORE PUSH32 0x45524332303A206D696E7420746F20746865207A65726F206164647265737300 PUSH1 0x44 DUP3 ADD MSTORE PUSH1 0x64 ADD PUSH1 0x40 MLOAD DUP1 SWAP2 SUB SWAP1 REVERT JUMPDEST DUP1 PUSH1 0x2 PUSH1 0x0 DUP3 DUP3 SLOAD PUSH3 0x151 SWAP2 SWAP1 PUSH3 0x28A JUMP JUMPDEST SWAP1 SWAP2 SSTORE POP POP PUSH1 0x1 PUSH1 0x1 PUSH1 0xA0 SHL SUB DUP3 AND PUSH1 0x0 SWAP1 DUP2 MSTORE PUSH1 0x20 DUP2 SWAP1 MSTORE PUSH1 0x40 DUP2 KECCAK256 DUP1 SLOAD DUP4 SWAP3 SWAP1 PUSH3 0x180 SWAP1 DUP5 SWAP1 PUSH3 0x28A JUMP JUMPDEST SWAP1 SWAP2 SSTORE POP POP PUSH1 0x40 MLOAD DUP2 DUP2 MSTORE PUSH1 0x1 PUSH1 0x1 PUSH1 0xA0 SHL SUB DUP4 AND SWAP1 PUSH1 0x0 SWAP1 PUSH32 0xDDF252AD1BE2C89B69C2B068FC378DAA952BA7F163C4A11628F55A4DF523B3EF SWAP1 PUSH1 0x20 ADD PUSH1 0x40 MLOAD DUP1 SWAP2 SUB SWAP1 LOG3 POP POP JUMP JUMPDEST DUP3 DUP1 SLOAD PUSH3 0x1D8 SWAP1 PUSH3 0x3DB JUMP JUMPDEST SWAP1 PUSH1 0x0 MSTORE PUSH1 0x20 PUSH1 0x0 KECCAK256 SWAP1 PUSH1 0x1F ADD PUSH1 0x20 SWAP1 DIV DUP2 ADD SWAP3 DUP3 PUSH3 0x1FC JUMPI PUSH1 0x0 DUP6 SSTORE PUSH3 0x247 JUMP JUMPDEST DUP3 PUSH1 0x1F LT PUSH3 0x217 JUMPI DUP1 MLOAD PUSH1 0xFF NOT AND DUP4 DUP1 ADD OR DUP6 SSTORE PUSH3 0x247 JUMP JUMPDEST DUP3 DUP1 ADD PUSH1 0x1 ADD DUP6 SSTORE DUP3 ISZERO PUSH3 0x247 JUMPI SWAP2 DUP3 ADD JUMPDEST DUP3 DUP2 GT ISZERO PUSH3 0x247 JUMPI DUP3 MLOAD DUP3 SSTORE SWAP2 PUSH1 0x20 ADD SWAP2 SWAP1 PUSH1 0x1 ADD SWAP1 PUSH3 0x22A JUMP JUMPDEST POP PUSH3 0x255 SWAP3 SWAP2 POP PUSH3 0x259 JUMP JUMPDEST POP SWAP1 JUMP JUMPDEST JUMPDEST DUP1 DUP3 GT ISZERO PUSH3 0x255 JUMPI PUSH1 0x0 DUP2 SSTORE PUSH1 0x1 ADD PUSH3 0x25A JUMP JUMPDEST PUSH1 0x0 PUSH1 0x20 DUP3 DUP5 SUB SLT ISZERO PUSH3 0x283 JUMPI PUSH1 0x0 DUP1 REVERT JUMPDEST POP MLOAD SWAP2 SWAP1 POP JUMP JUMPDEST PUSH1 0x0 DUP3 NOT DUP3 GT ISZERO PUSH3 0x2A0 JUMPI PUSH3 0x2A0 PUSH3 0x418 JUMP JUMPDEST POP ADD SWAP1 JUMP JUMPDEST PUSH1 0x1 DUP2 DUP2 JUMPDEST DUP1 DUP6 GT ISZERO PUSH3 0x2E6 JUMPI DUP2 PUSH1 0x0 NOT DIV DUP3 GT ISZERO PUSH3 0x2CA JUMPI PUSH3 0x2CA PUSH3 0x418 JUMP JUMPDEST DUP1 DUP6 AND ISZERO PUSH3 0x2D8 JUMPI SWAP2 DUP2 MUL SWAP2 JUMPDEST SWAP4 DUP5 SHR SWAP4 SWAP1 DUP1 MUL SWAP1 PUSH3 0x2AA JUMP JUMPDEST POP SWAP3 POP SWAP3 SWAP1 POP JUMP JUMPDEST PUSH1 0x0 PUSH3 0x2FC DUP4 DUP4 PUSH3 0x303 JUMP JUMPDEST SWAP4 SWAP3 POP POP POP JUMP JUMPDEST PUSH1 0x0 DUP3 PUSH3 0x314 JUMPI POP PUSH1 0x1 PUSH3 0x3B3 JUMP JUMPDEST DUP2 PUSH3 0x323 JUMPI POP PUSH1 0x0 PUSH3 0x3B3 JUMP JUMPDEST DUP2 PUSH1 0x1 DUP2 EQ PUSH3 0x33C JUMPI PUSH1 0x2 DUP2 EQ PUSH3 0x347 JUMPI PUSH3 0x367 JUMP JUMPDEST PUSH1 0x1 SWAP2 POP POP PUSH3 0x3B3 JUMP JUMPDEST PUSH1 0xFF DUP5 GT ISZERO PUSH3 0x35B JUMPI PUSH3 0x35B PUSH3 0x418 JUMP JUMPDEST POP POP PUSH1 0x1 DUP3 SHL PUSH3 0x3B3 JUMP JUMPDEST POP PUSH1 0x20 DUP4 LT PUSH2 0x133 DUP4 LT AND PUSH1 0x4E DUP5 LT PUSH1 0xB DUP5 LT AND OR ISZERO PUSH3 0x38C JUMPI POP DUP2 DUP2 EXP PUSH3 0x3B3 JUMP JUMPDEST PUSH3 0x398 DUP4 DUP4 PUSH3 0x2A5 JUMP JUMPDEST DUP1 PUSH1 0x0 NOT DIV DUP3 GT ISZERO PUSH3 0x3AF JUMPI PUSH3 0x3AF PUSH3 0x418 JUMP JUMPDEST MUL SWAP1 POP JUMPDEST SWAP3 SWAP2 POP POP JUMP JUMPDEST PUSH1 0x0 DUP2 PUSH1 0x0 NOT DIV DUP4 GT DUP3 ISZERO ISZERO AND ISZERO PUSH3 0x3D6 JUMPI PUSH3 0x3D6 PUSH3 0x418 JUMP JUMPDEST POP MUL SWAP1 JUMP JUMPDEST PUSH1 0x1 DUP2 DUP2 SHR SWAP1 DUP3 AND DUP1 PUSH3 0x3F0 JUMPI PUSH1 0x7F DUP3 AND SWAP2 POP JUMPDEST PUSH1 0x20 DUP3 LT DUP2 EQ ISZERO PUSH3 0x412 JUMPI PUSH4 0x4E487B71 PUSH1 0xE0 SHL PUSH1 0x0 MSTORE PUSH1 0x22 PUSH1 0x4 MSTORE PUSH1 0x24 PUSH1 0x0 REVERT JUMPDEST POP SWAP2 SWAP1 POP JUMP JUMPDEST PUSH4 0x4E487B71 PUSH1 0xE0 SHL PUSH1 0x0 MSTORE PUSH1 0x11 PUSH1 0x4 MSTORE PUSH1 0x24 PUSH1 0x0 REVERT JUMPDEST PUSH2 0xA41 DUP1 PUSH3 0x43E PUSH1 0x0 CODECOPY PUSH1 0x0 RETURN INVALID PUSH1 0x80 PUSH1 0x40 MSTORE CALLVALUE DUP1 ISZERO PUSH2 0x10 JUMPI PUSH1 0x0 DUP1 REVERT JUMPDEST POP PUSH1 0x4 CALLDATASIZE LT PUSH2 0xDF JUMPI PUSH1 0x0 CALLDATALOAD PUSH1 0xE0 SHR DUP1 PUSH4 0x4A7DD523 GT PUSH2 0x8C JUMPI DUP1 PUSH4 0xA457C2D7 GT PUSH2 0x66 JUMPI DUP1 PUSH4 0xA457C2D7 EQ PUSH2 0x1B2 JUMPI DUP1 PUSH4 0xA9059CBB EQ PUSH2 0x1C5 JUMPI DUP1 PUSH4 0xDD62ED3E EQ PUSH2 0x1D8 JUMPI DUP1 PUSH4 0xE1F21C67 EQ PUSH2 0x211 JUMPI PUSH1 0x0 DUP1 REVERT JUMPDEST DUP1 PUSH4 0x4A7DD523 EQ PUSH2 0x16C JUMPI DUP1 PUSH4 0x70A08231 EQ PUSH2 0x181 JUMPI DUP1 PUSH4 0x95D89B41 EQ PUSH2 0x1AA JUMPI PUSH1 0x0 DUP1 REVERT JUMPDEST DUP1 PUSH4 0x23B872DD GT PUSH2 0xBD JUMPI DUP1 PUSH4 0x23B872DD EQ PUSH2 0x137 JUMPI DUP1 PUSH4 0x313CE567 EQ PUSH2 0x14A JUMPI DUP1 PUSH4 0x39509351 EQ PUSH2 0x159 JUMPI PUSH1 0x0 DUP1 REVERT JUMPDEST DUP1 PUSH4 0x6FDDE03 EQ PUSH2 0xE4 JUMPI DUP1 PUSH4 0x95EA7B3 EQ PUSH2 0x102 JUMPI DUP1 PUSH4 0x18160DDD EQ PUSH2 0x125 JUMPI JUMPDEST PUSH1 0x0 DUP1 REVERT JUMPDEST PUSH2 0xEC PUSH2 0x224 JUMP JUMPDEST PUSH1 0x40 MLOAD PUSH2 0xF9 SWAP2 SWAP1 PUSH2 0x955 JUMP JUMPDEST PUSH1 0x40 MLOAD DUP1 SWAP2 SUB SWAP1 RETURN JUMPDEST PUSH2 0x115 PUSH2 0x110 CALLDATASIZE PUSH1 0x4 PUSH2 0x912 JUMP JUMPDEST PUSH2 0x2B6 JUMP JUMPDEST PUSH1 0x40 MLOAD SWAP1 ISZERO ISZERO DUP2 MSTORE PUSH1 0x20 ADD PUSH2 0xF9 JUMP JUMPDEST PUSH1 0x2 SLOAD JUMPDEST PUSH1 0x40 MLOAD SWAP1 DUP2 MSTORE PUSH1 0x20 ADD PUSH2 0xF9 JUMP JUMPDEST PUSH2 0x115 PUSH2 0x145 CALLDATASIZE PUSH1 0x4 PUSH2 0x8D6 JUMP JUMPDEST PUSH2 0x2CE JUMP JUMPDEST PUSH1 0x40 MLOAD PUSH1 0x12 DUP2 MSTORE PUSH1 0x20 ADD PUSH2 0xF9 JUMP JUMPDEST PUSH2 0x115 PUSH2 0x167 CALLDATASIZE PUSH1 0x4 PUSH2 0x912 JUMP JUMPDEST PUSH2 0x2F2 JUMP JUMPDEST PUSH2 0x17F PUSH2 0x17A CALLDATASIZE PUSH1 0x4 PUSH2 0x93C JUMP JUMPDEST PUSH2 0x331 JUMP JUMPDEST STOP JUMPDEST PUSH2 0x129 PUSH2 0x18F CALLDATASIZE PUSH1 0x4 PUSH2 0x881 JUMP JUMPDEST PUSH1 0x1 PUSH1 0x1 PUSH1 0xA0 SHL SUB AND PUSH1 0x0 SWAP1 DUP2 MSTORE PUSH1 0x20 DUP2 SWAP1 MSTORE PUSH1 0x40 SWAP1 KECCAK256 SLOAD SWAP1 JUMP JUMPDEST PUSH2 0xEC PUSH2 0x33E JUMP JUMPDEST PUSH2 0x115 PUSH2 0x1C0 CALLDATASIZE PUSH1 0x4 PUSH2 0x912 JUMP JUMPDEST PUSH2 0x34D JUMP JUMPDEST PUSH2 0x115 PUSH2 0x1D3 CALLDATASIZE PUSH1 0x4 PUSH2 0x912 JUMP JUMPDEST PUSH2 0x3E4 JUMP JUMPDEST PUSH2 0x129 PUSH2 0x1E6 CALLDATASIZE PUSH1 0x4 PUSH2 0x8A3 JUMP JUMPDEST PUSH1 0x1 PUSH1 0x1 PUSH1 0xA0 SHL SUB SWAP2 DUP3 AND PUSH1 0x0 SWAP1 DUP2 MSTORE PUSH1 0x1 PUSH1 0x20 SWAP1 DUP2 MSTORE PUSH1 0x40 DUP1 DUP4 KECCAK256 SWAP4 SWAP1 SWAP5 AND DUP3 MSTORE SWAP2 SWAP1 SWAP2 MSTORE KECCAK256 SLOAD SWAP1 JUMP JUMPDEST PUSH2 0x17F PUSH2 0x21F CALLDATASIZE PUSH1 0x4 PUSH2 0x8D6 JUMP JUMPDEST PUSH2 0x3F2 JUMP JUMPDEST PUSH1 0x60 PUSH1 0x3 DUP1 SLOAD PUSH2 0x233 SWAP1 PUSH2 0x9D0 JUMP JUMPDEST DUP1 PUSH1 0x1F ADD PUSH1 0x20 DUP1 SWAP2 DIV MUL PUSH1 0x20 ADD PUSH1 0x40 MLOAD SWAP1 DUP2 ADD PUSH1 0x40 MSTORE DUP1 SWAP3 SWAP2 SWAP1 DUP2 DUP2 MSTORE PUSH1 0x20 ADD DUP3 DUP1 SLOAD PUSH2 0x25F SWAP1 PUSH2 0x9D0 JUMP JUMPDEST DUP1 ISZERO PUSH2 0x2AC JUMPI DUP1 PUSH1 0x1F LT PUSH2 0x281 JUMPI PUSH2 0x100 DUP1 DUP4 SLOAD DIV MUL DUP4 MSTORE SWAP2 PUSH1 0x20 ADD SWAP2 PUSH2 0x2AC JUMP JUMPDEST DUP3 ADD SWAP2 SWAP1 PUSH1 0x0 MSTORE PUSH1 0x20 PUSH1 0x0 KECCAK256 SWAP1 JUMPDEST DUP2 SLOAD DUP2 MSTORE SWAP1 PUSH1 0x1 ADD SWAP1 PUSH1 0x20 ADD DUP1 DUP4 GT PUSH2 0x28F JUMPI DUP3 SWAP1 SUB PUSH1 0x1F AND DUP3 ADD SWAP2 JUMPDEST POP POP POP POP POP SWAP1 POP SWAP1 JUMP JUMPDEST PUSH1 0x0 CALLER PUSH2 0x2C4 DUP2 DUP6 DUP6 PUSH2 0x402 JUMP JUMPDEST POP PUSH1 0x1 SWAP4 SWAP3 POP POP POP JUMP JUMPDEST PUSH1 0x0 CALLER PUSH2 0x2DC DUP6 DUP3 DUP6 PUSH2 0x526 JUMP JUMPDEST PUSH2 0x2E7 DUP6 DUP6 DUP6 PUSH2 0x5B8 JUMP JUMPDEST POP PUSH1 0x1 SWAP5 SWAP4 POP POP POP POP JUMP JUMPDEST CALLER PUSH1 0x0 DUP2 DUP2 MSTORE PUSH1 0x1 PUSH1 0x20 SWAP1 DUP2 MSTORE PUSH1 0x40 DUP1 DUP4 KECCAK256 PUSH1 0x1 PUSH1 0x1 PUSH1 0xA0 SHL SUB DUP8 AND DUP5 MSTORE SWAP1 SWAP2 MSTORE DUP2 KECCAK256 SLOAD SWAP1 SWAP2 SWAP1 PUSH2 0x2C4 SWAP1 DUP3 SWAP1 DUP7 SWAP1 PUSH2 0x32C SWAP1 DUP8 SWAP1 PUSH2 0x9AA JUMP JUMPDEST PUSH2 0x402 JUMP JUMPDEST PUSH2 0x33B ORIGIN DUP3 PUSH2 0x786 JUMP JUMPDEST POP JUMP JUMPDEST PUSH1 0x60 PUSH1 0x4 DUP1 SLOAD PUSH2 0x233 SWAP1 PUSH2 0x9D0 JUMP JUMPDEST CALLER PUSH1 0x0 DUP2 DUP2 MSTORE PUSH1 0x1 PUSH1 0x20 SWAP1 DUP2 MSTORE PUSH1 0x40 DUP1 DUP4 KECCAK256 PUSH1 0x1 PUSH1 0x1 PUSH1 0xA0 SHL SUB DUP8 AND DUP5 MSTORE SWAP1 SWAP2 MSTORE DUP2 KECCAK256 SLOAD SWAP1 SWAP2 SWAP1 DUP4 DUP2 LT ISZERO PUSH2 0x3D7 JUMPI PUSH1 0x40 MLOAD PUSH3 0x461BCD PUSH1 0xE5 SHL DUP2 MSTORE PUSH1 0x20 PUSH1 0x4 DUP3 ADD MSTORE PUSH1 0x25 PUSH1 0x24 DUP3 ADD MSTORE PUSH32 0x45524332303A2064656372656173656420616C6C6F77616E63652062656C6F77 PUSH1 0x44 DUP3 ADD MSTORE PUSH5 0x207A65726F PUSH1 0xD8 SHL PUSH1 0x64 DUP3 ADD MSTORE PUSH1 0x84 ADD JUMPDEST PUSH1 0x40 MLOAD DUP1 SWAP2 SUB SWAP1 REVERT JUMPDEST PUSH2 0x2E7 DUP3 DUP7 DUP7 DUP5 SUB PUSH2 0x402 JUMP JUMPDEST PUSH1 0x0 CALLER PUSH2 0x2C4 DUP2 DUP6 DUP6 PUSH2 0x5B8 JUMP JUMPDEST PUSH2 0x3FD DUP4 DUP4 DUP4 PUSH2 0x402 JUMP JUMPDEST POP POP POP JUMP JUMPDEST PUSH1 0x1 PUSH1 0x1 PUSH1 0xA0 SHL SUB DUP4 AND PUSH2 0x464 JUMPI PUSH1 0x40 MLOAD PUSH3 0x461BCD PUSH1 0xE5 SHL DUP2 MSTORE PUSH1 0x20 PUSH1 0x4 DUP3 ADD MSTORE PUSH1 0x24 DUP1 DUP3 ADD MSTORE PUSH32 0x45524332303A20617070726F76652066726F6D20746865207A65726F20616464 PUSH1 0x44 DUP3 ADD MSTORE PUSH4 0x72657373 PUSH1 0xE0 SHL PUSH1 0x64 DUP3 ADD MSTORE PUSH1 0x84 ADD PUSH2 0x3CE JUMP JUMPDEST PUSH1 0x1 PUSH1 0x1 PUSH1 0xA0 SHL SUB DUP3 AND PUSH2 0x4C5 JUMPI PUSH1 0x40 MLOAD PUSH3 0x461BCD PUSH1 0xE5 SHL DUP2 MSTORE PUSH1 0x20 PUSH1 0x4 DUP3 ADD MSTORE PUSH1 0x22 PUSH1 0x24 DUP3 ADD MSTORE PUSH32 0x45524332303A20617070726F766520746F20746865207A65726F206164647265 PUSH1 0x44 DUP3 ADD MSTORE PUSH2 0x7373 PUSH1 0xF0 SHL PUSH1 0x64 DUP3 ADD MSTORE PUSH1 0x84 ADD PUSH2 0x3CE JUMP JUMPDEST PUSH1 0x1 PUSH1 0x1 PUSH1 0xA0 SHL SUB DUP4 DUP2 AND PUSH1 0x0 DUP2 DUP2 MSTORE PUSH1 0x1 PUSH1 0x20 SWAP1 DUP2 MSTORE PUSH1 0x40 DUP1 DUP4 KECCAK256 SWAP5 DUP8 AND DUP1 DUP5 MSTORE SWAP5 DUP3 MSTORE SWAP2 DUP3 SWAP1 KECCAK256 DUP6 SWAP1 SSTORE SWAP1 MLOAD DUP5 DUP2 MSTORE PUSH32 0x8C5BE1E5EBEC7D5BD14F71427D1E84F3DD0314C0F7B2291E5B200AC8C7C3B925 SWAP2 ADD PUSH1 0x40 MLOAD DUP1 SWAP2 SUB SWAP1 LOG3 POP POP POP JUMP JUMPDEST PUSH1 0x1 PUSH1 0x1 PUSH1 0xA0 SHL SUB DUP4 DUP2 AND PUSH1 0x0 SWAP1 DUP2 MSTORE PUSH1 0x1 PUSH1 0x20 SWAP1 DUP2 MSTORE PUSH1 0x40 DUP1 DUP4 KECCAK256 SWAP4 DUP7 AND DUP4 MSTORE SWAP3 SWAP1 MSTORE KECCAK256 SLOAD PUSH1 0x0 NOT DUP2 EQ PUSH2 0x5B2 JUMPI DUP2 DUP2 LT ISZERO PUSH2 0x5A5 JUMPI PUSH1 0x40 MLOAD PUSH3 0x461BCD PUSH1 0xE5 SHL DUP2 MSTORE PUSH1 0x20 PUSH1 0x4 DUP3 ADD MSTORE PUSH1 0x1D PUSH1 0x24 DUP3 ADD MSTORE PUSH32 0x45524332303A20696E73756666696369656E7420616C6C6F77616E6365000000 PUSH1 0x44 DUP3 ADD MSTORE PUSH1 0x64 ADD PUSH2 0x3CE JUMP JUMPDEST PUSH2 0x5B2 DUP5 DUP5 DUP5 DUP5 SUB PUSH2 0x402 JUMP JUMPDEST POP POP POP POP JUMP JUMPDEST PUSH1 0x1 PUSH1 0x1 PUSH1 0xA0 SHL SUB DUP4 AND PUSH2 0x61C JUMPI PUSH1 0x40 MLOAD PUSH3 0x461BCD PUSH1 0xE5 SHL DUP2 MSTORE PUSH1 0x20 PUSH1 0x4 DUP3 ADD MSTORE PUSH1 0x25 PUSH1 0x24 DUP3 ADD MSTORE PUSH32 0x45524332303A207472616E736665722066726F6D20746865207A65726F206164 PUSH1 0x44 DUP3 ADD MSTORE PUSH5 0x6472657373 PUSH1 0xD8 SHL PUSH1 0x64 DUP3 ADD MSTORE PUSH1 0x84 ADD PUSH2 0x3CE JUMP JUMPDEST PUSH1 0x1 PUSH1 0x1 PUSH1 0xA0 SHL SUB DUP3 AND PUSH2 0x67E JUMPI PUSH1 0x40 MLOAD PUSH3 0x461BCD PUSH1 0xE5 SHL DUP2 MSTORE PUSH1 0x20 PUSH1 0x4 DUP3 ADD MSTORE PUSH1 0x23 PUSH1 0x24 DUP3 ADD MSTORE PUSH32 0x45524332303A207472616E7366657220746F20746865207A65726F2061646472 PUSH1 0x44 DUP3 ADD MSTORE PUSH3 0x657373 PUSH1 0xE8 SHL PUSH1 0x64 DUP3 ADD MSTORE PUSH1 0x84 ADD PUSH2 0x3CE JUMP JUMPDEST PUSH1 0x1 PUSH1 0x1 PUSH1 0xA0 SHL SUB DUP4 AND PUSH1 0x0 SWAP1 DUP2 MSTORE PUSH1 0x20 DUP2 SWAP1 MSTORE PUSH1 0x40 SWAP1 KECCAK256 SLOAD DUP2 DUP2 LT ISZERO PUSH2 0x6F6 JUMPI PUSH1 0x40 MLOAD PUSH3 0x461BCD PUSH1 0xE5 SHL DUP2 MSTORE PUSH1 0x20 PUSH1 0x4 DUP3 ADD MSTORE PUSH1 0x26 PUSH1 0x24 DUP3 ADD MSTORE PUSH32 0x45524332303A207472616E7366657220616D6F756E7420657863656564732062 PUSH1 0x44 DUP3 ADD MSTORE PUSH6 0x616C616E6365 PUSH1 0xD0 SHL PUSH1 0x64 DUP3 ADD MSTORE PUSH1 0x84 ADD PUSH2 0x3CE JUMP JUMPDEST PUSH1 0x1 PUSH1 0x1 PUSH1 0xA0 SHL SUB DUP1 DUP6 AND PUSH1 0x0 SWAP1 DUP2 MSTORE PUSH1 0x20 DUP2 SWAP1 MSTORE PUSH1 0x40 DUP1 DUP3 KECCAK256 DUP6 DUP6 SUB SWAP1 SSTORE SWAP2 DUP6 AND DUP2 MSTORE SWAP1 DUP2 KECCAK256 DUP1 SLOAD DUP5 SWAP3 SWAP1 PUSH2 0x72D SWAP1 DUP5 SWAP1 PUSH2 0x9AA JUMP JUMPDEST SWAP3 POP POP DUP2 SWAP1 SSTORE POP DUP3 PUSH1 0x1 PUSH1 0x1 PUSH1 0xA0 SHL SUB AND DUP5 PUSH1 0x1 PUSH1 0x1 PUSH1 0xA0 SHL SUB AND PUSH32 0xDDF252AD1BE2C89B69C2B068FC378DAA952BA7F163C4A11628F55A4DF523B3EF DUP5 PUSH1 0x40 MLOAD PUSH2 0x779 SWAP2 DUP2 MSTORE PUSH1 0x20 ADD SWAP1 JUMP JUMPDEST PUSH1 0x40 MLOAD DUP1 SWAP2 SUB SWAP1 LOG3 PUSH2 0x5B2 JUMP JUMPDEST PUSH1 0x1 PUSH1 0x1 PUSH1 0xA0 SHL SUB DUP3 AND PUSH2 0x7DC JUMPI PUSH1 0x40 MLOAD PUSH3 0x461BCD PUSH1 0xE5 SHL DUP2 MSTORE PUSH1 0x20 PUSH1 0x4 DUP3 ADD MSTORE PUSH1 0x1F PUSH1 0x24 DUP3 ADD MSTORE PUSH32 0x45524332303A206D696E7420746F20746865207A65726F206164647265737300 PUSH1 0x44 DUP3 ADD MSTORE PUSH1 0x64 ADD PUSH2 0x3CE JUMP JUMPDEST DUP1 PUSH1 0x2 PUSH1 0x0 DUP3 DUP3 SLOAD PUSH2 0x7EE SWAP2 SWAP1 PUSH2 0x9AA JUMP JUMPDEST SWAP1 SWAP2 SSTORE POP POP PUSH1 0x1 PUSH1 0x1 PUSH1 0xA0 SHL SUB DUP3 AND PUSH1 0x0 SWAP1 DUP2 MSTORE PUSH1 0x20 DUP2 SWAP1 MSTORE PUSH1 0x40 DUP2 KECCAK256 DUP1 SLOAD DUP4 SWAP3 SWAP1 PUSH2 0x81B SWAP1 DUP5 SWAP1 PUSH2 0x9AA JUMP JUMPDEST SWAP1 SWAP2 SSTORE POP POP PUSH1 0x40 MLOAD DUP2 DUP2 MSTORE PUSH1 0x1 PUSH1 0x1 PUSH1 0xA0 SHL SUB DUP4 AND SWAP1 PUSH1 0x0 SWAP1 PUSH32 0xDDF252AD1BE2C89B69C2B068FC378DAA952BA7F163C4A11628F55A4DF523B3EF SWAP1 PUSH1 0x20 ADD PUSH1 0x40 MLOAD DUP1 SWAP2 SUB SWAP1 LOG3 POP POP JUMP JUMPDEST DUP1 CALLDATALOAD PUSH1 0x1 PUSH1 0x1 PUSH1 0xA0 SHL SUB DUP2 AND DUP2 EQ PUSH2 0x87C JUMPI PUSH1 0x0 DUP1 REVERT JUMPDEST SWAP2 SWAP1 POP JUMP JUMPDEST PUSH1 0x0 PUSH1 0x20 DUP3 DUP5 SUB SLT ISZERO PUSH2 0x893 JUMPI PUSH1 0x0 DUP1 REVERT JUMPDEST PUSH2 0x89C DUP3 PUSH2 0x865 JUMP JUMPDEST SWAP4 SWAP3 POP POP POP JUMP JUMPDEST PUSH1 0x0 DUP1 PUSH1 0x40 DUP4 DUP6 SUB SLT ISZERO PUSH2 0x8B6 JUMPI PUSH1 0x0 DUP1 REVERT JUMPDEST PUSH2 0x8BF DUP4 PUSH2 0x865 JUMP JUMPDEST SWAP2 POP PUSH2 0x8CD PUSH1 0x20 DUP5 ADD PUSH2 0x865 JUMP JUMPDEST SWAP1 POP SWAP3 POP SWAP3 SWAP1 POP JUMP JUMPDEST PUSH1 0x0 DUP1 PUSH1 0x0 PUSH1 0x60 DUP5 DUP7 SUB SLT ISZERO PUSH2 0x8EB JUMPI PUSH1 0x0 DUP1 REVERT JUMPDEST PUSH2 0x8F4 DUP5 PUSH2 0x865 JUMP JUMPDEST SWAP3 POP PUSH2 0x902 PUSH1 0x20 DUP6 ADD PUSH2 0x865 JUMP JUMPDEST SWAP2 POP PUSH1 0x40 DUP5 ADD CALLDATALOAD SWAP1 POP SWAP3 POP SWAP3 POP SWAP3 JUMP JUMPDEST PUSH1 0x0 DUP1 PUSH1 0x40 DUP4 DUP6 SUB SLT ISZERO PUSH2 0x925 JUMPI PUSH1 0x0 DUP1 REVERT JUMPDEST PUSH2 0x92E DUP4 PUSH2 0x865 JUMP JUMPDEST SWAP5 PUSH1 0x20 SWAP4 SWAP1 SWAP4 ADD CALLDATALOAD SWAP4 POP POP POP JUMP JUMPDEST PUSH1 0x0 PUSH1 0x20 DUP3 DUP5 SUB SLT ISZERO PUSH2 0x94E JUMPI PUSH1 0x0 DUP1 REVERT JUMPDEST POP CALLDATALOAD SWAP2 SWAP1 POP JUMP JUMPDEST PUSH1 0x0 PUSH1 0x20 DUP1 DUP4 MSTORE DUP4 MLOAD DUP1 DUP3 DUP6 ADD MSTORE PUSH1 0x0 JUMPDEST DUP2 DUP2 LT ISZERO PUSH2 0x982 JUMPI DUP6 DUP2 ADD DUP4 ADD MLOAD DUP6 DUP3 ADD PUSH1 0x40 ADD MSTORE DUP3 ADD PUSH2 0x966 JUMP JUMPDEST DUP2 DUP2 GT ISZERO PUSH2 0x994 JUMPI PUSH1 0x0 PUSH1 0x40 DUP4 DUP8 ADD ADD MSTORE JUMPDEST POP PUSH1 0x1F ADD PUSH1 0x1F NOT AND SWAP3 SWAP1 SWAP3 ADD PUSH1 0x40 ADD SWAP4 SWAP3 POP POP POP JUMP JUMPDEST PUSH1 0x0 DUP3 NOT DUP3 GT ISZERO PUSH2 0x9CB JUMPI PUSH4 0x4E487B71 PUSH1 0xE0 SHL PUSH1 0x0 MSTORE PUSH1 0x11 PUSH1 0x4 MSTORE PUSH1 0x24 PUSH1 0x0 REVERT JUMPDEST POP ADD SWAP1 JUMP JUMPDEST PUSH1 0x1 DUP2 DUP2 SHR SWAP1 DUP3 AND DUP1 PUSH2 0x9E4 JUMPI PUSH1 0x7F DUP3 AND SWAP2 POP JUMPDEST PUSH1 0x20 DUP3 LT DUP2 EQ ISZERO PUSH2 0xA05 JUMPI PUSH4 0x4E487B71 PUSH1 0xE0 SHL PUSH1 0x0 MSTORE PUSH1 0x22 PUSH1 0x4 MSTORE PUSH1 0x24 PUSH1 0x0 REVERT JUMPDEST POP SWAP2 SWAP1 POP JUMP INVALID LOG2 PUSH5 0x6970667358 0x22 SLT KECCAK256 0xC7 DUP1 PUSH7 0x142BA3874FE77A ADD AND 0x29 0xD4 EXP 0xD5 0xA8 DUP9 SWAP10 XOR SWAP2 MULMOD DIV 0xE6 PUSH23 0x7CD071A1C10C1C64736F6C63430008070033A264697066 PUSH20 0x5822122095C2602D0AB529BE07C3A8596CCB278E 0xBC DUP12 0x5D DUP13 DUP10 0xDC SWAP15 CALLVALUE RETURNDATASIZE PUSH23 0x65F603FC765164736F6C63430008070033608060405234 DUP1 ISZERO PUSH2 0x10 JUMPI PUSH1 0x0 DUP1 REVERT JUMPDEST POP PUSH1 0x2 DUP1 SLOAD PUSH1 0x1 PUSH1 0x1 PUSH1 0xA0 SHL SUB NOT AND ORIGIN OR SWAP1 SSTORE PUSH2 0x10ED DUP1 PUSH2 0x32 PUSH1 0x0 CODECOPY PUSH1 0x0 RETURN INVALID PUSH1 0x80 PUSH1 0x40 MSTORE PUSH1 0x4 CALLDATASIZE LT PUSH2 0x13A JUMPI PUSH1 0x0 CALLDATALOAD PUSH1 0xE0 SHR DUP1 PUSH4 0x72A9D124 GT PUSH2 0xBB JUMPI DUP1 PUSH4 0xB8C876B1 GT PUSH2 0x7F JUMPI DUP1 PUSH4 0xD56B2889 GT PUSH2 0x59 JUMPI DUP1 PUSH4 0xD56B2889 EQ PUSH2 0x34D JUMPI DUP1 PUSH4 0xDDCA3F43 EQ PUSH2 0x360 JUMPI DUP1 PUSH4 0xDEBC674C EQ PUSH2 0x376 JUMPI PUSH1 0x0 DUP1 REVERT JUMPDEST DUP1 PUSH4 0xB8C876B1 EQ PUSH2 0x305 JUMPI DUP1 PUSH4 0xCD6DC687 EQ PUSH2 0x332 JUMPI DUP1 PUSH4 0xD0E30DB0 EQ PUSH2 0x345 JUMPI PUSH1 0x0 DUP1 REVERT JUMPDEST DUP1 PUSH4 0x72A9D124 EQ PUSH2 0x29C JUMPI DUP1 PUSH4 0x74942C0F EQ PUSH2 0x2BC JUMPI DUP1 PUSH4 0x7937C03D EQ PUSH2 0x2D2 JUMPI DUP1 PUSH4 0x82B2E257 EQ PUSH2 0x2DA JUMPI DUP1 PUSH4 0x8666107C EQ PUSH2 0x2EF JUMPI PUSH1 0x0 DUP1 REVERT JUMPDEST DUP1 PUSH4 0x5F244D4E GT PUSH2 0x102 JUMPI DUP1 PUSH4 0x5F244D4E EQ PUSH2 0x1E3 JUMPI DUP1 PUSH4 0x66B3F6BF EQ PUSH2 0x203 JUMPI DUP1 PUSH4 0x67DA263D EQ PUSH2 0x239 JUMPI DUP1 PUSH4 0x6F7BC9BE EQ PUSH2 0x259 JUMPI DUP1 PUSH4 0x707E7E87 EQ PUSH2 0x286 JUMPI PUSH1 0x0 DUP1 REVERT JUMPDEST DUP1 PUSH4 0x12065FE0 EQ PUSH2 0x13F JUMPI DUP1 PUSH4 0x1EB928AA EQ PUSH2 0x161 JUMPI DUP1 PUSH4 0x26C4E60D EQ PUSH2 0x196 JUMPI DUP1 PUSH4 0x2E1A7D4D EQ PUSH2 0x1AD JUMPI DUP1 PUSH4 0x31F3BD28 EQ PUSH2 0x1CD JUMPI JUMPDEST PUSH1 0x0 DUP1 REVERT JUMPDEST CALLVALUE DUP1 ISZERO PUSH2 0x14B JUMPI PUSH1 0x0 DUP1 REVERT JUMPDEST POP SELFBALANCE JUMPDEST PUSH1 0x40 MLOAD SWAP1 DUP2 MSTORE PUSH1 0x20 ADD JUMPDEST PUSH1 0x40 MLOAD DUP1 SWAP2 SUB SWAP1 RETURN JUMPDEST CALLVALUE DUP1 ISZERO PUSH2 0x16D JUMPI PUSH1 0x0 DUP1 REVERT JUMPDEST POP PUSH2 0x181 PUSH2 0x17C CALLDATASIZE PUSH1 0x4 PUSH2 0xFFF JUMP JUMPDEST PUSH2 0x396 JUMP JUMPDEST PUSH1 0x40 DUP1 MLOAD SWAP3 DUP4 MSTORE PUSH1 0x20 DUP4 ADD SWAP2 SWAP1 SWAP2 MSTORE ADD PUSH2 0x158 JUMP JUMPDEST CALLVALUE DUP1 ISZERO PUSH2 0x1A2 JUMPI PUSH1 0x0 DUP1 REVERT JUMPDEST POP PUSH2 0x1AB PUSH2 0x458 JUMP JUMPDEST STOP JUMPDEST CALLVALUE DUP1 ISZERO PUSH2 0x1B9 JUMPI PUSH1 0x0 DUP1 REVERT JUMPDEST POP PUSH2 0x1AB PUSH2 0x1C8 CALLDATASIZE PUSH1 0x4 PUSH2 0xFFF JUMP JUMPDEST PUSH2 0x50D JUMP JUMPDEST CALLVALUE DUP1 ISZERO PUSH2 0x1D9 JUMPI PUSH1 0x0 DUP1 REVERT JUMPDEST POP PUSH2 0x14E PUSH1 0x1 SLOAD DUP2 JUMP JUMPDEST CALLVALUE DUP1 ISZERO PUSH2 0x1EF JUMPI PUSH1 0x0 DUP1 REVERT JUMPDEST POP PUSH2 0x181 PUSH2 0x1FE CALLDATASIZE PUSH1 0x4 PUSH2 0xFFF JUMP JUMPDEST PUSH2 0x736 JUMP JUMPDEST CALLVALUE DUP1 ISZERO PUSH2 0x20F JUMPI PUSH1 0x0 DUP1 REVERT JUMPDEST POP PUSH2 0x14E PUSH2 0x21E CALLDATASIZE PUSH1 0x4 PUSH2 0xF91 JUMP JUMPDEST PUSH1 0x1 PUSH1 0x1 PUSH1 0xA0 SHL SUB AND PUSH1 0x0 SWAP1 DUP2 MSTORE PUSH1 0x4 PUSH1 0x20 MSTORE PUSH1 0x40 SWAP1 KECCAK256 SLOAD SWAP1 JUMP JUMPDEST CALLVALUE DUP1 ISZERO PUSH2 0x245 JUMPI PUSH1 0x0 DUP1 REVERT JUMPDEST POP PUSH2 0x14E PUSH2 0x254 CALLDATASIZE PUSH1 0x4 PUSH2 0xFFF JUMP JUMPDEST PUSH2 0x7DD JUMP JUMPDEST CALLVALUE DUP1 ISZERO PUSH2 0x265 JUMPI PUSH1 0x0 DUP1 REVERT JUMPDEST POP PUSH2 0x14E PUSH2 0x274 CALLDATASIZE PUSH1 0x4 PUSH2 0xF91 JUMP JUMPDEST PUSH1 0x4 PUSH1 0x20 MSTORE PUSH1 0x0 SWAP1 DUP2 MSTORE PUSH1 0x40 SWAP1 KECCAK256 SLOAD DUP2 JUMP JUMPDEST CALLVALUE DUP1 ISZERO PUSH2 0x292 JUMPI PUSH1 0x0 DUP1 REVERT JUMPDEST POP PUSH2 0x14E PUSH1 0x8 SLOAD DUP2 JUMP JUMPDEST CALLVALUE DUP1 ISZERO PUSH2 0x2A8 JUMPI PUSH1 0x0 DUP1 REVERT JUMPDEST POP PUSH2 0x14E PUSH2 0x2B7 CALLDATASIZE PUSH1 0x4 PUSH2 0xFFF JUMP JUMPDEST PUSH2 0x86C JUMP JUMPDEST CALLVALUE DUP1 ISZERO PUSH2 0x2C8 JUMPI PUSH1 0x0 DUP1 REVERT JUMPDEST POP PUSH2 0x14E PUSH1 0x6 SLOAD DUP2 JUMP JUMPDEST PUSH2 0x1AB PUSH2 0x8FC JUMP JUMPDEST CALLVALUE DUP1 ISZERO PUSH2 0x2E6 JUMPI PUSH1 0x0 DUP1 REVERT JUMPDEST POP PUSH2 0x14E PUSH2 0xA10 JUMP JUMPDEST CALLVALUE DUP1 ISZERO PUSH2 0x2FB JUMPI PUSH1 0x0 DUP1 REVERT JUMPDEST POP PUSH2 0x14E PUSH1 0x7 SLOAD DUP2 JUMP JUMPDEST CALLVALUE DUP1 ISZERO PUSH2 0x311 JUMPI PUSH1 0x0 DUP1 REVERT JUMPDEST POP PUSH2 0x14E PUSH2 0x320 CALLDATASIZE PUSH1 0x4 PUSH2 0xF91 JUMP JUMPDEST PUSH1 0x5 PUSH1 0x20 MSTORE PUSH1 0x0 SWAP1 DUP2 MSTORE PUSH1 0x40 SWAP1 KECCAK256 SLOAD DUP2 JUMP JUMPDEST PUSH2 0x1AB PUSH2 0x340 CALLDATASIZE PUSH1 0x4 PUSH2 0xFB3 JUMP JUMPDEST PUSH2 0xA91 JUMP JUMPDEST PUSH2 0x1AB PUSH2 0xBC9 JUMP JUMPDEST CALLVALUE DUP1 ISZERO PUSH2 0x359 JUMPI PUSH1 0x0 DUP1 REVERT JUMPDEST POP PUSH2 0x1AB ORIGIN SELFDESTRUCT JUMPDEST CALLVALUE DUP1 ISZERO PUSH2 0x36C JUMPI PUSH1 0x0 DUP1 REVERT JUMPDEST POP PUSH2 0x14E PUSH1 0x3 SLOAD DUP2 JUMP JUMPDEST CALLVALUE DUP1 ISZERO PUSH2 0x382 JUMPI PUSH1 0x0 DUP1 REVERT JUMPDEST POP PUSH2 0x1AB PUSH2 0x391 CALLDATASIZE PUSH1 0x4 PUSH2 0xFFF JUMP JUMPDEST PUSH2 0xDA4 JUMP JUMPDEST PUSH1 0x0 DUP1 PUSH1 0x0 PUSH1 0x1 SLOAD SELFBALANCE DUP6 PUSH2 0x3AA SWAP2 SWAP1 PUSH2 0x106B JUMP JUMPDEST PUSH2 0x3B4 SWAP2 SWAP1 PUSH2 0x1049 JUMP JUMPDEST PUSH1 0x1 SLOAD PUSH1 0x0 DUP1 SLOAD PUSH1 0x40 MLOAD PUSH4 0x70A08231 PUSH1 0xE0 SHL DUP2 MSTORE ADDRESS PUSH1 0x4 DUP3 ADD MSTORE SWAP4 SWAP5 POP SWAP1 SWAP3 PUSH1 0x1 PUSH1 0x1 PUSH1 0xA0 SHL SUB SWAP1 SWAP2 AND SWAP1 PUSH4 0x70A08231 SWAP1 PUSH1 0x24 ADD PUSH1 0x20 PUSH1 0x40 MLOAD DUP1 DUP4 SUB DUP2 DUP7 DUP1 EXTCODESIZE ISZERO DUP1 ISZERO PUSH2 0x400 JUMPI PUSH1 0x0 DUP1 REVERT JUMPDEST POP GAS STATICCALL ISZERO DUP1 ISZERO PUSH2 0x414 JUMPI RETURNDATASIZE PUSH1 0x0 DUP1 RETURNDATACOPY RETURNDATASIZE PUSH1 0x0 REVERT JUMPDEST POP POP POP POP PUSH1 0x40 MLOAD RETURNDATASIZE PUSH1 0x1F NOT PUSH1 0x1F DUP3 ADD AND DUP3 ADD DUP1 PUSH1 0x40 MSTORE POP DUP2 ADD SWAP1 PUSH2 0x438 SWAP2 SWAP1 PUSH2 0x1018 JUMP JUMPDEST PUSH2 0x442 SWAP1 DUP8 PUSH2 0x106B JUMP JUMPDEST PUSH2 0x44C SWAP2 SWAP1 PUSH2 0x1049 JUMP JUMPDEST SWAP2 SWAP6 SWAP2 SWAP5 POP SWAP1 SWAP3 POP POP POP JUMP JUMPDEST PUSH1 0x0 PUSH2 0x3E8 PUSH1 0x3 SLOAD PUSH1 0x3 PUSH2 0x46C SWAP2 SWAP1 PUSH2 0x106B JUMP JUMPDEST PUSH2 0x476 SWAP2 SWAP1 PUSH2 0x1049 JUMP JUMPDEST PUSH1 0x40 MLOAD SWAP1 SWAP2 POP PUSH1 0x0 SWAP1 ORIGIN SWAP1 DUP4 SWAP1 DUP4 DUP2 DUP2 DUP2 DUP6 DUP8 GAS CALL SWAP3 POP POP POP RETURNDATASIZE DUP1 PUSH1 0x0 DUP2 EQ PUSH2 0x4BB JUMPI PUSH1 0x40 MLOAD SWAP2 POP PUSH1 0x1F NOT PUSH1 0x3F RETURNDATASIZE ADD AND DUP3 ADD PUSH1 0x40 MSTORE RETURNDATASIZE DUP3 MSTORE RETURNDATASIZE PUSH1 0x0 PUSH1 0x20 DUP5 ADD RETURNDATACOPY PUSH2 0x4C0 JUMP JUMPDEST PUSH1 0x60 SWAP2 POP JUMPDEST POP POP SWAP1 POP DUP1 PUSH2 0x509 JUMPI PUSH1 0x40 MLOAD PUSH3 0x461BCD PUSH1 0xE5 SHL DUP2 MSTORE PUSH1 0x20 PUSH1 0x4 DUP3 ADD MSTORE PUSH1 0x10 PUSH1 0x24 DUP3 ADD MSTORE PUSH16 0x2A3930B739B332B9103330B4B632B217 PUSH1 0x81 SHL PUSH1 0x44 DUP3 ADD MSTORE PUSH1 0x64 ADD JUMPDEST PUSH1 0x40 MLOAD DUP1 SWAP2 SUB SWAP1 REVERT JUMPDEST POP POP JUMP JUMPDEST PUSH1 0x1 SLOAD PUSH1 0x0 SWAP1 PUSH2 0x51D SELFBALANCE DUP5 PUSH2 0x106B JUMP JUMPDEST PUSH2 0x527 SWAP2 SWAP1 PUSH2 0x1049 JUMP JUMPDEST PUSH1 0x1 SLOAD PUSH1 0x0 DUP1 SLOAD PUSH1 0x40 MLOAD PUSH4 0x70A08231 PUSH1 0xE0 SHL DUP2 MSTORE ADDRESS PUSH1 0x4 DUP3 ADD MSTORE SWAP4 SWAP5 POP SWAP1 SWAP3 PUSH1 0x1 PUSH1 0x1 PUSH1 0xA0 SHL SUB SWAP1 SWAP2 AND SWAP1 PUSH4 0x70A08231 SWAP1 PUSH1 0x24 ADD PUSH1 0x20 PUSH1 0x40 MLOAD DUP1 DUP4 SUB DUP2 DUP7 DUP1 EXTCODESIZE ISZERO DUP1 ISZERO PUSH2 0x573 JUMPI PUSH1 0x0 DUP1 REVERT JUMPDEST POP GAS STATICCALL ISZERO DUP1 ISZERO PUSH2 0x587 JUMPI RETURNDATASIZE PUSH1 0x0 DUP1 RETURNDATACOPY RETURNDATASIZE PUSH1 0x0 REVERT JUMPDEST POP POP POP POP PUSH1 0x40 MLOAD RETURNDATASIZE PUSH1 0x1F NOT PUSH1 0x1F DUP3 ADD AND DUP3 ADD DUP1 PUSH1 0x40 MSTORE POP DUP2 ADD SWAP1 PUSH2 0x5AB SWAP2 SWAP1 PUSH2 0x1018 JUMP JUMPDEST PUSH2 0x5B5 SWAP1 DUP6 PUSH2 0x106B JUMP JUMPDEST PUSH2 0x5BF SWAP2 SWAP1 PUSH2 0x1049 JUMP JUMPDEST SWAP1 POP DUP2 PUSH1 0x1 PUSH1 0x0 DUP3 DUP3 SLOAD PUSH2 0x5D3 SWAP2 SWAP1 PUSH2 0x108A JUMP JUMPDEST SWAP1 SWAP2 SSTORE POP POP PUSH1 0x40 MLOAD PUSH1 0x0 SWAP1 ORIGIN SWAP1 DUP5 SWAP1 DUP4 DUP2 DUP2 DUP2 DUP6 DUP8 GAS CALL SWAP3 POP POP POP RETURNDATASIZE DUP1 PUSH1 0x0 DUP2 EQ PUSH2 0x61A JUMPI PUSH1 0x40 MLOAD SWAP2 POP PUSH1 0x1F NOT PUSH1 0x3F RETURNDATASIZE ADD AND DUP3 ADD PUSH1 0x40 MSTORE RETURNDATASIZE DUP3 MSTORE RETURNDATASIZE PUSH1 0x0 PUSH1 0x20 DUP5 ADD RETURNDATACOPY PUSH2 0x61F JUMP JUMPDEST PUSH1 0x60 SWAP2 POP JUMPDEST POP POP SWAP1 POP DUP1 PUSH2 0x663 JUMPI PUSH1 0x40 MLOAD PUSH3 0x461BCD PUSH1 0xE5 SHL DUP2 MSTORE PUSH1 0x20 PUSH1 0x4 DUP3 ADD MSTORE PUSH1 0x10 PUSH1 0x24 DUP3 ADD MSTORE PUSH16 0x2A3930B739B332B9103330B4B632B217 PUSH1 0x81 SHL PUSH1 0x44 DUP3 ADD MSTORE PUSH1 0x64 ADD PUSH2 0x500 JUMP JUMPDEST PUSH1 0x0 SLOAD PUSH1 0x40 MLOAD PUSH4 0xA9059CBB PUSH1 0xE0 SHL DUP2 MSTORE ORIGIN PUSH1 0x4 DUP3 ADD MSTORE PUSH1 0x24 DUP2 ADD DUP5 SWAP1 MSTORE PUSH1 0x1 PUSH1 0x1 PUSH1 0xA0 SHL SUB SWAP1 SWAP2 AND SWAP1 PUSH4 0xA9059CBB SWAP1 PUSH1 0x44 ADD PUSH1 0x20 PUSH1 0x40 MLOAD DUP1 DUP4 SUB DUP2 PUSH1 0x0 DUP8 DUP1 EXTCODESIZE ISZERO DUP1 ISZERO PUSH2 0x6AF JUMPI PUSH1 0x0 DUP1 REVERT JUMPDEST POP GAS CALL ISZERO DUP1 ISZERO PUSH2 0x6C3 JUMPI RETURNDATASIZE PUSH1 0x0 DUP1 RETURNDATACOPY RETURNDATASIZE PUSH1 0x0 REVERT JUMPDEST POP POP POP POP PUSH1 0x40 MLOAD RETURNDATASIZE PUSH1 0x1F NOT PUSH1 0x1F DUP3 ADD AND DUP3 ADD DUP1 PUSH1 0x40 MSTORE POP DUP2 ADD SWAP1 PUSH2 0x6E7 SWAP2 SWAP1 PUSH2 0xFDD JUMP JUMPDEST PUSH2 0x6F0 JUMPI PUSH1 0x0 DUP1 REVERT JUMPDEST PUSH1 0x40 DUP1 MLOAD DUP5 DUP2 MSTORE PUSH1 0x20 DUP2 ADD DUP5 SWAP1 MSTORE PUSH32 0x56CA301A9219608C91E7BCEE90E083C19671D2CDCC96752C7AF291CEE5F9C8C8 SWAP2 ADD PUSH1 0x40 MLOAD DUP1 SWAP2 SUB SWAP1 LOG1 POP PUSH1 0x7 SWAP2 SWAP1 SWAP2 SSTORE PUSH1 0x6 SSTORE POP JUMP JUMPDEST PUSH1 0x0 DUP1 SLOAD PUSH1 0x40 MLOAD PUSH4 0x70A08231 PUSH1 0xE0 SHL DUP2 MSTORE ADDRESS PUSH1 0x4 DUP3 ADD MSTORE DUP3 SWAP2 DUP3 SWAP2 SELFBALANCE SWAP2 PUSH1 0x1 PUSH1 0x1 PUSH1 0xA0 SHL SUB AND SWAP1 PUSH4 0x70A08231 SWAP1 PUSH1 0x24 ADD PUSH1 0x20 PUSH1 0x40 MLOAD DUP1 DUP4 SUB DUP2 DUP7 DUP1 EXTCODESIZE ISZERO DUP1 ISZERO PUSH2 0x77E JUMPI PUSH1 0x0 DUP1 REVERT JUMPDEST POP GAS STATICCALL ISZERO DUP1 ISZERO PUSH2 0x792 JUMPI RETURNDATASIZE PUSH1 0x0 DUP1 RETURNDATACOPY RETURNDATASIZE PUSH1 0x0 REVERT JUMPDEST POP POP POP POP PUSH1 0x40 MLOAD RETURNDATASIZE PUSH1 0x1F NOT PUSH1 0x1F DUP3 ADD AND DUP3 ADD DUP1 PUSH1 0x40 MSTORE POP DUP2 ADD SWAP1 PUSH2 0x7B6 SWAP2 SWAP1 PUSH2 0x1018 JUMP JUMPDEST PUSH2 0x7C0 SWAP1 DUP7 PUSH2 0x106B JUMP JUMPDEST PUSH2 0x7CA SWAP2 SWAP1 PUSH2 0x1049 JUMP JUMPDEST SWAP1 POP PUSH1 0x0 SELFBALANCE PUSH1 0x1 SLOAD DUP7 PUSH2 0x442 SWAP2 SWAP1 PUSH2 0x106B JUMP JUMPDEST PUSH1 0x0 DUP1 SLOAD PUSH1 0x40 MLOAD PUSH4 0x70A08231 PUSH1 0xE0 SHL DUP2 MSTORE ADDRESS PUSH1 0x4 DUP3 ADD MSTORE PUSH2 0x866 SWAP2 DUP5 SWAP2 PUSH1 0x1 PUSH1 0x1 PUSH1 0xA0 SHL SUB SWAP1 SWAP2 AND SWAP1 PUSH4 0x70A08231 SWAP1 PUSH1 0x24 ADD JUMPDEST PUSH1 0x20 PUSH1 0x40 MLOAD DUP1 DUP4 SUB DUP2 DUP7 DUP1 EXTCODESIZE ISZERO DUP1 ISZERO PUSH2 0x828 JUMPI PUSH1 0x0 DUP1 REVERT JUMPDEST POP GAS STATICCALL ISZERO DUP1 ISZERO PUSH2 0x83C JUMPI RETURNDATASIZE PUSH1 0x0 DUP1 RETURNDATACOPY RETURNDATASIZE PUSH1 0x0 REVERT JUMPDEST POP POP POP POP PUSH1 0x40 MLOAD RETURNDATASIZE PUSH1 0x1F NOT PUSH1 0x1F DUP3 ADD AND DUP3 ADD DUP1 PUSH1 0x40 MSTORE POP DUP2 ADD SWAP1 PUSH2 0x860 SWAP2 SWAP1 PUSH2 0x1018 JUMP JUMPDEST SELFBALANCE PUSH2 0xF4D JUMP JUMPDEST SWAP3 SWAP2 POP POP JUMP JUMPDEST PUSH1 0x0 PUSH2 0x866 DUP3 PUSH2 0x87C DUP2 SELFBALANCE PUSH2 0x108A JUMP JUMPDEST PUSH1 0x0 SLOAD PUSH1 0x40 MLOAD PUSH4 0x70A08231 PUSH1 0xE0 SHL DUP2 MSTORE ADDRESS PUSH1 0x4 DUP3 ADD MSTORE PUSH1 0x1 PUSH1 0x1 PUSH1 0xA0 SHL SUB SWAP1 SWAP2 AND SWAP1 PUSH4 0x70A08231 SWAP1 PUSH1 0x24 ADD PUSH1 0x20 PUSH1 0x40 MLOAD DUP1 DUP4 SUB DUP2 DUP7 DUP1 EXTCODESIZE ISZERO DUP1 ISZERO PUSH2 0x8BF JUMPI PUSH1 0x0 DUP1 REVERT JUMPDEST POP GAS STATICCALL ISZERO DUP1 ISZERO PUSH2 0x8D3 JUMPI RETURNDATASIZE PUSH1 0x0 DUP1 RETURNDATACOPY RETURNDATASIZE PUSH1 0x0 REVERT JUMPDEST POP POP POP POP PUSH1 0x40 MLOAD RETURNDATASIZE PUSH1 0x1F NOT PUSH1 0x1F DUP3 ADD AND DUP3 ADD DUP1 PUSH1 0x40 MSTORE POP DUP2 ADD SWAP1 PUSH2 0x8F7 SWAP2 SWAP1 PUSH2 0x1018 JUMP JUMPDEST PUSH2 0xF4D JUMP JUMPDEST PUSH1 0x0 PUSH2 0x90C CALLVALUE PUSH2 0x87C DUP2 SELFBALANCE PUSH2 0x108A JUMP JUMPDEST PUSH1 0x0 SLOAD PUSH1 0x40 MLOAD PUSH4 0xA9059CBB PUSH1 0xE0 SHL DUP2 MSTORE ORIGIN PUSH1 0x4 DUP3 ADD MSTORE PUSH1 0x24 DUP2 ADD DUP4 SWAP1 MSTORE SWAP2 SWAP3 POP PUSH1 0x1 PUSH1 0x1 PUSH1 0xA0 SHL SUB AND SWAP1 PUSH4 0xA9059CBB SWAP1 PUSH1 0x44 ADD PUSH1 0x20 PUSH1 0x40 MLOAD DUP1 DUP4 SUB DUP2 PUSH1 0x0 DUP8 DUP1 EXTCODESIZE ISZERO DUP1 ISZERO PUSH2 0x959 JUMPI PUSH1 0x0 DUP1 REVERT JUMPDEST POP GAS CALL ISZERO DUP1 ISZERO PUSH2 0x96D JUMPI RETURNDATASIZE PUSH1 0x0 DUP1 RETURNDATACOPY RETURNDATASIZE PUSH1 0x0 REVERT JUMPDEST POP POP POP POP PUSH1 0x40 MLOAD RETURNDATASIZE PUSH1 0x1F NOT PUSH1 0x1F DUP3 ADD AND DUP3 ADD DUP1 PUSH1 0x40 MSTORE POP DUP2 ADD SWAP1 PUSH2 0x991 SWAP2 SWAP1 PUSH2 0xFDD JUMP JUMPDEST PUSH2 0x99A JUMPI PUSH1 0x0 DUP1 REVERT JUMPDEST CALLVALUE PUSH1 0x3 PUSH1 0x0 DUP3 DUP3 SLOAD PUSH2 0x9AC SWAP2 SWAP1 PUSH2 0x1031 JUMP JUMPDEST SWAP1 SWAP2 SSTORE POP POP ORIGIN PUSH1 0x0 SWAP1 DUP2 MSTORE PUSH1 0x4 PUSH1 0x20 MSTORE PUSH1 0x40 DUP2 KECCAK256 DUP1 SLOAD CALLVALUE SWAP3 SWAP1 PUSH2 0x9D0 SWAP1 DUP5 SWAP1 PUSH2 0x1031 JUMP JUMPDEST SWAP1 SWAP2 SSTORE POP POP PUSH1 0x6 DUP2 SWAP1 SSTORE PUSH1 0x40 MLOAD DUP2 DUP2 MSTORE PUSH32 0xDB04C7A6D4758FD55D738EBC67E7F3010AC922BE00771EF29521A4090D1EB13F SWAP1 PUSH1 0x20 ADD PUSH1 0x40 MLOAD DUP1 SWAP2 SUB SWAP1 LOG1 POP JUMP JUMPDEST PUSH1 0x0 DUP1 SLOAD PUSH1 0x40 MLOAD PUSH4 0x70A08231 PUSH1 0xE0 SHL DUP2 MSTORE ADDRESS PUSH1 0x4 DUP3 ADD MSTORE PUSH1 0x1 PUSH1 0x1 PUSH1 0xA0 SHL SUB SWAP1 SWAP2 AND SWAP1 PUSH4 0x70A08231 SWAP1 PUSH1 0x24 ADD PUSH1 0x20 PUSH1 0x40 MLOAD DUP1 DUP4 SUB DUP2 DUP7 DUP1 EXTCODESIZE ISZERO DUP1 ISZERO PUSH2 0xA54 JUMPI PUSH1 0x0 DUP1 REVERT JUMPDEST POP GAS STATICCALL ISZERO DUP1 ISZERO PUSH2 0xA68 JUMPI RETURNDATASIZE PUSH1 0x0 DUP1 RETURNDATACOPY RETURNDATASIZE PUSH1 0x0 REVERT JUMPDEST POP POP POP POP PUSH1 0x40 MLOAD RETURNDATASIZE PUSH1 0x1F NOT PUSH1 0x1F DUP3 ADD AND DUP3 ADD DUP1 PUSH1 0x40 MSTORE POP DUP2 ADD SWAP1 PUSH2 0xA8C SWAP2 SWAP1 PUSH2 0x1018 JUMP JUMPDEST SWAP1 POP SWAP1 JUMP JUMPDEST PUSH1 0x1 SLOAD ISZERO PUSH2 0xA9E JUMPI PUSH1 0x0 DUP1 REVERT JUMPDEST PUSH1 0x0 DUP2 GT PUSH2 0xAAB JUMPI PUSH1 0x0 DUP1 REVERT JUMPDEST PUSH1 0x0 CALLVALUE GT PUSH2 0xAB8 JUMPI PUSH1 0x0 DUP1 REVERT JUMPDEST PUSH1 0x0 PUSH1 0x3 DUP2 SWAP1 SSTORE DUP1 SLOAD PUSH20 0xFFFFFFFFFFFFFFFFFFFFFFFFFFFFFFFFFFFFFFFF NOT AND PUSH1 0x1 PUSH1 0x1 PUSH1 0xA0 SHL SUB DUP5 DUP2 AND SWAP2 SWAP1 SWAP2 OR DUP3 SSTORE SELFBALANCE PUSH1 0x1 DUP2 SWAP1 SSTORE ORIGIN DUP1 DUP5 MSTORE PUSH1 0x5 PUSH1 0x20 MSTORE PUSH1 0x40 DUP1 DUP6 KECCAK256 SWAP3 SWAP1 SWAP3 SSTORE SWAP3 SLOAD SWAP1 MLOAD PUSH4 0x23B872DD PUSH1 0xE0 SHL DUP2 MSTORE PUSH1 0x4 DUP2 ADD SWAP4 SWAP1 SWAP4 MSTORE ADDRESS PUSH1 0x24 DUP5 ADD MSTORE PUSH1 0x44 DUP4 ADD DUP5 SWAP1 MSTORE AND SWAP1 PUSH4 0x23B872DD SWAP1 PUSH1 0x64 ADD PUSH1 0x20 PUSH1 0x40 MLOAD DUP1 DUP4 SUB DUP2 PUSH1 0x0 DUP8 DUP1 EXTCODESIZE ISZERO DUP1 ISZERO PUSH2 0xB49 JUMPI PUSH1 0x0 DUP1 REVERT JUMPDEST POP GAS CALL ISZERO DUP1 ISZERO PUSH2 0xB5D JUMPI RETURNDATASIZE PUSH1 0x0 DUP1 RETURNDATACOPY RETURNDATASIZE PUSH1 0x0 REVERT JUMPDEST POP POP POP POP PUSH1 0x40 MLOAD RETURNDATASIZE PUSH1 0x1F NOT PUSH1 0x1F DUP3 ADD AND DUP3 ADD DUP1 PUSH1 0x40 MSTORE POP DUP2 ADD SWAP1 PUSH2 0xB81 SWAP2 SWAP1 PUSH2 0xFDD JUMP JUMPDEST PUSH2 0xB8A JUMPI PUSH1 0x0 DUP1 REVERT JUMPDEST PUSH32 0xC43E48CF47E9FA186D0F4096C61D1FCB54159799F935A2AA32E5589688EE36E1 PUSH1 0x1 SLOAD PUSH1 0x40 MLOAD PUSH2 0xBBD SWAP2 DUP2 MSTORE PUSH1 0x20 ADD SWAP1 JUMP JUMPDEST PUSH1 0x40 MLOAD DUP1 SWAP2 SUB SWAP1 LOG1 POP POP JUMP JUMPDEST PUSH1 0x0 CALLVALUE GT PUSH2 0xBD6 JUMPI PUSH1 0x0 DUP1 REVERT JUMPDEST PUSH1 0x0 PUSH2 0xBE2 CALLVALUE SELFBALANCE PUSH2 0x108A JUMP JUMPDEST PUSH1 0x0 SLOAD PUSH1 0x40 MLOAD PUSH4 0x70A08231 PUSH1 0xE0 SHL DUP2 MSTORE ADDRESS PUSH1 0x4 DUP3 ADD MSTORE PUSH1 0x1 PUSH1 0x1 PUSH1 0xA0 SHL SUB SWAP1 SWAP2 AND SWAP1 PUSH4 0x70A08231 SWAP1 PUSH1 0x24 ADD PUSH1 0x20 PUSH1 0x40 MLOAD DUP1 DUP4 SUB DUP2 DUP7 DUP1 EXTCODESIZE ISZERO DUP1 ISZERO PUSH2 0xC25 JUMPI PUSH1 0x0 DUP1 REVERT JUMPDEST POP GAS STATICCALL ISZERO DUP1 ISZERO PUSH2 0xC39 JUMPI RETURNDATASIZE PUSH1 0x0 DUP1 RETURNDATACOPY RETURNDATASIZE PUSH1 0x0 REVERT JUMPDEST POP POP POP POP PUSH1 0x40 MLOAD RETURNDATASIZE PUSH1 0x1F NOT PUSH1 0x1F DUP3 ADD AND DUP3 ADD DUP1 PUSH1 0x40 MSTORE POP DUP2 ADD SWAP1 PUSH2 0xC5D SWAP2 SWAP1 PUSH2 0x1018 JUMP JUMPDEST PUSH2 0xC67 SWAP1 CALLVALUE PUSH2 0x106B JUMP JUMPDEST PUSH2 0xC71 SWAP2 SWAP1 PUSH2 0x1049 JUMP JUMPDEST SWAP1 POP PUSH1 0x0 PUSH2 0xC7F CALLVALUE SELFBALANCE PUSH2 0x108A JUMP JUMPDEST PUSH1 0x1 SLOAD PUSH2 0xC8C SWAP1 CALLVALUE PUSH2 0x106B JUMP JUMPDEST PUSH2 0xC96 SWAP2 SWAP1 PUSH2 0x1049 JUMP JUMPDEST ORIGIN PUSH1 0x0 SWAP1 DUP2 MSTORE PUSH1 0x5 PUSH1 0x20 MSTORE PUSH1 0x40 DUP2 KECCAK256 DUP1 SLOAD SWAP3 SWAP4 POP DUP4 SWAP3 SWAP1 SWAP2 SWAP1 PUSH2 0xCBA SWAP1 DUP5 SWAP1 PUSH2 0x1031 JUMP JUMPDEST SWAP3 POP POP DUP2 SWAP1 SSTORE POP DUP1 PUSH1 0x1 PUSH1 0x0 DUP3 DUP3 SLOAD PUSH2 0xCD3 SWAP2 SWAP1 PUSH2 0x1031 JUMP JUMPDEST SWAP1 SWAP2 SSTORE POP POP PUSH1 0x0 SLOAD PUSH1 0x40 MLOAD PUSH4 0x23B872DD PUSH1 0xE0 SHL DUP2 MSTORE ORIGIN PUSH1 0x4 DUP3 ADD MSTORE ADDRESS PUSH1 0x24 DUP3 ADD MSTORE PUSH1 0x44 DUP2 ADD DUP5 SWAP1 MSTORE PUSH1 0x1 PUSH1 0x1 PUSH1 0xA0 SHL SUB SWAP1 SWAP2 AND SWAP1 PUSH4 0x23B872DD SWAP1 PUSH1 0x64 ADD PUSH1 0x20 PUSH1 0x40 MLOAD DUP1 DUP4 SUB DUP2 PUSH1 0x0 DUP8 DUP1 EXTCODESIZE ISZERO DUP1 ISZERO PUSH2 0xD2A JUMPI PUSH1 0x0 DUP1 REVERT JUMPDEST POP GAS CALL ISZERO DUP1 ISZERO PUSH2 0xD3E JUMPI RETURNDATASIZE PUSH1 0x0 DUP1 RETURNDATACOPY RETURNDATASIZE PUSH1 0x0 REVERT JUMPDEST POP POP POP POP PUSH1 0x40 MLOAD RETURNDATASIZE PUSH1 0x1F NOT PUSH1 0x1F DUP3 ADD AND DUP3 ADD DUP1 PUSH1 0x40 MSTORE POP DUP2 ADD SWAP1 PUSH2 0xD62 SWAP2 SWAP1 PUSH2 0xFDD JUMP JUMPDEST PUSH2 0xD6B JUMPI PUSH1 0x0 DUP1 REVERT JUMPDEST PUSH1 0x40 MLOAD DUP2 DUP2 MSTORE PUSH32 0x4D6CE1E535DBADE1C23DEFBA91E23B8F791CE5EDC0CC320257A2B364E4E38426 SWAP1 PUSH1 0x20 ADD PUSH1 0x40 MLOAD DUP1 SWAP2 SUB SWAP1 LOG1 PUSH1 0x8 SSTORE POP JUMP JUMPDEST PUSH1 0x0 DUP1 SLOAD PUSH1 0x40 MLOAD PUSH4 0x70A08231 PUSH1 0xE0 SHL DUP2 MSTORE ADDRESS PUSH1 0x4 DUP3 ADD MSTORE PUSH2 0xDDB SWAP2 DUP5 SWAP2 PUSH1 0x1 PUSH1 0x1 PUSH1 0xA0 SHL SUB SWAP1 SWAP2 AND SWAP1 PUSH4 0x70A08231 SWAP1 PUSH1 0x24 ADD PUSH2 0x810 JUMP JUMPDEST PUSH1 0x40 MLOAD SWAP1 SWAP2 POP PUSH1 0x0 SWAP1 ORIGIN SWAP1 DUP4 SWAP1 DUP4 DUP2 DUP2 DUP2 DUP6 DUP8 GAS CALL SWAP3 POP POP POP RETURNDATASIZE DUP1 PUSH1 0x0 DUP2 EQ PUSH2 0xE20 JUMPI PUSH1 0x40 MLOAD SWAP2 POP PUSH1 0x1F NOT PUSH1 0x3F RETURNDATASIZE ADD AND DUP3 ADD PUSH1 0x40 MSTORE RETURNDATASIZE DUP3 MSTORE RETURNDATASIZE PUSH1 0x0 PUSH1 0x20 DUP5 ADD RETURNDATACOPY PUSH2 0xE25 JUMP JUMPDEST PUSH1 0x60 SWAP2 POP JUMPDEST POP POP SWAP1 POP DUP1 PUSH2 0xE69 JUMPI PUSH1 0x40 MLOAD PUSH3 0x461BCD PUSH1 0xE5 SHL DUP2 MSTORE PUSH1 0x20 PUSH1 0x4 DUP3 ADD MSTORE PUSH1 0x10 PUSH1 0x24 DUP3 ADD MSTORE PUSH16 0x2A3930B739B332B9103330B4B632B217 PUSH1 0x81 SHL PUSH1 0x44 DUP3 ADD MSTORE PUSH1 0x64 ADD PUSH2 0x500 JUMP JUMPDEST PUSH1 0x0 SLOAD PUSH1 0x40 MLOAD PUSH4 0x23B872DD PUSH1 0xE0 SHL DUP2 MSTORE ORIGIN PUSH1 0x4 DUP3 ADD MSTORE ADDRESS PUSH1 0x24 DUP3 ADD MSTORE PUSH1 0x44 DUP2 ADD DUP6 SWAP1 MSTORE PUSH1 0x1 PUSH1 0x1 PUSH1 0xA0 SHL SUB SWAP1 SWAP2 AND SWAP1 PUSH4 0x23B872DD SWAP1 PUSH1 0x64 ADD PUSH1 0x20 PUSH1 0x40 MLOAD DUP1 DUP4 SUB DUP2 PUSH1 0x0 DUP8 DUP1 EXTCODESIZE ISZERO DUP1 ISZERO PUSH2 0xEBB JUMPI PUSH1 0x0 DUP1 REVERT JUMPDEST POP GAS CALL ISZERO DUP1 ISZERO PUSH2 0xECF JUMPI RETURNDATASIZE PUSH1 0x0 DUP1 RETURNDATACOPY RETURNDATASIZE PUSH1 0x0 REVERT JUMPDEST POP POP POP POP PUSH1 0x40 MLOAD RETURNDATASIZE PUSH1 0x1F NOT PUSH1 0x1F DUP3 ADD AND DUP3 ADD DUP1 PUSH1 0x40 MSTORE POP DUP2 ADD SWAP1 PUSH2 0xEF3 SWAP2 SWAP1 PUSH2 0xFDD JUMP JUMPDEST PUSH2 0xEFC JUMPI PUSH1 0x0 DUP1 REVERT JUMPDEST DUP2 PUSH1 0x3 PUSH1 0x0 DUP3 DUP3 SLOAD PUSH2 0xF0E SWAP2 SWAP1 PUSH2 0x1031 JUMP JUMPDEST SWAP1 SWAP2 SSTORE POP POP PUSH1 0x40 MLOAD DUP3 DUP2 MSTORE PUSH32 0x4DBF3A71A7C7262F432C2CAD7808225832255D07F7D8AB85117677C0B5C0A850 SWAP1 PUSH1 0x20 ADD PUSH1 0x40 MLOAD DUP1 SWAP2 SUB SWAP1 LOG1 POP PUSH1 0x7 SSTORE POP JUMP JUMPDEST PUSH1 0x0 PUSH2 0xF59 DUP5 DUP5 PUSH2 0x1031 JUMP JUMPDEST PUSH2 0xF63 DUP4 DUP7 PUSH2 0x106B JUMP JUMPDEST PUSH2 0xF6D SWAP2 SWAP1 PUSH2 0x1049 JUMP JUMPDEST SWAP5 SWAP4 POP POP POP POP JUMP JUMPDEST DUP1 CALLDATALOAD PUSH1 0x1 PUSH1 0x1 PUSH1 0xA0 SHL SUB DUP2 AND DUP2 EQ PUSH2 0xF8C JUMPI PUSH1 0x0 DUP1 REVERT JUMPDEST SWAP2 SWAP1 POP JUMP JUMPDEST PUSH1 0x0 PUSH1 0x20 DUP3 DUP5 SUB SLT ISZERO PUSH2 0xFA3 JUMPI PUSH1 0x0 DUP1 REVERT JUMPDEST PUSH2 0xFAC DUP3 PUSH2 0xF75 JUMP JUMPDEST SWAP4 SWAP3 POP POP POP JUMP JUMPDEST PUSH1 0x0 DUP1 PUSH1 0x40 DUP4 DUP6 SUB SLT ISZERO PUSH2 0xFC6 JUMPI PUSH1 0x0 DUP1 REVERT JUMPDEST PUSH2 0xFCF DUP4 PUSH2 0xF75 JUMP JUMPDEST SWAP5 PUSH1 0x20 SWAP4 SWAP1 SWAP4 ADD CALLDATALOAD SWAP4 POP POP POP JUMP JUMPDEST PUSH1 0x0 PUSH1 0x20 DUP3 DUP5 SUB SLT ISZERO PUSH2 0xFEF JUMPI PUSH1 0x0 DUP1 REVERT JUMPDEST DUP2 MLOAD DUP1 ISZERO ISZERO DUP2 EQ PUSH2 0xFAC JUMPI PUSH1 0x0 DUP1 REVERT JUMPDEST PUSH1 0x0 PUSH1 0x20 DUP3 DUP5 SUB SLT ISZERO PUSH2 0x1011 JUMPI PUSH1 0x0 DUP1 REVERT JUMPDEST POP CALLDATALOAD SWAP2 SWAP1 POP JUMP JUMPDEST PUSH1 0x0 PUSH1 0x20 DUP3 DUP5 SUB SLT ISZERO PUSH2 0x102A JUMPI PUSH1 0x0 DUP1 REVERT JUMPDEST POP MLOAD SWAP2 SWAP1 POP JUMP JUMPDEST PUSH1 0x0 DUP3 NOT DUP3 GT ISZERO PUSH2 0x1044 JUMPI PUSH2 0x1044 PUSH2 0x10A1 JUMP JUMPDEST POP ADD SWAP1 JUMP JUMPDEST PUSH1 0x0 DUP3 PUSH2 0x1066 JUMPI PUSH4 0x4E487B71 PUSH1 0xE0 SHL PUSH1 0x0 MSTORE PUSH1 0x12 PUSH1 0x4 MSTORE PUSH1 0x24 PUSH1 0x0 REVERT JUMPDEST POP DIV SWAP1 JUMP JUMPDEST PUSH1 0x0 DUP2 PUSH1 0x0 NOT DIV DUP4 GT DUP3 ISZERO ISZERO AND ISZERO PUSH2 0x1085 JUMPI PUSH2 0x1085 PUSH2 0x10A1 JUMP JUMPDEST POP MUL SWAP1 JUMP JUMPDEST PUSH1 0x0 DUP3 DUP3 LT ISZERO PUSH2 0x109C JUMPI PUSH2 0x109C PUSH2 0x10A1 JUMP JUMPDEST POP SUB SWAP1 JUMP JUMPDEST PUSH4 0x4E487B71 PUSH1 0xE0 SHL PUSH1 0x0 MSTORE PUSH1 0x11 PUSH1 0x4 MSTORE PUSH1 0x24 PUSH1 0x0 REVERT INVALID LOG2 PUSH5 0x6970667358 0x22 SLT KECCAK256 PUSH5 0xB535C959BB DUP1 0x23 0xC5 PUSH18 0xA7A3395E36D84D3A90BDB7A51A246E66D05B CHAINID PUSH19 0x7F4664736F6C63430008070033608060405234 DUP1 ISZERO PUSH2 0x10 JUMPI PUSH1 0x0 DUP1 REVERT JUMPDEST POP PUSH2 0xB86 DUP1 PUSH2 0x20 PUSH1 0x0 CODECOPY PUSH1 0x0 RETURN INVALID PUSH1 0x80 PUSH1 0x40 MSTORE CALLVALUE DUP1 ISZERO PUSH2 0x10 JUMPI PUSH1 0x0 DUP1 REVERT JUMPDEST POP PUSH1 0x4 CALLDATASIZE LT PUSH2 0x147 JUMPI PUSH1 0x0 CALLDATALOAD PUSH1 0xE0 SHR DUP1 PUSH4 0x5D8AB6E7 GT PUSH2 0xC8 JUMPI DUP1 PUSH4 0xA2932558 GT PUSH2 0x8C JUMPI DUP1 PUSH4 0xC4374575 GT PUSH2 0x66 JUMPI DUP1 PUSH4 0xC4374575 EQ PUSH2 0x2B6 JUMPI DUP1 PUSH4 0xEA7A9B4E EQ PUSH2 0x2C9 JUMPI DUP1 PUSH4 0xF7155345 EQ PUSH2 0x2DC JUMPI PUSH1 0x0 DUP1 REVERT JUMPDEST DUP1 PUSH4 0xA2932558 EQ PUSH2 0x293 JUMPI DUP1 PUSH4 0xAC7FDD39 EQ PUSH2 0x29B JUMPI DUP1 PUSH4 0xB794CC2F EQ PUSH2 0x2A3 JUMPI PUSH1 0x0 DUP1 REVERT JUMPDEST DUP1 PUSH4 0x5D8AB6E7 EQ PUSH2 0x24B JUMPI DUP1 PUSH4 0x6901F668 EQ PUSH2 0x25D JUMPI DUP1 PUSH4 0x8D15D676 EQ PUSH2 0x265 JUMPI DUP1 PUSH4 0x8DA5CB5B EQ PUSH2 0x278 JUMPI DUP1 PUSH4 0x990EC12B EQ PUSH2 0x28B JUMPI PUSH1 0x0 DUP1 REVERT JUMPDEST DUP1 PUSH4 0x1C4695F4 GT PUSH2 0x10F JUMPI DUP1 PUSH4 0x1C4695F4 EQ PUSH2 0x1EA JUMPI DUP1 PUSH4 0x1D846C65 EQ PUSH2 0x1F2 JUMPI DUP1 PUSH4 0x35AA2E44 EQ PUSH2 0x205 JUMPI DUP1 PUSH4 0x4E7F4D3C EQ PUSH2 0x230 JUMPI DUP1 PUSH4 0x5836E0B5 EQ PUSH2 0x243 JUMPI PUSH1 0x0 DUP1 REVERT JUMPDEST DUP1 PUSH4 0x36B6110 EQ PUSH2 0x14C JUMPI DUP1 PUSH4 0x9BD5A60 EQ PUSH2 0x161 JUMPI DUP1 PUSH4 0x123119CD EQ PUSH2 0x17F JUMPI DUP1 PUSH4 0x13AF4035 EQ PUSH2 0x187 JUMPI DUP1 PUSH4 0x1A2DB8D2 EQ PUSH2 0x1B7 JUMPI JUMPDEST PUSH1 0x0 DUP1 REVERT JUMPDEST PUSH2 0x15F PUSH2 0x15A CALLDATASIZE PUSH1 0x4 PUSH2 0x8BE JUMP JUMPDEST PUSH2 0x2FF JUMP JUMPDEST STOP JUMPDEST PUSH2 0x169 PUSH2 0x316 JUMP JUMPDEST PUSH1 0x40 MLOAD PUSH2 0x176 SWAP2 SWAP1 PUSH2 0x988 JUMP JUMPDEST PUSH1 0x40 MLOAD DUP1 SWAP2 SUB SWAP1 RETURN JUMPDEST PUSH2 0x169 PUSH2 0x3A4 JUMP JUMPDEST PUSH2 0x15F PUSH2 0x195 CALLDATASIZE PUSH1 0x4 PUSH2 0x88E JUMP JUMPDEST PUSH1 0x0 DUP1 SLOAD PUSH1 0x1 PUSH1 0x1 PUSH1 0xA0 SHL SUB NOT AND PUSH1 0x1 PUSH1 0x1 PUSH1 0xA0 SHL SUB SWAP3 SWAP1 SWAP3 AND SWAP2 SWAP1 SWAP2 OR SWAP1 SSTORE JUMP JUMPDEST PUSH2 0x1DA PUSH2 0x1C5 CALLDATASIZE PUSH1 0x4 PUSH2 0x88E JUMP JUMPDEST PUSH1 0x8 PUSH1 0x20 MSTORE PUSH1 0x0 SWAP1 DUP2 MSTORE PUSH1 0x40 SWAP1 KECCAK256 SLOAD PUSH1 0xFF AND DUP2 JUMP JUMPDEST PUSH1 0x40 MLOAD SWAP1 ISZERO ISZERO DUP2 MSTORE PUSH1 0x20 ADD PUSH2 0x176 JUMP JUMPDEST PUSH2 0x169 PUSH2 0x3B1 JUMP JUMPDEST PUSH2 0x15F PUSH2 0x200 CALLDATASIZE PUSH1 0x4 PUSH2 0x8BE JUMP JUMPDEST PUSH2 0x3BE JUMP JUMPDEST PUSH2 0x218 PUSH2 0x213 CALLDATASIZE PUSH1 0x4 PUSH2 0x96F JUMP JUMPDEST PUSH2 0x3D1 JUMP JUMPDEST PUSH1 0x40 MLOAD PUSH1 0x1 PUSH1 0x1 PUSH1 0xA0 SHL SUB SWAP1 SWAP2 AND DUP2 MSTORE PUSH1 0x20 ADD PUSH2 0x176 JUMP JUMPDEST PUSH2 0x15F PUSH2 0x23E CALLDATASIZE PUSH1 0x4 PUSH2 0x8BE JUMP JUMPDEST PUSH2 0x3FB JUMP JUMPDEST PUSH2 0x15F PUSH2 0x40E JUMP JUMPDEST PUSH1 0x6 SLOAD JUMPDEST PUSH1 0x40 MLOAD SWAP1 DUP2 MSTORE PUSH1 0x20 ADD PUSH2 0x176 JUMP JUMPDEST PUSH2 0x15F PUSH2 0x595 JUMP JUMPDEST PUSH2 0x15F PUSH2 0x273 CALLDATASIZE PUSH1 0x4 PUSH2 0x8BE JUMP JUMPDEST PUSH2 0x711 JUMP JUMPDEST PUSH1 0x0 SLOAD PUSH2 0x218 SWAP1 PUSH1 0x1 PUSH1 0x1 PUSH1 0xA0 SHL SUB AND DUP2 JUMP JUMPDEST PUSH1 0x5 SLOAD PUSH2 0x24F JUMP JUMPDEST PUSH2 0x169 PUSH2 0x724 JUMP JUMPDEST PUSH2 0x1DA PUSH2 0x731 JUMP JUMPDEST PUSH2 0x1DA PUSH2 0x2B1 CALLDATASIZE PUSH1 0x4 PUSH2 0x88E JUMP JUMPDEST PUSH2 0x76F JUMP JUMPDEST PUSH2 0x1DA PUSH2 0x2C4 CALLDATASIZE PUSH1 0x4 PUSH2 0x88E JUMP JUMPDEST PUSH2 0x7AA JUMP JUMPDEST PUSH2 0x218 PUSH2 0x2D7 CALLDATASIZE PUSH1 0x4 PUSH2 0x96F JUMP JUMPDEST PUSH2 0x7E5 JUMP JUMPDEST PUSH2 0x1DA PUSH2 0x2EA CALLDATASIZE PUSH1 0x4 PUSH2 0x88E JUMP JUMPDEST PUSH1 0x7 PUSH1 0x20 MSTORE PUSH1 0x0 SWAP1 DUP2 MSTORE PUSH1 0x40 SWAP1 KECCAK256 SLOAD PUSH1 0xFF AND DUP2 JUMP JUMPDEST DUP1 MLOAD PUSH2 0x312 SWAP1 PUSH1 0x2 SWAP1 PUSH1 0x20 DUP5 ADD SWAP1 PUSH2 0x7F5 JUMP JUMPDEST POP POP JUMP JUMPDEST PUSH1 0x3 DUP1 SLOAD PUSH2 0x323 SWAP1 PUSH2 0xAFF JUMP JUMPDEST DUP1 PUSH1 0x1F ADD PUSH1 0x20 DUP1 SWAP2 DIV MUL PUSH1 0x20 ADD PUSH1 0x40 MLOAD SWAP1 DUP2 ADD PUSH1 0x40 MSTORE DUP1 SWAP3 SWAP2 SWAP1 DUP2 DUP2 MSTORE PUSH1 0x20 ADD DUP3 DUP1 SLOAD PUSH2 0x34F SWAP1 PUSH2 0xAFF JUMP JUMPDEST DUP1 ISZERO PUSH2 0x39C JUMPI DUP1 PUSH1 0x1F LT PUSH2 0x371 JUMPI PUSH2 0x100 DUP1 DUP4 SLOAD DIV MUL DUP4 MSTORE SWAP2 PUSH1 0x20 ADD SWAP2 PUSH2 0x39C JUMP JUMPDEST DUP3 ADD SWAP2 SWAP1 PUSH1 0x0 MSTORE PUSH1 0x20 PUSH1 0x0 KECCAK256 SWAP1 JUMPDEST DUP2 SLOAD DUP2 MSTORE SWAP1 PUSH1 0x1 ADD SWAP1 PUSH1 0x20 ADD DUP1 DUP4 GT PUSH2 0x37F JUMPI DUP3 SWAP1 SUB PUSH1 0x1F AND DUP3 ADD SWAP2 JUMPDEST POP POP POP POP POP DUP2 JUMP JUMPDEST PUSH1 0x1 DUP1 SLOAD PUSH2 0x323 SWAP1 PUSH2 0xAFF JUMP JUMPDEST PUSH1 0x4 DUP1 SLOAD PUSH2 0x323 SWAP1 PUSH2 0xAFF JUMP JUMPDEST DUP1 MLOAD PUSH2 0x312 SWAP1 PUSH1 0x3 SWAP1 PUSH1 0x20 DUP5 ADD SWAP1 PUSH2 0x7F5 JUMP JUMPDEST PUSH1 0x5 DUP2 DUP2 SLOAD DUP2 LT PUSH2 0x3E1 JUMPI PUSH1 0x0 DUP1 REVERT JUMPDEST PUSH1 0x0 SWAP2 DUP3 MSTORE PUSH1 0x20 SWAP1 SWAP2 KECCAK256 ADD SLOAD PUSH1 0x1 PUSH1 0x1 PUSH1 0xA0 SHL SUB AND SWAP1 POP DUP2 JUMP JUMPDEST DUP1 MLOAD PUSH2 0x312 SWAP1 PUSH1 0x1 SWAP1 PUSH1 0x20 DUP5 ADD SWAP1 PUSH2 0x7F5 JUMP JUMPDEST PUSH1 0x0 SLOAD PUSH1 0x1 PUSH1 0x1 PUSH1 0xA0 SHL SUB AND ORIGIN EQ ISZERO PUSH2 0x479 JUMPI PUSH1 0x40 MLOAD PUSH3 0x461BCD PUSH1 0xE5 SHL DUP2 MSTORE PUSH1 0x20 PUSH1 0x4 DUP3 ADD MSTORE PUSH1 0x22 PUSH1 0x24 DUP3 ADD MSTORE PUSH32 0x4F776E65722063616E6E6F742064656E7920686973206F776E20646F63756D65 PUSH1 0x44 DUP3 ADD MSTORE PUSH2 0x1B9D PUSH1 0xF2 SHL PUSH1 0x64 DUP3 ADD MSTORE PUSH1 0x84 ADD JUMPDEST PUSH1 0x40 MLOAD DUP1 SWAP2 SUB SWAP1 REVERT JUMPDEST ORIGIN PUSH1 0x0 SWAP1 DUP2 MSTORE PUSH1 0x8 PUSH1 0x20 MSTORE PUSH1 0x40 SWAP1 KECCAK256 SLOAD PUSH1 0xFF AND ISZERO PUSH2 0x4CE JUMPI PUSH1 0x40 MLOAD PUSH3 0x461BCD PUSH1 0xE5 SHL DUP2 MSTORE PUSH1 0x20 PUSH1 0x4 DUP3 ADD MSTORE PUSH1 0x12 PUSH1 0x24 DUP3 ADD MSTORE PUSH18 0x2932B832B0BA32B2103232B732B3B0BA37B9 PUSH1 0x71 SHL PUSH1 0x44 DUP3 ADD MSTORE PUSH1 0x64 ADD PUSH2 0x470 JUMP JUMPDEST ORIGIN PUSH1 0x0 SWAP1 DUP2 MSTORE PUSH1 0x7 PUSH1 0x20 MSTORE PUSH1 0x40 SWAP1 KECCAK256 SLOAD PUSH1 0xFF AND ISZERO PUSH2 0x4FE JUMPI PUSH1 0x40 MLOAD PUSH3 0x461BCD PUSH1 0xE5 SHL DUP2 MSTORE PUSH1 0x4 ADD PUSH2 0x470 SWAP1 PUSH2 0xA85 JUMP JUMPDEST PUSH1 0x6 DUP1 SLOAD PUSH1 0x1 DUP2 DUP2 ADD SWAP1 SWAP3 SSTORE PUSH32 0xF652222313E28459528D920B65115C16C04F3EFC82AAEDC97BE59F3F377C0D3F ADD DUP1 SLOAD PUSH1 0x1 PUSH1 0x1 PUSH1 0xA0 SHL SUB NOT AND ORIGIN SWAP1 DUP2 OR SWAP1 SWAP2 SSTORE PUSH1 0x0 DUP2 DUP2 MSTORE PUSH1 0x8 PUSH1 0x20 MSTORE PUSH1 0x40 SWAP1 DUP2 SWAP1 KECCAK256 DUP1 SLOAD PUSH1 0xFF NOT AND SWAP1 SWAP4 OR SWAP1 SWAP3 SSTORE SWAP1 MLOAD PUSH32 0x9036BC06AD4A578F0132D89BA4ADC07B9772275526730ACC38D7E4B4C11872A3 SWAP1 PUSH2 0x58B SWAP1 PUSH1 0x2 SWAP1 PUSH2 0x9DD JUMP JUMPDEST PUSH1 0x40 MLOAD DUP1 SWAP2 SUB SWAP1 LOG2 JUMP JUMPDEST PUSH1 0x0 SLOAD PUSH1 0x1 PUSH1 0x1 PUSH1 0xA0 SHL SUB AND ORIGIN EQ ISZERO PUSH2 0x5FF JUMPI PUSH1 0x40 MLOAD PUSH3 0x461BCD PUSH1 0xE5 SHL DUP2 MSTORE PUSH1 0x20 PUSH1 0x4 DUP3 ADD MSTORE PUSH1 0x26 PUSH1 0x24 DUP3 ADD MSTORE PUSH32 0x4F776E65722063616E6E6F742076616C696461746520686973206F776E20646F PUSH1 0x44 DUP3 ADD MSTORE PUSH6 0x18DD5B595B9D PUSH1 0xD2 SHL PUSH1 0x64 DUP3 ADD MSTORE PUSH1 0x84 ADD PUSH2 0x470 JUMP JUMPDEST ORIGIN PUSH1 0x0 SWAP1 DUP2 MSTORE PUSH1 0x7 PUSH1 0x20 MSTORE PUSH1 0x40 SWAP1 KECCAK256 SLOAD PUSH1 0xFF AND ISZERO PUSH2 0x654 JUMPI PUSH1 0x40 MLOAD PUSH3 0x461BCD PUSH1 0xE5 SHL DUP2 MSTORE PUSH1 0x20 PUSH1 0x4 DUP3 ADD MSTORE PUSH1 0x12 PUSH1 0x24 DUP3 ADD MSTORE PUSH18 0x2932B832B0BA32B2103B30B634B230BA37B9 PUSH1 0x71 SHL PUSH1 0x44 DUP3 ADD MSTORE PUSH1 0x64 ADD PUSH2 0x470 JUMP JUMPDEST ORIGIN PUSH1 0x0 SWAP1 DUP2 MSTORE PUSH1 0x8 PUSH1 0x20 MSTORE PUSH1 0x40 SWAP1 KECCAK256 SLOAD PUSH1 0xFF AND ISZERO PUSH2 0x684 JUMPI PUSH1 0x40 MLOAD PUSH3 0x461BCD PUSH1 0xE5 SHL DUP2 MSTORE PUSH1 0x4 ADD PUSH2 0x470 SWAP1 PUSH2 0xA85 JUMP JUMPDEST PUSH1 0x5 DUP1 SLOAD PUSH1 0x1 DUP2 DUP2 ADD SWAP1 SWAP3 SSTORE PUSH32 0x36B6384B5ECA791C62761152D0C79BB0604C104A5FB6F4EB0703F3154BB3DB0 ADD DUP1 SLOAD PUSH1 0x1 PUSH1 0x1 PUSH1 0xA0 SHL SUB NOT AND ORIGIN SWAP1 DUP2 OR SWAP1 SWAP2 SSTORE PUSH1 0x0 DUP2 DUP2 MSTORE PUSH1 0x7 PUSH1 0x20 MSTORE PUSH1 0x40 SWAP1 DUP2 SWAP1 KECCAK256 DUP1 SLOAD PUSH1 0xFF NOT AND SWAP1 SWAP4 OR SWAP1 SWAP3 SSTORE SWAP1 MLOAD PUSH32 0x57D77EB32E87E8C65C7CEC1DF5B0E8A8D5C4EAE1B40C7246E7668ED702DD247A SWAP1 PUSH2 0x58B SWAP1 PUSH1 0x2 SWAP1 PUSH2 0x9DD JUMP JUMPDEST DUP1 MLOAD PUSH2 0x312 SWAP1 PUSH1 0x4 SWAP1 PUSH1 0x20 DUP5 ADD SWAP1 PUSH2 0x7F5 JUMP JUMPDEST PUSH1 0x2 DUP1 SLOAD PUSH2 0x323 SWAP1 PUSH2 0xAFF JUMP JUMPDEST PUSH1 0x6 SLOAD PUSH1 0x5 SLOAD PUSH1 0x0 SWAP2 SWAP1 DUP2 ISZERO DUP1 ISZERO PUSH2 0x74A JUMPI POP PUSH1 0x5 DUP2 LT ISZERO JUMPDEST DUP1 PUSH2 0x768 JUMPI POP DUP2 ISZERO DUP1 ISZERO SWAP1 PUSH2 0x768 JUMPI POP PUSH2 0x765 DUP3 PUSH1 0x5 PUSH2 0xAD2 JUMP JUMPDEST DUP2 GT JUMPDEST SWAP3 POP POP POP SWAP1 JUMP JUMPDEST PUSH1 0x0 DUP1 SLOAD PUSH1 0x1 PUSH1 0x1 PUSH1 0xA0 SHL SUB DUP4 DUP2 AND SWAP2 AND EQ ISZERO PUSH2 0x78B JUMPI PUSH1 0x0 DUP1 REVERT JUMPDEST POP PUSH1 0x1 PUSH1 0x1 PUSH1 0xA0 SHL SUB AND PUSH1 0x0 SWAP1 DUP2 MSTORE PUSH1 0x8 PUSH1 0x20 MSTORE PUSH1 0x40 SWAP1 KECCAK256 SLOAD PUSH1 0xFF AND SWAP1 JUMP JUMPDEST PUSH1 0x0 DUP1 SLOAD PUSH1 0x1 PUSH1 0x1 PUSH1 0xA0 SHL SUB DUP4 DUP2 AND SWAP2 AND EQ ISZERO PUSH2 0x7C6 JUMPI PUSH1 0x0 DUP1 REVERT JUMPDEST POP PUSH1 0x1 PUSH1 0x1 PUSH1 0xA0 SHL SUB AND PUSH1 0x0 SWAP1 DUP2 MSTORE PUSH1 0x7 PUSH1 0x20 MSTORE PUSH1 0x40 SWAP1 KECCAK256 SLOAD PUSH1 0xFF AND SWAP1 JUMP JUMPDEST PUSH1 0x6 DUP2 DUP2 SLOAD DUP2 LT PUSH2 0x3E1 JUMPI PUSH1 0x0 DUP1 REVERT JUMPDEST DUP3 DUP1 SLOAD PUSH2 0x801 SWAP1 PUSH2 0xAFF JUMP JUMPDEST SWAP1 PUSH1 0x0 MSTORE PUSH1 0x20 PUSH1 0x0 KECCAK256 SWAP1 PUSH1 0x1F ADD PUSH1 0x20 SWAP1 DIV DUP2 ADD SWAP3 DUP3 PUSH2 0x823 JUMPI PUSH1 0x0 DUP6 SSTORE PUSH2 0x869 JUMP JUMPDEST DUP3 PUSH1 0x1F LT PUSH2 0x83C JUMPI DUP1 MLOAD PUSH1 0xFF NOT AND DUP4 DUP1 ADD OR DUP6 SSTORE PUSH2 0x869 JUMP JUMPDEST DUP3 DUP1 ADD PUSH1 0x1 ADD DUP6 SSTORE DUP3 ISZERO PUSH2 0x869 JUMPI SWAP2 DUP3 ADD JUMPDEST DUP3 DUP2 GT ISZERO PUSH2 0x869 JUMPI DUP3 MLOAD DUP3 SSTORE SWAP2 PUSH1 0x20 ADD SWAP2 SWAP1 PUSH1 0x1 ADD SWAP1 PUSH2 0x84E JUMP JUMPDEST POP PUSH2 0x875 SWAP3 SWAP2 POP PUSH2 0x879 JUMP JUMPDEST POP SWAP1 JUMP JUMPDEST JUMPDEST DUP1 DUP3 GT ISZERO PUSH2 0x875 JUMPI PUSH1 0x0 DUP2 SSTORE PUSH1 0x1 ADD PUSH2 0x87A JUMP JUMPDEST PUSH1 0x0 PUSH1 0x20 DUP3 DUP5 SUB SLT ISZERO PUSH2 0x8A0 JUMPI PUSH1 0x0 DUP1 REVERT JUMPDEST DUP2 CALLDATALOAD PUSH1 0x1 PUSH1 0x1 PUSH1 0xA0 SHL SUB DUP2 AND DUP2 EQ PUSH2 0x8B7 JUMPI PUSH1 0x0 DUP1 REVERT JUMPDEST SWAP4 SWAP3 POP POP POP JUMP JUMPDEST PUSH1 0x0 PUSH1 0x20 DUP3 DUP5 SUB SLT ISZERO PUSH2 0x8D0 JUMPI PUSH1 0x0 DUP1 REVERT JUMPDEST DUP2 CALLDATALOAD PUSH8 0xFFFFFFFFFFFFFFFF DUP1 DUP3 GT ISZERO PUSH2 0x8E8 JUMPI PUSH1 0x0 DUP1 REVERT JUMPDEST DUP2 DUP5 ADD SWAP2 POP DUP5 PUSH1 0x1F DUP4 ADD SLT PUSH2 0x8FC JUMPI PUSH1 0x0 DUP1 REVERT JUMPDEST DUP2 CALLDATALOAD DUP2 DUP2 GT ISZERO PUSH2 0x90E JUMPI PUSH2 0x90E PUSH2 0xB3A JUMP JUMPDEST PUSH1 0x40 MLOAD PUSH1 0x1F DUP3 ADD PUSH1 0x1F NOT SWAP1 DUP2 AND PUSH1 0x3F ADD AND DUP2 ADD SWAP1 DUP4 DUP3 GT DUP2 DUP4 LT OR ISZERO PUSH2 0x936 JUMPI PUSH2 0x936 PUSH2 0xB3A JUMP JUMPDEST DUP2 PUSH1 0x40 MSTORE DUP3 DUP2 MSTORE DUP8 PUSH1 0x20 DUP5 DUP8 ADD ADD GT ISZERO PUSH2 0x94F JUMPI PUSH1 0x0 DUP1 REVERT JUMPDEST DUP3 PUSH1 0x20 DUP7 ADD PUSH1 0x20 DUP4 ADD CALLDATACOPY PUSH1 0x0 SWAP3 DUP2 ADD PUSH1 0x20 ADD SWAP3 SWAP1 SWAP3 MSTORE POP SWAP6 SWAP5 POP POP POP POP POP JUMP JUMPDEST PUSH1 0x0 PUSH1 0x20 DUP3 DUP5 SUB SLT ISZERO PUSH2 0x981 JUMPI PUSH1 0x0 DUP1 REVERT JUMPDEST POP CALLDATALOAD SWAP2 SWAP1 POP JUMP JUMPDEST PUSH1 0x0 PUSH1 0x20 DUP1 DUP4 MSTORE DUP4 MLOAD DUP1 DUP3 DUP6 ADD MSTORE PUSH1 0x0 JUMPDEST DUP2 DUP2 LT ISZERO PUSH2 0x9B5 JUMPI DUP6 DUP2 ADD DUP4 ADD MLOAD DUP6 DUP3 ADD PUSH1 0x40 ADD MSTORE DUP3 ADD PUSH2 0x999 JUMP JUMPDEST DUP2 DUP2 GT ISZERO PUSH2 0x9C7 JUMPI PUSH1 0x0 PUSH1 0x40 DUP4 DUP8 ADD ADD MSTORE JUMPDEST POP PUSH1 0x1F ADD PUSH1 0x1F NOT AND SWAP3 SWAP1 SWAP3 ADD PUSH1 0x40 ADD SWAP4 SWAP3 POP POP POP JUMP JUMPDEST PUSH1 0x0 PUSH1 0x20 DUP1 DUP4 MSTORE PUSH1 0x0 DUP5 SLOAD DUP2 PUSH1 0x1 DUP3 DUP2 SHR SWAP2 POP DUP1 DUP4 AND DUP1 PUSH2 0x9FF JUMPI PUSH1 0x7F DUP4 AND SWAP3 POP JUMPDEST DUP6 DUP4 LT DUP2 EQ ISZERO PUSH2 0xA1D JUMPI PUSH4 0x4E487B71 PUSH1 0xE0 SHL DUP6 MSTORE PUSH1 0x22 PUSH1 0x4 MSTORE PUSH1 0x24 DUP6 REVERT JUMPDEST DUP8 DUP7 ADD DUP4 DUP2 MSTORE PUSH1 0x20 ADD DUP2 DUP1 ISZERO PUSH2 0xA3A JUMPI PUSH1 0x1 DUP2 EQ PUSH2 0xA4B JUMPI PUSH2 0xA76 JUMP JUMPDEST PUSH1 0xFF NOT DUP7 AND DUP3 MSTORE DUP8 DUP3 ADD SWAP7 POP PUSH2 0xA76 JUMP JUMPDEST PUSH1 0x0 DUP12 DUP2 MSTORE PUSH1 0x20 SWAP1 KECCAK256 PUSH1 0x0 JUMPDEST DUP7 DUP2 LT ISZERO PUSH2 0xA70 JUMPI DUP2 SLOAD DUP5 DUP3 ADD MSTORE SWAP1 DUP6 ADD SWAP1 DUP10 ADD PUSH2 0xA57 JUMP JUMPDEST DUP4 ADD SWAP8 POP POP JUMPDEST POP SWAP5 SWAP10 SWAP9 POP POP POP POP POP POP POP POP POP JUMP JUMPDEST PUSH1 0x20 DUP1 DUP3 MSTORE PUSH1 0x2D SWAP1 DUP3 ADD MSTORE PUSH32 0x596F752063616E6E6F742076616C696461746520616E642064656E7920617420 PUSH1 0x40 DUP3 ADD MSTORE PUSH13 0x7468652073616D652074696D65 PUSH1 0x98 SHL PUSH1 0x60 DUP3 ADD MSTORE PUSH1 0x80 ADD SWAP1 JUMP JUMPDEST PUSH1 0x0 DUP2 PUSH1 0x0 NOT DIV DUP4 GT DUP3 ISZERO ISZERO AND ISZERO PUSH2 0xAFA JUMPI PUSH4 0x4E487B71 PUSH1 0xE0 SHL PUSH1 0x0 MSTORE PUSH1 0x11 PUSH1 0x4 MSTORE PUSH1 0x24 PUSH1 0x0 REVERT JUMPDEST POP MUL SWAP1 JUMP JUMPDEST PUSH1 0x1 DUP2 DUP2 SHR SWAP1 DUP3 AND DUP1 PUSH2 0xB13 JUMPI PUSH1 0x7F DUP3 AND SWAP2 POP JUMPDEST PUSH1 0x20 DUP3 LT DUP2 EQ ISZERO PUSH2 0xB34 JUMPI PUSH4 0x4E487B71 PUSH1 0xE0 SHL PUSH1 0x0 MSTORE PUSH1 0x22 PUSH1 0x4 MSTORE PUSH1 0x24 PUSH1 0x0 REVERT JUMPDEST POP SWAP2 SWAP1 POP JUMP JUMPDEST PUSH4 0x4E487B71 PUSH1 0xE0 SHL PUSH1 0x0 MSTORE PUSH1 0x41 PUSH1 0x4 MSTORE PUSH1 0x24 PUSH1 0x0 REVERT INVALID LOG2 PUSH5 0x6970667358 0x22 SLT KECCAK256 0x4A 0xDD 0x26 DIFFICULTY KECCAK256 CALLDATACOPY 0xD3 MULMOD 0x2D CALLCODE 0xAB PUSH25 0xDFAE865A61B4694EE08DA4BC64F68FF29086DE8F64736F6C63 NUMBER STOP ADDMOD SMOD STOP CALLER PUSH1 0x80 PUSH1 0x40 MSTORE PUSH8 0x1158E460913D0000 PUSH1 0x3 SSTORE CALLVALUE DUP1 ISZERO PUSH2 0x1C JUMPI PUSH1 0x0 DUP1 REVERT JUMPDEST POP PUSH1 0x40 MLOAD PUSH2 0x677 CODESIZE SUB DUP1 PUSH2 0x677 DUP4 CODECOPY DUP2 ADD PUSH1 0x40 DUP2 SWAP1 MSTORE PUSH2 0x3B SWAP2 PUSH2 0x6B JUMP JUMPDEST PUSH1 0x12 PUSH1 0x1 DUP2 SWAP1 SSTORE PUSH2 0x4D SWAP1 PUSH1 0xA PUSH2 0xC7 JUMP JUMPDEST PUSH2 0x57 SWAP1 DUP3 PUSH2 0x17D JUMP JUMPDEST PUSH1 0x0 SSTORE POP PUSH1 0x2 DUP1 SLOAD PUSH2 0xFFFF NOT AND SWAP1 SSTORE PUSH2 0x1B2 JUMP JUMPDEST PUSH1 0x0 PUSH1 0x20 DUP3 DUP5 SUB SLT ISZERO PUSH2 0x7D JUMPI PUSH1 0x0 DUP1 REVERT JUMPDEST POP MLOAD SWAP2 SWAP1 POP JUMP JUMPDEST PUSH1 0x1 DUP2 DUP2 JUMPDEST DUP1 DUP6 GT ISZERO PUSH2 0xBF JUMPI DUP2 PUSH1 0x0 NOT DIV DUP3 GT ISZERO PUSH2 0xA5 JUMPI PUSH2 0xA5 PUSH2 0x19C JUMP JUMPDEST DUP1 DUP6 AND ISZERO PUSH2 0xB2 JUMPI SWAP2 DUP2 MUL SWAP2 JUMPDEST SWAP4 DUP5 SHR SWAP4 SWAP1 DUP1 MUL SWAP1 PUSH2 0x89 JUMP JUMPDEST POP SWAP3 POP SWAP3 SWAP1 POP JUMP JUMPDEST PUSH1 0x0 PUSH2 0xD3 DUP4 DUP4 PUSH2 0xDA JUMP JUMPDEST SWAP4 SWAP3 POP POP POP JUMP JUMPDEST PUSH1 0x0 DUP3 PUSH2 0xE9 JUMPI POP PUSH1 0x1 PUSH2 0x177 JUMP JUMPDEST DUP2 PUSH2 0xF6 JUMPI POP PUSH1 0x0 PUSH2 0x177 JUMP JUMPDEST DUP2 PUSH1 0x1 DUP2 EQ PUSH2 0x10C JUMPI PUSH1 0x2 DUP2 EQ PUSH2 0x116 JUMPI PUSH2 0x132 JUMP JUMPDEST PUSH1 0x1 SWAP2 POP POP PUSH2 0x177 JUMP JUMPDEST PUSH1 0xFF DUP5 GT ISZERO PUSH2 0x127 JUMPI PUSH2 0x127 PUSH2 0x19C JUMP JUMPDEST POP POP PUSH1 0x1 DUP3 SHL PUSH2 0x177 JUMP JUMPDEST POP PUSH1 0x20 DUP4 LT PUSH2 0x133 DUP4 LT AND PUSH1 0x4E DUP5 LT PUSH1 0xB DUP5 LT AND OR ISZERO PUSH2 0x155 JUMPI POP DUP2 DUP2 EXP PUSH2 0x177 JUMP JUMPDEST PUSH2 0x15F DUP4 DUP4 PUSH2 0x84 JUMP JUMPDEST DUP1 PUSH1 0x0 NOT DIV DUP3 GT ISZERO PUSH2 0x173 JUMPI PUSH2 0x173 PUSH2 0x19C JUMP JUMPDEST MUL SWAP1 POP JUMPDEST SWAP3 SWAP2 POP POP JUMP JUMPDEST PUSH1 0x0 DUP2 PUSH1 0x0 NOT DIV DUP4 GT DUP3 ISZERO ISZERO AND ISZERO PUSH2 0x197 JUMPI PUSH2 0x197 PUSH2 0x19C JUMP JUMPDEST POP MUL SWAP1 JUMP JUMPDEST PUSH4 0x4E487B71 PUSH1 0xE0 SHL PUSH1 0x0 MSTORE PUSH1 0x11 PUSH1 0x4 MSTORE PUSH1 0x24 PUSH1 0x0 REVERT JUMPDEST PUSH2 0x4B6 DUP1 PUSH2 0x1C1 PUSH1 0x0 CODECOPY PUSH1 0x0 RETURN INVALID PUSH1 0x80 PUSH1 0x40 MSTORE CALLVALUE DUP1 ISZERO PUSH2 0x10 JUMPI PUSH1 0x0 DUP1 REVERT JUMPDEST POP PUSH1 0x4 CALLDATASIZE LT PUSH2 0x57 JUMPI PUSH1 0x0 CALLDATALOAD PUSH1 0xE0 SHR DUP1 PUSH4 0x131E2F18 EQ PUSH2 0x5C JUMPI DUP1 PUSH4 0x2C4E722E EQ PUSH2 0x81 JUMPI DUP1 PUSH4 0x84C6E2C8 EQ PUSH2 0x8A JUMPI DUP1 PUSH4 0x9F8AF9DD EQ PUSH2 0x94 JUMPI DUP1 PUSH4 0xEFFC1FE0 EQ PUSH2 0xA7 JUMPI JUMPDEST PUSH1 0x0 DUP1 REVERT JUMPDEST PUSH2 0x6F PUSH2 0x6A CALLDATASIZE PUSH1 0x4 PUSH2 0x2C8 JUMP JUMPDEST PUSH2 0xAF JUMP JUMPDEST PUSH1 0x40 MLOAD SWAP1 DUP2 MSTORE PUSH1 0x20 ADD PUSH1 0x40 MLOAD DUP1 SWAP2 SUB SWAP1 RETURN JUMPDEST PUSH2 0x6F PUSH1 0x0 SLOAD DUP2 JUMP JUMPDEST PUSH2 0x92 PUSH2 0xF4 JUMP JUMPDEST STOP JUMPDEST PUSH2 0x92 PUSH2 0xA2 CALLDATASIZE PUSH1 0x4 PUSH2 0x2E1 JUMP JUMPDEST PUSH2 0xFE JUMP JUMPDEST PUSH2 0x92 PUSH2 0x280 JUMP JUMPDEST PUSH1 0x0 PUSH1 0x1 SLOAD PUSH1 0xA PUSH2 0xC0 SWAP2 SWAP1 PUSH2 0x380 JUMP JUMPDEST PUSH1 0x64 PUSH1 0x0 SLOAD DUP5 PUSH2 0xD0 SWAP2 SWAP1 PUSH2 0x434 JUMP JUMPDEST PUSH2 0xDA SWAP2 SWAP1 PUSH2 0x31B JUMP JUMPDEST PUSH2 0xE4 SWAP2 SWAP1 PUSH2 0x31B JUMP JUMPDEST PUSH2 0xEE SWAP1 DUP4 PUSH2 0x303 JUMP JUMPDEST SWAP3 SWAP2 POP POP JUMP JUMPDEST PUSH2 0xFC PUSH2 0x2A8 JUMP JUMPDEST JUMP JUMPDEST PUSH1 0x2 SLOAD PUSH1 0xFF AND ISZERO PUSH2 0x148 JUMPI PUSH1 0x40 MLOAD PUSH3 0x461BCD PUSH1 0xE5 SHL DUP2 MSTORE PUSH1 0x20 PUSH1 0x4 DUP3 ADD MSTORE PUSH1 0x10 PUSH1 0x24 DUP3 ADD MSTORE PUSH16 0x105B1C9958591E48195E1958DD5D1959 PUSH1 0x82 SHL PUSH1 0x44 DUP3 ADD MSTORE PUSH1 0x64 ADD PUSH1 0x40 MLOAD DUP1 SWAP2 SUB SWAP1 REVERT JUMPDEST PUSH1 0x0 PUSH1 0x1 SLOAD PUSH1 0xA PUSH2 0x159 SWAP2 SWAP1 PUSH2 0x380 JUMP JUMPDEST PUSH2 0x163 SWAP1 DUP5 PUSH2 0x434 JUMP JUMPDEST SWAP1 POP PUSH1 0x0 PUSH2 0x171 DUP4 DUP4 PUSH2 0x31B JUMP JUMPDEST SWAP1 POP DUP1 PUSH1 0x3 SLOAD GT PUSH2 0x1C4 JUMPI PUSH1 0x3 SLOAD PUSH2 0x189 SWAP1 DUP3 PUSH2 0x453 JUMP JUMPDEST PUSH1 0x0 DUP1 DUP3 DUP3 SLOAD PUSH2 0x199 SWAP2 SWAP1 PUSH2 0x303 JUMP JUMPDEST SWAP1 SWAP2 SSTORE POP POP PUSH1 0x0 SLOAD PUSH9 0x56BC75E2D63100000 LT ISZERO PUSH2 0x1BF JUMPI PUSH9 0x56BC75E2D63100000 PUSH1 0x0 SSTORE JUMPDEST PUSH2 0x26D JUMP JUMPDEST PUSH1 0x0 PUSH1 0x1 SLOAD PUSH1 0xA PUSH2 0x1D5 SWAP2 SWAP1 PUSH2 0x380 JUMP JUMPDEST PUSH2 0x1E0 SWAP1 PUSH1 0x2 PUSH2 0x434 JUMP JUMPDEST SWAP1 POP PUSH1 0x0 DUP6 DUP6 PUSH1 0x3 SLOAD PUSH2 0x1F3 SWAP2 SWAP1 PUSH2 0x434 JUMP JUMPDEST PUSH2 0x1FD SWAP2 SWAP1 PUSH2 0x31B JUMP JUMPDEST SWAP1 POP DUP2 DUP2 GT ISZERO PUSH2 0x218 JUMPI PUSH8 0x29A2241AF62C0000 PUSH1 0x0 SSTORE PUSH2 0x24B JUMP JUMPDEST PUSH1 0x1 SLOAD PUSH2 0x226 SWAP1 PUSH1 0xA PUSH2 0x380 JUMP JUMPDEST PUSH2 0x230 DUP3 DUP5 PUSH2 0x453 JUMP JUMPDEST PUSH1 0x0 SLOAD PUSH2 0x23D SWAP2 SWAP1 PUSH2 0x434 JUMP JUMPDEST PUSH2 0x247 SWAP2 SWAP1 PUSH2 0x31B JUMP JUMPDEST PUSH1 0x0 SSTORE JUMPDEST PUSH8 0x29A2241AF62C0000 PUSH1 0x0 SLOAD LT ISZERO PUSH2 0x26A JUMPI PUSH8 0x29A2241AF62C0000 PUSH1 0x0 SSTORE JUMPDEST POP POP JUMPDEST POP POP PUSH1 0x2 DUP1 SLOAD PUSH1 0xFF NOT AND PUSH1 0x1 OR SWAP1 SSTORE POP POP JUMP JUMPDEST PUSH1 0x2 SLOAD PUSH2 0x100 SWAP1 DIV PUSH1 0xFF AND PUSH2 0xFC JUMPI PUSH2 0x297 PUSH2 0x2A8 JUMP JUMPDEST PUSH1 0x2 DUP1 SLOAD PUSH2 0xFF00 NOT AND PUSH2 0x100 OR SWAP1 SSTORE JUMP JUMPDEST PUSH1 0x8 PUSH1 0x0 SLOAD PUSH1 0x7 PUSH2 0x2B9 SWAP2 SWAP1 PUSH2 0x434 JUMP JUMPDEST PUSH2 0x2C3 SWAP2 SWAP1 PUSH2 0x31B JUMP JUMPDEST PUSH1 0x0 SSTORE JUMP JUMPDEST PUSH1 0x0 PUSH1 0x20 DUP3 DUP5 SUB SLT ISZERO PUSH2 0x2DA JUMPI PUSH1 0x0 DUP1 REVERT JUMPDEST POP CALLDATALOAD SWAP2 SWAP1 POP JUMP JUMPDEST PUSH1 0x0 DUP1 PUSH1 0x40 DUP4 DUP6 SUB SLT ISZERO PUSH2 0x2F4 JUMPI PUSH1 0x0 DUP1 REVERT JUMPDEST POP POP DUP1 CALLDATALOAD SWAP3 PUSH1 0x20 SWAP1 SWAP2 ADD CALLDATALOAD SWAP2 POP JUMP JUMPDEST PUSH1 0x0 DUP3 NOT DUP3 GT ISZERO PUSH2 0x316 JUMPI PUSH2 0x316 PUSH2 0x46A JUMP JUMPDEST POP ADD SWAP1 JUMP JUMPDEST PUSH1 0x0 DUP3 PUSH2 0x338 JUMPI PUSH4 0x4E487B71 PUSH1 0xE0 SHL PUSH1 0x0 MSTORE PUSH1 0x12 PUSH1 0x4 MSTORE PUSH1 0x24 PUSH1 0x0 REVERT JUMPDEST POP DIV SWAP1 JUMP JUMPDEST PUSH1 0x1 DUP2 DUP2 JUMPDEST DUP1 DUP6 GT ISZERO PUSH2 0x378 JUMPI DUP2 PUSH1 0x0 NOT DIV DUP3 GT ISZERO PUSH2 0x35E JUMPI PUSH2 0x35E PUSH2 0x46A JUMP JUMPDEST DUP1 DUP6 AND ISZERO PUSH2 0x36B JUMPI SWAP2 DUP2 MUL SWAP2 JUMPDEST SWAP4 DUP5 SHR SWAP4 SWAP1 DUP1 MUL SWAP1 PUSH2 0x342 JUMP JUMPDEST POP SWAP3 POP SWAP3 SWAP1 POP JUMP JUMPDEST PUSH1 0x0 PUSH2 0x38C DUP4 DUP4 PUSH2 0x393 JUMP JUMPDEST SWAP4 SWAP3 POP POP POP JUMP JUMPDEST PUSH1 0x0 DUP3 PUSH2 0x3A2 JUMPI POP PUSH1 0x1 PUSH2 0xEE JUMP JUMPDEST DUP2 PUSH2 0x3AF JUMPI POP PUSH1 0x0 PUSH2 0xEE JUMP JUMPDEST DUP2 PUSH1 0x1 DUP2 EQ PUSH2 0x3C5 JUMPI PUSH1 0x2 DUP2 EQ PUSH2 0x3CF JUMPI PUSH2 0x3EB JUMP JUMPDEST PUSH1 0x1 SWAP2 POP POP PUSH2 0xEE JUMP JUMPDEST PUSH1 0xFF DUP5 GT ISZERO PUSH2 0x3E0 JUMPI PUSH2 0x3E0 PUSH2 0x46A JUMP JUMPDEST POP POP PUSH1 0x1 DUP3 SHL PUSH2 0xEE JUMP JUMPDEST POP PUSH1 0x20 DUP4 LT PUSH2 0x133 DUP4 LT AND PUSH1 0x4E DUP5 LT PUSH1 0xB DUP5 LT AND OR ISZERO PUSH2 0x40E JUMPI POP DUP2 DUP2 EXP PUSH2 0xEE JUMP JUMPDEST PUSH2 0x418 DUP4 DUP4 PUSH2 0x33D JUMP JUMPDEST DUP1 PUSH1 0x0 NOT DIV DUP3 GT ISZERO PUSH2 0x42C JUMPI PUSH2 0x42C PUSH2 0x46A JUMP JUMPDEST MUL SWAP4 SWAP3 POP POP POP JUMP JUMPDEST PUSH1 0x0 DUP2 PUSH1 0x0 NOT DIV DUP4 GT DUP3 ISZERO ISZERO AND ISZERO PUSH2 0x44E JUMPI PUSH2 0x44E PUSH2 0x46A JUMP JUMPDEST POP MUL SWAP1 JUMP JUMPDEST PUSH1 0x0 DUP3 DUP3 LT ISZERO PUSH2 0x465 JUMPI PUSH2 0x465 PUSH2 0x46A JUMP JUMPDEST POP SUB SWAP1 JUMP JUMPDEST PUSH4 0x4E487B71 PUSH1 0xE0 SHL PUSH1 0x0 MSTORE PUSH1 0x11 PUSH1 0x4 MSTORE PUSH1 0x24 PUSH1 0x0 REVERT INVALID LOG2 PUSH5 0x6970667358 0x22 SLT KECCAK256 0x4F 0xB7 CODECOPY 0xB1 0xB4 0xE2 NOT 0xE1 TIMESTAMP CALLDATASIZE SELFDESTRUCT 0xFC CODECOPY MSTORE8 AND 0xE MSTORE8 0xB2 0xE3 LT 0xC5 DUP4 EXTCODEHASH 0xB2 0xDB 0xB8 PUSH27 0x2077C502BB64736F6C634300080700330000000000000000000000 "
		},
		"gasEstimates": {
			"creation": {
				"codeDepositCost": "4369000",
				"executionCost": "infinite",
				"totalCost": "infinite"
			},
			"external": {
				"DOCdeny()": "infinite",
				"DOCgetHash()": "infinite",
				"DOCgetURL()": "infinite",
				"DOCnewFile(string,uint256,uint256)": "infinite",
				"DOCsetHash(string)": "infinite",
				"DOCsetURL(string)": "infinite",
				"DOCvalidate()": "infinite",
				"ETHbalance(address)": "3074",
				"ETHmybalance()": "2848",
				"FINarbit()": "infinite",
				"FINgetProfit()": "infinite",
				"INTrate()": "infinite",
				"LP()": "2438",
				"LPbuyERC()": "infinite",
				"LPbuyETH(uint256)": "infinite",
				"LPdeposit()": "infinite",
				"LPether()": "infinite",
				"LPgetLiquidity(uint256)": "infinite",
				"LPliquidity()": "infinite",
				"LPtokens()": "infinite",
				"TFAbalance(address)": "infinite",
				"TFAmybalance()": "infinite",
				"TFAsupply()": "infinite",
				"collateral()": "2384",
				"expDays()": "2339",
				"intFee()": "2373",
				"restart()": "infinite",
				"start(uint256)": "infinite",
				"tokenitzacio()": "2416",
				"tokensInit()": "2406",
				"value()": "2341",
				"verificador()": "2372"
			},
			"internal": {
				"date(uint256)": "198",
				"tokenAmount(uint256)": "infinite"
			}
		},
		"methodIdentifiers": {
			"DOCdeny()": "bdffc3be",
			"DOCgetHash()": "270d3bc0",
			"DOCgetURL()": "40c1b5dd",
			"DOCnewFile(string,uint256,uint256)": "3f579431",
			"DOCsetHash(string)": "d782d3c3",
			"DOCsetURL(string)": "31e788ff",
			"DOCvalidate()": "59ee2dfd",
			"ETHbalance(address)": "4e504747",
			"ETHmybalance()": "324d9ebc",
			"FINarbit()": "f600584a",
			"FINgetProfit()": "32393153",
			"INTrate()": "bdbe0f66",
			"LP()": "b6fccf8a",
			"LPbuyERC()": "f61a2249",
			"LPbuyETH(uint256)": "5acb25dc",
			"LPdeposit()": "b87265e7",
			"LPether()": "ec28d2d4",
			"LPgetLiquidity(uint256)": "59ccef72",
			"LPliquidity()": "de34a245",
			"LPtokens()": "5f646a83",
			"TFAbalance(address)": "417e4e68",
			"TFAmybalance()": "b41f7381",
			"TFAsupply()": "d7a8f6aa",
			"collateral()": "d8dfeb45",
			"expDays()": "e19752c8",
			"intFee()": "16c6a792",
			"restart()": "1ef3755d",
			"start(uint256)": "95805dad",
			"tokenitzacio()": "38109dcf",
			"tokensInit()": "caf2cfab",
			"value()": "3fa4f245",
			"verificador()": "7eebe5c2"
		}
	},
	"abi": [
		{
			"inputs": [],
			"stateMutability": "nonpayable",
			"type": "constructor"
		},
		{
			"anonymous": false,
			"inputs": [
				{
					"indexed": false,
					"internalType": "uint256",
					"name": "payed",
					"type": "uint256"
				},
				{
					"indexed": false,
					"internalType": "uint256",
					"name": "tokens_received",
					"type": "uint256"
				}
			],
			"name": "BuyERC",
			"type": "event"
		},
		{
			"anonymous": false,
			"inputs": [
				{
					"indexed": false,
					"internalType": "uint256",
					"name": "payed",
					"type": "uint256"
				},
				{
					"indexed": false,
					"internalType": "uint256",
					"name": "tokens_received",
					"type": "uint256"
				}
			],
			"name": "BuyETH",
			"type": "event"
		},
		{
			"anonymous": false,
			"inputs": [
				{
					"indexed": true,
					"internalType": "address",
					"name": "denegator",
					"type": "address"
				},
				{
					"indexed": false,
					"internalType": "string",
					"name": "asset",
					"type": "string"
				}
			],
			"name": "DOCDenegated",
			"type": "event"
		},
		{
			"anonymous": false,
			"inputs": [
				{
					"indexed": true,
					"internalType": "address",
					"name": "validator",
					"type": "address"
				},
				{
					"indexed": false,
					"internalType": "string",
					"name": "asset",
					"type": "string"
				}
			],
			"name": "DOCValidated",
			"type": "event"
		},
		{
			"anonymous": false,
			"inputs": [
				{
					"indexed": false,
					"internalType": "uint256",
					"name": "liquidity",
					"type": "uint256"
				}
			],
			"name": "DepositLP",
			"type": "event"
		},
		{
			"anonymous": false,
			"inputs": [
				{
					"indexed": true,
					"internalType": "address",
					"name": "owner",
					"type": "address"
				},
				{
					"indexed": false,
					"internalType": "string",
					"name": "filename",
					"type": "string"
				},
				{
					"indexed": false,
					"internalType": "uint256",
					"name": "value",
					"type": "uint256"
				},
				{
					"indexed": false,
					"internalType": "uint256",
					"name": "daysRemaining",
					"type": "uint256"
				}
			],
			"name": "NewDocument",
			"type": "event"
		},
		{
			"anonymous": false,
			"inputs": [
				{
					"indexed": false,
					"internalType": "uint256",
					"name": "assetX",
					"type": "uint256"
				},
				{
					"indexed": false,
					"internalType": "uint256",
					"name": "assetY",
					"type": "uint256"
				}
			],
			"name": "StartLP",
			"type": "event"
		},
		{
			"anonymous": false,
			"inputs": [
				{
					"indexed": false,
					"internalType": "uint256",
					"name": "eth_received",
					"type": "uint256"
				},
				{
					"indexed": false,
					"internalType": "uint256",
					"name": "tokens_received",
					"type": "uint256"
				}
			],
			"name": "WithdrawLP",
			"type": "event"
		},
		{
			"inputs": [],
			"name": "DOCdeny",
			"outputs": [],
			"stateMutability": "nonpayable",
			"type": "function"
		},
		{
			"inputs": [],
			"name": "DOCgetHash",
			"outputs": [
				{
					"internalType": "string",
					"name": "",
					"type": "string"
				}
			],
			"stateMutability": "view",
			"type": "function"
		},
		{
			"inputs": [],
			"name": "DOCgetURL",
			"outputs": [
				{
					"internalType": "string",
					"name": "",
					"type": "string"
				}
			],
			"stateMutability": "view",
			"type": "function"
		},
		{
			"inputs": [
				{
					"internalType": "string",
					"name": "_filename",
					"type": "string"
				},
				{
					"internalType": "uint256",
					"name": "_value",
					"type": "uint256"
				},
				{
					"internalType": "uint256",
					"name": "_days",
					"type": "uint256"
				}
			],
			"name": "DOCnewFile",
			"outputs": [],
			"stateMutability": "nonpayable",
			"type": "function"
		},
		{
			"inputs": [
				{
					"internalType": "string",
					"name": "hash",
					"type": "string"
				}
			],
			"name": "DOCsetHash",
			"outputs": [],
			"stateMutability": "nonpayable",
			"type": "function"
		},
		{
			"inputs": [
				{
					"internalType": "string",
					"name": "link",
					"type": "string"
				}
			],
			"name": "DOCsetURL",
			"outputs": [],
			"stateMutability": "nonpayable",
			"type": "function"
		},
		{
			"inputs": [],
			"name": "DOCvalidate",
			"outputs": [],
			"stateMutability": "nonpayable",
			"type": "function"
		},
		{
			"inputs": [
				{
					"internalType": "address",
					"name": "account",
					"type": "address"
				}
			],
			"name": "ETHbalance",
			"outputs": [
				{
					"internalType": "uint256",
					"name": "",
					"type": "uint256"
				}
			],
			"stateMutability": "view",
			"type": "function"
		},
		{
			"inputs": [],
			"name": "ETHmybalance",
			"outputs": [
				{
					"internalType": "uint256",
					"name": "",
					"type": "uint256"
				}
			],
			"stateMutability": "view",
			"type": "function"
		},
		{
			"inputs": [],
			"name": "FINarbit",
			"outputs": [],
			"stateMutability": "nonpayable",
			"type": "function"
		},
		{
			"inputs": [],
			"name": "FINgetProfit",
			"outputs": [],
			"stateMutability": "nonpayable",
			"type": "function"
		},
		{
			"inputs": [],
			"name": "INTrate",
			"outputs": [
				{
					"internalType": "uint256",
					"name": "",
					"type": "uint256"
				}
			],
			"stateMutability": "view",
			"type": "function"
		},
		{
			"inputs": [],
			"name": "LP",
			"outputs": [
				{
					"internalType": "contract DEX",
					"name": "",
					"type": "address"
				}
			],
			"stateMutability": "view",
			"type": "function"
		},
		{
			"inputs": [],
			"name": "LPbuyERC",
			"outputs": [],
			"stateMutability": "payable",
			"type": "function"
		},
		{
			"inputs": [
				{
					"internalType": "uint256",
					"name": "tokens",
					"type": "uint256"
				}
			],
			"name": "LPbuyETH",
			"outputs": [],
			"stateMutability": "nonpayable",
			"type": "function"
		},
		{
			"inputs": [],
			"name": "LPdeposit",
			"outputs": [],
			"stateMutability": "payable",
			"type": "function"
		},
		{
			"inputs": [],
			"name": "LPether",
			"outputs": [
				{
					"internalType": "uint256",
					"name": "",
					"type": "uint256"
				}
			],
			"stateMutability": "view",
			"type": "function"
		},
		{
			"inputs": [
				{
					"internalType": "uint256",
					"name": "liquid",
					"type": "uint256"
				}
			],
			"name": "LPgetLiquidity",
			"outputs": [],
			"stateMutability": "nonpayable",
			"type": "function"
		},
		{
			"inputs": [],
			"name": "LPliquidity",
			"outputs": [
				{
					"internalType": "uint256",
					"name": "",
					"type": "uint256"
				}
			],
			"stateMutability": "view",
			"type": "function"
		},
		{
			"inputs": [],
			"name": "LPtokens",
			"outputs": [
				{
					"internalType": "uint256",
					"name": "",
					"type": "uint256"
				}
			],
			"stateMutability": "view",
			"type": "function"
		},
		{
			"inputs": [
				{
					"internalType": "address",
					"name": "account",
					"type": "address"
				}
			],
			"name": "TFAbalance",
			"outputs": [
				{
					"internalType": "uint256",
					"name": "",
					"type": "uint256"
				}
			],
			"stateMutability": "view",
			"type": "function"
		},
		{
			"inputs": [],
			"name": "TFAmybalance",
			"outputs": [
				{
					"internalType": "uint256",
					"name": "",
					"type": "uint256"
				}
			],
			"stateMutability": "view",
			"type": "function"
		},
		{
			"inputs": [],
			"name": "TFAsupply",
			"outputs": [
				{
					"internalType": "uint256",
					"name": "",
					"type": "uint256"
				}
			],
			"stateMutability": "view",
			"type": "function"
		},
		{
			"inputs": [],
			"name": "collateral",
			"outputs": [
				{
					"internalType": "uint256",
					"name": "",
					"type": "uint256"
				}
			],
			"stateMutability": "view",
			"type": "function"
		},
		{
			"inputs": [],
			"name": "expDays",
			"outputs": [
				{
					"internalType": "uint256",
					"name": "",
					"type": "uint256"
				}
			],
			"stateMutability": "view",
			"type": "function"
		},
		{
			"inputs": [],
			"name": "intFee",
			"outputs": [
				{
					"internalType": "contract Interest",
					"name": "",
					"type": "address"
				}
			],
			"stateMutability": "view",
			"type": "function"
		},
		{
			"inputs": [],
			"name": "restart",
			"outputs": [],
			"stateMutability": "nonpayable",
			"type": "function"
		},
		{
			"inputs": [
				{
					"internalType": "uint256",
					"name": "quants_tokens",
					"type": "uint256"
				}
			],
			"name": "start",
			"outputs": [],
			"stateMutability": "payable",
			"type": "function"
		},
		{
			"inputs": [],
			"name": "tokenitzacio",
			"outputs": [
				{
					"internalType": "contract Tokfa",
					"name": "",
					"type": "address"
				}
			],
			"stateMutability": "view",
			"type": "function"
		},
		{
			"inputs": [],
			"name": "tokensInit",
			"outputs": [
				{
					"internalType": "uint256",
					"name": "",
					"type": "uint256"
				}
			],
			"stateMutability": "view",
			"type": "function"
		},
		{
			"inputs": [],
			"name": "value",
			"outputs": [
				{
					"internalType": "uint256",
					"name": "",
					"type": "uint256"
				}
			],
			"stateMutability": "view",
			"type": "function"
		},
		{
			"inputs": [],
			"name": "verificador",
			"outputs": [
				{
					"internalType": "contract Verificacio",
					"name": "",
					"type": "address"
				}
			],
			"stateMutability": "view",
			"type": "function"
		}
	]
}