{
  "contractName": "DEX",
  "abi": [
    {
      "inputs": [],
      "stateMutability": "nonpayable",
      "type": "constructor"
    },
    {
      "anonymous": false,
      "inputs": [
        {
          "indexed": false,
          "internalType": "uint256",
          "name": "_value",
          "type": "uint256"
        }
      ],
      "name": "Deposit",
      "type": "event"
    },
    {
      "anonymous": false,
      "inputs": [
        {
          "indexed": false,
          "internalType": "uint256",
          "name": "_value",
          "type": "uint256"
        }
      ],
      "name": "ETHSwapped",
      "type": "event"
    },
    {
      "anonymous": false,
      "inputs": [
        {
          "indexed": false,
          "internalType": "uint256",
          "name": "_value",
          "type": "uint256"
        }
      ],
      "name": "Initialize",
      "type": "event"
    },
    {
      "anonymous": false,
      "inputs": [
        {
          "indexed": false,
          "internalType": "uint256",
          "name": "_value",
          "type": "uint256"
        }
      ],
      "name": "TokensSwapped",
      "type": "event"
    },
    {
      "anonymous": false,
      "inputs": [
        {
          "indexed": false,
          "internalType": "uint256",
          "name": "_valueETH",
          "type": "uint256"
        },
        {
          "indexed": false,
          "internalType": "uint256",
          "name": "_valueToken",
          "type": "uint256"
        }
      ],
      "name": "Withdraw",
      "type": "event"
    },
    {
      "inputs": [],
      "name": "eth_received",
      "outputs": [
        {
          "internalType": "uint256",
          "name": "",
          "type": "uint256"
        }
      ],
      "stateMutability": "view",
      "type": "function"
    },
    {
      "inputs": [],
      "name": "fee",
      "outputs": [
        {
          "internalType": "uint256",
          "name": "",
          "type": "uint256"
        }
      ],
      "stateMutability": "view",
      "type": "function"
    },
    {
      "inputs": [
        {
          "internalType": "address",
          "name": "",
          "type": "address"
        }
      ],
      "name": "investors",
      "outputs": [
        {
          "internalType": "uint256",
          "name": "",
          "type": "uint256"
        }
      ],
      "stateMutability": "view",
      "type": "function"
    },
    {
      "inputs": [],
      "name": "liq_added",
      "outputs": [
        {
          "internalType": "uint256",
          "name": "",
          "type": "uint256"
        }
      ],
      "stateMutability": "view",
      "type": "function"
    },
    {
      "inputs": [
        {
          "internalType": "address",
          "name": "",
          "type": "address"
        }
      ],
      "name": "liquidity",
      "outputs": [
        {
          "internalType": "uint256",
          "name": "",
          "type": "uint256"
        }
      ],
      "stateMutability": "view",
      "type": "function"
    },
    {
      "inputs": [],
      "name": "tokens_received",
      "outputs": [
        {
          "internalType": "uint256",
          "name": "",
          "type": "uint256"
        }
      ],
      "stateMutability": "view",
      "type": "function"
    },
    {
      "inputs": [],
      "name": "total_liquidity",
      "outputs": [
        {
          "internalType": "uint256",
          "name": "",
          "type": "uint256"
        }
      ],
      "stateMutability": "view",
      "type": "function"
    },
    {
      "inputs": [
        {
          "internalType": "address",
          "name": "token_address",
          "type": "address"
        },
        {
          "internalType": "uint256",
          "name": "token_amount",
          "type": "uint256"
        }
      ],
      "name": "initialize",
      "outputs": [],
      "stateMutability": "payable",
      "type": "function"
    },
    {
      "inputs": [
        {
          "internalType": "uint256",
          "name": "eth",
          "type": "uint256"
        }
      ],
      "name": "priceERC",
      "outputs": [
        {
          "internalType": "uint256",
          "name": "",
          "type": "uint256"
        }
      ],
      "stateMutability": "view",
      "type": "function"
    },
    {
      "inputs": [
        {
          "internalType": "uint256",
          "name": "erc",
          "type": "uint256"
        }
      ],
      "name": "priceETH",
      "outputs": [
        {
          "internalType": "uint256",
          "name": "",
          "type": "uint256"
        }
      ],
      "stateMutability": "view",
      "type": "function"
    },
    {
      "inputs": [],
      "name": "ethToErc",
      "outputs": [],
      "stateMutability": "payable",
      "type": "function"
    },
    {
      "inputs": [
        {
          "internalType": "uint256",
          "name": "token_amount",
          "type": "uint256"
        }
      ],
      "name": "ercToEth",
      "outputs": [],
      "stateMutability": "nonpayable",
      "type": "function"
    },
    {
      "inputs": [],
      "name": "deposit",
      "outputs": [],
      "stateMutability": "payable",
      "type": "function"
    },
    {
      "inputs": [
        {
          "internalType": "uint256",
          "name": "eth",
          "type": "uint256"
        }
      ],
      "name": "liquidityAdded",
      "outputs": [
        {
          "internalType": "uint256",
          "name": "",
          "type": "uint256"
        },
        {
          "internalType": "uint256",
          "name": "",
          "type": "uint256"
        }
      ],
      "stateMutability": "view",
      "type": "function"
    },
    {
      "inputs": [
        {
          "internalType": "uint256",
          "name": "value",
          "type": "uint256"
        }
      ],
      "name": "withdraw",
      "outputs": [],
      "stateMutability": "nonpayable",
      "type": "function"
    },
    {
      "inputs": [
        {
          "internalType": "uint256",
          "name": "value",
          "type": "uint256"
        }
      ],
      "name": "liquiditySubstracted",
      "outputs": [
        {
          "internalType": "uint256",
          "name": "",
          "type": "uint256"
        },
        {
          "internalType": "uint256",
          "name": "",
          "type": "uint256"
        }
      ],
      "stateMutability": "view",
      "type": "function"
    },
    {
      "inputs": [],
      "name": "getTokenBalance",
      "outputs": [
        {
          "internalType": "uint256",
          "name": "",
          "type": "uint256"
        }
      ],
      "stateMutability": "view",
      "type": "function"
    },
    {
      "inputs": [],
      "name": "getBalance",
      "outputs": [
        {
          "internalType": "uint256",
          "name": "",
          "type": "uint256"
        }
      ],
      "stateMutability": "view",
      "type": "function"
    },
    {
      "inputs": [],
      "name": "distributeFee",
      "outputs": [],
      "stateMutability": "nonpayable",
      "type": "function"
    },
    {
      "inputs": [
        {
          "internalType": "address",
          "name": "who",
          "type": "address"
        }
      ],
      "name": "invested",
      "outputs": [
        {
          "internalType": "uint256",
          "name": "",
          "type": "uint256"
        }
      ],
      "stateMutability": "view",
      "type": "function"
    }
  ],
  "bytecode": "0x608060405234801561001057600080fd5b5032600260006101000a81548173ffffffffffffffffffffffffffffffffffffffff021916908373ffffffffffffffffffffffffffffffffffffffff160217905550611a01806100616000396000f3fe60806040526004361061011f5760003560e01c806372a9d124116100a0578063b8c876b111610064578063b8c876b1146103e0578063cd6dc6871461041d578063d0e30db014610439578063ddca3f4314610443578063debc674c1461046e5761011f565b806372a9d1241461031857806374942c0f146103555780637937c03d1461038057806382b2e2571461038a5780638666107c146103b55761011f565b80635f244d4e116100e75780635f244d4e146101f857806366b3f6bf1461023657806367da263d146102735780636f7bc9be146102b0578063707e7e87146102ed5761011f565b806312065fe0146101245780631eb928aa1461014f57806326c4e60d1461018d5780632e1a7d4d146101a457806331f3bd28146101cd575b600080fd5b34801561013057600080fd5b50610139610497565b60405161014691906114f7565b60405180910390f35b34801561015b57600080fd5b5061017660048036038101906101719190611543565b61049f565b604051610184929190611570565b60405180910390f35b34801561019957600080fd5b506101a2610582565b005b3480156101b057600080fd5b506101cb60048036038101906101c69190611543565b610651565b005b3480156101d957600080fd5b506101e26108dd565b6040516101ef91906114f7565b60405180910390f35b34801561020457600080fd5b5061021f600480360381019061021a9190611543565b6108e3565b60405161022d929190611570565b60405180910390f35b34801561024257600080fd5b5061025d600480360381019061025891906115f7565b6109c4565b60405161026a91906114f7565b60405180910390f35b34801561027f57600080fd5b5061029a60048036038101906102959190611543565b610a0d565b6040516102a791906114f7565b60405180910390f35b3480156102bc57600080fd5b506102d760048036038101906102d291906115f7565b610aba565b6040516102e491906114f7565b60405180910390f35b3480156102f957600080fd5b50610302610ad2565b60405161030f91906114f7565b60405180910390f35b34801561032457600080fd5b5061033f600480360381019061033a9190611543565b610ad8565b60405161034c91906114f7565b60405180910390f35b34801561036157600080fd5b5061036a610b90565b60405161037791906114f7565b60405180910390f35b610388610b96565b005b34801561039657600080fd5b5061039f610da0565b6040516103ac91906114f7565b60405180910390f35b3480156103c157600080fd5b506103ca610e42565b6040516103d791906114f7565b60405180910390f35b3480156103ec57600080fd5b50610407600480360381019061040291906115f7565b610e48565b60405161041491906114f7565b60405180910390f35b61043760048036038101906104329190611624565b610e60565b005b610441611004565b005b34801561044f57600080fd5b50610458611252565b60405161046591906114f7565b60405180910390f35b34801561047a57600080fd5b5061049560048036038101906104909190611543565b611258565b005b600047905090565b600080600060015447856104b39190611693565b6104bd919061171c565b9050600060015460008054906101000a900473ffffffffffffffffffffffffffffffffffffffff1673ffffffffffffffffffffffffffffffffffffffff166370a08231306040518263ffffffff1660e01b815260040161051d919061175c565b602060405180830381865afa15801561053a573d6000803e3d6000fd5b505050506040513d601f19601f8201168201806040525081019061055e919061178c565b866105699190611693565b610573919061171c565b90508181935093505050915091565b60006103e8600380546105959190611693565b61059f919061171c565b905060003273ffffffffffffffffffffffffffffffffffffffff16826040516105c7906117ea565b60006040518083038185875af1925050503d8060008114610604576040519150601f19603f3d011682016040523d82523d6000602084013e610609565b606091505b505090508061064d576040517f08c379a00000000000000000000000000000000000000000000000000000000081526004016106449061185c565b60405180910390fd5b5050565b600060015447836106629190611693565b61066c919061171c565b9050600060015460008054906101000a900473ffffffffffffffffffffffffffffffffffffffff1673ffffffffffffffffffffffffffffffffffffffff166370a08231306040518263ffffffff1660e01b81526004016106cc919061175c565b602060405180830381865afa1580156106e9573d6000803e3d6000fd5b505050506040513d601f19601f8201168201806040525081019061070d919061178c565b846107189190611693565b610722919061171c565b90508160016000828254610736919061187c565b9250508190555060003273ffffffffffffffffffffffffffffffffffffffff1683604051610763906117ea565b60006040518083038185875af1925050503d80600081146107a0576040519150601f19603f3d011682016040523d82523d6000602084013e6107a5565b606091505b50509050806107e9576040517f08c379a00000000000000000000000000000000000000000000000000000000081526004016107e09061185c565b60405180910390fd5b60008054906101000a900473ffffffffffffffffffffffffffffffffffffffff1673ffffffffffffffffffffffffffffffffffffffff1663a9059cbb32846040518363ffffffff1660e01b81526004016108449291906118b0565b6020604051808303816000875af1158015610863573d6000803e3d6000fd5b505050506040513d601f19601f820116820180604052508101906108879190611911565b61089057600080fd5b7f56ca301a9219608c91e7bcee90e083c19671d2cdcc96752c7af291cee5f9c8c883836040516108c1929190611570565b60405180910390a1826007819055508160068190555050505050565b60015481565b60008060004760008054906101000a900473ffffffffffffffffffffffffffffffffffffffff1673ffffffffffffffffffffffffffffffffffffffff166370a08231306040518263ffffffff1660e01b8152600401610942919061175c565b602060405180830381865afa15801561095f573d6000803e3d6000fd5b505050506040513d601f19601f82011682018060405250810190610983919061178c565b8561098e9190611693565b610998919061171c565b9050600047600154866109ab9190611693565b6109b5919061171c565b90508181935093505050915091565b6000600460008373ffffffffffffffffffffffffffffffffffffffff1673ffffffffffffffffffffffffffffffffffffffff168152602001908152602001600020549050919050565b6000610ab38260008054906101000a900473ffffffffffffffffffffffffffffffffffffffff1673ffffffffffffffffffffffffffffffffffffffff166370a08231306040518263ffffffff1660e01b8152600401610a6c919061175c565b602060405180830381865afa158015610a89573d6000803e3d6000fd5b505050506040513d601f19601f82011682018060405250810190610aad919061178c565b476114b1565b9050919050565b60046020528060005260406000206000915090505481565b60085481565b6000610b89828347610aea919061187c565b60008054906101000a900473ffffffffffffffffffffffffffffffffffffffff1673ffffffffffffffffffffffffffffffffffffffff166370a08231306040518263ffffffff1660e01b8152600401610b43919061175c565b602060405180830381865afa158015610b60573d6000803e3d6000fd5b505050506040513d601f19601f82011682018060405250810190610b84919061178c565b6114b1565b9050919050565b60065481565b6000610c47343447610ba8919061187c565b60008054906101000a900473ffffffffffffffffffffffffffffffffffffffff1673ffffffffffffffffffffffffffffffffffffffff166370a08231306040518263ffffffff1660e01b8152600401610c01919061175c565b602060405180830381865afa158015610c1e573d6000803e3d6000fd5b505050506040513d601f19601f82011682018060405250810190610c42919061178c565b6114b1565b905060008054906101000a900473ffffffffffffffffffffffffffffffffffffffff1673ffffffffffffffffffffffffffffffffffffffff1663a9059cbb32836040518363ffffffff1660e01b8152600401610ca49291906118b0565b6020604051808303816000875af1158015610cc3573d6000803e3d6000fd5b505050506040513d601f19601f82011682018060405250810190610ce79190611911565b610cf057600080fd5b3460036000828254610d02919061193e565b9250508190555034600460003273ffffffffffffffffffffffffffffffffffffffff1673ffffffffffffffffffffffffffffffffffffffff1681526020019081526020016000206000828254610d58919061193e565b92505081905550806006819055507fdb04c7a6d4758fd55d738ebc67e7f3010ac922be00771ef29521a4090d1eb13f81604051610d9591906114f7565b60405180910390a150565b60008060009054906101000a900473ffffffffffffffffffffffffffffffffffffffff1673ffffffffffffffffffffffffffffffffffffffff166370a08231306040518263ffffffff1660e01b8152600401610dfc919061175c565b602060405180830381865afa158015610e19573d6000803e3d6000fd5b505050506040513d601f19601f82011682018060405250810190610e3d919061178c565b905090565b60075481565b60056020528060005260406000206000915090505481565b600060015414610e6f57600080fd5b60008111610e7c57600080fd5b60003411610e8957600080fd5b6000600381905550816000806101000a81548173ffffffffffffffffffffffffffffffffffffffff021916908373ffffffffffffffffffffffffffffffffffffffff16021790555047600181905550600154600560003273ffffffffffffffffffffffffffffffffffffffff1673ffffffffffffffffffffffffffffffffffffffff1681526020019081526020016000208190555060008054906101000a900473ffffffffffffffffffffffffffffffffffffffff1673ffffffffffffffffffffffffffffffffffffffff166323b872dd3230846040518463ffffffff1660e01b8152600401610f7b93929190611994565b6020604051808303816000875af1158015610f9a573d6000803e3d6000fd5b505050506040513d601f19601f82011682018060405250810190610fbe9190611911565b610fc757600080fd5b7fc43e48cf47e9fa186d0f4096c61d1fcb54159799f935a2aa32e5589688ee36e1600154604051610ff891906114f7565b60405180910390a15050565b6000341161101157600080fd5b6000344761101f919061187c565b60008054906101000a900473ffffffffffffffffffffffffffffffffffffffff1673ffffffffffffffffffffffffffffffffffffffff166370a08231306040518263ffffffff1660e01b8152600401611078919061175c565b602060405180830381865afa158015611095573d6000803e3d6000fd5b505050506040513d601f19601f820116820180604052508101906110b9919061178c565b346110c49190611693565b6110ce919061171c565b9050600034476110de919061187c565b600154346110ec9190611693565b6110f6919061171c565b905080600560003273ffffffffffffffffffffffffffffffffffffffff1673ffffffffffffffffffffffffffffffffffffffff1681526020019081526020016000206000828254611147919061193e565b925050819055508060016000828254611160919061193e565b9250508190555060008054906101000a900473ffffffffffffffffffffffffffffffffffffffff1673ffffffffffffffffffffffffffffffffffffffff166323b872dd3230856040518463ffffffff1660e01b81526004016111c493929190611994565b6020604051808303816000875af11580156111e3573d6000803e3d6000fd5b505050506040513d601f19601f820116820180604052508101906112079190611911565b61121057600080fd5b7f4d6ce1e535dbade1c23defba91e23b8f791ce5edc0cc320257a2b364e4e384268160405161123f91906114f7565b60405180910390a1806008819055505050565b60035481565b60006112fe8260008054906101000a900473ffffffffffffffffffffffffffffffffffffffff1673ffffffffffffffffffffffffffffffffffffffff166370a08231306040518263ffffffff1660e01b81526004016112b7919061175c565b602060405180830381865afa1580156112d4573d6000803e3d6000fd5b505050506040513d601f19601f820116820180604052508101906112f8919061178c565b476114b1565b905060003273ffffffffffffffffffffffffffffffffffffffff1682604051611326906117ea565b60006040518083038185875af1925050503d8060008114611363576040519150601f19603f3d011682016040523d82523d6000602084013e611368565b606091505b50509050806113ac576040517f08c379a00000000000000000000000000000000000000000000000000000000081526004016113a39061185c565b60405180910390fd5b60008054906101000a900473ffffffffffffffffffffffffffffffffffffffff1673ffffffffffffffffffffffffffffffffffffffff166323b872dd3230866040518463ffffffff1660e01b815260040161140993929190611994565b6020604051808303816000875af1158015611428573d6000803e3d6000fd5b505050506040513d601f19601f8201168201806040525081019061144c9190611911565b61145557600080fd5b8160036000828254611467919061193e565b925050819055507f4dbf3a71a7c7262f432c2cad7808225832255d07f7d8ab85117677c0b5c0a8508260405161149d91906114f7565b60405180910390a181600781905550505050565b600083836114bf919061193e565b82856114cb9190611693565b6114d5919061171c565b90509392505050565b6000819050919050565b6114f1816114de565b82525050565b600060208201905061150c60008301846114e8565b92915050565b600080fd5b611520816114de565b811461152b57600080fd5b50565b60008135905061153d81611517565b92915050565b60006020828403121561155957611558611512565b5b60006115678482850161152e565b91505092915050565b600060408201905061158560008301856114e8565b61159260208301846114e8565b9392505050565b600073ffffffffffffffffffffffffffffffffffffffff82169050919050565b60006115c482611599565b9050919050565b6115d4816115b9565b81146115df57600080fd5b50565b6000813590506115f1816115cb565b92915050565b60006020828403121561160d5761160c611512565b5b600061161b848285016115e2565b91505092915050565b6000806040838503121561163b5761163a611512565b5b6000611649858286016115e2565b925050602061165a8582860161152e565b9150509250929050565b7f4e487b7100000000000000000000000000000000000000000000000000000000600052601160045260246000fd5b600061169e826114de565b91506116a9836114de565b9250817fffffffffffffffffffffffffffffffffffffffffffffffffffffffffffffffff04831182151516156116e2576116e1611664565b5b828202905092915050565b7f4e487b7100000000000000000000000000000000000000000000000000000000600052601260045260246000fd5b6000611727826114de565b9150611732836114de565b925082611742576117416116ed565b5b828204905092915050565b611756816115b9565b82525050565b6000602082019050611771600083018461174d565b92915050565b60008151905061178681611517565b92915050565b6000602082840312156117a2576117a1611512565b5b60006117b084828501611777565b91505092915050565b600081905092915050565b50565b60006117d46000836117b9565b91506117df826117c4565b600082019050919050565b60006117f5826117c7565b9150819050919050565b600082825260208201905092915050565b7f5472616e73666572206661696c65642e00000000000000000000000000000000600082015250565b60006118466010836117ff565b915061185182611810565b602082019050919050565b6000602082019050818103600083015261187581611839565b9050919050565b6000611887826114de565b9150611892836114de565b9250828210156118a5576118a4611664565b5b828203905092915050565b60006040820190506118c5600083018561174d565b6118d260208301846114e8565b9392505050565b60008115159050919050565b6118ee816118d9565b81146118f957600080fd5b50565b60008151905061190b816118e5565b92915050565b60006020828403121561192757611926611512565b5b6000611935848285016118fc565b91505092915050565b6000611949826114de565b9150611954836114de565b9250827fffffffffffffffffffffffffffffffffffffffffffffffffffffffffffffffff0382111561198957611988611664565b5b828201905092915050565b60006060820190506119a9600083018661174d565b6119b6602083018561174d565b6119c360408301846114e8565b94935050505056fea264697066735822122033984b838cfb5aca586383d55ac0fe74d7861fb034da80cd8e5ed2a57d6a63d764736f6c634300080f0033",
  "immutableReferences": {},
  "source": "// SPDX-License-Identifier: GPL-3.0\r\n\r\npragma solidity >=0.7.0 <0.9.0;\r\n\r\nimport \"@openzeppelin/contracts/token/ERC20/ERC20.sol\";\r\n\r\ncontract DEX {\r\n\r\n        IERC20 tokenERC;\r\n\r\n        uint256 public total_liquidity;\r\n        \r\n        //FEE - Profits for deployer\r\n        address private deployer;\r\n        uint256 public fee;\r\n\r\n        //Investors\r\n        mapping(address => uint256) public investors;\r\n\r\n        //LP Providers\r\n        mapping (address => uint256) public liquidity;\r\n\r\n        event Initialize (uint256 _value);\r\n        event TokensSwapped (uint256 _value);\r\n        event ETHSwapped (uint256 _value);\r\n        event Deposit (uint256 _value);\r\n        event Withdraw (uint256 _valueETH, uint256 _valueToken);\r\n\r\n        //EVENT VARIABLEs\r\n\r\n        uint256 public tokens_received;\r\n        uint256 public eth_received;\r\n        uint256 public liq_added;\r\n\r\n        constructor(){\r\n                deployer = tx.origin;\r\n        }\r\n\r\n        function initialize(address token_address, uint256 token_amount) external payable {\r\n                require(total_liquidity == 0);\r\n                require(token_amount > 0);\r\n                require(msg.value > 0);\r\n\r\n                fee = 0;\r\n                tokenERC = IERC20(token_address);\r\n                \r\n                total_liquidity = address(this).balance;\r\n                liquidity[tx.origin] = total_liquidity;          \r\n\r\n                \r\n                require(tokenERC.transferFrom(tx.origin, address(this), token_amount));\r\n\r\n                emit Initialize(total_liquidity);\r\n        }\r\n\r\n        function calculatePrice(uint256 input_value, uint256 input_pool, uint256 output_pool) internal pure returns (uint256) {\r\n                return (input_value * output_pool) / (input_pool + input_value);\r\n        }\r\n\r\n\r\n        function priceERC(uint256 eth) external view returns(uint256){\r\n                return calculatePrice(eth, (address(this).balance - eth), tokenERC.balanceOf(address(this)));\r\n        }\r\n\r\n        function priceETH(uint256 erc) external view returns(uint256){\r\n                return calculatePrice(erc, tokenERC.balanceOf(address(this)), address(this).balance);\r\n        }\r\n\r\n        function ethToErc() external payable {\r\n                uint256 tokens_swapped = calculatePrice(msg.value, (address(this).balance - msg.value), tokenERC.balanceOf(address(this)));\r\n\r\n                require(tokenERC.transfer(tx.origin, tokens_swapped));\r\n\r\n                fee += msg.value;\r\n                investors[tx.origin] += msg.value;\r\n\r\n                tokens_received = tokens_swapped;\r\n\r\n                emit TokensSwapped(tokens_swapped);\r\n\r\n        }\r\n\r\n\r\n        function ercToEth(uint256 token_amount) external {\r\n\r\n                uint256 eth_swapped = calculatePrice(token_amount, tokenERC.balanceOf(address(this)), address(this).balance);\r\n\r\n                (bool success, ) = tx.origin.call{value: eth_swapped}(\"\");\r\n                require(success, \"Transfer failed.\");    \r\n\r\n                require(tokenERC.transferFrom(tx.origin, address(this), token_amount));\r\n\r\n                fee += eth_swapped;\r\n                emit ETHSwapped(eth_swapped);\r\n                eth_received = eth_swapped;\r\n        }\r\n\r\n        function deposit() external payable {\r\n                require(msg.value > 0);\r\n                uint256 token_amount = ((msg.value * tokenERC.balanceOf(address(this))) / (address(this).balance - msg.value));\r\n                uint256 liquidity_added = (msg.value * total_liquidity) / (address(this).balance - msg.value);\r\n\r\n                liquidity[tx.origin] += liquidity_added;\r\n\r\n                total_liquidity += liquidity_added;\r\n                require(tokenERC.transferFrom(tx.origin, address(this), token_amount));\r\n\r\n                emit Deposit(liquidity_added);\r\n                liq_added = liquidity_added;\r\n        }\r\n\r\n        function liquidityAdded(uint256 eth) external view returns (uint256, uint256){\r\n                uint256 token_amount = ((eth * tokenERC.balanceOf(address(this))) / (address(this).balance));\r\n                uint256 liquidity_added = (eth * total_liquidity) / (address(this).balance);\r\n\r\n                return (token_amount, liquidity_added);\r\n\r\n        }\r\n\r\n\r\n        function withdraw(uint256 value) external {\r\n                uint256 eth_value = (value * address(this).balance) / total_liquidity;\r\n                uint256 token_value = (value * tokenERC.balanceOf(address(this))) / total_liquidity;\r\n\r\n                total_liquidity -= eth_value;\r\n\r\n                (bool success, ) = tx.origin.call{value: eth_value}(\"\");\r\n                require(success, \"Transfer failed.\");    \r\n\r\n                require(tokenERC.transfer(tx.origin, token_value));\r\n\r\n                emit Withdraw(eth_value, token_value);\r\n                eth_received = eth_value;\r\n                tokens_received = token_value;\r\n        }\r\n\r\n        function liquiditySubstracted(uint256 value) external view returns (uint256, uint256){\r\n                uint256 eth_value = (value * address(this).balance) / total_liquidity;\r\n                uint256 token_value = (value * tokenERC.balanceOf(address(this))) / total_liquidity;\r\n                \r\n                return (eth_value, token_value);\r\n\r\n        }\r\n\r\n        function getTokenBalance() external view returns (uint256) {\r\n                return tokenERC.balanceOf(address(this));\r\n        }\r\n\r\n        function getBalance() external view returns (uint256) {\r\n                return address(this).balance;\r\n        }\r\n\r\n        function distributeFee() external{\r\n                uint256 profit = (fee * 3) / 1000;\r\n                (bool success, ) = tx.origin.call{value: profit}(\"\");\r\n                require(success, \"Transfer failed.\");\r\n        }\r\n\r\n        function invested(address who) external view returns (uint256){\r\n                return investors[who];\r\n        }\r\n\r\n}",
  "sourcePath": "C:\\Users\\qsamb\\OneDrive\\Escritorio\\PFG\\Recursos\\Code\\TEST\\contracts\\AMM.sol",
  "compiler": {
    "name": "solc",
    "version": "0.8.15+commit.e14f2714.Emscripten.clang"
  },
  "schemaVersion": "3.4.8",
  "updatedAt": "2022-08-21T15:12:11.510Z",
  "devdoc": {
    "kind": "dev",
    "methods": {},
    "version": 1
  },
  "userdoc": {
    "kind": "user",
    "methods": {},
    "version": 1
  }
}