{
  "contractName": "DEX",
  "abi": [
    {
      "inputs": [],
      "stateMutability": "nonpayable",
      "type": "constructor"
    },
    {
      "anonymous": false,
      "inputs": [
        {
          "indexed": false,
          "internalType": "uint256",
          "name": "_value",
          "type": "uint256"
        }
      ],
      "name": "Deposit",
      "type": "event"
    },
    {
      "anonymous": false,
      "inputs": [
        {
          "indexed": false,
          "internalType": "uint256",
          "name": "_value",
          "type": "uint256"
        }
      ],
      "name": "ETHSwapped",
      "type": "event"
    },
    {
      "anonymous": false,
      "inputs": [
        {
          "indexed": false,
          "internalType": "uint256",
          "name": "_value",
          "type": "uint256"
        }
      ],
      "name": "Initialize",
      "type": "event"
    },
    {
      "anonymous": false,
      "inputs": [
        {
          "indexed": false,
          "internalType": "uint256",
          "name": "_value",
          "type": "uint256"
        }
      ],
      "name": "TokensSwapped",
      "type": "event"
    },
    {
      "anonymous": false,
      "inputs": [
        {
          "indexed": false,
          "internalType": "uint256",
          "name": "_valueETH",
          "type": "uint256"
        },
        {
          "indexed": false,
          "internalType": "uint256",
          "name": "_valueToken",
          "type": "uint256"
        }
      ],
      "name": "Withdraw",
      "type": "event"
    },
    {
      "inputs": [],
      "name": "eth_received",
      "outputs": [
        {
          "internalType": "uint256",
          "name": "",
          "type": "uint256"
        }
      ],
      "stateMutability": "view",
      "type": "function"
    },
    {
      "inputs": [],
      "name": "fee",
      "outputs": [
        {
          "internalType": "uint256",
          "name": "",
          "type": "uint256"
        }
      ],
      "stateMutability": "view",
      "type": "function"
    },
    {
      "inputs": [
        {
          "internalType": "address",
          "name": "",
          "type": "address"
        }
      ],
      "name": "investors",
      "outputs": [
        {
          "internalType": "uint256",
          "name": "",
          "type": "uint256"
        }
      ],
      "stateMutability": "view",
      "type": "function"
    },
    {
      "inputs": [],
      "name": "liq_added",
      "outputs": [
        {
          "internalType": "uint256",
          "name": "",
          "type": "uint256"
        }
      ],
      "stateMutability": "view",
      "type": "function"
    },
    {
      "inputs": [
        {
          "internalType": "address",
          "name": "",
          "type": "address"
        }
      ],
      "name": "liquidity",
      "outputs": [
        {
          "internalType": "uint256",
          "name": "",
          "type": "uint256"
        }
      ],
      "stateMutability": "view",
      "type": "function"
    },
    {
      "inputs": [],
      "name": "tokens_received",
      "outputs": [
        {
          "internalType": "uint256",
          "name": "",
          "type": "uint256"
        }
      ],
      "stateMutability": "view",
      "type": "function"
    },
    {
      "inputs": [],
      "name": "total_liquidity",
      "outputs": [
        {
          "internalType": "uint256",
          "name": "",
          "type": "uint256"
        }
      ],
      "stateMutability": "view",
      "type": "function"
    },
    {
      "inputs": [
        {
          "internalType": "address",
          "name": "token_address",
          "type": "address"
        },
        {
          "internalType": "uint256",
          "name": "token_amount",
          "type": "uint256"
        }
      ],
      "name": "initialize",
      "outputs": [],
      "stateMutability": "payable",
      "type": "function"
    },
    {
      "inputs": [
        {
          "internalType": "uint256",
          "name": "eth",
          "type": "uint256"
        }
      ],
      "name": "priceERC",
      "outputs": [
        {
          "internalType": "uint256",
          "name": "",
          "type": "uint256"
        }
      ],
      "stateMutability": "view",
      "type": "function"
    },
    {
      "inputs": [
        {
          "internalType": "uint256",
          "name": "erc",
          "type": "uint256"
        }
      ],
      "name": "priceETH",
      "outputs": [
        {
          "internalType": "uint256",
          "name": "",
          "type": "uint256"
        }
      ],
      "stateMutability": "view",
      "type": "function"
    },
    {
      "inputs": [],
      "name": "ethToErc",
      "outputs": [],
      "stateMutability": "payable",
      "type": "function"
    },
    {
      "inputs": [
        {
          "internalType": "uint256",
          "name": "token_amount",
          "type": "uint256"
        }
      ],
      "name": "ercToEth",
      "outputs": [],
      "stateMutability": "nonpayable",
      "type": "function"
    },
    {
      "inputs": [],
      "name": "deposit",
      "outputs": [],
      "stateMutability": "payable",
      "type": "function"
    },
    {
      "inputs": [
        {
          "internalType": "uint256",
          "name": "eth",
          "type": "uint256"
        }
      ],
      "name": "liquidityAdded",
      "outputs": [
        {
          "internalType": "uint256",
          "name": "",
          "type": "uint256"
        },
        {
          "internalType": "uint256",
          "name": "",
          "type": "uint256"
        }
      ],
      "stateMutability": "view",
      "type": "function"
    },
    {
      "inputs": [
        {
          "internalType": "uint256",
          "name": "value",
          "type": "uint256"
        }
      ],
      "name": "withdraw",
      "outputs": [],
      "stateMutability": "nonpayable",
      "type": "function"
    },
    {
      "inputs": [
        {
          "internalType": "uint256",
          "name": "value",
          "type": "uint256"
        }
      ],
      "name": "liquiditySubstracted",
      "outputs": [
        {
          "internalType": "uint256",
          "name": "",
          "type": "uint256"
        },
        {
          "internalType": "uint256",
          "name": "",
          "type": "uint256"
        }
      ],
      "stateMutability": "view",
      "type": "function"
    },
    {
      "inputs": [],
      "name": "getTokenBalance",
      "outputs": [
        {
          "internalType": "uint256",
          "name": "",
          "type": "uint256"
        }
      ],
      "stateMutability": "view",
      "type": "function"
    },
    {
      "inputs": [],
      "name": "getBalance",
      "outputs": [
        {
          "internalType": "uint256",
          "name": "",
          "type": "uint256"
        }
      ],
      "stateMutability": "view",
      "type": "function"
    },
    {
      "inputs": [],
      "name": "distributeFee",
      "outputs": [],
      "stateMutability": "nonpayable",
      "type": "function"
    },
    {
      "inputs": [
        {
          "internalType": "address",
          "name": "who",
          "type": "address"
        }
      ],
      "name": "invested",
      "outputs": [
        {
          "internalType": "uint256",
          "name": "",
          "type": "uint256"
        }
      ],
      "stateMutability": "view",
      "type": "function"
    }
  ],
  "bytecode": "0x608060405234801561001057600080fd5b5032600260006101000a81548173ffffffffffffffffffffffffffffffffffffffff021916908373ffffffffffffffffffffffffffffffffffffffff1602179055506119da806100616000396000f3fe60806040526004361061011f5760003560e01c806372a9d124116100a0578063b8c876b111610064578063b8c876b1146103e0578063cd6dc6871461041d578063d0e30db014610439578063ddca3f4314610443578063debc674c1461046e5761011f565b806372a9d1241461031857806374942c0f146103555780637937c03d1461038057806382b2e2571461038a5780638666107c146103b55761011f565b80635f244d4e116100e75780635f244d4e146101f857806366b3f6bf1461023657806367da263d146102735780636f7bc9be146102b0578063707e7e87146102ed5761011f565b806312065fe0146101245780631eb928aa1461014f57806326c4e60d1461018d5780632e1a7d4d146101a457806331f3bd28146101cd575b600080fd5b34801561013057600080fd5b50610139610497565b60405161014691906114d0565b60405180910390f35b34801561015b57600080fd5b506101766004803603810190610171919061151c565b61049f565b604051610184929190611549565b60405180910390f35b34801561019957600080fd5b506101a2610582565b005b3480156101b057600080fd5b506101cb60048036038101906101c6919061151c565b610651565b005b3480156101d957600080fd5b506101e26108dd565b6040516101ef91906114d0565b60405180910390f35b34801561020457600080fd5b5061021f600480360381019061021a919061151c565b6108e3565b60405161022d929190611549565b60405180910390f35b34801561024257600080fd5b5061025d600480360381019061025891906115d0565b6109c4565b60405161026a91906114d0565b60405180910390f35b34801561027f57600080fd5b5061029a6004803603810190610295919061151c565b610a0d565b6040516102a791906114d0565b60405180910390f35b3480156102bc57600080fd5b506102d760048036038101906102d291906115d0565b610aba565b6040516102e491906114d0565b60405180910390f35b3480156102f957600080fd5b50610302610ad2565b60405161030f91906114d0565b60405180910390f35b34801561032457600080fd5b5061033f600480360381019061033a919061151c565b610ad8565b60405161034c91906114d0565b60405180910390f35b34801561036157600080fd5b5061036a610b90565b60405161037791906114d0565b60405180910390f35b610388610b96565b005b34801561039657600080fd5b5061039f610da0565b6040516103ac91906114d0565b60405180910390f35b3480156103c157600080fd5b506103ca610e42565b6040516103d791906114d0565b60405180910390f35b3480156103ec57600080fd5b50610407600480360381019061040291906115d0565b610e48565b60405161041491906114d0565b60405180910390f35b610437600480360381019061043291906115fd565b610e60565b005b610441610fea565b005b34801561044f57600080fd5b5061045861122b565b60405161046591906114d0565b60405180910390f35b34801561047a57600080fd5b506104956004803603810190610490919061151c565b611231565b005b600047905090565b600080600060015447856104b3919061166c565b6104bd91906116f5565b9050600060015460008054906101000a900473ffffffffffffffffffffffffffffffffffffffff1673ffffffffffffffffffffffffffffffffffffffff166370a08231306040518263ffffffff1660e01b815260040161051d9190611735565b602060405180830381865afa15801561053a573d6000803e3d6000fd5b505050506040513d601f19601f8201168201806040525081019061055e9190611765565b86610569919061166c565b61057391906116f5565b90508181935093505050915091565b60006103e860038054610595919061166c565b61059f91906116f5565b905060003273ffffffffffffffffffffffffffffffffffffffff16826040516105c7906117c3565b60006040518083038185875af1925050503d8060008114610604576040519150601f19603f3d011682016040523d82523d6000602084013e610609565b606091505b505090508061064d576040517f08c379a000000000000000000000000000000000000000000000000000000000815260040161064490611835565b60405180910390fd5b5050565b60006001544783610662919061166c565b61066c91906116f5565b9050600060015460008054906101000a900473ffffffffffffffffffffffffffffffffffffffff1673ffffffffffffffffffffffffffffffffffffffff166370a08231306040518263ffffffff1660e01b81526004016106cc9190611735565b602060405180830381865afa1580156106e9573d6000803e3d6000fd5b505050506040513d601f19601f8201168201806040525081019061070d9190611765565b84610718919061166c565b61072291906116f5565b905081600160008282546107369190611855565b9250508190555060003273ffffffffffffffffffffffffffffffffffffffff1683604051610763906117c3565b60006040518083038185875af1925050503d80600081146107a0576040519150601f19603f3d011682016040523d82523d6000602084013e6107a5565b606091505b50509050806107e9576040517f08c379a00000000000000000000000000000000000000000000000000000000081526004016107e090611835565b60405180910390fd5b60008054906101000a900473ffffffffffffffffffffffffffffffffffffffff1673ffffffffffffffffffffffffffffffffffffffff1663a9059cbb32846040518363ffffffff1660e01b8152600401610844929190611889565b6020604051808303816000875af1158015610863573d6000803e3d6000fd5b505050506040513d601f19601f8201168201806040525081019061088791906118ea565b61089057600080fd5b7f56ca301a9219608c91e7bcee90e083c19671d2cdcc96752c7af291cee5f9c8c883836040516108c1929190611549565b60405180910390a1826007819055508160068190555050505050565b60015481565b60008060004760008054906101000a900473ffffffffffffffffffffffffffffffffffffffff1673ffffffffffffffffffffffffffffffffffffffff166370a08231306040518263ffffffff1660e01b81526004016109429190611735565b602060405180830381865afa15801561095f573d6000803e3d6000fd5b505050506040513d601f19601f820116820180604052508101906109839190611765565b8561098e919061166c565b61099891906116f5565b9050600047600154866109ab919061166c565b6109b591906116f5565b90508181935093505050915091565b6000600460008373ffffffffffffffffffffffffffffffffffffffff1673ffffffffffffffffffffffffffffffffffffffff168152602001908152602001600020549050919050565b6000610ab38260008054906101000a900473ffffffffffffffffffffffffffffffffffffffff1673ffffffffffffffffffffffffffffffffffffffff166370a08231306040518263ffffffff1660e01b8152600401610a6c9190611735565b602060405180830381865afa158015610a89573d6000803e3d6000fd5b505050506040513d601f19601f82011682018060405250810190610aad9190611765565b4761148a565b9050919050565b60046020528060005260406000206000915090505481565b60085481565b6000610b89828347610aea9190611855565b60008054906101000a900473ffffffffffffffffffffffffffffffffffffffff1673ffffffffffffffffffffffffffffffffffffffff166370a08231306040518263ffffffff1660e01b8152600401610b439190611735565b602060405180830381865afa158015610b60573d6000803e3d6000fd5b505050506040513d601f19601f82011682018060405250810190610b849190611765565b61148a565b9050919050565b60065481565b6000610c47343447610ba89190611855565b60008054906101000a900473ffffffffffffffffffffffffffffffffffffffff1673ffffffffffffffffffffffffffffffffffffffff166370a08231306040518263ffffffff1660e01b8152600401610c019190611735565b602060405180830381865afa158015610c1e573d6000803e3d6000fd5b505050506040513d601f19601f82011682018060405250810190610c429190611765565b61148a565b905060008054906101000a900473ffffffffffffffffffffffffffffffffffffffff1673ffffffffffffffffffffffffffffffffffffffff1663a9059cbb32836040518363ffffffff1660e01b8152600401610ca4929190611889565b6020604051808303816000875af1158015610cc3573d6000803e3d6000fd5b505050506040513d601f19601f82011682018060405250810190610ce791906118ea565b610cf057600080fd5b3460036000828254610d029190611917565b9250508190555034600460003273ffffffffffffffffffffffffffffffffffffffff1673ffffffffffffffffffffffffffffffffffffffff1681526020019081526020016000206000828254610d589190611917565b92505081905550806006819055507fdb04c7a6d4758fd55d738ebc67e7f3010ac922be00771ef29521a4090d1eb13f81604051610d9591906114d0565b60405180910390a150565b60008060009054906101000a900473ffffffffffffffffffffffffffffffffffffffff1673ffffffffffffffffffffffffffffffffffffffff166370a08231306040518263ffffffff1660e01b8152600401610dfc9190611735565b602060405180830381865afa158015610e19573d6000803e3d6000fd5b505050506040513d601f19601f82011682018060405250810190610e3d9190611765565b905090565b60075481565b60056020528060005260406000206000915090505481565b600060015414610e6f57600080fd5b6000600381905550816000806101000a81548173ffffffffffffffffffffffffffffffffffffffff021916908373ffffffffffffffffffffffffffffffffffffffff16021790555047600181905550600154600560003273ffffffffffffffffffffffffffffffffffffffff1673ffffffffffffffffffffffffffffffffffffffff1681526020019081526020016000208190555060008054906101000a900473ffffffffffffffffffffffffffffffffffffffff1673ffffffffffffffffffffffffffffffffffffffff166323b872dd3230846040518463ffffffff1660e01b8152600401610f619392919061196d565b6020604051808303816000875af1158015610f80573d6000803e3d6000fd5b505050506040513d601f19601f82011682018060405250810190610fa491906118ea565b610fad57600080fd5b7fc43e48cf47e9fa186d0f4096c61d1fcb54159799f935a2aa32e5589688ee36e1600154604051610fde91906114d0565b60405180910390a15050565b60003447610ff89190611855565b60008054906101000a900473ffffffffffffffffffffffffffffffffffffffff1673ffffffffffffffffffffffffffffffffffffffff166370a08231306040518263ffffffff1660e01b81526004016110519190611735565b602060405180830381865afa15801561106e573d6000803e3d6000fd5b505050506040513d601f19601f820116820180604052508101906110929190611765565b3461109d919061166c565b6110a791906116f5565b9050600034476110b79190611855565b600154346110c5919061166c565b6110cf91906116f5565b905080600560003273ffffffffffffffffffffffffffffffffffffffff1673ffffffffffffffffffffffffffffffffffffffff16815260200190815260200160002060008282546111209190611917565b9250508190555080600160008282546111399190611917565b9250508190555060008054906101000a900473ffffffffffffffffffffffffffffffffffffffff1673ffffffffffffffffffffffffffffffffffffffff166323b872dd3230856040518463ffffffff1660e01b815260040161119d9392919061196d565b6020604051808303816000875af11580156111bc573d6000803e3d6000fd5b505050506040513d601f19601f820116820180604052508101906111e091906118ea565b6111e957600080fd5b7f4d6ce1e535dbade1c23defba91e23b8f791ce5edc0cc320257a2b364e4e384268160405161121891906114d0565b60405180910390a1806008819055505050565b60035481565b60006112d78260008054906101000a900473ffffffffffffffffffffffffffffffffffffffff1673ffffffffffffffffffffffffffffffffffffffff166370a08231306040518263ffffffff1660e01b81526004016112909190611735565b602060405180830381865afa1580156112ad573d6000803e3d6000fd5b505050506040513d601f19601f820116820180604052508101906112d19190611765565b4761148a565b905060003273ffffffffffffffffffffffffffffffffffffffff16826040516112ff906117c3565b60006040518083038185875af1925050503d806000811461133c576040519150601f19603f3d011682016040523d82523d6000602084013e611341565b606091505b5050905080611385576040517f08c379a000000000000000000000000000000000000000000000000000000000815260040161137c90611835565b60405180910390fd5b60008054906101000a900473ffffffffffffffffffffffffffffffffffffffff1673ffffffffffffffffffffffffffffffffffffffff166323b872dd3230866040518463ffffffff1660e01b81526004016113e29392919061196d565b6020604051808303816000875af1158015611401573d6000803e3d6000fd5b505050506040513d601f19601f8201168201806040525081019061142591906118ea565b61142e57600080fd5b81600360008282546114409190611917565b925050819055507f4dbf3a71a7c7262f432c2cad7808225832255d07f7d8ab85117677c0b5c0a8508260405161147691906114d0565b60405180910390a181600781905550505050565b600083836114989190611917565b82856114a4919061166c565b6114ae91906116f5565b90509392505050565b6000819050919050565b6114ca816114b7565b82525050565b60006020820190506114e560008301846114c1565b92915050565b600080fd5b6114f9816114b7565b811461150457600080fd5b50565b600081359050611516816114f0565b92915050565b600060208284031215611532576115316114eb565b5b600061154084828501611507565b91505092915050565b600060408201905061155e60008301856114c1565b61156b60208301846114c1565b9392505050565b600073ffffffffffffffffffffffffffffffffffffffff82169050919050565b600061159d82611572565b9050919050565b6115ad81611592565b81146115b857600080fd5b50565b6000813590506115ca816115a4565b92915050565b6000602082840312156115e6576115e56114eb565b5b60006115f4848285016115bb565b91505092915050565b60008060408385031215611614576116136114eb565b5b6000611622858286016115bb565b925050602061163385828601611507565b9150509250929050565b7f4e487b7100000000000000000000000000000000000000000000000000000000600052601160045260246000fd5b6000611677826114b7565b9150611682836114b7565b9250817fffffffffffffffffffffffffffffffffffffffffffffffffffffffffffffffff04831182151516156116bb576116ba61163d565b5b828202905092915050565b7f4e487b7100000000000000000000000000000000000000000000000000000000600052601260045260246000fd5b6000611700826114b7565b915061170b836114b7565b92508261171b5761171a6116c6565b5b828204905092915050565b61172f81611592565b82525050565b600060208201905061174a6000830184611726565b92915050565b60008151905061175f816114f0565b92915050565b60006020828403121561177b5761177a6114eb565b5b600061178984828501611750565b91505092915050565b600081905092915050565b50565b60006117ad600083611792565b91506117b88261179d565b600082019050919050565b60006117ce826117a0565b9150819050919050565b600082825260208201905092915050565b7f5472616e73666572206661696c65642e00000000000000000000000000000000600082015250565b600061181f6010836117d8565b915061182a826117e9565b602082019050919050565b6000602082019050818103600083015261184e81611812565b9050919050565b6000611860826114b7565b915061186b836114b7565b92508282101561187e5761187d61163d565b5b828203905092915050565b600060408201905061189e6000830185611726565b6118ab60208301846114c1565b9392505050565b60008115159050919050565b6118c7816118b2565b81146118d257600080fd5b50565b6000815190506118e4816118be565b92915050565b600060208284031215611900576118ff6114eb565b5b600061190e848285016118d5565b91505092915050565b6000611922826114b7565b915061192d836114b7565b9250827fffffffffffffffffffffffffffffffffffffffffffffffffffffffffffffffff038211156119625761196161163d565b5b828201905092915050565b60006060820190506119826000830186611726565b61198f6020830185611726565b61199c60408301846114c1565b94935050505056fea26469706673582212205b1c524b1d2b0b4410a0bb43311d69f30dc9caf1c5f44f59d623213c744edbc064736f6c634300080f0033",
  "immutableReferences": {},
  "source": "// SPDX-License-Identifier: GPL-3.0\r\n\r\npragma solidity >=0.7.0 <0.9.0;\r\n\r\nimport \"@openzeppelin/contracts/token/ERC20/ERC20.sol\";\r\n\r\ncontract DEX {\r\n\r\n        IERC20 tokenERC;\r\n\r\n        uint256 public total_liquidity;\r\n        \r\n        //FEE - Profits for deployer\r\n        address private deployer;\r\n        uint256 public fee;\r\n\r\n        //Investors\r\n        mapping(address => uint256) public investors;\r\n\r\n        //LP Providers\r\n        mapping (address => uint256) public liquidity;\r\n\r\n        event Initialize (uint256 _value);\r\n        event TokensSwapped (uint256 _value);\r\n        event ETHSwapped (uint256 _value);\r\n        event Deposit (uint256 _value);\r\n        event Withdraw (uint256 _valueETH, uint256 _valueToken);\r\n\r\n        //EVENT VARIABLEs\r\n\r\n        uint256 public tokens_received;\r\n        uint256 public eth_received;\r\n        uint256 public liq_added;\r\n\r\n        constructor(){\r\n                deployer = tx.origin;\r\n        }\r\n\r\n        function initialize(address token_address, uint256 token_amount) external payable {\r\n                require(total_liquidity == 0);\r\n\r\n                fee = 0;\r\n                tokenERC = IERC20(token_address);\r\n                \r\n                total_liquidity = address(this).balance;\r\n                liquidity[tx.origin] = total_liquidity;          \r\n\r\n                \r\n                require(tokenERC.transferFrom(tx.origin, address(this), token_amount));\r\n\r\n                emit Initialize(total_liquidity);\r\n        }\r\n\r\n        function calculatePrice(uint256 input_value, uint256 input_pool, uint256 output_pool) internal pure returns (uint256) {\r\n                return (input_value * output_pool) / (input_pool + input_value);\r\n        }\r\n\r\n\r\n        function priceERC(uint256 eth) external view returns(uint256){\r\n                return calculatePrice(eth, (address(this).balance - eth), tokenERC.balanceOf(address(this)));\r\n        }\r\n\r\n        function priceETH(uint256 erc) external view returns(uint256){\r\n                return calculatePrice(erc, tokenERC.balanceOf(address(this)), address(this).balance);\r\n        }\r\n\r\n        function ethToErc() external payable {\r\n                uint256 tokens_swapped = calculatePrice(msg.value, (address(this).balance - msg.value), tokenERC.balanceOf(address(this)));\r\n\r\n                require(tokenERC.transfer(tx.origin, tokens_swapped));\r\n\r\n                fee += msg.value;\r\n                investors[tx.origin] += msg.value;\r\n\r\n                tokens_received = tokens_swapped;\r\n\r\n                emit TokensSwapped(tokens_swapped);\r\n\r\n        }\r\n\r\n\r\n        function ercToEth(uint256 token_amount) external {\r\n\r\n                uint256 eth_swapped = calculatePrice(token_amount, tokenERC.balanceOf(address(this)), address(this).balance);\r\n\r\n                (bool success, ) = tx.origin.call{value: eth_swapped}(\"\");\r\n                require(success, \"Transfer failed.\");    \r\n\r\n                require(tokenERC.transferFrom(tx.origin, address(this), token_amount));\r\n\r\n                fee += eth_swapped;\r\n                emit ETHSwapped(eth_swapped);\r\n                eth_received = eth_swapped;\r\n        }\r\n\r\n        function deposit() external payable {\r\n                uint256 token_amount = ((msg.value * tokenERC.balanceOf(address(this))) / (address(this).balance - msg.value));\r\n                uint256 liquidity_added = (msg.value * total_liquidity) / (address(this).balance - msg.value);\r\n\r\n                liquidity[tx.origin] += liquidity_added;\r\n\r\n                total_liquidity += liquidity_added;\r\n                require(tokenERC.transferFrom(tx.origin, address(this), token_amount));\r\n\r\n                emit Deposit(liquidity_added);\r\n                liq_added = liquidity_added;\r\n        }\r\n\r\n        function liquidityAdded(uint256 eth) external view returns (uint256, uint256){\r\n                uint256 token_amount = ((eth * tokenERC.balanceOf(address(this))) / (address(this).balance));\r\n                uint256 liquidity_added = (eth * total_liquidity) / (address(this).balance);\r\n\r\n                return (token_amount, liquidity_added);\r\n\r\n        }\r\n\r\n\r\n        function withdraw(uint256 value) external {\r\n                uint256 eth_value = (value * address(this).balance) / total_liquidity;\r\n                uint256 token_value = (value * tokenERC.balanceOf(address(this))) / total_liquidity;\r\n\r\n                total_liquidity -= eth_value;\r\n\r\n                (bool success, ) = tx.origin.call{value: eth_value}(\"\");\r\n                require(success, \"Transfer failed.\");    \r\n\r\n                require(tokenERC.transfer(tx.origin, token_value));\r\n\r\n                emit Withdraw(eth_value, token_value);\r\n                eth_received = eth_value;\r\n                tokens_received = token_value;\r\n        }\r\n\r\n        function liquiditySubstracted(uint256 value) external view returns (uint256, uint256){\r\n                uint256 eth_value = (value * address(this).balance) / total_liquidity;\r\n                uint256 token_value = (value * tokenERC.balanceOf(address(this))) / total_liquidity;\r\n                \r\n                return (eth_value, token_value);\r\n\r\n        }\r\n\r\n        function getTokenBalance() external view returns (uint256) {\r\n                return tokenERC.balanceOf(address(this));\r\n        }\r\n\r\n        function getBalance() external view returns (uint256) {\r\n                return address(this).balance;\r\n        }\r\n\r\n        function distributeFee() public{\r\n                uint256 profit = (fee * 3) / 1000;\r\n                (bool success, ) = tx.origin.call{value: profit}(\"\");\r\n                require(success, \"Transfer failed.\");\r\n        }\r\n\r\n        function invested(address who) external view returns (uint256){\r\n                return investors[who];\r\n        }\r\n\r\n}",
  "sourcePath": "C:\\Users\\qsamb\\OneDrive\\Escritorio\\PFG\\Recursos\\Code\\TEST\\contracts\\AMM.sol",
  "compiler": {
    "name": "solc",
    "version": "0.8.15+commit.e14f2714.Emscripten.clang"
  },
  "schemaVersion": "3.4.8",
  "updatedAt": "2022-08-10T15:29:18.553Z",
  "devdoc": {
    "kind": "dev",
    "methods": {},
    "version": 1
  },
  "userdoc": {
    "kind": "user",
    "methods": {},
    "version": 1
  }
}