{
  "contractName": "DEX",
  "abi": [
    {
      "inputs": [],
      "stateMutability": "nonpayable",
      "type": "constructor"
    },
    {
      "anonymous": false,
      "inputs": [
        {
          "indexed": false,
          "internalType": "uint256",
          "name": "_value",
          "type": "uint256"
        }
      ],
      "name": "Deposit",
      "type": "event"
    },
    {
      "anonymous": false,
      "inputs": [
        {
          "indexed": false,
          "internalType": "uint256",
          "name": "_value",
          "type": "uint256"
        }
      ],
      "name": "ETHSwapped",
      "type": "event"
    },
    {
      "anonymous": false,
      "inputs": [
        {
          "indexed": false,
          "internalType": "uint256",
          "name": "_value",
          "type": "uint256"
        }
      ],
      "name": "Initialize",
      "type": "event"
    },
    {
      "anonymous": false,
      "inputs": [
        {
          "indexed": false,
          "internalType": "uint256",
          "name": "_value",
          "type": "uint256"
        }
      ],
      "name": "TokensSwapped",
      "type": "event"
    },
    {
      "anonymous": false,
      "inputs": [
        {
          "indexed": false,
          "internalType": "uint256",
          "name": "_valueETH",
          "type": "uint256"
        },
        {
          "indexed": false,
          "internalType": "uint256",
          "name": "_valueToken",
          "type": "uint256"
        }
      ],
      "name": "Withdraw",
      "type": "event"
    },
    {
      "inputs": [],
      "name": "eth_received",
      "outputs": [
        {
          "internalType": "uint256",
          "name": "",
          "type": "uint256"
        }
      ],
      "stateMutability": "view",
      "type": "function"
    },
    {
      "inputs": [],
      "name": "fee",
      "outputs": [
        {
          "internalType": "uint256",
          "name": "",
          "type": "uint256"
        }
      ],
      "stateMutability": "view",
      "type": "function"
    },
    {
      "inputs": [
        {
          "internalType": "address",
          "name": "",
          "type": "address"
        }
      ],
      "name": "investors",
      "outputs": [
        {
          "internalType": "uint256",
          "name": "",
          "type": "uint256"
        }
      ],
      "stateMutability": "view",
      "type": "function"
    },
    {
      "inputs": [],
      "name": "liq_added",
      "outputs": [
        {
          "internalType": "uint256",
          "name": "",
          "type": "uint256"
        }
      ],
      "stateMutability": "view",
      "type": "function"
    },
    {
      "inputs": [
        {
          "internalType": "address",
          "name": "",
          "type": "address"
        }
      ],
      "name": "liquidity",
      "outputs": [
        {
          "internalType": "uint256",
          "name": "",
          "type": "uint256"
        }
      ],
      "stateMutability": "view",
      "type": "function"
    },
    {
      "inputs": [],
      "name": "tokens_received",
      "outputs": [
        {
          "internalType": "uint256",
          "name": "",
          "type": "uint256"
        }
      ],
      "stateMutability": "view",
      "type": "function"
    },
    {
      "inputs": [],
      "name": "total_liquidity",
      "outputs": [
        {
          "internalType": "uint256",
          "name": "",
          "type": "uint256"
        }
      ],
      "stateMutability": "view",
      "type": "function"
    },
    {
      "inputs": [
        {
          "internalType": "address",
          "name": "token_address",
          "type": "address"
        },
        {
          "internalType": "uint256",
          "name": "token_amount",
          "type": "uint256"
        }
      ],
      "name": "initialize",
      "outputs": [],
      "stateMutability": "payable",
      "type": "function"
    },
    {
      "inputs": [
        {
          "internalType": "uint256",
          "name": "eth",
          "type": "uint256"
        }
      ],
      "name": "priceERC",
      "outputs": [
        {
          "internalType": "uint256",
          "name": "",
          "type": "uint256"
        }
      ],
      "stateMutability": "view",
      "type": "function"
    },
    {
      "inputs": [
        {
          "internalType": "uint256",
          "name": "erc",
          "type": "uint256"
        }
      ],
      "name": "priceETH",
      "outputs": [
        {
          "internalType": "uint256",
          "name": "",
          "type": "uint256"
        }
      ],
      "stateMutability": "view",
      "type": "function"
    },
    {
      "inputs": [],
      "name": "ethToErc",
      "outputs": [],
      "stateMutability": "payable",
      "type": "function"
    },
    {
      "inputs": [
        {
          "internalType": "uint256",
          "name": "token_amount",
          "type": "uint256"
        }
      ],
      "name": "ercToEth",
      "outputs": [],
      "stateMutability": "nonpayable",
      "type": "function"
    },
    {
      "inputs": [],
      "name": "deposit",
      "outputs": [],
      "stateMutability": "payable",
      "type": "function"
    },
    {
      "inputs": [
        {
          "internalType": "uint256",
          "name": "eth",
          "type": "uint256"
        }
      ],
      "name": "liquidityAdded",
      "outputs": [
        {
          "internalType": "uint256",
          "name": "",
          "type": "uint256"
        },
        {
          "internalType": "uint256",
          "name": "",
          "type": "uint256"
        }
      ],
      "stateMutability": "view",
      "type": "function"
    },
    {
      "inputs": [
        {
          "internalType": "uint256",
          "name": "value",
          "type": "uint256"
        }
      ],
      "name": "withdraw",
      "outputs": [],
      "stateMutability": "nonpayable",
      "type": "function"
    },
    {
      "inputs": [
        {
          "internalType": "uint256",
          "name": "value",
          "type": "uint256"
        }
      ],
      "name": "liquiditySubstracted",
      "outputs": [
        {
          "internalType": "uint256",
          "name": "",
          "type": "uint256"
        },
        {
          "internalType": "uint256",
          "name": "",
          "type": "uint256"
        }
      ],
      "stateMutability": "view",
      "type": "function"
    },
    {
      "inputs": [],
      "name": "getTokenBalance",
      "outputs": [
        {
          "internalType": "uint256",
          "name": "",
          "type": "uint256"
        }
      ],
      "stateMutability": "view",
      "type": "function"
    },
    {
      "inputs": [],
      "name": "getBalance",
      "outputs": [
        {
          "internalType": "uint256",
          "name": "",
          "type": "uint256"
        }
      ],
      "stateMutability": "view",
      "type": "function"
    },
    {
      "inputs": [],
      "name": "distributeFee",
      "outputs": [],
      "stateMutability": "nonpayable",
      "type": "function"
    },
    {
      "inputs": [
        {
          "internalType": "address",
          "name": "who",
          "type": "address"
        }
      ],
      "name": "invested",
      "outputs": [
        {
          "internalType": "uint256",
          "name": "",
          "type": "uint256"
        }
      ],
      "stateMutability": "view",
      "type": "function"
    },
    {
      "inputs": [],
      "name": "finish",
      "outputs": [],
      "stateMutability": "nonpayable",
      "type": "function"
    }
  ],
  "bytecode": "0x608060405234801561001057600080fd5b50600280546001600160a01b03191632179055611039806100326000396000f3fe60806040526004361061013a5760003560e01c806372a9d124116100bb578063b8c876b11161007f578063d56b288911610059578063d56b28891461034d578063ddca3f4314610360578063debc674c1461037657600080fd5b8063b8c876b114610305578063cd6dc68714610332578063d0e30db01461034557600080fd5b806372a9d1241461029c57806374942c0f146102bc5780637937c03d146102d257806382b2e257146102da5780638666107c146102ef57600080fd5b80635f244d4e116101025780635f244d4e146101e357806366b3f6bf1461020357806367da263d146102395780636f7bc9be14610259578063707e7e871461028657600080fd5b806312065fe01461013f5780631eb928aa1461016157806326c4e60d146101965780632e1a7d4d146101ad57806331f3bd28146101cd575b600080fd5b34801561014b57600080fd5b50475b6040519081526020015b60405180910390f35b34801561016d57600080fd5b5061018161017c366004610ec1565b610396565b60408051928352602083019190915201610158565b3480156101a257600080fd5b506101ab610449565b005b3480156101b957600080fd5b506101ab6101c8366004610ec1565b6104fe565b3480156101d957600080fd5b5061014e60015481565b3480156101ef57600080fd5b506101816101fe366004610ec1565b610709565b34801561020f57600080fd5b5061014e61021e366004610ef6565b6001600160a01b031660009081526004602052604090205490565b34801561024557600080fd5b5061014e610254366004610ec1565b6107a1565b34801561026557600080fd5b5061014e610274366004610ef6565b60046020526000908152604090205481565b34801561029257600080fd5b5061014e60085481565b3480156102a857600080fd5b5061014e6102b7366004610ec1565b610821565b3480156102c857600080fd5b5061014e60065481565b6101ab6108a2565b3480156102e657600080fd5b5061014e6109a7565b3480156102fb57600080fd5b5061014e60075481565b34801561031157600080fd5b5061014e610320366004610ef6565b60056020526000908152604090205481565b6101ab610340366004610f18565b610a19565b6101ab610b42565b34801561035957600080fd5b506101ab32ff5b34801561036c57600080fd5b5061014e60035481565b34801561038257600080fd5b506101ab610391366004610ec1565b610cff565b600080600060015447856103aa9190610f58565b6103b49190610f77565b600154600080546040516370a0823160e01b815230600482015293945090926001600160a01b03909116906370a0823190602401602060405180830381865afa158015610405573d6000803e3d6000fd5b505050506040513d601f19601f820116820180604052508101906104299190610f99565b6104339087610f58565b61043d9190610f77565b91959194509092505050565b60006103e8600354600361045d9190610f58565b6104679190610f77565b604051909150600090329083908381818185875af1925050503d80600081146104ac576040519150601f19603f3d011682016040523d82523d6000602084013e6104b1565b606091505b50509050806104fa5760405162461bcd60e51b815260206004820152601060248201526f2a3930b739b332b9103330b4b632b21760811b60448201526064015b60405180910390fd5b5050565b60015460009061050e4784610f58565b6105189190610f77565b600154600080546040516370a0823160e01b815230600482015293945090926001600160a01b03909116906370a0823190602401602060405180830381865afa158015610569573d6000803e3d6000fd5b505050506040513d601f19601f8201168201806040525081019061058d9190610f99565b6105979085610f58565b6105a19190610f77565b905081600160008282546105b59190610fb2565b9091555050604051600090329084908381818185875af1925050503d80600081146105fc576040519150601f19603f3d011682016040523d82523d6000602084013e610601565b606091505b50509050806106455760405162461bcd60e51b815260206004820152601060248201526f2a3930b739b332b9103330b4b632b21760811b60448201526064016104f1565b60005460405163a9059cbb60e01b8152326004820152602481018490526001600160a01b039091169063a9059cbb906044016020604051808303816000875af1158015610696573d6000803e3d6000fd5b505050506040513d601f19601f820116820180604052508101906106ba9190610fc9565b6106c357600080fd5b60408051848152602081018490527f56ca301a9219608c91e7bcee90e083c19671d2cdcc96752c7af291cee5f9c8c8910160405180910390a15060079190915560065550565b600080546040516370a0823160e01b81523060048201528291829147916001600160a01b0316906370a0823190602401602060405180830381865afa158015610756573d6000803e3d6000fd5b505050506040513d601f19601f8201168201806040525081019061077a9190610f99565b6107849086610f58565b61078e9190610f77565b9050600047600154866104339190610f58565b600080546040516370a0823160e01b815230600482015261081b9184916001600160a01b03909116906370a08231906024015b602060405180830381865afa1580156107f1573d6000803e3d6000fd5b505050506040513d601f19601f820116820180604052508101906108159190610f99565b47610e99565b92915050565b600061081b826108318147610fb2565b6000546040516370a0823160e01b81523060048201526001600160a01b03909116906370a0823190602401602060405180830381865afa158015610879573d6000803e3d6000fd5b505050506040513d601f19601f8201168201806040525081019061089d9190610f99565b610e99565b60006108b2346108318147610fb2565b60005460405163a9059cbb60e01b8152326004820152602481018390529192506001600160a01b03169063a9059cbb906044016020604051808303816000875af1158015610904573d6000803e3d6000fd5b505050506040513d601f19601f820116820180604052508101906109289190610fc9565b61093157600080fd5b34600360008282546109439190610feb565b90915550503260009081526004602052604081208054349290610967908490610feb565b909155505060068190556040518181527fdb04c7a6d4758fd55d738ebc67e7f3010ac922be00771ef29521a4090d1eb13f9060200160405180910390a150565b600080546040516370a0823160e01b81523060048201526001600160a01b03909116906370a0823190602401602060405180830381865afa1580156109f0573d6000803e3d6000fd5b505050506040513d601f19601f82011682018060405250810190610a149190610f99565b905090565b60015415610a2657600080fd5b60008111610a3357600080fd5b60003411610a4057600080fd5b60006003819055805473ffffffffffffffffffffffffffffffffffffffff19166001600160a01b03848116919091178255476001819055328084526005602052604080852092909255925490516323b872dd60e01b815260048101939093523060248401526044830184905216906323b872dd906064016020604051808303816000875af1158015610ad6573d6000803e3d6000fd5b505050506040513d601f19601f82011682018060405250810190610afa9190610fc9565b610b0357600080fd5b7fc43e48cf47e9fa186d0f4096c61d1fcb54159799f935a2aa32e5589688ee36e1600154604051610b3691815260200190565b60405180910390a15050565b60003411610b4f57600080fd5b6000610b5b3447610fb2565b6000546040516370a0823160e01b81523060048201526001600160a01b03909116906370a0823190602401602060405180830381865afa158015610ba3573d6000803e3d6000fd5b505050506040513d601f19601f82011682018060405250810190610bc79190610f99565b610bd19034610f58565b610bdb9190610f77565b90506000610be93447610fb2565b600154610bf69034610f58565b610c009190610f77565b32600090815260056020526040812080549293508392909190610c24908490610feb565b925050819055508060016000828254610c3d9190610feb565b90915550506000546040516323b872dd60e01b8152326004820152306024820152604481018490526001600160a01b03909116906323b872dd906064016020604051808303816000875af1158015610c99573d6000803e3d6000fd5b505050506040513d601f19601f82011682018060405250810190610cbd9190610fc9565b610cc657600080fd5b6040518181527f4d6ce1e535dbade1c23defba91e23b8f791ce5edc0cc320257a2b364e4e384269060200160405180910390a160085550565b600080546040516370a0823160e01b8152306004820152610d369184916001600160a01b03909116906370a08231906024016107d4565b604051909150600090329083908381818185875af1925050503d8060008114610d7b576040519150601f19603f3d011682016040523d82523d6000602084013e610d80565b606091505b5050905080610dc45760405162461bcd60e51b815260206004820152601060248201526f2a3930b739b332b9103330b4b632b21760811b60448201526064016104f1565b6000546040516323b872dd60e01b8152326004820152306024820152604481018590526001600160a01b03909116906323b872dd906064016020604051808303816000875af1158015610e1b573d6000803e3d6000fd5b505050506040513d601f19601f82011682018060405250810190610e3f9190610fc9565b610e4857600080fd5b8160036000828254610e5a9190610feb565b90915550506040518281527f4dbf3a71a7c7262f432c2cad7808225832255d07f7d8ab85117677c0b5c0a8509060200160405180910390a15060075550565b6000610ea58484610feb565b610eaf8386610f58565b610eb99190610f77565b949350505050565b600060208284031215610ed357600080fd5b5035919050565b80356001600160a01b0381168114610ef157600080fd5b919050565b600060208284031215610f0857600080fd5b610f1182610eda565b9392505050565b60008060408385031215610f2b57600080fd5b610f3483610eda565b946020939093013593505050565b634e487b7160e01b600052601160045260246000fd5b6000816000190483118215151615610f7257610f72610f42565b500290565b600082610f9457634e487b7160e01b600052601260045260246000fd5b500490565b600060208284031215610fab57600080fd5b5051919050565b600082821015610fc457610fc4610f42565b500390565b600060208284031215610fdb57600080fd5b81518015158114610f1157600080fd5b60008219821115610ffe57610ffe610f42565b50019056fea26469706673582212201ca8faa0c5906fd6d09dc4d85f6eb5555b9817ca4be33630940403b4fa48d16464736f6c634300080f0033",
  "immutableReferences": {},
  "source": "// SPDX-License-Identifier: GPL-3.0\r\n\r\npragma solidity >=0.7.0 <0.9.0;\r\n\r\nimport \"@openzeppelin/contracts/token/ERC20/ERC20.sol\";\r\n\r\ncontract DEX {\r\n\r\n        IERC20 tokenERC;\r\n\r\n        uint256 public total_liquidity;\r\n        \r\n        //FEE - Profits for deployer\r\n        address private deployer;\r\n        uint256 public fee;\r\n\r\n        //Investors\r\n        mapping(address => uint256) public investors;\r\n\r\n        //LP Providers\r\n        mapping (address => uint256) public liquidity;\r\n\r\n        event Initialize (uint256 _value);\r\n        event TokensSwapped (uint256 _value);\r\n        event ETHSwapped (uint256 _value);\r\n        event Deposit (uint256 _value);\r\n        event Withdraw (uint256 _valueETH, uint256 _valueToken);\r\n\r\n        //EVENT VARIABLEs\r\n\r\n        uint256 public tokens_received;\r\n        uint256 public eth_received;\r\n        uint256 public liq_added;\r\n\r\n        constructor(){\r\n                deployer = tx.origin;\r\n        }\r\n\r\n        function initialize(address token_address, uint256 token_amount) external payable {\r\n                require(total_liquidity == 0);\r\n                require(token_amount > 0);\r\n                require(msg.value > 0);\r\n\r\n                fee = 0;\r\n                tokenERC = IERC20(token_address);\r\n                \r\n                total_liquidity = address(this).balance;\r\n                liquidity[tx.origin] = total_liquidity;          \r\n\r\n                \r\n                require(tokenERC.transferFrom(tx.origin, address(this), token_amount));\r\n\r\n                emit Initialize(total_liquidity);\r\n        }\r\n\r\n        function calculatePrice(uint256 input_value, uint256 input_pool, uint256 output_pool) internal pure returns (uint256) {\r\n                return (input_value * output_pool) / (input_pool + input_value);\r\n        }\r\n\r\n\r\n        function priceERC(uint256 eth) external view returns(uint256){\r\n                return calculatePrice(eth, (address(this).balance - eth), tokenERC.balanceOf(address(this)));\r\n        }\r\n\r\n        function priceETH(uint256 erc) external view returns(uint256){\r\n                return calculatePrice(erc, tokenERC.balanceOf(address(this)), address(this).balance);\r\n        }\r\n\r\n        function ethToErc() external payable {\r\n                uint256 tokens_swapped = calculatePrice(msg.value, (address(this).balance - msg.value), tokenERC.balanceOf(address(this)));\r\n\r\n                require(tokenERC.transfer(tx.origin, tokens_swapped));\r\n\r\n                fee += msg.value;\r\n                investors[tx.origin] += msg.value;\r\n\r\n                tokens_received = tokens_swapped;\r\n\r\n                emit TokensSwapped(tokens_swapped);\r\n\r\n        }\r\n\r\n\r\n        function ercToEth(uint256 token_amount) external {\r\n\r\n                uint256 eth_swapped = calculatePrice(token_amount, tokenERC.balanceOf(address(this)), address(this).balance);\r\n\r\n                (bool success, ) = tx.origin.call{value: eth_swapped}(\"\");\r\n                require(success, \"Transfer failed.\");    \r\n\r\n                require(tokenERC.transferFrom(tx.origin, address(this), token_amount));\r\n\r\n                fee += eth_swapped;\r\n                emit ETHSwapped(eth_swapped);\r\n                eth_received = eth_swapped;\r\n        }\r\n\r\n        function deposit() external payable {\r\n                require(msg.value > 0);\r\n                uint256 token_amount = ((msg.value * tokenERC.balanceOf(address(this))) / (address(this).balance - msg.value));\r\n                uint256 liquidity_added = (msg.value * total_liquidity) / (address(this).balance - msg.value);\r\n\r\n                liquidity[tx.origin] += liquidity_added;\r\n\r\n                total_liquidity += liquidity_added;\r\n                require(tokenERC.transferFrom(tx.origin, address(this), token_amount));\r\n\r\n                emit Deposit(liquidity_added);\r\n                liq_added = liquidity_added;\r\n        }\r\n\r\n        function liquidityAdded(uint256 eth) external view returns (uint256, uint256){\r\n                uint256 token_amount = ((eth * tokenERC.balanceOf(address(this))) / (address(this).balance));\r\n                uint256 liquidity_added = (eth * total_liquidity) / (address(this).balance);\r\n\r\n                return (token_amount, liquidity_added);\r\n\r\n        }\r\n\r\n\r\n        function withdraw(uint256 value) external {\r\n                uint256 eth_value = (value * address(this).balance) / total_liquidity;\r\n                uint256 token_value = (value * tokenERC.balanceOf(address(this))) / total_liquidity;\r\n\r\n                total_liquidity -= eth_value;\r\n\r\n                (bool success, ) = tx.origin.call{value: eth_value}(\"\");\r\n                require(success, \"Transfer failed.\");    \r\n\r\n                require(tokenERC.transfer(tx.origin, token_value));\r\n\r\n                emit Withdraw(eth_value, token_value);\r\n                eth_received = eth_value;\r\n                tokens_received = token_value;\r\n        }\r\n\r\n        function liquiditySubstracted(uint256 value) external view returns (uint256, uint256){\r\n                uint256 eth_value = (value * address(this).balance) / total_liquidity;\r\n                uint256 token_value = (value * tokenERC.balanceOf(address(this))) / total_liquidity;\r\n                \r\n                return (eth_value, token_value);\r\n\r\n        }\r\n\r\n        function getTokenBalance() external view returns (uint256) {\r\n                return tokenERC.balanceOf(address(this));\r\n        }\r\n\r\n        function getBalance() external view returns (uint256) {\r\n                return address(this).balance;\r\n        }\r\n\r\n        function distributeFee() external{\r\n                uint256 profit = (fee * 3) / 1000;\r\n                (bool success, ) = tx.origin.call{value: profit}(\"\");\r\n                require(success, \"Transfer failed.\");\r\n        }\r\n\r\n        function invested(address who) external view returns (uint256){\r\n                return investors[who];\r\n        }\r\n\r\n        function finish() external {\r\n                selfdestruct(payable(tx.origin));\r\n        }\r\n\r\n}",
  "sourcePath": "C:\\Users\\qsamb\\OneDrive\\Escritorio\\PFG\\Recursos\\Code\\TEST\\contracts\\AMM.sol",
  "compiler": {
    "name": "solc",
    "version": "0.8.15+commit.e14f2714.Emscripten.clang"
  },
  "schemaVersion": "3.4.8",
  "updatedAt": "2022-08-22T12:54:30.710Z",
  "devdoc": {
    "kind": "dev",
    "methods": {},
    "version": 1
  },
  "userdoc": {
    "kind": "user",
    "methods": {},
    "version": 1
  }
}