{
  "contractName": "Factoring",
  "abi": [
    {
      "inputs": [],
      "stateMutability": "nonpayable",
      "type": "constructor"
    },
    {
      "anonymous": false,
      "inputs": [
        {
          "indexed": false,
          "internalType": "uint256",
          "name": "payed",
          "type": "uint256"
        },
        {
          "indexed": false,
          "internalType": "uint256",
          "name": "tokens_received",
          "type": "uint256"
        }
      ],
      "name": "BuyERC",
      "type": "event"
    },
    {
      "anonymous": false,
      "inputs": [
        {
          "indexed": false,
          "internalType": "uint256",
          "name": "payed",
          "type": "uint256"
        },
        {
          "indexed": false,
          "internalType": "uint256",
          "name": "tokens_received",
          "type": "uint256"
        }
      ],
      "name": "BuyETH",
      "type": "event"
    },
    {
      "anonymous": false,
      "inputs": [
        {
          "indexed": true,
          "internalType": "address",
          "name": "denegator",
          "type": "address"
        },
        {
          "indexed": false,
          "internalType": "string",
          "name": "asset",
          "type": "string"
        }
      ],
      "name": "DOCDenegated",
      "type": "event"
    },
    {
      "anonymous": false,
      "inputs": [
        {
          "indexed": true,
          "internalType": "address",
          "name": "validator",
          "type": "address"
        },
        {
          "indexed": false,
          "internalType": "string",
          "name": "asset",
          "type": "string"
        }
      ],
      "name": "DOCValidated",
      "type": "event"
    },
    {
      "anonymous": false,
      "inputs": [
        {
          "indexed": false,
          "internalType": "uint256",
          "name": "liquidity",
          "type": "uint256"
        }
      ],
      "name": "DepositLP",
      "type": "event"
    },
    {
      "anonymous": false,
      "inputs": [
        {
          "indexed": true,
          "internalType": "address",
          "name": "owner",
          "type": "address"
        },
        {
          "indexed": false,
          "internalType": "string",
          "name": "filename",
          "type": "string"
        },
        {
          "indexed": false,
          "internalType": "uint256",
          "name": "value",
          "type": "uint256"
        },
        {
          "indexed": false,
          "internalType": "uint256",
          "name": "daysRemaining",
          "type": "uint256"
        }
      ],
      "name": "NewDocument",
      "type": "event"
    },
    {
      "anonymous": false,
      "inputs": [
        {
          "indexed": false,
          "internalType": "uint256",
          "name": "assetX",
          "type": "uint256"
        },
        {
          "indexed": false,
          "internalType": "uint256",
          "name": "assetY",
          "type": "uint256"
        }
      ],
      "name": "StartLP",
      "type": "event"
    },
    {
      "anonymous": false,
      "inputs": [
        {
          "indexed": false,
          "internalType": "uint256",
          "name": "eth_received",
          "type": "uint256"
        },
        {
          "indexed": false,
          "internalType": "uint256",
          "name": "tokens_received",
          "type": "uint256"
        }
      ],
      "name": "WithdrawLP",
      "type": "event"
    },
    {
      "inputs": [],
      "name": "LP",
      "outputs": [
        {
          "internalType": "contract DEX",
          "name": "",
          "type": "address"
        }
      ],
      "stateMutability": "view",
      "type": "function",
      "constant": true
    },
    {
      "inputs": [],
      "name": "collateral",
      "outputs": [
        {
          "internalType": "uint256",
          "name": "",
          "type": "uint256"
        }
      ],
      "stateMutability": "view",
      "type": "function",
      "constant": true
    },
    {
      "inputs": [],
      "name": "expDays",
      "outputs": [
        {
          "internalType": "uint256",
          "name": "",
          "type": "uint256"
        }
      ],
      "stateMutability": "view",
      "type": "function",
      "constant": true
    },
    {
      "inputs": [],
      "name": "intFee",
      "outputs": [
        {
          "internalType": "contract Interest",
          "name": "",
          "type": "address"
        }
      ],
      "stateMutability": "view",
      "type": "function",
      "constant": true
    },
    {
      "inputs": [],
      "name": "tokenitzacio",
      "outputs": [
        {
          "internalType": "contract Tokfa",
          "name": "",
          "type": "address"
        }
      ],
      "stateMutability": "view",
      "type": "function",
      "constant": true
    },
    {
      "inputs": [],
      "name": "value",
      "outputs": [
        {
          "internalType": "uint256",
          "name": "",
          "type": "uint256"
        }
      ],
      "stateMutability": "view",
      "type": "function",
      "constant": true
    },
    {
      "inputs": [],
      "name": "verificador",
      "outputs": [
        {
          "internalType": "contract Verificacio",
          "name": "",
          "type": "address"
        }
      ],
      "stateMutability": "view",
      "type": "function",
      "constant": true
    },
    {
      "inputs": [
        {
          "internalType": "string",
          "name": "_filename",
          "type": "string"
        },
        {
          "internalType": "uint256",
          "name": "_value",
          "type": "uint256"
        },
        {
          "internalType": "uint256",
          "name": "_days",
          "type": "uint256"
        }
      ],
      "name": "DOCnewFile",
      "outputs": [],
      "stateMutability": "nonpayable",
      "type": "function"
    },
    {
      "inputs": [
        {
          "internalType": "string",
          "name": "hash",
          "type": "string"
        }
      ],
      "name": "DOCsetHash",
      "outputs": [],
      "stateMutability": "nonpayable",
      "type": "function"
    },
    {
      "inputs": [],
      "name": "DOCgetHash",
      "outputs": [
        {
          "internalType": "string",
          "name": "",
          "type": "string"
        }
      ],
      "stateMutability": "view",
      "type": "function",
      "constant": true
    },
    {
      "inputs": [
        {
          "internalType": "string",
          "name": "link",
          "type": "string"
        }
      ],
      "name": "DOCsetURL",
      "outputs": [],
      "stateMutability": "nonpayable",
      "type": "function"
    },
    {
      "inputs": [],
      "name": "DOCgetURL",
      "outputs": [
        {
          "internalType": "string",
          "name": "",
          "type": "string"
        }
      ],
      "stateMutability": "view",
      "type": "function",
      "constant": true
    },
    {
      "inputs": [],
      "name": "DOCvalidate",
      "outputs": [],
      "stateMutability": "nonpayable",
      "type": "function"
    },
    {
      "inputs": [],
      "name": "DOCdeny",
      "outputs": [],
      "stateMutability": "nonpayable",
      "type": "function"
    },
    {
      "inputs": [
        {
          "internalType": "uint256",
          "name": "quants_tokens",
          "type": "uint256"
        }
      ],
      "name": "start",
      "outputs": [],
      "stateMutability": "payable",
      "type": "function",
      "payable": true
    },
    {
      "inputs": [],
      "name": "LPbuyERC",
      "outputs": [],
      "stateMutability": "payable",
      "type": "function",
      "payable": true
    },
    {
      "inputs": [
        {
          "internalType": "uint256",
          "name": "tokens",
          "type": "uint256"
        }
      ],
      "name": "LPbuyETH",
      "outputs": [],
      "stateMutability": "nonpayable",
      "type": "function"
    },
    {
      "inputs": [],
      "name": "LPdeposit",
      "outputs": [],
      "stateMutability": "payable",
      "type": "function",
      "payable": true
    },
    {
      "inputs": [
        {
          "internalType": "uint256",
          "name": "liquid",
          "type": "uint256"
        }
      ],
      "name": "LPgetLiquidity",
      "outputs": [],
      "stateMutability": "nonpayable",
      "type": "function"
    },
    {
      "inputs": [],
      "name": "FINgetProfit",
      "outputs": [],
      "stateMutability": "nonpayable",
      "type": "function"
    },
    {
      "inputs": [
        {
          "internalType": "uint256",
          "name": "new_tokens",
          "type": "uint256"
        }
      ],
      "name": "FINarbit",
      "outputs": [],
      "stateMutability": "nonpayable",
      "type": "function"
    },
    {
      "inputs": [],
      "name": "LPtokens",
      "outputs": [
        {
          "internalType": "uint256",
          "name": "",
          "type": "uint256"
        }
      ],
      "stateMutability": "view",
      "type": "function",
      "constant": true
    },
    {
      "inputs": [],
      "name": "LPether",
      "outputs": [
        {
          "internalType": "uint256",
          "name": "",
          "type": "uint256"
        }
      ],
      "stateMutability": "view",
      "type": "function",
      "constant": true
    },
    {
      "inputs": [],
      "name": "LPliquidity",
      "outputs": [
        {
          "internalType": "uint256",
          "name": "",
          "type": "uint256"
        }
      ],
      "stateMutability": "view",
      "type": "function",
      "constant": true
    },
    {
      "inputs": [
        {
          "internalType": "uint256",
          "name": "eth",
          "type": "uint256"
        }
      ],
      "name": "LPpriceForERC",
      "outputs": [
        {
          "internalType": "uint256",
          "name": "",
          "type": "uint256"
        }
      ],
      "stateMutability": "view",
      "type": "function",
      "constant": true
    },
    {
      "inputs": [
        {
          "internalType": "uint256",
          "name": "tokens",
          "type": "uint256"
        }
      ],
      "name": "LPpriceForETH",
      "outputs": [
        {
          "internalType": "uint256",
          "name": "",
          "type": "uint256"
        }
      ],
      "stateMutability": "view",
      "type": "function",
      "constant": true
    },
    {
      "inputs": [
        {
          "internalType": "uint256",
          "name": "eth",
          "type": "uint256"
        }
      ],
      "name": "LPadded",
      "outputs": [
        {
          "internalType": "uint256",
          "name": "",
          "type": "uint256"
        },
        {
          "internalType": "uint256",
          "name": "",
          "type": "uint256"
        }
      ],
      "stateMutability": "view",
      "type": "function",
      "constant": true
    },
    {
      "inputs": [
        {
          "internalType": "uint256",
          "name": "valor",
          "type": "uint256"
        }
      ],
      "name": "LPsubstracted",
      "outputs": [
        {
          "internalType": "uint256",
          "name": "",
          "type": "uint256"
        },
        {
          "internalType": "uint256",
          "name": "",
          "type": "uint256"
        }
      ],
      "stateMutability": "view",
      "type": "function",
      "constant": true
    },
    {
      "inputs": [],
      "name": "TFAmybalance",
      "outputs": [
        {
          "internalType": "uint256",
          "name": "",
          "type": "uint256"
        }
      ],
      "stateMutability": "view",
      "type": "function",
      "constant": true
    },
    {
      "inputs": [],
      "name": "TFAsupply",
      "outputs": [
        {
          "internalType": "uint256",
          "name": "",
          "type": "uint256"
        }
      ],
      "stateMutability": "view",
      "type": "function",
      "constant": true
    },
    {
      "inputs": [],
      "name": "INTrate",
      "outputs": [
        {
          "internalType": "uint256",
          "name": "",
          "type": "uint256"
        }
      ],
      "stateMutability": "view",
      "type": "function",
      "constant": true
    }
  ],
  "bytecode": "0x60806040523480156200001157600080fd5b50604051620000209062000169565b604051809103906000f0801580156200003d573d6000803e3d6000fd5b50600560006101000a81548173ffffffffffffffffffffffffffffffffffffffff021916908373ffffffffffffffffffffffffffffffffffffffff1602179055506040516200008c9062000177565b604051809103906000f080158015620000a9573d6000803e3d6000fd5b506000806101000a81548173ffffffffffffffffffffffffffffffffffffffff021916908373ffffffffffffffffffffffffffffffffffffffff160217905550600f604051620000f99062000185565b620001059190620001ea565b604051809103906000f08015801562000122573d6000803e3d6000fd5b50600660006101000a81548173ffffffffffffffffffffffffffffffffffffffff021916908373ffffffffffffffffffffffffffffffffffffffff16021790555062000207565b611a3b806200545983390190565b6119d28062006e9483390190565b610af3806200886683390190565b6000819050919050565b6000819050919050565b6000819050919050565b6000620001d2620001cc620001c68462000193565b620001a7565b6200019d565b9050919050565b620001e481620001b1565b82525050565b6000602082019050620002016000830184620001d9565b92915050565b61524280620002176000396000f3fe608060405260043610620002065760003560e01c80637eebe5c2116200011b578063d782d3c311620000a3578063e19752c8116200006d578063e19752c814620006d7578063e753e9271462000707578063ec28d2d4146200074b578063f61a2249146200077b5762000206565b8063d782d3c31462000619578063d7a8f6aa1462000647578063d8dfeb451462000677578063de34a24514620006a75762000206565b8063b6fccf8a11620000e5578063b6fccf8a1462000593578063b87265e714620005c3578063bdbe0f6614620005cf578063bdffc3be14620005ff5762000206565b80637eebe5c214620004e55780638fa9fed8146200051557806395805dad1462000543578063b41f738114620005635762000206565b80633fa4f245116200019f57806359ee2dfd116200016957806359ee2dfd14620004295780635acb25dc14620004435780635f646a8314620004715780636da7623814620004a15762000206565b80633fa4f245146200035657806340c1b5dd14620003865780635703a23014620003b657806359ccef7214620003fb5762000206565b806331e788ff11620001e157806331e788ff14620002b05780633239315314620002de57806338109dcf14620002f85780633f57943114620003285762000206565b806306357098146200020b57806316c6a7921462000250578063270d3bc01462000280575b600080fd5b3480156200021857600080fd5b50620002376004803603810190620002319190620028da565b62000787565b604051620002479291906200291d565b60405180910390f35b3480156200025d57600080fd5b506200026862000833565b604051620002779190620029d5565b60405180910390f35b3480156200028d57600080fd5b506200029862000859565b604051620002a7919062002a96565b60405180910390f35b348015620002bd57600080fd5b50620002dc6004803603810190620002d6919062002c0b565b620008f7565b005b348015620002eb57600080fd5b50620002f662000b22565b005b3480156200030557600080fd5b506200031062000c6f565b6040516200031f919062002c81565b60405180910390f35b3480156200033557600080fd5b506200035460048036038101906200034e919062002c9e565b62000c95565b005b3480156200036357600080fd5b506200036e62000e1a565b6040516200037d919062002d19565b60405180910390f35b3480156200039357600080fd5b506200039e62000e20565b604051620003ad919062002a96565b60405180910390f35b348015620003c357600080fd5b50620003e26004803603810190620003dc9190620028da565b62000ebe565b604051620003f29291906200291d565b60405180910390f35b3480156200040857600080fd5b50620004276004803603810190620004219190620028da565b62000f6a565b005b3480156200043657600080fd5b50620004416200115f565b005b3480156200045057600080fd5b506200046f6004803603810190620004699190620028da565b620013e6565b005b3480156200047e57600080fd5b5062000489620015ff565b60405162000498919062002d19565b60405180910390f35b348015620004ae57600080fd5b50620004cd6004803603810190620004c79190620028da565b6200169a565b604051620004dc919062002d19565b60405180910390f35b348015620004f257600080fd5b50620004fd62001744565b6040516200050c919062002d5b565b60405180910390f35b3480156200052257600080fd5b506200054160048036038101906200053b9190620028da565b62001768565b005b6200056160048036038101906200055b9190620028da565b620018c6565b005b3480156200057057600080fd5b506200057b62001ce0565b6040516200058a919062002d19565b60405180910390f35b348015620005a057600080fd5b50620005ab62001d88565b604051620005ba919062002d9d565b60405180910390f35b620005cd62001dae565b005b348015620005dc57600080fd5b50620005e762001fc2565b604051620005f6919062002d19565b60405180910390f35b3480156200060c57600080fd5b50620006176200205d565b005b3480156200062657600080fd5b506200064560048036038101906200063f919062002c0b565b620021c7565b005b3480156200065457600080fd5b506200065f620023f2565b6040516200066e919062002d19565b60405180910390f35b3480156200068457600080fd5b506200068f6200248d565b6040516200069e919062002d19565b60405180910390f35b348015620006b457600080fd5b50620006bf62002493565b604051620006ce919062002d19565b60405180910390f35b348015620006e457600080fd5b50620006ef6200252e565b604051620006fe919062002d19565b60405180910390f35b3480156200071457600080fd5b506200073360048036038101906200072d9190620028da565b62002534565b60405162000742919062002d19565b60405180910390f35b3480156200075857600080fd5b5062000763620025de565b60405162000772919062002d19565b60405180910390f35b6200078562002679565b005b600080600560009054906101000a900473ffffffffffffffffffffffffffffffffffffffff1673ffffffffffffffffffffffffffffffffffffffff16631eb928aa846040518263ffffffff1660e01b8152600401620007e7919062002d19565b6040805180830381865afa15801562000804573d6000803e3d6000fd5b505050506040513d601f19601f820116820180604052508101906200082a919062002dd1565b91509150915091565b600660009054906101000a900473ffffffffffffffffffffffffffffffffffffffff1681565b606060008054906101000a900473ffffffffffffffffffffffffffffffffffffffff1673ffffffffffffffffffffffffffffffffffffffff166309bd5a606040518163ffffffff1660e01b8152600401600060405180830381865afa158015620008c7573d6000803e3d6000fd5b505050506040513d6000823e3d601f19601f82011682018060405250810190620008f2919062002e96565b905090565b3373ffffffffffffffffffffffffffffffffffffffff1660008054906101000a900473ffffffffffffffffffffffffffffffffffffffff1673ffffffffffffffffffffffffffffffffffffffff16638da5cb5b6040518163ffffffff1660e01b8152600401602060405180830381865afa1580156200097a573d6000803e3d6000fd5b505050506040513d601f19601f82011682018060405250810190620009a0919062002f2c565b73ffffffffffffffffffffffffffffffffffffffff1614620009c157600080fd5b60008054906101000a900473ffffffffffffffffffffffffffffffffffffffff1673ffffffffffffffffffffffffffffffffffffffff16638d15d676826040518263ffffffff1660e01b815260040162000a1c919062002a96565b600060405180830381600087803b15801562000a3757600080fd5b505af115801562000a4c573d6000803e3d6000fd5b505050506001600660146101000a81548160ff021916908315150217905550600660149054906101000a900460ff16801562000a945750600660159054906101000a900460ff165b1562000b1f57600660009054906101000a900473ffffffffffffffffffffffffffffffffffffffff1673ffffffffffffffffffffffffffffffffffffffff166384c6e2c86040518163ffffffff1660e01b8152600401600060405180830381600087803b15801562000b0557600080fd5b505af115801562000b1a573d6000803e3d6000fd5b505050505b50565b62000c6d600660009054906101000a900473ffffffffffffffffffffffffffffffffffffffff1673ffffffffffffffffffffffffffffffffffffffff1663131e2f18600560009054906101000a900473ffffffffffffffffffffffffffffffffffffffff1673ffffffffffffffffffffffffffffffffffffffff166366b3f6bf326040518263ffffffff1660e01b815260040162000bc1919062002f6f565b602060405180830381865afa15801562000bdf573d6000803e3d6000fd5b505050506040513d601f19601f8201168201806040525081019062000c05919062002f8c565b6040518263ffffffff1660e01b815260040162000c23919062002d19565b602060405180830381865afa15801562000c41573d6000803e3d6000fd5b505050506040513d601f19601f8201168201806040525081019062000c67919062002f8c565b62000f6a565b565b600460009054906101000a900473ffffffffffffffffffffffffffffffffffffffff1681565b816001819055508060028190555060008054906101000a900473ffffffffffffffffffffffffffffffffffffffff1673ffffffffffffffffffffffffffffffffffffffff1663036b6110846040518263ffffffff1660e01b815260040162000cfe919062002a96565b600060405180830381600087803b15801562000d1957600080fd5b505af115801562000d2e573d6000803e3d6000fd5b5050505060008054906101000a900473ffffffffffffffffffffffffffffffffffffffff1673ffffffffffffffffffffffffffffffffffffffff166313af4035336040518263ffffffff1660e01b815260040162000d8d919062002f6f565b600060405180830381600087803b15801562000da857600080fd5b505af115801562000dbd573d6000803e3d6000fd5b505050503373ffffffffffffffffffffffffffffffffffffffff167f66c0e157fdff18242032cbe1aa0b731eb49ff6e593bccbf1fded370364610c1984848460405162000e0d9392919062002fbe565b60405180910390a2505050565b60015481565b606060008054906101000a900473ffffffffffffffffffffffffffffffffffffffff1673ffffffffffffffffffffffffffffffffffffffff16631c4695f46040518163ffffffff1660e01b8152600401600060405180830381865afa15801562000e8e573d6000803e3d6000fd5b505050506040513d6000823e3d601f19601f8201168201806040525081019062000eb9919062002e96565b905090565b600080600560009054906101000a900473ffffffffffffffffffffffffffffffffffffffff1673ffffffffffffffffffffffffffffffffffffffff16635f244d4e846040518263ffffffff1660e01b815260040162000f1e919062002d19565b6040805180830381865afa15801562000f3b573d6000803e3d6000fd5b505050506040513d601f19601f8201168201806040525081019062000f61919062002dd1565b91509150915091565b600560009054906101000a900473ffffffffffffffffffffffffffffffffffffffff1673ffffffffffffffffffffffffffffffffffffffff16632e1a7d4d826040518263ffffffff1660e01b815260040162000fc7919062002d19565b600060405180830381600087803b15801562000fe257600080fd5b505af115801562000ff7573d6000803e3d6000fd5b505050507f6a12f6dac03652b58a50bbf88d534acc4fe08e3d534d2e08dde9e43c4adbcb3f600560009054906101000a900473ffffffffffffffffffffffffffffffffffffffff1673ffffffffffffffffffffffffffffffffffffffff16638666107c6040518163ffffffff1660e01b8152600401602060405180830381865afa1580156200108a573d6000803e3d6000fd5b505050506040513d601f19601f82011682018060405250810190620010b0919062002f8c565b600560009054906101000a900473ffffffffffffffffffffffffffffffffffffffff1673ffffffffffffffffffffffffffffffffffffffff166374942c0f6040518163ffffffff1660e01b8152600401602060405180830381865afa1580156200111e573d6000803e3d6000fd5b505050506040513d601f19601f8201168201806040525081019062001144919062002f8c565b604051620011549291906200291d565b60405180910390a150565b60008054906101000a900473ffffffffffffffffffffffffffffffffffffffff1673ffffffffffffffffffffffffffffffffffffffff16636901f6686040518163ffffffff1660e01b8152600401600060405180830381600087803b158015620011c857600080fd5b505af1158015620011dd573d6000803e3d6000fd5b5050505060008054906101000a900473ffffffffffffffffffffffffffffffffffffffff1673ffffffffffffffffffffffffffffffffffffffff1663ac7fdd396040518163ffffffff1660e01b8152600401602060405180830381865afa1580156200124d573d6000803e3d6000fd5b505050506040513d601f19601f820116820180604052508101906200127391906200303f565b15620012fe57600660009054906101000a900473ffffffffffffffffffffffffffffffffffffffff1673ffffffffffffffffffffffffffffffffffffffff1663effc1fe06040518163ffffffff1660e01b8152600401600060405180830381600087803b158015620012e457600080fd5b505af1158015620012f9573d6000803e3d6000fd5b505050505b3373ffffffffffffffffffffffffffffffffffffffff167fd745e77520d6aab6ac2e6c9e597b7a9d8f8bf270ffa7234028791f24c594cafc60008054906101000a900473ffffffffffffffffffffffffffffffffffffffff1673ffffffffffffffffffffffffffffffffffffffff1663a29325586040518163ffffffff1660e01b8152600401600060405180830381865afa158015620013a2573d6000803e3d6000fd5b505050506040513d6000823e3d601f19601f82011682018060405250810190620013cd919062002e96565b604051620013dc919062002a96565b60405180910390a2565b600460009054906101000a900473ffffffffffffffffffffffffffffffffffffffff1673ffffffffffffffffffffffffffffffffffffffff1663e1f21c6732600560009054906101000a900473ffffffffffffffffffffffffffffffffffffffff16846040518463ffffffff1660e01b8152600401620014699392919062003071565b600060405180830381600087803b1580156200148457600080fd5b505af115801562001499573d6000803e3d6000fd5b50505050600560009054906101000a900473ffffffffffffffffffffffffffffffffffffffff1673ffffffffffffffffffffffffffffffffffffffff1663debc674c826040518263ffffffff1660e01b8152600401620014fa919062002d19565b600060405180830381600087803b1580156200151557600080fd5b505af11580156200152a573d6000803e3d6000fd5b505050507ff3da8edf69f7653a76e82879ae64fe7833d633c94e285ad53aa241a27e63b86781600560009054906101000a900473ffffffffffffffffffffffffffffffffffffffff1673ffffffffffffffffffffffffffffffffffffffff16638666107c6040518163ffffffff1660e01b8152600401602060405180830381865afa158015620015be573d6000803e3d6000fd5b505050506040513d601f19601f82011682018060405250810190620015e4919062002f8c565b604051620015f49291906200291d565b60405180910390a150565b6000600560009054906101000a900473ffffffffffffffffffffffffffffffffffffffff1673ffffffffffffffffffffffffffffffffffffffff166382b2e2576040518163ffffffff1660e01b8152600401602060405180830381865afa1580156200166f573d6000803e3d6000fd5b505050506040513d601f19601f8201168201806040525081019062001695919062002f8c565b905090565b6000600560009054906101000a900473ffffffffffffffffffffffffffffffffffffffff1673ffffffffffffffffffffffffffffffffffffffff166372a9d124836040518263ffffffff1660e01b8152600401620016f9919062002d19565b602060405180830381865afa15801562001717573d6000803e3d6000fd5b505050506040513d601f19601f820116820180604052508101906200173d919062002f8c565b9050919050565b60008054906101000a900473ffffffffffffffffffffffffffffffffffffffff1681565b3373ffffffffffffffffffffffffffffffffffffffff1660008054906101000a900473ffffffffffffffffffffffffffffffffffffffff1673ffffffffffffffffffffffffffffffffffffffff16638da5cb5b6040518163ffffffff1660e01b8152600401602060405180830381865afa158015620017eb573d6000803e3d6000fd5b505050506040513d601f19601f8201168201806040525081019062001811919062002f2c565b73ffffffffffffffffffffffffffffffffffffffff16146200183257600080fd5b600460009054906101000a900473ffffffffffffffffffffffffffffffffffffffff1673ffffffffffffffffffffffffffffffffffffffff16634a7dd523826040518263ffffffff1660e01b81526004016200188f919062002d19565b600060405180830381600087803b158015620018aa57600080fd5b505af1158015620018bf573d6000803e3d6000fd5b5050505050565b34600381905550600481620018dc9190620030dd565b604051620018ea906200287d565b620018f6919062002d19565b604051809103906000f08015801562001913573d6000803e3d6000fd5b50600460006101000a81548173ffffffffffffffffffffffffffffffffffffffff021916908373ffffffffffffffffffffffffffffffffffffffff1602179055506000600460009054906101000a900473ffffffffffffffffffffffffffffffffffffffff1673ffffffffffffffffffffffffffffffffffffffff1663313ce5676040518163ffffffff1660e01b8152600401602060405180830381865afa158015620019c4573d6000803e3d6000fd5b505050506040513d601f19601f82011682018060405250810190620019ea91906200317c565b60ff16600a620019fb919062003302565b8262001a089190620030dd565b9050600460009054906101000a900473ffffffffffffffffffffffffffffffffffffffff1673ffffffffffffffffffffffffffffffffffffffff1663e1f21c6732600560009054906101000a900473ffffffffffffffffffffffffffffffffffffffff16600460009054906101000a900473ffffffffffffffffffffffffffffffffffffffff1673ffffffffffffffffffffffffffffffffffffffff166318160ddd6040518163ffffffff1660e01b8152600401602060405180830381865afa15801562001ada573d6000803e3d6000fd5b505050506040513d601f19601f8201168201806040525081019062001b00919062002f8c565b6040518463ffffffff1660e01b815260040162001b209392919062003071565b600060405180830381600087803b15801562001b3b57600080fd5b505af115801562001b50573d6000803e3d6000fd5b50505050600560009054906101000a900473ffffffffffffffffffffffffffffffffffffffff1673ffffffffffffffffffffffffffffffffffffffff1663cd6dc68734600460009054906101000a900473ffffffffffffffffffffffffffffffffffffffff16846040518463ffffffff1660e01b815260040162001bd692919062003353565b6000604051808303818588803b15801562001bf057600080fd5b505af115801562001c05573d6000803e3d6000fd5b5050505050600660009054906101000a900473ffffffffffffffffffffffffffffffffffffffff1673ffffffffffffffffffffffffffffffffffffffff16639f8af9dd6001546003546040518363ffffffff1660e01b815260040162001c6d9291906200291d565b600060405180830381600087803b15801562001c8857600080fd5b505af115801562001c9d573d6000803e3d6000fd5b505050507ff0498cb22b56641ed33901df52ba1ca98815bf7428aaf69cb0a27c0f94cacc0d813460405162001cd49291906200291d565b60405180910390a15050565b6000600460009054906101000a900473ffffffffffffffffffffffffffffffffffffffff1673ffffffffffffffffffffffffffffffffffffffff166370a08231326040518263ffffffff1660e01b815260040162001d3f919062002f6f565b602060405180830381865afa15801562001d5d573d6000803e3d6000fd5b505050506040513d601f19601f8201168201806040525081019062001d83919062002f8c565b905090565b600560009054906101000a900473ffffffffffffffffffffffffffffffffffffffff1681565b600460009054906101000a900473ffffffffffffffffffffffffffffffffffffffff1673ffffffffffffffffffffffffffffffffffffffff1663e1f21c6732600560009054906101000a900473ffffffffffffffffffffffffffffffffffffffff1662001e1b34620027ce565b6040518463ffffffff1660e01b815260040162001e3b9392919062003071565b600060405180830381600087803b15801562001e5657600080fd5b505af115801562001e6b573d6000803e3d6000fd5b50505050600560009054906101000a900473ffffffffffffffffffffffffffffffffffffffff1673ffffffffffffffffffffffffffffffffffffffff1663d0e30db0346040518263ffffffff1660e01b81526004016000604051808303818588803b15801562001eda57600080fd5b505af115801562001eef573d6000803e3d6000fd5b50505050507f62b16c68815e64e71e004ad1900bfeefa3a6eb2fec66b573210155de12fd5e7b600560009054906101000a900473ffffffffffffffffffffffffffffffffffffffff1673ffffffffffffffffffffffffffffffffffffffff1663707e7e876040518163ffffffff1660e01b8152600401602060405180830381865afa15801562001f83573d6000803e3d6000fd5b505050506040513d601f19601f8201168201806040525081019062001fa9919062002f8c565b60405162001fb8919062002d19565b60405180910390a1565b6000600660009054906101000a900473ffffffffffffffffffffffffffffffffffffffff1673ffffffffffffffffffffffffffffffffffffffff16632c4e722e6040518163ffffffff1660e01b8152600401602060405180830381865afa15801562002032573d6000803e3d6000fd5b505050506040513d601f19601f8201168201806040525081019062002058919062002f8c565b905090565b60008054906101000a900473ffffffffffffffffffffffffffffffffffffffff1673ffffffffffffffffffffffffffffffffffffffff16635836e0b56040518163ffffffff1660e01b8152600401600060405180830381600087803b158015620020c657600080fd5b505af1158015620020db573d6000803e3d6000fd5b505050503373ffffffffffffffffffffffffffffffffffffffff167f7832ed08fa8e9bf7d3ffa10fb5bcdb96f474be17f79b657bb7f23facb23a898b60008054906101000a900473ffffffffffffffffffffffffffffffffffffffff1673ffffffffffffffffffffffffffffffffffffffff1663a29325586040518163ffffffff1660e01b8152600401600060405180830381865afa15801562002183573d6000803e3d6000fd5b505050506040513d6000823e3d601f19601f82011682018060405250810190620021ae919062002e96565b604051620021bd919062002a96565b60405180910390a2565b3373ffffffffffffffffffffffffffffffffffffffff1660008054906101000a900473ffffffffffffffffffffffffffffffffffffffff1673ffffffffffffffffffffffffffffffffffffffff16638da5cb5b6040518163ffffffff1660e01b8152600401602060405180830381865afa1580156200224a573d6000803e3d6000fd5b505050506040513d601f19601f8201168201806040525081019062002270919062002f2c565b73ffffffffffffffffffffffffffffffffffffffff16146200229157600080fd5b60008054906101000a900473ffffffffffffffffffffffffffffffffffffffff1673ffffffffffffffffffffffffffffffffffffffff16631d846c65826040518263ffffffff1660e01b8152600401620022ec919062002a96565b600060405180830381600087803b1580156200230757600080fd5b505af11580156200231c573d6000803e3d6000fd5b505050506001600660156101000a81548160ff021916908315150217905550600660149054906101000a900460ff168015620023645750600660159054906101000a900460ff165b15620023ef57600660009054906101000a900473ffffffffffffffffffffffffffffffffffffffff1673ffffffffffffffffffffffffffffffffffffffff166384c6e2c86040518163ffffffff1660e01b8152600401600060405180830381600087803b158015620023d557600080fd5b505af1158015620023ea573d6000803e3d6000fd5b505050505b50565b6000600460009054906101000a900473ffffffffffffffffffffffffffffffffffffffff1673ffffffffffffffffffffffffffffffffffffffff166318160ddd6040518163ffffffff1660e01b8152600401602060405180830381865afa15801562002462573d6000803e3d6000fd5b505050506040513d601f19601f8201168201806040525081019062002488919062002f8c565b905090565b60035481565b6000600560009054906101000a900473ffffffffffffffffffffffffffffffffffffffff1673ffffffffffffffffffffffffffffffffffffffff166331f3bd286040518163ffffffff1660e01b8152600401602060405180830381865afa15801562002503573d6000803e3d6000fd5b505050506040513d601f19601f8201168201806040525081019062002529919062002f8c565b905090565b60025481565b6000600560009054906101000a900473ffffffffffffffffffffffffffffffffffffffff1673ffffffffffffffffffffffffffffffffffffffff166367da263d836040518263ffffffff1660e01b815260040162002593919062002d19565b602060405180830381865afa158015620025b1573d6000803e3d6000fd5b505050506040513d601f19601f82011682018060405250810190620025d7919062002f8c565b9050919050565b6000600560009054906101000a900473ffffffffffffffffffffffffffffffffffffffff1673ffffffffffffffffffffffffffffffffffffffff166312065fe06040518163ffffffff1660e01b8152600401602060405180830381865afa1580156200264e573d6000803e3d6000fd5b505050506040513d601f19601f8201168201806040525081019062002674919062002f8c565b905090565b600560009054906101000a900473ffffffffffffffffffffffffffffffffffffffff1673ffffffffffffffffffffffffffffffffffffffff16637937c03d346040518263ffffffff1660e01b81526004016000604051808303818588803b158015620026e457600080fd5b505af1158015620026f9573d6000803e3d6000fd5b50505050507f3647e5ca8fe544bafdf71b27b82e0206b70e6fda46bda02cbacd87b72363c82b34600560009054906101000a900473ffffffffffffffffffffffffffffffffffffffff1673ffffffffffffffffffffffffffffffffffffffff166374942c0f6040518163ffffffff1660e01b8152600401602060405180830381865afa1580156200278e573d6000803e3d6000fd5b505050506040513d601f19601f82011682018060405250810190620027b4919062002f8c565b604051620027c49291906200291d565b60405180910390a1565b600080600560009054906101000a900473ffffffffffffffffffffffffffffffffffffffff1673ffffffffffffffffffffffffffffffffffffffff16635f244d4e846040518263ffffffff1660e01b81526004016200282e919062002d19565b6040805180830381865afa1580156200284b573d6000803e3d6000fd5b505050506040513d601f19601f8201168201806040525081019062002871919062002dd1565b50905080915050919050565b611e8c806200338183390190565b6000604051905090565b600080fd5b600080fd5b6000819050919050565b620028b4816200289f565b8114620028c057600080fd5b50565b600081359050620028d481620028a9565b92915050565b600060208284031215620028f357620028f262002895565b5b60006200290384828501620028c3565b91505092915050565b62002917816200289f565b82525050565b60006040820190506200293460008301856200290c565b6200294360208301846200290c565b9392505050565b600073ffffffffffffffffffffffffffffffffffffffff82169050919050565b6000819050919050565b6000620029956200298f62002989846200294a565b6200296a565b6200294a565b9050919050565b6000620029a98262002974565b9050919050565b6000620029bd826200299c565b9050919050565b620029cf81620029b0565b82525050565b6000602082019050620029ec6000830184620029c4565b92915050565b600081519050919050565b600082825260208201905092915050565b60005b8381101562002a2e57808201518184015260208101905062002a11565b8381111562002a3e576000848401525b50505050565b6000601f19601f8301169050919050565b600062002a6282620029f2565b62002a6e8185620029fd565b935062002a8081856020860162002a0e565b62002a8b8162002a44565b840191505092915050565b6000602082019050818103600083015262002ab2818462002a55565b905092915050565b600080fd5b600080fd5b7f4e487b7100000000000000000000000000000000000000000000000000000000600052604160045260246000fd5b62002afe8262002a44565b810181811067ffffffffffffffff8211171562002b205762002b1f62002ac4565b5b80604052505050565b600062002b356200288b565b905062002b43828262002af3565b919050565b600067ffffffffffffffff82111562002b665762002b6562002ac4565b5b62002b718262002a44565b9050602081019050919050565b82818337600083830152505050565b600062002ba462002b9e8462002b48565b62002b29565b90508281526020810184848401111562002bc35762002bc262002abf565b5b62002bd084828562002b7e565b509392505050565b600082601f83011262002bf05762002bef62002aba565b5b813562002c0284826020860162002b8d565b91505092915050565b60006020828403121562002c245762002c2362002895565b5b600082013567ffffffffffffffff81111562002c455762002c446200289a565b5b62002c538482850162002bd8565b91505092915050565b600062002c69826200299c565b9050919050565b62002c7b8162002c5c565b82525050565b600060208201905062002c98600083018462002c70565b92915050565b60008060006060848603121562002cba5762002cb962002895565b5b600084013567ffffffffffffffff81111562002cdb5762002cda6200289a565b5b62002ce98682870162002bd8565b935050602062002cfc86828701620028c3565b925050604062002d0f86828701620028c3565b9150509250925092565b600060208201905062002d3060008301846200290c565b92915050565b600062002d43826200299c565b9050919050565b62002d558162002d36565b82525050565b600060208201905062002d72600083018462002d4a565b92915050565b600062002d85826200299c565b9050919050565b62002d978162002d78565b82525050565b600060208201905062002db4600083018462002d8c565b92915050565b60008151905062002dcb81620028a9565b92915050565b6000806040838503121562002deb5762002dea62002895565b5b600062002dfb8582860162002dba565b925050602062002e0e8582860162002dba565b9150509250929050565b600062002e2f62002e298462002b48565b62002b29565b90508281526020810184848401111562002e4e5762002e4d62002abf565b5b62002e5b84828562002a0e565b509392505050565b600082601f83011262002e7b5762002e7a62002aba565b5b815162002e8d84826020860162002e18565b91505092915050565b60006020828403121562002eaf5762002eae62002895565b5b600082015167ffffffffffffffff81111562002ed05762002ecf6200289a565b5b62002ede8482850162002e63565b91505092915050565b600062002ef4826200294a565b9050919050565b62002f068162002ee7565b811462002f1257600080fd5b50565b60008151905062002f268162002efb565b92915050565b60006020828403121562002f455762002f4462002895565b5b600062002f558482850162002f15565b91505092915050565b62002f698162002ee7565b82525050565b600060208201905062002f86600083018462002f5e565b92915050565b60006020828403121562002fa55762002fa462002895565b5b600062002fb58482850162002dba565b91505092915050565b6000606082019050818103600083015262002fda818662002a55565b905062002feb60208301856200290c565b62002ffa60408301846200290c565b949350505050565b60008115159050919050565b620030198162003002565b81146200302557600080fd5b50565b60008151905062003039816200300e565b92915050565b60006020828403121562003058576200305762002895565b5b6000620030688482850162003028565b91505092915050565b600060608201905062003088600083018662002f5e565b62003097602083018562002f5e565b620030a660408301846200290c565b949350505050565b7f4e487b7100000000000000000000000000000000000000000000000000000000600052601160045260246000fd5b6000620030ea826200289f565b9150620030f7836200289f565b9250817fffffffffffffffffffffffffffffffffffffffffffffffffffffffffffffffff0483118215151615620031335762003132620030ae565b5b828202905092915050565b600060ff82169050919050565b62003156816200313e565b81146200316257600080fd5b50565b60008151905062003176816200314b565b92915050565b60006020828403121562003195576200319462002895565b5b6000620031a58482850162003165565b91505092915050565b60008160011c9050919050565b6000808291508390505b60018511156200320d57808604811115620031e557620031e4620030ae565b5b6001851615620031f55780820291505b80810290506200320585620031ae565b9450620031c5565b94509492505050565b600082620032285760019050620032fb565b81620032385760009050620032fb565b81600181146200325157600281146200325c5762003292565b6001915050620032fb565b60ff841115620032715762003270620030ae565b5b8360020a9150848211156200328b576200328a620030ae565b5b50620032fb565b5060208310610133831016604e8410600b8410161715620032cc5782820a905083811115620032c657620032c5620030ae565b5b620032fb565b620032db8484846001620031bb565b92509050818404811115620032f557620032f4620030ae565b5b81810290505b9392505050565b60006200330f826200289f565b91506200331c836200289f565b92506200334b7fffffffffffffffffffffffffffffffffffffffffffffffffffffffffffffffff848462003216565b905092915050565b60006040820190506200336a600083018562002f5e565b6200337960208301846200290c565b939250505056fe60806040523480156200001157600080fd5b5060405162001e8c38038062001e8c8339818101604052810190620000379190620002da565b6040518060400160405280600581526020017f546f6b66610000000000000000000000000000000000000000000000000000008152506040518060400160405280600381526020017f54464100000000000000000000000000000000000000000000000000000000008152508160039081620000b491906200057c565b508060049081620000c691906200057c565b5050506200010832620000de6200010f60201b60201c565b60ff16600a620000ef9190620007e6565b83620000fc919062000837565b6200011860201b60201c565b50620009a6565b60006012905090565b600073ffffffffffffffffffffffffffffffffffffffff168273ffffffffffffffffffffffffffffffffffffffff16036200018a576040517f08c379a00000000000000000000000000000000000000000000000000000000081526004016200018190620008f9565b60405180910390fd5b6200019e600083836200029060201b60201c565b8060026000828254620001b291906200091b565b92505081905550806000808473ffffffffffffffffffffffffffffffffffffffff1673ffffffffffffffffffffffffffffffffffffffff16815260200190815260200160002060008282546200020991906200091b565b925050819055508173ffffffffffffffffffffffffffffffffffffffff16600073ffffffffffffffffffffffffffffffffffffffff167fddf252ad1be2c89b69c2b068fc378daa952ba7f163c4a11628f55a4df523b3ef8360405162000270919062000989565b60405180910390a36200028c600083836200029560201b60201c565b5050565b505050565b505050565b600080fd5b6000819050919050565b620002b4816200029f565b8114620002c057600080fd5b50565b600081519050620002d481620002a9565b92915050565b600060208284031215620002f357620002f26200029a565b5b60006200030384828501620002c3565b91505092915050565b600081519050919050565b7f4e487b7100000000000000000000000000000000000000000000000000000000600052604160045260246000fd5b7f4e487b7100000000000000000000000000000000000000000000000000000000600052602260045260246000fd5b600060028204905060018216806200038e57607f821691505b602082108103620003a457620003a362000346565b5b50919050565b60008190508160005260206000209050919050565b60006020601f8301049050919050565b600082821b905092915050565b6000600883026200040e7fffffffffffffffffffffffffffffffffffffffffffffffffffffffffffffffff82620003cf565b6200041a8683620003cf565b95508019841693508086168417925050509392505050565b6000819050919050565b60006200045d6200045762000451846200029f565b62000432565b6200029f565b9050919050565b6000819050919050565b62000479836200043c565b62000491620004888262000464565b848454620003dc565b825550505050565b600090565b620004a862000499565b620004b58184846200046e565b505050565b5b81811015620004dd57620004d16000826200049e565b600181019050620004bb565b5050565b601f8211156200052c57620004f681620003aa565b6200050184620003bf565b8101602085101562000511578190505b620005296200052085620003bf565b830182620004ba565b50505b505050565b600082821c905092915050565b6000620005516000198460080262000531565b1980831691505092915050565b60006200056c83836200053e565b9150826002028217905092915050565b62000587826200030c565b67ffffffffffffffff811115620005a357620005a262000317565b5b620005af825462000375565b620005bc828285620004e1565b600060209050601f831160018114620005f45760008415620005df578287015190505b620005eb85826200055e565b8655506200065b565b601f1984166200060486620003aa565b60005b828110156200062e5784890151825560018201915060208501945060208101905062000607565b868310156200064e57848901516200064a601f8916826200053e565b8355505b6001600288020188555050505b505050505050565b7f4e487b7100000000000000000000000000000000000000000000000000000000600052601160045260246000fd5b60008160011c9050919050565b6000808291508390505b6001851115620006f157808604811115620006c957620006c862000663565b5b6001851615620006d95780820291505b8081029050620006e98562000692565b9450620006a9565b94509492505050565b6000826200070c5760019050620007df565b816200071c5760009050620007df565b8160018114620007355760028114620007405762000776565b6001915050620007df565b60ff84111562000755576200075462000663565b5b8360020a9150848211156200076f576200076e62000663565b5b50620007df565b5060208310610133831016604e8410600b8410161715620007b05782820a905083811115620007aa57620007a962000663565b5b620007df565b620007bf84848460016200069f565b92509050818404811115620007d957620007d862000663565b5b81810290505b9392505050565b6000620007f3826200029f565b915062000800836200029f565b92506200082f7fffffffffffffffffffffffffffffffffffffffffffffffffffffffffffffffff8484620006fa565b905092915050565b600062000844826200029f565b915062000851836200029f565b9250817fffffffffffffffffffffffffffffffffffffffffffffffffffffffffffffffff04831182151516156200088d576200088c62000663565b5b828202905092915050565b600082825260208201905092915050565b7f45524332303a206d696e7420746f20746865207a65726f206164647265737300600082015250565b6000620008e1601f8362000898565b9150620008ee82620008a9565b602082019050919050565b600060208201905081810360008301526200091481620008d2565b9050919050565b600062000928826200029f565b915062000935836200029f565b9250827fffffffffffffffffffffffffffffffffffffffffffffffffffffffffffffffff038211156200096d576200096c62000663565b5b828201905092915050565b62000983816200029f565b82525050565b6000602082019050620009a0600083018462000978565b92915050565b6114d680620009b66000396000f3fe608060405234801561001057600080fd5b50600436106100cf5760003560e01c80634a7dd5231161008c578063a457c2d711610066578063a457c2d714610228578063a9059cbb14610258578063dd62ed3e14610288578063e1f21c67146102b8576100cf565b80634a7dd523146101be57806370a08231146101da57806395d89b411461020a576100cf565b806306fdde03146100d4578063095ea7b3146100f257806318160ddd1461012257806323b872dd14610140578063313ce56714610170578063395093511461018e575b600080fd5b6100dc6102d4565b6040516100e99190610cf8565b60405180910390f35b61010c60048036038101906101079190610db3565b610366565b6040516101199190610e0e565b60405180910390f35b61012a610389565b6040516101379190610e38565b60405180910390f35b61015a60048036038101906101559190610e53565b610393565b6040516101679190610e0e565b60405180910390f35b6101786103c2565b6040516101859190610ec2565b60405180910390f35b6101a860048036038101906101a39190610db3565b6103cb565b6040516101b59190610e0e565b60405180910390f35b6101d860048036038101906101d39190610edd565b610402565b005b6101f460048036038101906101ef9190610f0a565b61040f565b6040516102019190610e38565b60405180910390f35b610212610457565b60405161021f9190610cf8565b60405180910390f35b610242600480360381019061023d9190610db3565b6104e9565b60405161024f9190610e0e565b60405180910390f35b610272600480360381019061026d9190610db3565b610560565b60405161027f9190610e0e565b60405180910390f35b6102a2600480360381019061029d9190610f37565b610583565b6040516102af9190610e38565b60405180910390f35b6102d260048036038101906102cd9190610e53565b61060a565b005b6060600380546102e390610fa6565b80601f016020809104026020016040519081016040528092919081815260200182805461030f90610fa6565b801561035c5780601f106103315761010080835404028352916020019161035c565b820191906000526020600020905b81548152906001019060200180831161033f57829003601f168201915b5050505050905090565b60008061037161061a565b905061037e818585610622565b600191505092915050565b6000600254905090565b60008061039e61061a565b90506103ab8582856107eb565b6103b6858585610877565b60019150509392505050565b60006012905090565b6000806103d661061a565b90506103f78185856103e88589610583565b6103f29190611006565b610622565b600191505092915050565b61040c3282610af6565b50565b60008060008373ffffffffffffffffffffffffffffffffffffffff1673ffffffffffffffffffffffffffffffffffffffff168152602001908152602001600020549050919050565b60606004805461046690610fa6565b80601f016020809104026020016040519081016040528092919081815260200182805461049290610fa6565b80156104df5780601f106104b4576101008083540402835291602001916104df565b820191906000526020600020905b8154815290600101906020018083116104c257829003601f168201915b5050505050905090565b6000806104f461061a565b905060006105028286610583565b905083811015610547576040517f08c379a000000000000000000000000000000000000000000000000000000000815260040161053e906110ce565b60405180910390fd5b6105548286868403610622565b60019250505092915050565b60008061056b61061a565b9050610578818585610877565b600191505092915050565b6000600160008473ffffffffffffffffffffffffffffffffffffffff1673ffffffffffffffffffffffffffffffffffffffff16815260200190815260200160002060008373ffffffffffffffffffffffffffffffffffffffff1673ffffffffffffffffffffffffffffffffffffffff16815260200190815260200160002054905092915050565b610615838383610622565b505050565b600033905090565b600073ffffffffffffffffffffffffffffffffffffffff168373ffffffffffffffffffffffffffffffffffffffff1603610691576040517f08c379a000000000000000000000000000000000000000000000000000000000815260040161068890611160565b60405180910390fd5b600073ffffffffffffffffffffffffffffffffffffffff168273ffffffffffffffffffffffffffffffffffffffff1603610700576040517f08c379a00000000000000000000000000000000000000000000000000000000081526004016106f7906111f2565b60405180910390fd5b80600160008573ffffffffffffffffffffffffffffffffffffffff1673ffffffffffffffffffffffffffffffffffffffff16815260200190815260200160002060008473ffffffffffffffffffffffffffffffffffffffff1673ffffffffffffffffffffffffffffffffffffffff168152602001908152602001600020819055508173ffffffffffffffffffffffffffffffffffffffff168373ffffffffffffffffffffffffffffffffffffffff167f8c5be1e5ebec7d5bd14f71427d1e84f3dd0314c0f7b2291e5b200ac8c7c3b925836040516107de9190610e38565b60405180910390a3505050565b60006107f78484610583565b90507fffffffffffffffffffffffffffffffffffffffffffffffffffffffffffffffff81146108715781811015610863576040517f08c379a000000000000000000000000000000000000000000000000000000000815260040161085a9061125e565b60405180910390fd5b6108708484848403610622565b5b50505050565b600073ffffffffffffffffffffffffffffffffffffffff168373ffffffffffffffffffffffffffffffffffffffff16036108e6576040517f08c379a00000000000000000000000000000000000000000000000000000000081526004016108dd906112f0565b60405180910390fd5b600073ffffffffffffffffffffffffffffffffffffffff168273ffffffffffffffffffffffffffffffffffffffff1603610955576040517f08c379a000000000000000000000000000000000000000000000000000000000815260040161094c90611382565b60405180910390fd5b610960838383610c55565b60008060008573ffffffffffffffffffffffffffffffffffffffff1673ffffffffffffffffffffffffffffffffffffffff168152602001908152602001600020549050818110156109e6576040517f08c379a00000000000000000000000000000000000000000000000000000000081526004016109dd90611414565b60405180910390fd5b8181036000808673ffffffffffffffffffffffffffffffffffffffff1673ffffffffffffffffffffffffffffffffffffffff16815260200190815260200160002081905550816000808573ffffffffffffffffffffffffffffffffffffffff1673ffffffffffffffffffffffffffffffffffffffff1681526020019081526020016000206000828254610a799190611006565b925050819055508273ffffffffffffffffffffffffffffffffffffffff168473ffffffffffffffffffffffffffffffffffffffff167fddf252ad1be2c89b69c2b068fc378daa952ba7f163c4a11628f55a4df523b3ef84604051610add9190610e38565b60405180910390a3610af0848484610c5a565b50505050565b600073ffffffffffffffffffffffffffffffffffffffff168273ffffffffffffffffffffffffffffffffffffffff1603610b65576040517f08c379a0000000000000000000000000000000000000000000000000000000008152600401610b5c90611480565b60405180910390fd5b610b7160008383610c55565b8060026000828254610b839190611006565b92505081905550806000808473ffffffffffffffffffffffffffffffffffffffff1673ffffffffffffffffffffffffffffffffffffffff1681526020019081526020016000206000828254610bd89190611006565b925050819055508173ffffffffffffffffffffffffffffffffffffffff16600073ffffffffffffffffffffffffffffffffffffffff167fddf252ad1be2c89b69c2b068fc378daa952ba7f163c4a11628f55a4df523b3ef83604051610c3d9190610e38565b60405180910390a3610c5160008383610c5a565b5050565b505050565b505050565b600081519050919050565b600082825260208201905092915050565b60005b83811015610c99578082015181840152602081019050610c7e565b83811115610ca8576000848401525b50505050565b6000601f19601f8301169050919050565b6000610cca82610c5f565b610cd48185610c6a565b9350610ce4818560208601610c7b565b610ced81610cae565b840191505092915050565b60006020820190508181036000830152610d128184610cbf565b905092915050565b600080fd5b600073ffffffffffffffffffffffffffffffffffffffff82169050919050565b6000610d4a82610d1f565b9050919050565b610d5a81610d3f565b8114610d6557600080fd5b50565b600081359050610d7781610d51565b92915050565b6000819050919050565b610d9081610d7d565b8114610d9b57600080fd5b50565b600081359050610dad81610d87565b92915050565b60008060408385031215610dca57610dc9610d1a565b5b6000610dd885828601610d68565b9250506020610de985828601610d9e565b9150509250929050565b60008115159050919050565b610e0881610df3565b82525050565b6000602082019050610e236000830184610dff565b92915050565b610e3281610d7d565b82525050565b6000602082019050610e4d6000830184610e29565b92915050565b600080600060608486031215610e6c57610e6b610d1a565b5b6000610e7a86828701610d68565b9350506020610e8b86828701610d68565b9250506040610e9c86828701610d9e565b9150509250925092565b600060ff82169050919050565b610ebc81610ea6565b82525050565b6000602082019050610ed76000830184610eb3565b92915050565b600060208284031215610ef357610ef2610d1a565b5b6000610f0184828501610d9e565b91505092915050565b600060208284031215610f2057610f1f610d1a565b5b6000610f2e84828501610d68565b91505092915050565b60008060408385031215610f4e57610f4d610d1a565b5b6000610f5c85828601610d68565b9250506020610f6d85828601610d68565b9150509250929050565b7f4e487b7100000000000000000000000000000000000000000000000000000000600052602260045260246000fd5b60006002820490506001821680610fbe57607f821691505b602082108103610fd157610fd0610f77565b5b50919050565b7f4e487b7100000000000000000000000000000000000000000000000000000000600052601160045260246000fd5b600061101182610d7d565b915061101c83610d7d565b9250827fffffffffffffffffffffffffffffffffffffffffffffffffffffffffffffffff0382111561105157611050610fd7565b5b828201905092915050565b7f45524332303a2064656372656173656420616c6c6f77616e63652062656c6f7760008201527f207a65726f000000000000000000000000000000000000000000000000000000602082015250565b60006110b8602583610c6a565b91506110c38261105c565b604082019050919050565b600060208201905081810360008301526110e7816110ab565b9050919050565b7f45524332303a20617070726f76652066726f6d20746865207a65726f2061646460008201527f7265737300000000000000000000000000000000000000000000000000000000602082015250565b600061114a602483610c6a565b9150611155826110ee565b604082019050919050565b600060208201905081810360008301526111798161113d565b9050919050565b7f45524332303a20617070726f766520746f20746865207a65726f20616464726560008201527f7373000000000000000000000000000000000000000000000000000000000000602082015250565b60006111dc602283610c6a565b91506111e782611180565b604082019050919050565b6000602082019050818103600083015261120b816111cf565b9050919050565b7f45524332303a20696e73756666696369656e7420616c6c6f77616e6365000000600082015250565b6000611248601d83610c6a565b915061125382611212565b602082019050919050565b600060208201905081810360008301526112778161123b565b9050919050565b7f45524332303a207472616e736665722066726f6d20746865207a65726f20616460008201527f6472657373000000000000000000000000000000000000000000000000000000602082015250565b60006112da602583610c6a565b91506112e58261127e565b604082019050919050565b60006020820190508181036000830152611309816112cd565b9050919050565b7f45524332303a207472616e7366657220746f20746865207a65726f206164647260008201527f6573730000000000000000000000000000000000000000000000000000000000602082015250565b600061136c602383610c6a565b915061137782611310565b604082019050919050565b6000602082019050818103600083015261139b8161135f565b9050919050565b7f45524332303a207472616e7366657220616d6f756e742065786365656473206260008201527f616c616e63650000000000000000000000000000000000000000000000000000602082015250565b60006113fe602683610c6a565b9150611409826113a2565b604082019050919050565b6000602082019050818103600083015261142d816113f1565b9050919050565b7f45524332303a206d696e7420746f20746865207a65726f206164647265737300600082015250565b600061146a601f83610c6a565b915061147582611434565b602082019050919050565b600060208201905081810360008301526114998161145d565b905091905056fea26469706673582212201ed4f87db947509a1e0c2d3413f66b476233a615f7ddb300c9e410708dbc8c0264736f6c634300080f0033a264697066735822122042bcbf26a752bf578162bc3899144fc59190c495ee79d8882142ad32b5ff3bc464736f6c634300080f0033608060405234801561001057600080fd5b5032600260006101000a81548173ffffffffffffffffffffffffffffffffffffffff021916908373ffffffffffffffffffffffffffffffffffffffff1602179055506119da806100616000396000f3fe60806040526004361061011f5760003560e01c806372a9d124116100a0578063b8c876b111610064578063b8c876b1146103e0578063cd6dc6871461041d578063d0e30db014610439578063ddca3f4314610443578063debc674c1461046e5761011f565b806372a9d1241461031857806374942c0f146103555780637937c03d1461038057806382b2e2571461038a5780638666107c146103b55761011f565b80635f244d4e116100e75780635f244d4e146101f857806366b3f6bf1461023657806367da263d146102735780636f7bc9be146102b0578063707e7e87146102ed5761011f565b806312065fe0146101245780631eb928aa1461014f57806326c4e60d1461018d5780632e1a7d4d146101a457806331f3bd28146101cd575b600080fd5b34801561013057600080fd5b50610139610497565b60405161014691906114d0565b60405180910390f35b34801561015b57600080fd5b506101766004803603810190610171919061151c565b61049f565b604051610184929190611549565b60405180910390f35b34801561019957600080fd5b506101a2610582565b005b3480156101b057600080fd5b506101cb60048036038101906101c6919061151c565b610651565b005b3480156101d957600080fd5b506101e26108dd565b6040516101ef91906114d0565b60405180910390f35b34801561020457600080fd5b5061021f600480360381019061021a919061151c565b6108e3565b60405161022d929190611549565b60405180910390f35b34801561024257600080fd5b5061025d600480360381019061025891906115d0565b6109c4565b60405161026a91906114d0565b60405180910390f35b34801561027f57600080fd5b5061029a6004803603810190610295919061151c565b610a0d565b6040516102a791906114d0565b60405180910390f35b3480156102bc57600080fd5b506102d760048036038101906102d291906115d0565b610aba565b6040516102e491906114d0565b60405180910390f35b3480156102f957600080fd5b50610302610ad2565b60405161030f91906114d0565b60405180910390f35b34801561032457600080fd5b5061033f600480360381019061033a919061151c565b610ad8565b60405161034c91906114d0565b60405180910390f35b34801561036157600080fd5b5061036a610b90565b60405161037791906114d0565b60405180910390f35b610388610b96565b005b34801561039657600080fd5b5061039f610da0565b6040516103ac91906114d0565b60405180910390f35b3480156103c157600080fd5b506103ca610e42565b6040516103d791906114d0565b60405180910390f35b3480156103ec57600080fd5b50610407600480360381019061040291906115d0565b610e48565b60405161041491906114d0565b60405180910390f35b610437600480360381019061043291906115fd565b610e60565b005b610441610fea565b005b34801561044f57600080fd5b5061045861122b565b60405161046591906114d0565b60405180910390f35b34801561047a57600080fd5b506104956004803603810190610490919061151c565b611231565b005b600047905090565b600080600060015447856104b3919061166c565b6104bd91906116f5565b9050600060015460008054906101000a900473ffffffffffffffffffffffffffffffffffffffff1673ffffffffffffffffffffffffffffffffffffffff166370a08231306040518263ffffffff1660e01b815260040161051d9190611735565b602060405180830381865afa15801561053a573d6000803e3d6000fd5b505050506040513d601f19601f8201168201806040525081019061055e9190611765565b86610569919061166c565b61057391906116f5565b90508181935093505050915091565b60006103e860038054610595919061166c565b61059f91906116f5565b905060003273ffffffffffffffffffffffffffffffffffffffff16826040516105c7906117c3565b60006040518083038185875af1925050503d8060008114610604576040519150601f19603f3d011682016040523d82523d6000602084013e610609565b606091505b505090508061064d576040517f08c379a000000000000000000000000000000000000000000000000000000000815260040161064490611835565b60405180910390fd5b5050565b60006001544783610662919061166c565b61066c91906116f5565b9050600060015460008054906101000a900473ffffffffffffffffffffffffffffffffffffffff1673ffffffffffffffffffffffffffffffffffffffff166370a08231306040518263ffffffff1660e01b81526004016106cc9190611735565b602060405180830381865afa1580156106e9573d6000803e3d6000fd5b505050506040513d601f19601f8201168201806040525081019061070d9190611765565b84610718919061166c565b61072291906116f5565b905081600160008282546107369190611855565b9250508190555060003273ffffffffffffffffffffffffffffffffffffffff1683604051610763906117c3565b60006040518083038185875af1925050503d80600081146107a0576040519150601f19603f3d011682016040523d82523d6000602084013e6107a5565b606091505b50509050806107e9576040517f08c379a00000000000000000000000000000000000000000000000000000000081526004016107e090611835565b60405180910390fd5b60008054906101000a900473ffffffffffffffffffffffffffffffffffffffff1673ffffffffffffffffffffffffffffffffffffffff1663a9059cbb32846040518363ffffffff1660e01b8152600401610844929190611889565b6020604051808303816000875af1158015610863573d6000803e3d6000fd5b505050506040513d601f19601f8201168201806040525081019061088791906118ea565b61089057600080fd5b7f56ca301a9219608c91e7bcee90e083c19671d2cdcc96752c7af291cee5f9c8c883836040516108c1929190611549565b60405180910390a1826007819055508160068190555050505050565b60015481565b60008060004760008054906101000a900473ffffffffffffffffffffffffffffffffffffffff1673ffffffffffffffffffffffffffffffffffffffff166370a08231306040518263ffffffff1660e01b81526004016109429190611735565b602060405180830381865afa15801561095f573d6000803e3d6000fd5b505050506040513d601f19601f820116820180604052508101906109839190611765565b8561098e919061166c565b61099891906116f5565b9050600047600154866109ab919061166c565b6109b591906116f5565b90508181935093505050915091565b6000600460008373ffffffffffffffffffffffffffffffffffffffff1673ffffffffffffffffffffffffffffffffffffffff168152602001908152602001600020549050919050565b6000610ab38260008054906101000a900473ffffffffffffffffffffffffffffffffffffffff1673ffffffffffffffffffffffffffffffffffffffff166370a08231306040518263ffffffff1660e01b8152600401610a6c9190611735565b602060405180830381865afa158015610a89573d6000803e3d6000fd5b505050506040513d601f19601f82011682018060405250810190610aad9190611765565b4761148a565b9050919050565b60046020528060005260406000206000915090505481565b60085481565b6000610b89828347610aea9190611855565b60008054906101000a900473ffffffffffffffffffffffffffffffffffffffff1673ffffffffffffffffffffffffffffffffffffffff166370a08231306040518263ffffffff1660e01b8152600401610b439190611735565b602060405180830381865afa158015610b60573d6000803e3d6000fd5b505050506040513d601f19601f82011682018060405250810190610b849190611765565b61148a565b9050919050565b60065481565b6000610c47343447610ba89190611855565b60008054906101000a900473ffffffffffffffffffffffffffffffffffffffff1673ffffffffffffffffffffffffffffffffffffffff166370a08231306040518263ffffffff1660e01b8152600401610c019190611735565b602060405180830381865afa158015610c1e573d6000803e3d6000fd5b505050506040513d601f19601f82011682018060405250810190610c429190611765565b61148a565b905060008054906101000a900473ffffffffffffffffffffffffffffffffffffffff1673ffffffffffffffffffffffffffffffffffffffff1663a9059cbb32836040518363ffffffff1660e01b8152600401610ca4929190611889565b6020604051808303816000875af1158015610cc3573d6000803e3d6000fd5b505050506040513d601f19601f82011682018060405250810190610ce791906118ea565b610cf057600080fd5b3460036000828254610d029190611917565b9250508190555034600460003273ffffffffffffffffffffffffffffffffffffffff1673ffffffffffffffffffffffffffffffffffffffff1681526020019081526020016000206000828254610d589190611917565b92505081905550806006819055507fdb04c7a6d4758fd55d738ebc67e7f3010ac922be00771ef29521a4090d1eb13f81604051610d9591906114d0565b60405180910390a150565b60008060009054906101000a900473ffffffffffffffffffffffffffffffffffffffff1673ffffffffffffffffffffffffffffffffffffffff166370a08231306040518263ffffffff1660e01b8152600401610dfc9190611735565b602060405180830381865afa158015610e19573d6000803e3d6000fd5b505050506040513d601f19601f82011682018060405250810190610e3d9190611765565b905090565b60075481565b60056020528060005260406000206000915090505481565b600060015414610e6f57600080fd5b6000600381905550816000806101000a81548173ffffffffffffffffffffffffffffffffffffffff021916908373ffffffffffffffffffffffffffffffffffffffff16021790555047600181905550600154600560003273ffffffffffffffffffffffffffffffffffffffff1673ffffffffffffffffffffffffffffffffffffffff1681526020019081526020016000208190555060008054906101000a900473ffffffffffffffffffffffffffffffffffffffff1673ffffffffffffffffffffffffffffffffffffffff166323b872dd3230846040518463ffffffff1660e01b8152600401610f619392919061196d565b6020604051808303816000875af1158015610f80573d6000803e3d6000fd5b505050506040513d601f19601f82011682018060405250810190610fa491906118ea565b610fad57600080fd5b7fc43e48cf47e9fa186d0f4096c61d1fcb54159799f935a2aa32e5589688ee36e1600154604051610fde91906114d0565b60405180910390a15050565b60003447610ff89190611855565b60008054906101000a900473ffffffffffffffffffffffffffffffffffffffff1673ffffffffffffffffffffffffffffffffffffffff166370a08231306040518263ffffffff1660e01b81526004016110519190611735565b602060405180830381865afa15801561106e573d6000803e3d6000fd5b505050506040513d601f19601f820116820180604052508101906110929190611765565b3461109d919061166c565b6110a791906116f5565b9050600034476110b79190611855565b600154346110c5919061166c565b6110cf91906116f5565b905080600560003273ffffffffffffffffffffffffffffffffffffffff1673ffffffffffffffffffffffffffffffffffffffff16815260200190815260200160002060008282546111209190611917565b9250508190555080600160008282546111399190611917565b9250508190555060008054906101000a900473ffffffffffffffffffffffffffffffffffffffff1673ffffffffffffffffffffffffffffffffffffffff166323b872dd3230856040518463ffffffff1660e01b815260040161119d9392919061196d565b6020604051808303816000875af11580156111bc573d6000803e3d6000fd5b505050506040513d601f19601f820116820180604052508101906111e091906118ea565b6111e957600080fd5b7f4d6ce1e535dbade1c23defba91e23b8f791ce5edc0cc320257a2b364e4e384268160405161121891906114d0565b60405180910390a1806008819055505050565b60035481565b60006112d78260008054906101000a900473ffffffffffffffffffffffffffffffffffffffff1673ffffffffffffffffffffffffffffffffffffffff166370a08231306040518263ffffffff1660e01b81526004016112909190611735565b602060405180830381865afa1580156112ad573d6000803e3d6000fd5b505050506040513d601f19601f820116820180604052508101906112d19190611765565b4761148a565b905060003273ffffffffffffffffffffffffffffffffffffffff16826040516112ff906117c3565b60006040518083038185875af1925050503d806000811461133c576040519150601f19603f3d011682016040523d82523d6000602084013e611341565b606091505b5050905080611385576040517f08c379a000000000000000000000000000000000000000000000000000000000815260040161137c90611835565b60405180910390fd5b60008054906101000a900473ffffffffffffffffffffffffffffffffffffffff1673ffffffffffffffffffffffffffffffffffffffff166323b872dd3230866040518463ffffffff1660e01b81526004016113e29392919061196d565b6020604051808303816000875af1158015611401573d6000803e3d6000fd5b505050506040513d601f19601f8201168201806040525081019061142591906118ea565b61142e57600080fd5b81600360008282546114409190611917565b925050819055507f4dbf3a71a7c7262f432c2cad7808225832255d07f7d8ab85117677c0b5c0a8508260405161147691906114d0565b60405180910390a181600781905550505050565b600083836114989190611917565b82856114a4919061166c565b6114ae91906116f5565b90509392505050565b6000819050919050565b6114ca816114b7565b82525050565b60006020820190506114e560008301846114c1565b92915050565b600080fd5b6114f9816114b7565b811461150457600080fd5b50565b600081359050611516816114f0565b92915050565b600060208284031215611532576115316114eb565b5b600061154084828501611507565b91505092915050565b600060408201905061155e60008301856114c1565b61156b60208301846114c1565b9392505050565b600073ffffffffffffffffffffffffffffffffffffffff82169050919050565b600061159d82611572565b9050919050565b6115ad81611592565b81146115b857600080fd5b50565b6000813590506115ca816115a4565b92915050565b6000602082840312156115e6576115e56114eb565b5b60006115f4848285016115bb565b91505092915050565b60008060408385031215611614576116136114eb565b5b6000611622858286016115bb565b925050602061163385828601611507565b9150509250929050565b7f4e487b7100000000000000000000000000000000000000000000000000000000600052601160045260246000fd5b6000611677826114b7565b9150611682836114b7565b9250817fffffffffffffffffffffffffffffffffffffffffffffffffffffffffffffffff04831182151516156116bb576116ba61163d565b5b828202905092915050565b7f4e487b7100000000000000000000000000000000000000000000000000000000600052601260045260246000fd5b6000611700826114b7565b915061170b836114b7565b92508261171b5761171a6116c6565b5b828204905092915050565b61172f81611592565b82525050565b600060208201905061174a6000830184611726565b92915050565b60008151905061175f816114f0565b92915050565b60006020828403121561177b5761177a6114eb565b5b600061178984828501611750565b91505092915050565b600081905092915050565b50565b60006117ad600083611792565b91506117b88261179d565b600082019050919050565b60006117ce826117a0565b9150819050919050565b600082825260208201905092915050565b7f5472616e73666572206661696c65642e00000000000000000000000000000000600082015250565b600061181f6010836117d8565b915061182a826117e9565b602082019050919050565b6000602082019050818103600083015261184e81611812565b9050919050565b6000611860826114b7565b915061186b836114b7565b92508282101561187e5761187d61163d565b5b828203905092915050565b600060408201905061189e6000830185611726565b6118ab60208301846114c1565b9392505050565b60008115159050919050565b6118c7816118b2565b81146118d257600080fd5b50565b6000815190506118e4816118be565b92915050565b600060208284031215611900576118ff6114eb565b5b600061190e848285016118d5565b91505092915050565b6000611922826114b7565b915061192d836114b7565b9250827fffffffffffffffffffffffffffffffffffffffffffffffffffffffffffffffff038211156119625761196161163d565b5b828201905092915050565b60006060820190506119826000830186611726565b61198f6020830185611726565b61199c60408301846114c1565b94935050505056fea26469706673582212205b1c524b1d2b0b4410a0bb43311d69f30dc9caf1c5f44f59d623213c744edbc064736f6c634300080f0033608060405234801561001057600080fd5b506119b2806100206000396000f3fe608060405234801561001057600080fd5b506004361061014d5760003560e01c80636901f668116100c3578063ac7fdd391161007c578063ac7fdd3914610342578063b794cc2f14610360578063c437457514610390578063cef2320c146103c0578063ea7a9b4e146103de578063f71553451461040e5761014d565b80636901f668146102a4578063893d20e8146102ae5780638d15d676146102cc5780638da5cb5b146102e8578063990ec12b14610306578063a2932558146103245761014d565b80631c4695f4116101155780631c4695f4146101f65780631d846c651461021457806335aa2e44146102305780634e7f4d3c146102605780635836e0b51461027c5780635d8ab6e7146102865761014d565b8063036b61101461015257806309bd5a601461016e578063123119cd1461018c57806313af4035146101aa5780631a2db8d2146101c6575b600080fd5b61016c6004803603810190610167919061112e565b61043e565b005b610176610451565b60405161018391906111ff565b60405180910390f35b6101946104df565b6040516101a191906111ff565b60405180910390f35b6101c460048036038101906101bf919061127f565b61056d565b005b6101e060048036038101906101db919061127f565b6105b0565b6040516101ed91906112c7565b60405180910390f35b6101fe6105d0565b60405161020b91906111ff565b60405180910390f35b61022e6004803603810190610229919061112e565b61065e565b005b61024a60048036038101906102459190611318565b610671565b6040516102579190611354565b60405180910390f35b61027a6004803603810190610275919061112e565b6106b0565b005b6102846106c3565b005b61028e610977565b60405161029b919061137e565b60405180910390f35b6102ac610984565b005b6102b6610c38565b6040516102c39190611354565b60405180910390f35b6102e660048036038101906102e1919061112e565b610c61565b005b6102f0610c74565b6040516102fd9190611354565b60405180910390f35b61030e610c98565b60405161031b919061137e565b60405180910390f35b61032c610ca5565b60405161033991906111ff565b60405180910390f35b61034a610d33565b60405161035791906112c7565b60405180910390f35b61037a6004803603810190610375919061127f565b610d87565b60405161038791906112c7565b60405180910390f35b6103aa60048036038101906103a5919061127f565b610e35565b6040516103b791906112c7565b60405180910390f35b6103c8610ee3565b6040516103d591906111ff565b60405180910390f35b6103f860048036038101906103f39190611318565b610f75565b6040516104059190611354565b60405180910390f35b6104286004803603810190610423919061127f565b610fb4565b60405161043591906112c7565b60405180910390f35b806002908161044d91906115a5565b5050565b6003805461045e906113c8565b80601f016020809104026020016040519081016040528092919081815260200182805461048a906113c8565b80156104d75780601f106104ac576101008083540402835291602001916104d7565b820191906000526020600020905b8154815290600101906020018083116104ba57829003601f168201915b505050505081565b600180546104ec906113c8565b80601f0160208091040260200160405190810160405280929190818152602001828054610518906113c8565b80156105655780601f1061053a57610100808354040283529160200191610565565b820191906000526020600020905b81548152906001019060200180831161054857829003601f168201915b505050505081565b806000806101000a81548173ffffffffffffffffffffffffffffffffffffffff021916908373ffffffffffffffffffffffffffffffffffffffff16021790555050565b60086020528060005260406000206000915054906101000a900460ff1681565b600480546105dd906113c8565b80601f0160208091040260200160405190810160405280929190818152602001828054610609906113c8565b80156106565780601f1061062b57610100808354040283529160200191610656565b820191906000526020600020905b81548152906001019060200180831161063957829003601f168201915b505050505081565b806003908161066d91906115a5565b5050565b6005818154811061068157600080fd5b906000526020600020016000915054906101000a900473ffffffffffffffffffffffffffffffffffffffff1681565b80600190816106bf91906115a5565b5050565b3273ffffffffffffffffffffffffffffffffffffffff1660008054906101000a900473ffffffffffffffffffffffffffffffffffffffff1673ffffffffffffffffffffffffffffffffffffffff1603610751576040517f08c379a0000000000000000000000000000000000000000000000000000000008152600401610748906116e9565b60405180910390fd5b600860003273ffffffffffffffffffffffffffffffffffffffff1673ffffffffffffffffffffffffffffffffffffffff16815260200190815260200160002060009054906101000a900460ff16156107de576040517f08c379a00000000000000000000000000000000000000000000000000000000081526004016107d590611755565b60405180910390fd5b600760003273ffffffffffffffffffffffffffffffffffffffff1673ffffffffffffffffffffffffffffffffffffffff16815260200190815260200160002060009054906101000a900460ff161561086b576040517f08c379a0000000000000000000000000000000000000000000000000000000008152600401610862906117c1565b60405180910390fd5b6006329080600181540180825580915050600190039060005260206000200160009091909190916101000a81548173ffffffffffffffffffffffffffffffffffffffff021916908373ffffffffffffffffffffffffffffffffffffffff1602179055506001600860003273ffffffffffffffffffffffffffffffffffffffff1673ffffffffffffffffffffffffffffffffffffffff16815260200190815260200160002060006101000a81548160ff0219169083151502179055503273ffffffffffffffffffffffffffffffffffffffff167f9036bc06ad4a578f0132d89ba4adc07b9772275526730acc38d7e4b4c11872a3600260405161096d9190611865565b60405180910390a2565b6000600680549050905090565b3273ffffffffffffffffffffffffffffffffffffffff1660008054906101000a900473ffffffffffffffffffffffffffffffffffffffff1673ffffffffffffffffffffffffffffffffffffffff1603610a12576040517f08c379a0000000000000000000000000000000000000000000000000000000008152600401610a09906116e9565b60405180910390fd5b600760003273ffffffffffffffffffffffffffffffffffffffff1673ffffffffffffffffffffffffffffffffffffffff16815260200190815260200160002060009054906101000a900460ff1615610a9f576040517f08c379a0000000000000000000000000000000000000000000000000000000008152600401610a96906118d3565b60405180910390fd5b600860003273ffffffffffffffffffffffffffffffffffffffff1673ffffffffffffffffffffffffffffffffffffffff16815260200190815260200160002060009054906101000a900460ff1615610b2c576040517f08c379a0000000000000000000000000000000000000000000000000000000008152600401610b23906117c1565b60405180910390fd5b6005329080600181540180825580915050600190039060005260206000200160009091909190916101000a81548173ffffffffffffffffffffffffffffffffffffffff021916908373ffffffffffffffffffffffffffffffffffffffff1602179055506001600760003273ffffffffffffffffffffffffffffffffffffffff1673ffffffffffffffffffffffffffffffffffffffff16815260200190815260200160002060006101000a81548160ff0219169083151502179055503273ffffffffffffffffffffffffffffffffffffffff167f57d77eb32e87e8c65c7cec1df5b0e8a8d5c4eae1b40c7246e7668ed702dd247a6002604051610c2e9190611865565b60405180910390a2565b60008060009054906101000a900473ffffffffffffffffffffffffffffffffffffffff16905090565b8060049081610c7091906115a5565b5050565b60008054906101000a900473ffffffffffffffffffffffffffffffffffffffff1681565b6000600580549050905090565b60028054610cb2906113c8565b80601f0160208091040260200160405190810160405280929190818152602001828054610cde906113c8565b8015610d2b5780601f10610d0057610100808354040283529160200191610d2b565b820191906000526020600020905b815481529060010190602001808311610d0e57829003601f168201915b505050505081565b600080610d3e610977565b90506000610d4a610c98565b9050600082148015610d5d575060058110155b80610d80575060008214158015610d7f5750600582610d7c9190611922565b81115b5b9250505090565b60008173ffffffffffffffffffffffffffffffffffffffff1660008054906101000a900473ffffffffffffffffffffffffffffffffffffffff1673ffffffffffffffffffffffffffffffffffffffff1603610de157600080fd5b600860008373ffffffffffffffffffffffffffffffffffffffff1673ffffffffffffffffffffffffffffffffffffffff16815260200190815260200160002060009054906101000a900460ff169050919050565b60008173ffffffffffffffffffffffffffffffffffffffff1660008054906101000a900473ffffffffffffffffffffffffffffffffffffffff1673ffffffffffffffffffffffffffffffffffffffff1603610e8f57600080fd5b600760008373ffffffffffffffffffffffffffffffffffffffff1673ffffffffffffffffffffffffffffffffffffffff16815260200190815260200160002060009054906101000a900460ff169050919050565b606060028054610ef2906113c8565b80601f0160208091040260200160405190810160405280929190818152602001828054610f1e906113c8565b8015610f6b5780601f10610f4057610100808354040283529160200191610f6b565b820191906000526020600020905b815481529060010190602001808311610f4e57829003601f168201915b5050505050905090565b60068181548110610f8557600080fd5b906000526020600020016000915054906101000a900473ffffffffffffffffffffffffffffffffffffffff1681565b60076020528060005260406000206000915054906101000a900460ff1681565b6000604051905090565b600080fd5b600080fd5b600080fd5b600080fd5b6000601f19601f8301169050919050565b7f4e487b7100000000000000000000000000000000000000000000000000000000600052604160045260246000fd5b61103b82610ff2565b810181811067ffffffffffffffff8211171561105a57611059611003565b5b80604052505050565b600061106d610fd4565b90506110798282611032565b919050565b600067ffffffffffffffff82111561109957611098611003565b5b6110a282610ff2565b9050602081019050919050565b82818337600083830152505050565b60006110d16110cc8461107e565b611063565b9050828152602081018484840111156110ed576110ec610fed565b5b6110f88482856110af565b509392505050565b600082601f83011261111557611114610fe8565b5b81356111258482602086016110be565b91505092915050565b60006020828403121561114457611143610fde565b5b600082013567ffffffffffffffff81111561116257611161610fe3565b5b61116e84828501611100565b91505092915050565b600081519050919050565b600082825260208201905092915050565b60005b838110156111b1578082015181840152602081019050611196565b838111156111c0576000848401525b50505050565b60006111d182611177565b6111db8185611182565b93506111eb818560208601611193565b6111f481610ff2565b840191505092915050565b6000602082019050818103600083015261121981846111c6565b905092915050565b600073ffffffffffffffffffffffffffffffffffffffff82169050919050565b600061124c82611221565b9050919050565b61125c81611241565b811461126757600080fd5b50565b60008135905061127981611253565b92915050565b60006020828403121561129557611294610fde565b5b60006112a38482850161126a565b91505092915050565b60008115159050919050565b6112c1816112ac565b82525050565b60006020820190506112dc60008301846112b8565b92915050565b6000819050919050565b6112f5816112e2565b811461130057600080fd5b50565b600081359050611312816112ec565b92915050565b60006020828403121561132e5761132d610fde565b5b600061133c84828501611303565b91505092915050565b61134e81611241565b82525050565b60006020820190506113696000830184611345565b92915050565b611378816112e2565b82525050565b6000602082019050611393600083018461136f565b92915050565b7f4e487b7100000000000000000000000000000000000000000000000000000000600052602260045260246000fd5b600060028204905060018216806113e057607f821691505b6020821081036113f3576113f2611399565b5b50919050565b60008190508160005260206000209050919050565b60006020601f8301049050919050565b600082821b905092915050565b60006008830261145b7fffffffffffffffffffffffffffffffffffffffffffffffffffffffffffffffff8261141e565b611465868361141e565b95508019841693508086168417925050509392505050565b6000819050919050565b60006114a261149d611498846112e2565b61147d565b6112e2565b9050919050565b6000819050919050565b6114bc83611487565b6114d06114c8826114a9565b84845461142b565b825550505050565b600090565b6114e56114d8565b6114f08184846114b3565b505050565b5b81811015611514576115096000826114dd565b6001810190506114f6565b5050565b601f8211156115595761152a816113f9565b6115338461140e565b81016020851015611542578190505b61155661154e8561140e565b8301826114f5565b50505b505050565b600082821c905092915050565b600061157c6000198460080261155e565b1980831691505092915050565b6000611595838361156b565b9150826002028217905092915050565b6115ae82611177565b67ffffffffffffffff8111156115c7576115c6611003565b5b6115d182546113c8565b6115dc828285611518565b600060209050601f83116001811461160f57600084156115fd578287015190505b6116078582611589565b86555061166f565b601f19841661161d866113f9565b60005b8281101561164557848901518255600182019150602085019450602081019050611620565b86831015611662578489015161165e601f89168261156b565b8355505b6001600288020188555050505b505050505050565b7f456c206f776e6572206e6f20706f742076616c6964617220656c20736575206160008201527f7373657400000000000000000000000000000000000000000000000000000000602082015250565b60006116d3602483611182565b91506116de82611677565b604082019050919050565b60006020820190508181036000830152611702816116c6565b9050919050565b7f44656e656761646f722072657065746974000000000000000000000000000000600082015250565b600061173f601183611182565b915061174a82611709565b602082019050919050565b6000602082019050818103600083015261176e81611732565b9050919050565b7f4e6f20706f74732076616c6964617220692064656e6567617220616c686f7261600082015250565b60006117ab602083611182565b91506117b682611775565b602082019050919050565b600060208201905081810360008301526117da8161179e565b9050919050565b600081546117ee816113c8565b6117f88186611182565b9450600182166000811461181357600181146118295761185c565b60ff19831686528115156020028601935061185c565b611832856113f9565b60005b8381101561185457815481890152600182019150602081019050611835565b808801955050505b50505092915050565b6000602082019050818103600083015261187f81846117e1565b905092915050565b7f56616c696461646f722072657065746974000000000000000000000000000000600082015250565b60006118bd601183611182565b91506118c882611887565b602082019050919050565b600060208201905081810360008301526118ec816118b0565b9050919050565b7f4e487b7100000000000000000000000000000000000000000000000000000000600052601160045260246000fd5b600061192d826112e2565b9150611938836112e2565b9250817fffffffffffffffffffffffffffffffffffffffffffffffffffffffffffffffff0483118215151615611971576119706118f3565b5b82820290509291505056fea26469706673582212201c20fdf8a3a4272654b0814dd0db0cc3dad7b8879d667e87eb13204398c2dfec64736f6c634300080f003360806040523480156200001157600080fd5b5060405162000af338038062000af38339818101604052810190620000379190620000e0565b6012600181905550600154600a62000050919062000295565b816200005d9190620002e6565b6000819055506000600260006101000a81548160ff0219169083151502179055506000600260016101000a81548160ff0219169083151502179055505062000347565b600080fd5b6000819050919050565b620000ba81620000a5565b8114620000c657600080fd5b50565b600081519050620000da81620000af565b92915050565b600060208284031215620000f957620000f8620000a0565b5b60006200010984828501620000c9565b91505092915050565b7f4e487b7100000000000000000000000000000000000000000000000000000000600052601160045260246000fd5b60008160011c9050919050565b6000808291508390505b6001851115620001a05780860481111562000178576200017762000112565b5b6001851615620001885780820291505b8081029050620001988562000141565b945062000158565b94509492505050565b600082620001bb57600190506200028e565b81620001cb57600090506200028e565b8160018114620001e45760028114620001ef5762000225565b60019150506200028e565b60ff84111562000204576200020362000112565b5b8360020a9150848211156200021e576200021d62000112565b5b506200028e565b5060208310610133831016604e8410600b84101617156200025f5782820a90508381111562000259576200025862000112565b5b6200028e565b6200026e84848460016200014e565b9250905081840481111562000288576200028762000112565b5b81810290505b9392505050565b6000620002a282620000a5565b9150620002af83620000a5565b9250620002de7fffffffffffffffffffffffffffffffffffffffffffffffffffffffffffffffff8484620001a9565b905092915050565b6000620002f382620000a5565b91506200030083620000a5565b9250817fffffffffffffffffffffffffffffffffffffffffffffffffffffffffffffffff04831182151516156200033c576200033b62000112565b5b828202905092915050565b61079c80620003576000396000f3fe608060405234801561001057600080fd5b50600436106100575760003560e01c8063131e2f181461005c5780632c4e722e1461008c57806384c6e2c8146100aa5780639f8af9dd146100b4578063effc1fe0146100d0575b600080fd5b61007660048036038101906100719190610361565b6100da565b604051610083919061039d565b60405180910390f35b610094610121565b6040516100a1919061039d565b60405180910390f35b6100b2610127565b005b6100ce60048036038101906100c991906103b8565b610131565b005b6100d86102c9565b005b6000600154600a6100eb919061055a565b6064600054846100fb91906105a5565b610105919061062e565b61010f919061062e565b8261011a919061065f565b9050919050565b60005481565b61012f610303565b565b600260009054906101000a900460ff1615610181576040517f08c379a000000000000000000000000000000000000000000000000000000000815260040161017890610712565b60405180910390fd5b6000600154600a610192919061055a565b8361019d91906105a5565b90506000600154600a6101b0919061055a565b836101bb91906105a5565b9050600083836101cb919061062e565b90506000671158e460913d000090508181116102095780826101ed9190610732565b6000808282546101fd919061065f565b925050819055506102a6565b600060648761021891906105a5565b607d60005461022791906105a5565b610231919061062e565b90506000606460508761024491906105a5565b61024e919061062e565b90506000818661025e9190610732565b90506000600154600a610271919061055a565b828561027d91906105a5565b610287919061062e565b90508060008082825461029a9190610732565b92505081905550505050505b6001600260006101000a81548160ff021916908315150217905550505050505050565b600260019054906101000a900460ff16610301576102e5610303565b6001600260016101000a81548160ff0219169083151502179055505b565b6008600760005461031491906105a5565b61031e919061062e565b600081905550565b600080fd5b6000819050919050565b61033e8161032b565b811461034957600080fd5b50565b60008135905061035b81610335565b92915050565b60006020828403121561037757610376610326565b5b60006103858482850161034c565b91505092915050565b6103978161032b565b82525050565b60006020820190506103b2600083018461038e565b92915050565b600080604083850312156103cf576103ce610326565b5b60006103dd8582860161034c565b92505060206103ee8582860161034c565b9150509250929050565b7f4e487b7100000000000000000000000000000000000000000000000000000000600052601160045260246000fd5b60008160011c9050919050565b6000808291508390505b600185111561047e5780860481111561045a576104596103f8565b5b60018516156104695780820291505b808102905061047785610427565b945061043e565b94509492505050565b6000826104975760019050610553565b816104a55760009050610553565b81600181146104bb57600281146104c5576104f4565b6001915050610553565b60ff8411156104d7576104d66103f8565b5b8360020a9150848211156104ee576104ed6103f8565b5b50610553565b5060208310610133831016604e8410600b84101617156105295782820a905083811115610524576105236103f8565b5b610553565b6105368484846001610434565b9250905081840481111561054d5761054c6103f8565b5b81810290505b9392505050565b60006105658261032b565b91506105708361032b565b925061059d7fffffffffffffffffffffffffffffffffffffffffffffffffffffffffffffffff8484610487565b905092915050565b60006105b08261032b565b91506105bb8361032b565b9250817fffffffffffffffffffffffffffffffffffffffffffffffffffffffffffffffff04831182151516156105f4576105f36103f8565b5b828202905092915050565b7f4e487b7100000000000000000000000000000000000000000000000000000000600052601260045260246000fd5b60006106398261032b565b91506106448361032b565b925082610654576106536105ff565b5b828204905092915050565b600061066a8261032b565b91506106758361032b565b9250827fffffffffffffffffffffffffffffffffffffffffffffffffffffffffffffffff038211156106aa576106a96103f8565b5b828201905092915050565b600082825260208201905092915050565b7f416c726561647920657865637574656400000000000000000000000000000000600082015250565b60006106fc6010836106b5565b9150610707826106c6565b602082019050919050565b6000602082019050818103600083015261072b816106ef565b9050919050565b600061073d8261032b565b91506107488361032b565b92508282101561075b5761075a6103f8565b5b82820390509291505056fea2646970667358221220ed3409c8a098739f156f647fb08cc114fd9e3ae06f87d530fe7a6ac56944185b64736f6c634300080f0033",
  "immutableReferences": {},
  "source": "// SPDX-License-Identifier: GPL-3.0\r\n\r\npragma solidity >=0.7.0 <0.9.0;\r\n\r\nimport \"./Verificador.sol\";\r\nimport \"./AMM.sol\";\r\nimport \"./Tokenitzar.sol\";\r\nimport \"./Interest.sol\";\r\n\r\n\r\ncontract Factoring {\r\n\r\n    //Contract elements:\r\n\r\n    //Verified document\r\n    Verificacio public verificador;\r\n    uint256 public value;\r\n    uint public expDays;\r\n\r\n    //Collateral\r\n    uint256 public collateral;\r\n\r\n    //Tokenization\r\n    Tokfa public tokenitzacio;\r\n\r\n    //Liquidity pool\r\n    DEX public LP;\r\n\r\n    //Interest\r\n    Interest public intFee;\r\n    bool private hasLink;\r\n    bool private hasHash;\r\n\r\n\r\n    constructor(){\r\n        LP = new DEX();\r\n        verificador = new Verificacio();\r\n        intFee = new Interest(15);\r\n    }\r\n\r\n    modifier onlyOwner{\r\n        require(verificador.owner() == msg.sender);\r\n        _;\r\n    }\r\n\r\n\r\n    //Setting new File\r\n    event NewDocument(address indexed owner, string filename, uint256 value, uint daysRemaining);\r\n\r\n    function DOCnewFile(string memory _filename, uint256 _value, uint _days) external {\r\n        value = _value;\r\n        expDays = _days;\r\n\r\n        verificador.setFilename(_filename);\r\n        verificador.setOwner(msg.sender);\r\n\r\n        emit NewDocument(msg.sender, _filename, _value, _days);\r\n\r\n    }\r\n\r\n\r\n    //Important data that helps to validate\r\n    \r\n    function DOCsetHash(string memory hash) public onlyOwner{\r\n        verificador.setHashDoc(hash);\r\n        hasHash = true;\r\n        if (hasLink && hasHash){\r\n            intFee.adjustIntDoc();\r\n        }\r\n    }\r\n\r\n    function DOCgetHash() public view returns(string memory){\r\n        return verificador.hash();\r\n    }\r\n\r\n    function DOCsetURL(string memory link) public onlyOwner{\r\n        verificador.setLinkDoc(link);\r\n        hasLink = true;\r\n        if (hasLink && hasHash){\r\n            intFee.adjustIntDoc();\r\n        }\r\n    }\r\n    \r\n    function DOCgetURL() public view returns(string memory){\r\n        return verificador.link();\r\n    }\r\n\r\n    //1. VERIFY\r\n    event DOCValidated(address indexed validator, string asset);\r\n\r\n    function DOCvalidate() public{\r\n        verificador.validate();\r\n\r\n        if (verificador.checkValidation()){\r\n            intFee.adjustIntVerify();\r\n        }\r\n\r\n        emit DOCValidated(msg.sender, verificador.filename());\r\n    }\r\n\r\n    event DOCDenegated(address indexed denegator, string asset);\r\n    function DOCdeny() public {\r\n        verificador.denegate();\r\n\r\n        emit DOCDenegated(msg.sender, verificador.filename());\r\n    }\r\n\r\n\r\n    //2. TOKENIZATION\r\n\r\n    /*\r\n    STEPS:\r\n    1. Tokenize Asset\r\n    2. Give allowance to Contract\r\n    3. Initialize Liquidity Pool\r\n    4. Adjust interest rate\r\n    */\r\n\r\n    event StartLP(uint256 assetX, uint256 assetY);\r\n    \r\n\r\n    function start(uint256 quants_tokens) public payable {\r\n        collateral = msg.value;\r\n        \r\n        //1.\r\n        tokenitzacio = new Tokfa(quants_tokens * 4);\r\n        uint256 token_amount = quants_tokens * 10**uint(tokenitzacio.decimals());\r\n\r\n        //2.\r\n        tokenitzacio.approve(tx.origin, address(LP), tokenitzacio.totalSupply());\r\n\r\n\r\n        //3.\r\n        LP.initialize{value:msg.value}(address(tokenitzacio), token_amount);\r\n\r\n        //4.\r\n\r\n        intFee.adjustIntCol(value, collateral);\r\n\r\n        emit StartLP(token_amount, msg.value);\r\n\r\n\r\n    }\r\n\r\n //----------SWAP ERC------------\r\n    \r\n    event BuyERC(uint256 payed, uint256 tokens_received);\r\n    \r\n    function LPbuyERC() public payable {\r\n        LP.ethToErc{value:msg.value}();\r\n        \r\n        emit BuyERC(msg.value, LP.tokens_received());\r\n    }\r\n\r\n //----------SWAP ETH------------\r\n\r\n    event BuyETH(uint256 payed, uint256 tokens_received);\r\n\r\n    function LPbuyETH(uint256 tokens) public {\r\n\r\n        tokenitzacio.approve(tx.origin, address(LP), tokens);\r\n        LP.ercToEth(tokens);\r\n        emit BuyETH(tokens, LP.eth_received());\r\n    }\r\n\r\n //----------DEPOSIT------------\r\n\r\n    event DepositLP(uint256 liquidity);\r\n\r\n    function LPdeposit() public payable {\r\n        tokenitzacio.approve(tx.origin, address(LP), tokenAmount(msg.value));\r\n        LP.deposit{value:msg.value}();\r\n\r\n        emit DepositLP(LP.liq_added());\r\n    }\r\n\r\n    function tokenAmount(uint256 eth) internal view returns(uint256){\r\n        \r\n        (uint256 liquidity, ) = LP.liquidityAdded(eth);\r\n        return liquidity;\r\n    }\r\n\r\n //----------WITHDRAW------------\r\n\r\n    event WithdrawLP(uint256 eth_received, uint256 tokens_received);\r\n    function LPgetLiquidity(uint256 liquid) public {\r\n        LP.withdraw(liquid);\r\n\r\n        emit WithdrawLP(LP.eth_received(), LP.tokens_received());\r\n    }\r\n\r\n//----------FINAL FASE------------\r\n\r\n    function FINgetProfit() public {\r\n        LPgetLiquidity(intFee.mul(LP.invested(tx.origin)));\r\n    }\r\n\r\n    function FINarbit(uint256 new_tokens) public onlyOwner{\r\n        tokenitzacio.generate(new_tokens);\r\n    }\r\n\r\n//----------INTERFACES------------\r\n\r\n\r\n    //LIQUIDITY POOL INTERFACE\r\n\r\n    function LPtokens() public view returns(uint256){\r\n        return LP.getTokenBalance();\r\n    }\r\n\r\n    function LPether()  public view returns(uint256){\r\n        return LP.getBalance();\r\n    }\r\n\r\n    function LPliquidity() public view returns(uint256){\r\n        return LP.total_liquidity();\r\n    }\r\n\r\n    function LPpriceForERC(uint256 eth) public view returns(uint256){\r\n        return LP.priceERC(eth);\r\n    }\r\n\r\n    function LPpriceForETH(uint256 tokens) public view returns(uint256){\r\n        return LP.priceETH(tokens);\r\n    }\r\n\r\n //----------CHECKERS------------\r\n\r\n    function LPadded(uint256 eth) public view returns(uint256, uint256){\r\n        return LP.liquidityAdded(eth);\r\n    }\r\n\r\n    function LPsubstracted(uint256 valor) public view returns(uint256, uint256){\r\n        return LP.liquiditySubstracted(valor);\r\n    }\r\n    \r\n    \r\n    \r\n    //TOKENIZATION INTERFACE\r\n\r\n    function TFAmybalance() public view returns(uint256){\r\n        return tokenitzacio.balanceOf(tx.origin);\r\n    }\r\n\r\n    function TFAsupply() public view returns(uint256){\r\n        return tokenitzacio.totalSupply();\r\n    }\r\n\r\n\r\n    //INTEREST INTERFACE\r\n    function INTrate() public view returns(uint256){\r\n        return intFee.rate();\r\n    }\r\n\r\n\r\n\r\n\r\n\r\n}\r\n    ",
  "sourcePath": "C:\\Users\\qsamb\\OneDrive\\Escritorio\\PFG\\Recursos\\Code\\TEST\\contracts\\Factoring.sol",
  "compiler": {
    "name": "solc",
    "version": "0.8.15+commit.e14f2714.Emscripten.clang"
  },
  "schemaVersion": "3.4.8",
  "updatedAt": "2022-08-10T15:29:19.563Z",
  "networkType": "ethereum",
  "devdoc": {
    "kind": "dev",
    "methods": {},
    "version": 1
  },
  "userdoc": {
    "kind": "user",
    "methods": {},
    "version": 1
  }
}