{
  "contractName": "Factoring",
  "abi": [
    {
      "inputs": [],
      "stateMutability": "nonpayable",
      "type": "constructor"
    },
    {
      "anonymous": false,
      "inputs": [
        {
          "indexed": false,
          "internalType": "uint256",
          "name": "payed",
          "type": "uint256"
        },
        {
          "indexed": false,
          "internalType": "uint256",
          "name": "tokens_received",
          "type": "uint256"
        }
      ],
      "name": "BuyERC",
      "type": "event"
    },
    {
      "anonymous": false,
      "inputs": [
        {
          "indexed": false,
          "internalType": "uint256",
          "name": "payed",
          "type": "uint256"
        },
        {
          "indexed": false,
          "internalType": "uint256",
          "name": "tokens_received",
          "type": "uint256"
        }
      ],
      "name": "BuyETH",
      "type": "event"
    },
    {
      "anonymous": false,
      "inputs": [
        {
          "indexed": true,
          "internalType": "address",
          "name": "denegator",
          "type": "address"
        },
        {
          "indexed": false,
          "internalType": "string",
          "name": "asset",
          "type": "string"
        }
      ],
      "name": "DOCDenegated",
      "type": "event"
    },
    {
      "anonymous": false,
      "inputs": [
        {
          "indexed": true,
          "internalType": "address",
          "name": "validator",
          "type": "address"
        },
        {
          "indexed": false,
          "internalType": "string",
          "name": "asset",
          "type": "string"
        }
      ],
      "name": "DOCValidated",
      "type": "event"
    },
    {
      "anonymous": false,
      "inputs": [
        {
          "indexed": false,
          "internalType": "uint256",
          "name": "liquidity",
          "type": "uint256"
        }
      ],
      "name": "DepositLP",
      "type": "event"
    },
    {
      "anonymous": false,
      "inputs": [
        {
          "indexed": true,
          "internalType": "address",
          "name": "owner",
          "type": "address"
        },
        {
          "indexed": false,
          "internalType": "string",
          "name": "filename",
          "type": "string"
        },
        {
          "indexed": false,
          "internalType": "uint256",
          "name": "value",
          "type": "uint256"
        },
        {
          "indexed": false,
          "internalType": "uint256",
          "name": "daysRemaining",
          "type": "uint256"
        }
      ],
      "name": "NewDocument",
      "type": "event"
    },
    {
      "anonymous": false,
      "inputs": [
        {
          "indexed": false,
          "internalType": "uint256",
          "name": "assetX",
          "type": "uint256"
        },
        {
          "indexed": false,
          "internalType": "uint256",
          "name": "assetY",
          "type": "uint256"
        }
      ],
      "name": "StartLP",
      "type": "event"
    },
    {
      "anonymous": false,
      "inputs": [
        {
          "indexed": false,
          "internalType": "uint256",
          "name": "eth_received",
          "type": "uint256"
        },
        {
          "indexed": false,
          "internalType": "uint256",
          "name": "tokens_received",
          "type": "uint256"
        }
      ],
      "name": "WithdrawLP",
      "type": "event"
    },
    {
      "inputs": [],
      "name": "LP",
      "outputs": [
        {
          "internalType": "contract DEX",
          "name": "",
          "type": "address"
        }
      ],
      "stateMutability": "view",
      "type": "function",
      "constant": true
    },
    {
      "inputs": [],
      "name": "collateral",
      "outputs": [
        {
          "internalType": "uint256",
          "name": "",
          "type": "uint256"
        }
      ],
      "stateMutability": "view",
      "type": "function",
      "constant": true
    },
    {
      "inputs": [],
      "name": "expDays",
      "outputs": [
        {
          "internalType": "uint256",
          "name": "",
          "type": "uint256"
        }
      ],
      "stateMutability": "view",
      "type": "function",
      "constant": true
    },
    {
      "inputs": [],
      "name": "intFee",
      "outputs": [
        {
          "internalType": "contract Interest",
          "name": "",
          "type": "address"
        }
      ],
      "stateMutability": "view",
      "type": "function",
      "constant": true
    },
    {
      "inputs": [],
      "name": "tokenitzacio",
      "outputs": [
        {
          "internalType": "contract Tokfa",
          "name": "",
          "type": "address"
        }
      ],
      "stateMutability": "view",
      "type": "function",
      "constant": true
    },
    {
      "inputs": [],
      "name": "tokensInit",
      "outputs": [
        {
          "internalType": "uint256",
          "name": "",
          "type": "uint256"
        }
      ],
      "stateMutability": "view",
      "type": "function",
      "constant": true
    },
    {
      "inputs": [],
      "name": "value",
      "outputs": [
        {
          "internalType": "uint256",
          "name": "",
          "type": "uint256"
        }
      ],
      "stateMutability": "view",
      "type": "function",
      "constant": true
    },
    {
      "inputs": [],
      "name": "verificador",
      "outputs": [
        {
          "internalType": "contract Verificacio",
          "name": "",
          "type": "address"
        }
      ],
      "stateMutability": "view",
      "type": "function",
      "constant": true
    },
    {
      "inputs": [
        {
          "internalType": "string",
          "name": "_filename",
          "type": "string"
        },
        {
          "internalType": "uint256",
          "name": "_value",
          "type": "uint256"
        },
        {
          "internalType": "uint256",
          "name": "_days",
          "type": "uint256"
        }
      ],
      "name": "DOCnewFile",
      "outputs": [],
      "stateMutability": "nonpayable",
      "type": "function"
    },
    {
      "inputs": [
        {
          "internalType": "string",
          "name": "hash",
          "type": "string"
        }
      ],
      "name": "DOCsetHash",
      "outputs": [],
      "stateMutability": "nonpayable",
      "type": "function"
    },
    {
      "inputs": [],
      "name": "DOCgetHash",
      "outputs": [
        {
          "internalType": "string",
          "name": "",
          "type": "string"
        }
      ],
      "stateMutability": "view",
      "type": "function",
      "constant": true
    },
    {
      "inputs": [
        {
          "internalType": "string",
          "name": "link",
          "type": "string"
        }
      ],
      "name": "DOCsetURL",
      "outputs": [],
      "stateMutability": "nonpayable",
      "type": "function"
    },
    {
      "inputs": [],
      "name": "DOCgetURL",
      "outputs": [
        {
          "internalType": "string",
          "name": "",
          "type": "string"
        }
      ],
      "stateMutability": "view",
      "type": "function",
      "constant": true
    },
    {
      "inputs": [],
      "name": "DOCvalidate",
      "outputs": [],
      "stateMutability": "nonpayable",
      "type": "function"
    },
    {
      "inputs": [],
      "name": "DOCdeny",
      "outputs": [],
      "stateMutability": "nonpayable",
      "type": "function"
    },
    {
      "inputs": [
        {
          "internalType": "uint256",
          "name": "quants_tokens",
          "type": "uint256"
        }
      ],
      "name": "start",
      "outputs": [],
      "stateMutability": "payable",
      "type": "function",
      "payable": true
    },
    {
      "inputs": [],
      "name": "LPbuyERC",
      "outputs": [],
      "stateMutability": "payable",
      "type": "function",
      "payable": true
    },
    {
      "inputs": [
        {
          "internalType": "uint256",
          "name": "tokens",
          "type": "uint256"
        }
      ],
      "name": "LPbuyETH",
      "outputs": [],
      "stateMutability": "nonpayable",
      "type": "function"
    },
    {
      "inputs": [],
      "name": "LPdeposit",
      "outputs": [],
      "stateMutability": "payable",
      "type": "function",
      "payable": true
    },
    {
      "inputs": [
        {
          "internalType": "uint256",
          "name": "liquid",
          "type": "uint256"
        }
      ],
      "name": "LPgetLiquidity",
      "outputs": [],
      "stateMutability": "nonpayable",
      "type": "function"
    },
    {
      "inputs": [],
      "name": "FINgetProfit",
      "outputs": [],
      "stateMutability": "nonpayable",
      "type": "function"
    },
    {
      "inputs": [],
      "name": "FINarbit",
      "outputs": [],
      "stateMutability": "nonpayable",
      "type": "function"
    },
    {
      "inputs": [],
      "name": "LPtokens",
      "outputs": [
        {
          "internalType": "uint256",
          "name": "",
          "type": "uint256"
        }
      ],
      "stateMutability": "view",
      "type": "function",
      "constant": true
    },
    {
      "inputs": [],
      "name": "LPether",
      "outputs": [
        {
          "internalType": "uint256",
          "name": "",
          "type": "uint256"
        }
      ],
      "stateMutability": "view",
      "type": "function",
      "constant": true
    },
    {
      "inputs": [],
      "name": "LPliquidity",
      "outputs": [
        {
          "internalType": "uint256",
          "name": "",
          "type": "uint256"
        }
      ],
      "stateMutability": "view",
      "type": "function",
      "constant": true
    },
    {
      "inputs": [
        {
          "internalType": "uint256",
          "name": "eth",
          "type": "uint256"
        }
      ],
      "name": "LPpriceForERC",
      "outputs": [
        {
          "internalType": "uint256",
          "name": "",
          "type": "uint256"
        }
      ],
      "stateMutability": "view",
      "type": "function",
      "constant": true
    },
    {
      "inputs": [
        {
          "internalType": "uint256",
          "name": "tokens",
          "type": "uint256"
        }
      ],
      "name": "LPpriceForETH",
      "outputs": [
        {
          "internalType": "uint256",
          "name": "",
          "type": "uint256"
        }
      ],
      "stateMutability": "view",
      "type": "function",
      "constant": true
    },
    {
      "inputs": [
        {
          "internalType": "uint256",
          "name": "eth",
          "type": "uint256"
        }
      ],
      "name": "LPadded",
      "outputs": [
        {
          "internalType": "uint256",
          "name": "",
          "type": "uint256"
        },
        {
          "internalType": "uint256",
          "name": "",
          "type": "uint256"
        }
      ],
      "stateMutability": "view",
      "type": "function",
      "constant": true
    },
    {
      "inputs": [
        {
          "internalType": "uint256",
          "name": "valor",
          "type": "uint256"
        }
      ],
      "name": "LPsubstracted",
      "outputs": [
        {
          "internalType": "uint256",
          "name": "",
          "type": "uint256"
        },
        {
          "internalType": "uint256",
          "name": "",
          "type": "uint256"
        }
      ],
      "stateMutability": "view",
      "type": "function",
      "constant": true
    },
    {
      "inputs": [],
      "name": "TFAmybalance",
      "outputs": [
        {
          "internalType": "uint256",
          "name": "",
          "type": "uint256"
        }
      ],
      "stateMutability": "view",
      "type": "function",
      "constant": true
    },
    {
      "inputs": [
        {
          "internalType": "address",
          "name": "account",
          "type": "address"
        }
      ],
      "name": "TFAbalance",
      "outputs": [
        {
          "internalType": "uint256",
          "name": "",
          "type": "uint256"
        }
      ],
      "stateMutability": "view",
      "type": "function",
      "constant": true
    },
    {
      "inputs": [],
      "name": "TFAsupply",
      "outputs": [
        {
          "internalType": "uint256",
          "name": "",
          "type": "uint256"
        }
      ],
      "stateMutability": "view",
      "type": "function",
      "constant": true
    },
    {
      "inputs": [],
      "name": "ETHmybalance",
      "outputs": [
        {
          "internalType": "uint256",
          "name": "",
          "type": "uint256"
        }
      ],
      "stateMutability": "view",
      "type": "function",
      "constant": true
    },
    {
      "inputs": [
        {
          "internalType": "address",
          "name": "account",
          "type": "address"
        }
      ],
      "name": "ETHbalance",
      "outputs": [
        {
          "internalType": "uint256",
          "name": "",
          "type": "uint256"
        }
      ],
      "stateMutability": "view",
      "type": "function",
      "constant": true
    },
    {
      "inputs": [],
      "name": "INTrate",
      "outputs": [
        {
          "internalType": "uint256",
          "name": "",
          "type": "uint256"
        }
      ],
      "stateMutability": "view",
      "type": "function",
      "constant": true
    }
  ],
  "bytecode": "0x60806040523480156200001157600080fd5b50604051620000209062000169565b604051809103906000f0801580156200003d573d6000803e3d6000fd5b50600660006101000a81548173ffffffffffffffffffffffffffffffffffffffff021916908373ffffffffffffffffffffffffffffffffffffffff1602179055506040516200008c9062000177565b604051809103906000f080158015620000a9573d6000803e3d6000fd5b506000806101000a81548173ffffffffffffffffffffffffffffffffffffffff021916908373ffffffffffffffffffffffffffffffffffffffff160217905550600f604051620000f99062000185565b620001059190620001ea565b604051809103906000f08015801562000122573d6000803e3d6000fd5b50600760006101000a81548173ffffffffffffffffffffffffffffffffffffffff021916908373ffffffffffffffffffffffffffffffffffffffff16021790555062000207565b611a6280620057e383390190565b611979806200724583390190565b610b138062008bbe83390190565b6000819050919050565b6000819050919050565b6000819050919050565b6000620001d2620001cc620001c68462000193565b620001a7565b6200019d565b9050919050565b620001e481620001b1565b82525050565b6000602082019050620002016000830184620001d9565b92915050565b6155cc80620002176000396000f3fe608060405260043610620002365760003560e01c80636da762381162000133578063d782d3c311620000af578063e19752c81162000079578063e19752c814620007c1578063e753e92714620007f1578063ec28d2d41462000835578063f600584a1462000865578063f61a2249146200087f5762000236565b8063d782d3c31462000703578063d7a8f6aa1462000731578063d8dfeb451462000761578063de34a24514620007915762000236565b8063b6fccf8a11620000fd578063b6fccf8a146200064d578063b87265e7146200067d578063bdbe0f661462000689578063bdffc3be14620006b9578063caf2cfab14620006d35762000236565b80636da7623814620005895780637eebe5c214620005cd57806395805dad14620005fd578063b41f7381146200061d5762000236565b80633fa4f24511620001c35780635703a230116200018d5780635703a230146200049e57806359ccef7214620004e357806359ee2dfd14620005115780635acb25dc146200052b5780635f646a8314620005595762000236565b80633fa4f24514620003b657806340c1b5dd14620003e6578063417e4e6814620004165780634e504747146200045a5762000236565b806332393153116200020557806332393153146200030e578063324d9ebc146200032857806338109dcf14620003585780633f57943114620003885762000236565b806306357098146200023b57806316c6a7921462000280578063270d3bc014620002b057806331e788ff14620002e0575b600080fd5b3480156200024857600080fd5b5062000267600480360381019062000261919062002b83565b6200088b565b6040516200027792919062002bc6565b60405180910390f35b3480156200028d57600080fd5b506200029862000937565b604051620002a7919062002c7e565b60405180910390f35b348015620002bd57600080fd5b50620002c86200095d565b604051620002d7919062002d3f565b60405180910390f35b348015620002ed57600080fd5b506200030c600480360381019062000306919062002eb4565b620009fb565b005b3480156200031b57600080fd5b506200032662000c26565b005b3480156200033557600080fd5b506200034062000d73565b6040516200034f919062002f05565b60405180910390f35b3480156200036557600080fd5b506200037062000d92565b6040516200037f919062002f47565b60405180910390f35b3480156200039557600080fd5b50620003b46004803603810190620003ae919062002f64565b62000db8565b005b348015620003c357600080fd5b50620003ce62000f4a565b604051620003dd919062002f05565b60405180910390f35b348015620003f357600080fd5b50620003fe62000f50565b6040516200040d919062002d3f565b60405180910390f35b3480156200042357600080fd5b506200044260048036038101906200043c919062003024565b62000fee565b60405162000451919062002f05565b60405180910390f35b3480156200046757600080fd5b5062000486600480360381019062000480919062003024565b62001098565b60405162000495919062002f05565b60405180910390f35b348015620004ab57600080fd5b50620004ca6004803603810190620004c4919062002b83565b620010b9565b604051620004da92919062002bc6565b60405180910390f35b348015620004f057600080fd5b506200050f600480360381019062000509919062002b83565b62001165565b005b3480156200051e57600080fd5b50620005296200135a565b005b3480156200053857600080fd5b5062000557600480360381019062000551919062002b83565b620015e1565b005b3480156200056657600080fd5b5062000571620017fa565b60405162000580919062002f05565b60405180910390f35b3480156200059657600080fd5b50620005b56004803603810190620005af919062002b83565b62001895565b604051620005c4919062002f05565b60405180910390f35b348015620005da57600080fd5b50620005e56200193f565b604051620005f491906200307b565b60405180910390f35b6200061b600480360381019062000615919062002b83565b62001963565b005b3480156200062a57600080fd5b506200063562001d76565b60405162000644919062002f05565b60405180910390f35b3480156200065a57600080fd5b506200066562001e1e565b604051620006749190620030bd565b60405180910390f35b6200068762001e44565b005b3480156200069657600080fd5b50620006a16200210c565b604051620006b0919062002f05565b60405180910390f35b348015620006c657600080fd5b50620006d1620021a7565b005b348015620006e057600080fd5b50620006eb62002311565b604051620006fa919062002f05565b60405180910390f35b3480156200071057600080fd5b506200072f600480360381019062000729919062002eb4565b62002317565b005b3480156200073e57600080fd5b506200074962002542565b60405162000758919062002f05565b60405180910390f35b3480156200076e57600080fd5b5062000779620025dd565b60405162000788919062002f05565b60405180910390f35b3480156200079e57600080fd5b50620007a9620025e3565b604051620007b8919062002f05565b60405180910390f35b348015620007ce57600080fd5b50620007d96200267e565b604051620007e8919062002f05565b60405180910390f35b348015620007fe57600080fd5b506200081d600480360381019062000817919062002b83565b62002684565b6040516200082c919062002f05565b60405180910390f35b3480156200084257600080fd5b506200084d6200272e565b6040516200085c919062002f05565b60405180910390f35b3480156200087257600080fd5b506200087d620027c9565b005b6200088962002922565b005b600080600660009054906101000a900473ffffffffffffffffffffffffffffffffffffffff1673ffffffffffffffffffffffffffffffffffffffff16631eb928aa846040518263ffffffff1660e01b8152600401620008eb919062002f05565b6040805180830381865afa15801562000908573d6000803e3d6000fd5b505050506040513d601f19601f820116820180604052508101906200092e9190620030f1565b91509150915091565b600760009054906101000a900473ffffffffffffffffffffffffffffffffffffffff1681565b606060008054906101000a900473ffffffffffffffffffffffffffffffffffffffff1673ffffffffffffffffffffffffffffffffffffffff166309bd5a606040518163ffffffff1660e01b8152600401600060405180830381865afa158015620009cb573d6000803e3d6000fd5b505050506040513d6000823e3d601f19601f82011682018060405250810190620009f69190620031b6565b905090565b3373ffffffffffffffffffffffffffffffffffffffff1660008054906101000a900473ffffffffffffffffffffffffffffffffffffffff1673ffffffffffffffffffffffffffffffffffffffff16638da5cb5b6040518163ffffffff1660e01b8152600401602060405180830381865afa15801562000a7e573d6000803e3d6000fd5b505050506040513d601f19601f8201168201806040525081019062000aa491906200321e565b73ffffffffffffffffffffffffffffffffffffffff161462000ac557600080fd5b60008054906101000a900473ffffffffffffffffffffffffffffffffffffffff1673ffffffffffffffffffffffffffffffffffffffff16638d15d676826040518263ffffffff1660e01b815260040162000b20919062002d3f565b600060405180830381600087803b15801562000b3b57600080fd5b505af115801562000b50573d6000803e3d6000fd5b505050506001600760146101000a81548160ff021916908315150217905550600760149054906101000a900460ff16801562000b985750600760159054906101000a900460ff165b1562000c2357600760009054906101000a900473ffffffffffffffffffffffffffffffffffffffff1673ffffffffffffffffffffffffffffffffffffffff166384c6e2c86040518163ffffffff1660e01b8152600401600060405180830381600087803b15801562000c0957600080fd5b505af115801562000c1e573d6000803e3d6000fd5b505050505b50565b62000d71600760009054906101000a900473ffffffffffffffffffffffffffffffffffffffff1673ffffffffffffffffffffffffffffffffffffffff1663131e2f18600660009054906101000a900473ffffffffffffffffffffffffffffffffffffffff1673ffffffffffffffffffffffffffffffffffffffff166366b3f6bf326040518263ffffffff1660e01b815260040162000cc5919062003261565b602060405180830381865afa15801562000ce3573d6000803e3d6000fd5b505050506040513d601f19601f8201168201806040525081019062000d0991906200327e565b6040518263ffffffff1660e01b815260040162000d27919062002f05565b602060405180830381865afa15801562000d45573d6000803e3d6000fd5b505050506040513d601f19601f8201168201806040525081019062000d6b91906200327e565b62001165565b565b60003273ffffffffffffffffffffffffffffffffffffffff1631905090565b600460009054906101000a900473ffffffffffffffffffffffffffffffffffffffff1681565b81600181905550804262000dcd9190620032df565b60028190555060008054906101000a900473ffffffffffffffffffffffffffffffffffffffff1673ffffffffffffffffffffffffffffffffffffffff1663036b6110846040518263ffffffff1660e01b815260040162000e2e919062002d3f565b600060405180830381600087803b15801562000e4957600080fd5b505af115801562000e5e573d6000803e3d6000fd5b5050505060008054906101000a900473ffffffffffffffffffffffffffffffffffffffff1673ffffffffffffffffffffffffffffffffffffffff166313af4035336040518263ffffffff1660e01b815260040162000ebd919062003261565b600060405180830381600087803b15801562000ed857600080fd5b505af115801562000eed573d6000803e3d6000fd5b505050503373ffffffffffffffffffffffffffffffffffffffff167f66c0e157fdff18242032cbe1aa0b731eb49ff6e593bccbf1fded370364610c1984848460405162000f3d939291906200333c565b60405180910390a2505050565b60015481565b606060008054906101000a900473ffffffffffffffffffffffffffffffffffffffff1673ffffffffffffffffffffffffffffffffffffffff16631c4695f46040518163ffffffff1660e01b8152600401600060405180830381865afa15801562000fbe573d6000803e3d6000fd5b505050506040513d6000823e3d601f19601f8201168201806040525081019062000fe99190620031b6565b905090565b6000600460009054906101000a900473ffffffffffffffffffffffffffffffffffffffff1673ffffffffffffffffffffffffffffffffffffffff166370a08231836040518263ffffffff1660e01b81526004016200104d919062003261565b602060405180830381865afa1580156200106b573d6000803e3d6000fd5b505050506040513d601f19601f820116820180604052508101906200109191906200327e565b9050919050565b60008173ffffffffffffffffffffffffffffffffffffffff16319050919050565b600080600660009054906101000a900473ffffffffffffffffffffffffffffffffffffffff1673ffffffffffffffffffffffffffffffffffffffff16635f244d4e846040518263ffffffff1660e01b815260040162001119919062002f05565b6040805180830381865afa15801562001136573d6000803e3d6000fd5b505050506040513d601f19601f820116820180604052508101906200115c9190620030f1565b91509150915091565b600660009054906101000a900473ffffffffffffffffffffffffffffffffffffffff1673ffffffffffffffffffffffffffffffffffffffff16632e1a7d4d826040518263ffffffff1660e01b8152600401620011c2919062002f05565b600060405180830381600087803b158015620011dd57600080fd5b505af1158015620011f2573d6000803e3d6000fd5b505050507f6a12f6dac03652b58a50bbf88d534acc4fe08e3d534d2e08dde9e43c4adbcb3f600660009054906101000a900473ffffffffffffffffffffffffffffffffffffffff1673ffffffffffffffffffffffffffffffffffffffff16638666107c6040518163ffffffff1660e01b8152600401602060405180830381865afa15801562001285573d6000803e3d6000fd5b505050506040513d601f19601f82011682018060405250810190620012ab91906200327e565b600660009054906101000a900473ffffffffffffffffffffffffffffffffffffffff1673ffffffffffffffffffffffffffffffffffffffff166374942c0f6040518163ffffffff1660e01b8152600401602060405180830381865afa15801562001319573d6000803e3d6000fd5b505050506040513d601f19601f820116820180604052508101906200133f91906200327e565b6040516200134f92919062002bc6565b60405180910390a150565b60008054906101000a900473ffffffffffffffffffffffffffffffffffffffff1673ffffffffffffffffffffffffffffffffffffffff16636901f6686040518163ffffffff1660e01b8152600401600060405180830381600087803b158015620013c357600080fd5b505af1158015620013d8573d6000803e3d6000fd5b5050505060008054906101000a900473ffffffffffffffffffffffffffffffffffffffff1673ffffffffffffffffffffffffffffffffffffffff1663ac7fdd396040518163ffffffff1660e01b8152600401602060405180830381865afa15801562001448573d6000803e3d6000fd5b505050506040513d601f19601f820116820180604052508101906200146e9190620033bd565b15620014f957600760009054906101000a900473ffffffffffffffffffffffffffffffffffffffff1673ffffffffffffffffffffffffffffffffffffffff1663effc1fe06040518163ffffffff1660e01b8152600401600060405180830381600087803b158015620014df57600080fd5b505af1158015620014f4573d6000803e3d6000fd5b505050505b3373ffffffffffffffffffffffffffffffffffffffff167fd745e77520d6aab6ac2e6c9e597b7a9d8f8bf270ffa7234028791f24c594cafc60008054906101000a900473ffffffffffffffffffffffffffffffffffffffff1673ffffffffffffffffffffffffffffffffffffffff1663a29325586040518163ffffffff1660e01b8152600401600060405180830381865afa1580156200159d573d6000803e3d6000fd5b505050506040513d6000823e3d601f19601f82011682018060405250810190620015c89190620031b6565b604051620015d7919062002d3f565b60405180910390a2565b600460009054906101000a900473ffffffffffffffffffffffffffffffffffffffff1673ffffffffffffffffffffffffffffffffffffffff1663e1f21c6732600660009054906101000a900473ffffffffffffffffffffffffffffffffffffffff16846040518463ffffffff1660e01b81526004016200166493929190620033ef565b600060405180830381600087803b1580156200167f57600080fd5b505af115801562001694573d6000803e3d6000fd5b50505050600660009054906101000a900473ffffffffffffffffffffffffffffffffffffffff1673ffffffffffffffffffffffffffffffffffffffff1663debc674c826040518263ffffffff1660e01b8152600401620016f5919062002f05565b600060405180830381600087803b1580156200171057600080fd5b505af115801562001725573d6000803e3d6000fd5b505050507ff3da8edf69f7653a76e82879ae64fe7833d633c94e285ad53aa241a27e63b86781600660009054906101000a900473ffffffffffffffffffffffffffffffffffffffff1673ffffffffffffffffffffffffffffffffffffffff16638666107c6040518163ffffffff1660e01b8152600401602060405180830381865afa158015620017b9573d6000803e3d6000fd5b505050506040513d601f19601f82011682018060405250810190620017df91906200327e565b604051620017ef92919062002bc6565b60405180910390a150565b6000600660009054906101000a900473ffffffffffffffffffffffffffffffffffffffff1673ffffffffffffffffffffffffffffffffffffffff166382b2e2576040518163ffffffff1660e01b8152600401602060405180830381865afa1580156200186a573d6000803e3d6000fd5b505050506040513d601f19601f820116820180604052508101906200189091906200327e565b905090565b6000600660009054906101000a900473ffffffffffffffffffffffffffffffffffffffff1673ffffffffffffffffffffffffffffffffffffffff166372a9d124836040518263ffffffff1660e01b8152600401620018f4919062002f05565b602060405180830381865afa15801562001912573d6000803e3d6000fd5b505050506040513d601f19601f820116820180604052508101906200193891906200327e565b9050919050565b60008054906101000a900473ffffffffffffffffffffffffffffffffffffffff1681565b3460038190555080604051620019799062002b26565b62001985919062002f05565b604051809103906000f080158015620019a2573d6000803e3d6000fd5b50600460006101000a81548173ffffffffffffffffffffffffffffffffffffffff021916908373ffffffffffffffffffffffffffffffffffffffff1602179055506000600460009054906101000a900473ffffffffffffffffffffffffffffffffffffffff1673ffffffffffffffffffffffffffffffffffffffff1663313ce5676040518163ffffffff1660e01b8152600401602060405180830381865afa15801562001a53573d6000803e3d6000fd5b505050506040513d601f19601f8201168201806040525081019062001a7991906200346a565b60ff16600a62001a8a9190620035f0565b8262001a97919062003641565b905080600581905550600460009054906101000a900473ffffffffffffffffffffffffffffffffffffffff1673ffffffffffffffffffffffffffffffffffffffff1663e1f21c6732600660009054906101000a900473ffffffffffffffffffffffffffffffffffffffff16600460009054906101000a900473ffffffffffffffffffffffffffffffffffffffff1673ffffffffffffffffffffffffffffffffffffffff166318160ddd6040518163ffffffff1660e01b8152600401602060405180830381865afa15801562001b70573d6000803e3d6000fd5b505050506040513d601f19601f8201168201806040525081019062001b9691906200327e565b6040518463ffffffff1660e01b815260040162001bb693929190620033ef565b600060405180830381600087803b15801562001bd157600080fd5b505af115801562001be6573d6000803e3d6000fd5b50505050600660009054906101000a900473ffffffffffffffffffffffffffffffffffffffff1673ffffffffffffffffffffffffffffffffffffffff1663cd6dc68734600460009054906101000a900473ffffffffffffffffffffffffffffffffffffffff16846040518463ffffffff1660e01b815260040162001c6c929190620036a2565b6000604051808303818588803b15801562001c8657600080fd5b505af115801562001c9b573d6000803e3d6000fd5b5050505050600760009054906101000a900473ffffffffffffffffffffffffffffffffffffffff1673ffffffffffffffffffffffffffffffffffffffff16639f8af9dd6001546003546040518363ffffffff1660e01b815260040162001d0392919062002bc6565b600060405180830381600087803b15801562001d1e57600080fd5b505af115801562001d33573d6000803e3d6000fd5b505050507ff0498cb22b56641ed33901df52ba1ca98815bf7428aaf69cb0a27c0f94cacc0d813460405162001d6a92919062002bc6565b60405180910390a15050565b6000600460009054906101000a900473ffffffffffffffffffffffffffffffffffffffff1673ffffffffffffffffffffffffffffffffffffffff166370a08231326040518263ffffffff1660e01b815260040162001dd5919062003261565b602060405180830381865afa15801562001df3573d6000803e3d6000fd5b505050506040513d601f19601f8201168201806040525081019062001e1991906200327e565b905090565b600660009054906101000a900473ffffffffffffffffffffffffffffffffffffffff1681565b600062001e513462002a77565b905062001e5d62001d76565b81111562001ef757600460009054906101000a900473ffffffffffffffffffffffffffffffffffffffff1673ffffffffffffffffffffffffffffffffffffffff16634a7dd523826040518263ffffffff1660e01b815260040162001ec2919062002f05565b600060405180830381600087803b15801562001edd57600080fd5b505af115801562001ef2573d6000803e3d6000fd5b505050505b600460009054906101000a900473ffffffffffffffffffffffffffffffffffffffff1673ffffffffffffffffffffffffffffffffffffffff1663e1f21c6732600660009054906101000a900473ffffffffffffffffffffffffffffffffffffffff1662001f643462002a77565b6040518463ffffffff1660e01b815260040162001f8493929190620033ef565b600060405180830381600087803b15801562001f9f57600080fd5b505af115801562001fb4573d6000803e3d6000fd5b50505050600660009054906101000a900473ffffffffffffffffffffffffffffffffffffffff1673ffffffffffffffffffffffffffffffffffffffff1663d0e30db0346040518263ffffffff1660e01b81526004016000604051808303818588803b1580156200202357600080fd5b505af115801562002038573d6000803e3d6000fd5b50505050507f62b16c68815e64e71e004ad1900bfeefa3a6eb2fec66b573210155de12fd5e7b600660009054906101000a900473ffffffffffffffffffffffffffffffffffffffff1673ffffffffffffffffffffffffffffffffffffffff1663707e7e876040518163ffffffff1660e01b8152600401602060405180830381865afa158015620020cc573d6000803e3d6000fd5b505050506040513d601f19601f82011682018060405250810190620020f291906200327e565b60405162002101919062002f05565b60405180910390a150565b6000600760009054906101000a900473ffffffffffffffffffffffffffffffffffffffff1673ffffffffffffffffffffffffffffffffffffffff16632c4e722e6040518163ffffffff1660e01b8152600401602060405180830381865afa1580156200217c573d6000803e3d6000fd5b505050506040513d601f19601f82011682018060405250810190620021a291906200327e565b905090565b60008054906101000a900473ffffffffffffffffffffffffffffffffffffffff1673ffffffffffffffffffffffffffffffffffffffff16635836e0b56040518163ffffffff1660e01b8152600401600060405180830381600087803b1580156200221057600080fd5b505af115801562002225573d6000803e3d6000fd5b505050503373ffffffffffffffffffffffffffffffffffffffff167f7832ed08fa8e9bf7d3ffa10fb5bcdb96f474be17f79b657bb7f23facb23a898b60008054906101000a900473ffffffffffffffffffffffffffffffffffffffff1673ffffffffffffffffffffffffffffffffffffffff1663a29325586040518163ffffffff1660e01b8152600401600060405180830381865afa158015620022cd573d6000803e3d6000fd5b505050506040513d6000823e3d601f19601f82011682018060405250810190620022f89190620031b6565b60405162002307919062002d3f565b60405180910390a2565b60055481565b3373ffffffffffffffffffffffffffffffffffffffff1660008054906101000a900473ffffffffffffffffffffffffffffffffffffffff1673ffffffffffffffffffffffffffffffffffffffff16638da5cb5b6040518163ffffffff1660e01b8152600401602060405180830381865afa1580156200239a573d6000803e3d6000fd5b505050506040513d601f19601f82011682018060405250810190620023c091906200321e565b73ffffffffffffffffffffffffffffffffffffffff1614620023e157600080fd5b60008054906101000a900473ffffffffffffffffffffffffffffffffffffffff1673ffffffffffffffffffffffffffffffffffffffff16631d846c65826040518263ffffffff1660e01b81526004016200243c919062002d3f565b600060405180830381600087803b1580156200245757600080fd5b505af11580156200246c573d6000803e3d6000fd5b505050506001600760156101000a81548160ff021916908315150217905550600760149054906101000a900460ff168015620024b45750600760159054906101000a900460ff165b156200253f57600760009054906101000a900473ffffffffffffffffffffffffffffffffffffffff1673ffffffffffffffffffffffffffffffffffffffff166384c6e2c86040518163ffffffff1660e01b8152600401600060405180830381600087803b1580156200252557600080fd5b505af11580156200253a573d6000803e3d6000fd5b505050505b50565b6000600460009054906101000a900473ffffffffffffffffffffffffffffffffffffffff1673ffffffffffffffffffffffffffffffffffffffff166318160ddd6040518163ffffffff1660e01b8152600401602060405180830381865afa158015620025b2573d6000803e3d6000fd5b505050506040513d601f19601f82011682018060405250810190620025d891906200327e565b905090565b60035481565b6000600660009054906101000a900473ffffffffffffffffffffffffffffffffffffffff1673ffffffffffffffffffffffffffffffffffffffff166331f3bd286040518163ffffffff1660e01b8152600401602060405180830381865afa15801562002653573d6000803e3d6000fd5b505050506040513d601f19601f820116820180604052508101906200267991906200327e565b905090565b60025481565b6000600660009054906101000a900473ffffffffffffffffffffffffffffffffffffffff1673ffffffffffffffffffffffffffffffffffffffff166367da263d836040518263ffffffff1660e01b8152600401620026e3919062002f05565b602060405180830381865afa15801562002701573d6000803e3d6000fd5b505050506040513d601f19601f820116820180604052508101906200272791906200327e565b9050919050565b6000600660009054906101000a900473ffffffffffffffffffffffffffffffffffffffff1673ffffffffffffffffffffffffffffffffffffffff166312065fe06040518163ffffffff1660e01b8152600401602060405180830381865afa1580156200279e573d6000803e3d6000fd5b505050506040513d601f19601f82011682018060405250810190620027c491906200327e565b905090565b6000600660009054906101000a900473ffffffffffffffffffffffffffffffffffffffff1673ffffffffffffffffffffffffffffffffffffffff166382b2e2576040518163ffffffff1660e01b8152600401602060405180830381865afa15801562002839573d6000803e3d6000fd5b505050506040513d601f19601f820116820180604052508101906200285f91906200327e565b6005546200286e9190620036cf565b90506200287a62001d76565b8111156200291457600460009054906101000a900473ffffffffffffffffffffffffffffffffffffffff1673ffffffffffffffffffffffffffffffffffffffff16634a7dd523826040518263ffffffff1660e01b8152600401620028df919062002f05565b600060405180830381600087803b158015620028fa57600080fd5b505af11580156200290f573d6000803e3d6000fd5b505050505b6200291f81620015e1565b50565b600660009054906101000a900473ffffffffffffffffffffffffffffffffffffffff1673ffffffffffffffffffffffffffffffffffffffff16637937c03d346040518263ffffffff1660e01b81526004016000604051808303818588803b1580156200298d57600080fd5b505af1158015620029a2573d6000803e3d6000fd5b50505050507f3647e5ca8fe544bafdf71b27b82e0206b70e6fda46bda02cbacd87b72363c82b34600660009054906101000a900473ffffffffffffffffffffffffffffffffffffffff1673ffffffffffffffffffffffffffffffffffffffff166374942c0f6040518163ffffffff1660e01b8152600401602060405180830381865afa15801562002a37573d6000803e3d6000fd5b505050506040513d601f19601f8201168201806040525081019062002a5d91906200327e565b60405162002a6d92919062002bc6565b60405180910390a1565b600080600660009054906101000a900473ffffffffffffffffffffffffffffffffffffffff1673ffffffffffffffffffffffffffffffffffffffff16635f244d4e846040518263ffffffff1660e01b815260040162002ad7919062002f05565b6040805180830381865afa15801562002af4573d6000803e3d6000fd5b505050506040513d601f19601f8201168201806040525081019062002b1a9190620030f1565b50905080915050919050565b611e8c806200370b83390190565b6000604051905090565b600080fd5b600080fd5b6000819050919050565b62002b5d8162002b48565b811462002b6957600080fd5b50565b60008135905062002b7d8162002b52565b92915050565b60006020828403121562002b9c5762002b9b62002b3e565b5b600062002bac8482850162002b6c565b91505092915050565b62002bc08162002b48565b82525050565b600060408201905062002bdd600083018562002bb5565b62002bec602083018462002bb5565b9392505050565b600073ffffffffffffffffffffffffffffffffffffffff82169050919050565b6000819050919050565b600062002c3e62002c3862002c328462002bf3565b62002c13565b62002bf3565b9050919050565b600062002c528262002c1d565b9050919050565b600062002c668262002c45565b9050919050565b62002c788162002c59565b82525050565b600060208201905062002c95600083018462002c6d565b92915050565b600081519050919050565b600082825260208201905092915050565b60005b8381101562002cd757808201518184015260208101905062002cba565b8381111562002ce7576000848401525b50505050565b6000601f19601f8301169050919050565b600062002d0b8262002c9b565b62002d17818562002ca6565b935062002d2981856020860162002cb7565b62002d348162002ced565b840191505092915050565b6000602082019050818103600083015262002d5b818462002cfe565b905092915050565b600080fd5b600080fd5b7f4e487b7100000000000000000000000000000000000000000000000000000000600052604160045260246000fd5b62002da78262002ced565b810181811067ffffffffffffffff8211171562002dc95762002dc862002d6d565b5b80604052505050565b600062002dde62002b34565b905062002dec828262002d9c565b919050565b600067ffffffffffffffff82111562002e0f5762002e0e62002d6d565b5b62002e1a8262002ced565b9050602081019050919050565b82818337600083830152505050565b600062002e4d62002e478462002df1565b62002dd2565b90508281526020810184848401111562002e6c5762002e6b62002d68565b5b62002e7984828562002e27565b509392505050565b600082601f83011262002e995762002e9862002d63565b5b813562002eab84826020860162002e36565b91505092915050565b60006020828403121562002ecd5762002ecc62002b3e565b5b600082013567ffffffffffffffff81111562002eee5762002eed62002b43565b5b62002efc8482850162002e81565b91505092915050565b600060208201905062002f1c600083018462002bb5565b92915050565b600062002f2f8262002c45565b9050919050565b62002f418162002f22565b82525050565b600060208201905062002f5e600083018462002f36565b92915050565b60008060006060848603121562002f805762002f7f62002b3e565b5b600084013567ffffffffffffffff81111562002fa15762002fa062002b43565b5b62002faf8682870162002e81565b935050602062002fc28682870162002b6c565b925050604062002fd58682870162002b6c565b9150509250925092565b600062002fec8262002bf3565b9050919050565b62002ffe8162002fdf565b81146200300a57600080fd5b50565b6000813590506200301e8162002ff3565b92915050565b6000602082840312156200303d576200303c62002b3e565b5b60006200304d848285016200300d565b91505092915050565b6000620030638262002c45565b9050919050565b620030758162003056565b82525050565b60006020820190506200309260008301846200306a565b92915050565b6000620030a58262002c45565b9050919050565b620030b78162003098565b82525050565b6000602082019050620030d46000830184620030ac565b92915050565b600081519050620030eb8162002b52565b92915050565b600080604083850312156200310b576200310a62002b3e565b5b60006200311b85828601620030da565b92505060206200312e85828601620030da565b9150509250929050565b60006200314f620031498462002df1565b62002dd2565b9050828152602081018484840111156200316e576200316d62002d68565b5b6200317b84828562002cb7565b509392505050565b600082601f8301126200319b576200319a62002d63565b5b8151620031ad84826020860162003138565b91505092915050565b600060208284031215620031cf57620031ce62002b3e565b5b600082015167ffffffffffffffff811115620031f057620031ef62002b43565b5b620031fe8482850162003183565b91505092915050565b600081519050620032188162002ff3565b92915050565b60006020828403121562003237576200323662002b3e565b5b6000620032478482850162003207565b91505092915050565b6200325b8162002fdf565b82525050565b600060208201905062003278600083018462003250565b92915050565b60006020828403121562003297576200329662002b3e565b5b6000620032a784828501620030da565b91505092915050565b7f4e487b7100000000000000000000000000000000000000000000000000000000600052601160045260246000fd5b6000620032ec8262002b48565b9150620032f98362002b48565b9250827fffffffffffffffffffffffffffffffffffffffffffffffffffffffffffffffff03821115620033315762003330620032b0565b5b828201905092915050565b6000606082019050818103600083015262003358818662002cfe565b905062003369602083018562002bb5565b62003378604083018462002bb5565b949350505050565b60008115159050919050565b620033978162003380565b8114620033a357600080fd5b50565b600081519050620033b7816200338c565b92915050565b600060208284031215620033d657620033d562002b3e565b5b6000620033e684828501620033a6565b91505092915050565b600060608201905062003406600083018662003250565b62003415602083018562003250565b62003424604083018462002bb5565b949350505050565b600060ff82169050919050565b62003444816200342c565b81146200345057600080fd5b50565b600081519050620034648162003439565b92915050565b60006020828403121562003483576200348262002b3e565b5b6000620034938482850162003453565b91505092915050565b60008160011c9050919050565b6000808291508390505b6001851115620034fb57808604811115620034d357620034d2620032b0565b5b6001851615620034e35780820291505b8081029050620034f3856200349c565b9450620034b3565b94509492505050565b600082620035165760019050620035e9565b81620035265760009050620035e9565b81600181146200353f57600281146200354a5762003580565b6001915050620035e9565b60ff8411156200355f576200355e620032b0565b5b8360020a915084821115620035795762003578620032b0565b5b50620035e9565b5060208310610133831016604e8410600b8410161715620035ba5782820a905083811115620035b457620035b3620032b0565b5b620035e9565b620035c98484846001620034a9565b92509050818404811115620035e357620035e2620032b0565b5b81810290505b9392505050565b6000620035fd8262002b48565b91506200360a8362002b48565b9250620036397fffffffffffffffffffffffffffffffffffffffffffffffffffffffffffffffff848462003504565b905092915050565b60006200364e8262002b48565b91506200365b8362002b48565b9250817fffffffffffffffffffffffffffffffffffffffffffffffffffffffffffffffff0483118215151615620036975762003696620032b0565b5b828202905092915050565b6000604082019050620036b9600083018562003250565b620036c8602083018462002bb5565b9392505050565b6000620036dc8262002b48565b9150620036e98362002b48565b925082821015620036ff57620036fe620032b0565b5b82820390509291505056fe60806040523480156200001157600080fd5b5060405162001e8c38038062001e8c8339818101604052810190620000379190620002da565b6040518060400160405280600581526020017f546f6b66610000000000000000000000000000000000000000000000000000008152506040518060400160405280600381526020017f54464100000000000000000000000000000000000000000000000000000000008152508160039081620000b491906200057c565b508060049081620000c691906200057c565b5050506200010832620000de6200010f60201b60201c565b60ff16600a620000ef9190620007e6565b83620000fc919062000837565b6200011860201b60201c565b50620009a6565b60006012905090565b600073ffffffffffffffffffffffffffffffffffffffff168273ffffffffffffffffffffffffffffffffffffffff16036200018a576040517f08c379a00000000000000000000000000000000000000000000000000000000081526004016200018190620008f9565b60405180910390fd5b6200019e600083836200029060201b60201c565b8060026000828254620001b291906200091b565b92505081905550806000808473ffffffffffffffffffffffffffffffffffffffff1673ffffffffffffffffffffffffffffffffffffffff16815260200190815260200160002060008282546200020991906200091b565b925050819055508173ffffffffffffffffffffffffffffffffffffffff16600073ffffffffffffffffffffffffffffffffffffffff167fddf252ad1be2c89b69c2b068fc378daa952ba7f163c4a11628f55a4df523b3ef8360405162000270919062000989565b60405180910390a36200028c600083836200029560201b60201c565b5050565b505050565b505050565b600080fd5b6000819050919050565b620002b4816200029f565b8114620002c057600080fd5b50565b600081519050620002d481620002a9565b92915050565b600060208284031215620002f357620002f26200029a565b5b60006200030384828501620002c3565b91505092915050565b600081519050919050565b7f4e487b7100000000000000000000000000000000000000000000000000000000600052604160045260246000fd5b7f4e487b7100000000000000000000000000000000000000000000000000000000600052602260045260246000fd5b600060028204905060018216806200038e57607f821691505b602082108103620003a457620003a362000346565b5b50919050565b60008190508160005260206000209050919050565b60006020601f8301049050919050565b600082821b905092915050565b6000600883026200040e7fffffffffffffffffffffffffffffffffffffffffffffffffffffffffffffffff82620003cf565b6200041a8683620003cf565b95508019841693508086168417925050509392505050565b6000819050919050565b60006200045d6200045762000451846200029f565b62000432565b6200029f565b9050919050565b6000819050919050565b62000479836200043c565b62000491620004888262000464565b848454620003dc565b825550505050565b600090565b620004a862000499565b620004b58184846200046e565b505050565b5b81811015620004dd57620004d16000826200049e565b600181019050620004bb565b5050565b601f8211156200052c57620004f681620003aa565b6200050184620003bf565b8101602085101562000511578190505b620005296200052085620003bf565b830182620004ba565b50505b505050565b600082821c905092915050565b6000620005516000198460080262000531565b1980831691505092915050565b60006200056c83836200053e565b9150826002028217905092915050565b62000587826200030c565b67ffffffffffffffff811115620005a357620005a262000317565b5b620005af825462000375565b620005bc828285620004e1565b600060209050601f831160018114620005f45760008415620005df578287015190505b620005eb85826200055e565b8655506200065b565b601f1984166200060486620003aa565b60005b828110156200062e5784890151825560018201915060208501945060208101905062000607565b868310156200064e57848901516200064a601f8916826200053e565b8355505b6001600288020188555050505b505050505050565b7f4e487b7100000000000000000000000000000000000000000000000000000000600052601160045260246000fd5b60008160011c9050919050565b6000808291508390505b6001851115620006f157808604811115620006c957620006c862000663565b5b6001851615620006d95780820291505b8081029050620006e98562000692565b9450620006a9565b94509492505050565b6000826200070c5760019050620007df565b816200071c5760009050620007df565b8160018114620007355760028114620007405762000776565b6001915050620007df565b60ff84111562000755576200075462000663565b5b8360020a9150848211156200076f576200076e62000663565b5b50620007df565b5060208310610133831016604e8410600b8410161715620007b05782820a905083811115620007aa57620007a962000663565b5b620007df565b620007bf84848460016200069f565b92509050818404811115620007d957620007d862000663565b5b81810290505b9392505050565b6000620007f3826200029f565b915062000800836200029f565b92506200082f7fffffffffffffffffffffffffffffffffffffffffffffffffffffffffffffffff8484620006fa565b905092915050565b600062000844826200029f565b915062000851836200029f565b9250817fffffffffffffffffffffffffffffffffffffffffffffffffffffffffffffffff04831182151516156200088d576200088c62000663565b5b828202905092915050565b600082825260208201905092915050565b7f45524332303a206d696e7420746f20746865207a65726f206164647265737300600082015250565b6000620008e1601f8362000898565b9150620008ee82620008a9565b602082019050919050565b600060208201905081810360008301526200091481620008d2565b9050919050565b600062000928826200029f565b915062000935836200029f565b9250827fffffffffffffffffffffffffffffffffffffffffffffffffffffffffffffffff038211156200096d576200096c62000663565b5b828201905092915050565b62000983816200029f565b82525050565b6000602082019050620009a0600083018462000978565b92915050565b6114d680620009b66000396000f3fe608060405234801561001057600080fd5b50600436106100cf5760003560e01c80634a7dd5231161008c578063a457c2d711610066578063a457c2d714610228578063a9059cbb14610258578063dd62ed3e14610288578063e1f21c67146102b8576100cf565b80634a7dd523146101be57806370a08231146101da57806395d89b411461020a576100cf565b806306fdde03146100d4578063095ea7b3146100f257806318160ddd1461012257806323b872dd14610140578063313ce56714610170578063395093511461018e575b600080fd5b6100dc6102d4565b6040516100e99190610cf8565b60405180910390f35b61010c60048036038101906101079190610db3565b610366565b6040516101199190610e0e565b60405180910390f35b61012a610389565b6040516101379190610e38565b60405180910390f35b61015a60048036038101906101559190610e53565b610393565b6040516101679190610e0e565b60405180910390f35b6101786103c2565b6040516101859190610ec2565b60405180910390f35b6101a860048036038101906101a39190610db3565b6103cb565b6040516101b59190610e0e565b60405180910390f35b6101d860048036038101906101d39190610edd565b610402565b005b6101f460048036038101906101ef9190610f0a565b61040f565b6040516102019190610e38565b60405180910390f35b610212610457565b60405161021f9190610cf8565b60405180910390f35b610242600480360381019061023d9190610db3565b6104e9565b60405161024f9190610e0e565b60405180910390f35b610272600480360381019061026d9190610db3565b610560565b60405161027f9190610e0e565b60405180910390f35b6102a2600480360381019061029d9190610f37565b610583565b6040516102af9190610e38565b60405180910390f35b6102d260048036038101906102cd9190610e53565b61060a565b005b6060600380546102e390610fa6565b80601f016020809104026020016040519081016040528092919081815260200182805461030f90610fa6565b801561035c5780601f106103315761010080835404028352916020019161035c565b820191906000526020600020905b81548152906001019060200180831161033f57829003601f168201915b5050505050905090565b60008061037161061a565b905061037e818585610622565b600191505092915050565b6000600254905090565b60008061039e61061a565b90506103ab8582856107eb565b6103b6858585610877565b60019150509392505050565b60006012905090565b6000806103d661061a565b90506103f78185856103e88589610583565b6103f29190611006565b610622565b600191505092915050565b61040c3282610af6565b50565b60008060008373ffffffffffffffffffffffffffffffffffffffff1673ffffffffffffffffffffffffffffffffffffffff168152602001908152602001600020549050919050565b60606004805461046690610fa6565b80601f016020809104026020016040519081016040528092919081815260200182805461049290610fa6565b80156104df5780601f106104b4576101008083540402835291602001916104df565b820191906000526020600020905b8154815290600101906020018083116104c257829003601f168201915b5050505050905090565b6000806104f461061a565b905060006105028286610583565b905083811015610547576040517f08c379a000000000000000000000000000000000000000000000000000000000815260040161053e906110ce565b60405180910390fd5b6105548286868403610622565b60019250505092915050565b60008061056b61061a565b9050610578818585610877565b600191505092915050565b6000600160008473ffffffffffffffffffffffffffffffffffffffff1673ffffffffffffffffffffffffffffffffffffffff16815260200190815260200160002060008373ffffffffffffffffffffffffffffffffffffffff1673ffffffffffffffffffffffffffffffffffffffff16815260200190815260200160002054905092915050565b610615838383610622565b505050565b600033905090565b600073ffffffffffffffffffffffffffffffffffffffff168373ffffffffffffffffffffffffffffffffffffffff1603610691576040517f08c379a000000000000000000000000000000000000000000000000000000000815260040161068890611160565b60405180910390fd5b600073ffffffffffffffffffffffffffffffffffffffff168273ffffffffffffffffffffffffffffffffffffffff1603610700576040517f08c379a00000000000000000000000000000000000000000000000000000000081526004016106f7906111f2565b60405180910390fd5b80600160008573ffffffffffffffffffffffffffffffffffffffff1673ffffffffffffffffffffffffffffffffffffffff16815260200190815260200160002060008473ffffffffffffffffffffffffffffffffffffffff1673ffffffffffffffffffffffffffffffffffffffff168152602001908152602001600020819055508173ffffffffffffffffffffffffffffffffffffffff168373ffffffffffffffffffffffffffffffffffffffff167f8c5be1e5ebec7d5bd14f71427d1e84f3dd0314c0f7b2291e5b200ac8c7c3b925836040516107de9190610e38565b60405180910390a3505050565b60006107f78484610583565b90507fffffffffffffffffffffffffffffffffffffffffffffffffffffffffffffffff81146108715781811015610863576040517f08c379a000000000000000000000000000000000000000000000000000000000815260040161085a9061125e565b60405180910390fd5b6108708484848403610622565b5b50505050565b600073ffffffffffffffffffffffffffffffffffffffff168373ffffffffffffffffffffffffffffffffffffffff16036108e6576040517f08c379a00000000000000000000000000000000000000000000000000000000081526004016108dd906112f0565b60405180910390fd5b600073ffffffffffffffffffffffffffffffffffffffff168273ffffffffffffffffffffffffffffffffffffffff1603610955576040517f08c379a000000000000000000000000000000000000000000000000000000000815260040161094c90611382565b60405180910390fd5b610960838383610c55565b60008060008573ffffffffffffffffffffffffffffffffffffffff1673ffffffffffffffffffffffffffffffffffffffff168152602001908152602001600020549050818110156109e6576040517f08c379a00000000000000000000000000000000000000000000000000000000081526004016109dd90611414565b60405180910390fd5b8181036000808673ffffffffffffffffffffffffffffffffffffffff1673ffffffffffffffffffffffffffffffffffffffff16815260200190815260200160002081905550816000808573ffffffffffffffffffffffffffffffffffffffff1673ffffffffffffffffffffffffffffffffffffffff1681526020019081526020016000206000828254610a799190611006565b925050819055508273ffffffffffffffffffffffffffffffffffffffff168473ffffffffffffffffffffffffffffffffffffffff167fddf252ad1be2c89b69c2b068fc378daa952ba7f163c4a11628f55a4df523b3ef84604051610add9190610e38565b60405180910390a3610af0848484610c5a565b50505050565b600073ffffffffffffffffffffffffffffffffffffffff168273ffffffffffffffffffffffffffffffffffffffff1603610b65576040517f08c379a0000000000000000000000000000000000000000000000000000000008152600401610b5c90611480565b60405180910390fd5b610b7160008383610c55565b8060026000828254610b839190611006565b92505081905550806000808473ffffffffffffffffffffffffffffffffffffffff1673ffffffffffffffffffffffffffffffffffffffff1681526020019081526020016000206000828254610bd89190611006565b925050819055508173ffffffffffffffffffffffffffffffffffffffff16600073ffffffffffffffffffffffffffffffffffffffff167fddf252ad1be2c89b69c2b068fc378daa952ba7f163c4a11628f55a4df523b3ef83604051610c3d9190610e38565b60405180910390a3610c5160008383610c5a565b5050565b505050565b505050565b600081519050919050565b600082825260208201905092915050565b60005b83811015610c99578082015181840152602081019050610c7e565b83811115610ca8576000848401525b50505050565b6000601f19601f8301169050919050565b6000610cca82610c5f565b610cd48185610c6a565b9350610ce4818560208601610c7b565b610ced81610cae565b840191505092915050565b60006020820190508181036000830152610d128184610cbf565b905092915050565b600080fd5b600073ffffffffffffffffffffffffffffffffffffffff82169050919050565b6000610d4a82610d1f565b9050919050565b610d5a81610d3f565b8114610d6557600080fd5b50565b600081359050610d7781610d51565b92915050565b6000819050919050565b610d9081610d7d565b8114610d9b57600080fd5b50565b600081359050610dad81610d87565b92915050565b60008060408385031215610dca57610dc9610d1a565b5b6000610dd885828601610d68565b9250506020610de985828601610d9e565b9150509250929050565b60008115159050919050565b610e0881610df3565b82525050565b6000602082019050610e236000830184610dff565b92915050565b610e3281610d7d565b82525050565b6000602082019050610e4d6000830184610e29565b92915050565b600080600060608486031215610e6c57610e6b610d1a565b5b6000610e7a86828701610d68565b9350506020610e8b86828701610d68565b9250506040610e9c86828701610d9e565b9150509250925092565b600060ff82169050919050565b610ebc81610ea6565b82525050565b6000602082019050610ed76000830184610eb3565b92915050565b600060208284031215610ef357610ef2610d1a565b5b6000610f0184828501610d9e565b91505092915050565b600060208284031215610f2057610f1f610d1a565b5b6000610f2e84828501610d68565b91505092915050565b60008060408385031215610f4e57610f4d610d1a565b5b6000610f5c85828601610d68565b9250506020610f6d85828601610d68565b9150509250929050565b7f4e487b7100000000000000000000000000000000000000000000000000000000600052602260045260246000fd5b60006002820490506001821680610fbe57607f821691505b602082108103610fd157610fd0610f77565b5b50919050565b7f4e487b7100000000000000000000000000000000000000000000000000000000600052601160045260246000fd5b600061101182610d7d565b915061101c83610d7d565b9250827fffffffffffffffffffffffffffffffffffffffffffffffffffffffffffffffff0382111561105157611050610fd7565b5b828201905092915050565b7f45524332303a2064656372656173656420616c6c6f77616e63652062656c6f7760008201527f207a65726f000000000000000000000000000000000000000000000000000000602082015250565b60006110b8602583610c6a565b91506110c38261105c565b604082019050919050565b600060208201905081810360008301526110e7816110ab565b9050919050565b7f45524332303a20617070726f76652066726f6d20746865207a65726f2061646460008201527f7265737300000000000000000000000000000000000000000000000000000000602082015250565b600061114a602483610c6a565b9150611155826110ee565b604082019050919050565b600060208201905081810360008301526111798161113d565b9050919050565b7f45524332303a20617070726f766520746f20746865207a65726f20616464726560008201527f7373000000000000000000000000000000000000000000000000000000000000602082015250565b60006111dc602283610c6a565b91506111e782611180565b604082019050919050565b6000602082019050818103600083015261120b816111cf565b9050919050565b7f45524332303a20696e73756666696369656e7420616c6c6f77616e6365000000600082015250565b6000611248601d83610c6a565b915061125382611212565b602082019050919050565b600060208201905081810360008301526112778161123b565b9050919050565b7f45524332303a207472616e736665722066726f6d20746865207a65726f20616460008201527f6472657373000000000000000000000000000000000000000000000000000000602082015250565b60006112da602583610c6a565b91506112e58261127e565b604082019050919050565b60006020820190508181036000830152611309816112cd565b9050919050565b7f45524332303a207472616e7366657220746f20746865207a65726f206164647260008201527f6573730000000000000000000000000000000000000000000000000000000000602082015250565b600061136c602383610c6a565b915061137782611310565b604082019050919050565b6000602082019050818103600083015261139b8161135f565b9050919050565b7f45524332303a207472616e7366657220616d6f756e742065786365656473206260008201527f616c616e63650000000000000000000000000000000000000000000000000000602082015250565b60006113fe602683610c6a565b9150611409826113a2565b604082019050919050565b6000602082019050818103600083015261142d816113f1565b9050919050565b7f45524332303a206d696e7420746f20746865207a65726f206164647265737300600082015250565b600061146a601f83610c6a565b915061147582611434565b602082019050919050565b600060208201905081810360008301526114998161145d565b905091905056fea26469706673582212201ed4f87db947509a1e0c2d3413f66b476233a615f7ddb300c9e410708dbc8c0264736f6c634300080f0033a26469706673582212207c895f7134b95ac46f8aea2c1237915be87d42467f3ca95b8e3143f29a77eb7e64736f6c634300080f0033608060405234801561001057600080fd5b5032600260006101000a81548173ffffffffffffffffffffffffffffffffffffffff021916908373ffffffffffffffffffffffffffffffffffffffff160217905550611a01806100616000396000f3fe60806040526004361061011f5760003560e01c806372a9d124116100a0578063b8c876b111610064578063b8c876b1146103e0578063cd6dc6871461041d578063d0e30db014610439578063ddca3f4314610443578063debc674c1461046e5761011f565b806372a9d1241461031857806374942c0f146103555780637937c03d1461038057806382b2e2571461038a5780638666107c146103b55761011f565b80635f244d4e116100e75780635f244d4e146101f857806366b3f6bf1461023657806367da263d146102735780636f7bc9be146102b0578063707e7e87146102ed5761011f565b806312065fe0146101245780631eb928aa1461014f57806326c4e60d1461018d5780632e1a7d4d146101a457806331f3bd28146101cd575b600080fd5b34801561013057600080fd5b50610139610497565b60405161014691906114f7565b60405180910390f35b34801561015b57600080fd5b5061017660048036038101906101719190611543565b61049f565b604051610184929190611570565b60405180910390f35b34801561019957600080fd5b506101a2610582565b005b3480156101b057600080fd5b506101cb60048036038101906101c69190611543565b610651565b005b3480156101d957600080fd5b506101e26108dd565b6040516101ef91906114f7565b60405180910390f35b34801561020457600080fd5b5061021f600480360381019061021a9190611543565b6108e3565b60405161022d929190611570565b60405180910390f35b34801561024257600080fd5b5061025d600480360381019061025891906115f7565b6109c4565b60405161026a91906114f7565b60405180910390f35b34801561027f57600080fd5b5061029a60048036038101906102959190611543565b610a0d565b6040516102a791906114f7565b60405180910390f35b3480156102bc57600080fd5b506102d760048036038101906102d291906115f7565b610aba565b6040516102e491906114f7565b60405180910390f35b3480156102f957600080fd5b50610302610ad2565b60405161030f91906114f7565b60405180910390f35b34801561032457600080fd5b5061033f600480360381019061033a9190611543565b610ad8565b60405161034c91906114f7565b60405180910390f35b34801561036157600080fd5b5061036a610b90565b60405161037791906114f7565b60405180910390f35b610388610b96565b005b34801561039657600080fd5b5061039f610da0565b6040516103ac91906114f7565b60405180910390f35b3480156103c157600080fd5b506103ca610e42565b6040516103d791906114f7565b60405180910390f35b3480156103ec57600080fd5b50610407600480360381019061040291906115f7565b610e48565b60405161041491906114f7565b60405180910390f35b61043760048036038101906104329190611624565b610e60565b005b610441611004565b005b34801561044f57600080fd5b50610458611252565b60405161046591906114f7565b60405180910390f35b34801561047a57600080fd5b5061049560048036038101906104909190611543565b611258565b005b600047905090565b600080600060015447856104b39190611693565b6104bd919061171c565b9050600060015460008054906101000a900473ffffffffffffffffffffffffffffffffffffffff1673ffffffffffffffffffffffffffffffffffffffff166370a08231306040518263ffffffff1660e01b815260040161051d919061175c565b602060405180830381865afa15801561053a573d6000803e3d6000fd5b505050506040513d601f19601f8201168201806040525081019061055e919061178c565b866105699190611693565b610573919061171c565b90508181935093505050915091565b60006103e8600380546105959190611693565b61059f919061171c565b905060003273ffffffffffffffffffffffffffffffffffffffff16826040516105c7906117ea565b60006040518083038185875af1925050503d8060008114610604576040519150601f19603f3d011682016040523d82523d6000602084013e610609565b606091505b505090508061064d576040517f08c379a00000000000000000000000000000000000000000000000000000000081526004016106449061185c565b60405180910390fd5b5050565b600060015447836106629190611693565b61066c919061171c565b9050600060015460008054906101000a900473ffffffffffffffffffffffffffffffffffffffff1673ffffffffffffffffffffffffffffffffffffffff166370a08231306040518263ffffffff1660e01b81526004016106cc919061175c565b602060405180830381865afa1580156106e9573d6000803e3d6000fd5b505050506040513d601f19601f8201168201806040525081019061070d919061178c565b846107189190611693565b610722919061171c565b90508160016000828254610736919061187c565b9250508190555060003273ffffffffffffffffffffffffffffffffffffffff1683604051610763906117ea565b60006040518083038185875af1925050503d80600081146107a0576040519150601f19603f3d011682016040523d82523d6000602084013e6107a5565b606091505b50509050806107e9576040517f08c379a00000000000000000000000000000000000000000000000000000000081526004016107e09061185c565b60405180910390fd5b60008054906101000a900473ffffffffffffffffffffffffffffffffffffffff1673ffffffffffffffffffffffffffffffffffffffff1663a9059cbb32846040518363ffffffff1660e01b81526004016108449291906118b0565b6020604051808303816000875af1158015610863573d6000803e3d6000fd5b505050506040513d601f19601f820116820180604052508101906108879190611911565b61089057600080fd5b7f56ca301a9219608c91e7bcee90e083c19671d2cdcc96752c7af291cee5f9c8c883836040516108c1929190611570565b60405180910390a1826007819055508160068190555050505050565b60015481565b60008060004760008054906101000a900473ffffffffffffffffffffffffffffffffffffffff1673ffffffffffffffffffffffffffffffffffffffff166370a08231306040518263ffffffff1660e01b8152600401610942919061175c565b602060405180830381865afa15801561095f573d6000803e3d6000fd5b505050506040513d601f19601f82011682018060405250810190610983919061178c565b8561098e9190611693565b610998919061171c565b9050600047600154866109ab9190611693565b6109b5919061171c565b90508181935093505050915091565b6000600460008373ffffffffffffffffffffffffffffffffffffffff1673ffffffffffffffffffffffffffffffffffffffff168152602001908152602001600020549050919050565b6000610ab38260008054906101000a900473ffffffffffffffffffffffffffffffffffffffff1673ffffffffffffffffffffffffffffffffffffffff166370a08231306040518263ffffffff1660e01b8152600401610a6c919061175c565b602060405180830381865afa158015610a89573d6000803e3d6000fd5b505050506040513d601f19601f82011682018060405250810190610aad919061178c565b476114b1565b9050919050565b60046020528060005260406000206000915090505481565b60085481565b6000610b89828347610aea919061187c565b60008054906101000a900473ffffffffffffffffffffffffffffffffffffffff1673ffffffffffffffffffffffffffffffffffffffff166370a08231306040518263ffffffff1660e01b8152600401610b43919061175c565b602060405180830381865afa158015610b60573d6000803e3d6000fd5b505050506040513d601f19601f82011682018060405250810190610b84919061178c565b6114b1565b9050919050565b60065481565b6000610c47343447610ba8919061187c565b60008054906101000a900473ffffffffffffffffffffffffffffffffffffffff1673ffffffffffffffffffffffffffffffffffffffff166370a08231306040518263ffffffff1660e01b8152600401610c01919061175c565b602060405180830381865afa158015610c1e573d6000803e3d6000fd5b505050506040513d601f19601f82011682018060405250810190610c42919061178c565b6114b1565b905060008054906101000a900473ffffffffffffffffffffffffffffffffffffffff1673ffffffffffffffffffffffffffffffffffffffff1663a9059cbb32836040518363ffffffff1660e01b8152600401610ca49291906118b0565b6020604051808303816000875af1158015610cc3573d6000803e3d6000fd5b505050506040513d601f19601f82011682018060405250810190610ce79190611911565b610cf057600080fd5b3460036000828254610d02919061193e565b9250508190555034600460003273ffffffffffffffffffffffffffffffffffffffff1673ffffffffffffffffffffffffffffffffffffffff1681526020019081526020016000206000828254610d58919061193e565b92505081905550806006819055507fdb04c7a6d4758fd55d738ebc67e7f3010ac922be00771ef29521a4090d1eb13f81604051610d9591906114f7565b60405180910390a150565b60008060009054906101000a900473ffffffffffffffffffffffffffffffffffffffff1673ffffffffffffffffffffffffffffffffffffffff166370a08231306040518263ffffffff1660e01b8152600401610dfc919061175c565b602060405180830381865afa158015610e19573d6000803e3d6000fd5b505050506040513d601f19601f82011682018060405250810190610e3d919061178c565b905090565b60075481565b60056020528060005260406000206000915090505481565b600060015414610e6f57600080fd5b60008111610e7c57600080fd5b60003411610e8957600080fd5b6000600381905550816000806101000a81548173ffffffffffffffffffffffffffffffffffffffff021916908373ffffffffffffffffffffffffffffffffffffffff16021790555047600181905550600154600560003273ffffffffffffffffffffffffffffffffffffffff1673ffffffffffffffffffffffffffffffffffffffff1681526020019081526020016000208190555060008054906101000a900473ffffffffffffffffffffffffffffffffffffffff1673ffffffffffffffffffffffffffffffffffffffff166323b872dd3230846040518463ffffffff1660e01b8152600401610f7b93929190611994565b6020604051808303816000875af1158015610f9a573d6000803e3d6000fd5b505050506040513d601f19601f82011682018060405250810190610fbe9190611911565b610fc757600080fd5b7fc43e48cf47e9fa186d0f4096c61d1fcb54159799f935a2aa32e5589688ee36e1600154604051610ff891906114f7565b60405180910390a15050565b6000341161101157600080fd5b6000344761101f919061187c565b60008054906101000a900473ffffffffffffffffffffffffffffffffffffffff1673ffffffffffffffffffffffffffffffffffffffff166370a08231306040518263ffffffff1660e01b8152600401611078919061175c565b602060405180830381865afa158015611095573d6000803e3d6000fd5b505050506040513d601f19601f820116820180604052508101906110b9919061178c565b346110c49190611693565b6110ce919061171c565b9050600034476110de919061187c565b600154346110ec9190611693565b6110f6919061171c565b905080600560003273ffffffffffffffffffffffffffffffffffffffff1673ffffffffffffffffffffffffffffffffffffffff1681526020019081526020016000206000828254611147919061193e565b925050819055508060016000828254611160919061193e565b9250508190555060008054906101000a900473ffffffffffffffffffffffffffffffffffffffff1673ffffffffffffffffffffffffffffffffffffffff166323b872dd3230856040518463ffffffff1660e01b81526004016111c493929190611994565b6020604051808303816000875af11580156111e3573d6000803e3d6000fd5b505050506040513d601f19601f820116820180604052508101906112079190611911565b61121057600080fd5b7f4d6ce1e535dbade1c23defba91e23b8f791ce5edc0cc320257a2b364e4e384268160405161123f91906114f7565b60405180910390a1806008819055505050565b60035481565b60006112fe8260008054906101000a900473ffffffffffffffffffffffffffffffffffffffff1673ffffffffffffffffffffffffffffffffffffffff166370a08231306040518263ffffffff1660e01b81526004016112b7919061175c565b602060405180830381865afa1580156112d4573d6000803e3d6000fd5b505050506040513d601f19601f820116820180604052508101906112f8919061178c565b476114b1565b905060003273ffffffffffffffffffffffffffffffffffffffff1682604051611326906117ea565b60006040518083038185875af1925050503d8060008114611363576040519150601f19603f3d011682016040523d82523d6000602084013e611368565b606091505b50509050806113ac576040517f08c379a00000000000000000000000000000000000000000000000000000000081526004016113a39061185c565b60405180910390fd5b60008054906101000a900473ffffffffffffffffffffffffffffffffffffffff1673ffffffffffffffffffffffffffffffffffffffff166323b872dd3230866040518463ffffffff1660e01b815260040161140993929190611994565b6020604051808303816000875af1158015611428573d6000803e3d6000fd5b505050506040513d601f19601f8201168201806040525081019061144c9190611911565b61145557600080fd5b8160036000828254611467919061193e565b925050819055507f4dbf3a71a7c7262f432c2cad7808225832255d07f7d8ab85117677c0b5c0a8508260405161149d91906114f7565b60405180910390a181600781905550505050565b600083836114bf919061193e565b82856114cb9190611693565b6114d5919061171c565b90509392505050565b6000819050919050565b6114f1816114de565b82525050565b600060208201905061150c60008301846114e8565b92915050565b600080fd5b611520816114de565b811461152b57600080fd5b50565b60008135905061153d81611517565b92915050565b60006020828403121561155957611558611512565b5b60006115678482850161152e565b91505092915050565b600060408201905061158560008301856114e8565b61159260208301846114e8565b9392505050565b600073ffffffffffffffffffffffffffffffffffffffff82169050919050565b60006115c482611599565b9050919050565b6115d4816115b9565b81146115df57600080fd5b50565b6000813590506115f1816115cb565b92915050565b60006020828403121561160d5761160c611512565b5b600061161b848285016115e2565b91505092915050565b6000806040838503121561163b5761163a611512565b5b6000611649858286016115e2565b925050602061165a8582860161152e565b9150509250929050565b7f4e487b7100000000000000000000000000000000000000000000000000000000600052601160045260246000fd5b600061169e826114de565b91506116a9836114de565b9250817fffffffffffffffffffffffffffffffffffffffffffffffffffffffffffffffff04831182151516156116e2576116e1611664565b5b828202905092915050565b7f4e487b7100000000000000000000000000000000000000000000000000000000600052601260045260246000fd5b6000611727826114de565b9150611732836114de565b925082611742576117416116ed565b5b828204905092915050565b611756816115b9565b82525050565b6000602082019050611771600083018461174d565b92915050565b60008151905061178681611517565b92915050565b6000602082840312156117a2576117a1611512565b5b60006117b084828501611777565b91505092915050565b600081905092915050565b50565b60006117d46000836117b9565b91506117df826117c4565b600082019050919050565b60006117f5826117c7565b9150819050919050565b600082825260208201905092915050565b7f5472616e73666572206661696c65642e00000000000000000000000000000000600082015250565b60006118466010836117ff565b915061185182611810565b602082019050919050565b6000602082019050818103600083015261187581611839565b9050919050565b6000611887826114de565b9150611892836114de565b9250828210156118a5576118a4611664565b5b828203905092915050565b60006040820190506118c5600083018561174d565b6118d260208301846114e8565b9392505050565b60008115159050919050565b6118ee816118d9565b81146118f957600080fd5b50565b60008151905061190b816118e5565b92915050565b60006020828403121561192757611926611512565b5b6000611935848285016118fc565b91505092915050565b6000611949826114de565b9150611954836114de565b9250827fffffffffffffffffffffffffffffffffffffffffffffffffffffffffffffffff0382111561198957611988611664565b5b828201905092915050565b60006060820190506119a9600083018661174d565b6119b6602083018561174d565b6119c360408301846114e8565b94935050505056fea264697066735822122033984b838cfb5aca586383d55ac0fe74d7861fb034da80cd8e5ed2a57d6a63d764736f6c634300080f0033608060405234801561001057600080fd5b50611959806100206000396000f3fe608060405234801561001057600080fd5b50600436106101375760003560e01c80635d8ab6e7116100b8578063a29325581161007c578063a2932558146102f0578063ac7fdd391461030e578063b794cc2f1461032c578063c43745751461035c578063ea7a9b4e1461038c578063f7155345146103bc57610137565b80635d8ab6e7146102705780636901f6681461028e5780638d15d676146102985780638da5cb5b146102b4578063990ec12b146102d257610137565b80631c4695f4116100ff5780631c4695f4146101e05780631d846c65146101fe57806335aa2e441461021a5780634e7f4d3c1461024a5780635836e0b51461026657610137565b8063036b61101461013c57806309bd5a6014610158578063123119cd1461017657806313af4035146101945780631a2db8d2146101b0575b600080fd5b6101566004803603810190610151919061101d565b6103ec565b005b6101606103ff565b60405161016d91906110ee565b60405180910390f35b61017e61048d565b60405161018b91906110ee565b60405180910390f35b6101ae60048036038101906101a9919061116e565b61051b565b005b6101ca60048036038101906101c5919061116e565b61055e565b6040516101d791906111b6565b60405180910390f35b6101e861057e565b6040516101f591906110ee565b60405180910390f35b6102186004803603810190610213919061101d565b61060c565b005b610234600480360381019061022f9190611207565b61061f565b6040516102419190611243565b60405180910390f35b610264600480360381019061025f919061101d565b61065e565b005b61026e610671565b005b610278610925565b604051610285919061126d565b60405180910390f35b610296610932565b005b6102b260048036038101906102ad919061101d565b610be6565b005b6102bc610bf9565b6040516102c99190611243565b60405180910390f35b6102da610c1d565b6040516102e7919061126d565b60405180910390f35b6102f8610c2a565b60405161030591906110ee565b60405180910390f35b610316610cb8565b60405161032391906111b6565b60405180910390f35b6103466004803603810190610341919061116e565b610d08565b60405161035391906111b6565b60405180910390f35b6103766004803603810190610371919061116e565b610db6565b60405161038391906111b6565b60405180910390f35b6103a660048036038101906103a19190611207565b610e64565b6040516103b39190611243565b60405180910390f35b6103d660048036038101906103d1919061116e565b610ea3565b6040516103e391906111b6565b60405180910390f35b80600290816103fb9190611494565b5050565b6003805461040c906112b7565b80601f0160208091040260200160405190810160405280929190818152602001828054610438906112b7565b80156104855780601f1061045a57610100808354040283529160200191610485565b820191906000526020600020905b81548152906001019060200180831161046857829003601f168201915b505050505081565b6001805461049a906112b7565b80601f01602080910402602001604051908101604052809291908181526020018280546104c6906112b7565b80156105135780601f106104e857610100808354040283529160200191610513565b820191906000526020600020905b8154815290600101906020018083116104f657829003601f168201915b505050505081565b806000806101000a81548173ffffffffffffffffffffffffffffffffffffffff021916908373ffffffffffffffffffffffffffffffffffffffff16021790555050565b60086020528060005260406000206000915054906101000a900460ff1681565b6004805461058b906112b7565b80601f01602080910402602001604051908101604052809291908181526020018280546105b7906112b7565b80156106045780601f106105d957610100808354040283529160200191610604565b820191906000526020600020905b8154815290600101906020018083116105e757829003601f168201915b505050505081565b806003908161061b9190611494565b5050565b6005818154811061062f57600080fd5b906000526020600020016000915054906101000a900473ffffffffffffffffffffffffffffffffffffffff1681565b806001908161066d9190611494565b5050565b3273ffffffffffffffffffffffffffffffffffffffff1660008054906101000a900473ffffffffffffffffffffffffffffffffffffffff1673ffffffffffffffffffffffffffffffffffffffff16036106ff576040517f08c379a00000000000000000000000000000000000000000000000000000000081526004016106f6906115d8565b60405180910390fd5b600860003273ffffffffffffffffffffffffffffffffffffffff1673ffffffffffffffffffffffffffffffffffffffff16815260200190815260200160002060009054906101000a900460ff161561078c576040517f08c379a000000000000000000000000000000000000000000000000000000000815260040161078390611644565b60405180910390fd5b600760003273ffffffffffffffffffffffffffffffffffffffff1673ffffffffffffffffffffffffffffffffffffffff16815260200190815260200160002060009054906101000a900460ff1615610819576040517f08c379a0000000000000000000000000000000000000000000000000000000008152600401610810906116d6565b60405180910390fd5b6006329080600181540180825580915050600190039060005260206000200160009091909190916101000a81548173ffffffffffffffffffffffffffffffffffffffff021916908373ffffffffffffffffffffffffffffffffffffffff1602179055506001600860003273ffffffffffffffffffffffffffffffffffffffff1673ffffffffffffffffffffffffffffffffffffffff16815260200190815260200160002060006101000a81548160ff0219169083151502179055503273ffffffffffffffffffffffffffffffffffffffff167f9036bc06ad4a578f0132d89ba4adc07b9772275526730acc38d7e4b4c11872a3600260405161091b919061177a565b60405180910390a2565b6000600680549050905090565b3273ffffffffffffffffffffffffffffffffffffffff1660008054906101000a900473ffffffffffffffffffffffffffffffffffffffff1673ffffffffffffffffffffffffffffffffffffffff16036109c0576040517f08c379a00000000000000000000000000000000000000000000000000000000081526004016109b79061180e565b60405180910390fd5b600760003273ffffffffffffffffffffffffffffffffffffffff1673ffffffffffffffffffffffffffffffffffffffff16815260200190815260200160002060009054906101000a900460ff1615610a4d576040517f08c379a0000000000000000000000000000000000000000000000000000000008152600401610a449061187a565b60405180910390fd5b600860003273ffffffffffffffffffffffffffffffffffffffff1673ffffffffffffffffffffffffffffffffffffffff16815260200190815260200160002060009054906101000a900460ff1615610ada576040517f08c379a0000000000000000000000000000000000000000000000000000000008152600401610ad1906116d6565b60405180910390fd5b6005329080600181540180825580915050600190039060005260206000200160009091909190916101000a81548173ffffffffffffffffffffffffffffffffffffffff021916908373ffffffffffffffffffffffffffffffffffffffff1602179055506001600760003273ffffffffffffffffffffffffffffffffffffffff1673ffffffffffffffffffffffffffffffffffffffff16815260200190815260200160002060006101000a81548160ff0219169083151502179055503273ffffffffffffffffffffffffffffffffffffffff167f57d77eb32e87e8c65c7cec1df5b0e8a8d5c4eae1b40c7246e7668ed702dd247a6002604051610bdc919061177a565b60405180910390a2565b8060049081610bf59190611494565b5050565b60008054906101000a900473ffffffffffffffffffffffffffffffffffffffff1681565b6000600580549050905090565b60028054610c37906112b7565b80601f0160208091040260200160405190810160405280929190818152602001828054610c63906112b7565b8015610cb05780601f10610c8557610100808354040283529160200191610cb0565b820191906000526020600020905b815481529060010190602001808311610c9357829003601f168201915b505050505081565b600080600680549050905060006005805490509050600082148015610cde575060058110155b80610d01575060008214158015610d005750600582610cfd91906118c9565b81115b5b9250505090565b60008173ffffffffffffffffffffffffffffffffffffffff1660008054906101000a900473ffffffffffffffffffffffffffffffffffffffff1673ffffffffffffffffffffffffffffffffffffffff1603610d6257600080fd5b600860008373ffffffffffffffffffffffffffffffffffffffff1673ffffffffffffffffffffffffffffffffffffffff16815260200190815260200160002060009054906101000a900460ff169050919050565b60008173ffffffffffffffffffffffffffffffffffffffff1660008054906101000a900473ffffffffffffffffffffffffffffffffffffffff1673ffffffffffffffffffffffffffffffffffffffff1603610e1057600080fd5b600760008373ffffffffffffffffffffffffffffffffffffffff1673ffffffffffffffffffffffffffffffffffffffff16815260200190815260200160002060009054906101000a900460ff169050919050565b60068181548110610e7457600080fd5b906000526020600020016000915054906101000a900473ffffffffffffffffffffffffffffffffffffffff1681565b60076020528060005260406000206000915054906101000a900460ff1681565b6000604051905090565b600080fd5b600080fd5b600080fd5b600080fd5b6000601f19601f8301169050919050565b7f4e487b7100000000000000000000000000000000000000000000000000000000600052604160045260246000fd5b610f2a82610ee1565b810181811067ffffffffffffffff82111715610f4957610f48610ef2565b5b80604052505050565b6000610f5c610ec3565b9050610f688282610f21565b919050565b600067ffffffffffffffff821115610f8857610f87610ef2565b5b610f9182610ee1565b9050602081019050919050565b82818337600083830152505050565b6000610fc0610fbb84610f6d565b610f52565b905082815260208101848484011115610fdc57610fdb610edc565b5b610fe7848285610f9e565b509392505050565b600082601f83011261100457611003610ed7565b5b8135611014848260208601610fad565b91505092915050565b60006020828403121561103357611032610ecd565b5b600082013567ffffffffffffffff81111561105157611050610ed2565b5b61105d84828501610fef565b91505092915050565b600081519050919050565b600082825260208201905092915050565b60005b838110156110a0578082015181840152602081019050611085565b838111156110af576000848401525b50505050565b60006110c082611066565b6110ca8185611071565b93506110da818560208601611082565b6110e381610ee1565b840191505092915050565b6000602082019050818103600083015261110881846110b5565b905092915050565b600073ffffffffffffffffffffffffffffffffffffffff82169050919050565b600061113b82611110565b9050919050565b61114b81611130565b811461115657600080fd5b50565b60008135905061116881611142565b92915050565b60006020828403121561118457611183610ecd565b5b600061119284828501611159565b91505092915050565b60008115159050919050565b6111b08161119b565b82525050565b60006020820190506111cb60008301846111a7565b92915050565b6000819050919050565b6111e4816111d1565b81146111ef57600080fd5b50565b600081359050611201816111db565b92915050565b60006020828403121561121d5761121c610ecd565b5b600061122b848285016111f2565b91505092915050565b61123d81611130565b82525050565b60006020820190506112586000830184611234565b92915050565b611267816111d1565b82525050565b6000602082019050611282600083018461125e565b92915050565b7f4e487b7100000000000000000000000000000000000000000000000000000000600052602260045260246000fd5b600060028204905060018216806112cf57607f821691505b6020821081036112e2576112e1611288565b5b50919050565b60008190508160005260206000209050919050565b60006020601f8301049050919050565b600082821b905092915050565b60006008830261134a7fffffffffffffffffffffffffffffffffffffffffffffffffffffffffffffffff8261130d565b611354868361130d565b95508019841693508086168417925050509392505050565b6000819050919050565b600061139161138c611387846111d1565b61136c565b6111d1565b9050919050565b6000819050919050565b6113ab83611376565b6113bf6113b782611398565b84845461131a565b825550505050565b600090565b6113d46113c7565b6113df8184846113a2565b505050565b5b81811015611403576113f86000826113cc565b6001810190506113e5565b5050565b601f82111561144857611419816112e8565b611422846112fd565b81016020851015611431578190505b61144561143d856112fd565b8301826113e4565b50505b505050565b600082821c905092915050565b600061146b6000198460080261144d565b1980831691505092915050565b6000611484838361145a565b9150826002028217905092915050565b61149d82611066565b67ffffffffffffffff8111156114b6576114b5610ef2565b5b6114c082546112b7565b6114cb828285611407565b600060209050601f8311600181146114fe57600084156114ec578287015190505b6114f68582611478565b86555061155e565b601f19841661150c866112e8565b60005b828110156115345784890151825560018201915060208501945060208101905061150f565b86831015611551578489015161154d601f89168261145a565b8355505b6001600288020188555050505b505050505050565b7f4f776e65722063616e6e6f742064656e7920686973206f776e20646f63756d6560008201527f6e74000000000000000000000000000000000000000000000000000000000000602082015250565b60006115c2602283611071565b91506115cd82611566565b604082019050919050565b600060208201905081810360008301526115f1816115b5565b9050919050565b7f52657065617465642064656e656761746f720000000000000000000000000000600082015250565b600061162e601283611071565b9150611639826115f8565b602082019050919050565b6000602082019050818103600083015261165d81611621565b9050919050565b7f596f752063616e6e6f742076616c696461746520616e642064656e792061742060008201527f7468652073616d652074696d6500000000000000000000000000000000000000602082015250565b60006116c0602d83611071565b91506116cb82611664565b604082019050919050565b600060208201905081810360008301526116ef816116b3565b9050919050565b60008154611703816112b7565b61170d8186611071565b94506001821660008114611728576001811461173e57611771565b60ff198316865281151560200286019350611771565b611747856112e8565b60005b838110156117695781548189015260018201915060208101905061174a565b808801955050505b50505092915050565b6000602082019050818103600083015261179481846116f6565b905092915050565b7f4f776e65722063616e6e6f742076616c696461746520686973206f776e20646f60008201527f63756d656e740000000000000000000000000000000000000000000000000000602082015250565b60006117f8602683611071565b91506118038261179c565b604082019050919050565b60006020820190508181036000830152611827816117eb565b9050919050565b7f52657065617465642076616c696461746f720000000000000000000000000000600082015250565b6000611864601283611071565b915061186f8261182e565b602082019050919050565b6000602082019050818103600083015261189381611857565b9050919050565b7f4e487b7100000000000000000000000000000000000000000000000000000000600052601160045260246000fd5b60006118d4826111d1565b91506118df836111d1565b9250817fffffffffffffffffffffffffffffffffffffffffffffffffffffffffffffffff04831182151516156119185761191761189a565b5b82820290509291505056fea2646970667358221220b7e1d01186aa8b25f878d3c62cba8dff478dd3ed64953ac7772fd07faf280eae64736f6c634300080f00336080604052671158e460913d00006003553480156200001d57600080fd5b5060405162000b1338038062000b138339818101604052810190620000439190620000ec565b6012600181905550600154600a6200005c9190620002a1565b81620000699190620002f2565b6000819055506000600260006101000a81548160ff0219169083151502179055506000600260016101000a81548160ff0219169083151502179055505062000353565b600080fd5b6000819050919050565b620000c681620000b1565b8114620000d257600080fd5b50565b600081519050620000e681620000bb565b92915050565b600060208284031215620001055762000104620000ac565b5b60006200011584828501620000d5565b91505092915050565b7f4e487b7100000000000000000000000000000000000000000000000000000000600052601160045260246000fd5b60008160011c9050919050565b6000808291508390505b6001851115620001ac578086048111156200018457620001836200011e565b5b6001851615620001945780820291505b8081029050620001a4856200014d565b945062000164565b94509492505050565b600082620001c757600190506200029a565b81620001d757600090506200029a565b8160018114620001f05760028114620001fb5762000231565b60019150506200029a565b60ff84111562000210576200020f6200011e565b5b8360020a9150848211156200022a57620002296200011e565b5b506200029a565b5060208310610133831016604e8410600b84101617156200026b5782820a9050838111156200026557620002646200011e565b5b6200029a565b6200027a84848460016200015a565b925090508184048111156200029457620002936200011e565b5b81810290505b9392505050565b6000620002ae82620000b1565b9150620002bb83620000b1565b9250620002ea7fffffffffffffffffffffffffffffffffffffffffffffffffffffffffffffffff8484620001b5565b905092915050565b6000620002ff82620000b1565b91506200030c83620000b1565b9250817fffffffffffffffffffffffffffffffffffffffffffffffffffffffffffffffff04831182151516156200034857620003476200011e565b5b828202905092915050565b6107b080620003636000396000f3fe608060405234801561001057600080fd5b50600436106100575760003560e01c8063131e2f181461005c5780632c4e722e1461008c57806384c6e2c8146100aa5780639f8af9dd146100b4578063effc1fe0146100d0575b600080fd5b61007660048036038101906100719190610375565b6100da565b60405161008391906103b1565b60405180910390f35b610094610121565b6040516100a191906103b1565b60405180910390f35b6100b2610127565b005b6100ce60048036038101906100c991906103cc565b610131565b005b6100d86102dd565b005b6000600154600a6100eb919061056e565b6064600054846100fb91906105b9565b6101059190610642565b61010f9190610642565b8261011a9190610673565b9050919050565b60005481565b61012f610317565b565b600260009054906101000a900460ff1615610181576040517f08c379a000000000000000000000000000000000000000000000000000000000815260040161017890610726565b60405180910390fd5b6000600154600a610192919061056e565b8361019d91906105b9565b9050600082826101ad9190610642565b9050806003541161020657600354816101c69190610746565b6000808282546101d69190610673565b9250508190555068056bc75e2d6310000060005411156102015768056bc75e2d631000006000819055505b6102bc565b6000600154600a610217919061056e565b600261022391906105b9565b90506000858560035461023691906105b9565b6102409190610642565b90508181111561025e576729a2241af62c0000600081905550610297565b600154600a61026d919061056e565b81836102799190610746565b60005461028691906105b9565b6102909190610642565b6000819055505b6729a2241af62c000060005410156102b9576729a2241af62c00006000819055505b50505b6001600260006101000a81548160ff02191690831515021790555050505050565b600260019054906101000a900460ff16610315576102f9610317565b6001600260016101000a81548160ff0219169083151502179055505b565b6008600760005461032891906105b9565b6103329190610642565b600081905550565b600080fd5b6000819050919050565b6103528161033f565b811461035d57600080fd5b50565b60008135905061036f81610349565b92915050565b60006020828403121561038b5761038a61033a565b5b600061039984828501610360565b91505092915050565b6103ab8161033f565b82525050565b60006020820190506103c660008301846103a2565b92915050565b600080604083850312156103e3576103e261033a565b5b60006103f185828601610360565b925050602061040285828601610360565b9150509250929050565b7f4e487b7100000000000000000000000000000000000000000000000000000000600052601160045260246000fd5b60008160011c9050919050565b6000808291508390505b60018511156104925780860481111561046e5761046d61040c565b5b600185161561047d5780820291505b808102905061048b8561043b565b9450610452565b94509492505050565b6000826104ab5760019050610567565b816104b95760009050610567565b81600181146104cf57600281146104d957610508565b6001915050610567565b60ff8411156104eb576104ea61040c565b5b8360020a9150848211156105025761050161040c565b5b50610567565b5060208310610133831016604e8410600b841016171561053d5782820a9050838111156105385761053761040c565b5b610567565b61054a8484846001610448565b925090508184048111156105615761056061040c565b5b81810290505b9392505050565b60006105798261033f565b91506105848361033f565b92506105b17fffffffffffffffffffffffffffffffffffffffffffffffffffffffffffffffff848461049b565b905092915050565b60006105c48261033f565b91506105cf8361033f565b9250817fffffffffffffffffffffffffffffffffffffffffffffffffffffffffffffffff04831182151516156106085761060761040c565b5b828202905092915050565b7f4e487b7100000000000000000000000000000000000000000000000000000000600052601260045260246000fd5b600061064d8261033f565b91506106588361033f565b92508261066857610667610613565b5b828204905092915050565b600061067e8261033f565b91506106898361033f565b9250827fffffffffffffffffffffffffffffffffffffffffffffffffffffffffffffffff038211156106be576106bd61040c565b5b828201905092915050565b600082825260208201905092915050565b7f416c726561647920657865637574656400000000000000000000000000000000600082015250565b60006107106010836106c9565b915061071b826106da565b602082019050919050565b6000602082019050818103600083015261073f81610703565b9050919050565b60006107518261033f565b915061075c8361033f565b92508282101561076f5761076e61040c565b5b82820390509291505056fea2646970667358221220e41ecf9dcd9443095e9c5124e01fa00a6f6ac3dae75b27fcd0d79fa35e852bd764736f6c634300080f0033",
  "immutableReferences": {},
  "source": "// SPDX-License-Identifier: GPL-3.0\r\n\r\npragma solidity >=0.7.0 <0.9.0;\r\n\r\nimport \"./Verificador.sol\";\r\nimport \"./AMM.sol\";\r\nimport \"./Tokenitzar.sol\";\r\nimport \"./Interest.sol\";\r\n\r\n\r\ncontract Factoring {\r\n\r\n    //Contract elements:\r\n\r\n    //Verified document\r\n    Verificacio public verificador;\r\n    uint256 public value;\r\n    uint public expDays;\r\n\r\n    //Collateral\r\n    uint256 public collateral;\r\n\r\n    //Tokenization\r\n    Tokfa public tokenitzacio;\r\n    uint256 public tokensInit;\r\n\r\n    //Liquidity pool\r\n    DEX public LP;\r\n\r\n    //Interest\r\n    Interest public intFee;\r\n    bool private hasLink;\r\n    bool private hasHash;\r\n\r\n\r\n    constructor(){\r\n        LP = new DEX();\r\n        verificador = new Verificacio();\r\n        intFee = new Interest(15);\r\n    }\r\n\r\n    modifier onlyOwner{\r\n        require(verificador.owner() == msg.sender);\r\n        _;\r\n    }\r\n\r\n\r\n    //Setting new File\r\n    event NewDocument(address indexed owner, string filename, uint256 value, uint daysRemaining);\r\n\r\n    function DOCnewFile(string memory _filename, uint256 _value, uint _days) external {\r\n        value = _value;\r\n        expDays = block.timestamp + _days;\r\n\r\n        verificador.setFilename(_filename);\r\n        verificador.setOwner(msg.sender);\r\n\r\n        emit NewDocument(msg.sender, _filename, _value, _days);\r\n\r\n    }\r\n\r\n\r\n    //Important data that helps to validate\r\n    \r\n    function DOCsetHash(string memory hash) external onlyOwner{\r\n        verificador.setHashDoc(hash);\r\n        hasHash = true;\r\n        if (hasLink && hasHash){\r\n            intFee.adjustIntDoc();\r\n        }\r\n    }\r\n\r\n    function DOCgetHash() external view returns(string memory){\r\n        return verificador.hash();\r\n    }\r\n\r\n    function DOCsetURL(string memory link) external onlyOwner{\r\n        verificador.setLinkDoc(link);\r\n        hasLink = true;\r\n        if (hasLink && hasHash){\r\n            intFee.adjustIntDoc();\r\n        }\r\n    }\r\n    \r\n    function DOCgetURL() external view returns(string memory){\r\n        return verificador.link();\r\n    }\r\n\r\n    //1. VERIFY\r\n    event DOCValidated(address indexed validator, string asset);\r\n\r\n    function DOCvalidate() external{\r\n        verificador.validate();\r\n\r\n        if (verificador.checkValidation()){\r\n            intFee.adjustIntVerify();\r\n        }\r\n\r\n        emit DOCValidated(msg.sender, verificador.filename());\r\n    }\r\n\r\n    event DOCDenegated(address indexed denegator, string asset);\r\n    function DOCdeny() external {\r\n        verificador.denegate();\r\n\r\n        emit DOCDenegated(msg.sender, verificador.filename());\r\n    }\r\n\r\n\r\n    //2. TOKENIZATION\r\n\r\n    /*\r\n    STEPS:\r\n    1. Tokenize Asset\r\n    2. Give allowance to Contract\r\n    3. Initialize Liquidity Pool\r\n    4. Adjust interest rate\r\n    */\r\n\r\n    event StartLP(uint256 assetX, uint256 assetY);\r\n    \r\n\r\n    function start(uint256 quants_tokens) external payable {\r\n        collateral = msg.value;\r\n        \r\n        //1.\r\n        tokenitzacio = new Tokfa(quants_tokens);\r\n        uint256 token_amount = quants_tokens * 10**uint(tokenitzacio.decimals());\r\n        tokensInit = token_amount;\r\n\r\n        //2.\r\n        tokenitzacio.approve(tx.origin, address(LP), tokenitzacio.totalSupply());\r\n\r\n\r\n        //3.\r\n        LP.initialize{value:msg.value}(address(tokenitzacio), token_amount);\r\n\r\n        //4.\r\n\r\n        intFee.adjustIntCol(value, collateral);\r\n\r\n        emit StartLP(token_amount, msg.value);\r\n\r\n\r\n    }\r\n\r\n //----------SWAP ERC------------\r\n    \r\n    event BuyERC(uint256 payed, uint256 tokens_received);\r\n    \r\n    function LPbuyERC() external payable {\r\n        LP.ethToErc{value:msg.value}();\r\n        \r\n        emit BuyERC(msg.value, LP.tokens_received());\r\n    }\r\n\r\n //----------SWAP ETH------------\r\n\r\n    event BuyETH(uint256 payed, uint256 tokens_received);\r\n\r\n    function LPbuyETH(uint256 tokens) public {\r\n\r\n        tokenitzacio.approve(tx.origin, address(LP), tokens);\r\n        LP.ercToEth(tokens);\r\n        emit BuyETH(tokens, LP.eth_received());\r\n    }\r\n\r\n //----------DEPOSIT------------\r\n\r\n    event DepositLP(uint256 liquidity);\r\n    function LPdeposit() external payable {\r\n        uint256 tokens_added = tokenAmount(msg.value);\r\n        if (tokens_added > TFAmybalance()){\r\n            tokenitzacio.generate(tokens_added);\r\n        }\r\n\r\n        tokenitzacio.approve(tx.origin, address(LP), tokenAmount(msg.value));\r\n        LP.deposit{value:msg.value}();\r\n        emit DepositLP(LP.liq_added());\r\n    }\r\n\r\n    function tokenAmount(uint256 eth) internal view returns(uint256){\r\n        \r\n        (uint256 liquidity, ) = LP.liquidityAdded(eth);\r\n        return liquidity;\r\n    }\r\n\r\n //----------WITHDRAW------------\r\n\r\n    event WithdrawLP(uint256 eth_received, uint256 tokens_received);\r\n    function LPgetLiquidity(uint256 liquid) public {\r\n        LP.withdraw(liquid);\r\n\r\n        emit WithdrawLP(LP.eth_received(), LP.tokens_received());\r\n    }\r\n\r\n//----------FINAL FASE------------\r\n\r\n    function FINgetProfit() external {\r\n        LPgetLiquidity(intFee.mul(LP.invested(tx.origin)));\r\n    }\r\n\r\n    function FINarbit() external {\r\n        uint256 new_tokens = tokensInit - LP.getTokenBalance();\r\n        if (new_tokens > TFAmybalance()){\r\n            tokenitzacio.generate(new_tokens);\r\n        }\r\n        LPbuyETH(new_tokens);\r\n    }\r\n\r\n//----------INTERFACES------------\r\n\r\n\r\n    //LIQUIDITY POOL INTERFACE\r\n\r\n    function LPtokens() external view returns(uint256){\r\n        return LP.getTokenBalance();\r\n    }\r\n\r\n    function LPether()  external view returns(uint256){\r\n        return LP.getBalance();\r\n    }\r\n\r\n    function LPliquidity() external view returns(uint256){\r\n        return LP.total_liquidity();\r\n    }\r\n\r\n    function LPpriceForERC(uint256 eth) external view returns(uint256){\r\n        return LP.priceERC(eth);\r\n    }\r\n\r\n    function LPpriceForETH(uint256 tokens) external view returns(uint256){\r\n        return LP.priceETH(tokens);\r\n    }\r\n\r\n //----------CHECKERS------------\r\n\r\n    function LPadded(uint256 eth) external view returns(uint256, uint256){\r\n        return LP.liquidityAdded(eth);\r\n    }\r\n\r\n    function LPsubstracted(uint256 valor) external view returns(uint256, uint256){\r\n        return LP.liquiditySubstracted(valor);\r\n    }\r\n    \r\n    \r\n    \r\n    //TOKENIZATION INTERFACE\r\n\r\n    function TFAmybalance() public view returns(uint256){\r\n        return tokenitzacio.balanceOf(tx.origin);\r\n    }\r\n\r\n    function TFAbalance(address account) public view returns(uint256){\r\n        return tokenitzacio.balanceOf(account);\r\n    }\r\n\r\n    function TFAsupply() external view returns(uint256){\r\n        return tokenitzacio.totalSupply();\r\n    }\r\n\r\n    function ETHmybalance() public view returns(uint256){\r\n        return tx.origin.balance;\r\n    }\r\n\r\n    function ETHbalance(address account) public view returns(uint256){\r\n        return account.balance;\r\n    }\r\n\r\n\r\n    //INTEREST INTERFACE\r\n    function INTrate() external view returns(uint256){\r\n        return intFee.rate();\r\n    }\r\n\r\n\r\n\r\n\r\n\r\n}\r\n    ",
  "sourcePath": "C:\\Users\\qsamb\\OneDrive\\Escritorio\\PFG\\Recursos\\Code\\TEST\\contracts\\Factoring.sol",
  "compiler": {
    "name": "solc",
    "version": "0.8.15+commit.e14f2714.Emscripten.clang"
  },
  "schemaVersion": "3.4.8",
  "updatedAt": "2022-08-21T15:12:12.393Z",
  "networkType": "ethereum",
  "devdoc": {
    "kind": "dev",
    "methods": {},
    "version": 1
  },
  "userdoc": {
    "kind": "user",
    "methods": {},
    "version": 1
  }
}