{
  "contractName": "Factoring",
  "abi": [
    {
      "inputs": [],
      "stateMutability": "nonpayable",
      "type": "constructor"
    },
    {
      "anonymous": false,
      "inputs": [
        {
          "indexed": false,
          "internalType": "uint256",
          "name": "payed",
          "type": "uint256"
        },
        {
          "indexed": false,
          "internalType": "uint256",
          "name": "tokens_received",
          "type": "uint256"
        }
      ],
      "name": "BuyERC",
      "type": "event"
    },
    {
      "anonymous": false,
      "inputs": [
        {
          "indexed": false,
          "internalType": "uint256",
          "name": "payed",
          "type": "uint256"
        },
        {
          "indexed": false,
          "internalType": "uint256",
          "name": "tokens_received",
          "type": "uint256"
        }
      ],
      "name": "BuyETH",
      "type": "event"
    },
    {
      "anonymous": false,
      "inputs": [
        {
          "indexed": true,
          "internalType": "address",
          "name": "denegator",
          "type": "address"
        },
        {
          "indexed": false,
          "internalType": "string",
          "name": "asset",
          "type": "string"
        }
      ],
      "name": "DOCDenegated",
      "type": "event"
    },
    {
      "anonymous": false,
      "inputs": [
        {
          "indexed": true,
          "internalType": "address",
          "name": "validator",
          "type": "address"
        },
        {
          "indexed": false,
          "internalType": "string",
          "name": "asset",
          "type": "string"
        }
      ],
      "name": "DOCValidated",
      "type": "event"
    },
    {
      "anonymous": false,
      "inputs": [
        {
          "indexed": false,
          "internalType": "uint256",
          "name": "liquidity",
          "type": "uint256"
        }
      ],
      "name": "DepositLP",
      "type": "event"
    },
    {
      "anonymous": false,
      "inputs": [
        {
          "indexed": true,
          "internalType": "address",
          "name": "owner",
          "type": "address"
        },
        {
          "indexed": false,
          "internalType": "string",
          "name": "filename",
          "type": "string"
        },
        {
          "indexed": false,
          "internalType": "uint256",
          "name": "value",
          "type": "uint256"
        },
        {
          "indexed": false,
          "internalType": "uint256",
          "name": "daysRemaining",
          "type": "uint256"
        }
      ],
      "name": "NewDocument",
      "type": "event"
    },
    {
      "anonymous": false,
      "inputs": [
        {
          "indexed": false,
          "internalType": "uint256",
          "name": "assetX",
          "type": "uint256"
        },
        {
          "indexed": false,
          "internalType": "uint256",
          "name": "assetY",
          "type": "uint256"
        }
      ],
      "name": "StartLP",
      "type": "event"
    },
    {
      "anonymous": false,
      "inputs": [
        {
          "indexed": false,
          "internalType": "uint256",
          "name": "eth_received",
          "type": "uint256"
        },
        {
          "indexed": false,
          "internalType": "uint256",
          "name": "tokens_received",
          "type": "uint256"
        }
      ],
      "name": "WithdrawLP",
      "type": "event"
    },
    {
      "inputs": [],
      "name": "LP",
      "outputs": [
        {
          "internalType": "contract DEX",
          "name": "",
          "type": "address"
        }
      ],
      "stateMutability": "view",
      "type": "function",
      "constant": true
    },
    {
      "inputs": [],
      "name": "collateral",
      "outputs": [
        {
          "internalType": "uint256",
          "name": "",
          "type": "uint256"
        }
      ],
      "stateMutability": "view",
      "type": "function",
      "constant": true
    },
    {
      "inputs": [],
      "name": "expDays",
      "outputs": [
        {
          "internalType": "uint256",
          "name": "",
          "type": "uint256"
        }
      ],
      "stateMutability": "view",
      "type": "function",
      "constant": true
    },
    {
      "inputs": [],
      "name": "intFee",
      "outputs": [
        {
          "internalType": "contract Interest",
          "name": "",
          "type": "address"
        }
      ],
      "stateMutability": "view",
      "type": "function",
      "constant": true
    },
    {
      "inputs": [],
      "name": "tokenitzacio",
      "outputs": [
        {
          "internalType": "contract Tokfa",
          "name": "",
          "type": "address"
        }
      ],
      "stateMutability": "view",
      "type": "function",
      "constant": true
    },
    {
      "inputs": [],
      "name": "tokensInit",
      "outputs": [
        {
          "internalType": "uint256",
          "name": "",
          "type": "uint256"
        }
      ],
      "stateMutability": "view",
      "type": "function",
      "constant": true
    },
    {
      "inputs": [],
      "name": "value",
      "outputs": [
        {
          "internalType": "uint256",
          "name": "",
          "type": "uint256"
        }
      ],
      "stateMutability": "view",
      "type": "function",
      "constant": true
    },
    {
      "inputs": [],
      "name": "verificador",
      "outputs": [
        {
          "internalType": "contract Verificacio",
          "name": "",
          "type": "address"
        }
      ],
      "stateMutability": "view",
      "type": "function",
      "constant": true
    },
    {
      "inputs": [
        {
          "internalType": "string",
          "name": "_filename",
          "type": "string"
        },
        {
          "internalType": "uint256",
          "name": "_value",
          "type": "uint256"
        },
        {
          "internalType": "uint256",
          "name": "_days",
          "type": "uint256"
        }
      ],
      "name": "DOCnewFile",
      "outputs": [],
      "stateMutability": "nonpayable",
      "type": "function"
    },
    {
      "inputs": [
        {
          "internalType": "string",
          "name": "hash",
          "type": "string"
        }
      ],
      "name": "DOCsetHash",
      "outputs": [],
      "stateMutability": "nonpayable",
      "type": "function"
    },
    {
      "inputs": [],
      "name": "DOCgetHash",
      "outputs": [
        {
          "internalType": "string",
          "name": "",
          "type": "string"
        }
      ],
      "stateMutability": "view",
      "type": "function",
      "constant": true
    },
    {
      "inputs": [
        {
          "internalType": "string",
          "name": "link",
          "type": "string"
        }
      ],
      "name": "DOCsetURL",
      "outputs": [],
      "stateMutability": "nonpayable",
      "type": "function"
    },
    {
      "inputs": [],
      "name": "DOCgetURL",
      "outputs": [
        {
          "internalType": "string",
          "name": "",
          "type": "string"
        }
      ],
      "stateMutability": "view",
      "type": "function",
      "constant": true
    },
    {
      "inputs": [],
      "name": "DOCvalidate",
      "outputs": [],
      "stateMutability": "nonpayable",
      "type": "function"
    },
    {
      "inputs": [],
      "name": "DOCdeny",
      "outputs": [],
      "stateMutability": "nonpayable",
      "type": "function"
    },
    {
      "inputs": [
        {
          "internalType": "uint256",
          "name": "quants_tokens",
          "type": "uint256"
        }
      ],
      "name": "start",
      "outputs": [],
      "stateMutability": "payable",
      "type": "function",
      "payable": true
    },
    {
      "inputs": [],
      "name": "LPbuyERC",
      "outputs": [],
      "stateMutability": "payable",
      "type": "function",
      "payable": true
    },
    {
      "inputs": [
        {
          "internalType": "uint256",
          "name": "tokens",
          "type": "uint256"
        }
      ],
      "name": "LPbuyETH",
      "outputs": [],
      "stateMutability": "nonpayable",
      "type": "function"
    },
    {
      "inputs": [],
      "name": "LPdeposit",
      "outputs": [],
      "stateMutability": "payable",
      "type": "function",
      "payable": true
    },
    {
      "inputs": [
        {
          "internalType": "uint256",
          "name": "liquid",
          "type": "uint256"
        }
      ],
      "name": "LPgetLiquidity",
      "outputs": [],
      "stateMutability": "nonpayable",
      "type": "function"
    },
    {
      "inputs": [],
      "name": "FINgetProfit",
      "outputs": [],
      "stateMutability": "nonpayable",
      "type": "function"
    },
    {
      "inputs": [],
      "name": "FINarbit",
      "outputs": [],
      "stateMutability": "nonpayable",
      "type": "function"
    },
    {
      "inputs": [],
      "name": "LPtokens",
      "outputs": [
        {
          "internalType": "uint256",
          "name": "",
          "type": "uint256"
        }
      ],
      "stateMutability": "view",
      "type": "function",
      "constant": true
    },
    {
      "inputs": [],
      "name": "LPether",
      "outputs": [
        {
          "internalType": "uint256",
          "name": "",
          "type": "uint256"
        }
      ],
      "stateMutability": "view",
      "type": "function",
      "constant": true
    },
    {
      "inputs": [],
      "name": "LPliquidity",
      "outputs": [
        {
          "internalType": "uint256",
          "name": "",
          "type": "uint256"
        }
      ],
      "stateMutability": "view",
      "type": "function",
      "constant": true
    },
    {
      "inputs": [],
      "name": "TFAmybalance",
      "outputs": [
        {
          "internalType": "uint256",
          "name": "",
          "type": "uint256"
        }
      ],
      "stateMutability": "view",
      "type": "function",
      "constant": true
    },
    {
      "inputs": [
        {
          "internalType": "address",
          "name": "account",
          "type": "address"
        }
      ],
      "name": "TFAbalance",
      "outputs": [
        {
          "internalType": "uint256",
          "name": "",
          "type": "uint256"
        }
      ],
      "stateMutability": "view",
      "type": "function",
      "constant": true
    },
    {
      "inputs": [],
      "name": "TFAsupply",
      "outputs": [
        {
          "internalType": "uint256",
          "name": "",
          "type": "uint256"
        }
      ],
      "stateMutability": "view",
      "type": "function",
      "constant": true
    },
    {
      "inputs": [],
      "name": "ETHmybalance",
      "outputs": [
        {
          "internalType": "uint256",
          "name": "",
          "type": "uint256"
        }
      ],
      "stateMutability": "view",
      "type": "function",
      "constant": true
    },
    {
      "inputs": [
        {
          "internalType": "address",
          "name": "account",
          "type": "address"
        }
      ],
      "name": "ETHbalance",
      "outputs": [
        {
          "internalType": "uint256",
          "name": "",
          "type": "uint256"
        }
      ],
      "stateMutability": "view",
      "type": "function",
      "constant": true
    },
    {
      "inputs": [],
      "name": "INTrate",
      "outputs": [
        {
          "internalType": "uint256",
          "name": "",
          "type": "uint256"
        }
      ],
      "stateMutability": "view",
      "type": "function",
      "constant": true
    },
    {
      "inputs": [],
      "name": "restart",
      "outputs": [],
      "stateMutability": "nonpayable",
      "type": "function"
    }
  ],
  "bytecode": "0x60806040523480156200001157600080fd5b50604051620000209062000105565b604051809103906000f0801580156200003d573d6000803e3d6000fd5b50600680546001600160a01b0319166001600160a01b03929092169190911790556040516200006c9062000113565b604051809103906000f08015801562000089573d6000803e3d6000fd5b50600080546001600160a01b0319166001600160a01b0392909216919091179055604051600f90620000bb9062000121565b908152602001604051809103906000f080158015620000de573d6000803e3d6000fd5b50600780546001600160a01b0319166001600160a01b03929092169190911790556200012f565b61106b80620055ad83390190565b610be2806200661883390190565b61067780620071fa83390190565b61546e806200013f6000396000f3fe6080604052600436106200020b5760003560e01c80637eebe5c21162000117578063d782d3c311620000a1578063e19752c8116200006c578063e19752c81462000561578063ec28d2d41462000579578063f600584a1462000591578063f61a224914620005a957600080fd5b8063d782d3c314620004f4578063d7a8f6aa1462000519578063d8dfeb451462000531578063de34a245146200054957600080fd5b8063b87265e711620000e2578063b87265e714620004a2578063bdbe0f6614620004ac578063bdffc3be14620004c4578063caf2cfab14620004dc57600080fd5b80637eebe5c2146200042f57806395805dad1462000451578063b41f73811462000468578063b6fccf8a146200048057600080fd5b80633fa4f245116200019957806359ccef72116200016457806359ccef7214620003b557806359ee2dfd14620003da5780635acb25dc14620003f25780635f646a83146200041757600080fd5b80633fa4f245146200033457806340c1b5dd146200034c578063417e4e6814620003645780634e504747146200038957600080fd5b80633239315311620001da5780633239315314620002b5578063324d9ebc14620002cd57806338109dcf14620002ed5780633f579431146200030f57600080fd5b806316c6a79214620002105780631ef3755d146200024f578063270d3bc0146200026957806331e788ff1462000290575b600080fd5b3480156200021d57600080fd5b5060075462000232906001600160a01b031681565b6040516001600160a01b0390911681526020015b60405180910390f35b3480156200025c57600080fd5b5062000267620005b3565b005b3480156200027657600080fd5b5062000281620007b3565b60405162000246919062001ddb565b3480156200029d57600080fd5b5062000267620002af36600462001ec8565b6200082b565b348015620002c257600080fd5b5062000267620009bc565b348015620002da57600080fd5b5032315b60405190815260200162000246565b348015620002fa57600080fd5b5060045462000232906001600160a01b031681565b3480156200031c57600080fd5b50620002676200032e36600462001f09565b62000aa1565b3480156200034157600080fd5b50620002de60015481565b3480156200035957600080fd5b506200028162000bc6565b3480156200037157600080fd5b50620002de6200038336600462001f71565b62000c10565b3480156200039657600080fd5b50620002de620003a836600462001f71565b6001600160a01b03163190565b348015620003c257600080fd5b5062000267620003d436600462001f91565b62000c8d565b348015620003e757600080fd5b506200026762000e1e565b348015620003ff57600080fd5b50620002676200041136600462001f91565b6200100e565b3480156200042457600080fd5b50620002de62001156565b3480156200043c57600080fd5b5060005462000232906001600160a01b031681565b620002676200046236600462001f91565b620011c7565b3480156200047557600080fd5b50620002de620014a6565b3480156200048d57600080fd5b5060065462000232906001600160a01b031681565b62000267620014f5565b348015620004b957600080fd5b50620002de62001719565b348015620004d157600080fd5b506200026762001764565b348015620004e957600080fd5b50620002de60055481565b3480156200050157600080fd5b50620002676200051336600462001ec8565b62001829565b3480156200052657600080fd5b50620002de6200199f565b3480156200053e57600080fd5b50620002de60035481565b3480156200055657600080fd5b50620002de620019f5565b3480156200056e57600080fd5b50620002de60025481565b3480156200058657600080fd5b50620002de62001a40565b3480156200059e57600080fd5b506200026762001a8a565b6200026762001b88565b60005460408051638da5cb5b60e01b8152905133926001600160a01b031691638da5cb5b9160048083019260209291908290030181865afa158015620005fd573d6000803e3d6000fd5b505050506040513d601f19601f8201168201806040525081019062000623919062001fab565b6001600160a01b0316146200063757600080fd5b600660009054906101000a90046001600160a01b03166001600160a01b031663d56b28896040518163ffffffff1660e01b8152600401600060405180830381600087803b1580156200068857600080fd5b505af11580156200069d573d6000803e3d6000fd5b50505050604051620006af9062001d42565b604051809103906000f080158015620006cc573d6000803e3d6000fd5b50600680546001600160a01b0319166001600160a01b0392909216919091179055604051620006fb9062001d50565b604051809103906000f08015801562000718573d6000803e3d6000fd5b50600080546001600160a01b0319166001600160a01b0392909216919091179055604051600f906200074a9062001d5e565b908152602001604051809103906000f0801580156200076d573d6000803e3d6000fd5b5060078054600060018190556002819055600381905560055575ffffffffffffffffffffffffffffffffffffffffffff19166001600160a01b0392909216919091179055565b6000805460408051624dead360e51b815290516060936001600160a01b03909316926309bd5a6092600480820193918290030181865afa158015620007fc573d6000803e3d6000fd5b505050506040513d6000823e601f3d908101601f1916820160405262000826919081019062001fcb565b905090565b60005460408051638da5cb5b60e01b8152905133926001600160a01b031691638da5cb5b9160048083019260209291908290030181865afa15801562000875573d6000803e3d6000fd5b505050506040513d601f19601f820116820180604052508101906200089b919062001fab565b6001600160a01b031614620008af57600080fd5b60005460405163468aeb3b60e11b81526001600160a01b0390911690638d15d67690620008e190849060040162001ddb565b600060405180830381600087803b158015620008fc57600080fd5b505af115801562000911573d6000803e3d6000fd5b50506007805460ff60a01b1916600160a01b90811791829055900460ff169150508015620009485750600754600160a81b900460ff165b15620009b957600760009054906101000a90046001600160a01b03166001600160a01b03166384c6e2c86040518163ffffffff1660e01b8152600401600060405180830381600087803b1580156200099f57600080fd5b505af1158015620009b4573d6000803e3d6000fd5b505050505b50565b6007546006546040516366b3f6bf60e01b815232600482015262000a9f926001600160a01b039081169263131e2f18929116906366b3f6bf90602401602060405180830381865afa15801562000a16573d6000803e3d6000fd5b505050506040513d601f19601f8201168201806040525081019062000a3c91906200204b565b6040518263ffffffff1660e01b815260040162000a5b91815260200190565b602060405180830381865afa15801562000a79573d6000803e3d6000fd5b505050506040513d601f19601f82011682018060405250810190620003d491906200204b565b565b600182905562000ab18162001ca9565b6002556000546040516236b61160e41b81526001600160a01b039091169063036b61109062000ae590869060040162001ddb565b600060405180830381600087803b15801562000b0057600080fd5b505af115801562000b15573d6000803e3d6000fd5b50506000546040516313af403560e01b81523360048201526001600160a01b0390911692506313af40359150602401600060405180830381600087803b15801562000b5f57600080fd5b505af115801562000b74573d6000803e3d6000fd5b50505050336001600160a01b03167f66c0e157fdff18242032cbe1aa0b731eb49ff6e593bccbf1fded370364610c19848460025460405162000bb99392919062002065565b60405180910390a2505050565b6000805460408051630711a57d60e21b815290516060936001600160a01b0390931692631c4695f492600480820193918290030181865afa158015620007fc573d6000803e3d6000fd5b600480546040516370a0823160e01b81526001600160a01b0384811693820193909352600092909116906370a0823190602401602060405180830381865afa15801562000c61573d6000803e3d6000fd5b505050506040513d601f19601f8201168201806040525081019062000c8791906200204b565b92915050565b600654604051632e1a7d4d60e01b8152600481018390526001600160a01b0390911690632e1a7d4d90602401600060405180830381600087803b15801562000cd457600080fd5b505af115801562000ce9573d6000803e3d6000fd5b505050507f6a12f6dac03652b58a50bbf88d534acc4fe08e3d534d2e08dde9e43c4adbcb3f600660009054906101000a90046001600160a01b03166001600160a01b0316638666107c6040518163ffffffff1660e01b8152600401602060405180830381865afa15801562000d62573d6000803e3d6000fd5b505050506040513d601f19601f8201168201806040525081019062000d8891906200204b565b600660009054906101000a90046001600160a01b03166001600160a01b03166374942c0f6040518163ffffffff1660e01b8152600401602060405180830381865afa15801562000ddc573d6000803e3d6000fd5b505050506040513d601f19601f8201168201806040525081019062000e0291906200204b565b604080519283526020830191909152015b60405180910390a150565b6000805460408051630d203ecd60e31b815290516001600160a01b0390921692636901f6689260048084019382900301818387803b15801562000e6057600080fd5b505af115801562000e75573d6000803e3d6000fd5b5050505060008054906101000a90046001600160a01b03166001600160a01b031663ac7fdd396040518163ffffffff1660e01b8152600401602060405180830381865afa15801562000ecb573d6000803e3d6000fd5b505050506040513d601f19601f8201168201806040525081019062000ef191906200208c565b1562000f6257600760009054906101000a90046001600160a01b03166001600160a01b031663effc1fe06040518163ffffffff1660e01b8152600401600060405180830381600087803b15801562000f4857600080fd5b505af115801562000f5d573d6000803e3d6000fd5b505050505b600080546040805163145264ab60e31b8152905133937fd745e77520d6aab6ac2e6c9e597b7a9d8f8bf270ffa7234028791f24c594cafc936001600160a01b03169263a293255892600480830193928290030181865afa15801562000fcb573d6000803e3d6000fd5b505050506040513d6000823e601f3d908101601f1916820160405262000ff5919081019062001fcb565b60405162001004919062001ddb565b60405180910390a2565b6004805460065460405163e1f21c6760e01b815232938101939093526001600160a01b03908116602484015260448301849052169063e1f21c6790606401600060405180830381600087803b1580156200106757600080fd5b505af11580156200107c573d6000803e3d6000fd5b50506006546040516337af19d360e21b8152600481018590526001600160a01b03909116925063debc674c9150602401600060405180830381600087803b158015620010c757600080fd5b505af1158015620010dc573d6000803e3d6000fd5b505050507ff3da8edf69f7653a76e82879ae64fe7833d633c94e285ad53aa241a27e63b86781600660009054906101000a90046001600160a01b03166001600160a01b0316638666107c6040518163ffffffff1660e01b8152600401602060405180830381865afa15801562000ddc573d6000803e3d6000fd5b600654604080516382b2e25760e01b815290516000926001600160a01b0316916382b2e2579160048083019260209291908290030181865afa158015620011a1573d6000803e3d6000fd5b505050506040513d601f19601f820116820180604052508101906200082691906200204b565b346003556040518190620011db9062001d6c565b908152602001604051809103906000f080158015620011fe573d6000803e3d6000fd5b50600480546001600160a01b0319166001600160a01b039290921691821781556040805163313ce56760e01b815290516000939263313ce567928082019260209290918290030181865afa1580156200125b573d6000803e3d6000fd5b505050506040513d601f19601f82011682018060405250810190620012819190620020b0565b620012919060ff16600a620021e8565b6200129d9083620021f6565b600581905560048054600654604080516318160ddd60e01b815290519495506001600160a01b039283169463e1f21c679432949093169286926318160ddd92818301926020928290030181865afa158015620012fd573d6000803e3d6000fd5b505050506040513d601f19601f820116820180604052508101906200132391906200204b565b6040516001600160e01b031960e086901b1681526001600160a01b0393841660048201529290911660248301526044820152606401600060405180830381600087803b1580156200137357600080fd5b505af115801562001388573d6000803e3d6000fd5b50506006546004805460405163cd6dc68760e01b81526001600160a01b039182169281019290925260248201869052909116925063cd6dc687915034906044016000604051808303818588803b158015620013e257600080fd5b505af1158015620013f7573d6000803e3d6000fd5b5050600754600154600354604051639f8af9dd60e01b8152600481019290925260248201526001600160a01b039091169350639f8af9dd92506044019050600060405180830381600087803b1580156200145057600080fd5b505af115801562001465573d6000803e3d6000fd5b5050604080518481523460208201527ff0498cb22b56641ed33901df52ba1ca98815bf7428aaf69cb0a27c0f94cacc0d935001905060405180910390a15050565b600480546040516370a0823160e01b815232928101929092526000916001600160a01b03909116906370a0823190602401602060405180830381865afa158015620011a1573d6000803e3d6000fd5b6000620015023462001cc6565b90506200150e620014a6565b811115620015755760048054604051634a7dd52360e01b81529182018390526001600160a01b031690634a7dd52390602401600060405180830381600087803b1580156200155b57600080fd5b505af115801562001570573d6000803e3d6000fd5b505050505b6004546006546001600160a01b039182169163e1f21c67913291166200159b3462001cc6565b6040516001600160e01b031960e086901b1681526001600160a01b0393841660048201529290911660248301526044820152606401600060405180830381600087803b158015620015eb57600080fd5b505af115801562001600573d6000803e3d6000fd5b50505050600660009054906101000a90046001600160a01b03166001600160a01b031663d0e30db0346040518263ffffffff1660e01b81526004016000604051808303818588803b1580156200165557600080fd5b505af11580156200166a573d6000803e3d6000fd5b50505050507f62b16c68815e64e71e004ad1900bfeefa3a6eb2fec66b573210155de12fd5e7b600660009054906101000a90046001600160a01b03166001600160a01b031663707e7e876040518163ffffffff1660e01b8152600401602060405180830381865afa158015620016e4573d6000803e3d6000fd5b505050506040513d601f19601f820116820180604052508101906200170a91906200204b565b60405190815260200162000e13565b60075460408051631627391760e11b815290516000926001600160a01b031691632c4e722e9160048083019260209291908290030181865afa158015620011a1573d6000803e3d6000fd5b6000805460408051635836e0b560e01b815290516001600160a01b0390921692635836e0b59260048084019382900301818387803b158015620017a657600080fd5b505af1158015620017bb573d6000803e3d6000fd5b5050600080546040805163145264ab60e31b815290513395507f7832ed08fa8e9bf7d3ffa10fb5bcdb96f474be17f79b657bb7f23facb23a898b94506001600160a01b039092169263a2932558926004808401938290030181865afa15801562000fcb573d6000803e3d6000fd5b60005460408051638da5cb5b60e01b8152905133926001600160a01b031691638da5cb5b9160048083019260209291908290030181865afa15801562001873573d6000803e3d6000fd5b505050506040513d601f19601f8201168201806040525081019062001899919062001fab565b6001600160a01b031614620018ad57600080fd5b600054604051631d846c6560e01b81526001600160a01b0390911690631d846c6590620018df90849060040162001ddb565b600060405180830381600087803b158015620018fa57600080fd5b505af11580156200190f573d6000803e3d6000fd5b50506007805460ff60a81b1916600160a81b1790819055600160a01b900460ff169150508015620009485750600754600160a81b900460ff1615620009b957600760009054906101000a90046001600160a01b03166001600160a01b03166384c6e2c86040518163ffffffff1660e01b8152600401600060405180830381600087803b1580156200099f57600080fd5b6000600460009054906101000a90046001600160a01b03166001600160a01b03166318160ddd6040518163ffffffff1660e01b8152600401602060405180830381865afa158015620011a1573d6000803e3d6000fd5b6006546040805163063e77a560e31b815290516000926001600160a01b0316916331f3bd289160048083019260209291908290030181865afa158015620011a1573d6000803e3d6000fd5b60065460408051629032ff60e51b815290516000926001600160a01b0316916312065fe09160048083019260209291908290030181865afa158015620011a1573d6000803e3d6000fd5b600654604080516382b2e25760e01b815290516000926001600160a01b0316916382b2e2579160048083019260209291908290030181865afa15801562001ad5573d6000803e3d6000fd5b505050506040513d601f19601f8201168201806040525081019062001afb91906200204b565b60055462001b0a919062002218565b905062001b16620014a6565b81111562001b7d5760048054604051634a7dd52360e01b81529182018390526001600160a01b031690634a7dd52390602401600060405180830381600087803b15801562001b6357600080fd5b505af115801562001b78573d6000803e3d6000fd5b505050505b620009b9816200100e565b600660009054906101000a90046001600160a01b03166001600160a01b0316637937c03d346040518263ffffffff1660e01b81526004016000604051808303818588803b15801562001bd957600080fd5b505af115801562001bee573d6000803e3d6000fd5b50505050507f3647e5ca8fe544bafdf71b27b82e0206b70e6fda46bda02cbacd87b72363c82b34600660009054906101000a90046001600160a01b03166001600160a01b03166374942c0f6040518163ffffffff1660e01b8152600401602060405180830381865afa15801562001c69573d6000803e3d6000fd5b505050506040513d601f19601f8201168201806040525081019062001c8f91906200204b565b6040805192835260208301919091520160405180910390a1565b600062001cba8262015180620021f6565b62000c87904262002232565b600654604051632f9226a760e11b81526004810183905260009182916001600160a01b0390911690635f244d4e906024016040805180830381865afa15801562001d14573d6000803e3d6000fd5b505050506040513d601f19601f8201168201806040525081019062001d3a91906200224d565b509392505050565b61106b806200227383390190565b610be280620032de83390190565b6106778062003ec083390190565b610f02806200453783390190565b60005b8381101562001d9757818101518382015260200162001d7d565b8381111562001da7576000848401525b50505050565b6000815180845262001dc781602086016020860162001d7a565b601f01601f19169290920160200192915050565b60208152600062001df0602083018462001dad565b9392505050565b634e487b7160e01b600052604160045260246000fd5b604051601f8201601f1916810167ffffffffffffffff8111828210171562001e395762001e3962001df7565b604052919050565b600067ffffffffffffffff82111562001e5e5762001e5e62001df7565b50601f01601f191660200190565b600082601f83011262001e7e57600080fd5b813562001e9562001e8f8262001e41565b62001e0d565b81815284602083860101111562001eab57600080fd5b816020850160208301376000918101602001919091529392505050565b60006020828403121562001edb57600080fd5b813567ffffffffffffffff81111562001ef357600080fd5b62001f018482850162001e6c565b949350505050565b60008060006060848603121562001f1f57600080fd5b833567ffffffffffffffff81111562001f3757600080fd5b62001f458682870162001e6c565b9660208601359650604090950135949350505050565b6001600160a01b0381168114620009b957600080fd5b60006020828403121562001f8457600080fd5b813562001df08162001f5b565b60006020828403121562001fa457600080fd5b5035919050565b60006020828403121562001fbe57600080fd5b815162001df08162001f5b565b60006020828403121562001fde57600080fd5b815167ffffffffffffffff81111562001ff657600080fd5b8201601f810184136200200857600080fd5b80516200201962001e8f8262001e41565b8181528560208385010111156200202f57600080fd5b6200204282602083016020860162001d7a565b95945050505050565b6000602082840312156200205e57600080fd5b5051919050565b6060815260006200207a606083018662001dad565b60208301949094525060400152919050565b6000602082840312156200209f57600080fd5b8151801515811462001df057600080fd5b600060208284031215620020c357600080fd5b815160ff8116811462001df057600080fd5b634e487b7160e01b600052601160045260246000fd5b600181815b808511156200212c578160001904821115620021105762002110620020d5565b808516156200211e57918102915b93841c9390800290620020f0565b509250929050565b600082620021455750600162000c87565b81620021545750600062000c87565b81600181146200216d5760028114620021785762002198565b600191505062000c87565b60ff8411156200218c576200218c620020d5565b50506001821b62000c87565b5060208310610133831016604e8410600b8410161715620021bd575081810a62000c87565b620021c98383620020eb565b8060001904821115620021e057620021e0620020d5565b029392505050565b600062001df0838362002134565b6000816000190483118215151615620022135762002213620020d5565b500290565b6000828210156200222d576200222d620020d5565b500390565b60008219821115620022485762002248620020d5565b500190565b600080604083850312156200226157600080fd5b50508051602090910151909290915056fe608060405234801561001057600080fd5b50600280546001600160a01b03191632179055611039806100326000396000f3fe60806040526004361061013a5760003560e01c806372a9d124116100bb578063b8c876b11161007f578063d56b288911610059578063d56b28891461034d578063ddca3f4314610360578063debc674c1461037657600080fd5b8063b8c876b114610305578063cd6dc68714610332578063d0e30db01461034557600080fd5b806372a9d1241461029c57806374942c0f146102bc5780637937c03d146102d257806382b2e257146102da5780638666107c146102ef57600080fd5b80635f244d4e116101025780635f244d4e146101e357806366b3f6bf1461020357806367da263d146102395780636f7bc9be14610259578063707e7e871461028657600080fd5b806312065fe01461013f5780631eb928aa1461016157806326c4e60d146101965780632e1a7d4d146101ad57806331f3bd28146101cd575b600080fd5b34801561014b57600080fd5b50475b6040519081526020015b60405180910390f35b34801561016d57600080fd5b5061018161017c366004610ec1565b610396565b60408051928352602083019190915201610158565b3480156101a257600080fd5b506101ab610449565b005b3480156101b957600080fd5b506101ab6101c8366004610ec1565b6104fe565b3480156101d957600080fd5b5061014e60015481565b3480156101ef57600080fd5b506101816101fe366004610ec1565b610709565b34801561020f57600080fd5b5061014e61021e366004610ef6565b6001600160a01b031660009081526004602052604090205490565b34801561024557600080fd5b5061014e610254366004610ec1565b6107a1565b34801561026557600080fd5b5061014e610274366004610ef6565b60046020526000908152604090205481565b34801561029257600080fd5b5061014e60085481565b3480156102a857600080fd5b5061014e6102b7366004610ec1565b610821565b3480156102c857600080fd5b5061014e60065481565b6101ab6108a2565b3480156102e657600080fd5b5061014e6109a7565b3480156102fb57600080fd5b5061014e60075481565b34801561031157600080fd5b5061014e610320366004610ef6565b60056020526000908152604090205481565b6101ab610340366004610f18565b610a19565b6101ab610b42565b34801561035957600080fd5b506101ab32ff5b34801561036c57600080fd5b5061014e60035481565b34801561038257600080fd5b506101ab610391366004610ec1565b610cff565b600080600060015447856103aa9190610f58565b6103b49190610f77565b600154600080546040516370a0823160e01b815230600482015293945090926001600160a01b03909116906370a0823190602401602060405180830381865afa158015610405573d6000803e3d6000fd5b505050506040513d601f19601f820116820180604052508101906104299190610f99565b6104339087610f58565b61043d9190610f77565b91959194509092505050565b60006103e8600354600361045d9190610f58565b6104679190610f77565b604051909150600090329083908381818185875af1925050503d80600081146104ac576040519150601f19603f3d011682016040523d82523d6000602084013e6104b1565b606091505b50509050806104fa5760405162461bcd60e51b815260206004820152601060248201526f2a3930b739b332b9103330b4b632b21760811b60448201526064015b60405180910390fd5b5050565b60015460009061050e4784610f58565b6105189190610f77565b600154600080546040516370a0823160e01b815230600482015293945090926001600160a01b03909116906370a0823190602401602060405180830381865afa158015610569573d6000803e3d6000fd5b505050506040513d601f19601f8201168201806040525081019061058d9190610f99565b6105979085610f58565b6105a19190610f77565b905081600160008282546105b59190610fb2565b9091555050604051600090329084908381818185875af1925050503d80600081146105fc576040519150601f19603f3d011682016040523d82523d6000602084013e610601565b606091505b50509050806106455760405162461bcd60e51b815260206004820152601060248201526f2a3930b739b332b9103330b4b632b21760811b60448201526064016104f1565b60005460405163a9059cbb60e01b8152326004820152602481018490526001600160a01b039091169063a9059cbb906044016020604051808303816000875af1158015610696573d6000803e3d6000fd5b505050506040513d601f19601f820116820180604052508101906106ba9190610fc9565b6106c357600080fd5b60408051848152602081018490527f56ca301a9219608c91e7bcee90e083c19671d2cdcc96752c7af291cee5f9c8c8910160405180910390a15060079190915560065550565b600080546040516370a0823160e01b81523060048201528291829147916001600160a01b0316906370a0823190602401602060405180830381865afa158015610756573d6000803e3d6000fd5b505050506040513d601f19601f8201168201806040525081019061077a9190610f99565b6107849086610f58565b61078e9190610f77565b9050600047600154866104339190610f58565b600080546040516370a0823160e01b815230600482015261081b9184916001600160a01b03909116906370a08231906024015b602060405180830381865afa1580156107f1573d6000803e3d6000fd5b505050506040513d601f19601f820116820180604052508101906108159190610f99565b47610e99565b92915050565b600061081b826108318147610fb2565b6000546040516370a0823160e01b81523060048201526001600160a01b03909116906370a0823190602401602060405180830381865afa158015610879573d6000803e3d6000fd5b505050506040513d601f19601f8201168201806040525081019061089d9190610f99565b610e99565b60006108b2346108318147610fb2565b60005460405163a9059cbb60e01b8152326004820152602481018390529192506001600160a01b03169063a9059cbb906044016020604051808303816000875af1158015610904573d6000803e3d6000fd5b505050506040513d601f19601f820116820180604052508101906109289190610fc9565b61093157600080fd5b34600360008282546109439190610feb565b90915550503260009081526004602052604081208054349290610967908490610feb565b909155505060068190556040518181527fdb04c7a6d4758fd55d738ebc67e7f3010ac922be00771ef29521a4090d1eb13f9060200160405180910390a150565b600080546040516370a0823160e01b81523060048201526001600160a01b03909116906370a0823190602401602060405180830381865afa1580156109f0573d6000803e3d6000fd5b505050506040513d601f19601f82011682018060405250810190610a149190610f99565b905090565b60015415610a2657600080fd5b60008111610a3357600080fd5b60003411610a4057600080fd5b60006003819055805473ffffffffffffffffffffffffffffffffffffffff19166001600160a01b03848116919091178255476001819055328084526005602052604080852092909255925490516323b872dd60e01b815260048101939093523060248401526044830184905216906323b872dd906064016020604051808303816000875af1158015610ad6573d6000803e3d6000fd5b505050506040513d601f19601f82011682018060405250810190610afa9190610fc9565b610b0357600080fd5b7fc43e48cf47e9fa186d0f4096c61d1fcb54159799f935a2aa32e5589688ee36e1600154604051610b3691815260200190565b60405180910390a15050565b60003411610b4f57600080fd5b6000610b5b3447610fb2565b6000546040516370a0823160e01b81523060048201526001600160a01b03909116906370a0823190602401602060405180830381865afa158015610ba3573d6000803e3d6000fd5b505050506040513d601f19601f82011682018060405250810190610bc79190610f99565b610bd19034610f58565b610bdb9190610f77565b90506000610be93447610fb2565b600154610bf69034610f58565b610c009190610f77565b32600090815260056020526040812080549293508392909190610c24908490610feb565b925050819055508060016000828254610c3d9190610feb565b90915550506000546040516323b872dd60e01b8152326004820152306024820152604481018490526001600160a01b03909116906323b872dd906064016020604051808303816000875af1158015610c99573d6000803e3d6000fd5b505050506040513d601f19601f82011682018060405250810190610cbd9190610fc9565b610cc657600080fd5b6040518181527f4d6ce1e535dbade1c23defba91e23b8f791ce5edc0cc320257a2b364e4e384269060200160405180910390a160085550565b600080546040516370a0823160e01b8152306004820152610d369184916001600160a01b03909116906370a08231906024016107d4565b604051909150600090329083908381818185875af1925050503d8060008114610d7b576040519150601f19603f3d011682016040523d82523d6000602084013e610d80565b606091505b5050905080610dc45760405162461bcd60e51b815260206004820152601060248201526f2a3930b739b332b9103330b4b632b21760811b60448201526064016104f1565b6000546040516323b872dd60e01b8152326004820152306024820152604481018590526001600160a01b03909116906323b872dd906064016020604051808303816000875af1158015610e1b573d6000803e3d6000fd5b505050506040513d601f19601f82011682018060405250810190610e3f9190610fc9565b610e4857600080fd5b8160036000828254610e5a9190610feb565b90915550506040518281527f4dbf3a71a7c7262f432c2cad7808225832255d07f7d8ab85117677c0b5c0a8509060200160405180910390a15060075550565b6000610ea58484610feb565b610eaf8386610f58565b610eb99190610f77565b949350505050565b600060208284031215610ed357600080fd5b5035919050565b80356001600160a01b0381168114610ef157600080fd5b919050565b600060208284031215610f0857600080fd5b610f1182610eda565b9392505050565b60008060408385031215610f2b57600080fd5b610f3483610eda565b946020939093013593505050565b634e487b7160e01b600052601160045260246000fd5b6000816000190483118215151615610f7257610f72610f42565b500290565b600082610f9457634e487b7160e01b600052601260045260246000fd5b500490565b600060208284031215610fab57600080fd5b5051919050565b600082821015610fc457610fc4610f42565b500390565b600060208284031215610fdb57600080fd5b81518015158114610f1157600080fd5b60008219821115610ffe57610ffe610f42565b50019056fea26469706673582212201ca8faa0c5906fd6d09dc4d85f6eb5555b9817ca4be33630940403b4fa48d16464736f6c634300080f0033608060405234801561001057600080fd5b50610bc2806100206000396000f3fe608060405234801561001057600080fd5b50600436106101475760003560e01c80635d8ab6e7116100c8578063a29325581161008c578063c437457511610066578063c4374575146102b6578063ea7a9b4e146102c9578063f7155345146102dc57600080fd5b8063a293255814610293578063ac7fdd391461029b578063b794cc2f146102a357600080fd5b80635d8ab6e71461024b5780636901f6681461025d5780638d15d676146102655780638da5cb5b14610278578063990ec12b1461028b57600080fd5b80631c4695f41161010f5780631c4695f4146101ea5780631d846c65146101f257806335aa2e44146102055780634e7f4d3c146102305780635836e0b51461024357600080fd5b8063036b61101461014c57806309bd5a6014610161578063123119cd1461017f57806313af4035146101875780631a2db8d2146101b7575b600080fd5b61015f61015a3660046107ef565b6102ff565b005b61016961030f565b60405161017691906108a0565b60405180910390f35b61016961039d565b61015f6101953660046108f5565b600080546001600160a01b0319166001600160a01b0392909216919091179055565b6101da6101c53660046108f5565b60086020526000908152604090205460ff1681565b6040519015158152602001610176565b6101696103aa565b61015f6102003660046107ef565b6103b7565b610218610213366004610925565b6103c3565b6040516001600160a01b039091168152602001610176565b61015f61023e3660046107ef565b6103ed565b61015f6103f9565b6006545b604051908152602001610176565b61015f610581565b61015f6102733660046107ef565b6106fe565b600054610218906001600160a01b031681565b60055461024f565b61016961070a565b6101da610717565b6101da6102b13660046108f5565b610755565b6101da6102c43660046108f5565b61078f565b6102186102d7366004610925565b6107c9565b6101da6102ea3660046108f5565b60076020526000908152604090205460ff1681565b600261030b82826109c7565b5050565b6003805461031c9061093e565b80601f01602080910402602001604051908101604052809291908181526020018280546103489061093e565b80156103955780601f1061036a57610100808354040283529160200191610395565b820191906000526020600020905b81548152906001019060200180831161037857829003601f168201915b505050505081565b6001805461031c9061093e565b6004805461031c9061093e565b600361030b82826109c7565b600581815481106103d357600080fd5b6000918252602090912001546001600160a01b0316905081565b600161030b82826109c7565b600054326001600160a01b03909116036104655760405162461bcd60e51b815260206004820152602260248201527f4f776e65722063616e6e6f742064656e7920686973206f776e20646f63756d656044820152611b9d60f21b60648201526084015b60405180910390fd5b3260009081526008602052604090205460ff16156104ba5760405162461bcd60e51b81526020600482015260126024820152712932b832b0ba32b2103232b732b3b0ba37b960711b604482015260640161045c565b3260009081526007602052604090205460ff16156104ea5760405162461bcd60e51b815260040161045c90610a87565b6006805460018181019092557ff652222313e28459528d920b65115c16c04f3efc82aaedc97be59f3f377c0d3f0180546001600160a01b0319163290811790915560008181526008602052604090819020805460ff191690931790925590517f9036bc06ad4a578f0132d89ba4adc07b9772275526730acc38d7e4b4c11872a39061057790600290610ad4565b60405180910390a2565b600054326001600160a01b03909116036105ec5760405162461bcd60e51b815260206004820152602660248201527f4f776e65722063616e6e6f742076616c696461746520686973206f776e20646f60448201526518dd5b595b9d60d21b606482015260840161045c565b3260009081526007602052604090205460ff16156106415760405162461bcd60e51b81526020600482015260126024820152712932b832b0ba32b2103b30b634b230ba37b960711b604482015260640161045c565b3260009081526008602052604090205460ff16156106715760405162461bcd60e51b815260040161045c90610a87565b6005805460018181019092557f036b6384b5eca791c62761152d0c79bb0604c104a5fb6f4eb0703f3154bb3db00180546001600160a01b0319163290811790915560008181526007602052604090819020805460ff191690931790925590517f57d77eb32e87e8c65c7cec1df5b0e8a8d5c4eae1b40c7246e7668ed702dd247a9061057790600290610ad4565b600461030b82826109c7565b6002805461031c9061093e565b6006546005546000919081158015610730575060058110155b8061074e5750811580159061074e575061074b826005610b5f565b81115b9250505090565b600080546001600160a01b0380841691160361077057600080fd5b506001600160a01b031660009081526008602052604090205460ff1690565b600080546001600160a01b038084169116036107aa57600080fd5b506001600160a01b031660009081526007602052604090205460ff1690565b600681815481106103d357600080fd5b634e487b7160e01b600052604160045260246000fd5b60006020828403121561080157600080fd5b813567ffffffffffffffff8082111561081957600080fd5b818401915084601f83011261082d57600080fd5b81358181111561083f5761083f6107d9565b604051601f8201601f19908116603f01168101908382118183101715610867576108676107d9565b8160405282815287602084870101111561088057600080fd5b826020860160208301376000928101602001929092525095945050505050565b600060208083528351808285015260005b818110156108cd578581018301518582016040015282016108b1565b818111156108df576000604083870101525b50601f01601f1916929092016040019392505050565b60006020828403121561090757600080fd5b81356001600160a01b038116811461091e57600080fd5b9392505050565b60006020828403121561093757600080fd5b5035919050565b600181811c9082168061095257607f821691505b60208210810361097257634e487b7160e01b600052602260045260246000fd5b50919050565b601f8211156109c257600081815260208120601f850160051c8101602086101561099f5750805b601f850160051c820191505b818110156109be578281556001016109ab565b5050505b505050565b815167ffffffffffffffff8111156109e1576109e16107d9565b6109f5816109ef845461093e565b84610978565b602080601f831160018114610a2a5760008415610a125750858301515b600019600386901b1c1916600185901b1785556109be565b600085815260208120601f198616915b82811015610a5957888601518255948401946001909101908401610a3a565b5085821015610a775787850151600019600388901b60f8161c191681555b5050505050600190811b01905550565b6020808252602d908201527f596f752063616e6e6f742076616c696461746520616e642064656e792061742060408201526c7468652073616d652074696d6560981b606082015260800190565b6000602080835260008454610ae88161093e565b80848701526040600180841660008114610b095760018114610b2357610b51565b60ff1985168984015283151560051b890183019550610b51565b896000528660002060005b85811015610b495781548b8201860152908301908801610b2e565b8a0184019650505b509398975050505050505050565b6000816000190483118215151615610b8757634e487b7160e01b600052601160045260246000fd5b50029056fea2646970667358221220f4b8392c9cc8ecb3945735fee4657a414d25c400201183e22006a8a4e4cba7bd64736f6c634300080f00336080604052671158e460913d000060035534801561001c57600080fd5b5060405161067738038061067783398101604081905261003b9161006b565b6012600181905561004d90600a610180565b6100579082610193565b600055506002805461ffff191690556101b2565b60006020828403121561007d57600080fd5b5051919050565b634e487b7160e01b600052601160045260246000fd5b600181815b808511156100d55781600019048211156100bb576100bb610084565b808516156100c857918102915b93841c939080029061009f565b509250929050565b6000826100ec5750600161017a565b816100f95750600061017a565b816001811461010f576002811461011957610135565b600191505061017a565b60ff84111561012a5761012a610084565b50506001821b61017a565b5060208310610133831016604e8410600b8410161715610158575081810a61017a565b610162838361009a565b806000190482111561017657610176610084565b0290505b92915050565b600061018c83836100dd565b9392505050565b60008160001904831182151516156101ad576101ad610084565b500290565b6104b6806101c16000396000f3fe608060405234801561001057600080fd5b50600436106100575760003560e01c8063131e2f181461005c5780632c4e722e1461008157806384c6e2c81461008a5780639f8af9dd14610094578063effc1fe0146100a7575b600080fd5b61006f61006a3660046102c8565b6100af565b60405190815260200160405180910390f35b61006f60005481565b6100926100f4565b005b6100926100a23660046102e1565b6100fe565b610092610280565b6000600154600a6100c091906103fd565b6064600054846100d09190610410565b6100da919061042f565b6100e4919061042f565b6100ee9083610451565b92915050565b6100fc6102a8565b565b60025460ff16156101485760405162461bcd60e51b815260206004820152601060248201526f105b1c9958591e48195e1958dd5d195960821b604482015260640160405180910390fd5b6000600154600a61015991906103fd565b6101639084610410565b90506000610171838361042f565b905080600354116101c4576003546101899082610469565b6000808282546101999190610451565b909155505060005468056bc75e2d6310000010156101bf5768056bc75e2d631000006000555b61026d565b6000600154600a6101d591906103fd565b6101e0906002610410565b9050600085856003546101f39190610410565b6101fd919061042f565b905081811115610218576729a2241af62c000060005561024b565b60015461022690600a6103fd565b6102308284610469565b60005461023d9190610410565b610247919061042f565b6000555b6729a2241af62c0000600054101561026a576729a2241af62c00006000555b50505b50506002805460ff191660011790555050565b600254610100900460ff166100fc576102976102a8565b6002805461ff001916610100179055565b600860005460076102b99190610410565b6102c3919061042f565b600055565b6000602082840312156102da57600080fd5b5035919050565b600080604083850312156102f457600080fd5b50508035926020909101359150565b634e487b7160e01b600052601160045260246000fd5b600181815b8085111561035457816000190482111561033a5761033a610303565b8085161561034757918102915b93841c939080029061031e565b509250929050565b60008261036b575060016100ee565b81610378575060006100ee565b816001811461038e5760028114610398576103b4565b60019150506100ee565b60ff8411156103a9576103a9610303565b50506001821b6100ee565b5060208310610133831016604e8410600b84101617156103d7575081810a6100ee565b6103e18383610319565b80600019048211156103f5576103f5610303565b029392505050565b6000610409838361035c565b9392505050565b600081600019048311821515161561042a5761042a610303565b500290565b60008261044c57634e487b7160e01b600052601260045260246000fd5b500490565b6000821982111561046457610464610303565b500190565b60008282101561047b5761047b610303565b50039056fea26469706673582212200a52230fce6dbbcfe6382f6b4c3379a48be370f09bd5c380a498fb6c0bf2955864736f6c634300080f003360806040523480156200001157600080fd5b5060405162000f0238038062000f028339810160408190526200003491620001c1565b60405180604001604052806005815260200164546f6b666160d81b8152506040518060400160405280600381526020016254464160e81b81525081600390816200007f91906200027f565b5060046200008e82826200027f565b505050620000c832620000a6620000cf60201b60201c565b620000b69060ff16600a62000460565b620000c2908462000475565b620000d4565b50620004b2565b601290565b6001600160a01b0382166200012f5760405162461bcd60e51b815260206004820152601f60248201527f45524332303a206d696e7420746f20746865207a65726f206164647265737300604482015260640160405180910390fd5b806002600082825462000143919062000497565b90915550506001600160a01b038216600090815260208190526040812080548392906200017290849062000497565b90915550506040518181526001600160a01b038316906000907fddf252ad1be2c89b69c2b068fc378daa952ba7f163c4a11628f55a4df523b3ef9060200160405180910390a35050565b505050565b600060208284031215620001d457600080fd5b5051919050565b634e487b7160e01b600052604160045260246000fd5b600181811c908216806200020657607f821691505b6020821081036200022757634e487b7160e01b600052602260045260246000fd5b50919050565b601f821115620001bc57600081815260208120601f850160051c81016020861015620002565750805b601f850160051c820191505b81811015620002775782815560010162000262565b505050505050565b81516001600160401b038111156200029b576200029b620001db565b620002b381620002ac8454620001f1565b846200022d565b602080601f831160018114620002eb5760008415620002d25750858301515b600019600386901b1c1916600185901b17855562000277565b600085815260208120601f198616915b828110156200031c57888601518255948401946001909101908401620002fb565b50858210156200033b5787850151600019600388901b60f8161c191681555b5050505050600190811b01905550565b634e487b7160e01b600052601160045260246000fd5b600181815b80851115620003a25781600019048211156200038657620003866200034b565b808516156200039457918102915b93841c939080029062000366565b509250929050565b600082620003bb575060016200045a565b81620003ca575060006200045a565b8160018114620003e35760028114620003ee576200040e565b60019150506200045a565b60ff8411156200040257620004026200034b565b50506001821b6200045a565b5060208310610133831016604e8410600b841016171562000433575081810a6200045a565b6200043f838362000361565b80600019048211156200045657620004566200034b565b0290505b92915050565b60006200046e8383620003aa565b9392505050565b60008160001904831182151516156200049257620004926200034b565b500290565b60008219821115620004ad57620004ad6200034b565b500190565b610a4080620004c26000396000f3fe608060405234801561001057600080fd5b50600436106100df5760003560e01c80634a7dd5231161008c578063a457c2d711610066578063a457c2d7146101b2578063a9059cbb146101c5578063dd62ed3e146101d8578063e1f21c671461021157600080fd5b80634a7dd5231461016c57806370a082311461018157806395d89b41146101aa57600080fd5b806323b872dd116100bd57806323b872dd14610137578063313ce5671461014a578063395093511461015957600080fd5b806306fdde03146100e4578063095ea7b31461010257806318160ddd14610125575b600080fd5b6100ec610224565b6040516100f99190610865565b60405180910390f35b6101156101103660046108d6565b6102b6565b60405190151581526020016100f9565b6002545b6040519081526020016100f9565b610115610145366004610900565b6102ce565b604051601281526020016100f9565b6101156101673660046108d6565b6102f2565b61017f61017a36600461093c565b610331565b005b61012961018f366004610955565b6001600160a01b031660009081526020819052604090205490565b6100ec61033e565b6101156101c03660046108d6565b61034d565b6101156101d33660046108d6565b6103e4565b6101296101e6366004610977565b6001600160a01b03918216600090815260016020908152604080832093909416825291909152205490565b61017f61021f366004610900565b6103f2565b606060038054610233906109aa565b80601f016020809104026020016040519081016040528092919081815260200182805461025f906109aa565b80156102ac5780601f10610281576101008083540402835291602001916102ac565b820191906000526020600020905b81548152906001019060200180831161028f57829003601f168201915b5050505050905090565b6000336102c4818585610402565b5060019392505050565b6000336102dc858285610526565b6102e78585856105b8565b506001949350505050565b3360008181526001602090815260408083206001600160a01b03871684529091528120549091906102c4908290869061032c9087906109e4565b610402565b61033b3282610786565b50565b606060048054610233906109aa565b3360008181526001602090815260408083206001600160a01b0387168452909152812054909190838110156103d75760405162461bcd60e51b815260206004820152602560248201527f45524332303a2064656372656173656420616c6c6f77616e63652062656c6f77604482015264207a65726f60d81b60648201526084015b60405180910390fd5b6102e78286868403610402565b6000336102c48185856105b8565b6103fd838383610402565b505050565b6001600160a01b0383166104645760405162461bcd60e51b8152602060048201526024808201527f45524332303a20617070726f76652066726f6d20746865207a65726f206164646044820152637265737360e01b60648201526084016103ce565b6001600160a01b0382166104c55760405162461bcd60e51b815260206004820152602260248201527f45524332303a20617070726f766520746f20746865207a65726f206164647265604482015261737360f01b60648201526084016103ce565b6001600160a01b0383811660008181526001602090815260408083209487168084529482529182902085905590518481527f8c5be1e5ebec7d5bd14f71427d1e84f3dd0314c0f7b2291e5b200ac8c7c3b925910160405180910390a3505050565b6001600160a01b0383811660009081526001602090815260408083209386168352929052205460001981146105b257818110156105a55760405162461bcd60e51b815260206004820152601d60248201527f45524332303a20696e73756666696369656e7420616c6c6f77616e636500000060448201526064016103ce565b6105b28484848403610402565b50505050565b6001600160a01b03831661061c5760405162461bcd60e51b815260206004820152602560248201527f45524332303a207472616e736665722066726f6d20746865207a65726f206164604482015264647265737360d81b60648201526084016103ce565b6001600160a01b03821661067e5760405162461bcd60e51b815260206004820152602360248201527f45524332303a207472616e7366657220746f20746865207a65726f206164647260448201526265737360e81b60648201526084016103ce565b6001600160a01b038316600090815260208190526040902054818110156106f65760405162461bcd60e51b815260206004820152602660248201527f45524332303a207472616e7366657220616d6f756e7420657863656564732062604482015265616c616e636560d01b60648201526084016103ce565b6001600160a01b0380851660009081526020819052604080822085850390559185168152908120805484929061072d9084906109e4565b92505081905550826001600160a01b0316846001600160a01b03167fddf252ad1be2c89b69c2b068fc378daa952ba7f163c4a11628f55a4df523b3ef8460405161077991815260200190565b60405180910390a36105b2565b6001600160a01b0382166107dc5760405162461bcd60e51b815260206004820152601f60248201527f45524332303a206d696e7420746f20746865207a65726f20616464726573730060448201526064016103ce565b80600260008282546107ee91906109e4565b90915550506001600160a01b0382166000908152602081905260408120805483929061081b9084906109e4565b90915550506040518181526001600160a01b038316906000907fddf252ad1be2c89b69c2b068fc378daa952ba7f163c4a11628f55a4df523b3ef9060200160405180910390a35050565b600060208083528351808285015260005b8181101561089257858101830151858201604001528201610876565b818111156108a4576000604083870101525b50601f01601f1916929092016040019392505050565b80356001600160a01b03811681146108d157600080fd5b919050565b600080604083850312156108e957600080fd5b6108f2836108ba565b946020939093013593505050565b60008060006060848603121561091557600080fd5b61091e846108ba565b925061092c602085016108ba565b9150604084013590509250925092565b60006020828403121561094e57600080fd5b5035919050565b60006020828403121561096757600080fd5b610970826108ba565b9392505050565b6000806040838503121561098a57600080fd5b610993836108ba565b91506109a1602084016108ba565b90509250929050565b600181811c908216806109be57607f821691505b6020821081036109de57634e487b7160e01b600052602260045260246000fd5b50919050565b60008219821115610a0557634e487b7160e01b600052601160045260246000fd5b50019056fea2646970667358221220e5dbe6e27fdd033bb81b4dfd97b38df9b4495d8c52b4883548a44227410c5ebc64736f6c634300080f0033a26469706673582212205ebc23747fcee4f26333745d7fa31f52a3315dab6102e545f507841073ff62a864736f6c634300080f0033608060405234801561001057600080fd5b50600280546001600160a01b03191632179055611039806100326000396000f3fe60806040526004361061013a5760003560e01c806372a9d124116100bb578063b8c876b11161007f578063d56b288911610059578063d56b28891461034d578063ddca3f4314610360578063debc674c1461037657600080fd5b8063b8c876b114610305578063cd6dc68714610332578063d0e30db01461034557600080fd5b806372a9d1241461029c57806374942c0f146102bc5780637937c03d146102d257806382b2e257146102da5780638666107c146102ef57600080fd5b80635f244d4e116101025780635f244d4e146101e357806366b3f6bf1461020357806367da263d146102395780636f7bc9be14610259578063707e7e871461028657600080fd5b806312065fe01461013f5780631eb928aa1461016157806326c4e60d146101965780632e1a7d4d146101ad57806331f3bd28146101cd575b600080fd5b34801561014b57600080fd5b50475b6040519081526020015b60405180910390f35b34801561016d57600080fd5b5061018161017c366004610ec1565b610396565b60408051928352602083019190915201610158565b3480156101a257600080fd5b506101ab610449565b005b3480156101b957600080fd5b506101ab6101c8366004610ec1565b6104fe565b3480156101d957600080fd5b5061014e60015481565b3480156101ef57600080fd5b506101816101fe366004610ec1565b610709565b34801561020f57600080fd5b5061014e61021e366004610ef6565b6001600160a01b031660009081526004602052604090205490565b34801561024557600080fd5b5061014e610254366004610ec1565b6107a1565b34801561026557600080fd5b5061014e610274366004610ef6565b60046020526000908152604090205481565b34801561029257600080fd5b5061014e60085481565b3480156102a857600080fd5b5061014e6102b7366004610ec1565b610821565b3480156102c857600080fd5b5061014e60065481565b6101ab6108a2565b3480156102e657600080fd5b5061014e6109a7565b3480156102fb57600080fd5b5061014e60075481565b34801561031157600080fd5b5061014e610320366004610ef6565b60056020526000908152604090205481565b6101ab610340366004610f18565b610a19565b6101ab610b42565b34801561035957600080fd5b506101ab32ff5b34801561036c57600080fd5b5061014e60035481565b34801561038257600080fd5b506101ab610391366004610ec1565b610cff565b600080600060015447856103aa9190610f58565b6103b49190610f77565b600154600080546040516370a0823160e01b815230600482015293945090926001600160a01b03909116906370a0823190602401602060405180830381865afa158015610405573d6000803e3d6000fd5b505050506040513d601f19601f820116820180604052508101906104299190610f99565b6104339087610f58565b61043d9190610f77565b91959194509092505050565b60006103e8600354600361045d9190610f58565b6104679190610f77565b604051909150600090329083908381818185875af1925050503d80600081146104ac576040519150601f19603f3d011682016040523d82523d6000602084013e6104b1565b606091505b50509050806104fa5760405162461bcd60e51b815260206004820152601060248201526f2a3930b739b332b9103330b4b632b21760811b60448201526064015b60405180910390fd5b5050565b60015460009061050e4784610f58565b6105189190610f77565b600154600080546040516370a0823160e01b815230600482015293945090926001600160a01b03909116906370a0823190602401602060405180830381865afa158015610569573d6000803e3d6000fd5b505050506040513d601f19601f8201168201806040525081019061058d9190610f99565b6105979085610f58565b6105a19190610f77565b905081600160008282546105b59190610fb2565b9091555050604051600090329084908381818185875af1925050503d80600081146105fc576040519150601f19603f3d011682016040523d82523d6000602084013e610601565b606091505b50509050806106455760405162461bcd60e51b815260206004820152601060248201526f2a3930b739b332b9103330b4b632b21760811b60448201526064016104f1565b60005460405163a9059cbb60e01b8152326004820152602481018490526001600160a01b039091169063a9059cbb906044016020604051808303816000875af1158015610696573d6000803e3d6000fd5b505050506040513d601f19601f820116820180604052508101906106ba9190610fc9565b6106c357600080fd5b60408051848152602081018490527f56ca301a9219608c91e7bcee90e083c19671d2cdcc96752c7af291cee5f9c8c8910160405180910390a15060079190915560065550565b600080546040516370a0823160e01b81523060048201528291829147916001600160a01b0316906370a0823190602401602060405180830381865afa158015610756573d6000803e3d6000fd5b505050506040513d601f19601f8201168201806040525081019061077a9190610f99565b6107849086610f58565b61078e9190610f77565b9050600047600154866104339190610f58565b600080546040516370a0823160e01b815230600482015261081b9184916001600160a01b03909116906370a08231906024015b602060405180830381865afa1580156107f1573d6000803e3d6000fd5b505050506040513d601f19601f820116820180604052508101906108159190610f99565b47610e99565b92915050565b600061081b826108318147610fb2565b6000546040516370a0823160e01b81523060048201526001600160a01b03909116906370a0823190602401602060405180830381865afa158015610879573d6000803e3d6000fd5b505050506040513d601f19601f8201168201806040525081019061089d9190610f99565b610e99565b60006108b2346108318147610fb2565b60005460405163a9059cbb60e01b8152326004820152602481018390529192506001600160a01b03169063a9059cbb906044016020604051808303816000875af1158015610904573d6000803e3d6000fd5b505050506040513d601f19601f820116820180604052508101906109289190610fc9565b61093157600080fd5b34600360008282546109439190610feb565b90915550503260009081526004602052604081208054349290610967908490610feb565b909155505060068190556040518181527fdb04c7a6d4758fd55d738ebc67e7f3010ac922be00771ef29521a4090d1eb13f9060200160405180910390a150565b600080546040516370a0823160e01b81523060048201526001600160a01b03909116906370a0823190602401602060405180830381865afa1580156109f0573d6000803e3d6000fd5b505050506040513d601f19601f82011682018060405250810190610a149190610f99565b905090565b60015415610a2657600080fd5b60008111610a3357600080fd5b60003411610a4057600080fd5b60006003819055805473ffffffffffffffffffffffffffffffffffffffff19166001600160a01b03848116919091178255476001819055328084526005602052604080852092909255925490516323b872dd60e01b815260048101939093523060248401526044830184905216906323b872dd906064016020604051808303816000875af1158015610ad6573d6000803e3d6000fd5b505050506040513d601f19601f82011682018060405250810190610afa9190610fc9565b610b0357600080fd5b7fc43e48cf47e9fa186d0f4096c61d1fcb54159799f935a2aa32e5589688ee36e1600154604051610b3691815260200190565b60405180910390a15050565b60003411610b4f57600080fd5b6000610b5b3447610fb2565b6000546040516370a0823160e01b81523060048201526001600160a01b03909116906370a0823190602401602060405180830381865afa158015610ba3573d6000803e3d6000fd5b505050506040513d601f19601f82011682018060405250810190610bc79190610f99565b610bd19034610f58565b610bdb9190610f77565b90506000610be93447610fb2565b600154610bf69034610f58565b610c009190610f77565b32600090815260056020526040812080549293508392909190610c24908490610feb565b925050819055508060016000828254610c3d9190610feb565b90915550506000546040516323b872dd60e01b8152326004820152306024820152604481018490526001600160a01b03909116906323b872dd906064016020604051808303816000875af1158015610c99573d6000803e3d6000fd5b505050506040513d601f19601f82011682018060405250810190610cbd9190610fc9565b610cc657600080fd5b6040518181527f4d6ce1e535dbade1c23defba91e23b8f791ce5edc0cc320257a2b364e4e384269060200160405180910390a160085550565b600080546040516370a0823160e01b8152306004820152610d369184916001600160a01b03909116906370a08231906024016107d4565b604051909150600090329083908381818185875af1925050503d8060008114610d7b576040519150601f19603f3d011682016040523d82523d6000602084013e610d80565b606091505b5050905080610dc45760405162461bcd60e51b815260206004820152601060248201526f2a3930b739b332b9103330b4b632b21760811b60448201526064016104f1565b6000546040516323b872dd60e01b8152326004820152306024820152604481018590526001600160a01b03909116906323b872dd906064016020604051808303816000875af1158015610e1b573d6000803e3d6000fd5b505050506040513d601f19601f82011682018060405250810190610e3f9190610fc9565b610e4857600080fd5b8160036000828254610e5a9190610feb565b90915550506040518281527f4dbf3a71a7c7262f432c2cad7808225832255d07f7d8ab85117677c0b5c0a8509060200160405180910390a15060075550565b6000610ea58484610feb565b610eaf8386610f58565b610eb99190610f77565b949350505050565b600060208284031215610ed357600080fd5b5035919050565b80356001600160a01b0381168114610ef157600080fd5b919050565b600060208284031215610f0857600080fd5b610f1182610eda565b9392505050565b60008060408385031215610f2b57600080fd5b610f3483610eda565b946020939093013593505050565b634e487b7160e01b600052601160045260246000fd5b6000816000190483118215151615610f7257610f72610f42565b500290565b600082610f9457634e487b7160e01b600052601260045260246000fd5b500490565b600060208284031215610fab57600080fd5b5051919050565b600082821015610fc457610fc4610f42565b500390565b600060208284031215610fdb57600080fd5b81518015158114610f1157600080fd5b60008219821115610ffe57610ffe610f42565b50019056fea26469706673582212201ca8faa0c5906fd6d09dc4d85f6eb5555b9817ca4be33630940403b4fa48d16464736f6c634300080f0033608060405234801561001057600080fd5b50610bc2806100206000396000f3fe608060405234801561001057600080fd5b50600436106101475760003560e01c80635d8ab6e7116100c8578063a29325581161008c578063c437457511610066578063c4374575146102b6578063ea7a9b4e146102c9578063f7155345146102dc57600080fd5b8063a293255814610293578063ac7fdd391461029b578063b794cc2f146102a357600080fd5b80635d8ab6e71461024b5780636901f6681461025d5780638d15d676146102655780638da5cb5b14610278578063990ec12b1461028b57600080fd5b80631c4695f41161010f5780631c4695f4146101ea5780631d846c65146101f257806335aa2e44146102055780634e7f4d3c146102305780635836e0b51461024357600080fd5b8063036b61101461014c57806309bd5a6014610161578063123119cd1461017f57806313af4035146101875780631a2db8d2146101b7575b600080fd5b61015f61015a3660046107ef565b6102ff565b005b61016961030f565b60405161017691906108a0565b60405180910390f35b61016961039d565b61015f6101953660046108f5565b600080546001600160a01b0319166001600160a01b0392909216919091179055565b6101da6101c53660046108f5565b60086020526000908152604090205460ff1681565b6040519015158152602001610176565b6101696103aa565b61015f6102003660046107ef565b6103b7565b610218610213366004610925565b6103c3565b6040516001600160a01b039091168152602001610176565b61015f61023e3660046107ef565b6103ed565b61015f6103f9565b6006545b604051908152602001610176565b61015f610581565b61015f6102733660046107ef565b6106fe565b600054610218906001600160a01b031681565b60055461024f565b61016961070a565b6101da610717565b6101da6102b13660046108f5565b610755565b6101da6102c43660046108f5565b61078f565b6102186102d7366004610925565b6107c9565b6101da6102ea3660046108f5565b60076020526000908152604090205460ff1681565b600261030b82826109c7565b5050565b6003805461031c9061093e565b80601f01602080910402602001604051908101604052809291908181526020018280546103489061093e565b80156103955780601f1061036a57610100808354040283529160200191610395565b820191906000526020600020905b81548152906001019060200180831161037857829003601f168201915b505050505081565b6001805461031c9061093e565b6004805461031c9061093e565b600361030b82826109c7565b600581815481106103d357600080fd5b6000918252602090912001546001600160a01b0316905081565b600161030b82826109c7565b600054326001600160a01b03909116036104655760405162461bcd60e51b815260206004820152602260248201527f4f776e65722063616e6e6f742064656e7920686973206f776e20646f63756d656044820152611b9d60f21b60648201526084015b60405180910390fd5b3260009081526008602052604090205460ff16156104ba5760405162461bcd60e51b81526020600482015260126024820152712932b832b0ba32b2103232b732b3b0ba37b960711b604482015260640161045c565b3260009081526007602052604090205460ff16156104ea5760405162461bcd60e51b815260040161045c90610a87565b6006805460018181019092557ff652222313e28459528d920b65115c16c04f3efc82aaedc97be59f3f377c0d3f0180546001600160a01b0319163290811790915560008181526008602052604090819020805460ff191690931790925590517f9036bc06ad4a578f0132d89ba4adc07b9772275526730acc38d7e4b4c11872a39061057790600290610ad4565b60405180910390a2565b600054326001600160a01b03909116036105ec5760405162461bcd60e51b815260206004820152602660248201527f4f776e65722063616e6e6f742076616c696461746520686973206f776e20646f60448201526518dd5b595b9d60d21b606482015260840161045c565b3260009081526007602052604090205460ff16156106415760405162461bcd60e51b81526020600482015260126024820152712932b832b0ba32b2103b30b634b230ba37b960711b604482015260640161045c565b3260009081526008602052604090205460ff16156106715760405162461bcd60e51b815260040161045c90610a87565b6005805460018181019092557f036b6384b5eca791c62761152d0c79bb0604c104a5fb6f4eb0703f3154bb3db00180546001600160a01b0319163290811790915560008181526007602052604090819020805460ff191690931790925590517f57d77eb32e87e8c65c7cec1df5b0e8a8d5c4eae1b40c7246e7668ed702dd247a9061057790600290610ad4565b600461030b82826109c7565b6002805461031c9061093e565b6006546005546000919081158015610730575060058110155b8061074e5750811580159061074e575061074b826005610b5f565b81115b9250505090565b600080546001600160a01b0380841691160361077057600080fd5b506001600160a01b031660009081526008602052604090205460ff1690565b600080546001600160a01b038084169116036107aa57600080fd5b506001600160a01b031660009081526007602052604090205460ff1690565b600681815481106103d357600080fd5b634e487b7160e01b600052604160045260246000fd5b60006020828403121561080157600080fd5b813567ffffffffffffffff8082111561081957600080fd5b818401915084601f83011261082d57600080fd5b81358181111561083f5761083f6107d9565b604051601f8201601f19908116603f01168101908382118183101715610867576108676107d9565b8160405282815287602084870101111561088057600080fd5b826020860160208301376000928101602001929092525095945050505050565b600060208083528351808285015260005b818110156108cd578581018301518582016040015282016108b1565b818111156108df576000604083870101525b50601f01601f1916929092016040019392505050565b60006020828403121561090757600080fd5b81356001600160a01b038116811461091e57600080fd5b9392505050565b60006020828403121561093757600080fd5b5035919050565b600181811c9082168061095257607f821691505b60208210810361097257634e487b7160e01b600052602260045260246000fd5b50919050565b601f8211156109c257600081815260208120601f850160051c8101602086101561099f5750805b601f850160051c820191505b818110156109be578281556001016109ab565b5050505b505050565b815167ffffffffffffffff8111156109e1576109e16107d9565b6109f5816109ef845461093e565b84610978565b602080601f831160018114610a2a5760008415610a125750858301515b600019600386901b1c1916600185901b1785556109be565b600085815260208120601f198616915b82811015610a5957888601518255948401946001909101908401610a3a565b5085821015610a775787850151600019600388901b60f8161c191681555b5050505050600190811b01905550565b6020808252602d908201527f596f752063616e6e6f742076616c696461746520616e642064656e792061742060408201526c7468652073616d652074696d6560981b606082015260800190565b6000602080835260008454610ae88161093e565b80848701526040600180841660008114610b095760018114610b2357610b51565b60ff1985168984015283151560051b890183019550610b51565b896000528660002060005b85811015610b495781548b8201860152908301908801610b2e565b8a0184019650505b509398975050505050505050565b6000816000190483118215151615610b8757634e487b7160e01b600052601160045260246000fd5b50029056fea2646970667358221220f4b8392c9cc8ecb3945735fee4657a414d25c400201183e22006a8a4e4cba7bd64736f6c634300080f00336080604052671158e460913d000060035534801561001c57600080fd5b5060405161067738038061067783398101604081905261003b9161006b565b6012600181905561004d90600a610180565b6100579082610193565b600055506002805461ffff191690556101b2565b60006020828403121561007d57600080fd5b5051919050565b634e487b7160e01b600052601160045260246000fd5b600181815b808511156100d55781600019048211156100bb576100bb610084565b808516156100c857918102915b93841c939080029061009f565b509250929050565b6000826100ec5750600161017a565b816100f95750600061017a565b816001811461010f576002811461011957610135565b600191505061017a565b60ff84111561012a5761012a610084565b50506001821b61017a565b5060208310610133831016604e8410600b8410161715610158575081810a61017a565b610162838361009a565b806000190482111561017657610176610084565b0290505b92915050565b600061018c83836100dd565b9392505050565b60008160001904831182151516156101ad576101ad610084565b500290565b6104b6806101c16000396000f3fe608060405234801561001057600080fd5b50600436106100575760003560e01c8063131e2f181461005c5780632c4e722e1461008157806384c6e2c81461008a5780639f8af9dd14610094578063effc1fe0146100a7575b600080fd5b61006f61006a3660046102c8565b6100af565b60405190815260200160405180910390f35b61006f60005481565b6100926100f4565b005b6100926100a23660046102e1565b6100fe565b610092610280565b6000600154600a6100c091906103fd565b6064600054846100d09190610410565b6100da919061042f565b6100e4919061042f565b6100ee9083610451565b92915050565b6100fc6102a8565b565b60025460ff16156101485760405162461bcd60e51b815260206004820152601060248201526f105b1c9958591e48195e1958dd5d195960821b604482015260640160405180910390fd5b6000600154600a61015991906103fd565b6101639084610410565b90506000610171838361042f565b905080600354116101c4576003546101899082610469565b6000808282546101999190610451565b909155505060005468056bc75e2d6310000010156101bf5768056bc75e2d631000006000555b61026d565b6000600154600a6101d591906103fd565b6101e0906002610410565b9050600085856003546101f39190610410565b6101fd919061042f565b905081811115610218576729a2241af62c000060005561024b565b60015461022690600a6103fd565b6102308284610469565b60005461023d9190610410565b610247919061042f565b6000555b6729a2241af62c0000600054101561026a576729a2241af62c00006000555b50505b50506002805460ff191660011790555050565b600254610100900460ff166100fc576102976102a8565b6002805461ff001916610100179055565b600860005460076102b99190610410565b6102c3919061042f565b600055565b6000602082840312156102da57600080fd5b5035919050565b600080604083850312156102f457600080fd5b50508035926020909101359150565b634e487b7160e01b600052601160045260246000fd5b600181815b8085111561035457816000190482111561033a5761033a610303565b8085161561034757918102915b93841c939080029061031e565b509250929050565b60008261036b575060016100ee565b81610378575060006100ee565b816001811461038e5760028114610398576103b4565b60019150506100ee565b60ff8411156103a9576103a9610303565b50506001821b6100ee565b5060208310610133831016604e8410600b84101617156103d7575081810a6100ee565b6103e18383610319565b80600019048211156103f5576103f5610303565b029392505050565b6000610409838361035c565b9392505050565b600081600019048311821515161561042a5761042a610303565b500290565b60008261044c57634e487b7160e01b600052601260045260246000fd5b500490565b6000821982111561046457610464610303565b500190565b60008282101561047b5761047b610303565b50039056fea26469706673582212200a52230fce6dbbcfe6382f6b4c3379a48be370f09bd5c380a498fb6c0bf2955864736f6c634300080f0033",
  "immutableReferences": {},
  "source": "// SPDX-License-Identifier: GPL-3.0\r\n\r\npragma solidity >=0.7.0 <0.9.0;\r\n\r\nimport \"./Verificador.sol\";\r\nimport \"./AMM.sol\";\r\nimport \"./Tokenitzar.sol\";\r\nimport \"./Interest.sol\";\r\n\r\n\r\ncontract Factoring {\r\n\r\n    //Contract elements:\r\n\r\n    //Verified document\r\n    Verificacio public verificador;\r\n    uint256 public value;\r\n    uint256 public expDays;\r\n\r\n    //Collateral\r\n    uint256 public collateral;\r\n\r\n    //Tokenization\r\n    Tokfa public tokenitzacio;\r\n    uint256 public tokensInit;\r\n\r\n    //Liquidity pool\r\n    DEX public LP;\r\n\r\n    //Interest\r\n    Interest public intFee;\r\n    bool private hasLink;\r\n    bool private hasHash;\r\n\r\n\r\n    constructor(){\r\n        LP = new DEX();\r\n        verificador = new Verificacio();\r\n        intFee = new Interest(15);\r\n    }\r\n\r\n    modifier onlyOwner{\r\n        require(verificador.owner() == msg.sender);\r\n        _;\r\n    }\r\n\r\n\r\n    //Setting new File\r\n    event NewDocument(address indexed owner, string filename, uint256 value, uint256 daysRemaining);\r\n\r\n    function DOCnewFile(string memory _filename, uint256 _value, uint256 _days) external {\r\n        value = _value;\r\n        expDays = date(_days);\r\n\r\n        verificador.setFilename(_filename);\r\n        verificador.setOwner(msg.sender);\r\n\r\n        emit NewDocument(msg.sender, _filename, _value, expDays);\r\n\r\n    }\r\n\r\n    function date(uint256 _days) internal view returns(uint256){\r\n        return block.timestamp + (86400 * _days);\r\n    }\r\n\r\n    //Important data that helps to validate\r\n    \r\n    function DOCsetHash(string memory hash) external onlyOwner{\r\n        verificador.setHashDoc(hash);\r\n        hasHash = true;\r\n        if (hasLink && hasHash){\r\n            intFee.adjustIntDoc();\r\n        }\r\n    }\r\n\r\n    function DOCgetHash() external view returns(string memory){\r\n        return verificador.hash();\r\n    }\r\n\r\n    function DOCsetURL(string memory link) external onlyOwner{\r\n        verificador.setLinkDoc(link);\r\n        hasLink = true;\r\n        if (hasLink && hasHash){\r\n            intFee.adjustIntDoc();\r\n        }\r\n    }\r\n    \r\n    function DOCgetURL() external view returns(string memory){\r\n        return verificador.link();\r\n    }\r\n\r\n    //1. VERIFY\r\n    event DOCValidated(address indexed validator, string asset);\r\n\r\n    function DOCvalidate() external{\r\n        verificador.validate();\r\n\r\n        if (verificador.checkValidation()){\r\n            intFee.adjustIntVerify();\r\n        }\r\n\r\n        emit DOCValidated(msg.sender, verificador.filename());\r\n    }\r\n\r\n    event DOCDenegated(address indexed denegator, string asset);\r\n    function DOCdeny() external {\r\n        verificador.denegate();\r\n\r\n        emit DOCDenegated(msg.sender, verificador.filename());\r\n    }\r\n\r\n\r\n    //2. TOKENIZATION\r\n\r\n    /*\r\n    STEPS:\r\n    1. Tokenize Asset\r\n    2. Give allowance to Contract\r\n    3. Initialize Liquidity Pool\r\n    4. Adjust interest rate\r\n    */\r\n\r\n    event StartLP(uint256 assetX, uint256 assetY);\r\n    \r\n\r\n    function start(uint256 quants_tokens) external payable {\r\n        collateral = msg.value;\r\n        \r\n        //1.\r\n        tokenitzacio = new Tokfa(quants_tokens);\r\n        uint256 token_amount = quants_tokens * 10**uint(tokenitzacio.decimals());\r\n        tokensInit = token_amount;\r\n\r\n        //2.\r\n        tokenitzacio.approve(tx.origin, address(LP), tokenitzacio.totalSupply());\r\n\r\n\r\n        //3.\r\n        LP.initialize{value:msg.value}(address(tokenitzacio), token_amount);\r\n\r\n        //4.\r\n\r\n        intFee.adjustIntCol(value, collateral);\r\n\r\n        emit StartLP(token_amount, msg.value);\r\n\r\n\r\n    }\r\n\r\n //----------SWAP ERC------------\r\n    \r\n    event BuyERC(uint256 payed, uint256 tokens_received);\r\n    \r\n    function LPbuyERC() external payable {\r\n        LP.ethToErc{value:msg.value}();\r\n        \r\n        emit BuyERC(msg.value, LP.tokens_received());\r\n    }\r\n\r\n //----------SWAP ETH------------\r\n\r\n    event BuyETH(uint256 payed, uint256 tokens_received);\r\n\r\n    function LPbuyETH(uint256 tokens) public {\r\n\r\n        tokenitzacio.approve(tx.origin, address(LP), tokens);\r\n        LP.ercToEth(tokens);\r\n        emit BuyETH(tokens, LP.eth_received());\r\n    }\r\n\r\n //----------DEPOSIT------------\r\n\r\n    event DepositLP(uint256 liquidity);\r\n    function LPdeposit() external payable {\r\n        uint256 tokens_added = tokenAmount(msg.value);\r\n        if (tokens_added > TFAmybalance()){\r\n            tokenitzacio.generate(tokens_added);\r\n        }\r\n\r\n        tokenitzacio.approve(tx.origin, address(LP), tokenAmount(msg.value));\r\n        LP.deposit{value:msg.value}();\r\n        emit DepositLP(LP.liq_added());\r\n    }\r\n\r\n    function tokenAmount(uint256 eth) internal view returns(uint256){\r\n        \r\n        (uint256 liquidity, ) = LP.liquidityAdded(eth);\r\n        return liquidity;\r\n    }\r\n\r\n //----------WITHDRAW------------\r\n\r\n    event WithdrawLP(uint256 eth_received, uint256 tokens_received);\r\n    function LPgetLiquidity(uint256 liquid) public {\r\n        LP.withdraw(liquid);\r\n\r\n        emit WithdrawLP(LP.eth_received(), LP.tokens_received());\r\n    }\r\n\r\n//----------FINAL FASE------------\r\n\r\n    function FINgetProfit() external {\r\n        LPgetLiquidity(intFee.mul(LP.invested(tx.origin)));\r\n    }\r\n\r\n    function FINarbit() external {\r\n        uint256 new_tokens = tokensInit - LP.getTokenBalance();\r\n        if (new_tokens > TFAmybalance()){\r\n            tokenitzacio.generate(new_tokens);\r\n        }\r\n        LPbuyETH(new_tokens);\r\n    }\r\n\r\n//----------INTERFACES------------\r\n\r\n\r\n    //LIQUIDITY POOL INTERFACE\r\n\r\n    function LPtokens() external view returns(uint256){\r\n        return LP.getTokenBalance();\r\n    }\r\n\r\n    function LPether()  external view returns(uint256){\r\n        return LP.getBalance();\r\n    }\r\n\r\n    function LPliquidity() external view returns(uint256){\r\n        return LP.total_liquidity();\r\n    }    \r\n    \r\n    //TOKENIZATION INTERFACE\r\n\r\n    function TFAmybalance() public view returns(uint256){\r\n        return tokenitzacio.balanceOf(tx.origin);\r\n    }\r\n\r\n    function TFAbalance(address account) public view returns(uint256){\r\n        return tokenitzacio.balanceOf(account);\r\n    }\r\n\r\n    function TFAsupply() external view returns(uint256){\r\n        return tokenitzacio.totalSupply();\r\n    }\r\n\r\n    function ETHmybalance() public view returns(uint256){\r\n        return tx.origin.balance;\r\n    }\r\n\r\n    function ETHbalance(address account) public view returns(uint256){\r\n        return account.balance;\r\n    }\r\n\r\n\r\n    //INTEREST INTERFACE\r\n    function INTrate() external view returns(uint256){\r\n        return intFee.rate();\r\n    }\r\n\r\n    //REINIT\r\n\r\n    function restart() external onlyOwner {\r\n        LP.finish();\r\n        LP = new DEX();\r\n        verificador = new Verificacio();\r\n        intFee = new Interest(15);\r\n        value = 0;\r\n        expDays = 0;\r\n        collateral = 0;\r\n        tokensInit = 0;\r\n        hasLink = false;\r\n        hasHash = false;\r\n    }\r\n\r\n\r\n\r\n\r\n\r\n}\r\n    ",
  "sourcePath": "C:\\Users\\qsamb\\OneDrive\\Escritorio\\PFG\\Recursos\\Code\\TEST\\contracts\\Factoring.sol",
  "compiler": {
    "name": "solc",
    "version": "0.8.15+commit.e14f2714.Emscripten.clang"
  },
  "schemaVersion": "3.4.8",
  "updatedAt": "2022-08-22T12:54:32.261Z",
  "networkType": "ethereum",
  "devdoc": {
    "kind": "dev",
    "methods": {},
    "version": 1
  },
  "userdoc": {
    "kind": "user",
    "methods": {},
    "version": 1
  }
}