{
  "contractName": "Interest",
  "abi": [
    {
      "inputs": [
        {
          "internalType": "uint256",
          "name": "_init",
          "type": "uint256"
        }
      ],
      "stateMutability": "nonpayable",
      "type": "constructor"
    },
    {
      "inputs": [],
      "name": "rate",
      "outputs": [
        {
          "internalType": "uint256",
          "name": "",
          "type": "uint256"
        }
      ],
      "stateMutability": "view",
      "type": "function"
    },
    {
      "inputs": [],
      "name": "adjustIntVerify",
      "outputs": [],
      "stateMutability": "nonpayable",
      "type": "function"
    },
    {
      "inputs": [],
      "name": "adjustIntDoc",
      "outputs": [],
      "stateMutability": "nonpayable",
      "type": "function"
    },
    {
      "inputs": [
        {
          "internalType": "uint256",
          "name": "val",
          "type": "uint256"
        },
        {
          "internalType": "uint256",
          "name": "col",
          "type": "uint256"
        }
      ],
      "name": "adjustIntCol",
      "outputs": [],
      "stateMutability": "nonpayable",
      "type": "function"
    },
    {
      "inputs": [
        {
          "internalType": "uint256",
          "name": "amount",
          "type": "uint256"
        }
      ],
      "name": "mul",
      "outputs": [
        {
          "internalType": "uint256",
          "name": "",
          "type": "uint256"
        }
      ],
      "stateMutability": "view",
      "type": "function"
    }
  ],
  "bytecode": "0x60806040523480156200001157600080fd5b5060405162000af338038062000af38339818101604052810190620000379190620000e0565b6012600181905550600154600a62000050919062000295565b816200005d9190620002e6565b6000819055506000600260006101000a81548160ff0219169083151502179055506000600260016101000a81548160ff0219169083151502179055505062000347565b600080fd5b6000819050919050565b620000ba81620000a5565b8114620000c657600080fd5b50565b600081519050620000da81620000af565b92915050565b600060208284031215620000f957620000f8620000a0565b5b60006200010984828501620000c9565b91505092915050565b7f4e487b7100000000000000000000000000000000000000000000000000000000600052601160045260246000fd5b60008160011c9050919050565b6000808291508390505b6001851115620001a05780860481111562000178576200017762000112565b5b6001851615620001885780820291505b8081029050620001988562000141565b945062000158565b94509492505050565b600082620001bb57600190506200028e565b81620001cb57600090506200028e565b8160018114620001e45760028114620001ef5762000225565b60019150506200028e565b60ff84111562000204576200020362000112565b5b8360020a9150848211156200021e576200021d62000112565b5b506200028e565b5060208310610133831016604e8410600b84101617156200025f5782820a90508381111562000259576200025862000112565b5b6200028e565b6200026e84848460016200014e565b9250905081840481111562000288576200028762000112565b5b81810290505b9392505050565b6000620002a282620000a5565b9150620002af83620000a5565b9250620002de7fffffffffffffffffffffffffffffffffffffffffffffffffffffffffffffffff8484620001a9565b905092915050565b6000620002f382620000a5565b91506200030083620000a5565b9250817fffffffffffffffffffffffffffffffffffffffffffffffffffffffffffffffff04831182151516156200033c576200033b62000112565b5b828202905092915050565b61079c80620003576000396000f3fe608060405234801561001057600080fd5b50600436106100575760003560e01c8063131e2f181461005c5780632c4e722e1461008c57806384c6e2c8146100aa5780639f8af9dd146100b4578063effc1fe0146100d0575b600080fd5b61007660048036038101906100719190610361565b6100da565b604051610083919061039d565b60405180910390f35b610094610121565b6040516100a1919061039d565b60405180910390f35b6100b2610127565b005b6100ce60048036038101906100c991906103b8565b610131565b005b6100d86102c9565b005b6000600154600a6100eb919061055a565b6064600054846100fb91906105a5565b610105919061062e565b61010f919061062e565b8261011a919061065f565b9050919050565b60005481565b61012f610303565b565b600260009054906101000a900460ff1615610181576040517f08c379a000000000000000000000000000000000000000000000000000000000815260040161017890610712565b60405180910390fd5b6000600154600a610192919061055a565b8361019d91906105a5565b90506000600154600a6101b0919061055a565b836101bb91906105a5565b9050600083836101cb919061062e565b90506000671158e460913d000090508181116102095780826101ed9190610732565b6000808282546101fd919061065f565b925050819055506102a6565b600060648761021891906105a5565b607d60005461022791906105a5565b610231919061062e565b90506000606460508761024491906105a5565b61024e919061062e565b90506000818661025e9190610732565b90506000600154600a610271919061055a565b828561027d91906105a5565b610287919061062e565b90508060008082825461029a9190610732565b92505081905550505050505b6001600260006101000a81548160ff021916908315150217905550505050505050565b600260019054906101000a900460ff16610301576102e5610303565b6001600260016101000a81548160ff0219169083151502179055505b565b6008600760005461031491906105a5565b61031e919061062e565b600081905550565b600080fd5b6000819050919050565b61033e8161032b565b811461034957600080fd5b50565b60008135905061035b81610335565b92915050565b60006020828403121561037757610376610326565b5b60006103858482850161034c565b91505092915050565b6103978161032b565b82525050565b60006020820190506103b2600083018461038e565b92915050565b600080604083850312156103cf576103ce610326565b5b60006103dd8582860161034c565b92505060206103ee8582860161034c565b9150509250929050565b7f4e487b7100000000000000000000000000000000000000000000000000000000600052601160045260246000fd5b60008160011c9050919050565b6000808291508390505b600185111561047e5780860481111561045a576104596103f8565b5b60018516156104695780820291505b808102905061047785610427565b945061043e565b94509492505050565b6000826104975760019050610553565b816104a55760009050610553565b81600181146104bb57600281146104c5576104f4565b6001915050610553565b60ff8411156104d7576104d66103f8565b5b8360020a9150848211156104ee576104ed6103f8565b5b50610553565b5060208310610133831016604e8410600b84101617156105295782820a905083811115610524576105236103f8565b5b610553565b6105368484846001610434565b9250905081840481111561054d5761054c6103f8565b5b81810290505b9392505050565b60006105658261032b565b91506105708361032b565b925061059d7fffffffffffffffffffffffffffffffffffffffffffffffffffffffffffffffff8484610487565b905092915050565b60006105b08261032b565b91506105bb8361032b565b9250817fffffffffffffffffffffffffffffffffffffffffffffffffffffffffffffffff04831182151516156105f4576105f36103f8565b5b828202905092915050565b7f4e487b7100000000000000000000000000000000000000000000000000000000600052601260045260246000fd5b60006106398261032b565b91506106448361032b565b925082610654576106536105ff565b5b828204905092915050565b600061066a8261032b565b91506106758361032b565b9250827fffffffffffffffffffffffffffffffffffffffffffffffffffffffffffffffff038211156106aa576106a96103f8565b5b828201905092915050565b600082825260208201905092915050565b7f416c726561647920657865637574656400000000000000000000000000000000600082015250565b60006106fc6010836106b5565b9150610707826106c6565b602082019050919050565b6000602082019050818103600083015261072b816106ef565b9050919050565b600061073d8261032b565b91506107488361032b565b92508282101561075b5761075a6103f8565b5b82820390509291505056fea2646970667358221220ed3409c8a098739f156f647fb08cc114fd9e3ae06f87d530fe7a6ac56944185b64736f6c634300080f0033",
  "immutableReferences": {},
  "source": "// SPDX-License-Identifier: GPL-3.0\r\n\r\npragma solidity^0.8.15;\r\n\r\ncontract Interest {\r\n\r\n\r\n    uint256 public rate;\r\n    uint256 private dec;\r\n    bool private collateralOnce;\r\n    bool private verifiedOnce;\r\n\r\n\r\n\r\n    constructor(uint256 _init){\r\n        dec = 18;\r\n        rate = _init * 10 ** dec;\r\n        collateralOnce = false;\r\n        verifiedOnce = false;\r\n    }\r\n\r\n    function adjustIntVerify() public {\r\n        if (!verifiedOnce){\r\n            reduction();\r\n            verifiedOnce = true;\r\n        }\r\n    }\r\n\r\n    function adjustIntDoc() public {\r\n        reduction();\r\n    }\r\n\r\n    function adjustIntCol(uint256 val, uint256 col) public {\r\n        require(!collateralOnce, \"Already executed\");\r\n        uint256 valueDec = (val * 10 ** dec);\r\n        uint256 colDec = (col * 10 ** dec);\r\n        uint256 actualRef = valueDec/col;\r\n        uint256 ref = 1250000000000000000;\r\n\r\n        if (ref <= actualRef){\r\n            rate += (actualRef-ref);\r\n        }\r\n        else{\r\n            uint256 x = (rate*125) / (val*100);\r\n            uint256 colRes = (valueDec * 80)/100;\r\n            uint256 difCol = colDec - colRes;\r\n            uint256 res = (x * difCol)/(10**dec);\r\n            rate -= res;\r\n        }\r\n\r\n        collateralOnce = true;\r\n    }\r\n\r\n    function reduction() private {\r\n        rate = (rate * 7) /8;\r\n    }\r\n\r\n    function mul(uint256 amount) public view returns(uint256){\r\n        return amount + ((amount * rate)/100)/(10**dec);\r\n\r\n    }\r\n\r\n\r\n}",
  "sourcePath": "C:\\Users\\qsamb\\OneDrive\\Escritorio\\PFG\\Recursos\\Code\\TEST\\contracts\\Interest.sol",
  "compiler": {
    "name": "solc",
    "version": "0.8.15+commit.e14f2714.Emscripten.clang"
  },
  "schemaVersion": "3.4.8",
  "updatedAt": "2022-08-10T15:29:18.584Z",
  "devdoc": {
    "kind": "dev",
    "methods": {},
    "version": 1
  },
  "userdoc": {
    "kind": "user",
    "methods": {},
    "version": 1
  }
}