{
  "contractName": "Interest",
  "abi": [
    {
      "inputs": [
        {
          "internalType": "uint256",
          "name": "_init",
          "type": "uint256"
        }
      ],
      "stateMutability": "nonpayable",
      "type": "constructor"
    },
    {
      "inputs": [],
      "name": "rate",
      "outputs": [
        {
          "internalType": "uint256",
          "name": "",
          "type": "uint256"
        }
      ],
      "stateMutability": "view",
      "type": "function"
    },
    {
      "inputs": [],
      "name": "adjustIntVerify",
      "outputs": [],
      "stateMutability": "nonpayable",
      "type": "function"
    },
    {
      "inputs": [],
      "name": "adjustIntDoc",
      "outputs": [],
      "stateMutability": "nonpayable",
      "type": "function"
    },
    {
      "inputs": [
        {
          "internalType": "uint256",
          "name": "val",
          "type": "uint256"
        },
        {
          "internalType": "uint256",
          "name": "col",
          "type": "uint256"
        }
      ],
      "name": "adjustIntCol",
      "outputs": [],
      "stateMutability": "nonpayable",
      "type": "function"
    },
    {
      "inputs": [
        {
          "internalType": "uint256",
          "name": "amount",
          "type": "uint256"
        }
      ],
      "name": "mul",
      "outputs": [
        {
          "internalType": "uint256",
          "name": "",
          "type": "uint256"
        }
      ],
      "stateMutability": "view",
      "type": "function"
    }
  ],
  "bytecode": "0x6080604052671158e460913d000060035534801561001c57600080fd5b5060405161067738038061067783398101604081905261003b9161006b565b6012600181905561004d90600a610180565b6100579082610193565b600055506002805461ffff191690556101b2565b60006020828403121561007d57600080fd5b5051919050565b634e487b7160e01b600052601160045260246000fd5b600181815b808511156100d55781600019048211156100bb576100bb610084565b808516156100c857918102915b93841c939080029061009f565b509250929050565b6000826100ec5750600161017a565b816100f95750600061017a565b816001811461010f576002811461011957610135565b600191505061017a565b60ff84111561012a5761012a610084565b50506001821b61017a565b5060208310610133831016604e8410600b8410161715610158575081810a61017a565b610162838361009a565b806000190482111561017657610176610084565b0290505b92915050565b600061018c83836100dd565b9392505050565b60008160001904831182151516156101ad576101ad610084565b500290565b6104b6806101c16000396000f3fe608060405234801561001057600080fd5b50600436106100575760003560e01c8063131e2f181461005c5780632c4e722e1461008157806384c6e2c81461008a5780639f8af9dd14610094578063effc1fe0146100a7575b600080fd5b61006f61006a3660046102c8565b6100af565b60405190815260200160405180910390f35b61006f60005481565b6100926100f4565b005b6100926100a23660046102e1565b6100fe565b610092610280565b6000600154600a6100c091906103fd565b6064600054846100d09190610410565b6100da919061042f565b6100e4919061042f565b6100ee9083610451565b92915050565b6100fc6102a8565b565b60025460ff16156101485760405162461bcd60e51b815260206004820152601060248201526f105b1c9958591e48195e1958dd5d195960821b604482015260640160405180910390fd5b6000600154600a61015991906103fd565b6101639084610410565b90506000610171838361042f565b905080600354116101c4576003546101899082610469565b6000808282546101999190610451565b909155505060005468056bc75e2d6310000010156101bf5768056bc75e2d631000006000555b61026d565b6000600154600a6101d591906103fd565b6101e0906002610410565b9050600085856003546101f39190610410565b6101fd919061042f565b905081811115610218576729a2241af62c000060005561024b565b60015461022690600a6103fd565b6102308284610469565b60005461023d9190610410565b610247919061042f565b6000555b6729a2241af62c0000600054101561026a576729a2241af62c00006000555b50505b50506002805460ff191660011790555050565b600254610100900460ff166100fc576102976102a8565b6002805461ff001916610100179055565b600860005460076102b99190610410565b6102c3919061042f565b600055565b6000602082840312156102da57600080fd5b5035919050565b600080604083850312156102f457600080fd5b50508035926020909101359150565b634e487b7160e01b600052601160045260246000fd5b600181815b8085111561035457816000190482111561033a5761033a610303565b8085161561034757918102915b93841c939080029061031e565b509250929050565b60008261036b575060016100ee565b81610378575060006100ee565b816001811461038e5760028114610398576103b4565b60019150506100ee565b60ff8411156103a9576103a9610303565b50506001821b6100ee565b5060208310610133831016604e8410600b84101617156103d7575081810a6100ee565b6103e18383610319565b80600019048211156103f5576103f5610303565b029392505050565b6000610409838361035c565b9392505050565b600081600019048311821515161561042a5761042a610303565b500290565b60008261044c57634e487b7160e01b600052601260045260246000fd5b500490565b6000821982111561046457610464610303565b500190565b60008282101561047b5761047b610303565b50039056fea26469706673582212200a52230fce6dbbcfe6382f6b4c3379a48be370f09bd5c380a498fb6c0bf2955864736f6c634300080f0033",
  "immutableReferences": {},
  "source": "// SPDX-License-Identifier: GPL-3.0\r\n\r\npragma solidity >=0.7.0 <0.9.0;\r\n\r\n\r\ncontract Interest {\r\n\r\n\r\n    uint256 public rate;\r\n    uint256 private dec;\r\n    bool private collateralOnce;\r\n    bool private verifiedOnce;\r\n    uint256 private constant MAX = 100000000000000000000;\r\n    uint256 private constant MIN = 3000000000000000000;\r\n    uint256 private REF = 1250000000000000000;\r\n\r\n\r\n\r\n    constructor(uint256 _init){\r\n        dec = 18;\r\n        rate = _init * 10 ** dec;\r\n        collateralOnce = false;\r\n        verifiedOnce = false;\r\n    }\r\n\r\n    function adjustIntVerify() external {\r\n        if (!verifiedOnce){\r\n            reduction();\r\n            verifiedOnce = true;\r\n        }\r\n    }\r\n\r\n    function adjustIntDoc() external {\r\n        reduction();\r\n    }\r\n\r\n    function adjustIntCol(uint256 val, uint256 col) external {\r\n        require(!collateralOnce, \"Already executed\");\r\n        uint256 valueDec = (val * 10 ** dec);\r\n        uint256 actualRef = valueDec/col;\r\n\r\n        if (REF <= actualRef){\r\n            rate += (actualRef-REF);\r\n            if (rate > MAX) {\r\n                rate = MAX;\r\n            }\r\n        }\r\n        else{\r\n            \r\n            uint256 dos = (2 * 10 ** dec);\r\n            uint256 res = (REF*col)/val;\r\n            if (res > dos) {\r\n                rate = MIN;\r\n            }\r\n            else{\r\n                rate = (rate * (dos - res)) / (10**dec);\r\n            }\r\n\r\n            if (rate < MIN){\r\n                rate = MIN;\r\n            }\r\n        }\r\n\r\n        collateralOnce = true;\r\n    }\r\n\r\n    function reduction() private {\r\n        rate = (rate * 7) /8;\r\n    }\r\n\r\n    function mul(uint256 amount) external view returns(uint256){\r\n        return amount + ((amount * rate)/100)/(10**dec);\r\n\r\n    }\r\n\r\n\r\n}",
  "sourcePath": "C:\\Users\\qsamb\\OneDrive\\Escritorio\\PFG\\Recursos\\Code\\TEST\\contracts\\Interest.sol",
  "compiler": {
    "name": "solc",
    "version": "0.8.15+commit.e14f2714.Emscripten.clang"
  },
  "schemaVersion": "3.4.8",
  "updatedAt": "2022-08-22T12:54:30.786Z",
  "devdoc": {
    "kind": "dev",
    "methods": {},
    "version": 1
  },
  "userdoc": {
    "kind": "user",
    "methods": {},
    "version": 1
  }
}