{
  "contractName": "Interest",
  "abi": [
    {
      "inputs": [
        {
          "internalType": "uint256",
          "name": "_init",
          "type": "uint256"
        }
      ],
      "stateMutability": "nonpayable",
      "type": "constructor"
    },
    {
      "inputs": [],
      "name": "rate",
      "outputs": [
        {
          "internalType": "uint256",
          "name": "",
          "type": "uint256"
        }
      ],
      "stateMutability": "view",
      "type": "function"
    },
    {
      "inputs": [],
      "name": "adjustIntVerify",
      "outputs": [],
      "stateMutability": "nonpayable",
      "type": "function"
    },
    {
      "inputs": [],
      "name": "adjustIntDoc",
      "outputs": [],
      "stateMutability": "nonpayable",
      "type": "function"
    },
    {
      "inputs": [
        {
          "internalType": "uint256",
          "name": "val",
          "type": "uint256"
        },
        {
          "internalType": "uint256",
          "name": "col",
          "type": "uint256"
        }
      ],
      "name": "adjustIntCol",
      "outputs": [],
      "stateMutability": "nonpayable",
      "type": "function"
    },
    {
      "inputs": [
        {
          "internalType": "uint256",
          "name": "amount",
          "type": "uint256"
        }
      ],
      "name": "mul",
      "outputs": [
        {
          "internalType": "uint256",
          "name": "",
          "type": "uint256"
        }
      ],
      "stateMutability": "view",
      "type": "function"
    }
  ],
  "bytecode": "0x6080604052671158e460913d00006003553480156200001d57600080fd5b5060405162000b1338038062000b138339818101604052810190620000439190620000ec565b6012600181905550600154600a6200005c9190620002a1565b81620000699190620002f2565b6000819055506000600260006101000a81548160ff0219169083151502179055506000600260016101000a81548160ff0219169083151502179055505062000353565b600080fd5b6000819050919050565b620000c681620000b1565b8114620000d257600080fd5b50565b600081519050620000e681620000bb565b92915050565b600060208284031215620001055762000104620000ac565b5b60006200011584828501620000d5565b91505092915050565b7f4e487b7100000000000000000000000000000000000000000000000000000000600052601160045260246000fd5b60008160011c9050919050565b6000808291508390505b6001851115620001ac578086048111156200018457620001836200011e565b5b6001851615620001945780820291505b8081029050620001a4856200014d565b945062000164565b94509492505050565b600082620001c757600190506200029a565b81620001d757600090506200029a565b8160018114620001f05760028114620001fb5762000231565b60019150506200029a565b60ff84111562000210576200020f6200011e565b5b8360020a9150848211156200022a57620002296200011e565b5b506200029a565b5060208310610133831016604e8410600b84101617156200026b5782820a9050838111156200026557620002646200011e565b5b6200029a565b6200027a84848460016200015a565b925090508184048111156200029457620002936200011e565b5b81810290505b9392505050565b6000620002ae82620000b1565b9150620002bb83620000b1565b9250620002ea7fffffffffffffffffffffffffffffffffffffffffffffffffffffffffffffffff8484620001b5565b905092915050565b6000620002ff82620000b1565b91506200030c83620000b1565b9250817fffffffffffffffffffffffffffffffffffffffffffffffffffffffffffffffff04831182151516156200034857620003476200011e565b5b828202905092915050565b6107b080620003636000396000f3fe608060405234801561001057600080fd5b50600436106100575760003560e01c8063131e2f181461005c5780632c4e722e1461008c57806384c6e2c8146100aa5780639f8af9dd146100b4578063effc1fe0146100d0575b600080fd5b61007660048036038101906100719190610375565b6100da565b60405161008391906103b1565b60405180910390f35b610094610121565b6040516100a191906103b1565b60405180910390f35b6100b2610127565b005b6100ce60048036038101906100c991906103cc565b610131565b005b6100d86102dd565b005b6000600154600a6100eb919061056e565b6064600054846100fb91906105b9565b6101059190610642565b61010f9190610642565b8261011a9190610673565b9050919050565b60005481565b61012f610317565b565b600260009054906101000a900460ff1615610181576040517f08c379a000000000000000000000000000000000000000000000000000000000815260040161017890610726565b60405180910390fd5b6000600154600a610192919061056e565b8361019d91906105b9565b9050600082826101ad9190610642565b9050806003541161020657600354816101c69190610746565b6000808282546101d69190610673565b9250508190555068056bc75e2d6310000060005411156102015768056bc75e2d631000006000819055505b6102bc565b6000600154600a610217919061056e565b600261022391906105b9565b90506000858560035461023691906105b9565b6102409190610642565b90508181111561025e576729a2241af62c0000600081905550610297565b600154600a61026d919061056e565b81836102799190610746565b60005461028691906105b9565b6102909190610642565b6000819055505b6729a2241af62c000060005410156102b9576729a2241af62c00006000819055505b50505b6001600260006101000a81548160ff02191690831515021790555050505050565b600260019054906101000a900460ff16610315576102f9610317565b6001600260016101000a81548160ff0219169083151502179055505b565b6008600760005461032891906105b9565b6103329190610642565b600081905550565b600080fd5b6000819050919050565b6103528161033f565b811461035d57600080fd5b50565b60008135905061036f81610349565b92915050565b60006020828403121561038b5761038a61033a565b5b600061039984828501610360565b91505092915050565b6103ab8161033f565b82525050565b60006020820190506103c660008301846103a2565b92915050565b600080604083850312156103e3576103e261033a565b5b60006103f185828601610360565b925050602061040285828601610360565b9150509250929050565b7f4e487b7100000000000000000000000000000000000000000000000000000000600052601160045260246000fd5b60008160011c9050919050565b6000808291508390505b60018511156104925780860481111561046e5761046d61040c565b5b600185161561047d5780820291505b808102905061048b8561043b565b9450610452565b94509492505050565b6000826104ab5760019050610567565b816104b95760009050610567565b81600181146104cf57600281146104d957610508565b6001915050610567565b60ff8411156104eb576104ea61040c565b5b8360020a9150848211156105025761050161040c565b5b50610567565b5060208310610133831016604e8410600b841016171561053d5782820a9050838111156105385761053761040c565b5b610567565b61054a8484846001610448565b925090508184048111156105615761056061040c565b5b81810290505b9392505050565b60006105798261033f565b91506105848361033f565b92506105b17fffffffffffffffffffffffffffffffffffffffffffffffffffffffffffffffff848461049b565b905092915050565b60006105c48261033f565b91506105cf8361033f565b9250817fffffffffffffffffffffffffffffffffffffffffffffffffffffffffffffffff04831182151516156106085761060761040c565b5b828202905092915050565b7f4e487b7100000000000000000000000000000000000000000000000000000000600052601260045260246000fd5b600061064d8261033f565b91506106588361033f565b92508261066857610667610613565b5b828204905092915050565b600061067e8261033f565b91506106898361033f565b9250827fffffffffffffffffffffffffffffffffffffffffffffffffffffffffffffffff038211156106be576106bd61040c565b5b828201905092915050565b600082825260208201905092915050565b7f416c726561647920657865637574656400000000000000000000000000000000600082015250565b60006107106010836106c9565b915061071b826106da565b602082019050919050565b6000602082019050818103600083015261073f81610703565b9050919050565b60006107518261033f565b915061075c8361033f565b92508282101561076f5761076e61040c565b5b82820390509291505056fea2646970667358221220e41ecf9dcd9443095e9c5124e01fa00a6f6ac3dae75b27fcd0d79fa35e852bd764736f6c634300080f0033",
  "immutableReferences": {},
  "source": "// SPDX-License-Identifier: GPL-3.0\r\n\r\npragma solidity >=0.7.0 <0.9.0;\r\n\r\n\r\ncontract Interest {\r\n\r\n\r\n    uint256 public rate;\r\n    uint256 private dec;\r\n    bool private collateralOnce;\r\n    bool private verifiedOnce;\r\n    uint256 private constant MAX = 100000000000000000000;\r\n    uint256 private constant MIN = 3000000000000000000;\r\n    uint256 private REF = 1250000000000000000;\r\n\r\n\r\n\r\n    constructor(uint256 _init){\r\n        dec = 18;\r\n        rate = _init * 10 ** dec;\r\n        collateralOnce = false;\r\n        verifiedOnce = false;\r\n    }\r\n\r\n    function adjustIntVerify() external {\r\n        if (!verifiedOnce){\r\n            reduction();\r\n            verifiedOnce = true;\r\n        }\r\n    }\r\n\r\n    function adjustIntDoc() external {\r\n        reduction();\r\n    }\r\n\r\n    function adjustIntCol(uint256 val, uint256 col) external {\r\n        require(!collateralOnce, \"Already executed\");\r\n        uint256 valueDec = (val * 10 ** dec);\r\n        uint256 actualRef = valueDec/col;\r\n\r\n        if (REF <= actualRef){\r\n            rate += (actualRef-REF);\r\n            if (rate > MAX) {\r\n                rate = MAX;\r\n            }\r\n        }\r\n        else{\r\n            \r\n            uint256 dos = (2 * 10 ** dec);\r\n            uint256 res = (REF*col)/val;\r\n            if (res > dos) {\r\n                rate = MIN;\r\n            }\r\n            else{\r\n                rate = (rate * (dos - res)) / (10**dec);\r\n            }\r\n\r\n            if (rate < MIN){\r\n                rate = MIN;\r\n            }\r\n        }\r\n\r\n        collateralOnce = true;\r\n    }\r\n\r\n    function reduction() private {\r\n        rate = (rate * 7) /8;\r\n    }\r\n\r\n    function mul(uint256 amount) external view returns(uint256){\r\n        return amount + ((amount * rate)/100)/(10**dec);\r\n\r\n    }\r\n\r\n\r\n}",
  "sourcePath": "C:\\Users\\qsamb\\OneDrive\\Escritorio\\PFG\\Recursos\\Code\\TEST\\contracts\\Interest.sol",
  "compiler": {
    "name": "solc",
    "version": "0.8.15+commit.e14f2714.Emscripten.clang"
  },
  "schemaVersion": "3.4.8",
  "updatedAt": "2022-08-21T15:12:11.540Z",
  "devdoc": {
    "kind": "dev",
    "methods": {},
    "version": 1
  },
  "userdoc": {
    "kind": "user",
    "methods": {},
    "version": 1
  }
}