{
  "contractName": "Tokfa",
  "abi": [
    {
      "inputs": [
        {
          "internalType": "uint256",
          "name": "quants_tokens",
          "type": "uint256"
        }
      ],
      "stateMutability": "nonpayable",
      "type": "constructor"
    },
    {
      "anonymous": false,
      "inputs": [
        {
          "indexed": true,
          "internalType": "address",
          "name": "owner",
          "type": "address"
        },
        {
          "indexed": true,
          "internalType": "address",
          "name": "spender",
          "type": "address"
        },
        {
          "indexed": false,
          "internalType": "uint256",
          "name": "value",
          "type": "uint256"
        }
      ],
      "name": "Approval",
      "type": "event"
    },
    {
      "anonymous": false,
      "inputs": [
        {
          "indexed": true,
          "internalType": "address",
          "name": "from",
          "type": "address"
        },
        {
          "indexed": true,
          "internalType": "address",
          "name": "to",
          "type": "address"
        },
        {
          "indexed": false,
          "internalType": "uint256",
          "name": "value",
          "type": "uint256"
        }
      ],
      "name": "Transfer",
      "type": "event"
    },
    {
      "inputs": [
        {
          "internalType": "address",
          "name": "owner",
          "type": "address"
        },
        {
          "internalType": "address",
          "name": "spender",
          "type": "address"
        }
      ],
      "name": "allowance",
      "outputs": [
        {
          "internalType": "uint256",
          "name": "",
          "type": "uint256"
        }
      ],
      "stateMutability": "view",
      "type": "function"
    },
    {
      "inputs": [
        {
          "internalType": "address",
          "name": "account",
          "type": "address"
        }
      ],
      "name": "balanceOf",
      "outputs": [
        {
          "internalType": "uint256",
          "name": "",
          "type": "uint256"
        }
      ],
      "stateMutability": "view",
      "type": "function"
    },
    {
      "inputs": [],
      "name": "decimals",
      "outputs": [
        {
          "internalType": "uint8",
          "name": "",
          "type": "uint8"
        }
      ],
      "stateMutability": "view",
      "type": "function"
    },
    {
      "inputs": [
        {
          "internalType": "address",
          "name": "spender",
          "type": "address"
        },
        {
          "internalType": "uint256",
          "name": "subtractedValue",
          "type": "uint256"
        }
      ],
      "name": "decreaseAllowance",
      "outputs": [
        {
          "internalType": "bool",
          "name": "",
          "type": "bool"
        }
      ],
      "stateMutability": "nonpayable",
      "type": "function"
    },
    {
      "inputs": [
        {
          "internalType": "address",
          "name": "spender",
          "type": "address"
        },
        {
          "internalType": "uint256",
          "name": "addedValue",
          "type": "uint256"
        }
      ],
      "name": "increaseAllowance",
      "outputs": [
        {
          "internalType": "bool",
          "name": "",
          "type": "bool"
        }
      ],
      "stateMutability": "nonpayable",
      "type": "function"
    },
    {
      "inputs": [],
      "name": "name",
      "outputs": [
        {
          "internalType": "string",
          "name": "",
          "type": "string"
        }
      ],
      "stateMutability": "view",
      "type": "function"
    },
    {
      "inputs": [],
      "name": "symbol",
      "outputs": [
        {
          "internalType": "string",
          "name": "",
          "type": "string"
        }
      ],
      "stateMutability": "view",
      "type": "function"
    },
    {
      "inputs": [],
      "name": "totalSupply",
      "outputs": [
        {
          "internalType": "uint256",
          "name": "",
          "type": "uint256"
        }
      ],
      "stateMutability": "view",
      "type": "function"
    },
    {
      "inputs": [
        {
          "internalType": "address",
          "name": "to",
          "type": "address"
        },
        {
          "internalType": "uint256",
          "name": "amount",
          "type": "uint256"
        }
      ],
      "name": "transfer",
      "outputs": [
        {
          "internalType": "bool",
          "name": "",
          "type": "bool"
        }
      ],
      "stateMutability": "nonpayable",
      "type": "function"
    },
    {
      "inputs": [
        {
          "internalType": "address",
          "name": "from",
          "type": "address"
        },
        {
          "internalType": "address",
          "name": "to",
          "type": "address"
        },
        {
          "internalType": "uint256",
          "name": "amount",
          "type": "uint256"
        }
      ],
      "name": "transferFrom",
      "outputs": [
        {
          "internalType": "bool",
          "name": "",
          "type": "bool"
        }
      ],
      "stateMutability": "nonpayable",
      "type": "function"
    },
    {
      "inputs": [
        {
          "internalType": "address",
          "name": "spender",
          "type": "address"
        },
        {
          "internalType": "uint256",
          "name": "amount",
          "type": "uint256"
        }
      ],
      "name": "approve",
      "outputs": [
        {
          "internalType": "bool",
          "name": "",
          "type": "bool"
        }
      ],
      "stateMutability": "nonpayable",
      "type": "function"
    },
    {
      "inputs": [
        {
          "internalType": "address",
          "name": "owner",
          "type": "address"
        },
        {
          "internalType": "address",
          "name": "spender",
          "type": "address"
        },
        {
          "internalType": "uint256",
          "name": "amount",
          "type": "uint256"
        }
      ],
      "name": "approve",
      "outputs": [],
      "stateMutability": "nonpayable",
      "type": "function"
    },
    {
      "inputs": [
        {
          "internalType": "uint256",
          "name": "news",
          "type": "uint256"
        }
      ],
      "name": "generate",
      "outputs": [],
      "stateMutability": "nonpayable",
      "type": "function"
    }
  ],
  "bytecode": "0x60806040523480156200001157600080fd5b5060405162000f0238038062000f028339810160408190526200003491620001c1565b60405180604001604052806005815260200164546f6b666160d81b8152506040518060400160405280600381526020016254464160e81b81525081600390816200007f91906200027f565b5060046200008e82826200027f565b505050620000c832620000a6620000cf60201b60201c565b620000b69060ff16600a62000460565b620000c2908462000475565b620000d4565b50620004b2565b601290565b6001600160a01b0382166200012f5760405162461bcd60e51b815260206004820152601f60248201527f45524332303a206d696e7420746f20746865207a65726f206164647265737300604482015260640160405180910390fd5b806002600082825462000143919062000497565b90915550506001600160a01b038216600090815260208190526040812080548392906200017290849062000497565b90915550506040518181526001600160a01b038316906000907fddf252ad1be2c89b69c2b068fc378daa952ba7f163c4a11628f55a4df523b3ef9060200160405180910390a35050565b505050565b600060208284031215620001d457600080fd5b5051919050565b634e487b7160e01b600052604160045260246000fd5b600181811c908216806200020657607f821691505b6020821081036200022757634e487b7160e01b600052602260045260246000fd5b50919050565b601f821115620001bc57600081815260208120601f850160051c81016020861015620002565750805b601f850160051c820191505b81811015620002775782815560010162000262565b505050505050565b81516001600160401b038111156200029b576200029b620001db565b620002b381620002ac8454620001f1565b846200022d565b602080601f831160018114620002eb5760008415620002d25750858301515b600019600386901b1c1916600185901b17855562000277565b600085815260208120601f198616915b828110156200031c57888601518255948401946001909101908401620002fb565b50858210156200033b5787850151600019600388901b60f8161c191681555b5050505050600190811b01905550565b634e487b7160e01b600052601160045260246000fd5b600181815b80851115620003a25781600019048211156200038657620003866200034b565b808516156200039457918102915b93841c939080029062000366565b509250929050565b600082620003bb575060016200045a565b81620003ca575060006200045a565b8160018114620003e35760028114620003ee576200040e565b60019150506200045a565b60ff8411156200040257620004026200034b565b50506001821b6200045a565b5060208310610133831016604e8410600b841016171562000433575081810a6200045a565b6200043f838362000361565b80600019048211156200045657620004566200034b565b0290505b92915050565b60006200046e8383620003aa565b9392505050565b60008160001904831182151516156200049257620004926200034b565b500290565b60008219821115620004ad57620004ad6200034b565b500190565b610a4080620004c26000396000f3fe608060405234801561001057600080fd5b50600436106100df5760003560e01c80634a7dd5231161008c578063a457c2d711610066578063a457c2d7146101b2578063a9059cbb146101c5578063dd62ed3e146101d8578063e1f21c671461021157600080fd5b80634a7dd5231461016c57806370a082311461018157806395d89b41146101aa57600080fd5b806323b872dd116100bd57806323b872dd14610137578063313ce5671461014a578063395093511461015957600080fd5b806306fdde03146100e4578063095ea7b31461010257806318160ddd14610125575b600080fd5b6100ec610224565b6040516100f99190610865565b60405180910390f35b6101156101103660046108d6565b6102b6565b60405190151581526020016100f9565b6002545b6040519081526020016100f9565b610115610145366004610900565b6102ce565b604051601281526020016100f9565b6101156101673660046108d6565b6102f2565b61017f61017a36600461093c565b610331565b005b61012961018f366004610955565b6001600160a01b031660009081526020819052604090205490565b6100ec61033e565b6101156101c03660046108d6565b61034d565b6101156101d33660046108d6565b6103e4565b6101296101e6366004610977565b6001600160a01b03918216600090815260016020908152604080832093909416825291909152205490565b61017f61021f366004610900565b6103f2565b606060038054610233906109aa565b80601f016020809104026020016040519081016040528092919081815260200182805461025f906109aa565b80156102ac5780601f10610281576101008083540402835291602001916102ac565b820191906000526020600020905b81548152906001019060200180831161028f57829003601f168201915b5050505050905090565b6000336102c4818585610402565b5060019392505050565b6000336102dc858285610526565b6102e78585856105b8565b506001949350505050565b3360008181526001602090815260408083206001600160a01b03871684529091528120549091906102c4908290869061032c9087906109e4565b610402565b61033b3282610786565b50565b606060048054610233906109aa565b3360008181526001602090815260408083206001600160a01b0387168452909152812054909190838110156103d75760405162461bcd60e51b815260206004820152602560248201527f45524332303a2064656372656173656420616c6c6f77616e63652062656c6f77604482015264207a65726f60d81b60648201526084015b60405180910390fd5b6102e78286868403610402565b6000336102c48185856105b8565b6103fd838383610402565b505050565b6001600160a01b0383166104645760405162461bcd60e51b8152602060048201526024808201527f45524332303a20617070726f76652066726f6d20746865207a65726f206164646044820152637265737360e01b60648201526084016103ce565b6001600160a01b0382166104c55760405162461bcd60e51b815260206004820152602260248201527f45524332303a20617070726f766520746f20746865207a65726f206164647265604482015261737360f01b60648201526084016103ce565b6001600160a01b0383811660008181526001602090815260408083209487168084529482529182902085905590518481527f8c5be1e5ebec7d5bd14f71427d1e84f3dd0314c0f7b2291e5b200ac8c7c3b925910160405180910390a3505050565b6001600160a01b0383811660009081526001602090815260408083209386168352929052205460001981146105b257818110156105a55760405162461bcd60e51b815260206004820152601d60248201527f45524332303a20696e73756666696369656e7420616c6c6f77616e636500000060448201526064016103ce565b6105b28484848403610402565b50505050565b6001600160a01b03831661061c5760405162461bcd60e51b815260206004820152602560248201527f45524332303a207472616e736665722066726f6d20746865207a65726f206164604482015264647265737360d81b60648201526084016103ce565b6001600160a01b03821661067e5760405162461bcd60e51b815260206004820152602360248201527f45524332303a207472616e7366657220746f20746865207a65726f206164647260448201526265737360e81b60648201526084016103ce565b6001600160a01b038316600090815260208190526040902054818110156106f65760405162461bcd60e51b815260206004820152602660248201527f45524332303a207472616e7366657220616d6f756e7420657863656564732062604482015265616c616e636560d01b60648201526084016103ce565b6001600160a01b0380851660009081526020819052604080822085850390559185168152908120805484929061072d9084906109e4565b92505081905550826001600160a01b0316846001600160a01b03167fddf252ad1be2c89b69c2b068fc378daa952ba7f163c4a11628f55a4df523b3ef8460405161077991815260200190565b60405180910390a36105b2565b6001600160a01b0382166107dc5760405162461bcd60e51b815260206004820152601f60248201527f45524332303a206d696e7420746f20746865207a65726f20616464726573730060448201526064016103ce565b80600260008282546107ee91906109e4565b90915550506001600160a01b0382166000908152602081905260408120805483929061081b9084906109e4565b90915550506040518181526001600160a01b038316906000907fddf252ad1be2c89b69c2b068fc378daa952ba7f163c4a11628f55a4df523b3ef9060200160405180910390a35050565b600060208083528351808285015260005b8181101561089257858101830151858201604001528201610876565b818111156108a4576000604083870101525b50601f01601f1916929092016040019392505050565b80356001600160a01b03811681146108d157600080fd5b919050565b600080604083850312156108e957600080fd5b6108f2836108ba565b946020939093013593505050565b60008060006060848603121561091557600080fd5b61091e846108ba565b925061092c602085016108ba565b9150604084013590509250925092565b60006020828403121561094e57600080fd5b5035919050565b60006020828403121561096757600080fd5b610970826108ba565b9392505050565b6000806040838503121561098a57600080fd5b610993836108ba565b91506109a1602084016108ba565b90509250929050565b600181811c908216806109be57607f821691505b6020821081036109de57634e487b7160e01b600052602260045260246000fd5b50919050565b60008219821115610a0557634e487b7160e01b600052601160045260246000fd5b50019056fea2646970667358221220e5dbe6e27fdd033bb81b4dfd97b38df9b4495d8c52b4883548a44227410c5ebc64736f6c634300080f0033",
  "immutableReferences": {},
  "source": "// SPDX-License-Identifier: GPL-3.0\r\n\r\npragma solidity >=0.7.0 <0.9.0;\r\n\r\n//Necessitem l'estandard ERC20 ja implementant\r\nimport \"@openzeppelin/contracts/token/ERC20/ERC20.sol\";\r\n\r\ncontract Tokfa is ERC20 {\r\n\r\n    constructor(uint256 quants_tokens) ERC20(\"Tokfa\", \"TFA\") {\r\n        _mint(tx.origin, quants_tokens * 10**uint(decimals()));\r\n    }\r\n\r\n    function approve(address owner, address spender, uint256 amount) public {\r\n        _approve(owner, spender, amount);\r\n    }\r\n\r\n    function generate(uint256 news) public {\r\n        _mint(tx.origin, news);\r\n    }\r\n}",
  "sourcePath": "C:\\Users\\qsamb\\OneDrive\\Escritorio\\PFG\\Recursos\\Code\\TEST\\contracts\\Tokenitzar.sol",
  "compiler": {
    "name": "solc",
    "version": "0.8.15+commit.e14f2714.Emscripten.clang"
  },
  "schemaVersion": "3.4.8",
  "updatedAt": "2022-08-22T12:54:30.806Z",
  "devdoc": {
    "kind": "dev",
    "methods": {
      "allowance(address,address)": {
        "details": "See {IERC20-allowance}."
      },
      "approve(address,uint256)": {
        "details": "See {IERC20-approve}. NOTE: If `amount` is the maximum `uint256`, the allowance is not updated on `transferFrom`. This is semantically equivalent to an infinite approval. Requirements: - `spender` cannot be the zero address."
      },
      "balanceOf(address)": {
        "details": "See {IERC20-balanceOf}."
      },
      "decimals()": {
        "details": "Returns the number of decimals used to get its user representation. For example, if `decimals` equals `2`, a balance of `505` tokens should be displayed to a user as `5.05` (`505 / 10 ** 2`). Tokens usually opt for a value of 18, imitating the relationship between Ether and Wei. This is the value {ERC20} uses, unless this function is overridden; NOTE: This information is only used for _display_ purposes: it in no way affects any of the arithmetic of the contract, including {IERC20-balanceOf} and {IERC20-transfer}."
      },
      "decreaseAllowance(address,uint256)": {
        "details": "Atomically decreases the allowance granted to `spender` by the caller. This is an alternative to {approve} that can be used as a mitigation for problems described in {IERC20-approve}. Emits an {Approval} event indicating the updated allowance. Requirements: - `spender` cannot be the zero address. - `spender` must have allowance for the caller of at least `subtractedValue`."
      },
      "increaseAllowance(address,uint256)": {
        "details": "Atomically increases the allowance granted to `spender` by the caller. This is an alternative to {approve} that can be used as a mitigation for problems described in {IERC20-approve}. Emits an {Approval} event indicating the updated allowance. Requirements: - `spender` cannot be the zero address."
      },
      "name()": {
        "details": "Returns the name of the token."
      },
      "symbol()": {
        "details": "Returns the symbol of the token, usually a shorter version of the name."
      },
      "totalSupply()": {
        "details": "See {IERC20-totalSupply}."
      },
      "transfer(address,uint256)": {
        "details": "See {IERC20-transfer}. Requirements: - `to` cannot be the zero address. - the caller must have a balance of at least `amount`."
      },
      "transferFrom(address,address,uint256)": {
        "details": "See {IERC20-transferFrom}. Emits an {Approval} event indicating the updated allowance. This is not required by the EIP. See the note at the beginning of {ERC20}. NOTE: Does not update the allowance if the current allowance is the maximum `uint256`. Requirements: - `from` and `to` cannot be the zero address. - `from` must have a balance of at least `amount`. - the caller must have allowance for ``from``'s tokens of at least `amount`."
      }
    },
    "version": 1
  },
  "userdoc": {
    "kind": "user",
    "methods": {},
    "version": 1
  }
}