{
  "contractName": "Verificacio",
  "abi": [
    {
      "anonymous": false,
      "inputs": [
        {
          "indexed": true,
          "internalType": "address",
          "name": "denegador",
          "type": "address"
        },
        {
          "indexed": false,
          "internalType": "string",
          "name": "asset",
          "type": "string"
        }
      ],
      "name": "Denegation",
      "type": "event"
    },
    {
      "anonymous": false,
      "inputs": [
        {
          "indexed": true,
          "internalType": "address",
          "name": "validador",
          "type": "address"
        },
        {
          "indexed": false,
          "internalType": "string",
          "name": "asset",
          "type": "string"
        }
      ],
      "name": "Validation",
      "type": "event"
    },
    {
      "inputs": [
        {
          "internalType": "address",
          "name": "",
          "type": "address"
        }
      ],
      "name": "denegations",
      "outputs": [
        {
          "internalType": "bool",
          "name": "",
          "type": "bool"
        }
      ],
      "stateMutability": "view",
      "type": "function"
    },
    {
      "inputs": [
        {
          "internalType": "uint256",
          "name": "",
          "type": "uint256"
        }
      ],
      "name": "denegators",
      "outputs": [
        {
          "internalType": "address",
          "name": "",
          "type": "address"
        }
      ],
      "stateMutability": "view",
      "type": "function"
    },
    {
      "inputs": [],
      "name": "filename",
      "outputs": [
        {
          "internalType": "string",
          "name": "",
          "type": "string"
        }
      ],
      "stateMutability": "view",
      "type": "function"
    },
    {
      "inputs": [],
      "name": "hash",
      "outputs": [
        {
          "internalType": "string",
          "name": "",
          "type": "string"
        }
      ],
      "stateMutability": "view",
      "type": "function"
    },
    {
      "inputs": [],
      "name": "link",
      "outputs": [
        {
          "internalType": "string",
          "name": "",
          "type": "string"
        }
      ],
      "stateMutability": "view",
      "type": "function"
    },
    {
      "inputs": [],
      "name": "owner",
      "outputs": [
        {
          "internalType": "address",
          "name": "",
          "type": "address"
        }
      ],
      "stateMutability": "view",
      "type": "function"
    },
    {
      "inputs": [],
      "name": "payer",
      "outputs": [
        {
          "internalType": "string",
          "name": "",
          "type": "string"
        }
      ],
      "stateMutability": "view",
      "type": "function"
    },
    {
      "inputs": [
        {
          "internalType": "address",
          "name": "",
          "type": "address"
        }
      ],
      "name": "validations",
      "outputs": [
        {
          "internalType": "bool",
          "name": "",
          "type": "bool"
        }
      ],
      "stateMutability": "view",
      "type": "function"
    },
    {
      "inputs": [
        {
          "internalType": "uint256",
          "name": "",
          "type": "uint256"
        }
      ],
      "name": "validators",
      "outputs": [
        {
          "internalType": "address",
          "name": "",
          "type": "address"
        }
      ],
      "stateMutability": "view",
      "type": "function"
    },
    {
      "inputs": [],
      "name": "validate",
      "outputs": [],
      "stateMutability": "nonpayable",
      "type": "function"
    },
    {
      "inputs": [],
      "name": "denegate",
      "outputs": [],
      "stateMutability": "nonpayable",
      "type": "function"
    },
    {
      "inputs": [],
      "name": "checkValidation",
      "outputs": [
        {
          "internalType": "bool",
          "name": "",
          "type": "bool"
        }
      ],
      "stateMutability": "view",
      "type": "function"
    },
    {
      "inputs": [
        {
          "internalType": "address",
          "name": "_user",
          "type": "address"
        }
      ],
      "name": "hasValidated",
      "outputs": [
        {
          "internalType": "bool",
          "name": "",
          "type": "bool"
        }
      ],
      "stateMutability": "view",
      "type": "function"
    },
    {
      "inputs": [
        {
          "internalType": "address",
          "name": "_user",
          "type": "address"
        }
      ],
      "name": "hasDenied",
      "outputs": [
        {
          "internalType": "bool",
          "name": "",
          "type": "bool"
        }
      ],
      "stateMutability": "view",
      "type": "function"
    },
    {
      "inputs": [],
      "name": "getOwner",
      "outputs": [
        {
          "internalType": "address",
          "name": "",
          "type": "address"
        }
      ],
      "stateMutability": "view",
      "type": "function"
    },
    {
      "inputs": [],
      "name": "getFilename",
      "outputs": [
        {
          "internalType": "string",
          "name": "",
          "type": "string"
        }
      ],
      "stateMutability": "view",
      "type": "function"
    },
    {
      "inputs": [],
      "name": "nValidations",
      "outputs": [
        {
          "internalType": "uint256",
          "name": "",
          "type": "uint256"
        }
      ],
      "stateMutability": "view",
      "type": "function"
    },
    {
      "inputs": [],
      "name": "nDenegations",
      "outputs": [
        {
          "internalType": "uint256",
          "name": "",
          "type": "uint256"
        }
      ],
      "stateMutability": "view",
      "type": "function"
    },
    {
      "inputs": [
        {
          "internalType": "address",
          "name": "user",
          "type": "address"
        }
      ],
      "name": "setOwner",
      "outputs": [],
      "stateMutability": "nonpayable",
      "type": "function"
    },
    {
      "inputs": [
        {
          "internalType": "string",
          "name": "name",
          "type": "string"
        }
      ],
      "name": "setFilename",
      "outputs": [],
      "stateMutability": "nonpayable",
      "type": "function"
    },
    {
      "inputs": [
        {
          "internalType": "string",
          "name": "_payer",
          "type": "string"
        }
      ],
      "name": "setPayer",
      "outputs": [],
      "stateMutability": "nonpayable",
      "type": "function"
    },
    {
      "inputs": [
        {
          "internalType": "string",
          "name": "_hash",
          "type": "string"
        }
      ],
      "name": "setHashDoc",
      "outputs": [],
      "stateMutability": "nonpayable",
      "type": "function"
    },
    {
      "inputs": [
        {
          "internalType": "string",
          "name": "_link",
          "type": "string"
        }
      ],
      "name": "setLinkDoc",
      "outputs": [],
      "stateMutability": "nonpayable",
      "type": "function"
    }
  ],
  "bytecode": "0x608060405234801561001057600080fd5b506119b2806100206000396000f3fe608060405234801561001057600080fd5b506004361061014d5760003560e01c80636901f668116100c3578063ac7fdd391161007c578063ac7fdd3914610342578063b794cc2f14610360578063c437457514610390578063cef2320c146103c0578063ea7a9b4e146103de578063f71553451461040e5761014d565b80636901f668146102a4578063893d20e8146102ae5780638d15d676146102cc5780638da5cb5b146102e8578063990ec12b14610306578063a2932558146103245761014d565b80631c4695f4116101155780631c4695f4146101f65780631d846c651461021457806335aa2e44146102305780634e7f4d3c146102605780635836e0b51461027c5780635d8ab6e7146102865761014d565b8063036b61101461015257806309bd5a601461016e578063123119cd1461018c57806313af4035146101aa5780631a2db8d2146101c6575b600080fd5b61016c6004803603810190610167919061112e565b61043e565b005b610176610451565b60405161018391906111ff565b60405180910390f35b6101946104df565b6040516101a191906111ff565b60405180910390f35b6101c460048036038101906101bf919061127f565b61056d565b005b6101e060048036038101906101db919061127f565b6105b0565b6040516101ed91906112c7565b60405180910390f35b6101fe6105d0565b60405161020b91906111ff565b60405180910390f35b61022e6004803603810190610229919061112e565b61065e565b005b61024a60048036038101906102459190611318565b610671565b6040516102579190611354565b60405180910390f35b61027a6004803603810190610275919061112e565b6106b0565b005b6102846106c3565b005b61028e610977565b60405161029b919061137e565b60405180910390f35b6102ac610984565b005b6102b6610c38565b6040516102c39190611354565b60405180910390f35b6102e660048036038101906102e1919061112e565b610c61565b005b6102f0610c74565b6040516102fd9190611354565b60405180910390f35b61030e610c98565b60405161031b919061137e565b60405180910390f35b61032c610ca5565b60405161033991906111ff565b60405180910390f35b61034a610d33565b60405161035791906112c7565b60405180910390f35b61037a6004803603810190610375919061127f565b610d87565b60405161038791906112c7565b60405180910390f35b6103aa60048036038101906103a5919061127f565b610e35565b6040516103b791906112c7565b60405180910390f35b6103c8610ee3565b6040516103d591906111ff565b60405180910390f35b6103f860048036038101906103f39190611318565b610f75565b6040516104059190611354565b60405180910390f35b6104286004803603810190610423919061127f565b610fb4565b60405161043591906112c7565b60405180910390f35b806002908161044d91906115a5565b5050565b6003805461045e906113c8565b80601f016020809104026020016040519081016040528092919081815260200182805461048a906113c8565b80156104d75780601f106104ac576101008083540402835291602001916104d7565b820191906000526020600020905b8154815290600101906020018083116104ba57829003601f168201915b505050505081565b600180546104ec906113c8565b80601f0160208091040260200160405190810160405280929190818152602001828054610518906113c8565b80156105655780601f1061053a57610100808354040283529160200191610565565b820191906000526020600020905b81548152906001019060200180831161054857829003601f168201915b505050505081565b806000806101000a81548173ffffffffffffffffffffffffffffffffffffffff021916908373ffffffffffffffffffffffffffffffffffffffff16021790555050565b60086020528060005260406000206000915054906101000a900460ff1681565b600480546105dd906113c8565b80601f0160208091040260200160405190810160405280929190818152602001828054610609906113c8565b80156106565780601f1061062b57610100808354040283529160200191610656565b820191906000526020600020905b81548152906001019060200180831161063957829003601f168201915b505050505081565b806003908161066d91906115a5565b5050565b6005818154811061068157600080fd5b906000526020600020016000915054906101000a900473ffffffffffffffffffffffffffffffffffffffff1681565b80600190816106bf91906115a5565b5050565b3273ffffffffffffffffffffffffffffffffffffffff1660008054906101000a900473ffffffffffffffffffffffffffffffffffffffff1673ffffffffffffffffffffffffffffffffffffffff1603610751576040517f08c379a0000000000000000000000000000000000000000000000000000000008152600401610748906116e9565b60405180910390fd5b600860003273ffffffffffffffffffffffffffffffffffffffff1673ffffffffffffffffffffffffffffffffffffffff16815260200190815260200160002060009054906101000a900460ff16156107de576040517f08c379a00000000000000000000000000000000000000000000000000000000081526004016107d590611755565b60405180910390fd5b600760003273ffffffffffffffffffffffffffffffffffffffff1673ffffffffffffffffffffffffffffffffffffffff16815260200190815260200160002060009054906101000a900460ff161561086b576040517f08c379a0000000000000000000000000000000000000000000000000000000008152600401610862906117c1565b60405180910390fd5b6006329080600181540180825580915050600190039060005260206000200160009091909190916101000a81548173ffffffffffffffffffffffffffffffffffffffff021916908373ffffffffffffffffffffffffffffffffffffffff1602179055506001600860003273ffffffffffffffffffffffffffffffffffffffff1673ffffffffffffffffffffffffffffffffffffffff16815260200190815260200160002060006101000a81548160ff0219169083151502179055503273ffffffffffffffffffffffffffffffffffffffff167f9036bc06ad4a578f0132d89ba4adc07b9772275526730acc38d7e4b4c11872a3600260405161096d9190611865565b60405180910390a2565b6000600680549050905090565b3273ffffffffffffffffffffffffffffffffffffffff1660008054906101000a900473ffffffffffffffffffffffffffffffffffffffff1673ffffffffffffffffffffffffffffffffffffffff1603610a12576040517f08c379a0000000000000000000000000000000000000000000000000000000008152600401610a09906116e9565b60405180910390fd5b600760003273ffffffffffffffffffffffffffffffffffffffff1673ffffffffffffffffffffffffffffffffffffffff16815260200190815260200160002060009054906101000a900460ff1615610a9f576040517f08c379a0000000000000000000000000000000000000000000000000000000008152600401610a96906118d3565b60405180910390fd5b600860003273ffffffffffffffffffffffffffffffffffffffff1673ffffffffffffffffffffffffffffffffffffffff16815260200190815260200160002060009054906101000a900460ff1615610b2c576040517f08c379a0000000000000000000000000000000000000000000000000000000008152600401610b23906117c1565b60405180910390fd5b6005329080600181540180825580915050600190039060005260206000200160009091909190916101000a81548173ffffffffffffffffffffffffffffffffffffffff021916908373ffffffffffffffffffffffffffffffffffffffff1602179055506001600760003273ffffffffffffffffffffffffffffffffffffffff1673ffffffffffffffffffffffffffffffffffffffff16815260200190815260200160002060006101000a81548160ff0219169083151502179055503273ffffffffffffffffffffffffffffffffffffffff167f57d77eb32e87e8c65c7cec1df5b0e8a8d5c4eae1b40c7246e7668ed702dd247a6002604051610c2e9190611865565b60405180910390a2565b60008060009054906101000a900473ffffffffffffffffffffffffffffffffffffffff16905090565b8060049081610c7091906115a5565b5050565b60008054906101000a900473ffffffffffffffffffffffffffffffffffffffff1681565b6000600580549050905090565b60028054610cb2906113c8565b80601f0160208091040260200160405190810160405280929190818152602001828054610cde906113c8565b8015610d2b5780601f10610d0057610100808354040283529160200191610d2b565b820191906000526020600020905b815481529060010190602001808311610d0e57829003601f168201915b505050505081565b600080610d3e610977565b90506000610d4a610c98565b9050600082148015610d5d575060058110155b80610d80575060008214158015610d7f5750600582610d7c9190611922565b81115b5b9250505090565b60008173ffffffffffffffffffffffffffffffffffffffff1660008054906101000a900473ffffffffffffffffffffffffffffffffffffffff1673ffffffffffffffffffffffffffffffffffffffff1603610de157600080fd5b600860008373ffffffffffffffffffffffffffffffffffffffff1673ffffffffffffffffffffffffffffffffffffffff16815260200190815260200160002060009054906101000a900460ff169050919050565b60008173ffffffffffffffffffffffffffffffffffffffff1660008054906101000a900473ffffffffffffffffffffffffffffffffffffffff1673ffffffffffffffffffffffffffffffffffffffff1603610e8f57600080fd5b600760008373ffffffffffffffffffffffffffffffffffffffff1673ffffffffffffffffffffffffffffffffffffffff16815260200190815260200160002060009054906101000a900460ff169050919050565b606060028054610ef2906113c8565b80601f0160208091040260200160405190810160405280929190818152602001828054610f1e906113c8565b8015610f6b5780601f10610f4057610100808354040283529160200191610f6b565b820191906000526020600020905b815481529060010190602001808311610f4e57829003601f168201915b5050505050905090565b60068181548110610f8557600080fd5b906000526020600020016000915054906101000a900473ffffffffffffffffffffffffffffffffffffffff1681565b60076020528060005260406000206000915054906101000a900460ff1681565b6000604051905090565b600080fd5b600080fd5b600080fd5b600080fd5b6000601f19601f8301169050919050565b7f4e487b7100000000000000000000000000000000000000000000000000000000600052604160045260246000fd5b61103b82610ff2565b810181811067ffffffffffffffff8211171561105a57611059611003565b5b80604052505050565b600061106d610fd4565b90506110798282611032565b919050565b600067ffffffffffffffff82111561109957611098611003565b5b6110a282610ff2565b9050602081019050919050565b82818337600083830152505050565b60006110d16110cc8461107e565b611063565b9050828152602081018484840111156110ed576110ec610fed565b5b6110f88482856110af565b509392505050565b600082601f83011261111557611114610fe8565b5b81356111258482602086016110be565b91505092915050565b60006020828403121561114457611143610fde565b5b600082013567ffffffffffffffff81111561116257611161610fe3565b5b61116e84828501611100565b91505092915050565b600081519050919050565b600082825260208201905092915050565b60005b838110156111b1578082015181840152602081019050611196565b838111156111c0576000848401525b50505050565b60006111d182611177565b6111db8185611182565b93506111eb818560208601611193565b6111f481610ff2565b840191505092915050565b6000602082019050818103600083015261121981846111c6565b905092915050565b600073ffffffffffffffffffffffffffffffffffffffff82169050919050565b600061124c82611221565b9050919050565b61125c81611241565b811461126757600080fd5b50565b60008135905061127981611253565b92915050565b60006020828403121561129557611294610fde565b5b60006112a38482850161126a565b91505092915050565b60008115159050919050565b6112c1816112ac565b82525050565b60006020820190506112dc60008301846112b8565b92915050565b6000819050919050565b6112f5816112e2565b811461130057600080fd5b50565b600081359050611312816112ec565b92915050565b60006020828403121561132e5761132d610fde565b5b600061133c84828501611303565b91505092915050565b61134e81611241565b82525050565b60006020820190506113696000830184611345565b92915050565b611378816112e2565b82525050565b6000602082019050611393600083018461136f565b92915050565b7f4e487b7100000000000000000000000000000000000000000000000000000000600052602260045260246000fd5b600060028204905060018216806113e057607f821691505b6020821081036113f3576113f2611399565b5b50919050565b60008190508160005260206000209050919050565b60006020601f8301049050919050565b600082821b905092915050565b60006008830261145b7fffffffffffffffffffffffffffffffffffffffffffffffffffffffffffffffff8261141e565b611465868361141e565b95508019841693508086168417925050509392505050565b6000819050919050565b60006114a261149d611498846112e2565b61147d565b6112e2565b9050919050565b6000819050919050565b6114bc83611487565b6114d06114c8826114a9565b84845461142b565b825550505050565b600090565b6114e56114d8565b6114f08184846114b3565b505050565b5b81811015611514576115096000826114dd565b6001810190506114f6565b5050565b601f8211156115595761152a816113f9565b6115338461140e565b81016020851015611542578190505b61155661154e8561140e565b8301826114f5565b50505b505050565b600082821c905092915050565b600061157c6000198460080261155e565b1980831691505092915050565b6000611595838361156b565b9150826002028217905092915050565b6115ae82611177565b67ffffffffffffffff8111156115c7576115c6611003565b5b6115d182546113c8565b6115dc828285611518565b600060209050601f83116001811461160f57600084156115fd578287015190505b6116078582611589565b86555061166f565b601f19841661161d866113f9565b60005b8281101561164557848901518255600182019150602085019450602081019050611620565b86831015611662578489015161165e601f89168261156b565b8355505b6001600288020188555050505b505050505050565b7f456c206f776e6572206e6f20706f742076616c6964617220656c20736575206160008201527f7373657400000000000000000000000000000000000000000000000000000000602082015250565b60006116d3602483611182565b91506116de82611677565b604082019050919050565b60006020820190508181036000830152611702816116c6565b9050919050565b7f44656e656761646f722072657065746974000000000000000000000000000000600082015250565b600061173f601183611182565b915061174a82611709565b602082019050919050565b6000602082019050818103600083015261176e81611732565b9050919050565b7f4e6f20706f74732076616c6964617220692064656e6567617220616c686f7261600082015250565b60006117ab602083611182565b91506117b682611775565b602082019050919050565b600060208201905081810360008301526117da8161179e565b9050919050565b600081546117ee816113c8565b6117f88186611182565b9450600182166000811461181357600181146118295761185c565b60ff19831686528115156020028601935061185c565b611832856113f9565b60005b8381101561185457815481890152600182019150602081019050611835565b808801955050505b50505092915050565b6000602082019050818103600083015261187f81846117e1565b905092915050565b7f56616c696461646f722072657065746974000000000000000000000000000000600082015250565b60006118bd601183611182565b91506118c882611887565b602082019050919050565b600060208201905081810360008301526118ec816118b0565b9050919050565b7f4e487b7100000000000000000000000000000000000000000000000000000000600052601160045260246000fd5b600061192d826112e2565b9150611938836112e2565b9250817fffffffffffffffffffffffffffffffffffffffffffffffffffffffffffffffff0483118215151615611971576119706118f3565b5b82820290509291505056fea26469706673582212201c20fdf8a3a4272654b0814dd0db0cc3dad7b8879d667e87eb13204398c2dfec64736f6c634300080f0033",
  "immutableReferences": {},
  "source": "// SPDX-License-Identifier: GPL-3.0\r\n\r\npragma solidity^0.8.15;\r\n\r\ncontract Verificacio{\r\n\r\n    //1. Elements del contracte\r\n\r\n    // Primer identifiquem el owner del document\r\n    address public owner;\r\n\r\n    // Nom del document\r\n    string public payer;\r\n    string public filename;\r\n    string public hash;\r\n    string public link;\r\n\r\n    // validators del document\r\n    address[] public validators;\r\n    // No validators del document\r\n    address[] public denegators;\r\n\r\n    // Mapa de comprovaci de les validations amb un comentari\r\n    mapping (address=>bool) public validations;\r\n    // Mapa de comprovaci de les denegations amb un comentari\r\n    mapping (address=>bool) public denegations;\r\n\r\n\r\n    //3. VALIDAR\r\n    event Validation(address indexed validador, string asset);\r\n\r\n    function validate() public {\r\n        require(owner != tx.origin, \"El owner no pot validar el seu asset\");\r\n        require(!validations[tx.origin], \"Validador repetit\");\r\n        require(!denegations[tx.origin], \"No pots validar i denegar alhora\");\r\n        validators.push(tx.origin);\r\n        validations[tx.origin] = true;\r\n\r\n        emit Validation(tx.origin, filename);\r\n\r\n    }\r\n\r\n    //4. DENEGAR\r\n    event Denegation(address indexed denegador, string asset);\r\n\r\n    function denegate() public {\r\n        require(owner != tx.origin, \"El owner no pot validar el seu asset\");\r\n        require(!denegations[tx.origin], \"Denegador repetit\");\r\n        require(!validations[tx.origin], \"No pots validar i denegar alhora\");\r\n        denegators.push(tx.origin);\r\n        denegations[tx.origin] = true;\r\n\r\n        emit Denegation(tx.origin, filename);\r\n\r\n    }\r\n\r\n    function checkValidation() public view returns(bool){\r\n        uint256 den = nDenegations();\r\n        uint256 val = nValidations();\r\n\r\n        return (den == 0 && val >= 5) || (den != 0 && val>(den*5));\r\n\r\n    }    \r\n\r\n\r\n\r\n    //Getters\r\n    function hasValidated(address _user) public view returns(bool) {\r\n        require(owner != _user);\r\n        return validations[_user];\r\n    }\r\n\r\n    function hasDenied(address _user) public view returns(bool) {\r\n        require(owner != _user);\r\n        return denegations[_user];\r\n    }\r\n\r\n    function getOwner() external view returns(address){\r\n        return owner;\r\n    }\r\n\r\n    function getFilename() external view returns(string memory){\r\n        return filename;\r\n    }\r\n\r\n    function nValidations() public view returns(uint256) {\r\n        return validators.length;\r\n    }\r\n\r\n    function nDenegations() public view returns(uint256) {\r\n        return denegators.length;\r\n    }\r\n\r\n    //SETTERS\r\n\r\n    function setOwner(address user) public {\r\n        owner = user;\r\n    }\r\n\r\n    function setFilename(string memory name) public {\r\n        filename = name;\r\n    }\r\n\r\n    function setPayer(string memory _payer) public {\r\n        payer = _payer;\r\n    }\r\n\r\n\r\n\r\n    function setHashDoc(string memory _hash) public {\r\n        hash = _hash;\r\n    }  \r\n\r\n    function setLinkDoc(string memory _link) public {\r\n        link = _link;\r\n    }  \r\n\r\n\r\n}",
  "sourcePath": "C:\\Users\\qsamb\\OneDrive\\Escritorio\\PFG\\Recursos\\Code\\TEST\\contracts\\Verificador.sol",
  "compiler": {
    "name": "solc",
    "version": "0.8.15+commit.e14f2714.Emscripten.clang"
  },
  "schemaVersion": "3.4.8",
  "updatedAt": "2022-08-10T15:29:18.611Z",
  "devdoc": {
    "kind": "dev",
    "methods": {},
    "version": 1
  },
  "userdoc": {
    "kind": "user",
    "methods": {},
    "version": 1
  }
}