{
  "contractName": "Verificacio",
  "abi": [
    {
      "anonymous": false,
      "inputs": [
        {
          "indexed": true,
          "internalType": "address",
          "name": "denegador",
          "type": "address"
        },
        {
          "indexed": false,
          "internalType": "string",
          "name": "asset",
          "type": "string"
        }
      ],
      "name": "Denegation",
      "type": "event"
    },
    {
      "anonymous": false,
      "inputs": [
        {
          "indexed": true,
          "internalType": "address",
          "name": "validador",
          "type": "address"
        },
        {
          "indexed": false,
          "internalType": "string",
          "name": "asset",
          "type": "string"
        }
      ],
      "name": "Validation",
      "type": "event"
    },
    {
      "inputs": [
        {
          "internalType": "address",
          "name": "",
          "type": "address"
        }
      ],
      "name": "denegations",
      "outputs": [
        {
          "internalType": "bool",
          "name": "",
          "type": "bool"
        }
      ],
      "stateMutability": "view",
      "type": "function"
    },
    {
      "inputs": [
        {
          "internalType": "uint256",
          "name": "",
          "type": "uint256"
        }
      ],
      "name": "denegators",
      "outputs": [
        {
          "internalType": "address",
          "name": "",
          "type": "address"
        }
      ],
      "stateMutability": "view",
      "type": "function"
    },
    {
      "inputs": [],
      "name": "filename",
      "outputs": [
        {
          "internalType": "string",
          "name": "",
          "type": "string"
        }
      ],
      "stateMutability": "view",
      "type": "function"
    },
    {
      "inputs": [],
      "name": "hash",
      "outputs": [
        {
          "internalType": "string",
          "name": "",
          "type": "string"
        }
      ],
      "stateMutability": "view",
      "type": "function"
    },
    {
      "inputs": [],
      "name": "link",
      "outputs": [
        {
          "internalType": "string",
          "name": "",
          "type": "string"
        }
      ],
      "stateMutability": "view",
      "type": "function"
    },
    {
      "inputs": [],
      "name": "owner",
      "outputs": [
        {
          "internalType": "address",
          "name": "",
          "type": "address"
        }
      ],
      "stateMutability": "view",
      "type": "function"
    },
    {
      "inputs": [],
      "name": "payer",
      "outputs": [
        {
          "internalType": "string",
          "name": "",
          "type": "string"
        }
      ],
      "stateMutability": "view",
      "type": "function"
    },
    {
      "inputs": [
        {
          "internalType": "address",
          "name": "",
          "type": "address"
        }
      ],
      "name": "validations",
      "outputs": [
        {
          "internalType": "bool",
          "name": "",
          "type": "bool"
        }
      ],
      "stateMutability": "view",
      "type": "function"
    },
    {
      "inputs": [
        {
          "internalType": "uint256",
          "name": "",
          "type": "uint256"
        }
      ],
      "name": "validators",
      "outputs": [
        {
          "internalType": "address",
          "name": "",
          "type": "address"
        }
      ],
      "stateMutability": "view",
      "type": "function"
    },
    {
      "inputs": [],
      "name": "validate",
      "outputs": [],
      "stateMutability": "nonpayable",
      "type": "function"
    },
    {
      "inputs": [],
      "name": "denegate",
      "outputs": [],
      "stateMutability": "nonpayable",
      "type": "function"
    },
    {
      "inputs": [],
      "name": "checkValidation",
      "outputs": [
        {
          "internalType": "bool",
          "name": "",
          "type": "bool"
        }
      ],
      "stateMutability": "view",
      "type": "function"
    },
    {
      "inputs": [
        {
          "internalType": "address",
          "name": "_user",
          "type": "address"
        }
      ],
      "name": "hasValidated",
      "outputs": [
        {
          "internalType": "bool",
          "name": "",
          "type": "bool"
        }
      ],
      "stateMutability": "view",
      "type": "function"
    },
    {
      "inputs": [
        {
          "internalType": "address",
          "name": "_user",
          "type": "address"
        }
      ],
      "name": "hasDenied",
      "outputs": [
        {
          "internalType": "bool",
          "name": "",
          "type": "bool"
        }
      ],
      "stateMutability": "view",
      "type": "function"
    },
    {
      "inputs": [],
      "name": "nValidations",
      "outputs": [
        {
          "internalType": "uint256",
          "name": "",
          "type": "uint256"
        }
      ],
      "stateMutability": "view",
      "type": "function"
    },
    {
      "inputs": [],
      "name": "nDenegations",
      "outputs": [
        {
          "internalType": "uint256",
          "name": "",
          "type": "uint256"
        }
      ],
      "stateMutability": "view",
      "type": "function"
    },
    {
      "inputs": [
        {
          "internalType": "address",
          "name": "user",
          "type": "address"
        }
      ],
      "name": "setOwner",
      "outputs": [],
      "stateMutability": "nonpayable",
      "type": "function"
    },
    {
      "inputs": [
        {
          "internalType": "string",
          "name": "name",
          "type": "string"
        }
      ],
      "name": "setFilename",
      "outputs": [],
      "stateMutability": "nonpayable",
      "type": "function"
    },
    {
      "inputs": [
        {
          "internalType": "string",
          "name": "_payer",
          "type": "string"
        }
      ],
      "name": "setPayer",
      "outputs": [],
      "stateMutability": "nonpayable",
      "type": "function"
    },
    {
      "inputs": [
        {
          "internalType": "string",
          "name": "_hash",
          "type": "string"
        }
      ],
      "name": "setHashDoc",
      "outputs": [],
      "stateMutability": "nonpayable",
      "type": "function"
    },
    {
      "inputs": [
        {
          "internalType": "string",
          "name": "_link",
          "type": "string"
        }
      ],
      "name": "setLinkDoc",
      "outputs": [],
      "stateMutability": "nonpayable",
      "type": "function"
    }
  ],
  "bytecode": "0x608060405234801561001057600080fd5b50610bc2806100206000396000f3fe608060405234801561001057600080fd5b50600436106101475760003560e01c80635d8ab6e7116100c8578063a29325581161008c578063c437457511610066578063c4374575146102b6578063ea7a9b4e146102c9578063f7155345146102dc57600080fd5b8063a293255814610293578063ac7fdd391461029b578063b794cc2f146102a357600080fd5b80635d8ab6e71461024b5780636901f6681461025d5780638d15d676146102655780638da5cb5b14610278578063990ec12b1461028b57600080fd5b80631c4695f41161010f5780631c4695f4146101ea5780631d846c65146101f257806335aa2e44146102055780634e7f4d3c146102305780635836e0b51461024357600080fd5b8063036b61101461014c57806309bd5a6014610161578063123119cd1461017f57806313af4035146101875780631a2db8d2146101b7575b600080fd5b61015f61015a3660046107ef565b6102ff565b005b61016961030f565b60405161017691906108a0565b60405180910390f35b61016961039d565b61015f6101953660046108f5565b600080546001600160a01b0319166001600160a01b0392909216919091179055565b6101da6101c53660046108f5565b60086020526000908152604090205460ff1681565b6040519015158152602001610176565b6101696103aa565b61015f6102003660046107ef565b6103b7565b610218610213366004610925565b6103c3565b6040516001600160a01b039091168152602001610176565b61015f61023e3660046107ef565b6103ed565b61015f6103f9565b6006545b604051908152602001610176565b61015f610581565b61015f6102733660046107ef565b6106fe565b600054610218906001600160a01b031681565b60055461024f565b61016961070a565b6101da610717565b6101da6102b13660046108f5565b610755565b6101da6102c43660046108f5565b61078f565b6102186102d7366004610925565b6107c9565b6101da6102ea3660046108f5565b60076020526000908152604090205460ff1681565b600261030b82826109c7565b5050565b6003805461031c9061093e565b80601f01602080910402602001604051908101604052809291908181526020018280546103489061093e565b80156103955780601f1061036a57610100808354040283529160200191610395565b820191906000526020600020905b81548152906001019060200180831161037857829003601f168201915b505050505081565b6001805461031c9061093e565b6004805461031c9061093e565b600361030b82826109c7565b600581815481106103d357600080fd5b6000918252602090912001546001600160a01b0316905081565b600161030b82826109c7565b600054326001600160a01b03909116036104655760405162461bcd60e51b815260206004820152602260248201527f4f776e65722063616e6e6f742064656e7920686973206f776e20646f63756d656044820152611b9d60f21b60648201526084015b60405180910390fd5b3260009081526008602052604090205460ff16156104ba5760405162461bcd60e51b81526020600482015260126024820152712932b832b0ba32b2103232b732b3b0ba37b960711b604482015260640161045c565b3260009081526007602052604090205460ff16156104ea5760405162461bcd60e51b815260040161045c90610a87565b6006805460018181019092557ff652222313e28459528d920b65115c16c04f3efc82aaedc97be59f3f377c0d3f0180546001600160a01b0319163290811790915560008181526008602052604090819020805460ff191690931790925590517f9036bc06ad4a578f0132d89ba4adc07b9772275526730acc38d7e4b4c11872a39061057790600290610ad4565b60405180910390a2565b600054326001600160a01b03909116036105ec5760405162461bcd60e51b815260206004820152602660248201527f4f776e65722063616e6e6f742076616c696461746520686973206f776e20646f60448201526518dd5b595b9d60d21b606482015260840161045c565b3260009081526007602052604090205460ff16156106415760405162461bcd60e51b81526020600482015260126024820152712932b832b0ba32b2103b30b634b230ba37b960711b604482015260640161045c565b3260009081526008602052604090205460ff16156106715760405162461bcd60e51b815260040161045c90610a87565b6005805460018181019092557f036b6384b5eca791c62761152d0c79bb0604c104a5fb6f4eb0703f3154bb3db00180546001600160a01b0319163290811790915560008181526007602052604090819020805460ff191690931790925590517f57d77eb32e87e8c65c7cec1df5b0e8a8d5c4eae1b40c7246e7668ed702dd247a9061057790600290610ad4565b600461030b82826109c7565b6002805461031c9061093e565b6006546005546000919081158015610730575060058110155b8061074e5750811580159061074e575061074b826005610b5f565b81115b9250505090565b600080546001600160a01b0380841691160361077057600080fd5b506001600160a01b031660009081526008602052604090205460ff1690565b600080546001600160a01b038084169116036107aa57600080fd5b506001600160a01b031660009081526007602052604090205460ff1690565b600681815481106103d357600080fd5b634e487b7160e01b600052604160045260246000fd5b60006020828403121561080157600080fd5b813567ffffffffffffffff8082111561081957600080fd5b818401915084601f83011261082d57600080fd5b81358181111561083f5761083f6107d9565b604051601f8201601f19908116603f01168101908382118183101715610867576108676107d9565b8160405282815287602084870101111561088057600080fd5b826020860160208301376000928101602001929092525095945050505050565b600060208083528351808285015260005b818110156108cd578581018301518582016040015282016108b1565b818111156108df576000604083870101525b50601f01601f1916929092016040019392505050565b60006020828403121561090757600080fd5b81356001600160a01b038116811461091e57600080fd5b9392505050565b60006020828403121561093757600080fd5b5035919050565b600181811c9082168061095257607f821691505b60208210810361097257634e487b7160e01b600052602260045260246000fd5b50919050565b601f8211156109c257600081815260208120601f850160051c8101602086101561099f5750805b601f850160051c820191505b818110156109be578281556001016109ab565b5050505b505050565b815167ffffffffffffffff8111156109e1576109e16107d9565b6109f5816109ef845461093e565b84610978565b602080601f831160018114610a2a5760008415610a125750858301515b600019600386901b1c1916600185901b1785556109be565b600085815260208120601f198616915b82811015610a5957888601518255948401946001909101908401610a3a565b5085821015610a775787850151600019600388901b60f8161c191681555b5050505050600190811b01905550565b6020808252602d908201527f596f752063616e6e6f742076616c696461746520616e642064656e792061742060408201526c7468652073616d652074696d6560981b606082015260800190565b6000602080835260008454610ae88161093e565b80848701526040600180841660008114610b095760018114610b2357610b51565b60ff1985168984015283151560051b890183019550610b51565b896000528660002060005b85811015610b495781548b8201860152908301908801610b2e565b8a0184019650505b509398975050505050505050565b6000816000190483118215151615610b8757634e487b7160e01b600052601160045260246000fd5b50029056fea2646970667358221220f4b8392c9cc8ecb3945735fee4657a414d25c400201183e22006a8a4e4cba7bd64736f6c634300080f0033",
  "immutableReferences": {},
  "source": "// SPDX-License-Identifier: GPL-3.0\r\n\r\npragma solidity >=0.7.0 <0.9.0;\r\n\r\ncontract Verificacio{\r\n\r\n    //1. Contract attributes\r\n\r\n    // First, the owner of the document\r\n    address public owner;\r\n\r\n    // Document information\r\n    string public payer;\r\n    string public filename;\r\n\r\n    // Trust attributes\r\n    string public hash;\r\n    string public link;\r\n\r\n    // Validators\r\n    address[] public validators;\r\n    // Deniers\r\n    address[] public denegators;\r\n\r\n    // Map with users that validated the document\r\n    mapping (address=>bool) public validations;\r\n    // Map with users that don't trust the document\r\n    mapping (address=>bool) public denegations;\r\n\r\n\r\n    //3. VALIDATE\r\n    event Validation(address indexed validador, string asset);\r\n\r\n    function validate() external {\r\n        require(owner != tx.origin, \"Owner cannot validate his own document\");\r\n        require(!validations[tx.origin], \"Repeated validator\");\r\n        require(!denegations[tx.origin], \"You cannot validate and deny at the same time\");\r\n        validators.push(tx.origin);\r\n        validations[tx.origin] = true;\r\n\r\n        emit Validation(tx.origin, filename);\r\n\r\n    }\r\n\r\n    //4. DENY\r\n    event Denegation(address indexed denegador, string asset);\r\n\r\n    function denegate() external {\r\n        require(owner != tx.origin, \"Owner cannot deny his own document\");\r\n        require(!denegations[tx.origin], \"Repeated denegator\");\r\n        require(!validations[tx.origin], \"You cannot validate and deny at the same time\");\r\n        denegators.push(tx.origin);\r\n        denegations[tx.origin] = true;\r\n\r\n        emit Denegation(tx.origin, filename);\r\n\r\n    }\r\n\r\n    function checkValidation() external view returns(bool){\r\n        uint256 den = denegators.length;\r\n        uint256 val = validators.length;\r\n\r\n        return (den == 0 && val >= 5) || (den != 0 && val>(den*5));\r\n\r\n    }    \r\n\r\n\r\n\r\n    //Getters\r\n    function hasValidated(address _user) external view returns(bool) {\r\n        require(owner != _user);\r\n        return validations[_user];\r\n    }\r\n\r\n    function hasDenied(address _user) external view returns(bool) {\r\n        require(owner != _user);\r\n        return denegations[_user];\r\n    }\r\n\r\n    function nValidations() external view returns(uint256) {\r\n        return validators.length;\r\n    }\r\n\r\n    function nDenegations() external view returns(uint256) {\r\n        return denegators.length;\r\n    }\r\n\r\n    //SETTERS\r\n\r\n    function setOwner(address user) external {\r\n        owner = user;\r\n    }\r\n\r\n    function setFilename(string memory name) external {\r\n        filename = name;\r\n    }\r\n\r\n    function setPayer(string memory _payer) external {\r\n        payer = _payer;\r\n    }\r\n\r\n    function setHashDoc(string memory _hash) external {\r\n        hash = _hash;\r\n    }  \r\n\r\n    function setLinkDoc(string memory _link) external {\r\n        link = _link;\r\n    }  \r\n\r\n\r\n}",
  "sourcePath": "C:\\Users\\qsamb\\OneDrive\\Escritorio\\PFG\\Recursos\\Code\\TEST\\contracts\\Verificador.sol",
  "compiler": {
    "name": "solc",
    "version": "0.8.15+commit.e14f2714.Emscripten.clang"
  },
  "schemaVersion": "3.4.8",
  "updatedAt": "2022-08-22T12:54:30.832Z",
  "devdoc": {
    "kind": "dev",
    "methods": {},
    "version": 1
  },
  "userdoc": {
    "kind": "user",
    "methods": {},
    "version": 1
  }
}